{
	"contracts/Crowdfunding.sol": {
		"Crowdfunding": {
			"abi": [
				{
					"inputs": [
						{
							"internalType": "string",
							"name": "_name",
							"type": "string"
						},
						{
							"internalType": "string",
							"name": "_description",
							"type": "string"
						},
						{
							"internalType": "uint256",
							"name": "_goal",
							"type": "uint256"
						},
						{
							"internalType": "uint256",
							"name": "_durationInDays",
							"type": "uint256"
						}
					],
					"stateMutability": "nonpayable",
					"type": "constructor"
				},
				{
					"inputs": [
						{
							"internalType": "string",
							"name": "_name",
							"type": "string"
						},
						{
							"internalType": "uint256",
							"name": "_amount",
							"type": "uint256"
						}
					],
					"name": "addTier",
					"outputs": [],
					"stateMutability": "nonpayable",
					"type": "function"
				},
				{
					"inputs": [],
					"name": "deadline",
					"outputs": [
						{
							"internalType": "uint256",
							"name": "",
							"type": "uint256"
						}
					],
					"stateMutability": "view",
					"type": "function"
				},
				{
					"inputs": [],
					"name": "description",
					"outputs": [
						{
							"internalType": "string",
							"name": "",
							"type": "string"
						}
					],
					"stateMutability": "view",
					"type": "function"
				},
				{
					"inputs": [
						{
							"internalType": "uint256",
							"name": "_tierIndex",
							"type": "uint256"
						}
					],
					"name": "fund",
					"outputs": [],
					"stateMutability": "payable",
					"type": "function"
				},
				{
					"inputs": [],
					"name": "getContractBalance",
					"outputs": [
						{
							"internalType": "uint256",
							"name": "",
							"type": "uint256"
						}
					],
					"stateMutability": "view",
					"type": "function"
				},
				{
					"inputs": [],
					"name": "getInfo",
					"outputs": [
						{
							"internalType": "string",
							"name": "",
							"type": "string"
						}
					],
					"stateMutability": "view",
					"type": "function"
				},
				{
					"inputs": [],
					"name": "goal",
					"outputs": [
						{
							"internalType": "uint256",
							"name": "",
							"type": "uint256"
						}
					],
					"stateMutability": "view",
					"type": "function"
				},
				{
					"inputs": [],
					"name": "name",
					"outputs": [
						{
							"internalType": "string",
							"name": "",
							"type": "string"
						}
					],
					"stateMutability": "view",
					"type": "function"
				},
				{
					"inputs": [],
					"name": "owner",
					"outputs": [
						{
							"internalType": "address",
							"name": "",
							"type": "address"
						}
					],
					"stateMutability": "view",
					"type": "function"
				},
				{
					"inputs": [
						{
							"internalType": "uint256",
							"name": "_index",
							"type": "uint256"
						}
					],
					"name": "removeTier",
					"outputs": [],
					"stateMutability": "nonpayable",
					"type": "function"
				},
				{
					"inputs": [
						{
							"internalType": "uint256",
							"name": "",
							"type": "uint256"
						}
					],
					"name": "tiers",
					"outputs": [
						{
							"internalType": "string",
							"name": "name",
							"type": "string"
						},
						{
							"internalType": "uint256",
							"name": "amount",
							"type": "uint256"
						},
						{
							"internalType": "uint256",
							"name": "backers",
							"type": "uint256"
						}
					],
					"stateMutability": "view",
					"type": "function"
				},
				{
					"inputs": [],
					"name": "withdraw",
					"outputs": [],
					"stateMutability": "nonpayable",
					"type": "function"
				}
			],
			"devdoc": {
				"kind": "dev",
				"methods": {},
				"version": 1
			},
			"evm": {
				"assembly": "    /* \"contracts/Crowdfunding.sol\":57:2201  contract Crowdfunding {... */\n  mstore(0x40, 0x80)\n    /* \"contracts/Crowdfunding.sol\":548:941  constructor (... */\n  callvalue\n  dup1\n  iszero\n  tag_1\n  jumpi\n  0x00\n  dup1\n  revert\ntag_1:\n  pop\n  mload(0x40)\n  sub(codesize, bytecodeSize)\n  dup1\n  bytecodeSize\n  dup4\n  codecopy\n  dup2\n  dup2\n  add\n  0x40\n  mstore\n  dup2\n  add\n  swap1\n  tag_2\n  swap2\n  swap1\n  tag_3\n  jump\t// in\ntag_2:\n    /* \"contracts/Crowdfunding.sol\":716:721  _name */\n  dup4\n    /* \"contracts/Crowdfunding.sol\":709:713  name */\n  0x00\n    /* \"contracts/Crowdfunding.sol\":709:721  name = _name */\n  swap1\n  dup2\n  tag_6\n  swap2\n  swap1\n  tag_7\n  jump\t// in\ntag_6:\n  pop\n    /* \"contracts/Crowdfunding.sol\":749:761  _description */\n  dup3\n    /* \"contracts/Crowdfunding.sol\":735:746  description */\n  0x01\n    /* \"contracts/Crowdfunding.sol\":735:761  description = _description */\n  swap1\n  dup2\n  tag_8\n  swap2\n  swap1\n  tag_7\n  jump\t// in\ntag_8:\n  pop\n    /* \"contracts/Crowdfunding.sol\":782:787  _goal */\n  dup2\n    /* \"contracts/Crowdfunding.sol\":775:779  goal */\n  0x02\n    /* \"contracts/Crowdfunding.sol\":775:787  goal = _goal */\n  dup2\n  swap1\n  sstore\n  pop\n    /* \"contracts/Crowdfunding.sol\":850:855  86400 */\n  0x015180\n    /* \"contracts/Crowdfunding.sol\":832:847  _durationInDays */\n  dup2\n    /* \"contracts/Crowdfunding.sol\":832:855  _durationInDays * 86400 */\n  tag_9\n  swap2\n  swap1\n  tag_10\n  jump\t// in\ntag_9:\n    /* \"contracts/Crowdfunding.sol\":813:828  block.timestamp */\n  timestamp\n    /* \"contracts/Crowdfunding.sol\":813:856  block.timestamp + (_durationInDays * 86400) */\n  tag_11\n  swap2\n  swap1\n  tag_12\n  jump\t// in\ntag_11:\n    /* \"contracts/Crowdfunding.sol\":801:809  deadline */\n  0x03\n    /* \"contracts/Crowdfunding.sol\":801:856  deadline =  block.timestamp + (_durationInDays * 86400) */\n  dup2\n  swap1\n  sstore\n  pop\n    /* \"contracts/Crowdfunding.sol\":878:888  msg.sender */\n  caller\n    /* \"contracts/Crowdfunding.sol\":870:875  owner */\n  0x04\n  0x00\n    /* \"contracts/Crowdfunding.sol\":870:888  owner = msg.sender */\n  0x0100\n  exp\n  dup2\n  sload\n  dup2\n  0xffffffffffffffffffffffffffffffffffffffff\n  mul\n  not\n  and\n  swap1\n  dup4\n  0xffffffffffffffffffffffffffffffffffffffff\n  and\n  mul\n  or\n  swap1\n  sstore\n  pop\n    /* \"contracts/Crowdfunding.sol\":548:941  constructor (... */\n  pop\n  pop\n  pop\n  pop\n    /* \"contracts/Crowdfunding.sol\":57:2201  contract Crowdfunding {... */\n  jump(tag_13)\n    /* \"#utility.yul\":7:82   */\ntag_14:\n    /* \"#utility.yul\":40:46   */\n  0x00\n    /* \"#utility.yul\":73:75   */\n  0x40\n    /* \"#utility.yul\":67:76   */\n  mload\n    /* \"#utility.yul\":57:76   */\n  swap1\n  pop\n    /* \"#utility.yul\":7:82   */\n  swap1\n  jump\t// out\n    /* \"#utility.yul\":88:205   */\ntag_15:\n    /* \"#utility.yul\":197:198   */\n  0x00\n    /* \"#utility.yul\":194:195   */\n  dup1\n    /* \"#utility.yul\":187:199   */\n  revert\n    /* \"#utility.yul\":211:328   */\ntag_16:\n    /* \"#utility.yul\":320:321   */\n  0x00\n    /* \"#utility.yul\":317:318   */\n  dup1\n    /* \"#utility.yul\":310:322   */\n  revert\n    /* \"#utility.yul\":334:451   */\ntag_17:\n    /* \"#utility.yul\":443:444   */\n  0x00\n    /* \"#utility.yul\":440:441   */\n  dup1\n    /* \"#utility.yul\":433:445   */\n  revert\n    /* \"#utility.yul\":457:574   */\ntag_18:\n    /* \"#utility.yul\":566:567   */\n  0x00\n    /* \"#utility.yul\":563:564   */\n  dup1\n    /* \"#utility.yul\":556:568   */\n  revert\n    /* \"#utility.yul\":580:682   */\ntag_19:\n    /* \"#utility.yul\":621:627   */\n  0x00\n    /* \"#utility.yul\":672:674   */\n  0x1f\n    /* \"#utility.yul\":668:675   */\n  not\n    /* \"#utility.yul\":663:665   */\n  0x1f\n    /* \"#utility.yul\":656:661   */\n  dup4\n    /* \"#utility.yul\":652:666   */\n  add\n    /* \"#utility.yul\":648:676   */\n  and\n    /* \"#utility.yul\":638:676   */\n  swap1\n  pop\n    /* \"#utility.yul\":580:682   */\n  swap2\n  swap1\n  pop\n  jump\t// out\n    /* \"#utility.yul\":688:868   */\ntag_20:\n    /* \"#utility.yul\":736:813   */\n  0x4e487b7100000000000000000000000000000000000000000000000000000000\n    /* \"#utility.yul\":733:734   */\n  0x00\n    /* \"#utility.yul\":726:814   */\n  mstore\n    /* \"#utility.yul\":833:837   */\n  0x41\n    /* \"#utility.yul\":830:831   */\n  0x04\n    /* \"#utility.yul\":823:838   */\n  mstore\n    /* \"#utility.yul\":857:861   */\n  0x24\n    /* \"#utility.yul\":854:855   */\n  0x00\n    /* \"#utility.yul\":847:862   */\n  revert\n    /* \"#utility.yul\":874:1155   */\ntag_21:\n    /* \"#utility.yul\":957:984   */\n  tag_58\n    /* \"#utility.yul\":979:983   */\n  dup3\n    /* \"#utility.yul\":957:984   */\n  tag_19\n  jump\t// in\ntag_58:\n    /* \"#utility.yul\":949:955   */\n  dup2\n    /* \"#utility.yul\":945:985   */\n  add\n    /* \"#utility.yul\":1087:1093   */\n  dup2\n    /* \"#utility.yul\":1075:1085   */\n  dup2\n    /* \"#utility.yul\":1072:1094   */\n  lt\n    /* \"#utility.yul\":1051:1069   */\n  0xffffffffffffffff\n    /* \"#utility.yul\":1039:1049   */\n  dup3\n    /* \"#utility.yul\":1036:1070   */\n  gt\n    /* \"#utility.yul\":1033:1095   */\n  or\n    /* \"#utility.yul\":1030:1118   */\n  iszero\n  tag_59\n  jumpi\n    /* \"#utility.yul\":1098:1116   */\n  tag_60\n  tag_20\n  jump\t// in\ntag_60:\n    /* \"#utility.yul\":1030:1118   */\ntag_59:\n    /* \"#utility.yul\":1138:1148   */\n  dup1\n    /* \"#utility.yul\":1134:1136   */\n  0x40\n    /* \"#utility.yul\":1127:1149   */\n  mstore\n    /* \"#utility.yul\":917:1155   */\n  pop\n    /* \"#utility.yul\":874:1155   */\n  pop\n  pop\n  jump\t// out\n    /* \"#utility.yul\":1161:1290   */\ntag_22:\n    /* \"#utility.yul\":1195:1201   */\n  0x00\n    /* \"#utility.yul\":1222:1242   */\n  tag_62\n  tag_14\n  jump\t// in\ntag_62:\n    /* \"#utility.yul\":1212:1242   */\n  swap1\n  pop\n    /* \"#utility.yul\":1251:1284   */\n  tag_63\n    /* \"#utility.yul\":1279:1283   */\n  dup3\n    /* \"#utility.yul\":1271:1277   */\n  dup3\n    /* \"#utility.yul\":1251:1284   */\n  tag_21\n  jump\t// in\ntag_63:\n    /* \"#utility.yul\":1161:1290   */\n  swap2\n  swap1\n  pop\n  jump\t// out\n    /* \"#utility.yul\":1296:1604   */\ntag_23:\n    /* \"#utility.yul\":1358:1362   */\n  0x00\n    /* \"#utility.yul\":1448:1466   */\n  0xffffffffffffffff\n    /* \"#utility.yul\":1440:1446   */\n  dup3\n    /* \"#utility.yul\":1437:1467   */\n  gt\n    /* \"#utility.yul\":1434:1490   */\n  iszero\n  tag_65\n  jumpi\n    /* \"#utility.yul\":1470:1488   */\n  tag_66\n  tag_20\n  jump\t// in\ntag_66:\n    /* \"#utility.yul\":1434:1490   */\ntag_65:\n    /* \"#utility.yul\":1508:1537   */\n  tag_67\n    /* \"#utility.yul\":1530:1536   */\n  dup3\n    /* \"#utility.yul\":1508:1537   */\n  tag_19\n  jump\t// in\ntag_67:\n    /* \"#utility.yul\":1500:1537   */\n  swap1\n  pop\n    /* \"#utility.yul\":1592:1596   */\n  0x20\n    /* \"#utility.yul\":1586:1590   */\n  dup2\n    /* \"#utility.yul\":1582:1597   */\n  add\n    /* \"#utility.yul\":1574:1597   */\n  swap1\n  pop\n    /* \"#utility.yul\":1296:1604   */\n  swap2\n  swap1\n  pop\n  jump\t// out\n    /* \"#utility.yul\":1610:1749   */\ntag_24:\n    /* \"#utility.yul\":1699:1705   */\n  dup3\n    /* \"#utility.yul\":1694:1697   */\n  dup2\n    /* \"#utility.yul\":1689:1692   */\n  dup4\n    /* \"#utility.yul\":1683:1706   */\n  mcopy\n    /* \"#utility.yul\":1740:1741   */\n  0x00\n    /* \"#utility.yul\":1731:1737   */\n  dup4\n    /* \"#utility.yul\":1726:1729   */\n  dup4\n    /* \"#utility.yul\":1722:1738   */\n  add\n    /* \"#utility.yul\":1715:1742   */\n  mstore\n    /* \"#utility.yul\":1610:1749   */\n  pop\n  pop\n  pop\n  jump\t// out\n    /* \"#utility.yul\":1755:2189   */\ntag_25:\n    /* \"#utility.yul\":1844:1849   */\n  0x00\n    /* \"#utility.yul\":1869:1935   */\n  tag_70\n    /* \"#utility.yul\":1885:1934   */\n  tag_71\n    /* \"#utility.yul\":1927:1933   */\n  dup5\n    /* \"#utility.yul\":1885:1934   */\n  tag_23\n  jump\t// in\ntag_71:\n    /* \"#utility.yul\":1869:1935   */\n  tag_22\n  jump\t// in\ntag_70:\n    /* \"#utility.yul\":1860:1935   */\n  swap1\n  pop\n    /* \"#utility.yul\":1958:1964   */\n  dup3\n    /* \"#utility.yul\":1951:1956   */\n  dup2\n    /* \"#utility.yul\":1944:1965   */\n  mstore\n    /* \"#utility.yul\":1996:2000   */\n  0x20\n    /* \"#utility.yul\":1989:1994   */\n  dup2\n    /* \"#utility.yul\":1985:2001   */\n  add\n    /* \"#utility.yul\":2034:2037   */\n  dup5\n    /* \"#utility.yul\":2025:2031   */\n  dup5\n    /* \"#utility.yul\":2020:2023   */\n  dup5\n    /* \"#utility.yul\":2016:2032   */\n  add\n    /* \"#utility.yul\":2013:2038   */\n  gt\n    /* \"#utility.yul\":2010:2122   */\n  iszero\n  tag_72\n  jumpi\n    /* \"#utility.yul\":2041:2120   */\n  tag_73\n  tag_18\n  jump\t// in\ntag_73:\n    /* \"#utility.yul\":2010:2122   */\ntag_72:\n    /* \"#utility.yul\":2131:2183   */\n  tag_74\n    /* \"#utility.yul\":2176:2182   */\n  dup5\n    /* \"#utility.yul\":2171:2174   */\n  dup3\n    /* \"#utility.yul\":2166:2169   */\n  dup6\n    /* \"#utility.yul\":2131:2183   */\n  tag_24\n  jump\t// in\ntag_74:\n    /* \"#utility.yul\":1850:2189   */\n  pop\n    /* \"#utility.yul\":1755:2189   */\n  swap4\n  swap3\n  pop\n  pop\n  pop\n  jump\t// out\n    /* \"#utility.yul\":2209:2564   */\ntag_26:\n    /* \"#utility.yul\":2276:2281   */\n  0x00\n    /* \"#utility.yul\":2325:2328   */\n  dup3\n    /* \"#utility.yul\":2318:2322   */\n  0x1f\n    /* \"#utility.yul\":2310:2316   */\n  dup4\n    /* \"#utility.yul\":2306:2323   */\n  add\n    /* \"#utility.yul\":2302:2329   */\n  slt\n    /* \"#utility.yul\":2292:2414   */\n  tag_76\n  jumpi\n    /* \"#utility.yul\":2333:2412   */\n  tag_77\n  tag_17\n  jump\t// in\ntag_77:\n    /* \"#utility.yul\":2292:2414   */\ntag_76:\n    /* \"#utility.yul\":2443:2449   */\n  dup2\n    /* \"#utility.yul\":2437:2450   */\n  mload\n    /* \"#utility.yul\":2468:2558   */\n  tag_78\n    /* \"#utility.yul\":2554:2557   */\n  dup5\n    /* \"#utility.yul\":2546:2552   */\n  dup3\n    /* \"#utility.yul\":2539:2543   */\n  0x20\n    /* \"#utility.yul\":2531:2537   */\n  dup7\n    /* \"#utility.yul\":2527:2544   */\n  add\n    /* \"#utility.yul\":2468:2558   */\n  tag_25\n  jump\t// in\ntag_78:\n    /* \"#utility.yul\":2459:2558   */\n  swap2\n  pop\n    /* \"#utility.yul\":2282:2564   */\n  pop\n    /* \"#utility.yul\":2209:2564   */\n  swap3\n  swap2\n  pop\n  pop\n  jump\t// out\n    /* \"#utility.yul\":2570:2647   */\ntag_27:\n    /* \"#utility.yul\":2607:2614   */\n  0x00\n    /* \"#utility.yul\":2636:2641   */\n  dup2\n    /* \"#utility.yul\":2625:2641   */\n  swap1\n  pop\n    /* \"#utility.yul\":2570:2647   */\n  swap2\n  swap1\n  pop\n  jump\t// out\n    /* \"#utility.yul\":2653:2775   */\ntag_28:\n    /* \"#utility.yul\":2726:2750   */\n  tag_81\n    /* \"#utility.yul\":2744:2749   */\n  dup2\n    /* \"#utility.yul\":2726:2750   */\n  tag_27\n  jump\t// in\ntag_81:\n    /* \"#utility.yul\":2719:2724   */\n  dup2\n    /* \"#utility.yul\":2716:2751   */\n  eq\n    /* \"#utility.yul\":2706:2769   */\n  tag_82\n  jumpi\n    /* \"#utility.yul\":2765:2766   */\n  0x00\n    /* \"#utility.yul\":2762:2763   */\n  dup1\n    /* \"#utility.yul\":2755:2767   */\n  revert\n    /* \"#utility.yul\":2706:2769   */\ntag_82:\n    /* \"#utility.yul\":2653:2775   */\n  pop\n  jump\t// out\n    /* \"#utility.yul\":2781:2924   */\ntag_29:\n    /* \"#utility.yul\":2838:2843   */\n  0x00\n    /* \"#utility.yul\":2869:2875   */\n  dup2\n    /* \"#utility.yul\":2863:2876   */\n  mload\n    /* \"#utility.yul\":2854:2876   */\n  swap1\n  pop\n    /* \"#utility.yul\":2885:2918   */\n  tag_84\n    /* \"#utility.yul\":2912:2917   */\n  dup2\n    /* \"#utility.yul\":2885:2918   */\n  tag_28\n  jump\t// in\ntag_84:\n    /* \"#utility.yul\":2781:2924   */\n  swap3\n  swap2\n  pop\n  pop\n  jump\t// out\n    /* \"#utility.yul\":2930:4096   */\ntag_3:\n    /* \"#utility.yul\":3047:3053   */\n  0x00\n    /* \"#utility.yul\":3055:3061   */\n  dup1\n    /* \"#utility.yul\":3063:3069   */\n  0x00\n    /* \"#utility.yul\":3071:3077   */\n  dup1\n    /* \"#utility.yul\":3120:3123   */\n  0x80\n    /* \"#utility.yul\":3108:3117   */\n  dup6\n    /* \"#utility.yul\":3099:3106   */\n  dup8\n    /* \"#utility.yul\":3095:3118   */\n  sub\n    /* \"#utility.yul\":3091:3124   */\n  slt\n    /* \"#utility.yul\":3088:3208   */\n  iszero\n  tag_86\n  jumpi\n    /* \"#utility.yul\":3127:3206   */\n  tag_87\n  tag_15\n  jump\t// in\ntag_87:\n    /* \"#utility.yul\":3088:3208   */\ntag_86:\n    /* \"#utility.yul\":3268:3269   */\n  0x00\n    /* \"#utility.yul\":3257:3266   */\n  dup6\n    /* \"#utility.yul\":3253:3270   */\n  add\n    /* \"#utility.yul\":3247:3271   */\n  mload\n    /* \"#utility.yul\":3298:3316   */\n  0xffffffffffffffff\n    /* \"#utility.yul\":3290:3296   */\n  dup2\n    /* \"#utility.yul\":3287:3317   */\n  gt\n    /* \"#utility.yul\":3284:3401   */\n  iszero\n  tag_88\n  jumpi\n    /* \"#utility.yul\":3320:3399   */\n  tag_89\n  tag_16\n  jump\t// in\ntag_89:\n    /* \"#utility.yul\":3284:3401   */\ntag_88:\n    /* \"#utility.yul\":3425:3499   */\n  tag_90\n    /* \"#utility.yul\":3491:3498   */\n  dup8\n    /* \"#utility.yul\":3482:3488   */\n  dup3\n    /* \"#utility.yul\":3471:3480   */\n  dup9\n    /* \"#utility.yul\":3467:3489   */\n  add\n    /* \"#utility.yul\":3425:3499   */\n  tag_26\n  jump\t// in\ntag_90:\n    /* \"#utility.yul\":3415:3499   */\n  swap5\n  pop\n    /* \"#utility.yul\":3218:3509   */\n  pop\n    /* \"#utility.yul\":3569:3571   */\n  0x20\n    /* \"#utility.yul\":3558:3567   */\n  dup6\n    /* \"#utility.yul\":3554:3572   */\n  add\n    /* \"#utility.yul\":3548:3573   */\n  mload\n    /* \"#utility.yul\":3600:3618   */\n  0xffffffffffffffff\n    /* \"#utility.yul\":3592:3598   */\n  dup2\n    /* \"#utility.yul\":3589:3619   */\n  gt\n    /* \"#utility.yul\":3586:3703   */\n  iszero\n  tag_91\n  jumpi\n    /* \"#utility.yul\":3622:3701   */\n  tag_92\n  tag_16\n  jump\t// in\ntag_92:\n    /* \"#utility.yul\":3586:3703   */\ntag_91:\n    /* \"#utility.yul\":3727:3801   */\n  tag_93\n    /* \"#utility.yul\":3793:3800   */\n  dup8\n    /* \"#utility.yul\":3784:3790   */\n  dup3\n    /* \"#utility.yul\":3773:3782   */\n  dup9\n    /* \"#utility.yul\":3769:3791   */\n  add\n    /* \"#utility.yul\":3727:3801   */\n  tag_26\n  jump\t// in\ntag_93:\n    /* \"#utility.yul\":3717:3801   */\n  swap4\n  pop\n    /* \"#utility.yul\":3519:3811   */\n  pop\n    /* \"#utility.yul\":3850:3852   */\n  0x40\n    /* \"#utility.yul\":3876:3940   */\n  tag_94\n    /* \"#utility.yul\":3932:3939   */\n  dup8\n    /* \"#utility.yul\":3923:3929   */\n  dup3\n    /* \"#utility.yul\":3912:3921   */\n  dup9\n    /* \"#utility.yul\":3908:3930   */\n  add\n    /* \"#utility.yul\":3876:3940   */\n  tag_29\n  jump\t// in\ntag_94:\n    /* \"#utility.yul\":3866:3940   */\n  swap3\n  pop\n    /* \"#utility.yul\":3821:3950   */\n  pop\n    /* \"#utility.yul\":3989:3991   */\n  0x60\n    /* \"#utility.yul\":4015:4079   */\n  tag_95\n    /* \"#utility.yul\":4071:4078   */\n  dup8\n    /* \"#utility.yul\":4062:4068   */\n  dup3\n    /* \"#utility.yul\":4051:4060   */\n  dup9\n    /* \"#utility.yul\":4047:4069   */\n  add\n    /* \"#utility.yul\":4015:4079   */\n  tag_29\n  jump\t// in\ntag_95:\n    /* \"#utility.yul\":4005:4079   */\n  swap2\n  pop\n    /* \"#utility.yul\":3960:4089   */\n  pop\n    /* \"#utility.yul\":2930:4096   */\n  swap3\n  swap6\n  swap2\n  swap5\n  pop\n  swap3\n  pop\n  jump\t// out\n    /* \"#utility.yul\":4102:4201   */\ntag_30:\n    /* \"#utility.yul\":4154:4160   */\n  0x00\n    /* \"#utility.yul\":4188:4193   */\n  dup2\n    /* \"#utility.yul\":4182:4194   */\n  mload\n    /* \"#utility.yul\":4172:4194   */\n  swap1\n  pop\n    /* \"#utility.yul\":4102:4201   */\n  swap2\n  swap1\n  pop\n  jump\t// out\n    /* \"#utility.yul\":4207:4387   */\ntag_31:\n    /* \"#utility.yul\":4255:4332   */\n  0x4e487b7100000000000000000000000000000000000000000000000000000000\n    /* \"#utility.yul\":4252:4253   */\n  0x00\n    /* \"#utility.yul\":4245:4333   */\n  mstore\n    /* \"#utility.yul\":4352:4356   */\n  0x22\n    /* \"#utility.yul\":4349:4350   */\n  0x04\n    /* \"#utility.yul\":4342:4357   */\n  mstore\n    /* \"#utility.yul\":4376:4380   */\n  0x24\n    /* \"#utility.yul\":4373:4374   */\n  0x00\n    /* \"#utility.yul\":4366:4381   */\n  revert\n    /* \"#utility.yul\":4393:4713   */\ntag_32:\n    /* \"#utility.yul\":4437:4443   */\n  0x00\n    /* \"#utility.yul\":4474:4475   */\n  0x02\n    /* \"#utility.yul\":4468:4472   */\n  dup3\n    /* \"#utility.yul\":4464:4476   */\n  div\n    /* \"#utility.yul\":4454:4476   */\n  swap1\n  pop\n    /* \"#utility.yul\":4521:4522   */\n  0x01\n    /* \"#utility.yul\":4515:4519   */\n  dup3\n    /* \"#utility.yul\":4511:4523   */\n  and\n    /* \"#utility.yul\":4542:4560   */\n  dup1\n    /* \"#utility.yul\":4532:4613   */\n  tag_99\n  jumpi\n    /* \"#utility.yul\":4598:4602   */\n  0x7f\n    /* \"#utility.yul\":4590:4596   */\n  dup3\n    /* \"#utility.yul\":4586:4603   */\n  and\n    /* \"#utility.yul\":4576:4603   */\n  swap2\n  pop\n    /* \"#utility.yul\":4532:4613   */\ntag_99:\n    /* \"#utility.yul\":4660:4662   */\n  0x20\n    /* \"#utility.yul\":4652:4658   */\n  dup3\n    /* \"#utility.yul\":4649:4663   */\n  lt\n    /* \"#utility.yul\":4629:4647   */\n  dup2\n    /* \"#utility.yul\":4626:4664   */\n  sub\n    /* \"#utility.yul\":4623:4707   */\n  tag_100\n  jumpi\n    /* \"#utility.yul\":4679:4697   */\n  tag_101\n  tag_31\n  jump\t// in\ntag_101:\n    /* \"#utility.yul\":4623:4707   */\ntag_100:\n    /* \"#utility.yul\":4444:4713   */\n  pop\n    /* \"#utility.yul\":4393:4713   */\n  swap2\n  swap1\n  pop\n  jump\t// out\n    /* \"#utility.yul\":4719:4860   */\ntag_33:\n    /* \"#utility.yul\":4768:4772   */\n  0x00\n    /* \"#utility.yul\":4791:4794   */\n  dup2\n    /* \"#utility.yul\":4783:4794   */\n  swap1\n  pop\n    /* \"#utility.yul\":4814:4817   */\n  dup2\n    /* \"#utility.yul\":4811:4812   */\n  0x00\n    /* \"#utility.yul\":4804:4818   */\n  mstore\n    /* \"#utility.yul\":4848:4852   */\n  0x20\n    /* \"#utility.yul\":4845:4846   */\n  0x00\n    /* \"#utility.yul\":4835:4853   */\n  keccak256\n    /* \"#utility.yul\":4827:4853   */\n  swap1\n  pop\n    /* \"#utility.yul\":4719:4860   */\n  swap2\n  swap1\n  pop\n  jump\t// out\n    /* \"#utility.yul\":4866:4959   */\ntag_34:\n    /* \"#utility.yul\":4903:4909   */\n  0x00\n    /* \"#utility.yul\":4950:4952   */\n  0x20\n    /* \"#utility.yul\":4945:4947   */\n  0x1f\n    /* \"#utility.yul\":4938:4943   */\n  dup4\n    /* \"#utility.yul\":4934:4948   */\n  add\n    /* \"#utility.yul\":4930:4953   */\n  div\n    /* \"#utility.yul\":4920:4953   */\n  swap1\n  pop\n    /* \"#utility.yul\":4866:4959   */\n  swap2\n  swap1\n  pop\n  jump\t// out\n    /* \"#utility.yul\":4965:5072   */\ntag_35:\n    /* \"#utility.yul\":5009:5017   */\n  0x00\n    /* \"#utility.yul\":5059:5064   */\n  dup3\n    /* \"#utility.yul\":5053:5057   */\n  dup3\n    /* \"#utility.yul\":5049:5065   */\n  shl\n    /* \"#utility.yul\":5028:5065   */\n  swap1\n  pop\n    /* \"#utility.yul\":4965:5072   */\n  swap3\n  swap2\n  pop\n  pop\n  jump\t// out\n    /* \"#utility.yul\":5078:5471   */\ntag_36:\n    /* \"#utility.yul\":5147:5153   */\n  0x00\n    /* \"#utility.yul\":5197:5198   */\n  0x08\n    /* \"#utility.yul\":5185:5195   */\n  dup4\n    /* \"#utility.yul\":5181:5199   */\n  mul\n    /* \"#utility.yul\":5220:5317   */\n  tag_106\n    /* \"#utility.yul\":5250:5316   */\n  0xffffffffffffffffffffffffffffffffffffffffffffffffffffffffffffffff\n    /* \"#utility.yul\":5239:5248   */\n  dup3\n    /* \"#utility.yul\":5220:5317   */\n  tag_35\n  jump\t// in\ntag_106:\n    /* \"#utility.yul\":5338:5377   */\n  tag_107\n    /* \"#utility.yul\":5368:5376   */\n  dup7\n    /* \"#utility.yul\":5357:5366   */\n  dup4\n    /* \"#utility.yul\":5338:5377   */\n  tag_35\n  jump\t// in\ntag_107:\n    /* \"#utility.yul\":5326:5377   */\n  swap6\n  pop\n    /* \"#utility.yul\":5410:5414   */\n  dup1\n    /* \"#utility.yul\":5406:5415   */\n  not\n    /* \"#utility.yul\":5399:5404   */\n  dup5\n    /* \"#utility.yul\":5395:5416   */\n  and\n    /* \"#utility.yul\":5386:5416   */\n  swap4\n  pop\n    /* \"#utility.yul\":5459:5463   */\n  dup1\n    /* \"#utility.yul\":5449:5457   */\n  dup7\n    /* \"#utility.yul\":5445:5464   */\n  and\n    /* \"#utility.yul\":5438:5443   */\n  dup5\n    /* \"#utility.yul\":5435:5465   */\n  or\n    /* \"#utility.yul\":5425:5465   */\n  swap3\n  pop\n    /* \"#utility.yul\":5154:5471   */\n  pop\n  pop\n    /* \"#utility.yul\":5078:5471   */\n  swap4\n  swap3\n  pop\n  pop\n  pop\n  jump\t// out\n    /* \"#utility.yul\":5477:5537   */\ntag_37:\n    /* \"#utility.yul\":5505:5508   */\n  0x00\n    /* \"#utility.yul\":5526:5531   */\n  dup2\n    /* \"#utility.yul\":5519:5531   */\n  swap1\n  pop\n    /* \"#utility.yul\":5477:5537   */\n  swap2\n  swap1\n  pop\n  jump\t// out\n    /* \"#utility.yul\":5543:5685   */\ntag_38:\n    /* \"#utility.yul\":5593:5602   */\n  0x00\n    /* \"#utility.yul\":5626:5679   */\n  tag_110\n    /* \"#utility.yul\":5644:5678   */\n  tag_111\n    /* \"#utility.yul\":5653:5677   */\n  tag_112\n    /* \"#utility.yul\":5671:5676   */\n  dup5\n    /* \"#utility.yul\":5653:5677   */\n  tag_27\n  jump\t// in\ntag_112:\n    /* \"#utility.yul\":5644:5678   */\n  tag_37\n  jump\t// in\ntag_111:\n    /* \"#utility.yul\":5626:5679   */\n  tag_27\n  jump\t// in\ntag_110:\n    /* \"#utility.yul\":5613:5679   */\n  swap1\n  pop\n    /* \"#utility.yul\":5543:5685   */\n  swap2\n  swap1\n  pop\n  jump\t// out\n    /* \"#utility.yul\":5691:5766   */\ntag_39:\n    /* \"#utility.yul\":5734:5737   */\n  0x00\n    /* \"#utility.yul\":5755:5760   */\n  dup2\n    /* \"#utility.yul\":5748:5760   */\n  swap1\n  pop\n    /* \"#utility.yul\":5691:5766   */\n  swap2\n  swap1\n  pop\n  jump\t// out\n    /* \"#utility.yul\":5772:6041   */\ntag_40:\n    /* \"#utility.yul\":5882:5921   */\n  tag_115\n    /* \"#utility.yul\":5913:5920   */\n  dup4\n    /* \"#utility.yul\":5882:5921   */\n  tag_38\n  jump\t// in\ntag_115:\n    /* \"#utility.yul\":5943:6034   */\n  tag_116\n    /* \"#utility.yul\":5992:6033   */\n  tag_117\n    /* \"#utility.yul\":6016:6032   */\n  dup3\n    /* \"#utility.yul\":5992:6033   */\n  tag_39\n  jump\t// in\ntag_117:\n    /* \"#utility.yul\":5984:5990   */\n  dup5\n    /* \"#utility.yul\":5977:5981   */\n  dup5\n    /* \"#utility.yul\":5971:5982   */\n  sload\n    /* \"#utility.yul\":5943:6034   */\n  tag_36\n  jump\t// in\ntag_116:\n    /* \"#utility.yul\":5937:5941   */\n  dup3\n    /* \"#utility.yul\":5930:6035   */\n  sstore\n    /* \"#utility.yul\":5848:6041   */\n  pop\n    /* \"#utility.yul\":5772:6041   */\n  pop\n  pop\n  pop\n  jump\t// out\n    /* \"#utility.yul\":6047:6120   */\ntag_41:\n    /* \"#utility.yul\":6092:6095   */\n  0x00\n    /* \"#utility.yul\":6047:6120   */\n  swap1\n  jump\t// out\n    /* \"#utility.yul\":6126:6315   */\ntag_42:\n    /* \"#utility.yul\":6203:6235   */\n  tag_120\n  tag_41\n  jump\t// in\ntag_120:\n    /* \"#utility.yul\":6244:6309   */\n  tag_121\n    /* \"#utility.yul\":6302:6308   */\n  dup2\n    /* \"#utility.yul\":6294:6300   */\n  dup5\n    /* \"#utility.yul\":6288:6292   */\n  dup5\n    /* \"#utility.yul\":6244:6309   */\n  tag_40\n  jump\t// in\ntag_121:\n    /* \"#utility.yul\":6179:6315   */\n  pop\n    /* \"#utility.yul\":6126:6315   */\n  pop\n  pop\n  jump\t// out\n    /* \"#utility.yul\":6321:6507   */\ntag_43:\n    /* \"#utility.yul\":6381:6501   */\ntag_123:\n    /* \"#utility.yul\":6398:6401   */\n  dup2\n    /* \"#utility.yul\":6391:6396   */\n  dup2\n    /* \"#utility.yul\":6388:6402   */\n  lt\n    /* \"#utility.yul\":6381:6501   */\n  iszero\n  tag_125\n  jumpi\n    /* \"#utility.yul\":6452:6491   */\n  tag_126\n    /* \"#utility.yul\":6489:6490   */\n  0x00\n    /* \"#utility.yul\":6482:6487   */\n  dup3\n    /* \"#utility.yul\":6452:6491   */\n  tag_42\n  jump\t// in\ntag_126:\n    /* \"#utility.yul\":6425:6426   */\n  0x01\n    /* \"#utility.yul\":6418:6423   */\n  dup2\n    /* \"#utility.yul\":6414:6427   */\n  add\n    /* \"#utility.yul\":6405:6427   */\n  swap1\n  pop\n    /* \"#utility.yul\":6381:6501   */\n  jump(tag_123)\ntag_125:\n    /* \"#utility.yul\":6321:6507   */\n  pop\n  pop\n  jump\t// out\n    /* \"#utility.yul\":6513:7056   */\ntag_44:\n    /* \"#utility.yul\":6614:6616   */\n  0x1f\n    /* \"#utility.yul\":6609:6612   */\n  dup3\n    /* \"#utility.yul\":6606:6617   */\n  gt\n    /* \"#utility.yul\":6603:7049   */\n  iszero\n  tag_128\n  jumpi\n    /* \"#utility.yul\":6648:6686   */\n  tag_129\n    /* \"#utility.yul\":6680:6685   */\n  dup2\n    /* \"#utility.yul\":6648:6686   */\n  tag_33\n  jump\t// in\ntag_129:\n    /* \"#utility.yul\":6732:6761   */\n  tag_130\n    /* \"#utility.yul\":6750:6760   */\n  dup5\n    /* \"#utility.yul\":6732:6761   */\n  tag_34\n  jump\t// in\ntag_130:\n    /* \"#utility.yul\":6722:6730   */\n  dup2\n    /* \"#utility.yul\":6718:6762   */\n  add\n    /* \"#utility.yul\":6915:6917   */\n  0x20\n    /* \"#utility.yul\":6903:6913   */\n  dup6\n    /* \"#utility.yul\":6900:6918   */\n  lt\n    /* \"#utility.yul\":6897:6946   */\n  iszero\n  tag_131\n  jumpi\n    /* \"#utility.yul\":6936:6944   */\n  dup2\n    /* \"#utility.yul\":6921:6944   */\n  swap1\n  pop\n    /* \"#utility.yul\":6897:6946   */\ntag_131:\n    /* \"#utility.yul\":6959:7039   */\n  tag_132\n    /* \"#utility.yul\":7015:7037   */\n  tag_133\n    /* \"#utility.yul\":7033:7036   */\n  dup6\n    /* \"#utility.yul\":7015:7037   */\n  tag_34\n  jump\t// in\ntag_133:\n    /* \"#utility.yul\":7005:7013   */\n  dup4\n    /* \"#utility.yul\":7001:7038   */\n  add\n    /* \"#utility.yul\":6988:6999   */\n  dup3\n    /* \"#utility.yul\":6959:7039   */\n  tag_43\n  jump\t// in\ntag_132:\n    /* \"#utility.yul\":6618:7049   */\n  pop\n  pop\n    /* \"#utility.yul\":6603:7049   */\ntag_128:\n    /* \"#utility.yul\":6513:7056   */\n  pop\n  pop\n  pop\n  jump\t// out\n    /* \"#utility.yul\":7062:7179   */\ntag_45:\n    /* \"#utility.yul\":7116:7124   */\n  0x00\n    /* \"#utility.yul\":7166:7171   */\n  dup3\n    /* \"#utility.yul\":7160:7164   */\n  dup3\n    /* \"#utility.yul\":7156:7172   */\n  shr\n    /* \"#utility.yul\":7135:7172   */\n  swap1\n  pop\n    /* \"#utility.yul\":7062:7179   */\n  swap3\n  swap2\n  pop\n  pop\n  jump\t// out\n    /* \"#utility.yul\":7185:7354   */\ntag_46:\n    /* \"#utility.yul\":7229:7235   */\n  0x00\n    /* \"#utility.yul\":7262:7313   */\n  tag_136\n    /* \"#utility.yul\":7310:7311   */\n  0x00\n    /* \"#utility.yul\":7306:7312   */\n  not\n    /* \"#utility.yul\":7298:7303   */\n  dup5\n    /* \"#utility.yul\":7295:7296   */\n  0x08\n    /* \"#utility.yul\":7291:7304   */\n  mul\n    /* \"#utility.yul\":7262:7313   */\n  tag_45\n  jump\t// in\ntag_136:\n    /* \"#utility.yul\":7258:7314   */\n  not\n    /* \"#utility.yul\":7343:7347   */\n  dup1\n    /* \"#utility.yul\":7337:7341   */\n  dup4\n    /* \"#utility.yul\":7333:7348   */\n  and\n    /* \"#utility.yul\":7323:7348   */\n  swap2\n  pop\n    /* \"#utility.yul\":7236:7354   */\n  pop\n    /* \"#utility.yul\":7185:7354   */\n  swap3\n  swap2\n  pop\n  pop\n  jump\t// out\n    /* \"#utility.yul\":7359:7654   */\ntag_47:\n    /* \"#utility.yul\":7435:7439   */\n  0x00\n    /* \"#utility.yul\":7581:7610   */\n  tag_138\n    /* \"#utility.yul\":7606:7609   */\n  dup4\n    /* \"#utility.yul\":7600:7604   */\n  dup4\n    /* \"#utility.yul\":7581:7610   */\n  tag_46\n  jump\t// in\ntag_138:\n    /* \"#utility.yul\":7573:7610   */\n  swap2\n  pop\n    /* \"#utility.yul\":7643:7646   */\n  dup3\n    /* \"#utility.yul\":7640:7641   */\n  0x02\n    /* \"#utility.yul\":7636:7647   */\n  mul\n    /* \"#utility.yul\":7630:7634   */\n  dup3\n    /* \"#utility.yul\":7627:7648   */\n  or\n    /* \"#utility.yul\":7619:7648   */\n  swap1\n  pop\n    /* \"#utility.yul\":7359:7654   */\n  swap3\n  swap2\n  pop\n  pop\n  jump\t// out\n    /* \"#utility.yul\":7659:9054   */\ntag_7:\n    /* \"#utility.yul\":7776:7813   */\n  tag_140\n    /* \"#utility.yul\":7809:7812   */\n  dup3\n    /* \"#utility.yul\":7776:7813   */\n  tag_30\n  jump\t// in\ntag_140:\n    /* \"#utility.yul\":7878:7896   */\n  0xffffffffffffffff\n    /* \"#utility.yul\":7870:7876   */\n  dup2\n    /* \"#utility.yul\":7867:7897   */\n  gt\n    /* \"#utility.yul\":7864:7920   */\n  iszero\n  tag_141\n  jumpi\n    /* \"#utility.yul\":7900:7918   */\n  tag_142\n  tag_20\n  jump\t// in\ntag_142:\n    /* \"#utility.yul\":7864:7920   */\ntag_141:\n    /* \"#utility.yul\":7944:7982   */\n  tag_143\n    /* \"#utility.yul\":7976:7980   */\n  dup3\n    /* \"#utility.yul\":7970:7981   */\n  sload\n    /* \"#utility.yul\":7944:7982   */\n  tag_32\n  jump\t// in\ntag_143:\n    /* \"#utility.yul\":8029:8096   */\n  tag_144\n    /* \"#utility.yul\":8089:8095   */\n  dup3\n    /* \"#utility.yul\":8081:8087   */\n  dup3\n    /* \"#utility.yul\":8075:8079   */\n  dup6\n    /* \"#utility.yul\":8029:8096   */\n  tag_44\n  jump\t// in\ntag_144:\n    /* \"#utility.yul\":8123:8124   */\n  0x00\n    /* \"#utility.yul\":8147:8151   */\n  0x20\n    /* \"#utility.yul\":8134:8151   */\n  swap1\n  pop\n    /* \"#utility.yul\":8179:8181   */\n  0x1f\n    /* \"#utility.yul\":8171:8177   */\n  dup4\n    /* \"#utility.yul\":8168:8182   */\n  gt\n    /* \"#utility.yul\":8196:8197   */\n  0x01\n    /* \"#utility.yul\":8191:8809   */\n  dup2\n  eq\n  tag_146\n  jumpi\n    /* \"#utility.yul\":8853:8854   */\n  0x00\n    /* \"#utility.yul\":8870:8876   */\n  dup5\n    /* \"#utility.yul\":8867:8944   */\n  iszero\n  tag_147\n  jumpi\n    /* \"#utility.yul\":8919:8928   */\n  dup3\n    /* \"#utility.yul\":8914:8917   */\n  dup8\n    /* \"#utility.yul\":8910:8929   */\n  add\n    /* \"#utility.yul\":8904:8930   */\n  mload\n    /* \"#utility.yul\":8895:8930   */\n  swap1\n  pop\n    /* \"#utility.yul\":8867:8944   */\ntag_147:\n    /* \"#utility.yul\":8970:9037   */\n  tag_148\n    /* \"#utility.yul\":9030:9036   */\n  dup6\n    /* \"#utility.yul\":9023:9028   */\n  dup3\n    /* \"#utility.yul\":8970:9037   */\n  tag_47\n  jump\t// in\ntag_148:\n    /* \"#utility.yul\":8964:8968   */\n  dup7\n    /* \"#utility.yul\":8957:9038   */\n  sstore\n    /* \"#utility.yul\":8826:9048   */\n  pop\n    /* \"#utility.yul\":8161:9048   */\n  jump(tag_145)\n    /* \"#utility.yul\":8191:8809   */\ntag_146:\n    /* \"#utility.yul\":8243:8247   */\n  0x1f\n    /* \"#utility.yul\":8239:8248   */\n  not\n    /* \"#utility.yul\":8231:8237   */\n  dup5\n    /* \"#utility.yul\":8227:8249   */\n  and\n    /* \"#utility.yul\":8277:8314   */\n  tag_149\n    /* \"#utility.yul\":8309:8313   */\n  dup7\n    /* \"#utility.yul\":8277:8314   */\n  tag_33\n  jump\t// in\ntag_149:\n    /* \"#utility.yul\":8336:8337   */\n  0x00\n    /* \"#utility.yul\":8350:8558   */\ntag_150:\n    /* \"#utility.yul\":8364:8371   */\n  dup3\n    /* \"#utility.yul\":8361:8362   */\n  dup2\n    /* \"#utility.yul\":8358:8372   */\n  lt\n    /* \"#utility.yul\":8350:8558   */\n  iszero\n  tag_152\n  jumpi\n    /* \"#utility.yul\":8443:8452   */\n  dup5\n    /* \"#utility.yul\":8438:8441   */\n  dup10\n    /* \"#utility.yul\":8434:8453   */\n  add\n    /* \"#utility.yul\":8428:8454   */\n  mload\n    /* \"#utility.yul\":8420:8426   */\n  dup3\n    /* \"#utility.yul\":8413:8455   */\n  sstore\n    /* \"#utility.yul\":8494:8495   */\n  0x01\n    /* \"#utility.yul\":8486:8492   */\n  dup3\n    /* \"#utility.yul\":8482:8496   */\n  add\n    /* \"#utility.yul\":8472:8496   */\n  swap2\n  pop\n    /* \"#utility.yul\":8541:8543   */\n  0x20\n    /* \"#utility.yul\":8530:8539   */\n  dup6\n    /* \"#utility.yul\":8526:8544   */\n  add\n    /* \"#utility.yul\":8513:8544   */\n  swap5\n  pop\n    /* \"#utility.yul\":8387:8391   */\n  0x20\n    /* \"#utility.yul\":8384:8385   */\n  dup2\n    /* \"#utility.yul\":8380:8392   */\n  add\n    /* \"#utility.yul\":8375:8392   */\n  swap1\n  pop\n    /* \"#utility.yul\":8350:8558   */\n  jump(tag_150)\ntag_152:\n    /* \"#utility.yul\":8586:8592   */\n  dup7\n    /* \"#utility.yul\":8577:8584   */\n  dup4\n    /* \"#utility.yul\":8574:8593   */\n  lt\n    /* \"#utility.yul\":8571:8750   */\n  iszero\n  tag_153\n  jumpi\n    /* \"#utility.yul\":8644:8653   */\n  dup5\n    /* \"#utility.yul\":8639:8642   */\n  dup10\n    /* \"#utility.yul\":8635:8654   */\n  add\n    /* \"#utility.yul\":8629:8655   */\n  mload\n    /* \"#utility.yul\":8687:8735   */\n  tag_154\n    /* \"#utility.yul\":8729:8733   */\n  0x1f\n    /* \"#utility.yul\":8721:8727   */\n  dup10\n    /* \"#utility.yul\":8717:8734   */\n  and\n    /* \"#utility.yul\":8706:8715   */\n  dup3\n    /* \"#utility.yul\":8687:8735   */\n  tag_46\n  jump\t// in\ntag_154:\n    /* \"#utility.yul\":8679:8685   */\n  dup4\n    /* \"#utility.yul\":8672:8736   */\n  sstore\n    /* \"#utility.yul\":8594:8750   */\n  pop\n    /* \"#utility.yul\":8571:8750   */\ntag_153:\n    /* \"#utility.yul\":8796:8797   */\n  0x01\n    /* \"#utility.yul\":8792:8793   */\n  0x02\n    /* \"#utility.yul\":8784:8790   */\n  dup9\n    /* \"#utility.yul\":8780:8794   */\n  mul\n    /* \"#utility.yul\":8776:8798   */\n  add\n    /* \"#utility.yul\":8770:8774   */\n  dup9\n    /* \"#utility.yul\":8763:8799   */\n  sstore\n    /* \"#utility.yul\":8198:8809   */\n  pop\n  pop\n  pop\n    /* \"#utility.yul\":8161:9048   */\ntag_145:\n  pop\n    /* \"#utility.yul\":7751:9054   */\n  pop\n  pop\n  pop\n    /* \"#utility.yul\":7659:9054   */\n  pop\n  pop\n  jump\t// out\n    /* \"#utility.yul\":9060:9240   */\ntag_48:\n    /* \"#utility.yul\":9108:9185   */\n  0x4e487b7100000000000000000000000000000000000000000000000000000000\n    /* \"#utility.yul\":9105:9106   */\n  0x00\n    /* \"#utility.yul\":9098:9186   */\n  mstore\n    /* \"#utility.yul\":9205:9209   */\n  0x11\n    /* \"#utility.yul\":9202:9203   */\n  0x04\n    /* \"#utility.yul\":9195:9210   */\n  mstore\n    /* \"#utility.yul\":9229:9233   */\n  0x24\n    /* \"#utility.yul\":9226:9227   */\n  0x00\n    /* \"#utility.yul\":9219:9234   */\n  revert\n    /* \"#utility.yul\":9246:9656   */\ntag_10:\n    /* \"#utility.yul\":9286:9293   */\n  0x00\n    /* \"#utility.yul\":9309:9329   */\n  tag_157\n    /* \"#utility.yul\":9327:9328   */\n  dup3\n    /* \"#utility.yul\":9309:9329   */\n  tag_27\n  jump\t// in\ntag_157:\n    /* \"#utility.yul\":9304:9329   */\n  swap2\n  pop\n    /* \"#utility.yul\":9343:9363   */\n  tag_158\n    /* \"#utility.yul\":9361:9362   */\n  dup4\n    /* \"#utility.yul\":9343:9363   */\n  tag_27\n  jump\t// in\ntag_158:\n    /* \"#utility.yul\":9338:9363   */\n  swap3\n  pop\n    /* \"#utility.yul\":9398:9399   */\n  dup3\n    /* \"#utility.yul\":9395:9396   */\n  dup3\n    /* \"#utility.yul\":9391:9400   */\n  mul\n    /* \"#utility.yul\":9420:9450   */\n  tag_159\n    /* \"#utility.yul\":9438:9449   */\n  dup2\n    /* \"#utility.yul\":9420:9450   */\n  tag_27\n  jump\t// in\ntag_159:\n    /* \"#utility.yul\":9409:9450   */\n  swap2\n  pop\n    /* \"#utility.yul\":9599:9600   */\n  dup3\n    /* \"#utility.yul\":9590:9597   */\n  dup3\n    /* \"#utility.yul\":9586:9601   */\n  div\n    /* \"#utility.yul\":9583:9584   */\n  dup5\n    /* \"#utility.yul\":9580:9602   */\n  eq\n    /* \"#utility.yul\":9560:9561   */\n  dup4\n    /* \"#utility.yul\":9553:9562   */\n  iszero\n    /* \"#utility.yul\":9533:9616   */\n  or\n    /* \"#utility.yul\":9510:9649   */\n  tag_160\n  jumpi\n    /* \"#utility.yul\":9629:9647   */\n  tag_161\n  tag_48\n  jump\t// in\ntag_161:\n    /* \"#utility.yul\":9510:9649   */\ntag_160:\n    /* \"#utility.yul\":9294:9656   */\n  pop\n    /* \"#utility.yul\":9246:9656   */\n  swap3\n  swap2\n  pop\n  pop\n  jump\t// out\n    /* \"#utility.yul\":9662:9853   */\ntag_12:\n    /* \"#utility.yul\":9702:9705   */\n  0x00\n    /* \"#utility.yul\":9721:9741   */\n  tag_163\n    /* \"#utility.yul\":9739:9740   */\n  dup3\n    /* \"#utility.yul\":9721:9741   */\n  tag_27\n  jump\t// in\ntag_163:\n    /* \"#utility.yul\":9716:9741   */\n  swap2\n  pop\n    /* \"#utility.yul\":9755:9775   */\n  tag_164\n    /* \"#utility.yul\":9773:9774   */\n  dup4\n    /* \"#utility.yul\":9755:9775   */\n  tag_27\n  jump\t// in\ntag_164:\n    /* \"#utility.yul\":9750:9775   */\n  swap3\n  pop\n    /* \"#utility.yul\":9798:9799   */\n  dup3\n    /* \"#utility.yul\":9795:9796   */\n  dup3\n    /* \"#utility.yul\":9791:9800   */\n  add\n    /* \"#utility.yul\":9784:9800   */\n  swap1\n  pop\n    /* \"#utility.yul\":9819:9822   */\n  dup1\n    /* \"#utility.yul\":9816:9817   */\n  dup3\n    /* \"#utility.yul\":9813:9823   */\n  gt\n    /* \"#utility.yul\":9810:9846   */\n  iszero\n  tag_165\n  jumpi\n    /* \"#utility.yul\":9826:9844   */\n  tag_166\n  tag_48\n  jump\t// in\ntag_166:\n    /* \"#utility.yul\":9810:9846   */\ntag_165:\n    /* \"#utility.yul\":9662:9853   */\n  swap3\n  swap2\n  pop\n  pop\n  jump\t// out\n    /* \"contracts/Crowdfunding.sol\":57:2201  contract Crowdfunding {... */\ntag_13:\n  dataSize(sub_0)\n  dup1\n  dataOffset(sub_0)\n  0x00\n  codecopy\n  0x00\n  return\nstop\n\nsub_0: assembly {\n        /* \"contracts/Crowdfunding.sol\":57:2201  contract Crowdfunding {... */\n      mstore(0x40, 0x80)\n      jumpi(tag_1, lt(calldatasize, 0x04))\n      shr(0xe0, calldataload(0x00))\n      dup1\n      0x6f9fb98a\n      gt\n      tag_14\n      jumpi\n      dup1\n      0x6f9fb98a\n      eq\n      tag_8\n      jumpi\n      dup1\n      0x7284e416\n      eq\n      tag_9\n      jumpi\n      dup1\n      0x7497211b\n      eq\n      tag_10\n      jumpi\n      dup1\n      0x8da5cb5b\n      eq\n      tag_11\n      jumpi\n      dup1\n      0x8ece7b91\n      eq\n      tag_12\n      jumpi\n      dup1\n      0xca1d209d\n      eq\n      tag_13\n      jumpi\n      jump(tag_1)\n    tag_14:\n      dup1\n      0x039af9eb\n      eq\n      tag_2\n      jumpi\n      dup1\n      0x06fdde03\n      eq\n      tag_3\n      jumpi\n      dup1\n      0x29dcb0cf\n      eq\n      tag_4\n      jumpi\n      dup1\n      0x3ccfd60b\n      eq\n      tag_5\n      jumpi\n      dup1\n      0x40193883\n      eq\n      tag_6\n      jumpi\n      dup1\n      0x5a9b0b89\n      eq\n      tag_7\n      jumpi\n    tag_1:\n      0x00\n      dup1\n      revert\n        /* \"contracts/Crowdfunding.sol\":317:336  Tier[] public tiers */\n    tag_2:\n      callvalue\n      dup1\n      iszero\n      tag_15\n      jumpi\n      0x00\n      dup1\n      revert\n    tag_15:\n      pop\n      tag_16\n      0x04\n      dup1\n      calldatasize\n      sub\n      dup2\n      add\n      swap1\n      tag_17\n      swap2\n      swap1\n      tag_18\n      jump\t// in\n    tag_17:\n      tag_19\n      jump\t// in\n    tag_16:\n      mload(0x40)\n      tag_20\n      swap4\n      swap3\n      swap2\n      swap1\n      tag_21\n      jump\t// in\n    tag_20:\n      mload(0x40)\n      dup1\n      swap2\n      sub\n      swap1\n      return\n        /* \"contracts/Crowdfunding.sol\":85:103  string public name */\n    tag_3:\n      callvalue\n      dup1\n      iszero\n      tag_22\n      jumpi\n      0x00\n      dup1\n      revert\n    tag_22:\n      pop\n      tag_23\n      tag_24\n      jump\t// in\n    tag_23:\n      mload(0x40)\n      tag_25\n      swap2\n      swap1\n      tag_26\n      jump\t// in\n    tag_25:\n      mload(0x40)\n      dup1\n      swap2\n      sub\n      swap1\n      return\n        /* \"contracts/Crowdfunding.sol\":166:189  uint256 public deadline */\n    tag_4:\n      callvalue\n      dup1\n      iszero\n      tag_27\n      jumpi\n      0x00\n      dup1\n      revert\n    tag_27:\n      pop\n      tag_28\n      tag_29\n      jump\t// in\n    tag_28:\n      mload(0x40)\n      tag_30\n      swap2\n      swap1\n      tag_31\n      jump\t// in\n    tag_30:\n      mload(0x40)\n      dup1\n      swap2\n      sub\n      swap1\n      return\n        /* \"contracts/Crowdfunding.sol\":1661:1930  function withdraw() public onlyOwner {... */\n    tag_5:\n      callvalue\n      dup1\n      iszero\n      tag_32\n      jumpi\n      0x00\n      dup1\n      revert\n    tag_32:\n      pop\n      tag_33\n      tag_34\n      jump\t// in\n    tag_33:\n      stop\n        /* \"contracts/Crowdfunding.sol\":141:160  uint256 public goal */\n    tag_6:\n      callvalue\n      dup1\n      iszero\n      tag_35\n      jumpi\n      0x00\n      dup1\n      revert\n    tag_35:\n      pop\n      tag_36\n      tag_37\n      jump\t// in\n    tag_36:\n      mload(0x40)\n      tag_38\n      swap2\n      swap1\n      tag_31\n      jump\t// in\n    tag_38:\n      mload(0x40)\n      dup1\n      swap2\n      sub\n      swap1\n      return\n        /* \"contracts/Crowdfunding.sol\":2046:2196  function getInfo() public view returns (string memory) {... */\n    tag_7:\n      callvalue\n      dup1\n      iszero\n      tag_39\n      jumpi\n      0x00\n      dup1\n      revert\n    tag_39:\n      pop\n      tag_40\n      tag_41\n      jump\t// in\n    tag_40:\n      mload(0x40)\n      tag_42\n      swap2\n      swap1\n      tag_26\n      jump\t// in\n    tag_42:\n      mload(0x40)\n      dup1\n      swap2\n      sub\n      swap1\n      return\n        /* \"contracts/Crowdfunding.sol\":1936:2040  function getContractBalance() public view returns(uint256) {... */\n    tag_8:\n      callvalue\n      dup1\n      iszero\n      tag_43\n      jumpi\n      0x00\n      dup1\n      revert\n    tag_43:\n      pop\n      tag_44\n      tag_45\n      jump\t// in\n    tag_44:\n      mload(0x40)\n      tag_46\n      swap2\n      swap1\n      tag_31\n      jump\t// in\n    tag_46:\n      mload(0x40)\n      dup1\n      swap2\n      sub\n      swap1\n      return\n        /* \"contracts/Crowdfunding.sol\":110:135  string public description */\n    tag_9:\n      callvalue\n      dup1\n      iszero\n      tag_47\n      jumpi\n      0x00\n      dup1\n      revert\n    tag_47:\n      pop\n      tag_48\n      tag_49\n      jump\t// in\n    tag_48:\n      mload(0x40)\n      tag_50\n      swap2\n      swap1\n      tag_26\n      jump\t// in\n    tag_50:\n      mload(0x40)\n      dup1\n      swap2\n      sub\n      swap1\n      return\n        /* \"contracts/Crowdfunding.sol\":1464:1655  function removeTier(uint256 _index) public onlyOwner{... */\n    tag_10:\n      callvalue\n      dup1\n      iszero\n      tag_51\n      jumpi\n      0x00\n      dup1\n      revert\n    tag_51:\n      pop\n      tag_52\n      0x04\n      dup1\n      calldatasize\n      sub\n      dup2\n      add\n      swap1\n      tag_53\n      swap2\n      swap1\n      tag_18\n      jump\t// in\n    tag_53:\n      tag_54\n      jump\t// in\n    tag_52:\n      stop\n        /* \"contracts/Crowdfunding.sol\":195:215  address public owner */\n    tag_11:\n      callvalue\n      dup1\n      iszero\n      tag_55\n      jumpi\n      0x00\n      dup1\n      revert\n    tag_55:\n      pop\n      tag_56\n      tag_57\n      jump\t// in\n    tag_56:\n      mload(0x40)\n      tag_58\n      swap2\n      swap1\n      tag_59\n      jump\t// in\n    tag_58:\n      mload(0x40)\n      dup1\n      swap2\n      sub\n      swap1\n      return\n        /* \"contracts/Crowdfunding.sol\":1249:1458  function addTier(... */\n    tag_12:\n      callvalue\n      dup1\n      iszero\n      tag_60\n      jumpi\n      0x00\n      dup1\n      revert\n    tag_60:\n      pop\n      tag_61\n      0x04\n      dup1\n      calldatasize\n      sub\n      dup2\n      add\n      swap1\n      tag_62\n      swap2\n      swap1\n      tag_63\n      jump\t// in\n    tag_62:\n      tag_64\n      jump\t// in\n    tag_61:\n      stop\n        /* \"contracts/Crowdfunding.sol\":947:1243  function fund(uint256 _tierIndex) public payable{... */\n    tag_13:\n      tag_65\n      0x04\n      dup1\n      calldatasize\n      sub\n      dup2\n      add\n      swap1\n      tag_66\n      swap2\n      swap1\n      tag_18\n      jump\t// in\n    tag_66:\n      tag_67\n      jump\t// in\n    tag_65:\n      stop\n        /* \"contracts/Crowdfunding.sol\":317:336  Tier[] public tiers */\n    tag_19:\n      0x05\n      dup2\n      dup2\n      sload\n      dup2\n      lt\n      tag_68\n      jumpi\n      0x00\n      dup1\n      revert\n    tag_68:\n      swap1\n      0x00\n      mstore\n      keccak256(0x00, 0x20)\n      swap1\n      0x03\n      mul\n      add\n      0x00\n      swap2\n      pop\n      swap1\n      pop\n      dup1\n      0x00\n      add\n      dup1\n      sload\n      tag_70\n      swap1\n      tag_71\n      jump\t// in\n    tag_70:\n      dup1\n      0x1f\n      add\n      0x20\n      dup1\n      swap2\n      div\n      mul\n      0x20\n      add\n      mload(0x40)\n      swap1\n      dup2\n      add\n      0x40\n      mstore\n      dup1\n      swap3\n      swap2\n      swap1\n      dup2\n      dup2\n      mstore\n      0x20\n      add\n      dup3\n      dup1\n      sload\n      tag_72\n      swap1\n      tag_71\n      jump\t// in\n    tag_72:\n      dup1\n      iszero\n      tag_73\n      jumpi\n      dup1\n      0x1f\n      lt\n      tag_74\n      jumpi\n      0x0100\n      dup1\n      dup4\n      sload\n      div\n      mul\n      dup4\n      mstore\n      swap2\n      0x20\n      add\n      swap2\n      jump(tag_73)\n    tag_74:\n      dup3\n      add\n      swap2\n      swap1\n      0x00\n      mstore\n      keccak256(0x00, 0x20)\n      swap1\n    tag_75:\n      dup2\n      sload\n      dup2\n      mstore\n      swap1\n      0x01\n      add\n      swap1\n      0x20\n      add\n      dup1\n      dup4\n      gt\n      tag_75\n      jumpi\n      dup3\n      swap1\n      sub\n      0x1f\n      and\n      dup3\n      add\n      swap2\n    tag_73:\n      pop\n      pop\n      pop\n      pop\n      pop\n      swap1\n      dup1\n      0x01\n      add\n      sload\n      swap1\n      dup1\n      0x02\n      add\n      sload\n      swap1\n      pop\n      dup4\n      jump\t// out\n        /* \"contracts/Crowdfunding.sol\":85:103  string public name */\n    tag_24:\n      0x00\n      dup1\n      sload\n      tag_76\n      swap1\n      tag_71\n      jump\t// in\n    tag_76:\n      dup1\n      0x1f\n      add\n      0x20\n      dup1\n      swap2\n      div\n      mul\n      0x20\n      add\n      mload(0x40)\n      swap1\n      dup2\n      add\n      0x40\n      mstore\n      dup1\n      swap3\n      swap2\n      swap1\n      dup2\n      dup2\n      mstore\n      0x20\n      add\n      dup3\n      dup1\n      sload\n      tag_77\n      swap1\n      tag_71\n      jump\t// in\n    tag_77:\n      dup1\n      iszero\n      tag_78\n      jumpi\n      dup1\n      0x1f\n      lt\n      tag_79\n      jumpi\n      0x0100\n      dup1\n      dup4\n      sload\n      div\n      mul\n      dup4\n      mstore\n      swap2\n      0x20\n      add\n      swap2\n      jump(tag_78)\n    tag_79:\n      dup3\n      add\n      swap2\n      swap1\n      0x00\n      mstore\n      keccak256(0x00, 0x20)\n      swap1\n    tag_80:\n      dup2\n      sload\n      dup2\n      mstore\n      swap1\n      0x01\n      add\n      swap1\n      0x20\n      add\n      dup1\n      dup4\n      gt\n      tag_80\n      jumpi\n      dup3\n      swap1\n      sub\n      0x1f\n      and\n      dup3\n      add\n      swap2\n    tag_78:\n      pop\n      pop\n      pop\n      pop\n      pop\n      dup2\n      jump\t// out\n        /* \"contracts/Crowdfunding.sol\":166:189  uint256 public deadline */\n    tag_29:\n      sload(0x03)\n      dup2\n      jump\t// out\n        /* \"contracts/Crowdfunding.sol\":1661:1930  function withdraw() public onlyOwner {... */\n    tag_34:\n        /* \"contracts/Crowdfunding.sol\":422:427  owner */\n      0x04\n      0x00\n      swap1\n      sload\n      swap1\n      0x0100\n      exp\n      swap1\n      div\n      0xffffffffffffffffffffffffffffffffffffffff\n      and\n        /* \"contracts/Crowdfunding.sol\":408:427  msg.sender == owner */\n      0xffffffffffffffffffffffffffffffffffffffff\n      and\n        /* \"contracts/Crowdfunding.sol\":408:418  msg.sender */\n      caller\n        /* \"contracts/Crowdfunding.sol\":408:427  msg.sender == owner */\n      0xffffffffffffffffffffffffffffffffffffffff\n      and\n      eq\n        /* \"contracts/Crowdfunding.sol\":400:470  require(msg.sender == owner, \"You are not the owner of this contract\") */\n      tag_82\n      jumpi\n      mload(0x40)\n      0x08c379a000000000000000000000000000000000000000000000000000000000\n      dup2\n      mstore\n      0x04\n      add\n      tag_83\n      swap1\n      tag_84\n      jump\t// in\n    tag_83:\n      mload(0x40)\n      dup1\n      swap2\n      sub\n      swap1\n      revert\n    tag_82:\n        /* \"contracts/Crowdfunding.sol\":1741:1745  goal */\n      sload(0x02)\n        /* \"contracts/Crowdfunding.sol\":1716:1737  address(this).balance */\n      selfbalance\n        /* \"contracts/Crowdfunding.sol\":1716:1745  address(this).balance >= goal */\n      lt\n      iszero\n        /* \"contracts/Crowdfunding.sol\":1708:1775  require(address(this).balance >= goal, \"goal has not been reached\") */\n      tag_86\n      jumpi\n      mload(0x40)\n      0x08c379a000000000000000000000000000000000000000000000000000000000\n      dup2\n      mstore\n      0x04\n      add\n      tag_87\n      swap1\n      tag_88\n      jump\t// in\n    tag_87:\n      mload(0x40)\n      dup1\n      swap2\n      sub\n      swap1\n      revert\n    tag_86:\n        /* \"contracts/Crowdfunding.sol\":1786:1801  uint256 balance */\n      0x00\n        /* \"contracts/Crowdfunding.sol\":1804:1825  address(this).balance */\n      selfbalance\n        /* \"contracts/Crowdfunding.sol\":1786:1825  uint256 balance = address(this).balance */\n      swap1\n      pop\n        /* \"contracts/Crowdfunding.sol\":1853:1854  0 */\n      0x00\n        /* \"contracts/Crowdfunding.sol\":1843:1850  balance */\n      dup2\n        /* \"contracts/Crowdfunding.sol\":1843:1854  balance > 0 */\n      gt\n        /* \"contracts/Crowdfunding.sol\":1835:1881  require(balance > 0, \"No balance to withdraw\") */\n      tag_89\n      jumpi\n      mload(0x40)\n      0x08c379a000000000000000000000000000000000000000000000000000000000\n      dup2\n      mstore\n      0x04\n      add\n      tag_90\n      swap1\n      tag_91\n      jump\t// in\n    tag_90:\n      mload(0x40)\n      dup1\n      swap2\n      sub\n      swap1\n      revert\n    tag_89:\n        /* \"contracts/Crowdfunding.sol\":1899:1904  owner */\n      0x04\n      0x00\n      swap1\n      sload\n      swap1\n      0x0100\n      exp\n      swap1\n      div\n      0xffffffffffffffffffffffffffffffffffffffff\n      and\n        /* \"contracts/Crowdfunding.sol\":1891:1914  payable(owner).transfer */\n      0xffffffffffffffffffffffffffffffffffffffff\n      and\n        /* \"contracts/Crowdfunding.sol\":1891:1923  payable(owner).transfer(balance) */\n      0x08fc\n        /* \"contracts/Crowdfunding.sol\":1915:1922  balance */\n      dup3\n        /* \"contracts/Crowdfunding.sol\":1891:1923  payable(owner).transfer(balance) */\n      swap1\n      dup2\n      iszero\n      mul\n      swap1\n      mload(0x40)\n      0x00\n      mload(0x40)\n      dup1\n      dup4\n      sub\n      dup2\n      dup6\n      dup9\n      dup9\n      call\n      swap4\n      pop\n      pop\n      pop\n      pop\n      iszero\n      dup1\n      iszero\n      tag_93\n      jumpi\n      returndatasize\n      0x00\n      dup1\n      returndatacopy\n      revert(0x00, returndatasize)\n    tag_93:\n      pop\n        /* \"contracts/Crowdfunding.sol\":1698:1930  {... */\n      pop\n        /* \"contracts/Crowdfunding.sol\":1661:1930  function withdraw() public onlyOwner {... */\n      jump\t// out\n        /* \"contracts/Crowdfunding.sol\":141:160  uint256 public goal */\n    tag_37:\n      sload(0x02)\n      dup2\n      jump\t// out\n        /* \"contracts/Crowdfunding.sol\":2046:2196  function getInfo() public view returns (string memory) {... */\n    tag_41:\n        /* \"contracts/Crowdfunding.sol\":2086:2099  string memory */\n      0x60\n        /* \"contracts/Crowdfunding.sol\":2152:2156  name */\n      0x00\n        /* \"contracts/Crowdfunding.sol\":2176:2187  description */\n      0x01\n        /* \"contracts/Crowdfunding.sol\":2125:2188  abi.encodePacked('Name: ', name, ' Description: ', description) */\n      add(0x20, mload(0x40))\n      tag_95\n      swap3\n      swap2\n      swap1\n      tag_96\n      jump\t// in\n    tag_95:\n      mload(0x40)\n      0x20\n      dup2\n      dup4\n      sub\n      sub\n      dup2\n      mstore\n      swap1\n      0x40\n      mstore\n        /* \"contracts/Crowdfunding.sol\":2111:2189  return string(abi.encodePacked('Name: ', name, ' Description: ', description)) */\n      swap1\n      pop\n        /* \"contracts/Crowdfunding.sol\":2046:2196  function getInfo() public view returns (string memory) {... */\n      swap1\n      jump\t// out\n        /* \"contracts/Crowdfunding.sol\":1936:2040  function getContractBalance() public view returns(uint256) {... */\n    tag_45:\n        /* \"contracts/Crowdfunding.sol\":1986:1993  uint256 */\n      0x00\n        /* \"contracts/Crowdfunding.sol\":2012:2033  address(this).balance */\n      selfbalance\n        /* \"contracts/Crowdfunding.sol\":2005:2033  return address(this).balance */\n      swap1\n      pop\n        /* \"contracts/Crowdfunding.sol\":1936:2040  function getContractBalance() public view returns(uint256) {... */\n      swap1\n      jump\t// out\n        /* \"contracts/Crowdfunding.sol\":110:135  string public description */\n    tag_49:\n      0x01\n      dup1\n      sload\n      tag_98\n      swap1\n      tag_71\n      jump\t// in\n    tag_98:\n      dup1\n      0x1f\n      add\n      0x20\n      dup1\n      swap2\n      div\n      mul\n      0x20\n      add\n      mload(0x40)\n      swap1\n      dup2\n      add\n      0x40\n      mstore\n      dup1\n      swap3\n      swap2\n      swap1\n      dup2\n      dup2\n      mstore\n      0x20\n      add\n      dup3\n      dup1\n      sload\n      tag_99\n      swap1\n      tag_71\n      jump\t// in\n    tag_99:\n      dup1\n      iszero\n      tag_100\n      jumpi\n      dup1\n      0x1f\n      lt\n      tag_101\n      jumpi\n      0x0100\n      dup1\n      dup4\n      sload\n      div\n      mul\n      dup4\n      mstore\n      swap2\n      0x20\n      add\n      swap2\n      jump(tag_100)\n    tag_101:\n      dup3\n      add\n      swap2\n      swap1\n      0x00\n      mstore\n      keccak256(0x00, 0x20)\n      swap1\n    tag_102:\n      dup2\n      sload\n      dup2\n      mstore\n      swap1\n      0x01\n      add\n      swap1\n      0x20\n      add\n      dup1\n      dup4\n      gt\n      tag_102\n      jumpi\n      dup3\n      swap1\n      sub\n      0x1f\n      and\n      dup3\n      add\n      swap2\n    tag_100:\n      pop\n      pop\n      pop\n      pop\n      pop\n      dup2\n      jump\t// out\n        /* \"contracts/Crowdfunding.sol\":1464:1655  function removeTier(uint256 _index) public onlyOwner{... */\n    tag_54:\n        /* \"contracts/Crowdfunding.sol\":422:427  owner */\n      0x04\n      0x00\n      swap1\n      sload\n      swap1\n      0x0100\n      exp\n      swap1\n      div\n      0xffffffffffffffffffffffffffffffffffffffff\n      and\n        /* \"contracts/Crowdfunding.sol\":408:427  msg.sender == owner */\n      0xffffffffffffffffffffffffffffffffffffffff\n      and\n        /* \"contracts/Crowdfunding.sol\":408:418  msg.sender */\n      caller\n        /* \"contracts/Crowdfunding.sol\":408:427  msg.sender == owner */\n      0xffffffffffffffffffffffffffffffffffffffff\n      and\n      eq\n        /* \"contracts/Crowdfunding.sol\":400:470  require(msg.sender == owner, \"You are not the owner of this contract\") */\n      tag_104\n      jumpi\n      mload(0x40)\n      0x08c379a000000000000000000000000000000000000000000000000000000000\n      dup2\n      mstore\n      0x04\n      add\n      tag_105\n      swap1\n      tag_84\n      jump\t// in\n    tag_105:\n      mload(0x40)\n      dup1\n      swap2\n      sub\n      swap1\n      revert\n    tag_104:\n        /* \"contracts/Crowdfunding.sol\":1543:1548  tiers */\n      0x05\n        /* \"contracts/Crowdfunding.sol\":1543:1555  tiers.length */\n      dup1\n      sload\n      swap1\n      pop\n        /* \"contracts/Crowdfunding.sol\":1534:1540  _index */\n      dup2\n        /* \"contracts/Crowdfunding.sol\":1534:1555  _index < tiers.length */\n      lt\n        /* \"contracts/Crowdfunding.sol\":1526:1579  require(_index < tiers.length, \"Tier doesn't exists\") */\n      tag_107\n      jumpi\n      mload(0x40)\n      0x08c379a000000000000000000000000000000000000000000000000000000000\n      dup2\n      mstore\n      0x04\n      add\n      tag_108\n      swap1\n      tag_109\n      jump\t// in\n    tag_108:\n      mload(0x40)\n      dup1\n      swap2\n      sub\n      swap1\n      revert\n    tag_107:\n        /* \"contracts/Crowdfunding.sol\":1605:1610  tiers */\n      0x05\n        /* \"contracts/Crowdfunding.sol\":1625:1626  1 */\n      0x01\n        /* \"contracts/Crowdfunding.sol\":1611:1616  tiers */\n      0x05\n        /* \"contracts/Crowdfunding.sol\":1611:1623  tiers.length */\n      dup1\n      sload\n      swap1\n      pop\n        /* \"contracts/Crowdfunding.sol\":1611:1626  tiers.length -1 */\n      tag_110\n      swap2\n      swap1\n      tag_111\n      jump\t// in\n    tag_110:\n        /* \"contracts/Crowdfunding.sol\":1605:1627  tiers[tiers.length -1] */\n      dup2\n      sload\n      dup2\n      lt\n      tag_112\n      jumpi\n      tag_113\n      tag_114\n      jump\t// in\n    tag_113:\n    tag_112:\n      swap1\n      0x00\n      mstore\n      keccak256(0x00, 0x20)\n      swap1\n      0x03\n      mul\n      add\n        /* \"contracts/Crowdfunding.sol\":1589:1594  tiers */\n      0x05\n        /* \"contracts/Crowdfunding.sol\":1595:1601  _index */\n      dup3\n        /* \"contracts/Crowdfunding.sol\":1589:1602  tiers[_index] */\n      dup2\n      sload\n      dup2\n      lt\n      tag_116\n      jumpi\n      tag_117\n      tag_114\n      jump\t// in\n    tag_117:\n    tag_116:\n      swap1\n      0x00\n      mstore\n      keccak256(0x00, 0x20)\n      swap1\n      0x03\n      mul\n      add\n        /* \"contracts/Crowdfunding.sol\":1589:1627  tiers[_index] = tiers[tiers.length -1] */\n      0x00\n      dup3\n      add\n      dup2\n      0x00\n      add\n      swap1\n      dup2\n      tag_119\n      swap2\n      swap1\n      tag_120\n      jump\t// in\n    tag_119:\n      pop\n      0x01\n      dup3\n      add\n      sload\n      dup2\n      0x01\n      add\n      sstore\n      0x02\n      dup3\n      add\n      sload\n      dup2\n      0x02\n      add\n      sstore\n      swap1\n      pop\n      pop\n        /* \"contracts/Crowdfunding.sol\":1637:1642  tiers */\n      0x05\n        /* \"contracts/Crowdfunding.sol\":1637:1648  tiers.pop() */\n      dup1\n      sload\n      dup1\n      tag_121\n      jumpi\n      tag_122\n      tag_123\n      jump\t// in\n    tag_122:\n    tag_121:\n      0x01\n      swap1\n      sub\n      dup2\n      dup2\n      swap1\n      0x00\n      mstore\n      keccak256(0x00, 0x20)\n      swap1\n      0x03\n      mul\n      add\n      0x00\n      dup1\n      dup3\n      add\n      0x00\n      tag_125\n      swap2\n      swap1\n      tag_126\n      jump\t// in\n    tag_125:\n      0x01\n      dup3\n      add\n      0x00\n      swap1\n      sstore\n      0x02\n      dup3\n      add\n      0x00\n      swap1\n      sstore\n      pop\n      pop\n      swap1\n      sstore\n        /* \"contracts/Crowdfunding.sol\":1464:1655  function removeTier(uint256 _index) public onlyOwner{... */\n      pop\n      jump\t// out\n        /* \"contracts/Crowdfunding.sol\":195:215  address public owner */\n    tag_57:\n      0x04\n      0x00\n      swap1\n      sload\n      swap1\n      0x0100\n      exp\n      swap1\n      div\n      0xffffffffffffffffffffffffffffffffffffffff\n      and\n      dup2\n      jump\t// out\n        /* \"contracts/Crowdfunding.sol\":1249:1458  function addTier(... */\n    tag_64:\n        /* \"contracts/Crowdfunding.sol\":422:427  owner */\n      0x04\n      0x00\n      swap1\n      sload\n      swap1\n      0x0100\n      exp\n      swap1\n      div\n      0xffffffffffffffffffffffffffffffffffffffff\n      and\n        /* \"contracts/Crowdfunding.sol\":408:427  msg.sender == owner */\n      0xffffffffffffffffffffffffffffffffffffffff\n      and\n        /* \"contracts/Crowdfunding.sol\":408:418  msg.sender */\n      caller\n        /* \"contracts/Crowdfunding.sol\":408:427  msg.sender == owner */\n      0xffffffffffffffffffffffffffffffffffffffff\n      and\n      eq\n        /* \"contracts/Crowdfunding.sol\":400:470  require(msg.sender == owner, \"You are not the owner of this contract\") */\n      tag_128\n      jumpi\n      mload(0x40)\n      0x08c379a000000000000000000000000000000000000000000000000000000000\n      dup2\n      mstore\n      0x04\n      add\n      tag_129\n      swap1\n      tag_84\n      jump\t// in\n    tag_129:\n      mload(0x40)\n      dup1\n      swap2\n      sub\n      swap1\n      revert\n    tag_128:\n        /* \"contracts/Crowdfunding.sol\":1370:1371  0 */\n      0x00\n        /* \"contracts/Crowdfunding.sol\":1360:1367  _amount */\n      dup2\n        /* \"contracts/Crowdfunding.sol\":1360:1371  _amount > 0 */\n      gt\n        /* \"contracts/Crowdfunding.sol\":1352:1406  require(_amount > 0, \"Amount must be greater thatn 0\") */\n      tag_131\n      jumpi\n      mload(0x40)\n      0x08c379a000000000000000000000000000000000000000000000000000000000\n      dup2\n      mstore\n      0x04\n      add\n      tag_132\n      swap1\n      tag_133\n      jump\t// in\n    tag_132:\n      mload(0x40)\n      dup1\n      swap2\n      sub\n      swap1\n      revert\n    tag_131:\n        /* \"contracts/Crowdfunding.sol\":1416:1421  tiers */\n      0x05\n        /* \"contracts/Crowdfunding.sol\":1427:1450  Tier(_name, _amount, 0) */\n      mload(0x40)\n      dup1\n      0x60\n      add\n      0x40\n      mstore\n      dup1\n        /* \"contracts/Crowdfunding.sol\":1432:1437  _name */\n      dup5\n        /* \"contracts/Crowdfunding.sol\":1427:1450  Tier(_name, _amount, 0) */\n      dup2\n      mstore\n      0x20\n      add\n        /* \"contracts/Crowdfunding.sol\":1439:1446  _amount */\n      dup4\n        /* \"contracts/Crowdfunding.sol\":1427:1450  Tier(_name, _amount, 0) */\n      dup2\n      mstore\n      0x20\n      add\n        /* \"contracts/Crowdfunding.sol\":1448:1449  0 */\n      0x00\n        /* \"contracts/Crowdfunding.sol\":1427:1450  Tier(_name, _amount, 0) */\n      dup2\n      mstore\n      pop\n        /* \"contracts/Crowdfunding.sol\":1416:1451  tiers.push(Tier(_name, _amount, 0)) */\n      swap1\n      dup1\n      0x01\n      dup2\n      sload\n      add\n      dup1\n      dup3\n      sstore\n      dup1\n      swap2\n      pop\n      pop\n      0x01\n      swap1\n      sub\n      swap1\n      0x00\n      mstore\n      keccak256(0x00, 0x20)\n      swap1\n      0x03\n      mul\n      add\n      0x00\n      swap1\n      swap2\n      swap1\n      swap2\n      swap1\n      swap2\n      pop\n      0x00\n      dup3\n      add\n      mload\n      dup2\n      0x00\n      add\n      swap1\n      dup2\n      tag_135\n      swap2\n      swap1\n      tag_136\n      jump\t// in\n    tag_135:\n      pop\n      0x20\n      dup3\n      add\n      mload\n      dup2\n      0x01\n      add\n      sstore\n      0x40\n      dup3\n      add\n      mload\n      dup2\n      0x02\n      add\n      sstore\n      pop\n      pop\n        /* \"contracts/Crowdfunding.sol\":1249:1458  function addTier(... */\n      pop\n      pop\n      jump\t// out\n        /* \"contracts/Crowdfunding.sol\":947:1243  function fund(uint256 _tierIndex) public payable{... */\n    tag_67:\n        /* \"contracts/Crowdfunding.sol\":1031:1039  deadline */\n      sload(0x03)\n        /* \"contracts/Crowdfunding.sol\":1013:1028  block.timestamp */\n      timestamp\n        /* \"contracts/Crowdfunding.sol\":1013:1039  block.timestamp < deadline */\n      lt\n        /* \"contracts/Crowdfunding.sol\":1005:1062  require(block.timestamp < deadline, \"Campaign has ended\") */\n      tag_138\n      jumpi\n      mload(0x40)\n      0x08c379a000000000000000000000000000000000000000000000000000000000\n      dup2\n      mstore\n      0x04\n      add\n      tag_139\n      swap1\n      tag_140\n      jump\t// in\n    tag_139:\n      mload(0x40)\n      dup1\n      swap2\n      sub\n      swap1\n      revert\n    tag_138:\n        /* \"contracts/Crowdfunding.sol\":1093:1098  tiers */\n      0x05\n        /* \"contracts/Crowdfunding.sol\":1093:1105  tiers.length */\n      dup1\n      sload\n      swap1\n      pop\n        /* \"contracts/Crowdfunding.sol\":1080:1090  _tierIndex */\n      dup2\n        /* \"contracts/Crowdfunding.sol\":1080:1105  _tierIndex < tiers.length */\n      lt\n        /* \"contracts/Crowdfunding.sol\":1072:1122  require(_tierIndex < tiers.length, \"Invalid tier\") */\n      tag_141\n      jumpi\n      mload(0x40)\n      0x08c379a000000000000000000000000000000000000000000000000000000000\n      dup2\n      mstore\n      0x04\n      add\n      tag_142\n      swap1\n      tag_143\n      jump\t// in\n    tag_142:\n      mload(0x40)\n      dup1\n      swap2\n      sub\n      swap1\n      revert\n    tag_141:\n        /* \"contracts/Crowdfunding.sol\":1153:1158  tiers */\n      0x05\n        /* \"contracts/Crowdfunding.sol\":1159:1169  _tierIndex */\n      dup2\n        /* \"contracts/Crowdfunding.sol\":1153:1170  tiers[_tierIndex] */\n      dup2\n      sload\n      dup2\n      lt\n      tag_144\n      jumpi\n      tag_145\n      tag_114\n      jump\t// in\n    tag_145:\n    tag_144:\n      swap1\n      0x00\n      mstore\n      keccak256(0x00, 0x20)\n      swap1\n      0x03\n      mul\n      add\n        /* \"contracts/Crowdfunding.sol\":1153:1177  tiers[_tierIndex].amount */\n      0x01\n      add\n      sload\n        /* \"contracts/Crowdfunding.sol\":1140:1149  msg.value */\n      callvalue\n        /* \"contracts/Crowdfunding.sol\":1140:1177  msg.value == tiers[_tierIndex].amount */\n      eq\n        /* \"contracts/Crowdfunding.sol\":1132:1198  require(msg.value == tiers[_tierIndex].amount, \"Incorrect amount\") */\n      tag_147\n      jumpi\n      mload(0x40)\n      0x08c379a000000000000000000000000000000000000000000000000000000000\n      dup2\n      mstore\n      0x04\n      add\n      tag_148\n      swap1\n      tag_149\n      jump\t// in\n    tag_148:\n      mload(0x40)\n      dup1\n      swap2\n      sub\n      swap1\n      revert\n    tag_147:\n        /* \"contracts/Crowdfunding.sol\":1209:1214  tiers */\n      0x05\n        /* \"contracts/Crowdfunding.sol\":1215:1225  _tierIndex */\n      dup2\n        /* \"contracts/Crowdfunding.sol\":1209:1226  tiers[_tierIndex] */\n      dup2\n      sload\n      dup2\n      lt\n      tag_150\n      jumpi\n      tag_151\n      tag_114\n      jump\t// in\n    tag_151:\n    tag_150:\n      swap1\n      0x00\n      mstore\n      keccak256(0x00, 0x20)\n      swap1\n      0x03\n      mul\n      add\n        /* \"contracts/Crowdfunding.sol\":1209:1234  tiers[_tierIndex].backers */\n      0x02\n      add\n      0x00\n        /* \"contracts/Crowdfunding.sol\":1209:1236  tiers[_tierIndex].backers++ */\n      dup2\n      sload\n      dup1\n      swap3\n      swap2\n      swap1\n      tag_153\n      swap1\n      tag_154\n      jump\t// in\n    tag_153:\n      swap2\n      swap1\n      pop\n      sstore\n      pop\n        /* \"contracts/Crowdfunding.sol\":947:1243  function fund(uint256 _tierIndex) public payable{... */\n      pop\n      jump\t// out\n    tag_126:\n      pop\n      dup1\n      sload\n      tag_155\n      swap1\n      tag_71\n      jump\t// in\n    tag_155:\n      0x00\n      dup3\n      sstore\n      dup1\n      0x1f\n      lt\n      tag_157\n      jumpi\n      pop\n      jump(tag_156)\n    tag_157:\n      0x1f\n      add\n      0x20\n      swap1\n      div\n      swap1\n      0x00\n      mstore\n      keccak256(0x00, 0x20)\n      swap1\n      dup2\n      add\n      swap1\n      tag_158\n      swap2\n      swap1\n      tag_159\n      jump\t// in\n    tag_158:\n    tag_156:\n      pop\n      jump\t// out\n    tag_159:\n    tag_160:\n      dup1\n      dup3\n      gt\n      iszero\n      tag_161\n      jumpi\n      0x00\n      dup2\n      0x00\n      swap1\n      sstore\n      pop\n      0x01\n      add\n      jump(tag_160)\n    tag_161:\n      pop\n      swap1\n      jump\t// out\n        /* \"#utility.yul\":7:82   */\n    tag_162:\n        /* \"#utility.yul\":40:46   */\n      0x00\n        /* \"#utility.yul\":73:75   */\n      0x40\n        /* \"#utility.yul\":67:76   */\n      mload\n        /* \"#utility.yul\":57:76   */\n      swap1\n      pop\n        /* \"#utility.yul\":7:82   */\n      swap1\n      jump\t// out\n        /* \"#utility.yul\":88:205   */\n    tag_163:\n        /* \"#utility.yul\":197:198   */\n      0x00\n        /* \"#utility.yul\":194:195   */\n      dup1\n        /* \"#utility.yul\":187:199   */\n      revert\n        /* \"#utility.yul\":211:328   */\n    tag_164:\n        /* \"#utility.yul\":320:321   */\n      0x00\n        /* \"#utility.yul\":317:318   */\n      dup1\n        /* \"#utility.yul\":310:322   */\n      revert\n        /* \"#utility.yul\":334:411   */\n    tag_165:\n        /* \"#utility.yul\":371:378   */\n      0x00\n        /* \"#utility.yul\":400:405   */\n      dup2\n        /* \"#utility.yul\":389:405   */\n      swap1\n      pop\n        /* \"#utility.yul\":334:411   */\n      swap2\n      swap1\n      pop\n      jump\t// out\n        /* \"#utility.yul\":417:539   */\n    tag_166:\n        /* \"#utility.yul\":490:514   */\n      tag_232\n        /* \"#utility.yul\":508:513   */\n      dup2\n        /* \"#utility.yul\":490:514   */\n      tag_165\n      jump\t// in\n    tag_232:\n        /* \"#utility.yul\":483:488   */\n      dup2\n        /* \"#utility.yul\":480:515   */\n      eq\n        /* \"#utility.yul\":470:533   */\n      tag_233\n      jumpi\n        /* \"#utility.yul\":529:530   */\n      0x00\n        /* \"#utility.yul\":526:527   */\n      dup1\n        /* \"#utility.yul\":519:531   */\n      revert\n        /* \"#utility.yul\":470:533   */\n    tag_233:\n        /* \"#utility.yul\":417:539   */\n      pop\n      jump\t// out\n        /* \"#utility.yul\":545:684   */\n    tag_167:\n        /* \"#utility.yul\":591:596   */\n      0x00\n        /* \"#utility.yul\":629:635   */\n      dup2\n        /* \"#utility.yul\":616:636   */\n      calldataload\n        /* \"#utility.yul\":607:636   */\n      swap1\n      pop\n        /* \"#utility.yul\":645:678   */\n      tag_235\n        /* \"#utility.yul\":672:677   */\n      dup2\n        /* \"#utility.yul\":645:678   */\n      tag_166\n      jump\t// in\n    tag_235:\n        /* \"#utility.yul\":545:684   */\n      swap3\n      swap2\n      pop\n      pop\n      jump\t// out\n        /* \"#utility.yul\":690:1019   */\n    tag_18:\n        /* \"#utility.yul\":749:755   */\n      0x00\n        /* \"#utility.yul\":798:800   */\n      0x20\n        /* \"#utility.yul\":786:795   */\n      dup3\n        /* \"#utility.yul\":777:784   */\n      dup5\n        /* \"#utility.yul\":773:796   */\n      sub\n        /* \"#utility.yul\":769:801   */\n      slt\n        /* \"#utility.yul\":766:885   */\n      iszero\n      tag_237\n      jumpi\n        /* \"#utility.yul\":804:883   */\n      tag_238\n      tag_163\n      jump\t// in\n    tag_238:\n        /* \"#utility.yul\":766:885   */\n    tag_237:\n        /* \"#utility.yul\":924:925   */\n      0x00\n        /* \"#utility.yul\":949:1002   */\n      tag_239\n        /* \"#utility.yul\":994:1001   */\n      dup5\n        /* \"#utility.yul\":985:991   */\n      dup3\n        /* \"#utility.yul\":974:983   */\n      dup6\n        /* \"#utility.yul\":970:992   */\n      add\n        /* \"#utility.yul\":949:1002   */\n      tag_167\n      jump\t// in\n    tag_239:\n        /* \"#utility.yul\":939:1002   */\n      swap2\n      pop\n        /* \"#utility.yul\":895:1012   */\n      pop\n        /* \"#utility.yul\":690:1019   */\n      swap3\n      swap2\n      pop\n      pop\n      jump\t// out\n        /* \"#utility.yul\":1025:1124   */\n    tag_168:\n        /* \"#utility.yul\":1077:1083   */\n      0x00\n        /* \"#utility.yul\":1111:1116   */\n      dup2\n        /* \"#utility.yul\":1105:1117   */\n      mload\n        /* \"#utility.yul\":1095:1117   */\n      swap1\n      pop\n        /* \"#utility.yul\":1025:1124   */\n      swap2\n      swap1\n      pop\n      jump\t// out\n        /* \"#utility.yul\":1130:1299   */\n    tag_169:\n        /* \"#utility.yul\":1214:1225   */\n      0x00\n        /* \"#utility.yul\":1248:1254   */\n      dup3\n        /* \"#utility.yul\":1243:1246   */\n      dup3\n        /* \"#utility.yul\":1236:1255   */\n      mstore\n        /* \"#utility.yul\":1288:1292   */\n      0x20\n        /* \"#utility.yul\":1283:1286   */\n      dup3\n        /* \"#utility.yul\":1279:1293   */\n      add\n        /* \"#utility.yul\":1264:1293   */\n      swap1\n      pop\n        /* \"#utility.yul\":1130:1299   */\n      swap3\n      swap2\n      pop\n      pop\n      jump\t// out\n        /* \"#utility.yul\":1305:1444   */\n    tag_170:\n        /* \"#utility.yul\":1394:1400   */\n      dup3\n        /* \"#utility.yul\":1389:1392   */\n      dup2\n        /* \"#utility.yul\":1384:1387   */\n      dup4\n        /* \"#utility.yul\":1378:1401   */\n      mcopy\n        /* \"#utility.yul\":1435:1436   */\n      0x00\n        /* \"#utility.yul\":1426:1432   */\n      dup4\n        /* \"#utility.yul\":1421:1424   */\n      dup4\n        /* \"#utility.yul\":1417:1433   */\n      add\n        /* \"#utility.yul\":1410:1437   */\n      mstore\n        /* \"#utility.yul\":1305:1444   */\n      pop\n      pop\n      pop\n      jump\t// out\n        /* \"#utility.yul\":1450:1552   */\n    tag_171:\n        /* \"#utility.yul\":1491:1497   */\n      0x00\n        /* \"#utility.yul\":1542:1544   */\n      0x1f\n        /* \"#utility.yul\":1538:1545   */\n      not\n        /* \"#utility.yul\":1533:1535   */\n      0x1f\n        /* \"#utility.yul\":1526:1531   */\n      dup4\n        /* \"#utility.yul\":1522:1536   */\n      add\n        /* \"#utility.yul\":1518:1546   */\n      and\n        /* \"#utility.yul\":1508:1546   */\n      swap1\n      pop\n        /* \"#utility.yul\":1450:1552   */\n      swap2\n      swap1\n      pop\n      jump\t// out\n        /* \"#utility.yul\":1558:1935   */\n    tag_172:\n        /* \"#utility.yul\":1646:1649   */\n      0x00\n        /* \"#utility.yul\":1674:1713   */\n      tag_245\n        /* \"#utility.yul\":1707:1712   */\n      dup3\n        /* \"#utility.yul\":1674:1713   */\n      tag_168\n      jump\t// in\n    tag_245:\n        /* \"#utility.yul\":1729:1800   */\n      tag_246\n        /* \"#utility.yul\":1793:1799   */\n      dup2\n        /* \"#utility.yul\":1788:1791   */\n      dup6\n        /* \"#utility.yul\":1729:1800   */\n      tag_169\n      jump\t// in\n    tag_246:\n        /* \"#utility.yul\":1722:1800   */\n      swap4\n      pop\n        /* \"#utility.yul\":1809:1874   */\n      tag_247\n        /* \"#utility.yul\":1867:1873   */\n      dup2\n        /* \"#utility.yul\":1862:1865   */\n      dup6\n        /* \"#utility.yul\":1855:1859   */\n      0x20\n        /* \"#utility.yul\":1848:1853   */\n      dup7\n        /* \"#utility.yul\":1844:1860   */\n      add\n        /* \"#utility.yul\":1809:1874   */\n      tag_170\n      jump\t// in\n    tag_247:\n        /* \"#utility.yul\":1899:1928   */\n      tag_248\n        /* \"#utility.yul\":1921:1927   */\n      dup2\n        /* \"#utility.yul\":1899:1928   */\n      tag_171\n      jump\t// in\n    tag_248:\n        /* \"#utility.yul\":1894:1897   */\n      dup5\n        /* \"#utility.yul\":1890:1929   */\n      add\n        /* \"#utility.yul\":1883:1929   */\n      swap2\n      pop\n        /* \"#utility.yul\":1650:1935   */\n      pop\n        /* \"#utility.yul\":1558:1935   */\n      swap3\n      swap2\n      pop\n      pop\n      jump\t// out\n        /* \"#utility.yul\":1941:2059   */\n    tag_173:\n        /* \"#utility.yul\":2028:2052   */\n      tag_250\n        /* \"#utility.yul\":2046:2051   */\n      dup2\n        /* \"#utility.yul\":2028:2052   */\n      tag_165\n      jump\t// in\n    tag_250:\n        /* \"#utility.yul\":2023:2026   */\n      dup3\n        /* \"#utility.yul\":2016:2053   */\n      mstore\n        /* \"#utility.yul\":1941:2059   */\n      pop\n      pop\n      jump\t// out\n        /* \"#utility.yul\":2065:2598   */\n    tag_21:\n        /* \"#utility.yul\":2234:2238   */\n      0x00\n        /* \"#utility.yul\":2272:2274   */\n      0x60\n        /* \"#utility.yul\":2261:2270   */\n      dup3\n        /* \"#utility.yul\":2257:2275   */\n      add\n        /* \"#utility.yul\":2249:2275   */\n      swap1\n      pop\n        /* \"#utility.yul\":2321:2330   */\n      dup2\n        /* \"#utility.yul\":2315:2319   */\n      dup2\n        /* \"#utility.yul\":2311:2331   */\n      sub\n        /* \"#utility.yul\":2307:2308   */\n      0x00\n        /* \"#utility.yul\":2296:2305   */\n      dup4\n        /* \"#utility.yul\":2292:2309   */\n      add\n        /* \"#utility.yul\":2285:2332   */\n      mstore\n        /* \"#utility.yul\":2349:2427   */\n      tag_252\n        /* \"#utility.yul\":2422:2426   */\n      dup2\n        /* \"#utility.yul\":2413:2419   */\n      dup7\n        /* \"#utility.yul\":2349:2427   */\n      tag_172\n      jump\t// in\n    tag_252:\n        /* \"#utility.yul\":2341:2427   */\n      swap1\n      pop\n        /* \"#utility.yul\":2437:2509   */\n      tag_253\n        /* \"#utility.yul\":2505:2507   */\n      0x20\n        /* \"#utility.yul\":2494:2503   */\n      dup4\n        /* \"#utility.yul\":2490:2508   */\n      add\n        /* \"#utility.yul\":2481:2487   */\n      dup6\n        /* \"#utility.yul\":2437:2509   */\n      tag_173\n      jump\t// in\n    tag_253:\n        /* \"#utility.yul\":2519:2591   */\n      tag_254\n        /* \"#utility.yul\":2587:2589   */\n      0x40\n        /* \"#utility.yul\":2576:2585   */\n      dup4\n        /* \"#utility.yul\":2572:2590   */\n      add\n        /* \"#utility.yul\":2563:2569   */\n      dup5\n        /* \"#utility.yul\":2519:2591   */\n      tag_173\n      jump\t// in\n    tag_254:\n        /* \"#utility.yul\":2065:2598   */\n      swap5\n      swap4\n      pop\n      pop\n      pop\n      pop\n      jump\t// out\n        /* \"#utility.yul\":2604:2917   */\n    tag_26:\n        /* \"#utility.yul\":2717:2721   */\n      0x00\n        /* \"#utility.yul\":2755:2757   */\n      0x20\n        /* \"#utility.yul\":2744:2753   */\n      dup3\n        /* \"#utility.yul\":2740:2758   */\n      add\n        /* \"#utility.yul\":2732:2758   */\n      swap1\n      pop\n        /* \"#utility.yul\":2804:2813   */\n      dup2\n        /* \"#utility.yul\":2798:2802   */\n      dup2\n        /* \"#utility.yul\":2794:2814   */\n      sub\n        /* \"#utility.yul\":2790:2791   */\n      0x00\n        /* \"#utility.yul\":2779:2788   */\n      dup4\n        /* \"#utility.yul\":2775:2792   */\n      add\n        /* \"#utility.yul\":2768:2815   */\n      mstore\n        /* \"#utility.yul\":2832:2910   */\n      tag_256\n        /* \"#utility.yul\":2905:2909   */\n      dup2\n        /* \"#utility.yul\":2896:2902   */\n      dup5\n        /* \"#utility.yul\":2832:2910   */\n      tag_172\n      jump\t// in\n    tag_256:\n        /* \"#utility.yul\":2824:2910   */\n      swap1\n      pop\n        /* \"#utility.yul\":2604:2917   */\n      swap3\n      swap2\n      pop\n      pop\n      jump\t// out\n        /* \"#utility.yul\":2923:3145   */\n    tag_31:\n        /* \"#utility.yul\":3016:3020   */\n      0x00\n        /* \"#utility.yul\":3054:3056   */\n      0x20\n        /* \"#utility.yul\":3043:3052   */\n      dup3\n        /* \"#utility.yul\":3039:3057   */\n      add\n        /* \"#utility.yul\":3031:3057   */\n      swap1\n      pop\n        /* \"#utility.yul\":3067:3138   */\n      tag_258\n        /* \"#utility.yul\":3135:3136   */\n      0x00\n        /* \"#utility.yul\":3124:3133   */\n      dup4\n        /* \"#utility.yul\":3120:3137   */\n      add\n        /* \"#utility.yul\":3111:3117   */\n      dup5\n        /* \"#utility.yul\":3067:3138   */\n      tag_173\n      jump\t// in\n    tag_258:\n        /* \"#utility.yul\":2923:3145   */\n      swap3\n      swap2\n      pop\n      pop\n      jump\t// out\n        /* \"#utility.yul\":3151:3277   */\n    tag_174:\n        /* \"#utility.yul\":3188:3195   */\n      0x00\n        /* \"#utility.yul\":3228:3270   */\n      0xffffffffffffffffffffffffffffffffffffffff\n        /* \"#utility.yul\":3221:3226   */\n      dup3\n        /* \"#utility.yul\":3217:3271   */\n      and\n        /* \"#utility.yul\":3206:3271   */\n      swap1\n      pop\n        /* \"#utility.yul\":3151:3277   */\n      swap2\n      swap1\n      pop\n      jump\t// out\n        /* \"#utility.yul\":3283:3379   */\n    tag_175:\n        /* \"#utility.yul\":3320:3327   */\n      0x00\n        /* \"#utility.yul\":3349:3373   */\n      tag_261\n        /* \"#utility.yul\":3367:3372   */\n      dup3\n        /* \"#utility.yul\":3349:3373   */\n      tag_174\n      jump\t// in\n    tag_261:\n        /* \"#utility.yul\":3338:3373   */\n      swap1\n      pop\n        /* \"#utility.yul\":3283:3379   */\n      swap2\n      swap1\n      pop\n      jump\t// out\n        /* \"#utility.yul\":3385:3503   */\n    tag_176:\n        /* \"#utility.yul\":3472:3496   */\n      tag_263\n        /* \"#utility.yul\":3490:3495   */\n      dup2\n        /* \"#utility.yul\":3472:3496   */\n      tag_175\n      jump\t// in\n    tag_263:\n        /* \"#utility.yul\":3467:3470   */\n      dup3\n        /* \"#utility.yul\":3460:3497   */\n      mstore\n        /* \"#utility.yul\":3385:3503   */\n      pop\n      pop\n      jump\t// out\n        /* \"#utility.yul\":3509:3731   */\n    tag_59:\n        /* \"#utility.yul\":3602:3606   */\n      0x00\n        /* \"#utility.yul\":3640:3642   */\n      0x20\n        /* \"#utility.yul\":3629:3638   */\n      dup3\n        /* \"#utility.yul\":3625:3643   */\n      add\n        /* \"#utility.yul\":3617:3643   */\n      swap1\n      pop\n        /* \"#utility.yul\":3653:3724   */\n      tag_265\n        /* \"#utility.yul\":3721:3722   */\n      0x00\n        /* \"#utility.yul\":3710:3719   */\n      dup4\n        /* \"#utility.yul\":3706:3723   */\n      add\n        /* \"#utility.yul\":3697:3703   */\n      dup5\n        /* \"#utility.yul\":3653:3724   */\n      tag_176\n      jump\t// in\n    tag_265:\n        /* \"#utility.yul\":3509:3731   */\n      swap3\n      swap2\n      pop\n      pop\n      jump\t// out\n        /* \"#utility.yul\":3737:3854   */\n    tag_177:\n        /* \"#utility.yul\":3846:3847   */\n      0x00\n        /* \"#utility.yul\":3843:3844   */\n      dup1\n        /* \"#utility.yul\":3836:3848   */\n      revert\n        /* \"#utility.yul\":3860:3977   */\n    tag_178:\n        /* \"#utility.yul\":3969:3970   */\n      0x00\n        /* \"#utility.yul\":3966:3967   */\n      dup1\n        /* \"#utility.yul\":3959:3971   */\n      revert\n        /* \"#utility.yul\":3983:4163   */\n    tag_179:\n        /* \"#utility.yul\":4031:4108   */\n      0x4e487b7100000000000000000000000000000000000000000000000000000000\n        /* \"#utility.yul\":4028:4029   */\n      0x00\n        /* \"#utility.yul\":4021:4109   */\n      mstore\n        /* \"#utility.yul\":4128:4132   */\n      0x41\n        /* \"#utility.yul\":4125:4126   */\n      0x04\n        /* \"#utility.yul\":4118:4133   */\n      mstore\n        /* \"#utility.yul\":4152:4156   */\n      0x24\n        /* \"#utility.yul\":4149:4150   */\n      0x00\n        /* \"#utility.yul\":4142:4157   */\n      revert\n        /* \"#utility.yul\":4169:4450   */\n    tag_180:\n        /* \"#utility.yul\":4252:4279   */\n      tag_270\n        /* \"#utility.yul\":4274:4278   */\n      dup3\n        /* \"#utility.yul\":4252:4279   */\n      tag_171\n      jump\t// in\n    tag_270:\n        /* \"#utility.yul\":4244:4250   */\n      dup2\n        /* \"#utility.yul\":4240:4280   */\n      add\n        /* \"#utility.yul\":4382:4388   */\n      dup2\n        /* \"#utility.yul\":4370:4380   */\n      dup2\n        /* \"#utility.yul\":4367:4389   */\n      lt\n        /* \"#utility.yul\":4346:4364   */\n      0xffffffffffffffff\n        /* \"#utility.yul\":4334:4344   */\n      dup3\n        /* \"#utility.yul\":4331:4365   */\n      gt\n        /* \"#utility.yul\":4328:4390   */\n      or\n        /* \"#utility.yul\":4325:4413   */\n      iszero\n      tag_271\n      jumpi\n        /* \"#utility.yul\":4393:4411   */\n      tag_272\n      tag_179\n      jump\t// in\n    tag_272:\n        /* \"#utility.yul\":4325:4413   */\n    tag_271:\n        /* \"#utility.yul\":4433:4443   */\n      dup1\n        /* \"#utility.yul\":4429:4431   */\n      0x40\n        /* \"#utility.yul\":4422:4444   */\n      mstore\n        /* \"#utility.yul\":4212:4450   */\n      pop\n        /* \"#utility.yul\":4169:4450   */\n      pop\n      pop\n      jump\t// out\n        /* \"#utility.yul\":4456:4585   */\n    tag_181:\n        /* \"#utility.yul\":4490:4496   */\n      0x00\n        /* \"#utility.yul\":4517:4537   */\n      tag_274\n      tag_162\n      jump\t// in\n    tag_274:\n        /* \"#utility.yul\":4507:4537   */\n      swap1\n      pop\n        /* \"#utility.yul\":4546:4579   */\n      tag_275\n        /* \"#utility.yul\":4574:4578   */\n      dup3\n        /* \"#utility.yul\":4566:4572   */\n      dup3\n        /* \"#utility.yul\":4546:4579   */\n      tag_180\n      jump\t// in\n    tag_275:\n        /* \"#utility.yul\":4456:4585   */\n      swap2\n      swap1\n      pop\n      jump\t// out\n        /* \"#utility.yul\":4591:4899   */\n    tag_182:\n        /* \"#utility.yul\":4653:4657   */\n      0x00\n        /* \"#utility.yul\":4743:4761   */\n      0xffffffffffffffff\n        /* \"#utility.yul\":4735:4741   */\n      dup3\n        /* \"#utility.yul\":4732:4762   */\n      gt\n        /* \"#utility.yul\":4729:4785   */\n      iszero\n      tag_277\n      jumpi\n        /* \"#utility.yul\":4765:4783   */\n      tag_278\n      tag_179\n      jump\t// in\n    tag_278:\n        /* \"#utility.yul\":4729:4785   */\n    tag_277:\n        /* \"#utility.yul\":4803:4832   */\n      tag_279\n        /* \"#utility.yul\":4825:4831   */\n      dup3\n        /* \"#utility.yul\":4803:4832   */\n      tag_171\n      jump\t// in\n    tag_279:\n        /* \"#utility.yul\":4795:4832   */\n      swap1\n      pop\n        /* \"#utility.yul\":4887:4891   */\n      0x20\n        /* \"#utility.yul\":4881:4885   */\n      dup2\n        /* \"#utility.yul\":4877:4892   */\n      add\n        /* \"#utility.yul\":4869:4892   */\n      swap1\n      pop\n        /* \"#utility.yul\":4591:4899   */\n      swap2\n      swap1\n      pop\n      jump\t// out\n        /* \"#utility.yul\":4905:5053   */\n    tag_183:\n        /* \"#utility.yul\":5003:5009   */\n      dup3\n        /* \"#utility.yul\":4998:5001   */\n      dup2\n        /* \"#utility.yul\":4993:4996   */\n      dup4\n        /* \"#utility.yul\":4980:5010   */\n      calldatacopy\n        /* \"#utility.yul\":5044:5045   */\n      0x00\n        /* \"#utility.yul\":5035:5041   */\n      dup4\n        /* \"#utility.yul\":5030:5033   */\n      dup4\n        /* \"#utility.yul\":5026:5042   */\n      add\n        /* \"#utility.yul\":5019:5046   */\n      mstore\n        /* \"#utility.yul\":4905:5053   */\n      pop\n      pop\n      pop\n      jump\t// out\n        /* \"#utility.yul\":5059:5484   */\n    tag_184:\n        /* \"#utility.yul\":5137:5142   */\n      0x00\n        /* \"#utility.yul\":5162:5228   */\n      tag_282\n        /* \"#utility.yul\":5178:5227   */\n      tag_283\n        /* \"#utility.yul\":5220:5226   */\n      dup5\n        /* \"#utility.yul\":5178:5227   */\n      tag_182\n      jump\t// in\n    tag_283:\n        /* \"#utility.yul\":5162:5228   */\n      tag_181\n      jump\t// in\n    tag_282:\n        /* \"#utility.yul\":5153:5228   */\n      swap1\n      pop\n        /* \"#utility.yul\":5251:5257   */\n      dup3\n        /* \"#utility.yul\":5244:5249   */\n      dup2\n        /* \"#utility.yul\":5237:5258   */\n      mstore\n        /* \"#utility.yul\":5289:5293   */\n      0x20\n        /* \"#utility.yul\":5282:5287   */\n      dup2\n        /* \"#utility.yul\":5278:5294   */\n      add\n        /* \"#utility.yul\":5327:5330   */\n      dup5\n        /* \"#utility.yul\":5318:5324   */\n      dup5\n        /* \"#utility.yul\":5313:5316   */\n      dup5\n        /* \"#utility.yul\":5309:5325   */\n      add\n        /* \"#utility.yul\":5306:5331   */\n      gt\n        /* \"#utility.yul\":5303:5415   */\n      iszero\n      tag_284\n      jumpi\n        /* \"#utility.yul\":5334:5413   */\n      tag_285\n      tag_178\n      jump\t// in\n    tag_285:\n        /* \"#utility.yul\":5303:5415   */\n    tag_284:\n        /* \"#utility.yul\":5424:5478   */\n      tag_286\n        /* \"#utility.yul\":5471:5477   */\n      dup5\n        /* \"#utility.yul\":5466:5469   */\n      dup3\n        /* \"#utility.yul\":5461:5464   */\n      dup6\n        /* \"#utility.yul\":5424:5478   */\n      tag_183\n      jump\t// in\n    tag_286:\n        /* \"#utility.yul\":5143:5484   */\n      pop\n        /* \"#utility.yul\":5059:5484   */\n      swap4\n      swap3\n      pop\n      pop\n      pop\n      jump\t// out\n        /* \"#utility.yul\":5504:5844   */\n    tag_185:\n        /* \"#utility.yul\":5560:5565   */\n      0x00\n        /* \"#utility.yul\":5609:5612   */\n      dup3\n        /* \"#utility.yul\":5602:5606   */\n      0x1f\n        /* \"#utility.yul\":5594:5600   */\n      dup4\n        /* \"#utility.yul\":5590:5607   */\n      add\n        /* \"#utility.yul\":5586:5613   */\n      slt\n        /* \"#utility.yul\":5576:5698   */\n      tag_288\n      jumpi\n        /* \"#utility.yul\":5617:5696   */\n      tag_289\n      tag_177\n      jump\t// in\n    tag_289:\n        /* \"#utility.yul\":5576:5698   */\n    tag_288:\n        /* \"#utility.yul\":5734:5740   */\n      dup2\n        /* \"#utility.yul\":5721:5741   */\n      calldataload\n        /* \"#utility.yul\":5759:5838   */\n      tag_290\n        /* \"#utility.yul\":5834:5837   */\n      dup5\n        /* \"#utility.yul\":5826:5832   */\n      dup3\n        /* \"#utility.yul\":5819:5823   */\n      0x20\n        /* \"#utility.yul\":5811:5817   */\n      dup7\n        /* \"#utility.yul\":5807:5824   */\n      add\n        /* \"#utility.yul\":5759:5838   */\n      tag_184\n      jump\t// in\n    tag_290:\n        /* \"#utility.yul\":5750:5838   */\n      swap2\n      pop\n        /* \"#utility.yul\":5566:5844   */\n      pop\n        /* \"#utility.yul\":5504:5844   */\n      swap3\n      swap2\n      pop\n      pop\n      jump\t// out\n        /* \"#utility.yul\":5850:6504   */\n    tag_63:\n        /* \"#utility.yul\":5928:5934   */\n      0x00\n        /* \"#utility.yul\":5936:5942   */\n      dup1\n        /* \"#utility.yul\":5985:5987   */\n      0x40\n        /* \"#utility.yul\":5973:5982   */\n      dup4\n        /* \"#utility.yul\":5964:5971   */\n      dup6\n        /* \"#utility.yul\":5960:5983   */\n      sub\n        /* \"#utility.yul\":5956:5988   */\n      slt\n        /* \"#utility.yul\":5953:6072   */\n      iszero\n      tag_292\n      jumpi\n        /* \"#utility.yul\":5991:6070   */\n      tag_293\n      tag_163\n      jump\t// in\n    tag_293:\n        /* \"#utility.yul\":5953:6072   */\n    tag_292:\n        /* \"#utility.yul\":6139:6140   */\n      0x00\n        /* \"#utility.yul\":6128:6137   */\n      dup4\n        /* \"#utility.yul\":6124:6141   */\n      add\n        /* \"#utility.yul\":6111:6142   */\n      calldataload\n        /* \"#utility.yul\":6169:6187   */\n      0xffffffffffffffff\n        /* \"#utility.yul\":6161:6167   */\n      dup2\n        /* \"#utility.yul\":6158:6188   */\n      gt\n        /* \"#utility.yul\":6155:6272   */\n      iszero\n      tag_294\n      jumpi\n        /* \"#utility.yul\":6191:6270   */\n      tag_295\n      tag_164\n      jump\t// in\n    tag_295:\n        /* \"#utility.yul\":6155:6272   */\n    tag_294:\n        /* \"#utility.yul\":6296:6359   */\n      tag_296\n        /* \"#utility.yul\":6351:6358   */\n      dup6\n        /* \"#utility.yul\":6342:6348   */\n      dup3\n        /* \"#utility.yul\":6331:6340   */\n      dup7\n        /* \"#utility.yul\":6327:6349   */\n      add\n        /* \"#utility.yul\":6296:6359   */\n      tag_185\n      jump\t// in\n    tag_296:\n        /* \"#utility.yul\":6286:6359   */\n      swap3\n      pop\n        /* \"#utility.yul\":6082:6369   */\n      pop\n        /* \"#utility.yul\":6408:6410   */\n      0x20\n        /* \"#utility.yul\":6434:6487   */\n      tag_297\n        /* \"#utility.yul\":6479:6486   */\n      dup6\n        /* \"#utility.yul\":6470:6476   */\n      dup3\n        /* \"#utility.yul\":6459:6468   */\n      dup7\n        /* \"#utility.yul\":6455:6477   */\n      add\n        /* \"#utility.yul\":6434:6487   */\n      tag_167\n      jump\t// in\n    tag_297:\n        /* \"#utility.yul\":6424:6487   */\n      swap2\n      pop\n        /* \"#utility.yul\":6379:6497   */\n      pop\n        /* \"#utility.yul\":5850:6504   */\n      swap3\n      pop\n      swap3\n      swap1\n      pop\n      jump\t// out\n        /* \"#utility.yul\":6510:6690   */\n    tag_186:\n        /* \"#utility.yul\":6558:6635   */\n      0x4e487b7100000000000000000000000000000000000000000000000000000000\n        /* \"#utility.yul\":6555:6556   */\n      0x00\n        /* \"#utility.yul\":6548:6636   */\n      mstore\n        /* \"#utility.yul\":6655:6659   */\n      0x22\n        /* \"#utility.yul\":6652:6653   */\n      0x04\n        /* \"#utility.yul\":6645:6660   */\n      mstore\n        /* \"#utility.yul\":6679:6683   */\n      0x24\n        /* \"#utility.yul\":6676:6677   */\n      0x00\n        /* \"#utility.yul\":6669:6684   */\n      revert\n        /* \"#utility.yul\":6696:7016   */\n    tag_71:\n        /* \"#utility.yul\":6740:6746   */\n      0x00\n        /* \"#utility.yul\":6777:6778   */\n      0x02\n        /* \"#utility.yul\":6771:6775   */\n      dup3\n        /* \"#utility.yul\":6767:6779   */\n      div\n        /* \"#utility.yul\":6757:6779   */\n      swap1\n      pop\n        /* \"#utility.yul\":6824:6825   */\n      0x01\n        /* \"#utility.yul\":6818:6822   */\n      dup3\n        /* \"#utility.yul\":6814:6826   */\n      and\n        /* \"#utility.yul\":6845:6863   */\n      dup1\n        /* \"#utility.yul\":6835:6916   */\n      tag_300\n      jumpi\n        /* \"#utility.yul\":6901:6905   */\n      0x7f\n        /* \"#utility.yul\":6893:6899   */\n      dup3\n        /* \"#utility.yul\":6889:6906   */\n      and\n        /* \"#utility.yul\":6879:6906   */\n      swap2\n      pop\n        /* \"#utility.yul\":6835:6916   */\n    tag_300:\n        /* \"#utility.yul\":6963:6965   */\n      0x20\n        /* \"#utility.yul\":6955:6961   */\n      dup3\n        /* \"#utility.yul\":6952:6966   */\n      lt\n        /* \"#utility.yul\":6932:6950   */\n      dup2\n        /* \"#utility.yul\":6929:6967   */\n      sub\n        /* \"#utility.yul\":6926:7010   */\n      tag_301\n      jumpi\n        /* \"#utility.yul\":6982:7000   */\n      tag_302\n      tag_186\n      jump\t// in\n    tag_302:\n        /* \"#utility.yul\":6926:7010   */\n    tag_301:\n        /* \"#utility.yul\":6747:7016   */\n      pop\n        /* \"#utility.yul\":6696:7016   */\n      swap2\n      swap1\n      pop\n      jump\t// out\n        /* \"#utility.yul\":7022:7247   */\n    tag_187:\n        /* \"#utility.yul\":7162:7196   */\n      0x596f7520617265206e6f7420746865206f776e6572206f66207468697320636f\n        /* \"#utility.yul\":7158:7159   */\n      0x00\n        /* \"#utility.yul\":7150:7156   */\n      dup3\n        /* \"#utility.yul\":7146:7160   */\n      add\n        /* \"#utility.yul\":7139:7197   */\n      mstore\n        /* \"#utility.yul\":7231:7239   */\n      0x6e74726163740000000000000000000000000000000000000000000000000000\n        /* \"#utility.yul\":7226:7228   */\n      0x20\n        /* \"#utility.yul\":7218:7224   */\n      dup3\n        /* \"#utility.yul\":7214:7229   */\n      add\n        /* \"#utility.yul\":7207:7240   */\n      mstore\n        /* \"#utility.yul\":7022:7247   */\n      pop\n      jump\t// out\n        /* \"#utility.yul\":7253:7619   */\n    tag_188:\n        /* \"#utility.yul\":7395:7398   */\n      0x00\n        /* \"#utility.yul\":7416:7483   */\n      tag_305\n        /* \"#utility.yul\":7480:7482   */\n      0x26\n        /* \"#utility.yul\":7475:7478   */\n      dup4\n        /* \"#utility.yul\":7416:7483   */\n      tag_169\n      jump\t// in\n    tag_305:\n        /* \"#utility.yul\":7409:7483   */\n      swap2\n      pop\n        /* \"#utility.yul\":7492:7585   */\n      tag_306\n        /* \"#utility.yul\":7581:7584   */\n      dup3\n        /* \"#utility.yul\":7492:7585   */\n      tag_187\n      jump\t// in\n    tag_306:\n        /* \"#utility.yul\":7610:7612   */\n      0x40\n        /* \"#utility.yul\":7605:7608   */\n      dup3\n        /* \"#utility.yul\":7601:7613   */\n      add\n        /* \"#utility.yul\":7594:7613   */\n      swap1\n      pop\n        /* \"#utility.yul\":7253:7619   */\n      swap2\n      swap1\n      pop\n      jump\t// out\n        /* \"#utility.yul\":7625:8044   */\n    tag_84:\n        /* \"#utility.yul\":7791:7795   */\n      0x00\n        /* \"#utility.yul\":7829:7831   */\n      0x20\n        /* \"#utility.yul\":7818:7827   */\n      dup3\n        /* \"#utility.yul\":7814:7832   */\n      add\n        /* \"#utility.yul\":7806:7832   */\n      swap1\n      pop\n        /* \"#utility.yul\":7878:7887   */\n      dup2\n        /* \"#utility.yul\":7872:7876   */\n      dup2\n        /* \"#utility.yul\":7868:7888   */\n      sub\n        /* \"#utility.yul\":7864:7865   */\n      0x00\n        /* \"#utility.yul\":7853:7862   */\n      dup4\n        /* \"#utility.yul\":7849:7866   */\n      add\n        /* \"#utility.yul\":7842:7889   */\n      mstore\n        /* \"#utility.yul\":7906:8037   */\n      tag_308\n        /* \"#utility.yul\":8032:8036   */\n      dup2\n        /* \"#utility.yul\":7906:8037   */\n      tag_188\n      jump\t// in\n    tag_308:\n        /* \"#utility.yul\":7898:8037   */\n      swap1\n      pop\n        /* \"#utility.yul\":7625:8044   */\n      swap2\n      swap1\n      pop\n      jump\t// out\n        /* \"#utility.yul\":8050:8225   */\n    tag_189:\n        /* \"#utility.yul\":8190:8217   */\n      0x676f616c20686173206e6f74206265656e207265616368656400000000000000\n        /* \"#utility.yul\":8186:8187   */\n      0x00\n        /* \"#utility.yul\":8178:8184   */\n      dup3\n        /* \"#utility.yul\":8174:8188   */\n      add\n        /* \"#utility.yul\":8167:8218   */\n      mstore\n        /* \"#utility.yul\":8050:8225   */\n      pop\n      jump\t// out\n        /* \"#utility.yul\":8231:8597   */\n    tag_190:\n        /* \"#utility.yul\":8373:8376   */\n      0x00\n        /* \"#utility.yul\":8394:8461   */\n      tag_311\n        /* \"#utility.yul\":8458:8460   */\n      0x19\n        /* \"#utility.yul\":8453:8456   */\n      dup4\n        /* \"#utility.yul\":8394:8461   */\n      tag_169\n      jump\t// in\n    tag_311:\n        /* \"#utility.yul\":8387:8461   */\n      swap2\n      pop\n        /* \"#utility.yul\":8470:8563   */\n      tag_312\n        /* \"#utility.yul\":8559:8562   */\n      dup3\n        /* \"#utility.yul\":8470:8563   */\n      tag_189\n      jump\t// in\n    tag_312:\n        /* \"#utility.yul\":8588:8590   */\n      0x20\n        /* \"#utility.yul\":8583:8586   */\n      dup3\n        /* \"#utility.yul\":8579:8591   */\n      add\n        /* \"#utility.yul\":8572:8591   */\n      swap1\n      pop\n        /* \"#utility.yul\":8231:8597   */\n      swap2\n      swap1\n      pop\n      jump\t// out\n        /* \"#utility.yul\":8603:9022   */\n    tag_88:\n        /* \"#utility.yul\":8769:8773   */\n      0x00\n        /* \"#utility.yul\":8807:8809   */\n      0x20\n        /* \"#utility.yul\":8796:8805   */\n      dup3\n        /* \"#utility.yul\":8792:8810   */\n      add\n        /* \"#utility.yul\":8784:8810   */\n      swap1\n      pop\n        /* \"#utility.yul\":8856:8865   */\n      dup2\n        /* \"#utility.yul\":8850:8854   */\n      dup2\n        /* \"#utility.yul\":8846:8866   */\n      sub\n        /* \"#utility.yul\":8842:8843   */\n      0x00\n        /* \"#utility.yul\":8831:8840   */\n      dup4\n        /* \"#utility.yul\":8827:8844   */\n      add\n        /* \"#utility.yul\":8820:8867   */\n      mstore\n        /* \"#utility.yul\":8884:9015   */\n      tag_314\n        /* \"#utility.yul\":9010:9014   */\n      dup2\n        /* \"#utility.yul\":8884:9015   */\n      tag_190\n      jump\t// in\n    tag_314:\n        /* \"#utility.yul\":8876:9015   */\n      swap1\n      pop\n        /* \"#utility.yul\":8603:9022   */\n      swap2\n      swap1\n      pop\n      jump\t// out\n        /* \"#utility.yul\":9028:9200   */\n    tag_191:\n        /* \"#utility.yul\":9168:9192   */\n      0x4e6f2062616c616e636520746f20776974686472617700000000000000000000\n        /* \"#utility.yul\":9164:9165   */\n      0x00\n        /* \"#utility.yul\":9156:9162   */\n      dup3\n        /* \"#utility.yul\":9152:9166   */\n      add\n        /* \"#utility.yul\":9145:9193   */\n      mstore\n        /* \"#utility.yul\":9028:9200   */\n      pop\n      jump\t// out\n        /* \"#utility.yul\":9206:9572   */\n    tag_192:\n        /* \"#utility.yul\":9348:9351   */\n      0x00\n        /* \"#utility.yul\":9369:9436   */\n      tag_317\n        /* \"#utility.yul\":9433:9435   */\n      0x16\n        /* \"#utility.yul\":9428:9431   */\n      dup4\n        /* \"#utility.yul\":9369:9436   */\n      tag_169\n      jump\t// in\n    tag_317:\n        /* \"#utility.yul\":9362:9436   */\n      swap2\n      pop\n        /* \"#utility.yul\":9445:9538   */\n      tag_318\n        /* \"#utility.yul\":9534:9537   */\n      dup3\n        /* \"#utility.yul\":9445:9538   */\n      tag_191\n      jump\t// in\n    tag_318:\n        /* \"#utility.yul\":9563:9565   */\n      0x20\n        /* \"#utility.yul\":9558:9561   */\n      dup3\n        /* \"#utility.yul\":9554:9566   */\n      add\n        /* \"#utility.yul\":9547:9566   */\n      swap1\n      pop\n        /* \"#utility.yul\":9206:9572   */\n      swap2\n      swap1\n      pop\n      jump\t// out\n        /* \"#utility.yul\":9578:9997   */\n    tag_91:\n        /* \"#utility.yul\":9744:9748   */\n      0x00\n        /* \"#utility.yul\":9782:9784   */\n      0x20\n        /* \"#utility.yul\":9771:9780   */\n      dup3\n        /* \"#utility.yul\":9767:9785   */\n      add\n        /* \"#utility.yul\":9759:9785   */\n      swap1\n      pop\n        /* \"#utility.yul\":9831:9840   */\n      dup2\n        /* \"#utility.yul\":9825:9829   */\n      dup2\n        /* \"#utility.yul\":9821:9841   */\n      sub\n        /* \"#utility.yul\":9817:9818   */\n      0x00\n        /* \"#utility.yul\":9806:9815   */\n      dup4\n        /* \"#utility.yul\":9802:9819   */\n      add\n        /* \"#utility.yul\":9795:9842   */\n      mstore\n        /* \"#utility.yul\":9859:9990   */\n      tag_320\n        /* \"#utility.yul\":9985:9989   */\n      dup2\n        /* \"#utility.yul\":9859:9990   */\n      tag_192\n      jump\t// in\n    tag_320:\n        /* \"#utility.yul\":9851:9990   */\n      swap1\n      pop\n        /* \"#utility.yul\":9578:9997   */\n      swap2\n      swap1\n      pop\n      jump\t// out\n        /* \"#utility.yul\":10003:10151   */\n    tag_193:\n        /* \"#utility.yul\":10105:10116   */\n      0x00\n        /* \"#utility.yul\":10142:10145   */\n      dup2\n        /* \"#utility.yul\":10127:10145   */\n      swap1\n      pop\n        /* \"#utility.yul\":10003:10151   */\n      swap3\n      swap2\n      pop\n      pop\n      jump\t// out\n        /* \"#utility.yul\":10157:10313   */\n    tag_194:\n        /* \"#utility.yul\":10297:10305   */\n      0x4e616d653a200000000000000000000000000000000000000000000000000000\n        /* \"#utility.yul\":10293:10294   */\n      0x00\n        /* \"#utility.yul\":10285:10291   */\n      dup3\n        /* \"#utility.yul\":10281:10295   */\n      add\n        /* \"#utility.yul\":10274:10306   */\n      mstore\n        /* \"#utility.yul\":10157:10313   */\n      pop\n      jump\t// out\n        /* \"#utility.yul\":10319:10719   */\n    tag_195:\n        /* \"#utility.yul\":10479:10482   */\n      0x00\n        /* \"#utility.yul\":10500:10584   */\n      tag_324\n        /* \"#utility.yul\":10582:10583   */\n      0x06\n        /* \"#utility.yul\":10577:10580   */\n      dup4\n        /* \"#utility.yul\":10500:10584   */\n      tag_193\n      jump\t// in\n    tag_324:\n        /* \"#utility.yul\":10493:10584   */\n      swap2\n      pop\n        /* \"#utility.yul\":10593:10686   */\n      tag_325\n        /* \"#utility.yul\":10682:10685   */\n      dup3\n        /* \"#utility.yul\":10593:10686   */\n      tag_194\n      jump\t// in\n    tag_325:\n        /* \"#utility.yul\":10711:10712   */\n      0x06\n        /* \"#utility.yul\":10706:10709   */\n      dup3\n        /* \"#utility.yul\":10702:10713   */\n      add\n        /* \"#utility.yul\":10695:10713   */\n      swap1\n      pop\n        /* \"#utility.yul\":10319:10719   */\n      swap2\n      swap1\n      pop\n      jump\t// out\n        /* \"#utility.yul\":10725:10866   */\n    tag_196:\n        /* \"#utility.yul\":10774:10778   */\n      0x00\n        /* \"#utility.yul\":10797:10800   */\n      dup2\n        /* \"#utility.yul\":10789:10800   */\n      swap1\n      pop\n        /* \"#utility.yul\":10820:10823   */\n      dup2\n        /* \"#utility.yul\":10817:10818   */\n      0x00\n        /* \"#utility.yul\":10810:10824   */\n      mstore\n        /* \"#utility.yul\":10854:10858   */\n      0x20\n        /* \"#utility.yul\":10851:10852   */\n      0x00\n        /* \"#utility.yul\":10841:10859   */\n      keccak256\n        /* \"#utility.yul\":10833:10859   */\n      swap1\n      pop\n        /* \"#utility.yul\":10725:10866   */\n      swap2\n      swap1\n      pop\n      jump\t// out\n        /* \"#utility.yul\":10896:11770   */\n    tag_197:\n        /* \"#utility.yul\":10999:11002   */\n      0x00\n        /* \"#utility.yul\":11036:11041   */\n      dup2\n        /* \"#utility.yul\":11030:11042   */\n      sload\n        /* \"#utility.yul\":11065:11101   */\n      tag_328\n        /* \"#utility.yul\":11091:11100   */\n      dup2\n        /* \"#utility.yul\":11065:11101   */\n      tag_71\n      jump\t// in\n    tag_328:\n        /* \"#utility.yul\":11117:11206   */\n      tag_329\n        /* \"#utility.yul\":11199:11205   */\n      dup2\n        /* \"#utility.yul\":11194:11197   */\n      dup7\n        /* \"#utility.yul\":11117:11206   */\n      tag_193\n      jump\t// in\n    tag_329:\n        /* \"#utility.yul\":11110:11206   */\n      swap5\n      pop\n        /* \"#utility.yul\":11237:11238   */\n      0x01\n        /* \"#utility.yul\":11226:11235   */\n      dup3\n        /* \"#utility.yul\":11222:11239   */\n      and\n        /* \"#utility.yul\":11253:11254   */\n      0x00\n        /* \"#utility.yul\":11248:11414   */\n      dup2\n      eq\n      tag_331\n      jumpi\n        /* \"#utility.yul\":11428:11429   */\n      0x01\n        /* \"#utility.yul\":11423:11764   */\n      dup2\n      eq\n      tag_332\n      jumpi\n        /* \"#utility.yul\":11215:11764   */\n      jump(tag_330)\n        /* \"#utility.yul\":11248:11414   */\n    tag_331:\n        /* \"#utility.yul\":11332:11336   */\n      0xff\n        /* \"#utility.yul\":11328:11337   */\n      not\n        /* \"#utility.yul\":11317:11326   */\n      dup4\n        /* \"#utility.yul\":11313:11338   */\n      and\n        /* \"#utility.yul\":11308:11311   */\n      dup7\n        /* \"#utility.yul\":11301:11339   */\n      mstore\n        /* \"#utility.yul\":11394:11400   */\n      dup2\n        /* \"#utility.yul\":11387:11401   */\n      iszero\n        /* \"#utility.yul\":11380:11402   */\n      iszero\n        /* \"#utility.yul\":11372:11378   */\n      dup3\n        /* \"#utility.yul\":11368:11403   */\n      mul\n        /* \"#utility.yul\":11363:11366   */\n      dup7\n        /* \"#utility.yul\":11359:11404   */\n      add\n        /* \"#utility.yul\":11352:11404   */\n      swap4\n      pop\n        /* \"#utility.yul\":11248:11414   */\n      jump(tag_330)\n        /* \"#utility.yul\":11423:11764   */\n    tag_332:\n        /* \"#utility.yul\":11490:11528   */\n      tag_333\n        /* \"#utility.yul\":11522:11527   */\n      dup6\n        /* \"#utility.yul\":11490:11528   */\n      tag_196\n      jump\t// in\n    tag_333:\n        /* \"#utility.yul\":11550:11551   */\n      0x00\n        /* \"#utility.yul\":11564:11718   */\n    tag_334:\n        /* \"#utility.yul\":11578:11584   */\n      dup4\n        /* \"#utility.yul\":11575:11576   */\n      dup2\n        /* \"#utility.yul\":11572:11585   */\n      lt\n        /* \"#utility.yul\":11564:11718   */\n      iszero\n      tag_336\n      jumpi\n        /* \"#utility.yul\":11652:11659   */\n      dup2\n        /* \"#utility.yul\":11646:11660   */\n      sload\n        /* \"#utility.yul\":11642:11643   */\n      dup2\n        /* \"#utility.yul\":11637:11640   */\n      dup10\n        /* \"#utility.yul\":11633:11644   */\n      add\n        /* \"#utility.yul\":11626:11661   */\n      mstore\n        /* \"#utility.yul\":11702:11703   */\n      0x01\n        /* \"#utility.yul\":11693:11700   */\n      dup3\n        /* \"#utility.yul\":11689:11704   */\n      add\n        /* \"#utility.yul\":11678:11704   */\n      swap2\n      pop\n        /* \"#utility.yul\":11600:11604   */\n      0x20\n        /* \"#utility.yul\":11597:11598   */\n      dup2\n        /* \"#utility.yul\":11593:11605   */\n      add\n        /* \"#utility.yul\":11588:11605   */\n      swap1\n      pop\n        /* \"#utility.yul\":11564:11718   */\n      jump(tag_334)\n    tag_336:\n        /* \"#utility.yul\":11747:11753   */\n      dup4\n        /* \"#utility.yul\":11742:11745   */\n      dup9\n        /* \"#utility.yul\":11738:11754   */\n      add\n        /* \"#utility.yul\":11731:11754   */\n      swap6\n      pop\n        /* \"#utility.yul\":11430:11764   */\n      pop\n      pop\n        /* \"#utility.yul\":11215:11764   */\n    tag_330:\n      pop\n        /* \"#utility.yul\":11003:11770   */\n      pop\n      pop\n        /* \"#utility.yul\":10896:11770   */\n      swap3\n      swap2\n      pop\n      pop\n      jump\t// out\n        /* \"#utility.yul\":11776:11940   */\n    tag_198:\n        /* \"#utility.yul\":11916:11932   */\n      0x204465736372697074696f6e3a20000000000000000000000000000000000000\n        /* \"#utility.yul\":11912:11913   */\n      0x00\n        /* \"#utility.yul\":11904:11910   */\n      dup3\n        /* \"#utility.yul\":11900:11914   */\n      add\n        /* \"#utility.yul\":11893:11933   */\n      mstore\n        /* \"#utility.yul\":11776:11940   */\n      pop\n      jump\t// out\n        /* \"#utility.yul\":11946:12348   */\n    tag_199:\n        /* \"#utility.yul\":12106:12109   */\n      0x00\n        /* \"#utility.yul\":12127:12212   */\n      tag_339\n        /* \"#utility.yul\":12209:12211   */\n      0x0e\n        /* \"#utility.yul\":12204:12207   */\n      dup4\n        /* \"#utility.yul\":12127:12212   */\n      tag_193\n      jump\t// in\n    tag_339:\n        /* \"#utility.yul\":12120:12212   */\n      swap2\n      pop\n        /* \"#utility.yul\":12221:12314   */\n      tag_340\n        /* \"#utility.yul\":12310:12313   */\n      dup3\n        /* \"#utility.yul\":12221:12314   */\n      tag_198\n      jump\t// in\n    tag_340:\n        /* \"#utility.yul\":12339:12341   */\n      0x0e\n        /* \"#utility.yul\":12334:12337   */\n      dup3\n        /* \"#utility.yul\":12330:12342   */\n      add\n        /* \"#utility.yul\":12323:12342   */\n      swap1\n      pop\n        /* \"#utility.yul\":11946:12348   */\n      swap2\n      swap1\n      pop\n      jump\t// out\n        /* \"#utility.yul\":12354:13309   */\n    tag_96:\n        /* \"#utility.yul\":12730:12733   */\n      0x00\n        /* \"#utility.yul\":12752:12900   */\n      tag_342\n        /* \"#utility.yul\":12896:12899   */\n      dup3\n        /* \"#utility.yul\":12752:12900   */\n      tag_195\n      jump\t// in\n    tag_342:\n        /* \"#utility.yul\":12745:12900   */\n      swap2\n      pop\n        /* \"#utility.yul\":12917:13009   */\n      tag_343\n        /* \"#utility.yul\":13005:13008   */\n      dup3\n        /* \"#utility.yul\":12996:13002   */\n      dup6\n        /* \"#utility.yul\":12917:13009   */\n      tag_197\n      jump\t// in\n    tag_343:\n        /* \"#utility.yul\":12910:13009   */\n      swap2\n      pop\n        /* \"#utility.yul\":13026:13174   */\n      tag_344\n        /* \"#utility.yul\":13170:13173   */\n      dup3\n        /* \"#utility.yul\":13026:13174   */\n      tag_199\n      jump\t// in\n    tag_344:\n        /* \"#utility.yul\":13019:13174   */\n      swap2\n      pop\n        /* \"#utility.yul\":13191:13283   */\n      tag_345\n        /* \"#utility.yul\":13279:13282   */\n      dup3\n        /* \"#utility.yul\":13270:13276   */\n      dup5\n        /* \"#utility.yul\":13191:13283   */\n      tag_197\n      jump\t// in\n    tag_345:\n        /* \"#utility.yul\":13184:13283   */\n      swap2\n      pop\n        /* \"#utility.yul\":13300:13303   */\n      dup2\n        /* \"#utility.yul\":13293:13303   */\n      swap1\n      pop\n        /* \"#utility.yul\":12354:13309   */\n      swap4\n      swap3\n      pop\n      pop\n      pop\n      jump\t// out\n        /* \"#utility.yul\":13315:13484   */\n    tag_200:\n        /* \"#utility.yul\":13455:13476   */\n      0x5469657220646f65736e27742065786973747300000000000000000000000000\n        /* \"#utility.yul\":13451:13452   */\n      0x00\n        /* \"#utility.yul\":13443:13449   */\n      dup3\n        /* \"#utility.yul\":13439:13453   */\n      add\n        /* \"#utility.yul\":13432:13477   */\n      mstore\n        /* \"#utility.yul\":13315:13484   */\n      pop\n      jump\t// out\n        /* \"#utility.yul\":13490:13856   */\n    tag_201:\n        /* \"#utility.yul\":13632:13635   */\n      0x00\n        /* \"#utility.yul\":13653:13720   */\n      tag_348\n        /* \"#utility.yul\":13717:13719   */\n      0x13\n        /* \"#utility.yul\":13712:13715   */\n      dup4\n        /* \"#utility.yul\":13653:13720   */\n      tag_169\n      jump\t// in\n    tag_348:\n        /* \"#utility.yul\":13646:13720   */\n      swap2\n      pop\n        /* \"#utility.yul\":13729:13822   */\n      tag_349\n        /* \"#utility.yul\":13818:13821   */\n      dup3\n        /* \"#utility.yul\":13729:13822   */\n      tag_200\n      jump\t// in\n    tag_349:\n        /* \"#utility.yul\":13847:13849   */\n      0x20\n        /* \"#utility.yul\":13842:13845   */\n      dup3\n        /* \"#utility.yul\":13838:13850   */\n      add\n        /* \"#utility.yul\":13831:13850   */\n      swap1\n      pop\n        /* \"#utility.yul\":13490:13856   */\n      swap2\n      swap1\n      pop\n      jump\t// out\n        /* \"#utility.yul\":13862:14281   */\n    tag_109:\n        /* \"#utility.yul\":14028:14032   */\n      0x00\n        /* \"#utility.yul\":14066:14068   */\n      0x20\n        /* \"#utility.yul\":14055:14064   */\n      dup3\n        /* \"#utility.yul\":14051:14069   */\n      add\n        /* \"#utility.yul\":14043:14069   */\n      swap1\n      pop\n        /* \"#utility.yul\":14115:14124   */\n      dup2\n        /* \"#utility.yul\":14109:14113   */\n      dup2\n        /* \"#utility.yul\":14105:14125   */\n      sub\n        /* \"#utility.yul\":14101:14102   */\n      0x00\n        /* \"#utility.yul\":14090:14099   */\n      dup4\n        /* \"#utility.yul\":14086:14103   */\n      add\n        /* \"#utility.yul\":14079:14126   */\n      mstore\n        /* \"#utility.yul\":14143:14274   */\n      tag_351\n        /* \"#utility.yul\":14269:14273   */\n      dup2\n        /* \"#utility.yul\":14143:14274   */\n      tag_201\n      jump\t// in\n    tag_351:\n        /* \"#utility.yul\":14135:14274   */\n      swap1\n      pop\n        /* \"#utility.yul\":13862:14281   */\n      swap2\n      swap1\n      pop\n      jump\t// out\n        /* \"#utility.yul\":14287:14467   */\n    tag_202:\n        /* \"#utility.yul\":14335:14412   */\n      0x4e487b7100000000000000000000000000000000000000000000000000000000\n        /* \"#utility.yul\":14332:14333   */\n      0x00\n        /* \"#utility.yul\":14325:14413   */\n      mstore\n        /* \"#utility.yul\":14432:14436   */\n      0x11\n        /* \"#utility.yul\":14429:14430   */\n      0x04\n        /* \"#utility.yul\":14422:14437   */\n      mstore\n        /* \"#utility.yul\":14456:14460   */\n      0x24\n        /* \"#utility.yul\":14453:14454   */\n      0x00\n        /* \"#utility.yul\":14446:14461   */\n      revert\n        /* \"#utility.yul\":14473:14667   */\n    tag_111:\n        /* \"#utility.yul\":14513:14517   */\n      0x00\n        /* \"#utility.yul\":14533:14553   */\n      tag_354\n        /* \"#utility.yul\":14551:14552   */\n      dup3\n        /* \"#utility.yul\":14533:14553   */\n      tag_165\n      jump\t// in\n    tag_354:\n        /* \"#utility.yul\":14528:14553   */\n      swap2\n      pop\n        /* \"#utility.yul\":14567:14587   */\n      tag_355\n        /* \"#utility.yul\":14585:14586   */\n      dup4\n        /* \"#utility.yul\":14567:14587   */\n      tag_165\n      jump\t// in\n    tag_355:\n        /* \"#utility.yul\":14562:14587   */\n      swap3\n      pop\n        /* \"#utility.yul\":14611:14612   */\n      dup3\n        /* \"#utility.yul\":14608:14609   */\n      dup3\n        /* \"#utility.yul\":14604:14613   */\n      sub\n        /* \"#utility.yul\":14596:14613   */\n      swap1\n      pop\n        /* \"#utility.yul\":14635:14636   */\n      dup2\n        /* \"#utility.yul\":14629:14633   */\n      dup2\n        /* \"#utility.yul\":14626:14637   */\n      gt\n        /* \"#utility.yul\":14623:14660   */\n      iszero\n      tag_356\n      jumpi\n        /* \"#utility.yul\":14640:14658   */\n      tag_357\n      tag_202\n      jump\t// in\n    tag_357:\n        /* \"#utility.yul\":14623:14660   */\n    tag_356:\n        /* \"#utility.yul\":14473:14667   */\n      swap3\n      swap2\n      pop\n      pop\n      jump\t// out\n        /* \"#utility.yul\":14673:14853   */\n    tag_114:\n        /* \"#utility.yul\":14721:14798   */\n      0x4e487b7100000000000000000000000000000000000000000000000000000000\n        /* \"#utility.yul\":14718:14719   */\n      0x00\n        /* \"#utility.yul\":14711:14799   */\n      mstore\n        /* \"#utility.yul\":14818:14822   */\n      0x32\n        /* \"#utility.yul\":14815:14816   */\n      0x04\n        /* \"#utility.yul\":14808:14823   */\n      mstore\n        /* \"#utility.yul\":14842:14846   */\n      0x24\n        /* \"#utility.yul\":14839:14840   */\n      0x00\n        /* \"#utility.yul\":14832:14847   */\n      revert\n        /* \"#utility.yul\":14859:15008   */\n    tag_203:\n        /* \"#utility.yul\":14908:14914   */\n      0x00\n        /* \"#utility.yul\":14942:14947   */\n      dup2\n        /* \"#utility.yul\":14936:14948   */\n      sload\n        /* \"#utility.yul\":14926:14948   */\n      swap1\n      pop\n        /* \"#utility.yul\":14968:15001   */\n      tag_360\n        /* \"#utility.yul\":14994:15000   */\n      dup2\n        /* \"#utility.yul\":14968:15001   */\n      tag_71\n      jump\t// in\n    tag_360:\n        /* \"#utility.yul\":14958:15001   */\n      swap1\n      pop\n        /* \"#utility.yul\":14859:15008   */\n      swap2\n      swap1\n      pop\n      jump\t// out\n        /* \"#utility.yul\":15014:15107   */\n    tag_204:\n        /* \"#utility.yul\":15051:15057   */\n      0x00\n        /* \"#utility.yul\":15098:15100   */\n      0x20\n        /* \"#utility.yul\":15093:15095   */\n      0x1f\n        /* \"#utility.yul\":15086:15091   */\n      dup4\n        /* \"#utility.yul\":15082:15096   */\n      add\n        /* \"#utility.yul\":15078:15101   */\n      div\n        /* \"#utility.yul\":15068:15101   */\n      swap1\n      pop\n        /* \"#utility.yul\":15014:15107   */\n      swap2\n      swap1\n      pop\n      jump\t// out\n        /* \"#utility.yul\":15113:15220   */\n    tag_205:\n        /* \"#utility.yul\":15157:15165   */\n      0x00\n        /* \"#utility.yul\":15207:15212   */\n      dup3\n        /* \"#utility.yul\":15201:15205   */\n      dup3\n        /* \"#utility.yul\":15197:15213   */\n      shl\n        /* \"#utility.yul\":15176:15213   */\n      swap1\n      pop\n        /* \"#utility.yul\":15113:15220   */\n      swap3\n      swap2\n      pop\n      pop\n      jump\t// out\n        /* \"#utility.yul\":15226:15619   */\n    tag_206:\n        /* \"#utility.yul\":15295:15301   */\n      0x00\n        /* \"#utility.yul\":15345:15346   */\n      0x08\n        /* \"#utility.yul\":15333:15343   */\n      dup4\n        /* \"#utility.yul\":15329:15347   */\n      mul\n        /* \"#utility.yul\":15368:15465   */\n      tag_364\n        /* \"#utility.yul\":15398:15464   */\n      0xffffffffffffffffffffffffffffffffffffffffffffffffffffffffffffffff\n        /* \"#utility.yul\":15387:15396   */\n      dup3\n        /* \"#utility.yul\":15368:15465   */\n      tag_205\n      jump\t// in\n    tag_364:\n        /* \"#utility.yul\":15486:15525   */\n      tag_365\n        /* \"#utility.yul\":15516:15524   */\n      dup7\n        /* \"#utility.yul\":15505:15514   */\n      dup4\n        /* \"#utility.yul\":15486:15525   */\n      tag_205\n      jump\t// in\n    tag_365:\n        /* \"#utility.yul\":15474:15525   */\n      swap6\n      pop\n        /* \"#utility.yul\":15558:15562   */\n      dup1\n        /* \"#utility.yul\":15554:15563   */\n      not\n        /* \"#utility.yul\":15547:15552   */\n      dup5\n        /* \"#utility.yul\":15543:15564   */\n      and\n        /* \"#utility.yul\":15534:15564   */\n      swap4\n      pop\n        /* \"#utility.yul\":15607:15611   */\n      dup1\n        /* \"#utility.yul\":15597:15605   */\n      dup7\n        /* \"#utility.yul\":15593:15612   */\n      and\n        /* \"#utility.yul\":15586:15591   */\n      dup5\n        /* \"#utility.yul\":15583:15613   */\n      or\n        /* \"#utility.yul\":15573:15613   */\n      swap3\n      pop\n        /* \"#utility.yul\":15302:15619   */\n      pop\n      pop\n        /* \"#utility.yul\":15226:15619   */\n      swap4\n      swap3\n      pop\n      pop\n      pop\n      jump\t// out\n        /* \"#utility.yul\":15625:15685   */\n    tag_207:\n        /* \"#utility.yul\":15653:15656   */\n      0x00\n        /* \"#utility.yul\":15674:15679   */\n      dup2\n        /* \"#utility.yul\":15667:15679   */\n      swap1\n      pop\n        /* \"#utility.yul\":15625:15685   */\n      swap2\n      swap1\n      pop\n      jump\t// out\n        /* \"#utility.yul\":15691:15833   */\n    tag_208:\n        /* \"#utility.yul\":15741:15750   */\n      0x00\n        /* \"#utility.yul\":15774:15827   */\n      tag_368\n        /* \"#utility.yul\":15792:15826   */\n      tag_369\n        /* \"#utility.yul\":15801:15825   */\n      tag_370\n        /* \"#utility.yul\":15819:15824   */\n      dup5\n        /* \"#utility.yul\":15801:15825   */\n      tag_165\n      jump\t// in\n    tag_370:\n        /* \"#utility.yul\":15792:15826   */\n      tag_207\n      jump\t// in\n    tag_369:\n        /* \"#utility.yul\":15774:15827   */\n      tag_165\n      jump\t// in\n    tag_368:\n        /* \"#utility.yul\":15761:15827   */\n      swap1\n      pop\n        /* \"#utility.yul\":15691:15833   */\n      swap2\n      swap1\n      pop\n      jump\t// out\n        /* \"#utility.yul\":15839:15914   */\n    tag_209:\n        /* \"#utility.yul\":15882:15885   */\n      0x00\n        /* \"#utility.yul\":15903:15908   */\n      dup2\n        /* \"#utility.yul\":15896:15908   */\n      swap1\n      pop\n        /* \"#utility.yul\":15839:15914   */\n      swap2\n      swap1\n      pop\n      jump\t// out\n        /* \"#utility.yul\":15920:16189   */\n    tag_210:\n        /* \"#utility.yul\":16030:16069   */\n      tag_373\n        /* \"#utility.yul\":16061:16068   */\n      dup4\n        /* \"#utility.yul\":16030:16069   */\n      tag_208\n      jump\t// in\n    tag_373:\n        /* \"#utility.yul\":16091:16182   */\n      tag_374\n        /* \"#utility.yul\":16140:16181   */\n      tag_375\n        /* \"#utility.yul\":16164:16180   */\n      dup3\n        /* \"#utility.yul\":16140:16181   */\n      tag_209\n      jump\t// in\n    tag_375:\n        /* \"#utility.yul\":16132:16138   */\n      dup5\n        /* \"#utility.yul\":16125:16129   */\n      dup5\n        /* \"#utility.yul\":16119:16130   */\n      sload\n        /* \"#utility.yul\":16091:16182   */\n      tag_206\n      jump\t// in\n    tag_374:\n        /* \"#utility.yul\":16085:16089   */\n      dup3\n        /* \"#utility.yul\":16078:16183   */\n      sstore\n        /* \"#utility.yul\":15996:16189   */\n      pop\n        /* \"#utility.yul\":15920:16189   */\n      pop\n      pop\n      pop\n      jump\t// out\n        /* \"#utility.yul\":16195:16268   */\n    tag_211:\n        /* \"#utility.yul\":16240:16243   */\n      0x00\n        /* \"#utility.yul\":16195:16268   */\n      swap1\n      jump\t// out\n        /* \"#utility.yul\":16274:16463   */\n    tag_212:\n        /* \"#utility.yul\":16351:16383   */\n      tag_378\n      tag_211\n      jump\t// in\n    tag_378:\n        /* \"#utility.yul\":16392:16457   */\n      tag_379\n        /* \"#utility.yul\":16450:16456   */\n      dup2\n        /* \"#utility.yul\":16442:16448   */\n      dup5\n        /* \"#utility.yul\":16436:16440   */\n      dup5\n        /* \"#utility.yul\":16392:16457   */\n      tag_210\n      jump\t// in\n    tag_379:\n        /* \"#utility.yul\":16327:16463   */\n      pop\n        /* \"#utility.yul\":16274:16463   */\n      pop\n      pop\n      jump\t// out\n        /* \"#utility.yul\":16469:16655   */\n    tag_213:\n        /* \"#utility.yul\":16529:16649   */\n    tag_381:\n        /* \"#utility.yul\":16546:16549   */\n      dup2\n        /* \"#utility.yul\":16539:16544   */\n      dup2\n        /* \"#utility.yul\":16536:16550   */\n      lt\n        /* \"#utility.yul\":16529:16649   */\n      iszero\n      tag_383\n      jumpi\n        /* \"#utility.yul\":16600:16639   */\n      tag_384\n        /* \"#utility.yul\":16637:16638   */\n      0x00\n        /* \"#utility.yul\":16630:16635   */\n      dup3\n        /* \"#utility.yul\":16600:16639   */\n      tag_212\n      jump\t// in\n    tag_384:\n        /* \"#utility.yul\":16573:16574   */\n      0x01\n        /* \"#utility.yul\":16566:16571   */\n      dup2\n        /* \"#utility.yul\":16562:16575   */\n      add\n        /* \"#utility.yul\":16553:16575   */\n      swap1\n      pop\n        /* \"#utility.yul\":16529:16649   */\n      jump(tag_381)\n    tag_383:\n        /* \"#utility.yul\":16469:16655   */\n      pop\n      pop\n      jump\t// out\n        /* \"#utility.yul\":16661:17204   */\n    tag_214:\n        /* \"#utility.yul\":16762:16764   */\n      0x1f\n        /* \"#utility.yul\":16757:16760   */\n      dup3\n        /* \"#utility.yul\":16754:16765   */\n      gt\n        /* \"#utility.yul\":16751:17197   */\n      iszero\n      tag_386\n      jumpi\n        /* \"#utility.yul\":16796:16834   */\n      tag_387\n        /* \"#utility.yul\":16828:16833   */\n      dup2\n        /* \"#utility.yul\":16796:16834   */\n      tag_196\n      jump\t// in\n    tag_387:\n        /* \"#utility.yul\":16880:16909   */\n      tag_388\n        /* \"#utility.yul\":16898:16908   */\n      dup5\n        /* \"#utility.yul\":16880:16909   */\n      tag_204\n      jump\t// in\n    tag_388:\n        /* \"#utility.yul\":16870:16878   */\n      dup2\n        /* \"#utility.yul\":16866:16910   */\n      add\n        /* \"#utility.yul\":17063:17065   */\n      0x20\n        /* \"#utility.yul\":17051:17061   */\n      dup6\n        /* \"#utility.yul\":17048:17066   */\n      lt\n        /* \"#utility.yul\":17045:17094   */\n      iszero\n      tag_389\n      jumpi\n        /* \"#utility.yul\":17084:17092   */\n      dup2\n        /* \"#utility.yul\":17069:17092   */\n      swap1\n      pop\n        /* \"#utility.yul\":17045:17094   */\n    tag_389:\n        /* \"#utility.yul\":17107:17187   */\n      tag_390\n        /* \"#utility.yul\":17163:17185   */\n      tag_391\n        /* \"#utility.yul\":17181:17184   */\n      dup6\n        /* \"#utility.yul\":17163:17185   */\n      tag_204\n      jump\t// in\n    tag_391:\n        /* \"#utility.yul\":17153:17161   */\n      dup4\n        /* \"#utility.yul\":17149:17186   */\n      add\n        /* \"#utility.yul\":17136:17147   */\n      dup3\n        /* \"#utility.yul\":17107:17187   */\n      tag_213\n      jump\t// in\n    tag_390:\n        /* \"#utility.yul\":16766:17197   */\n      pop\n      pop\n        /* \"#utility.yul\":16751:17197   */\n    tag_386:\n        /* \"#utility.yul\":16661:17204   */\n      pop\n      pop\n      pop\n      jump\t// out\n        /* \"#utility.yul\":17210:17327   */\n    tag_215:\n        /* \"#utility.yul\":17264:17272   */\n      0x00\n        /* \"#utility.yul\":17314:17319   */\n      dup3\n        /* \"#utility.yul\":17308:17312   */\n      dup3\n        /* \"#utility.yul\":17304:17320   */\n      shr\n        /* \"#utility.yul\":17283:17320   */\n      swap1\n      pop\n        /* \"#utility.yul\":17210:17327   */\n      swap3\n      swap2\n      pop\n      pop\n      jump\t// out\n        /* \"#utility.yul\":17333:17502   */\n    tag_216:\n        /* \"#utility.yul\":17377:17383   */\n      0x00\n        /* \"#utility.yul\":17410:17461   */\n      tag_394\n        /* \"#utility.yul\":17458:17459   */\n      0x00\n        /* \"#utility.yul\":17454:17460   */\n      not\n        /* \"#utility.yul\":17446:17451   */\n      dup5\n        /* \"#utility.yul\":17443:17444   */\n      0x08\n        /* \"#utility.yul\":17439:17452   */\n      mul\n        /* \"#utility.yul\":17410:17461   */\n      tag_215\n      jump\t// in\n    tag_394:\n        /* \"#utility.yul\":17406:17462   */\n      not\n        /* \"#utility.yul\":17491:17495   */\n      dup1\n        /* \"#utility.yul\":17485:17489   */\n      dup4\n        /* \"#utility.yul\":17481:17496   */\n      and\n        /* \"#utility.yul\":17471:17496   */\n      swap2\n      pop\n        /* \"#utility.yul\":17384:17502   */\n      pop\n        /* \"#utility.yul\":17333:17502   */\n      swap3\n      swap2\n      pop\n      pop\n      jump\t// out\n        /* \"#utility.yul\":17507:17802   */\n    tag_217:\n        /* \"#utility.yul\":17583:17587   */\n      0x00\n        /* \"#utility.yul\":17729:17758   */\n      tag_396\n        /* \"#utility.yul\":17754:17757   */\n      dup4\n        /* \"#utility.yul\":17748:17752   */\n      dup4\n        /* \"#utility.yul\":17729:17758   */\n      tag_216\n      jump\t// in\n    tag_396:\n        /* \"#utility.yul\":17721:17758   */\n      swap2\n      pop\n        /* \"#utility.yul\":17791:17794   */\n      dup3\n        /* \"#utility.yul\":17788:17789   */\n      0x02\n        /* \"#utility.yul\":17784:17795   */\n      mul\n        /* \"#utility.yul\":17778:17782   */\n      dup3\n        /* \"#utility.yul\":17775:17796   */\n      or\n        /* \"#utility.yul\":17767:17796   */\n      swap1\n      pop\n        /* \"#utility.yul\":17507:17802   */\n      swap3\n      swap2\n      pop\n      pop\n      jump\t// out\n        /* \"#utility.yul\":17807:19258   */\n    tag_120:\n        /* \"#utility.yul\":17918:17921   */\n      dup2\n        /* \"#utility.yul\":17912:17916   */\n      dup2\n        /* \"#utility.yul\":17909:17922   */\n      sub\n        /* \"#utility.yul\":17906:17932   */\n      tag_398\n      jumpi\n        /* \"#utility.yul\":17925:17930   */\n      pop\n      pop\n      jump(tag_397)\n        /* \"#utility.yul\":17906:17932   */\n    tag_398:\n        /* \"#utility.yul\":17956:17990   */\n      tag_399\n        /* \"#utility.yul\":17986:17989   */\n      dup3\n        /* \"#utility.yul\":17956:17990   */\n      tag_203\n      jump\t// in\n    tag_399:\n        /* \"#utility.yul\":18055:18073   */\n      0xffffffffffffffff\n        /* \"#utility.yul\":18047:18053   */\n      dup2\n        /* \"#utility.yul\":18044:18074   */\n      gt\n        /* \"#utility.yul\":18041:18097   */\n      iszero\n      tag_400\n      jumpi\n        /* \"#utility.yul\":18077:18095   */\n      tag_401\n      tag_179\n      jump\t// in\n    tag_401:\n        /* \"#utility.yul\":18041:18097   */\n    tag_400:\n        /* \"#utility.yul\":18121:18159   */\n      tag_402\n        /* \"#utility.yul\":18153:18157   */\n      dup3\n        /* \"#utility.yul\":18147:18158   */\n      sload\n        /* \"#utility.yul\":18121:18159   */\n      tag_71\n      jump\t// in\n    tag_402:\n        /* \"#utility.yul\":18206:18273   */\n      tag_403\n        /* \"#utility.yul\":18266:18272   */\n      dup3\n        /* \"#utility.yul\":18258:18264   */\n      dup3\n        /* \"#utility.yul\":18252:18256   */\n      dup6\n        /* \"#utility.yul\":18206:18273   */\n      tag_214\n      jump\t// in\n    tag_403:\n        /* \"#utility.yul\":18300:18301   */\n      0x00\n        /* \"#utility.yul\":18329:18331   */\n      0x1f\n        /* \"#utility.yul\":18321:18327   */\n      dup4\n        /* \"#utility.yul\":18318:18332   */\n      gt\n        /* \"#utility.yul\":18346:18347   */\n      0x01\n        /* \"#utility.yul\":18341:19013   */\n      dup2\n      eq\n      tag_405\n      jumpi\n        /* \"#utility.yul\":19057:19058   */\n      0x00\n        /* \"#utility.yul\":19074:19080   */\n      dup5\n        /* \"#utility.yul\":19071:19148   */\n      iszero\n      tag_406\n      jumpi\n        /* \"#utility.yul\":19123:19132   */\n      dup3\n        /* \"#utility.yul\":19118:19121   */\n      dup8\n        /* \"#utility.yul\":19114:19133   */\n      add\n        /* \"#utility.yul\":19108:19134   */\n      sload\n        /* \"#utility.yul\":19099:19134   */\n      swap1\n      pop\n        /* \"#utility.yul\":19071:19148   */\n    tag_406:\n        /* \"#utility.yul\":19174:19241   */\n      tag_407\n        /* \"#utility.yul\":19234:19240   */\n      dup6\n        /* \"#utility.yul\":19227:19232   */\n      dup3\n        /* \"#utility.yul\":19174:19241   */\n      tag_217\n      jump\t// in\n    tag_407:\n        /* \"#utility.yul\":19168:19172   */\n      dup7\n        /* \"#utility.yul\":19161:19242   */\n      sstore\n        /* \"#utility.yul\":19030:19252   */\n      pop\n        /* \"#utility.yul\":18311:19252   */\n      jump(tag_404)\n        /* \"#utility.yul\":18341:19013   */\n    tag_405:\n        /* \"#utility.yul\":18393:18397   */\n      0x1f\n        /* \"#utility.yul\":18389:18398   */\n      not\n        /* \"#utility.yul\":18381:18387   */\n      dup5\n        /* \"#utility.yul\":18377:18399   */\n      and\n        /* \"#utility.yul\":18419:18455   */\n      tag_408\n        /* \"#utility.yul\":18451:18454   */\n      dup8\n        /* \"#utility.yul\":18419:18455   */\n      tag_196\n      jump\t// in\n    tag_408:\n        /* \"#utility.yul\":18412:18455   */\n      swap7\n      pop\n        /* \"#utility.yul\":18482:18519   */\n      tag_409\n        /* \"#utility.yul\":18514:18518   */\n      dup7\n        /* \"#utility.yul\":18482:18519   */\n      tag_196\n      jump\t// in\n    tag_409:\n        /* \"#utility.yul\":18541:18542   */\n      0x00\n        /* \"#utility.yul\":18555:18762   */\n    tag_410:\n        /* \"#utility.yul\":18569:18576   */\n      dup3\n        /* \"#utility.yul\":18566:18567   */\n      dup2\n        /* \"#utility.yul\":18563:18577   */\n      lt\n        /* \"#utility.yul\":18555:18762   */\n      iszero\n      tag_412\n      jumpi\n        /* \"#utility.yul\":18648:18657   */\n      dup5\n        /* \"#utility.yul\":18643:18646   */\n      dup10\n        /* \"#utility.yul\":18639:18658   */\n      add\n        /* \"#utility.yul\":18633:18659   */\n      sload\n        /* \"#utility.yul\":18625:18631   */\n      dup3\n        /* \"#utility.yul\":18618:18660   */\n      sstore\n        /* \"#utility.yul\":18699:18700   */\n      0x01\n        /* \"#utility.yul\":18691:18697   */\n      dup3\n        /* \"#utility.yul\":18687:18701   */\n      add\n        /* \"#utility.yul\":18677:18701   */\n      swap2\n      pop\n        /* \"#utility.yul\":18746:18747   */\n      0x01\n        /* \"#utility.yul\":18735:18744   */\n      dup6\n        /* \"#utility.yul\":18731:18748   */\n      add\n        /* \"#utility.yul\":18718:18748   */\n      swap5\n      pop\n        /* \"#utility.yul\":18592:18596   */\n      0x20\n        /* \"#utility.yul\":18589:18590   */\n      dup2\n        /* \"#utility.yul\":18585:18597   */\n      add\n        /* \"#utility.yul\":18580:18597   */\n      swap1\n      pop\n        /* \"#utility.yul\":18555:18762   */\n      jump(tag_410)\n    tag_412:\n        /* \"#utility.yul\":18790:18796   */\n      dup7\n        /* \"#utility.yul\":18781:18788   */\n      dup4\n        /* \"#utility.yul\":18778:18797   */\n      lt\n        /* \"#utility.yul\":18775:18954   */\n      iszero\n      tag_413\n      jumpi\n        /* \"#utility.yul\":18848:18857   */\n      dup5\n        /* \"#utility.yul\":18843:18846   */\n      dup10\n        /* \"#utility.yul\":18839:18858   */\n      add\n        /* \"#utility.yul\":18833:18859   */\n      sload\n        /* \"#utility.yul\":18891:18939   */\n      tag_414\n        /* \"#utility.yul\":18933:18937   */\n      0x1f\n        /* \"#utility.yul\":18925:18931   */\n      dup10\n        /* \"#utility.yul\":18921:18938   */\n      and\n        /* \"#utility.yul\":18910:18919   */\n      dup3\n        /* \"#utility.yul\":18891:18939   */\n      tag_216\n      jump\t// in\n    tag_414:\n        /* \"#utility.yul\":18883:18889   */\n      dup4\n        /* \"#utility.yul\":18876:18940   */\n      sstore\n        /* \"#utility.yul\":18798:18954   */\n      pop\n        /* \"#utility.yul\":18775:18954   */\n    tag_413:\n        /* \"#utility.yul\":19000:19001   */\n      0x01\n        /* \"#utility.yul\":18996:18997   */\n      0x02\n        /* \"#utility.yul\":18988:18994   */\n      dup9\n        /* \"#utility.yul\":18984:18998   */\n      mul\n        /* \"#utility.yul\":18980:19002   */\n      add\n        /* \"#utility.yul\":18974:18978   */\n      dup9\n        /* \"#utility.yul\":18967:19003   */\n      sstore\n        /* \"#utility.yul\":18348:19013   */\n      pop\n      pop\n      pop\n        /* \"#utility.yul\":18311:19252   */\n    tag_404:\n      pop\n        /* \"#utility.yul\":17896:19258   */\n      pop\n      pop\n      pop\n        /* \"#utility.yul\":17807:19258   */\n      pop\n      pop\n    tag_397:\n      jump\t// out\n        /* \"#utility.yul\":19264:19444   */\n    tag_123:\n        /* \"#utility.yul\":19312:19389   */\n      0x4e487b7100000000000000000000000000000000000000000000000000000000\n        /* \"#utility.yul\":19309:19310   */\n      0x00\n        /* \"#utility.yul\":19302:19390   */\n      mstore\n        /* \"#utility.yul\":19409:19413   */\n      0x31\n        /* \"#utility.yul\":19406:19407   */\n      0x04\n        /* \"#utility.yul\":19399:19414   */\n      mstore\n        /* \"#utility.yul\":19433:19437   */\n      0x24\n        /* \"#utility.yul\":19430:19431   */\n      0x00\n        /* \"#utility.yul\":19423:19438   */\n      revert\n        /* \"#utility.yul\":19450:19630   */\n    tag_218:\n        /* \"#utility.yul\":19590:19622   */\n      0x416d6f756e74206d757374206265206772656174657220746861746e20300000\n        /* \"#utility.yul\":19586:19587   */\n      0x00\n        /* \"#utility.yul\":19578:19584   */\n      dup3\n        /* \"#utility.yul\":19574:19588   */\n      add\n        /* \"#utility.yul\":19567:19623   */\n      mstore\n        /* \"#utility.yul\":19450:19630   */\n      pop\n      jump\t// out\n        /* \"#utility.yul\":19636:20002   */\n    tag_219:\n        /* \"#utility.yul\":19778:19781   */\n      0x00\n        /* \"#utility.yul\":19799:19866   */\n      tag_418\n        /* \"#utility.yul\":19863:19865   */\n      0x1e\n        /* \"#utility.yul\":19858:19861   */\n      dup4\n        /* \"#utility.yul\":19799:19866   */\n      tag_169\n      jump\t// in\n    tag_418:\n        /* \"#utility.yul\":19792:19866   */\n      swap2\n      pop\n        /* \"#utility.yul\":19875:19968   */\n      tag_419\n        /* \"#utility.yul\":19964:19967   */\n      dup3\n        /* \"#utility.yul\":19875:19968   */\n      tag_218\n      jump\t// in\n    tag_419:\n        /* \"#utility.yul\":19993:19995   */\n      0x20\n        /* \"#utility.yul\":19988:19991   */\n      dup3\n        /* \"#utility.yul\":19984:19996   */\n      add\n        /* \"#utility.yul\":19977:19996   */\n      swap1\n      pop\n        /* \"#utility.yul\":19636:20002   */\n      swap2\n      swap1\n      pop\n      jump\t// out\n        /* \"#utility.yul\":20008:20427   */\n    tag_133:\n        /* \"#utility.yul\":20174:20178   */\n      0x00\n        /* \"#utility.yul\":20212:20214   */\n      0x20\n        /* \"#utility.yul\":20201:20210   */\n      dup3\n        /* \"#utility.yul\":20197:20215   */\n      add\n        /* \"#utility.yul\":20189:20215   */\n      swap1\n      pop\n        /* \"#utility.yul\":20261:20270   */\n      dup2\n        /* \"#utility.yul\":20255:20259   */\n      dup2\n        /* \"#utility.yul\":20251:20271   */\n      sub\n        /* \"#utility.yul\":20247:20248   */\n      0x00\n        /* \"#utility.yul\":20236:20245   */\n      dup4\n        /* \"#utility.yul\":20232:20249   */\n      add\n        /* \"#utility.yul\":20225:20272   */\n      mstore\n        /* \"#utility.yul\":20289:20420   */\n      tag_421\n        /* \"#utility.yul\":20415:20419   */\n      dup2\n        /* \"#utility.yul\":20289:20420   */\n      tag_219\n      jump\t// in\n    tag_421:\n        /* \"#utility.yul\":20281:20420   */\n      swap1\n      pop\n        /* \"#utility.yul\":20008:20427   */\n      swap2\n      swap1\n      pop\n      jump\t// out\n        /* \"#utility.yul\":20433:21828   */\n    tag_136:\n        /* \"#utility.yul\":20550:20587   */\n      tag_423\n        /* \"#utility.yul\":20583:20586   */\n      dup3\n        /* \"#utility.yul\":20550:20587   */\n      tag_168\n      jump\t// in\n    tag_423:\n        /* \"#utility.yul\":20652:20670   */\n      0xffffffffffffffff\n        /* \"#utility.yul\":20644:20650   */\n      dup2\n        /* \"#utility.yul\":20641:20671   */\n      gt\n        /* \"#utility.yul\":20638:20694   */\n      iszero\n      tag_424\n      jumpi\n        /* \"#utility.yul\":20674:20692   */\n      tag_425\n      tag_179\n      jump\t// in\n    tag_425:\n        /* \"#utility.yul\":20638:20694   */\n    tag_424:\n        /* \"#utility.yul\":20718:20756   */\n      tag_426\n        /* \"#utility.yul\":20750:20754   */\n      dup3\n        /* \"#utility.yul\":20744:20755   */\n      sload\n        /* \"#utility.yul\":20718:20756   */\n      tag_71\n      jump\t// in\n    tag_426:\n        /* \"#utility.yul\":20803:20870   */\n      tag_427\n        /* \"#utility.yul\":20863:20869   */\n      dup3\n        /* \"#utility.yul\":20855:20861   */\n      dup3\n        /* \"#utility.yul\":20849:20853   */\n      dup6\n        /* \"#utility.yul\":20803:20870   */\n      tag_214\n      jump\t// in\n    tag_427:\n        /* \"#utility.yul\":20897:20898   */\n      0x00\n        /* \"#utility.yul\":20921:20925   */\n      0x20\n        /* \"#utility.yul\":20908:20925   */\n      swap1\n      pop\n        /* \"#utility.yul\":20953:20955   */\n      0x1f\n        /* \"#utility.yul\":20945:20951   */\n      dup4\n        /* \"#utility.yul\":20942:20956   */\n      gt\n        /* \"#utility.yul\":20970:20971   */\n      0x01\n        /* \"#utility.yul\":20965:21583   */\n      dup2\n      eq\n      tag_429\n      jumpi\n        /* \"#utility.yul\":21627:21628   */\n      0x00\n        /* \"#utility.yul\":21644:21650   */\n      dup5\n        /* \"#utility.yul\":21641:21718   */\n      iszero\n      tag_430\n      jumpi\n        /* \"#utility.yul\":21693:21702   */\n      dup3\n        /* \"#utility.yul\":21688:21691   */\n      dup8\n        /* \"#utility.yul\":21684:21703   */\n      add\n        /* \"#utility.yul\":21678:21704   */\n      mload\n        /* \"#utility.yul\":21669:21704   */\n      swap1\n      pop\n        /* \"#utility.yul\":21641:21718   */\n    tag_430:\n        /* \"#utility.yul\":21744:21811   */\n      tag_431\n        /* \"#utility.yul\":21804:21810   */\n      dup6\n        /* \"#utility.yul\":21797:21802   */\n      dup3\n        /* \"#utility.yul\":21744:21811   */\n      tag_217\n      jump\t// in\n    tag_431:\n        /* \"#utility.yul\":21738:21742   */\n      dup7\n        /* \"#utility.yul\":21731:21812   */\n      sstore\n        /* \"#utility.yul\":21600:21822   */\n      pop\n        /* \"#utility.yul\":20935:21822   */\n      jump(tag_428)\n        /* \"#utility.yul\":20965:21583   */\n    tag_429:\n        /* \"#utility.yul\":21017:21021   */\n      0x1f\n        /* \"#utility.yul\":21013:21022   */\n      not\n        /* \"#utility.yul\":21005:21011   */\n      dup5\n        /* \"#utility.yul\":21001:21023   */\n      and\n        /* \"#utility.yul\":21051:21088   */\n      tag_432\n        /* \"#utility.yul\":21083:21087   */\n      dup7\n        /* \"#utility.yul\":21051:21088   */\n      tag_196\n      jump\t// in\n    tag_432:\n        /* \"#utility.yul\":21110:21111   */\n      0x00\n        /* \"#utility.yul\":21124:21332   */\n    tag_433:\n        /* \"#utility.yul\":21138:21145   */\n      dup3\n        /* \"#utility.yul\":21135:21136   */\n      dup2\n        /* \"#utility.yul\":21132:21146   */\n      lt\n        /* \"#utility.yul\":21124:21332   */\n      iszero\n      tag_435\n      jumpi\n        /* \"#utility.yul\":21217:21226   */\n      dup5\n        /* \"#utility.yul\":21212:21215   */\n      dup10\n        /* \"#utility.yul\":21208:21227   */\n      add\n        /* \"#utility.yul\":21202:21228   */\n      mload\n        /* \"#utility.yul\":21194:21200   */\n      dup3\n        /* \"#utility.yul\":21187:21229   */\n      sstore\n        /* \"#utility.yul\":21268:21269   */\n      0x01\n        /* \"#utility.yul\":21260:21266   */\n      dup3\n        /* \"#utility.yul\":21256:21270   */\n      add\n        /* \"#utility.yul\":21246:21270   */\n      swap2\n      pop\n        /* \"#utility.yul\":21315:21317   */\n      0x20\n        /* \"#utility.yul\":21304:21313   */\n      dup6\n        /* \"#utility.yul\":21300:21318   */\n      add\n        /* \"#utility.yul\":21287:21318   */\n      swap5\n      pop\n        /* \"#utility.yul\":21161:21165   */\n      0x20\n        /* \"#utility.yul\":21158:21159   */\n      dup2\n        /* \"#utility.yul\":21154:21166   */\n      add\n        /* \"#utility.yul\":21149:21166   */\n      swap1\n      pop\n        /* \"#utility.yul\":21124:21332   */\n      jump(tag_433)\n    tag_435:\n        /* \"#utility.yul\":21360:21366   */\n      dup7\n        /* \"#utility.yul\":21351:21358   */\n      dup4\n        /* \"#utility.yul\":21348:21367   */\n      lt\n        /* \"#utility.yul\":21345:21524   */\n      iszero\n      tag_436\n      jumpi\n        /* \"#utility.yul\":21418:21427   */\n      dup5\n        /* \"#utility.yul\":21413:21416   */\n      dup10\n        /* \"#utility.yul\":21409:21428   */\n      add\n        /* \"#utility.yul\":21403:21429   */\n      mload\n        /* \"#utility.yul\":21461:21509   */\n      tag_437\n        /* \"#utility.yul\":21503:21507   */\n      0x1f\n        /* \"#utility.yul\":21495:21501   */\n      dup10\n        /* \"#utility.yul\":21491:21508   */\n      and\n        /* \"#utility.yul\":21480:21489   */\n      dup3\n        /* \"#utility.yul\":21461:21509   */\n      tag_216\n      jump\t// in\n    tag_437:\n        /* \"#utility.yul\":21453:21459   */\n      dup4\n        /* \"#utility.yul\":21446:21510   */\n      sstore\n        /* \"#utility.yul\":21368:21524   */\n      pop\n        /* \"#utility.yul\":21345:21524   */\n    tag_436:\n        /* \"#utility.yul\":21570:21571   */\n      0x01\n        /* \"#utility.yul\":21566:21567   */\n      0x02\n        /* \"#utility.yul\":21558:21564   */\n      dup9\n        /* \"#utility.yul\":21554:21568   */\n      mul\n        /* \"#utility.yul\":21550:21572   */\n      add\n        /* \"#utility.yul\":21544:21548   */\n      dup9\n        /* \"#utility.yul\":21537:21573   */\n      sstore\n        /* \"#utility.yul\":20972:21583   */\n      pop\n      pop\n      pop\n        /* \"#utility.yul\":20935:21822   */\n    tag_428:\n      pop\n        /* \"#utility.yul\":20525:21828   */\n      pop\n      pop\n      pop\n        /* \"#utility.yul\":20433:21828   */\n      pop\n      pop\n      jump\t// out\n        /* \"#utility.yul\":21834:22002   */\n    tag_220:\n        /* \"#utility.yul\":21974:21994   */\n      0x43616d706169676e2068617320656e6465640000000000000000000000000000\n        /* \"#utility.yul\":21970:21971   */\n      0x00\n        /* \"#utility.yul\":21962:21968   */\n      dup3\n        /* \"#utility.yul\":21958:21972   */\n      add\n        /* \"#utility.yul\":21951:21995   */\n      mstore\n        /* \"#utility.yul\":21834:22002   */\n      pop\n      jump\t// out\n        /* \"#utility.yul\":22008:22374   */\n    tag_221:\n        /* \"#utility.yul\":22150:22153   */\n      0x00\n        /* \"#utility.yul\":22171:22238   */\n      tag_440\n        /* \"#utility.yul\":22235:22237   */\n      0x12\n        /* \"#utility.yul\":22230:22233   */\n      dup4\n        /* \"#utility.yul\":22171:22238   */\n      tag_169\n      jump\t// in\n    tag_440:\n        /* \"#utility.yul\":22164:22238   */\n      swap2\n      pop\n        /* \"#utility.yul\":22247:22340   */\n      tag_441\n        /* \"#utility.yul\":22336:22339   */\n      dup3\n        /* \"#utility.yul\":22247:22340   */\n      tag_220\n      jump\t// in\n    tag_441:\n        /* \"#utility.yul\":22365:22367   */\n      0x20\n        /* \"#utility.yul\":22360:22363   */\n      dup3\n        /* \"#utility.yul\":22356:22368   */\n      add\n        /* \"#utility.yul\":22349:22368   */\n      swap1\n      pop\n        /* \"#utility.yul\":22008:22374   */\n      swap2\n      swap1\n      pop\n      jump\t// out\n        /* \"#utility.yul\":22380:22799   */\n    tag_140:\n        /* \"#utility.yul\":22546:22550   */\n      0x00\n        /* \"#utility.yul\":22584:22586   */\n      0x20\n        /* \"#utility.yul\":22573:22582   */\n      dup3\n        /* \"#utility.yul\":22569:22587   */\n      add\n        /* \"#utility.yul\":22561:22587   */\n      swap1\n      pop\n        /* \"#utility.yul\":22633:22642   */\n      dup2\n        /* \"#utility.yul\":22627:22631   */\n      dup2\n        /* \"#utility.yul\":22623:22643   */\n      sub\n        /* \"#utility.yul\":22619:22620   */\n      0x00\n        /* \"#utility.yul\":22608:22617   */\n      dup4\n        /* \"#utility.yul\":22604:22621   */\n      add\n        /* \"#utility.yul\":22597:22644   */\n      mstore\n        /* \"#utility.yul\":22661:22792   */\n      tag_443\n        /* \"#utility.yul\":22787:22791   */\n      dup2\n        /* \"#utility.yul\":22661:22792   */\n      tag_221\n      jump\t// in\n    tag_443:\n        /* \"#utility.yul\":22653:22792   */\n      swap1\n      pop\n        /* \"#utility.yul\":22380:22799   */\n      swap2\n      swap1\n      pop\n      jump\t// out\n        /* \"#utility.yul\":22805:22967   */\n    tag_222:\n        /* \"#utility.yul\":22945:22959   */\n      0x496e76616c696420746965720000000000000000000000000000000000000000\n        /* \"#utility.yul\":22941:22942   */\n      0x00\n        /* \"#utility.yul\":22933:22939   */\n      dup3\n        /* \"#utility.yul\":22929:22943   */\n      add\n        /* \"#utility.yul\":22922:22960   */\n      mstore\n        /* \"#utility.yul\":22805:22967   */\n      pop\n      jump\t// out\n        /* \"#utility.yul\":22973:23339   */\n    tag_223:\n        /* \"#utility.yul\":23115:23118   */\n      0x00\n        /* \"#utility.yul\":23136:23203   */\n      tag_446\n        /* \"#utility.yul\":23200:23202   */\n      0x0c\n        /* \"#utility.yul\":23195:23198   */\n      dup4\n        /* \"#utility.yul\":23136:23203   */\n      tag_169\n      jump\t// in\n    tag_446:\n        /* \"#utility.yul\":23129:23203   */\n      swap2\n      pop\n        /* \"#utility.yul\":23212:23305   */\n      tag_447\n        /* \"#utility.yul\":23301:23304   */\n      dup3\n        /* \"#utility.yul\":23212:23305   */\n      tag_222\n      jump\t// in\n    tag_447:\n        /* \"#utility.yul\":23330:23332   */\n      0x20\n        /* \"#utility.yul\":23325:23328   */\n      dup3\n        /* \"#utility.yul\":23321:23333   */\n      add\n        /* \"#utility.yul\":23314:23333   */\n      swap1\n      pop\n        /* \"#utility.yul\":22973:23339   */\n      swap2\n      swap1\n      pop\n      jump\t// out\n        /* \"#utility.yul\":23345:23764   */\n    tag_143:\n        /* \"#utility.yul\":23511:23515   */\n      0x00\n        /* \"#utility.yul\":23549:23551   */\n      0x20\n        /* \"#utility.yul\":23538:23547   */\n      dup3\n        /* \"#utility.yul\":23534:23552   */\n      add\n        /* \"#utility.yul\":23526:23552   */\n      swap1\n      pop\n        /* \"#utility.yul\":23598:23607   */\n      dup2\n        /* \"#utility.yul\":23592:23596   */\n      dup2\n        /* \"#utility.yul\":23588:23608   */\n      sub\n        /* \"#utility.yul\":23584:23585   */\n      0x00\n        /* \"#utility.yul\":23573:23582   */\n      dup4\n        /* \"#utility.yul\":23569:23586   */\n      add\n        /* \"#utility.yul\":23562:23609   */\n      mstore\n        /* \"#utility.yul\":23626:23757   */\n      tag_449\n        /* \"#utility.yul\":23752:23756   */\n      dup2\n        /* \"#utility.yul\":23626:23757   */\n      tag_223\n      jump\t// in\n    tag_449:\n        /* \"#utility.yul\":23618:23757   */\n      swap1\n      pop\n        /* \"#utility.yul\":23345:23764   */\n      swap2\n      swap1\n      pop\n      jump\t// out\n        /* \"#utility.yul\":23770:23936   */\n    tag_224:\n        /* \"#utility.yul\":23910:23928   */\n      0x496e636f727265637420616d6f756e7400000000000000000000000000000000\n        /* \"#utility.yul\":23906:23907   */\n      0x00\n        /* \"#utility.yul\":23898:23904   */\n      dup3\n        /* \"#utility.yul\":23894:23908   */\n      add\n        /* \"#utility.yul\":23887:23929   */\n      mstore\n        /* \"#utility.yul\":23770:23936   */\n      pop\n      jump\t// out\n        /* \"#utility.yul\":23942:24308   */\n    tag_225:\n        /* \"#utility.yul\":24084:24087   */\n      0x00\n        /* \"#utility.yul\":24105:24172   */\n      tag_452\n        /* \"#utility.yul\":24169:24171   */\n      0x10\n        /* \"#utility.yul\":24164:24167   */\n      dup4\n        /* \"#utility.yul\":24105:24172   */\n      tag_169\n      jump\t// in\n    tag_452:\n        /* \"#utility.yul\":24098:24172   */\n      swap2\n      pop\n        /* \"#utility.yul\":24181:24274   */\n      tag_453\n        /* \"#utility.yul\":24270:24273   */\n      dup3\n        /* \"#utility.yul\":24181:24274   */\n      tag_224\n      jump\t// in\n    tag_453:\n        /* \"#utility.yul\":24299:24301   */\n      0x20\n        /* \"#utility.yul\":24294:24297   */\n      dup3\n        /* \"#utility.yul\":24290:24302   */\n      add\n        /* \"#utility.yul\":24283:24302   */\n      swap1\n      pop\n        /* \"#utility.yul\":23942:24308   */\n      swap2\n      swap1\n      pop\n      jump\t// out\n        /* \"#utility.yul\":24314:24733   */\n    tag_149:\n        /* \"#utility.yul\":24480:24484   */\n      0x00\n        /* \"#utility.yul\":24518:24520   */\n      0x20\n        /* \"#utility.yul\":24507:24516   */\n      dup3\n        /* \"#utility.yul\":24503:24521   */\n      add\n        /* \"#utility.yul\":24495:24521   */\n      swap1\n      pop\n        /* \"#utility.yul\":24567:24576   */\n      dup2\n        /* \"#utility.yul\":24561:24565   */\n      dup2\n        /* \"#utility.yul\":24557:24577   */\n      sub\n        /* \"#utility.yul\":24553:24554   */\n      0x00\n        /* \"#utility.yul\":24542:24551   */\n      dup4\n        /* \"#utility.yul\":24538:24555   */\n      add\n        /* \"#utility.yul\":24531:24578   */\n      mstore\n        /* \"#utility.yul\":24595:24726   */\n      tag_455\n        /* \"#utility.yul\":24721:24725   */\n      dup2\n        /* \"#utility.yul\":24595:24726   */\n      tag_225\n      jump\t// in\n    tag_455:\n        /* \"#utility.yul\":24587:24726   */\n      swap1\n      pop\n        /* \"#utility.yul\":24314:24733   */\n      swap2\n      swap1\n      pop\n      jump\t// out\n        /* \"#utility.yul\":24739:24972   */\n    tag_154:\n        /* \"#utility.yul\":24778:24781   */\n      0x00\n        /* \"#utility.yul\":24801:24825   */\n      tag_457\n        /* \"#utility.yul\":24819:24824   */\n      dup3\n        /* \"#utility.yul\":24801:24825   */\n      tag_165\n      jump\t// in\n    tag_457:\n        /* \"#utility.yul\":24792:24825   */\n      swap2\n      pop\n        /* \"#utility.yul\":24847:24913   */\n      0xffffffffffffffffffffffffffffffffffffffffffffffffffffffffffffffff\n        /* \"#utility.yul\":24840:24845   */\n      dup3\n        /* \"#utility.yul\":24837:24914   */\n      sub\n        /* \"#utility.yul\":24834:24937   */\n      tag_458\n      jumpi\n        /* \"#utility.yul\":24917:24935   */\n      tag_459\n      tag_202\n      jump\t// in\n    tag_459:\n        /* \"#utility.yul\":24834:24937   */\n    tag_458:\n        /* \"#utility.yul\":24964:24965   */\n      0x01\n        /* \"#utility.yul\":24957:24962   */\n      dup3\n        /* \"#utility.yul\":24953:24966   */\n      add\n        /* \"#utility.yul\":24946:24966   */\n      swap1\n      pop\n        /* \"#utility.yul\":24739:24972   */\n      swap2\n      swap1\n      pop\n      jump\t// out\n\n    auxdata: 0xa26469706673582212206bece7c96eb32a54d660742ddb391a22bf0ae4567d316a9022cea8a8208304f364736f6c634300081a0033\n}\n",
				"bytecode": {
					"linkReferences": {},
					"object": "608060405234801561000f575f80fd5b50604051611df9380380611df983398181016040528101906100319190610240565b835f908161003f91906104e0565b50826001908161004f91906104e0565b5081600281905550620151808161006691906105dc565b42610071919061061d565b6003819055503360045f6101000a81548173ffffffffffffffffffffffffffffffffffffffff021916908373ffffffffffffffffffffffffffffffffffffffff16021790555050505050610650565b5f604051905090565b5f80fd5b5f80fd5b5f80fd5b5f80fd5b5f601f19601f8301169050919050565b7f4e487b71000000000000000000000000000000000000000000000000000000005f52604160045260245ffd5b61011f826100d9565b810181811067ffffffffffffffff8211171561013e5761013d6100e9565b5b80604052505050565b5f6101506100c0565b905061015c8282610116565b919050565b5f67ffffffffffffffff82111561017b5761017a6100e9565b5b610184826100d9565b9050602081019050919050565b8281835e5f83830152505050565b5f6101b16101ac84610161565b610147565b9050828152602081018484840111156101cd576101cc6100d5565b5b6101d8848285610191565b509392505050565b5f82601f8301126101f4576101f36100d1565b5b815161020484826020860161019f565b91505092915050565b5f819050919050565b61021f8161020d565b8114610229575f80fd5b50565b5f8151905061023a81610216565b92915050565b5f805f8060808587031215610258576102576100c9565b5b5f85015167ffffffffffffffff811115610275576102746100cd565b5b610281878288016101e0565b945050602085015167ffffffffffffffff8111156102a2576102a16100cd565b5b6102ae878288016101e0565b93505060406102bf8782880161022c565b92505060606102d08782880161022c565b91505092959194509250565b5f81519050919050565b7f4e487b71000000000000000000000000000000000000000000000000000000005f52602260045260245ffd5b5f600282049050600182168061032a57607f821691505b60208210810361033d5761033c6102e6565b5b50919050565b5f819050815f5260205f209050919050565b5f6020601f8301049050919050565b5f82821b905092915050565b5f6008830261039f7fffffffffffffffffffffffffffffffffffffffffffffffffffffffffffffffff82610364565b6103a98683610364565b95508019841693508086168417925050509392505050565b5f819050919050565b5f6103e46103df6103da8461020d565b6103c1565b61020d565b9050919050565b5f819050919050565b6103fd836103ca565b610411610409826103eb565b848454610370565b825550505050565b5f90565b610425610419565b6104308184846103f4565b505050565b5b81811015610453576104485f8261041d565b600181019050610436565b5050565b601f8211156104985761046981610343565b61047284610355565b81016020851015610481578190505b61049561048d85610355565b830182610435565b50505b505050565b5f82821c905092915050565b5f6104b85f198460080261049d565b1980831691505092915050565b5f6104d083836104a9565b9150826002028217905092915050565b6104e9826102dc565b67ffffffffffffffff811115610502576105016100e9565b5b61050c8254610313565b610517828285610457565b5f60209050601f831160018114610548575f8415610536578287015190505b61054085826104c5565b8655506105a7565b601f19841661055686610343565b5f5b8281101561057d57848901518255600182019150602085019450602081019050610558565b8683101561059a5784890151610596601f8916826104a9565b8355505b6001600288020188555050505b505050505050565b7f4e487b71000000000000000000000000000000000000000000000000000000005f52601160045260245ffd5b5f6105e68261020d565b91506105f18361020d565b92508282026105ff8161020d565b91508282048414831517610616576106156105af565b5b5092915050565b5f6106278261020d565b91506106328361020d565b925082820190508082111561064a576106496105af565b5b92915050565b61179c8061065d5f395ff3fe6080604052600436106100a6575f3560e01c80636f9fb98a116100635780636f9fb98a146101a65780637284e416146101d05780637497211b146101fa5780638da5cb5b146102225780638ece7b911461024c578063ca1d209d14610274576100a6565b8063039af9eb146100aa57806306fdde03146100e857806329dcb0cf146101125780633ccfd60b1461013c57806340193883146101525780635a9b0b891461017c575b5f80fd5b3480156100b5575f80fd5b506100d060048036038101906100cb9190610ae8565b610290565b6040516100df93929190610b92565b60405180910390f35b3480156100f3575f80fd5b506100fc61034b565b6040516101099190610bce565b60405180910390f35b34801561011d575f80fd5b506101266103d6565b6040516101339190610bee565b60405180910390f35b348015610147575f80fd5b506101506103dc565b005b34801561015d575f80fd5b5061016661055e565b6040516101739190610bee565b60405180910390f35b348015610187575f80fd5b50610190610564565b60405161019d9190610bce565b60405180910390f35b3480156101b1575f80fd5b506101ba61058e565b6040516101c79190610bee565b60405180910390f35b3480156101db575f80fd5b506101e4610595565b6040516101f19190610bce565b60405180910390f35b348015610205575f80fd5b50610220600480360381019061021b9190610ae8565b610621565b005b34801561022d575f80fd5b506102366107ba565b6040516102439190610c46565b60405180910390f35b348015610257575f80fd5b50610272600480360381019061026d9190610d8b565b6107df565b005b61028e60048036038101906102899190610ae8565b610921565b005b6005818154811061029f575f80fd5b905f5260205f2090600302015f91509050805f0180546102be90610e12565b80601f01602080910402602001604051908101604052809291908181526020018280546102ea90610e12565b80156103355780601f1061030c57610100808354040283529160200191610335565b820191905f5260205f20905b81548152906001019060200180831161031857829003601f168201915b5050505050908060010154908060020154905083565b5f805461035790610e12565b80601f016020809104026020016040519081016040528092919081815260200182805461038390610e12565b80156103ce5780601f106103a5576101008083540402835291602001916103ce565b820191905f5260205f20905b8154815290600101906020018083116103b157829003601f168201915b505050505081565b60035481565b60045f9054906101000a900473ffffffffffffffffffffffffffffffffffffffff1673ffffffffffffffffffffffffffffffffffffffff163373ffffffffffffffffffffffffffffffffffffffff161461046b576040517f08c379a000000000000000000000000000000000000000000000000000000000815260040161046290610eb2565b60405180910390fd5b6002544710156104b0576040517f08c379a00000000000000000000000000000000000000000000000000000000081526004016104a790610f1a565b60405180910390fd5b5f4790505f81116104f6576040517f08c379a00000000000000000000000000000000000000000000000000000000081526004016104ed90610f82565b60405180910390fd5b60045f9054906101000a900473ffffffffffffffffffffffffffffffffffffffff1673ffffffffffffffffffffffffffffffffffffffff166108fc8290811502906040515f60405180830381858888f1935050505015801561055a573d5f803e3d5ffd5b5050565b60025481565b60605f600160405160200161057a9291906110d0565b604051602081830303815290604052905090565b5f47905090565b600180546105a290610e12565b80601f01602080910402602001604051908101604052809291908181526020018280546105ce90610e12565b80156106195780601f106105f057610100808354040283529160200191610619565b820191905f5260205f20905b8154815290600101906020018083116105fc57829003601f168201915b505050505081565b60045f9054906101000a900473ffffffffffffffffffffffffffffffffffffffff1673ffffffffffffffffffffffffffffffffffffffff163373ffffffffffffffffffffffffffffffffffffffff16146106b0576040517f08c379a00000000000000000000000000000000000000000000000000000000081526004016106a790610eb2565b60405180910390fd5b60058054905081106106f7576040517f08c379a00000000000000000000000000000000000000000000000000000000081526004016106ee90611153565b60405180910390fd5b6005600160058054905061070b919061119e565b8154811061071c5761071b6111d1565b5b905f5260205f2090600302016005828154811061073c5761073b6111d1565b5b905f5260205f2090600302015f8201815f01908161075a919061139e565b506001820154816001015560028201548160020155905050600580548061078457610783611483565b5b600190038181905f5260205f2090600302015f8082015f6107a59190610a4c565b600182015f9055600282015f90555050905550565b60045f9054906101000a900473ffffffffffffffffffffffffffffffffffffffff1681565b60045f9054906101000a900473ffffffffffffffffffffffffffffffffffffffff1673ffffffffffffffffffffffffffffffffffffffff163373ffffffffffffffffffffffffffffffffffffffff161461086e576040517f08c379a000000000000000000000000000000000000000000000000000000000815260040161086590610eb2565b60405180910390fd5b5f81116108b0576040517f08c379a00000000000000000000000000000000000000000000000000000000081526004016108a7906114fa565b60405180910390fd5b600560405180606001604052808481526020018381526020015f815250908060018154018082558091505060019003905f5260205f2090600302015f909190919091505f820151815f0190816109069190611518565b50602082015181600101556040820151816002015550505050565b6003544210610965576040517f08c379a000000000000000000000000000000000000000000000000000000000815260040161095c90611631565b60405180910390fd5b60058054905081106109ac576040517f08c379a00000000000000000000000000000000000000000000000000000000081526004016109a390611699565b60405180910390fd5b600581815481106109c0576109bf6111d1565b5b905f5260205f209060030201600101543414610a11576040517f08c379a0000000000000000000000000000000000000000000000000000000008152600401610a0890611701565b60405180910390fd5b60058181548110610a2557610a246111d1565b5b905f5260205f2090600302016002015f815480929190610a449061171f565b919050555050565b508054610a5890610e12565b5f825580601f10610a695750610a86565b601f0160209004905f5260205f2090810190610a859190610a89565b5b50565b5b80821115610aa0575f815f905550600101610a8a565b5090565b5f604051905090565b5f80fd5b5f80fd5b5f819050919050565b610ac781610ab5565b8114610ad1575f80fd5b50565b5f81359050610ae281610abe565b92915050565b5f60208284031215610afd57610afc610aad565b5b5f610b0a84828501610ad4565b91505092915050565b5f81519050919050565b5f82825260208201905092915050565b8281835e5f83830152505050565b5f601f19601f8301169050919050565b5f610b5582610b13565b610b5f8185610b1d565b9350610b6f818560208601610b2d565b610b7881610b3b565b840191505092915050565b610b8c81610ab5565b82525050565b5f6060820190508181035f830152610baa8186610b4b565b9050610bb96020830185610b83565b610bc66040830184610b83565b949350505050565b5f6020820190508181035f830152610be68184610b4b565b905092915050565b5f602082019050610c015f830184610b83565b92915050565b5f73ffffffffffffffffffffffffffffffffffffffff82169050919050565b5f610c3082610c07565b9050919050565b610c4081610c26565b82525050565b5f602082019050610c595f830184610c37565b92915050565b5f80fd5b5f80fd5b7f4e487b71000000000000000000000000000000000000000000000000000000005f52604160045260245ffd5b610c9d82610b3b565b810181811067ffffffffffffffff82111715610cbc57610cbb610c67565b5b80604052505050565b5f610cce610aa4565b9050610cda8282610c94565b919050565b5f67ffffffffffffffff821115610cf957610cf8610c67565b5b610d0282610b3b565b9050602081019050919050565b828183375f83830152505050565b5f610d2f610d2a84610cdf565b610cc5565b905082815260208101848484011115610d4b57610d4a610c63565b5b610d56848285610d0f565b509392505050565b5f82601f830112610d7257610d71610c5f565b5b8135610d82848260208601610d1d565b91505092915050565b5f8060408385031215610da157610da0610aad565b5b5f83013567ffffffffffffffff811115610dbe57610dbd610ab1565b5b610dca85828601610d5e565b9250506020610ddb85828601610ad4565b9150509250929050565b7f4e487b71000000000000000000000000000000000000000000000000000000005f52602260045260245ffd5b5f6002820490506001821680610e2957607f821691505b602082108103610e3c57610e3b610de5565b5b50919050565b7f596f7520617265206e6f7420746865206f776e6572206f66207468697320636f5f8201527f6e74726163740000000000000000000000000000000000000000000000000000602082015250565b5f610e9c602683610b1d565b9150610ea782610e42565b604082019050919050565b5f6020820190508181035f830152610ec981610e90565b9050919050565b7f676f616c20686173206e6f74206265656e2072656163686564000000000000005f82015250565b5f610f04601983610b1d565b9150610f0f82610ed0565b602082019050919050565b5f6020820190508181035f830152610f3181610ef8565b9050919050565b7f4e6f2062616c616e636520746f207769746864726177000000000000000000005f82015250565b5f610f6c601683610b1d565b9150610f7782610f38565b602082019050919050565b5f6020820190508181035f830152610f9981610f60565b9050919050565b5f81905092915050565b7f4e616d653a2000000000000000000000000000000000000000000000000000005f82015250565b5f610fde600683610fa0565b9150610fe982610faa565b600682019050919050565b5f819050815f5260205f209050919050565b5f815461101281610e12565b61101c8186610fa0565b9450600182165f8114611036576001811461104b5761107d565b60ff198316865281151582028601935061107d565b61105485610ff4565b5f5b8381101561107557815481890152600182019150602081019050611056565b838801955050505b50505092915050565b7f204465736372697074696f6e3a200000000000000000000000000000000000005f82015250565b5f6110ba600e83610fa0565b91506110c582611086565b600e82019050919050565b5f6110da82610fd2565b91506110e68285611006565b91506110f1826110ae565b91506110fd8284611006565b91508190509392505050565b7f5469657220646f65736e277420657869737473000000000000000000000000005f82015250565b5f61113d601383610b1d565b915061114882611109565b602082019050919050565b5f6020820190508181035f83015261116a81611131565b9050919050565b7f4e487b71000000000000000000000000000000000000000000000000000000005f52601160045260245ffd5b5f6111a882610ab5565b91506111b383610ab5565b92508282039050818111156111cb576111ca611171565b5b92915050565b7f4e487b71000000000000000000000000000000000000000000000000000000005f52603260045260245ffd5b5f8154905061120c81610e12565b9050919050565b5f6020601f8301049050919050565b5f82821b905092915050565b5f6008830261125d7fffffffffffffffffffffffffffffffffffffffffffffffffffffffffffffffff82611222565b6112678683611222565b95508019841693508086168417925050509392505050565b5f819050919050565b5f6112a261129d61129884610ab5565b61127f565b610ab5565b9050919050565b5f819050919050565b6112bb83611288565b6112cf6112c7826112a9565b84845461122e565b825550505050565b5f90565b6112e36112d7565b6112ee8184846112b2565b505050565b5b81811015611311576113065f826112db565b6001810190506112f4565b5050565b601f8211156113565761132781610ff4565b61133084611213565b8101602085101561133f578190505b61135361134b85611213565b8301826112f3565b50505b505050565b5f82821c905092915050565b5f6113765f198460080261135b565b1980831691505092915050565b5f61138e8383611367565b9150826002028217905092915050565b8181036113ac575050611481565b6113b5826111fe565b67ffffffffffffffff8111156113ce576113cd610c67565b5b6113d88254610e12565b6113e3828285611315565b5f601f831160018114611410575f84156113fe578287015490505b6114088582611383565b86555061147a565b601f19841661141e87610ff4565b965061142986610ff4565b5f5b828110156114505784890154825560018201915060018501945060208101905061142b565b8683101561146d5784890154611469601f891682611367565b8355505b6001600288020188555050505b5050505050505b565b7f4e487b71000000000000000000000000000000000000000000000000000000005f52603160045260245ffd5b7f416d6f756e74206d757374206265206772656174657220746861746e203000005f82015250565b5f6114e4601e83610b1d565b91506114ef826114b0565b602082019050919050565b5f6020820190508181035f830152611511816114d8565b9050919050565b61152182610b13565b67ffffffffffffffff81111561153a57611539610c67565b5b6115448254610e12565b61154f828285611315565b5f60209050601f831160018114611580575f841561156e578287015190505b6115788582611383565b8655506115df565b601f19841661158e86610ff4565b5f5b828110156115b557848901518255600182019150602085019450602081019050611590565b868310156115d257848901516115ce601f891682611367565b8355505b6001600288020188555050505b505050505050565b7f43616d706169676e2068617320656e64656400000000000000000000000000005f82015250565b5f61161b601283610b1d565b9150611626826115e7565b602082019050919050565b5f6020820190508181035f8301526116488161160f565b9050919050565b7f496e76616c6964207469657200000000000000000000000000000000000000005f82015250565b5f611683600c83610b1d565b915061168e8261164f565b602082019050919050565b5f6020820190508181035f8301526116b081611677565b9050919050565b7f496e636f727265637420616d6f756e74000000000000000000000000000000005f82015250565b5f6116eb601083610b1d565b91506116f6826116b7565b602082019050919050565b5f6020820190508181035f830152611718816116df565b9050919050565b5f61172982610ab5565b91507fffffffffffffffffffffffffffffffffffffffffffffffffffffffffffffffff820361175b5761175a611171565b5b60018201905091905056fea26469706673582212206bece7c96eb32a54d660742ddb391a22bf0ae4567d316a9022cea8a8208304f364736f6c634300081a0033",
					"opcodes": "PUSH1 0x80 PUSH1 0x40 MSTORE CALLVALUE DUP1 ISZERO PUSH2 0xF JUMPI PUSH0 DUP1 REVERT JUMPDEST POP PUSH1 0x40 MLOAD PUSH2 0x1DF9 CODESIZE SUB DUP1 PUSH2 0x1DF9 DUP4 CODECOPY DUP2 DUP2 ADD PUSH1 0x40 MSTORE DUP2 ADD SWAP1 PUSH2 0x31 SWAP2 SWAP1 PUSH2 0x240 JUMP JUMPDEST DUP4 PUSH0 SWAP1 DUP2 PUSH2 0x3F SWAP2 SWAP1 PUSH2 0x4E0 JUMP JUMPDEST POP DUP3 PUSH1 0x1 SWAP1 DUP2 PUSH2 0x4F SWAP2 SWAP1 PUSH2 0x4E0 JUMP JUMPDEST POP DUP2 PUSH1 0x2 DUP2 SWAP1 SSTORE POP PUSH3 0x15180 DUP2 PUSH2 0x66 SWAP2 SWAP1 PUSH2 0x5DC JUMP JUMPDEST TIMESTAMP PUSH2 0x71 SWAP2 SWAP1 PUSH2 0x61D JUMP JUMPDEST PUSH1 0x3 DUP2 SWAP1 SSTORE POP CALLER PUSH1 0x4 PUSH0 PUSH2 0x100 EXP DUP2 SLOAD DUP2 PUSH20 0xFFFFFFFFFFFFFFFFFFFFFFFFFFFFFFFFFFFFFFFF MUL NOT AND SWAP1 DUP4 PUSH20 0xFFFFFFFFFFFFFFFFFFFFFFFFFFFFFFFFFFFFFFFF AND MUL OR SWAP1 SSTORE POP POP POP POP POP PUSH2 0x650 JUMP JUMPDEST PUSH0 PUSH1 0x40 MLOAD SWAP1 POP SWAP1 JUMP JUMPDEST PUSH0 DUP1 REVERT JUMPDEST PUSH0 DUP1 REVERT JUMPDEST PUSH0 DUP1 REVERT JUMPDEST PUSH0 DUP1 REVERT JUMPDEST PUSH0 PUSH1 0x1F NOT PUSH1 0x1F DUP4 ADD AND SWAP1 POP SWAP2 SWAP1 POP JUMP JUMPDEST PUSH32 0x4E487B7100000000000000000000000000000000000000000000000000000000 PUSH0 MSTORE PUSH1 0x41 PUSH1 0x4 MSTORE PUSH1 0x24 PUSH0 REVERT JUMPDEST PUSH2 0x11F DUP3 PUSH2 0xD9 JUMP JUMPDEST DUP2 ADD DUP2 DUP2 LT PUSH8 0xFFFFFFFFFFFFFFFF DUP3 GT OR ISZERO PUSH2 0x13E JUMPI PUSH2 0x13D PUSH2 0xE9 JUMP JUMPDEST JUMPDEST DUP1 PUSH1 0x40 MSTORE POP POP POP JUMP JUMPDEST PUSH0 PUSH2 0x150 PUSH2 0xC0 JUMP JUMPDEST SWAP1 POP PUSH2 0x15C DUP3 DUP3 PUSH2 0x116 JUMP JUMPDEST SWAP2 SWAP1 POP JUMP JUMPDEST PUSH0 PUSH8 0xFFFFFFFFFFFFFFFF DUP3 GT ISZERO PUSH2 0x17B JUMPI PUSH2 0x17A PUSH2 0xE9 JUMP JUMPDEST JUMPDEST PUSH2 0x184 DUP3 PUSH2 0xD9 JUMP JUMPDEST SWAP1 POP PUSH1 0x20 DUP2 ADD SWAP1 POP SWAP2 SWAP1 POP JUMP JUMPDEST DUP3 DUP2 DUP4 MCOPY PUSH0 DUP4 DUP4 ADD MSTORE POP POP POP JUMP JUMPDEST PUSH0 PUSH2 0x1B1 PUSH2 0x1AC DUP5 PUSH2 0x161 JUMP JUMPDEST PUSH2 0x147 JUMP JUMPDEST SWAP1 POP DUP3 DUP2 MSTORE PUSH1 0x20 DUP2 ADD DUP5 DUP5 DUP5 ADD GT ISZERO PUSH2 0x1CD JUMPI PUSH2 0x1CC PUSH2 0xD5 JUMP JUMPDEST JUMPDEST PUSH2 0x1D8 DUP5 DUP3 DUP6 PUSH2 0x191 JUMP JUMPDEST POP SWAP4 SWAP3 POP POP POP JUMP JUMPDEST PUSH0 DUP3 PUSH1 0x1F DUP4 ADD SLT PUSH2 0x1F4 JUMPI PUSH2 0x1F3 PUSH2 0xD1 JUMP JUMPDEST JUMPDEST DUP2 MLOAD PUSH2 0x204 DUP5 DUP3 PUSH1 0x20 DUP7 ADD PUSH2 0x19F JUMP JUMPDEST SWAP2 POP POP SWAP3 SWAP2 POP POP JUMP JUMPDEST PUSH0 DUP2 SWAP1 POP SWAP2 SWAP1 POP JUMP JUMPDEST PUSH2 0x21F DUP2 PUSH2 0x20D JUMP JUMPDEST DUP2 EQ PUSH2 0x229 JUMPI PUSH0 DUP1 REVERT JUMPDEST POP JUMP JUMPDEST PUSH0 DUP2 MLOAD SWAP1 POP PUSH2 0x23A DUP2 PUSH2 0x216 JUMP JUMPDEST SWAP3 SWAP2 POP POP JUMP JUMPDEST PUSH0 DUP1 PUSH0 DUP1 PUSH1 0x80 DUP6 DUP8 SUB SLT ISZERO PUSH2 0x258 JUMPI PUSH2 0x257 PUSH2 0xC9 JUMP JUMPDEST JUMPDEST PUSH0 DUP6 ADD MLOAD PUSH8 0xFFFFFFFFFFFFFFFF DUP2 GT ISZERO PUSH2 0x275 JUMPI PUSH2 0x274 PUSH2 0xCD JUMP JUMPDEST JUMPDEST PUSH2 0x281 DUP8 DUP3 DUP9 ADD PUSH2 0x1E0 JUMP JUMPDEST SWAP5 POP POP PUSH1 0x20 DUP6 ADD MLOAD PUSH8 0xFFFFFFFFFFFFFFFF DUP2 GT ISZERO PUSH2 0x2A2 JUMPI PUSH2 0x2A1 PUSH2 0xCD JUMP JUMPDEST JUMPDEST PUSH2 0x2AE DUP8 DUP3 DUP9 ADD PUSH2 0x1E0 JUMP JUMPDEST SWAP4 POP POP PUSH1 0x40 PUSH2 0x2BF DUP8 DUP3 DUP9 ADD PUSH2 0x22C JUMP JUMPDEST SWAP3 POP POP PUSH1 0x60 PUSH2 0x2D0 DUP8 DUP3 DUP9 ADD PUSH2 0x22C JUMP JUMPDEST SWAP2 POP POP SWAP3 SWAP6 SWAP2 SWAP5 POP SWAP3 POP JUMP JUMPDEST PUSH0 DUP2 MLOAD SWAP1 POP SWAP2 SWAP1 POP JUMP JUMPDEST PUSH32 0x4E487B7100000000000000000000000000000000000000000000000000000000 PUSH0 MSTORE PUSH1 0x22 PUSH1 0x4 MSTORE PUSH1 0x24 PUSH0 REVERT JUMPDEST PUSH0 PUSH1 0x2 DUP3 DIV SWAP1 POP PUSH1 0x1 DUP3 AND DUP1 PUSH2 0x32A JUMPI PUSH1 0x7F DUP3 AND SWAP2 POP JUMPDEST PUSH1 0x20 DUP3 LT DUP2 SUB PUSH2 0x33D JUMPI PUSH2 0x33C PUSH2 0x2E6 JUMP JUMPDEST JUMPDEST POP SWAP2 SWAP1 POP JUMP JUMPDEST PUSH0 DUP2 SWAP1 POP DUP2 PUSH0 MSTORE PUSH1 0x20 PUSH0 KECCAK256 SWAP1 POP SWAP2 SWAP1 POP JUMP JUMPDEST PUSH0 PUSH1 0x20 PUSH1 0x1F DUP4 ADD DIV SWAP1 POP SWAP2 SWAP1 POP JUMP JUMPDEST PUSH0 DUP3 DUP3 SHL SWAP1 POP SWAP3 SWAP2 POP POP JUMP JUMPDEST PUSH0 PUSH1 0x8 DUP4 MUL PUSH2 0x39F PUSH32 0xFFFFFFFFFFFFFFFFFFFFFFFFFFFFFFFFFFFFFFFFFFFFFFFFFFFFFFFFFFFFFFFF DUP3 PUSH2 0x364 JUMP JUMPDEST PUSH2 0x3A9 DUP7 DUP4 PUSH2 0x364 JUMP JUMPDEST SWAP6 POP DUP1 NOT DUP5 AND SWAP4 POP DUP1 DUP7 AND DUP5 OR SWAP3 POP POP POP SWAP4 SWAP3 POP POP POP JUMP JUMPDEST PUSH0 DUP2 SWAP1 POP SWAP2 SWAP1 POP JUMP JUMPDEST PUSH0 PUSH2 0x3E4 PUSH2 0x3DF PUSH2 0x3DA DUP5 PUSH2 0x20D JUMP JUMPDEST PUSH2 0x3C1 JUMP JUMPDEST PUSH2 0x20D JUMP JUMPDEST SWAP1 POP SWAP2 SWAP1 POP JUMP JUMPDEST PUSH0 DUP2 SWAP1 POP SWAP2 SWAP1 POP JUMP JUMPDEST PUSH2 0x3FD DUP4 PUSH2 0x3CA JUMP JUMPDEST PUSH2 0x411 PUSH2 0x409 DUP3 PUSH2 0x3EB JUMP JUMPDEST DUP5 DUP5 SLOAD PUSH2 0x370 JUMP JUMPDEST DUP3 SSTORE POP POP POP POP JUMP JUMPDEST PUSH0 SWAP1 JUMP JUMPDEST PUSH2 0x425 PUSH2 0x419 JUMP JUMPDEST PUSH2 0x430 DUP2 DUP5 DUP5 PUSH2 0x3F4 JUMP JUMPDEST POP POP POP JUMP JUMPDEST JUMPDEST DUP2 DUP2 LT ISZERO PUSH2 0x453 JUMPI PUSH2 0x448 PUSH0 DUP3 PUSH2 0x41D JUMP JUMPDEST PUSH1 0x1 DUP2 ADD SWAP1 POP PUSH2 0x436 JUMP JUMPDEST POP POP JUMP JUMPDEST PUSH1 0x1F DUP3 GT ISZERO PUSH2 0x498 JUMPI PUSH2 0x469 DUP2 PUSH2 0x343 JUMP JUMPDEST PUSH2 0x472 DUP5 PUSH2 0x355 JUMP JUMPDEST DUP2 ADD PUSH1 0x20 DUP6 LT ISZERO PUSH2 0x481 JUMPI DUP2 SWAP1 POP JUMPDEST PUSH2 0x495 PUSH2 0x48D DUP6 PUSH2 0x355 JUMP JUMPDEST DUP4 ADD DUP3 PUSH2 0x435 JUMP JUMPDEST POP POP JUMPDEST POP POP POP JUMP JUMPDEST PUSH0 DUP3 DUP3 SHR SWAP1 POP SWAP3 SWAP2 POP POP JUMP JUMPDEST PUSH0 PUSH2 0x4B8 PUSH0 NOT DUP5 PUSH1 0x8 MUL PUSH2 0x49D JUMP JUMPDEST NOT DUP1 DUP4 AND SWAP2 POP POP SWAP3 SWAP2 POP POP JUMP JUMPDEST PUSH0 PUSH2 0x4D0 DUP4 DUP4 PUSH2 0x4A9 JUMP JUMPDEST SWAP2 POP DUP3 PUSH1 0x2 MUL DUP3 OR SWAP1 POP SWAP3 SWAP2 POP POP JUMP JUMPDEST PUSH2 0x4E9 DUP3 PUSH2 0x2DC JUMP JUMPDEST PUSH8 0xFFFFFFFFFFFFFFFF DUP2 GT ISZERO PUSH2 0x502 JUMPI PUSH2 0x501 PUSH2 0xE9 JUMP JUMPDEST JUMPDEST PUSH2 0x50C DUP3 SLOAD PUSH2 0x313 JUMP JUMPDEST PUSH2 0x517 DUP3 DUP3 DUP6 PUSH2 0x457 JUMP JUMPDEST PUSH0 PUSH1 0x20 SWAP1 POP PUSH1 0x1F DUP4 GT PUSH1 0x1 DUP2 EQ PUSH2 0x548 JUMPI PUSH0 DUP5 ISZERO PUSH2 0x536 JUMPI DUP3 DUP8 ADD MLOAD SWAP1 POP JUMPDEST PUSH2 0x540 DUP6 DUP3 PUSH2 0x4C5 JUMP JUMPDEST DUP7 SSTORE POP PUSH2 0x5A7 JUMP JUMPDEST PUSH1 0x1F NOT DUP5 AND PUSH2 0x556 DUP7 PUSH2 0x343 JUMP JUMPDEST PUSH0 JUMPDEST DUP3 DUP2 LT ISZERO PUSH2 0x57D JUMPI DUP5 DUP10 ADD MLOAD DUP3 SSTORE PUSH1 0x1 DUP3 ADD SWAP2 POP PUSH1 0x20 DUP6 ADD SWAP5 POP PUSH1 0x20 DUP2 ADD SWAP1 POP PUSH2 0x558 JUMP JUMPDEST DUP7 DUP4 LT ISZERO PUSH2 0x59A JUMPI DUP5 DUP10 ADD MLOAD PUSH2 0x596 PUSH1 0x1F DUP10 AND DUP3 PUSH2 0x4A9 JUMP JUMPDEST DUP4 SSTORE POP JUMPDEST PUSH1 0x1 PUSH1 0x2 DUP9 MUL ADD DUP9 SSTORE POP POP POP JUMPDEST POP POP POP POP POP POP JUMP JUMPDEST PUSH32 0x4E487B7100000000000000000000000000000000000000000000000000000000 PUSH0 MSTORE PUSH1 0x11 PUSH1 0x4 MSTORE PUSH1 0x24 PUSH0 REVERT JUMPDEST PUSH0 PUSH2 0x5E6 DUP3 PUSH2 0x20D JUMP JUMPDEST SWAP2 POP PUSH2 0x5F1 DUP4 PUSH2 0x20D JUMP JUMPDEST SWAP3 POP DUP3 DUP3 MUL PUSH2 0x5FF DUP2 PUSH2 0x20D JUMP JUMPDEST SWAP2 POP DUP3 DUP3 DIV DUP5 EQ DUP4 ISZERO OR PUSH2 0x616 JUMPI PUSH2 0x615 PUSH2 0x5AF JUMP JUMPDEST JUMPDEST POP SWAP3 SWAP2 POP POP JUMP JUMPDEST PUSH0 PUSH2 0x627 DUP3 PUSH2 0x20D JUMP JUMPDEST SWAP2 POP PUSH2 0x632 DUP4 PUSH2 0x20D JUMP JUMPDEST SWAP3 POP DUP3 DUP3 ADD SWAP1 POP DUP1 DUP3 GT ISZERO PUSH2 0x64A JUMPI PUSH2 0x649 PUSH2 0x5AF JUMP JUMPDEST JUMPDEST SWAP3 SWAP2 POP POP JUMP JUMPDEST PUSH2 0x179C DUP1 PUSH2 0x65D PUSH0 CODECOPY PUSH0 RETURN INVALID PUSH1 0x80 PUSH1 0x40 MSTORE PUSH1 0x4 CALLDATASIZE LT PUSH2 0xA6 JUMPI PUSH0 CALLDATALOAD PUSH1 0xE0 SHR DUP1 PUSH4 0x6F9FB98A GT PUSH2 0x63 JUMPI DUP1 PUSH4 0x6F9FB98A EQ PUSH2 0x1A6 JUMPI DUP1 PUSH4 0x7284E416 EQ PUSH2 0x1D0 JUMPI DUP1 PUSH4 0x7497211B EQ PUSH2 0x1FA JUMPI DUP1 PUSH4 0x8DA5CB5B EQ PUSH2 0x222 JUMPI DUP1 PUSH4 0x8ECE7B91 EQ PUSH2 0x24C JUMPI DUP1 PUSH4 0xCA1D209D EQ PUSH2 0x274 JUMPI PUSH2 0xA6 JUMP JUMPDEST DUP1 PUSH4 0x39AF9EB EQ PUSH2 0xAA JUMPI DUP1 PUSH4 0x6FDDE03 EQ PUSH2 0xE8 JUMPI DUP1 PUSH4 0x29DCB0CF EQ PUSH2 0x112 JUMPI DUP1 PUSH4 0x3CCFD60B EQ PUSH2 0x13C JUMPI DUP1 PUSH4 0x40193883 EQ PUSH2 0x152 JUMPI DUP1 PUSH4 0x5A9B0B89 EQ PUSH2 0x17C JUMPI JUMPDEST PUSH0 DUP1 REVERT JUMPDEST CALLVALUE DUP1 ISZERO PUSH2 0xB5 JUMPI PUSH0 DUP1 REVERT JUMPDEST POP PUSH2 0xD0 PUSH1 0x4 DUP1 CALLDATASIZE SUB DUP2 ADD SWAP1 PUSH2 0xCB SWAP2 SWAP1 PUSH2 0xAE8 JUMP JUMPDEST PUSH2 0x290 JUMP JUMPDEST PUSH1 0x40 MLOAD PUSH2 0xDF SWAP4 SWAP3 SWAP2 SWAP1 PUSH2 0xB92 JUMP JUMPDEST PUSH1 0x40 MLOAD DUP1 SWAP2 SUB SWAP1 RETURN JUMPDEST CALLVALUE DUP1 ISZERO PUSH2 0xF3 JUMPI PUSH0 DUP1 REVERT JUMPDEST POP PUSH2 0xFC PUSH2 0x34B JUMP JUMPDEST PUSH1 0x40 MLOAD PUSH2 0x109 SWAP2 SWAP1 PUSH2 0xBCE JUMP JUMPDEST PUSH1 0x40 MLOAD DUP1 SWAP2 SUB SWAP1 RETURN JUMPDEST CALLVALUE DUP1 ISZERO PUSH2 0x11D JUMPI PUSH0 DUP1 REVERT JUMPDEST POP PUSH2 0x126 PUSH2 0x3D6 JUMP JUMPDEST PUSH1 0x40 MLOAD PUSH2 0x133 SWAP2 SWAP1 PUSH2 0xBEE JUMP JUMPDEST PUSH1 0x40 MLOAD DUP1 SWAP2 SUB SWAP1 RETURN JUMPDEST CALLVALUE DUP1 ISZERO PUSH2 0x147 JUMPI PUSH0 DUP1 REVERT JUMPDEST POP PUSH2 0x150 PUSH2 0x3DC JUMP JUMPDEST STOP JUMPDEST CALLVALUE DUP1 ISZERO PUSH2 0x15D JUMPI PUSH0 DUP1 REVERT JUMPDEST POP PUSH2 0x166 PUSH2 0x55E JUMP JUMPDEST PUSH1 0x40 MLOAD PUSH2 0x173 SWAP2 SWAP1 PUSH2 0xBEE JUMP JUMPDEST PUSH1 0x40 MLOAD DUP1 SWAP2 SUB SWAP1 RETURN JUMPDEST CALLVALUE DUP1 ISZERO PUSH2 0x187 JUMPI PUSH0 DUP1 REVERT JUMPDEST POP PUSH2 0x190 PUSH2 0x564 JUMP JUMPDEST PUSH1 0x40 MLOAD PUSH2 0x19D SWAP2 SWAP1 PUSH2 0xBCE JUMP JUMPDEST PUSH1 0x40 MLOAD DUP1 SWAP2 SUB SWAP1 RETURN JUMPDEST CALLVALUE DUP1 ISZERO PUSH2 0x1B1 JUMPI PUSH0 DUP1 REVERT JUMPDEST POP PUSH2 0x1BA PUSH2 0x58E JUMP JUMPDEST PUSH1 0x40 MLOAD PUSH2 0x1C7 SWAP2 SWAP1 PUSH2 0xBEE JUMP JUMPDEST PUSH1 0x40 MLOAD DUP1 SWAP2 SUB SWAP1 RETURN JUMPDEST CALLVALUE DUP1 ISZERO PUSH2 0x1DB JUMPI PUSH0 DUP1 REVERT JUMPDEST POP PUSH2 0x1E4 PUSH2 0x595 JUMP JUMPDEST PUSH1 0x40 MLOAD PUSH2 0x1F1 SWAP2 SWAP1 PUSH2 0xBCE JUMP JUMPDEST PUSH1 0x40 MLOAD DUP1 SWAP2 SUB SWAP1 RETURN JUMPDEST CALLVALUE DUP1 ISZERO PUSH2 0x205 JUMPI PUSH0 DUP1 REVERT JUMPDEST POP PUSH2 0x220 PUSH1 0x4 DUP1 CALLDATASIZE SUB DUP2 ADD SWAP1 PUSH2 0x21B SWAP2 SWAP1 PUSH2 0xAE8 JUMP JUMPDEST PUSH2 0x621 JUMP JUMPDEST STOP JUMPDEST CALLVALUE DUP1 ISZERO PUSH2 0x22D JUMPI PUSH0 DUP1 REVERT JUMPDEST POP PUSH2 0x236 PUSH2 0x7BA JUMP JUMPDEST PUSH1 0x40 MLOAD PUSH2 0x243 SWAP2 SWAP1 PUSH2 0xC46 JUMP JUMPDEST PUSH1 0x40 MLOAD DUP1 SWAP2 SUB SWAP1 RETURN JUMPDEST CALLVALUE DUP1 ISZERO PUSH2 0x257 JUMPI PUSH0 DUP1 REVERT JUMPDEST POP PUSH2 0x272 PUSH1 0x4 DUP1 CALLDATASIZE SUB DUP2 ADD SWAP1 PUSH2 0x26D SWAP2 SWAP1 PUSH2 0xD8B JUMP JUMPDEST PUSH2 0x7DF JUMP JUMPDEST STOP JUMPDEST PUSH2 0x28E PUSH1 0x4 DUP1 CALLDATASIZE SUB DUP2 ADD SWAP1 PUSH2 0x289 SWAP2 SWAP1 PUSH2 0xAE8 JUMP JUMPDEST PUSH2 0x921 JUMP JUMPDEST STOP JUMPDEST PUSH1 0x5 DUP2 DUP2 SLOAD DUP2 LT PUSH2 0x29F JUMPI PUSH0 DUP1 REVERT JUMPDEST SWAP1 PUSH0 MSTORE PUSH1 0x20 PUSH0 KECCAK256 SWAP1 PUSH1 0x3 MUL ADD PUSH0 SWAP2 POP SWAP1 POP DUP1 PUSH0 ADD DUP1 SLOAD PUSH2 0x2BE SWAP1 PUSH2 0xE12 JUMP JUMPDEST DUP1 PUSH1 0x1F ADD PUSH1 0x20 DUP1 SWAP2 DIV MUL PUSH1 0x20 ADD PUSH1 0x40 MLOAD SWAP1 DUP2 ADD PUSH1 0x40 MSTORE DUP1 SWAP3 SWAP2 SWAP1 DUP2 DUP2 MSTORE PUSH1 0x20 ADD DUP3 DUP1 SLOAD PUSH2 0x2EA SWAP1 PUSH2 0xE12 JUMP JUMPDEST DUP1 ISZERO PUSH2 0x335 JUMPI DUP1 PUSH1 0x1F LT PUSH2 0x30C JUMPI PUSH2 0x100 DUP1 DUP4 SLOAD DIV MUL DUP4 MSTORE SWAP2 PUSH1 0x20 ADD SWAP2 PUSH2 0x335 JUMP JUMPDEST DUP3 ADD SWAP2 SWAP1 PUSH0 MSTORE PUSH1 0x20 PUSH0 KECCAK256 SWAP1 JUMPDEST DUP2 SLOAD DUP2 MSTORE SWAP1 PUSH1 0x1 ADD SWAP1 PUSH1 0x20 ADD DUP1 DUP4 GT PUSH2 0x318 JUMPI DUP3 SWAP1 SUB PUSH1 0x1F AND DUP3 ADD SWAP2 JUMPDEST POP POP POP POP POP SWAP1 DUP1 PUSH1 0x1 ADD SLOAD SWAP1 DUP1 PUSH1 0x2 ADD SLOAD SWAP1 POP DUP4 JUMP JUMPDEST PUSH0 DUP1 SLOAD PUSH2 0x357 SWAP1 PUSH2 0xE12 JUMP JUMPDEST DUP1 PUSH1 0x1F ADD PUSH1 0x20 DUP1 SWAP2 DIV MUL PUSH1 0x20 ADD PUSH1 0x40 MLOAD SWAP1 DUP2 ADD PUSH1 0x40 MSTORE DUP1 SWAP3 SWAP2 SWAP1 DUP2 DUP2 MSTORE PUSH1 0x20 ADD DUP3 DUP1 SLOAD PUSH2 0x383 SWAP1 PUSH2 0xE12 JUMP JUMPDEST DUP1 ISZERO PUSH2 0x3CE JUMPI DUP1 PUSH1 0x1F LT PUSH2 0x3A5 JUMPI PUSH2 0x100 DUP1 DUP4 SLOAD DIV MUL DUP4 MSTORE SWAP2 PUSH1 0x20 ADD SWAP2 PUSH2 0x3CE JUMP JUMPDEST DUP3 ADD SWAP2 SWAP1 PUSH0 MSTORE PUSH1 0x20 PUSH0 KECCAK256 SWAP1 JUMPDEST DUP2 SLOAD DUP2 MSTORE SWAP1 PUSH1 0x1 ADD SWAP1 PUSH1 0x20 ADD DUP1 DUP4 GT PUSH2 0x3B1 JUMPI DUP3 SWAP1 SUB PUSH1 0x1F AND DUP3 ADD SWAP2 JUMPDEST POP POP POP POP POP DUP2 JUMP JUMPDEST PUSH1 0x3 SLOAD DUP2 JUMP JUMPDEST PUSH1 0x4 PUSH0 SWAP1 SLOAD SWAP1 PUSH2 0x100 EXP SWAP1 DIV PUSH20 0xFFFFFFFFFFFFFFFFFFFFFFFFFFFFFFFFFFFFFFFF AND PUSH20 0xFFFFFFFFFFFFFFFFFFFFFFFFFFFFFFFFFFFFFFFF AND CALLER PUSH20 0xFFFFFFFFFFFFFFFFFFFFFFFFFFFFFFFFFFFFFFFF AND EQ PUSH2 0x46B JUMPI PUSH1 0x40 MLOAD PUSH32 0x8C379A000000000000000000000000000000000000000000000000000000000 DUP2 MSTORE PUSH1 0x4 ADD PUSH2 0x462 SWAP1 PUSH2 0xEB2 JUMP JUMPDEST PUSH1 0x40 MLOAD DUP1 SWAP2 SUB SWAP1 REVERT JUMPDEST PUSH1 0x2 SLOAD SELFBALANCE LT ISZERO PUSH2 0x4B0 JUMPI PUSH1 0x40 MLOAD PUSH32 0x8C379A000000000000000000000000000000000000000000000000000000000 DUP2 MSTORE PUSH1 0x4 ADD PUSH2 0x4A7 SWAP1 PUSH2 0xF1A JUMP JUMPDEST PUSH1 0x40 MLOAD DUP1 SWAP2 SUB SWAP1 REVERT JUMPDEST PUSH0 SELFBALANCE SWAP1 POP PUSH0 DUP2 GT PUSH2 0x4F6 JUMPI PUSH1 0x40 MLOAD PUSH32 0x8C379A000000000000000000000000000000000000000000000000000000000 DUP2 MSTORE PUSH1 0x4 ADD PUSH2 0x4ED SWAP1 PUSH2 0xF82 JUMP JUMPDEST PUSH1 0x40 MLOAD DUP1 SWAP2 SUB SWAP1 REVERT JUMPDEST PUSH1 0x4 PUSH0 SWAP1 SLOAD SWAP1 PUSH2 0x100 EXP SWAP1 DIV PUSH20 0xFFFFFFFFFFFFFFFFFFFFFFFFFFFFFFFFFFFFFFFF AND PUSH20 0xFFFFFFFFFFFFFFFFFFFFFFFFFFFFFFFFFFFFFFFF AND PUSH2 0x8FC DUP3 SWAP1 DUP2 ISZERO MUL SWAP1 PUSH1 0x40 MLOAD PUSH0 PUSH1 0x40 MLOAD DUP1 DUP4 SUB DUP2 DUP6 DUP9 DUP9 CALL SWAP4 POP POP POP POP ISZERO DUP1 ISZERO PUSH2 0x55A JUMPI RETURNDATASIZE PUSH0 DUP1 RETURNDATACOPY RETURNDATASIZE PUSH0 REVERT JUMPDEST POP POP JUMP JUMPDEST PUSH1 0x2 SLOAD DUP2 JUMP JUMPDEST PUSH1 0x60 PUSH0 PUSH1 0x1 PUSH1 0x40 MLOAD PUSH1 0x20 ADD PUSH2 0x57A SWAP3 SWAP2 SWAP1 PUSH2 0x10D0 JUMP JUMPDEST PUSH1 0x40 MLOAD PUSH1 0x20 DUP2 DUP4 SUB SUB DUP2 MSTORE SWAP1 PUSH1 0x40 MSTORE SWAP1 POP SWAP1 JUMP JUMPDEST PUSH0 SELFBALANCE SWAP1 POP SWAP1 JUMP JUMPDEST PUSH1 0x1 DUP1 SLOAD PUSH2 0x5A2 SWAP1 PUSH2 0xE12 JUMP JUMPDEST DUP1 PUSH1 0x1F ADD PUSH1 0x20 DUP1 SWAP2 DIV MUL PUSH1 0x20 ADD PUSH1 0x40 MLOAD SWAP1 DUP2 ADD PUSH1 0x40 MSTORE DUP1 SWAP3 SWAP2 SWAP1 DUP2 DUP2 MSTORE PUSH1 0x20 ADD DUP3 DUP1 SLOAD PUSH2 0x5CE SWAP1 PUSH2 0xE12 JUMP JUMPDEST DUP1 ISZERO PUSH2 0x619 JUMPI DUP1 PUSH1 0x1F LT PUSH2 0x5F0 JUMPI PUSH2 0x100 DUP1 DUP4 SLOAD DIV MUL DUP4 MSTORE SWAP2 PUSH1 0x20 ADD SWAP2 PUSH2 0x619 JUMP JUMPDEST DUP3 ADD SWAP2 SWAP1 PUSH0 MSTORE PUSH1 0x20 PUSH0 KECCAK256 SWAP1 JUMPDEST DUP2 SLOAD DUP2 MSTORE SWAP1 PUSH1 0x1 ADD SWAP1 PUSH1 0x20 ADD DUP1 DUP4 GT PUSH2 0x5FC JUMPI DUP3 SWAP1 SUB PUSH1 0x1F AND DUP3 ADD SWAP2 JUMPDEST POP POP POP POP POP DUP2 JUMP JUMPDEST PUSH1 0x4 PUSH0 SWAP1 SLOAD SWAP1 PUSH2 0x100 EXP SWAP1 DIV PUSH20 0xFFFFFFFFFFFFFFFFFFFFFFFFFFFFFFFFFFFFFFFF AND PUSH20 0xFFFFFFFFFFFFFFFFFFFFFFFFFFFFFFFFFFFFFFFF AND CALLER PUSH20 0xFFFFFFFFFFFFFFFFFFFFFFFFFFFFFFFFFFFFFFFF AND EQ PUSH2 0x6B0 JUMPI PUSH1 0x40 MLOAD PUSH32 0x8C379A000000000000000000000000000000000000000000000000000000000 DUP2 MSTORE PUSH1 0x4 ADD PUSH2 0x6A7 SWAP1 PUSH2 0xEB2 JUMP JUMPDEST PUSH1 0x40 MLOAD DUP1 SWAP2 SUB SWAP1 REVERT JUMPDEST PUSH1 0x5 DUP1 SLOAD SWAP1 POP DUP2 LT PUSH2 0x6F7 JUMPI PUSH1 0x40 MLOAD PUSH32 0x8C379A000000000000000000000000000000000000000000000000000000000 DUP2 MSTORE PUSH1 0x4 ADD PUSH2 0x6EE SWAP1 PUSH2 0x1153 JUMP JUMPDEST PUSH1 0x40 MLOAD DUP1 SWAP2 SUB SWAP1 REVERT JUMPDEST PUSH1 0x5 PUSH1 0x1 PUSH1 0x5 DUP1 SLOAD SWAP1 POP PUSH2 0x70B SWAP2 SWAP1 PUSH2 0x119E JUMP JUMPDEST DUP2 SLOAD DUP2 LT PUSH2 0x71C JUMPI PUSH2 0x71B PUSH2 0x11D1 JUMP JUMPDEST JUMPDEST SWAP1 PUSH0 MSTORE PUSH1 0x20 PUSH0 KECCAK256 SWAP1 PUSH1 0x3 MUL ADD PUSH1 0x5 DUP3 DUP2 SLOAD DUP2 LT PUSH2 0x73C JUMPI PUSH2 0x73B PUSH2 0x11D1 JUMP JUMPDEST JUMPDEST SWAP1 PUSH0 MSTORE PUSH1 0x20 PUSH0 KECCAK256 SWAP1 PUSH1 0x3 MUL ADD PUSH0 DUP3 ADD DUP2 PUSH0 ADD SWAP1 DUP2 PUSH2 0x75A SWAP2 SWAP1 PUSH2 0x139E JUMP JUMPDEST POP PUSH1 0x1 DUP3 ADD SLOAD DUP2 PUSH1 0x1 ADD SSTORE PUSH1 0x2 DUP3 ADD SLOAD DUP2 PUSH1 0x2 ADD SSTORE SWAP1 POP POP PUSH1 0x5 DUP1 SLOAD DUP1 PUSH2 0x784 JUMPI PUSH2 0x783 PUSH2 0x1483 JUMP JUMPDEST JUMPDEST PUSH1 0x1 SWAP1 SUB DUP2 DUP2 SWAP1 PUSH0 MSTORE PUSH1 0x20 PUSH0 KECCAK256 SWAP1 PUSH1 0x3 MUL ADD PUSH0 DUP1 DUP3 ADD PUSH0 PUSH2 0x7A5 SWAP2 SWAP1 PUSH2 0xA4C JUMP JUMPDEST PUSH1 0x1 DUP3 ADD PUSH0 SWAP1 SSTORE PUSH1 0x2 DUP3 ADD PUSH0 SWAP1 SSTORE POP POP SWAP1 SSTORE POP JUMP JUMPDEST PUSH1 0x4 PUSH0 SWAP1 SLOAD SWAP1 PUSH2 0x100 EXP SWAP1 DIV PUSH20 0xFFFFFFFFFFFFFFFFFFFFFFFFFFFFFFFFFFFFFFFF AND DUP2 JUMP JUMPDEST PUSH1 0x4 PUSH0 SWAP1 SLOAD SWAP1 PUSH2 0x100 EXP SWAP1 DIV PUSH20 0xFFFFFFFFFFFFFFFFFFFFFFFFFFFFFFFFFFFFFFFF AND PUSH20 0xFFFFFFFFFFFFFFFFFFFFFFFFFFFFFFFFFFFFFFFF AND CALLER PUSH20 0xFFFFFFFFFFFFFFFFFFFFFFFFFFFFFFFFFFFFFFFF AND EQ PUSH2 0x86E JUMPI PUSH1 0x40 MLOAD PUSH32 0x8C379A000000000000000000000000000000000000000000000000000000000 DUP2 MSTORE PUSH1 0x4 ADD PUSH2 0x865 SWAP1 PUSH2 0xEB2 JUMP JUMPDEST PUSH1 0x40 MLOAD DUP1 SWAP2 SUB SWAP1 REVERT JUMPDEST PUSH0 DUP2 GT PUSH2 0x8B0 JUMPI PUSH1 0x40 MLOAD PUSH32 0x8C379A000000000000000000000000000000000000000000000000000000000 DUP2 MSTORE PUSH1 0x4 ADD PUSH2 0x8A7 SWAP1 PUSH2 0x14FA JUMP JUMPDEST PUSH1 0x40 MLOAD DUP1 SWAP2 SUB SWAP1 REVERT JUMPDEST PUSH1 0x5 PUSH1 0x40 MLOAD DUP1 PUSH1 0x60 ADD PUSH1 0x40 MSTORE DUP1 DUP5 DUP2 MSTORE PUSH1 0x20 ADD DUP4 DUP2 MSTORE PUSH1 0x20 ADD PUSH0 DUP2 MSTORE POP SWAP1 DUP1 PUSH1 0x1 DUP2 SLOAD ADD DUP1 DUP3 SSTORE DUP1 SWAP2 POP POP PUSH1 0x1 SWAP1 SUB SWAP1 PUSH0 MSTORE PUSH1 0x20 PUSH0 KECCAK256 SWAP1 PUSH1 0x3 MUL ADD PUSH0 SWAP1 SWAP2 SWAP1 SWAP2 SWAP1 SWAP2 POP PUSH0 DUP3 ADD MLOAD DUP2 PUSH0 ADD SWAP1 DUP2 PUSH2 0x906 SWAP2 SWAP1 PUSH2 0x1518 JUMP JUMPDEST POP PUSH1 0x20 DUP3 ADD MLOAD DUP2 PUSH1 0x1 ADD SSTORE PUSH1 0x40 DUP3 ADD MLOAD DUP2 PUSH1 0x2 ADD SSTORE POP POP POP POP JUMP JUMPDEST PUSH1 0x3 SLOAD TIMESTAMP LT PUSH2 0x965 JUMPI PUSH1 0x40 MLOAD PUSH32 0x8C379A000000000000000000000000000000000000000000000000000000000 DUP2 MSTORE PUSH1 0x4 ADD PUSH2 0x95C SWAP1 PUSH2 0x1631 JUMP JUMPDEST PUSH1 0x40 MLOAD DUP1 SWAP2 SUB SWAP1 REVERT JUMPDEST PUSH1 0x5 DUP1 SLOAD SWAP1 POP DUP2 LT PUSH2 0x9AC JUMPI PUSH1 0x40 MLOAD PUSH32 0x8C379A000000000000000000000000000000000000000000000000000000000 DUP2 MSTORE PUSH1 0x4 ADD PUSH2 0x9A3 SWAP1 PUSH2 0x1699 JUMP JUMPDEST PUSH1 0x40 MLOAD DUP1 SWAP2 SUB SWAP1 REVERT JUMPDEST PUSH1 0x5 DUP2 DUP2 SLOAD DUP2 LT PUSH2 0x9C0 JUMPI PUSH2 0x9BF PUSH2 0x11D1 JUMP JUMPDEST JUMPDEST SWAP1 PUSH0 MSTORE PUSH1 0x20 PUSH0 KECCAK256 SWAP1 PUSH1 0x3 MUL ADD PUSH1 0x1 ADD SLOAD CALLVALUE EQ PUSH2 0xA11 JUMPI PUSH1 0x40 MLOAD PUSH32 0x8C379A000000000000000000000000000000000000000000000000000000000 DUP2 MSTORE PUSH1 0x4 ADD PUSH2 0xA08 SWAP1 PUSH2 0x1701 JUMP JUMPDEST PUSH1 0x40 MLOAD DUP1 SWAP2 SUB SWAP1 REVERT JUMPDEST PUSH1 0x5 DUP2 DUP2 SLOAD DUP2 LT PUSH2 0xA25 JUMPI PUSH2 0xA24 PUSH2 0x11D1 JUMP JUMPDEST JUMPDEST SWAP1 PUSH0 MSTORE PUSH1 0x20 PUSH0 KECCAK256 SWAP1 PUSH1 0x3 MUL ADD PUSH1 0x2 ADD PUSH0 DUP2 SLOAD DUP1 SWAP3 SWAP2 SWAP1 PUSH2 0xA44 SWAP1 PUSH2 0x171F JUMP JUMPDEST SWAP2 SWAP1 POP SSTORE POP POP JUMP JUMPDEST POP DUP1 SLOAD PUSH2 0xA58 SWAP1 PUSH2 0xE12 JUMP JUMPDEST PUSH0 DUP3 SSTORE DUP1 PUSH1 0x1F LT PUSH2 0xA69 JUMPI POP PUSH2 0xA86 JUMP JUMPDEST PUSH1 0x1F ADD PUSH1 0x20 SWAP1 DIV SWAP1 PUSH0 MSTORE PUSH1 0x20 PUSH0 KECCAK256 SWAP1 DUP2 ADD SWAP1 PUSH2 0xA85 SWAP2 SWAP1 PUSH2 0xA89 JUMP JUMPDEST JUMPDEST POP JUMP JUMPDEST JUMPDEST DUP1 DUP3 GT ISZERO PUSH2 0xAA0 JUMPI PUSH0 DUP2 PUSH0 SWAP1 SSTORE POP PUSH1 0x1 ADD PUSH2 0xA8A JUMP JUMPDEST POP SWAP1 JUMP JUMPDEST PUSH0 PUSH1 0x40 MLOAD SWAP1 POP SWAP1 JUMP JUMPDEST PUSH0 DUP1 REVERT JUMPDEST PUSH0 DUP1 REVERT JUMPDEST PUSH0 DUP2 SWAP1 POP SWAP2 SWAP1 POP JUMP JUMPDEST PUSH2 0xAC7 DUP2 PUSH2 0xAB5 JUMP JUMPDEST DUP2 EQ PUSH2 0xAD1 JUMPI PUSH0 DUP1 REVERT JUMPDEST POP JUMP JUMPDEST PUSH0 DUP2 CALLDATALOAD SWAP1 POP PUSH2 0xAE2 DUP2 PUSH2 0xABE JUMP JUMPDEST SWAP3 SWAP2 POP POP JUMP JUMPDEST PUSH0 PUSH1 0x20 DUP3 DUP5 SUB SLT ISZERO PUSH2 0xAFD JUMPI PUSH2 0xAFC PUSH2 0xAAD JUMP JUMPDEST JUMPDEST PUSH0 PUSH2 0xB0A DUP5 DUP3 DUP6 ADD PUSH2 0xAD4 JUMP JUMPDEST SWAP2 POP POP SWAP3 SWAP2 POP POP JUMP JUMPDEST PUSH0 DUP2 MLOAD SWAP1 POP SWAP2 SWAP1 POP JUMP JUMPDEST PUSH0 DUP3 DUP3 MSTORE PUSH1 0x20 DUP3 ADD SWAP1 POP SWAP3 SWAP2 POP POP JUMP JUMPDEST DUP3 DUP2 DUP4 MCOPY PUSH0 DUP4 DUP4 ADD MSTORE POP POP POP JUMP JUMPDEST PUSH0 PUSH1 0x1F NOT PUSH1 0x1F DUP4 ADD AND SWAP1 POP SWAP2 SWAP1 POP JUMP JUMPDEST PUSH0 PUSH2 0xB55 DUP3 PUSH2 0xB13 JUMP JUMPDEST PUSH2 0xB5F DUP2 DUP6 PUSH2 0xB1D JUMP JUMPDEST SWAP4 POP PUSH2 0xB6F DUP2 DUP6 PUSH1 0x20 DUP7 ADD PUSH2 0xB2D JUMP JUMPDEST PUSH2 0xB78 DUP2 PUSH2 0xB3B JUMP JUMPDEST DUP5 ADD SWAP2 POP POP SWAP3 SWAP2 POP POP JUMP JUMPDEST PUSH2 0xB8C DUP2 PUSH2 0xAB5 JUMP JUMPDEST DUP3 MSTORE POP POP JUMP JUMPDEST PUSH0 PUSH1 0x60 DUP3 ADD SWAP1 POP DUP2 DUP2 SUB PUSH0 DUP4 ADD MSTORE PUSH2 0xBAA DUP2 DUP7 PUSH2 0xB4B JUMP JUMPDEST SWAP1 POP PUSH2 0xBB9 PUSH1 0x20 DUP4 ADD DUP6 PUSH2 0xB83 JUMP JUMPDEST PUSH2 0xBC6 PUSH1 0x40 DUP4 ADD DUP5 PUSH2 0xB83 JUMP JUMPDEST SWAP5 SWAP4 POP POP POP POP JUMP JUMPDEST PUSH0 PUSH1 0x20 DUP3 ADD SWAP1 POP DUP2 DUP2 SUB PUSH0 DUP4 ADD MSTORE PUSH2 0xBE6 DUP2 DUP5 PUSH2 0xB4B JUMP JUMPDEST SWAP1 POP SWAP3 SWAP2 POP POP JUMP JUMPDEST PUSH0 PUSH1 0x20 DUP3 ADD SWAP1 POP PUSH2 0xC01 PUSH0 DUP4 ADD DUP5 PUSH2 0xB83 JUMP JUMPDEST SWAP3 SWAP2 POP POP JUMP JUMPDEST PUSH0 PUSH20 0xFFFFFFFFFFFFFFFFFFFFFFFFFFFFFFFFFFFFFFFF DUP3 AND SWAP1 POP SWAP2 SWAP1 POP JUMP JUMPDEST PUSH0 PUSH2 0xC30 DUP3 PUSH2 0xC07 JUMP JUMPDEST SWAP1 POP SWAP2 SWAP1 POP JUMP JUMPDEST PUSH2 0xC40 DUP2 PUSH2 0xC26 JUMP JUMPDEST DUP3 MSTORE POP POP JUMP JUMPDEST PUSH0 PUSH1 0x20 DUP3 ADD SWAP1 POP PUSH2 0xC59 PUSH0 DUP4 ADD DUP5 PUSH2 0xC37 JUMP JUMPDEST SWAP3 SWAP2 POP POP JUMP JUMPDEST PUSH0 DUP1 REVERT JUMPDEST PUSH0 DUP1 REVERT JUMPDEST PUSH32 0x4E487B7100000000000000000000000000000000000000000000000000000000 PUSH0 MSTORE PUSH1 0x41 PUSH1 0x4 MSTORE PUSH1 0x24 PUSH0 REVERT JUMPDEST PUSH2 0xC9D DUP3 PUSH2 0xB3B JUMP JUMPDEST DUP2 ADD DUP2 DUP2 LT PUSH8 0xFFFFFFFFFFFFFFFF DUP3 GT OR ISZERO PUSH2 0xCBC JUMPI PUSH2 0xCBB PUSH2 0xC67 JUMP JUMPDEST JUMPDEST DUP1 PUSH1 0x40 MSTORE POP POP POP JUMP JUMPDEST PUSH0 PUSH2 0xCCE PUSH2 0xAA4 JUMP JUMPDEST SWAP1 POP PUSH2 0xCDA DUP3 DUP3 PUSH2 0xC94 JUMP JUMPDEST SWAP2 SWAP1 POP JUMP JUMPDEST PUSH0 PUSH8 0xFFFFFFFFFFFFFFFF DUP3 GT ISZERO PUSH2 0xCF9 JUMPI PUSH2 0xCF8 PUSH2 0xC67 JUMP JUMPDEST JUMPDEST PUSH2 0xD02 DUP3 PUSH2 0xB3B JUMP JUMPDEST SWAP1 POP PUSH1 0x20 DUP2 ADD SWAP1 POP SWAP2 SWAP1 POP JUMP JUMPDEST DUP3 DUP2 DUP4 CALLDATACOPY PUSH0 DUP4 DUP4 ADD MSTORE POP POP POP JUMP JUMPDEST PUSH0 PUSH2 0xD2F PUSH2 0xD2A DUP5 PUSH2 0xCDF JUMP JUMPDEST PUSH2 0xCC5 JUMP JUMPDEST SWAP1 POP DUP3 DUP2 MSTORE PUSH1 0x20 DUP2 ADD DUP5 DUP5 DUP5 ADD GT ISZERO PUSH2 0xD4B JUMPI PUSH2 0xD4A PUSH2 0xC63 JUMP JUMPDEST JUMPDEST PUSH2 0xD56 DUP5 DUP3 DUP6 PUSH2 0xD0F JUMP JUMPDEST POP SWAP4 SWAP3 POP POP POP JUMP JUMPDEST PUSH0 DUP3 PUSH1 0x1F DUP4 ADD SLT PUSH2 0xD72 JUMPI PUSH2 0xD71 PUSH2 0xC5F JUMP JUMPDEST JUMPDEST DUP2 CALLDATALOAD PUSH2 0xD82 DUP5 DUP3 PUSH1 0x20 DUP7 ADD PUSH2 0xD1D JUMP JUMPDEST SWAP2 POP POP SWAP3 SWAP2 POP POP JUMP JUMPDEST PUSH0 DUP1 PUSH1 0x40 DUP4 DUP6 SUB SLT ISZERO PUSH2 0xDA1 JUMPI PUSH2 0xDA0 PUSH2 0xAAD JUMP JUMPDEST JUMPDEST PUSH0 DUP4 ADD CALLDATALOAD PUSH8 0xFFFFFFFFFFFFFFFF DUP2 GT ISZERO PUSH2 0xDBE JUMPI PUSH2 0xDBD PUSH2 0xAB1 JUMP JUMPDEST JUMPDEST PUSH2 0xDCA DUP6 DUP3 DUP7 ADD PUSH2 0xD5E JUMP JUMPDEST SWAP3 POP POP PUSH1 0x20 PUSH2 0xDDB DUP6 DUP3 DUP7 ADD PUSH2 0xAD4 JUMP JUMPDEST SWAP2 POP POP SWAP3 POP SWAP3 SWAP1 POP JUMP JUMPDEST PUSH32 0x4E487B7100000000000000000000000000000000000000000000000000000000 PUSH0 MSTORE PUSH1 0x22 PUSH1 0x4 MSTORE PUSH1 0x24 PUSH0 REVERT JUMPDEST PUSH0 PUSH1 0x2 DUP3 DIV SWAP1 POP PUSH1 0x1 DUP3 AND DUP1 PUSH2 0xE29 JUMPI PUSH1 0x7F DUP3 AND SWAP2 POP JUMPDEST PUSH1 0x20 DUP3 LT DUP2 SUB PUSH2 0xE3C JUMPI PUSH2 0xE3B PUSH2 0xDE5 JUMP JUMPDEST JUMPDEST POP SWAP2 SWAP1 POP JUMP JUMPDEST PUSH32 0x596F7520617265206E6F7420746865206F776E6572206F66207468697320636F PUSH0 DUP3 ADD MSTORE PUSH32 0x6E74726163740000000000000000000000000000000000000000000000000000 PUSH1 0x20 DUP3 ADD MSTORE POP JUMP JUMPDEST PUSH0 PUSH2 0xE9C PUSH1 0x26 DUP4 PUSH2 0xB1D JUMP JUMPDEST SWAP2 POP PUSH2 0xEA7 DUP3 PUSH2 0xE42 JUMP JUMPDEST PUSH1 0x40 DUP3 ADD SWAP1 POP SWAP2 SWAP1 POP JUMP JUMPDEST PUSH0 PUSH1 0x20 DUP3 ADD SWAP1 POP DUP2 DUP2 SUB PUSH0 DUP4 ADD MSTORE PUSH2 0xEC9 DUP2 PUSH2 0xE90 JUMP JUMPDEST SWAP1 POP SWAP2 SWAP1 POP JUMP JUMPDEST PUSH32 0x676F616C20686173206E6F74206265656E207265616368656400000000000000 PUSH0 DUP3 ADD MSTORE POP JUMP JUMPDEST PUSH0 PUSH2 0xF04 PUSH1 0x19 DUP4 PUSH2 0xB1D JUMP JUMPDEST SWAP2 POP PUSH2 0xF0F DUP3 PUSH2 0xED0 JUMP JUMPDEST PUSH1 0x20 DUP3 ADD SWAP1 POP SWAP2 SWAP1 POP JUMP JUMPDEST PUSH0 PUSH1 0x20 DUP3 ADD SWAP1 POP DUP2 DUP2 SUB PUSH0 DUP4 ADD MSTORE PUSH2 0xF31 DUP2 PUSH2 0xEF8 JUMP JUMPDEST SWAP1 POP SWAP2 SWAP1 POP JUMP JUMPDEST PUSH32 0x4E6F2062616C616E636520746F20776974686472617700000000000000000000 PUSH0 DUP3 ADD MSTORE POP JUMP JUMPDEST PUSH0 PUSH2 0xF6C PUSH1 0x16 DUP4 PUSH2 0xB1D JUMP JUMPDEST SWAP2 POP PUSH2 0xF77 DUP3 PUSH2 0xF38 JUMP JUMPDEST PUSH1 0x20 DUP3 ADD SWAP1 POP SWAP2 SWAP1 POP JUMP JUMPDEST PUSH0 PUSH1 0x20 DUP3 ADD SWAP1 POP DUP2 DUP2 SUB PUSH0 DUP4 ADD MSTORE PUSH2 0xF99 DUP2 PUSH2 0xF60 JUMP JUMPDEST SWAP1 POP SWAP2 SWAP1 POP JUMP JUMPDEST PUSH0 DUP2 SWAP1 POP SWAP3 SWAP2 POP POP JUMP JUMPDEST PUSH32 0x4E616D653A200000000000000000000000000000000000000000000000000000 PUSH0 DUP3 ADD MSTORE POP JUMP JUMPDEST PUSH0 PUSH2 0xFDE PUSH1 0x6 DUP4 PUSH2 0xFA0 JUMP JUMPDEST SWAP2 POP PUSH2 0xFE9 DUP3 PUSH2 0xFAA JUMP JUMPDEST PUSH1 0x6 DUP3 ADD SWAP1 POP SWAP2 SWAP1 POP JUMP JUMPDEST PUSH0 DUP2 SWAP1 POP DUP2 PUSH0 MSTORE PUSH1 0x20 PUSH0 KECCAK256 SWAP1 POP SWAP2 SWAP1 POP JUMP JUMPDEST PUSH0 DUP2 SLOAD PUSH2 0x1012 DUP2 PUSH2 0xE12 JUMP JUMPDEST PUSH2 0x101C DUP2 DUP7 PUSH2 0xFA0 JUMP JUMPDEST SWAP5 POP PUSH1 0x1 DUP3 AND PUSH0 DUP2 EQ PUSH2 0x1036 JUMPI PUSH1 0x1 DUP2 EQ PUSH2 0x104B JUMPI PUSH2 0x107D JUMP JUMPDEST PUSH1 0xFF NOT DUP4 AND DUP7 MSTORE DUP2 ISZERO ISZERO DUP3 MUL DUP7 ADD SWAP4 POP PUSH2 0x107D JUMP JUMPDEST PUSH2 0x1054 DUP6 PUSH2 0xFF4 JUMP JUMPDEST PUSH0 JUMPDEST DUP4 DUP2 LT ISZERO PUSH2 0x1075 JUMPI DUP2 SLOAD DUP2 DUP10 ADD MSTORE PUSH1 0x1 DUP3 ADD SWAP2 POP PUSH1 0x20 DUP2 ADD SWAP1 POP PUSH2 0x1056 JUMP JUMPDEST DUP4 DUP9 ADD SWAP6 POP POP POP JUMPDEST POP POP POP SWAP3 SWAP2 POP POP JUMP JUMPDEST PUSH32 0x204465736372697074696F6E3A20000000000000000000000000000000000000 PUSH0 DUP3 ADD MSTORE POP JUMP JUMPDEST PUSH0 PUSH2 0x10BA PUSH1 0xE DUP4 PUSH2 0xFA0 JUMP JUMPDEST SWAP2 POP PUSH2 0x10C5 DUP3 PUSH2 0x1086 JUMP JUMPDEST PUSH1 0xE DUP3 ADD SWAP1 POP SWAP2 SWAP1 POP JUMP JUMPDEST PUSH0 PUSH2 0x10DA DUP3 PUSH2 0xFD2 JUMP JUMPDEST SWAP2 POP PUSH2 0x10E6 DUP3 DUP6 PUSH2 0x1006 JUMP JUMPDEST SWAP2 POP PUSH2 0x10F1 DUP3 PUSH2 0x10AE JUMP JUMPDEST SWAP2 POP PUSH2 0x10FD DUP3 DUP5 PUSH2 0x1006 JUMP JUMPDEST SWAP2 POP DUP2 SWAP1 POP SWAP4 SWAP3 POP POP POP JUMP JUMPDEST PUSH32 0x5469657220646F65736E27742065786973747300000000000000000000000000 PUSH0 DUP3 ADD MSTORE POP JUMP JUMPDEST PUSH0 PUSH2 0x113D PUSH1 0x13 DUP4 PUSH2 0xB1D JUMP JUMPDEST SWAP2 POP PUSH2 0x1148 DUP3 PUSH2 0x1109 JUMP JUMPDEST PUSH1 0x20 DUP3 ADD SWAP1 POP SWAP2 SWAP1 POP JUMP JUMPDEST PUSH0 PUSH1 0x20 DUP3 ADD SWAP1 POP DUP2 DUP2 SUB PUSH0 DUP4 ADD MSTORE PUSH2 0x116A DUP2 PUSH2 0x1131 JUMP JUMPDEST SWAP1 POP SWAP2 SWAP1 POP JUMP JUMPDEST PUSH32 0x4E487B7100000000000000000000000000000000000000000000000000000000 PUSH0 MSTORE PUSH1 0x11 PUSH1 0x4 MSTORE PUSH1 0x24 PUSH0 REVERT JUMPDEST PUSH0 PUSH2 0x11A8 DUP3 PUSH2 0xAB5 JUMP JUMPDEST SWAP2 POP PUSH2 0x11B3 DUP4 PUSH2 0xAB5 JUMP JUMPDEST SWAP3 POP DUP3 DUP3 SUB SWAP1 POP DUP2 DUP2 GT ISZERO PUSH2 0x11CB JUMPI PUSH2 0x11CA PUSH2 0x1171 JUMP JUMPDEST JUMPDEST SWAP3 SWAP2 POP POP JUMP JUMPDEST PUSH32 0x4E487B7100000000000000000000000000000000000000000000000000000000 PUSH0 MSTORE PUSH1 0x32 PUSH1 0x4 MSTORE PUSH1 0x24 PUSH0 REVERT JUMPDEST PUSH0 DUP2 SLOAD SWAP1 POP PUSH2 0x120C DUP2 PUSH2 0xE12 JUMP JUMPDEST SWAP1 POP SWAP2 SWAP1 POP JUMP JUMPDEST PUSH0 PUSH1 0x20 PUSH1 0x1F DUP4 ADD DIV SWAP1 POP SWAP2 SWAP1 POP JUMP JUMPDEST PUSH0 DUP3 DUP3 SHL SWAP1 POP SWAP3 SWAP2 POP POP JUMP JUMPDEST PUSH0 PUSH1 0x8 DUP4 MUL PUSH2 0x125D PUSH32 0xFFFFFFFFFFFFFFFFFFFFFFFFFFFFFFFFFFFFFFFFFFFFFFFFFFFFFFFFFFFFFFFF DUP3 PUSH2 0x1222 JUMP JUMPDEST PUSH2 0x1267 DUP7 DUP4 PUSH2 0x1222 JUMP JUMPDEST SWAP6 POP DUP1 NOT DUP5 AND SWAP4 POP DUP1 DUP7 AND DUP5 OR SWAP3 POP POP POP SWAP4 SWAP3 POP POP POP JUMP JUMPDEST PUSH0 DUP2 SWAP1 POP SWAP2 SWAP1 POP JUMP JUMPDEST PUSH0 PUSH2 0x12A2 PUSH2 0x129D PUSH2 0x1298 DUP5 PUSH2 0xAB5 JUMP JUMPDEST PUSH2 0x127F JUMP JUMPDEST PUSH2 0xAB5 JUMP JUMPDEST SWAP1 POP SWAP2 SWAP1 POP JUMP JUMPDEST PUSH0 DUP2 SWAP1 POP SWAP2 SWAP1 POP JUMP JUMPDEST PUSH2 0x12BB DUP4 PUSH2 0x1288 JUMP JUMPDEST PUSH2 0x12CF PUSH2 0x12C7 DUP3 PUSH2 0x12A9 JUMP JUMPDEST DUP5 DUP5 SLOAD PUSH2 0x122E JUMP JUMPDEST DUP3 SSTORE POP POP POP POP JUMP JUMPDEST PUSH0 SWAP1 JUMP JUMPDEST PUSH2 0x12E3 PUSH2 0x12D7 JUMP JUMPDEST PUSH2 0x12EE DUP2 DUP5 DUP5 PUSH2 0x12B2 JUMP JUMPDEST POP POP POP JUMP JUMPDEST JUMPDEST DUP2 DUP2 LT ISZERO PUSH2 0x1311 JUMPI PUSH2 0x1306 PUSH0 DUP3 PUSH2 0x12DB JUMP JUMPDEST PUSH1 0x1 DUP2 ADD SWAP1 POP PUSH2 0x12F4 JUMP JUMPDEST POP POP JUMP JUMPDEST PUSH1 0x1F DUP3 GT ISZERO PUSH2 0x1356 JUMPI PUSH2 0x1327 DUP2 PUSH2 0xFF4 JUMP JUMPDEST PUSH2 0x1330 DUP5 PUSH2 0x1213 JUMP JUMPDEST DUP2 ADD PUSH1 0x20 DUP6 LT ISZERO PUSH2 0x133F JUMPI DUP2 SWAP1 POP JUMPDEST PUSH2 0x1353 PUSH2 0x134B DUP6 PUSH2 0x1213 JUMP JUMPDEST DUP4 ADD DUP3 PUSH2 0x12F3 JUMP JUMPDEST POP POP JUMPDEST POP POP POP JUMP JUMPDEST PUSH0 DUP3 DUP3 SHR SWAP1 POP SWAP3 SWAP2 POP POP JUMP JUMPDEST PUSH0 PUSH2 0x1376 PUSH0 NOT DUP5 PUSH1 0x8 MUL PUSH2 0x135B JUMP JUMPDEST NOT DUP1 DUP4 AND SWAP2 POP POP SWAP3 SWAP2 POP POP JUMP JUMPDEST PUSH0 PUSH2 0x138E DUP4 DUP4 PUSH2 0x1367 JUMP JUMPDEST SWAP2 POP DUP3 PUSH1 0x2 MUL DUP3 OR SWAP1 POP SWAP3 SWAP2 POP POP JUMP JUMPDEST DUP2 DUP2 SUB PUSH2 0x13AC JUMPI POP POP PUSH2 0x1481 JUMP JUMPDEST PUSH2 0x13B5 DUP3 PUSH2 0x11FE JUMP JUMPDEST PUSH8 0xFFFFFFFFFFFFFFFF DUP2 GT ISZERO PUSH2 0x13CE JUMPI PUSH2 0x13CD PUSH2 0xC67 JUMP JUMPDEST JUMPDEST PUSH2 0x13D8 DUP3 SLOAD PUSH2 0xE12 JUMP JUMPDEST PUSH2 0x13E3 DUP3 DUP3 DUP6 PUSH2 0x1315 JUMP JUMPDEST PUSH0 PUSH1 0x1F DUP4 GT PUSH1 0x1 DUP2 EQ PUSH2 0x1410 JUMPI PUSH0 DUP5 ISZERO PUSH2 0x13FE JUMPI DUP3 DUP8 ADD SLOAD SWAP1 POP JUMPDEST PUSH2 0x1408 DUP6 DUP3 PUSH2 0x1383 JUMP JUMPDEST DUP7 SSTORE POP PUSH2 0x147A JUMP JUMPDEST PUSH1 0x1F NOT DUP5 AND PUSH2 0x141E DUP8 PUSH2 0xFF4 JUMP JUMPDEST SWAP7 POP PUSH2 0x1429 DUP7 PUSH2 0xFF4 JUMP JUMPDEST PUSH0 JUMPDEST DUP3 DUP2 LT ISZERO PUSH2 0x1450 JUMPI DUP5 DUP10 ADD SLOAD DUP3 SSTORE PUSH1 0x1 DUP3 ADD SWAP2 POP PUSH1 0x1 DUP6 ADD SWAP5 POP PUSH1 0x20 DUP2 ADD SWAP1 POP PUSH2 0x142B JUMP JUMPDEST DUP7 DUP4 LT ISZERO PUSH2 0x146D JUMPI DUP5 DUP10 ADD SLOAD PUSH2 0x1469 PUSH1 0x1F DUP10 AND DUP3 PUSH2 0x1367 JUMP JUMPDEST DUP4 SSTORE POP JUMPDEST PUSH1 0x1 PUSH1 0x2 DUP9 MUL ADD DUP9 SSTORE POP POP POP JUMPDEST POP POP POP POP POP POP JUMPDEST JUMP JUMPDEST PUSH32 0x4E487B7100000000000000000000000000000000000000000000000000000000 PUSH0 MSTORE PUSH1 0x31 PUSH1 0x4 MSTORE PUSH1 0x24 PUSH0 REVERT JUMPDEST PUSH32 0x416D6F756E74206D757374206265206772656174657220746861746E20300000 PUSH0 DUP3 ADD MSTORE POP JUMP JUMPDEST PUSH0 PUSH2 0x14E4 PUSH1 0x1E DUP4 PUSH2 0xB1D JUMP JUMPDEST SWAP2 POP PUSH2 0x14EF DUP3 PUSH2 0x14B0 JUMP JUMPDEST PUSH1 0x20 DUP3 ADD SWAP1 POP SWAP2 SWAP1 POP JUMP JUMPDEST PUSH0 PUSH1 0x20 DUP3 ADD SWAP1 POP DUP2 DUP2 SUB PUSH0 DUP4 ADD MSTORE PUSH2 0x1511 DUP2 PUSH2 0x14D8 JUMP JUMPDEST SWAP1 POP SWAP2 SWAP1 POP JUMP JUMPDEST PUSH2 0x1521 DUP3 PUSH2 0xB13 JUMP JUMPDEST PUSH8 0xFFFFFFFFFFFFFFFF DUP2 GT ISZERO PUSH2 0x153A JUMPI PUSH2 0x1539 PUSH2 0xC67 JUMP JUMPDEST JUMPDEST PUSH2 0x1544 DUP3 SLOAD PUSH2 0xE12 JUMP JUMPDEST PUSH2 0x154F DUP3 DUP3 DUP6 PUSH2 0x1315 JUMP JUMPDEST PUSH0 PUSH1 0x20 SWAP1 POP PUSH1 0x1F DUP4 GT PUSH1 0x1 DUP2 EQ PUSH2 0x1580 JUMPI PUSH0 DUP5 ISZERO PUSH2 0x156E JUMPI DUP3 DUP8 ADD MLOAD SWAP1 POP JUMPDEST PUSH2 0x1578 DUP6 DUP3 PUSH2 0x1383 JUMP JUMPDEST DUP7 SSTORE POP PUSH2 0x15DF JUMP JUMPDEST PUSH1 0x1F NOT DUP5 AND PUSH2 0x158E DUP7 PUSH2 0xFF4 JUMP JUMPDEST PUSH0 JUMPDEST DUP3 DUP2 LT ISZERO PUSH2 0x15B5 JUMPI DUP5 DUP10 ADD MLOAD DUP3 SSTORE PUSH1 0x1 DUP3 ADD SWAP2 POP PUSH1 0x20 DUP6 ADD SWAP5 POP PUSH1 0x20 DUP2 ADD SWAP1 POP PUSH2 0x1590 JUMP JUMPDEST DUP7 DUP4 LT ISZERO PUSH2 0x15D2 JUMPI DUP5 DUP10 ADD MLOAD PUSH2 0x15CE PUSH1 0x1F DUP10 AND DUP3 PUSH2 0x1367 JUMP JUMPDEST DUP4 SSTORE POP JUMPDEST PUSH1 0x1 PUSH1 0x2 DUP9 MUL ADD DUP9 SSTORE POP POP POP JUMPDEST POP POP POP POP POP POP JUMP JUMPDEST PUSH32 0x43616D706169676E2068617320656E6465640000000000000000000000000000 PUSH0 DUP3 ADD MSTORE POP JUMP JUMPDEST PUSH0 PUSH2 0x161B PUSH1 0x12 DUP4 PUSH2 0xB1D JUMP JUMPDEST SWAP2 POP PUSH2 0x1626 DUP3 PUSH2 0x15E7 JUMP JUMPDEST PUSH1 0x20 DUP3 ADD SWAP1 POP SWAP2 SWAP1 POP JUMP JUMPDEST PUSH0 PUSH1 0x20 DUP3 ADD SWAP1 POP DUP2 DUP2 SUB PUSH0 DUP4 ADD MSTORE PUSH2 0x1648 DUP2 PUSH2 0x160F JUMP JUMPDEST SWAP1 POP SWAP2 SWAP1 POP JUMP JUMPDEST PUSH32 0x496E76616C696420746965720000000000000000000000000000000000000000 PUSH0 DUP3 ADD MSTORE POP JUMP JUMPDEST PUSH0 PUSH2 0x1683 PUSH1 0xC DUP4 PUSH2 0xB1D JUMP JUMPDEST SWAP2 POP PUSH2 0x168E DUP3 PUSH2 0x164F JUMP JUMPDEST PUSH1 0x20 DUP3 ADD SWAP1 POP SWAP2 SWAP1 POP JUMP JUMPDEST PUSH0 PUSH1 0x20 DUP3 ADD SWAP1 POP DUP2 DUP2 SUB PUSH0 DUP4 ADD MSTORE PUSH2 0x16B0 DUP2 PUSH2 0x1677 JUMP JUMPDEST SWAP1 POP SWAP2 SWAP1 POP JUMP JUMPDEST PUSH32 0x496E636F727265637420616D6F756E7400000000000000000000000000000000 PUSH0 DUP3 ADD MSTORE POP JUMP JUMPDEST PUSH0 PUSH2 0x16EB PUSH1 0x10 DUP4 PUSH2 0xB1D JUMP JUMPDEST SWAP2 POP PUSH2 0x16F6 DUP3 PUSH2 0x16B7 JUMP JUMPDEST PUSH1 0x20 DUP3 ADD SWAP1 POP SWAP2 SWAP1 POP JUMP JUMPDEST PUSH0 PUSH1 0x20 DUP3 ADD SWAP1 POP DUP2 DUP2 SUB PUSH0 DUP4 ADD MSTORE PUSH2 0x1718 DUP2 PUSH2 0x16DF JUMP JUMPDEST SWAP1 POP SWAP2 SWAP1 POP JUMP JUMPDEST PUSH0 PUSH2 0x1729 DUP3 PUSH2 0xAB5 JUMP JUMPDEST SWAP2 POP PUSH32 0xFFFFFFFFFFFFFFFFFFFFFFFFFFFFFFFFFFFFFFFFFFFFFFFFFFFFFFFFFFFFFFFF DUP3 SUB PUSH2 0x175B JUMPI PUSH2 0x175A PUSH2 0x1171 JUMP JUMPDEST JUMPDEST PUSH1 0x1 DUP3 ADD SWAP1 POP SWAP2 SWAP1 POP JUMP INVALID LOG2 PUSH5 0x6970667358 0x22 SLT KECCAK256 PUSH12 0xECE7C96EB32A54D660742DDB CODECOPY BYTE 0x22 0xBF EXP 0xE4 JUMP PUSH30 0x316A9022CEA8A8208304F364736F6C634300081A00330000000000000000 "
				},
				"gasEstimates": {
					"creation": {
						"codeDepositCost": "1208800",
						"executionCost": "infinite",
						"totalCost": "infinite"
					},
					"external": {
						"addTier(string,uint256)": "infinite",
						"deadline()": "2470",
						"description()": "infinite",
						"fund(uint256)": "infinite",
						"getContractBalance()": "334",
						"getInfo()": "infinite",
						"goal()": "2514",
						"name()": "infinite",
						"owner()": "2574",
						"removeTier(uint256)": "infinite",
						"tiers(uint256)": "infinite",
						"withdraw()": "infinite"
					}
				},
				"methodIdentifiers": {
					"addTier(string,uint256)": "8ece7b91",
					"deadline()": "29dcb0cf",
					"description()": "7284e416",
					"fund(uint256)": "ca1d209d",
					"getContractBalance()": "6f9fb98a",
					"getInfo()": "5a9b0b89",
					"goal()": "40193883",
					"name()": "06fdde03",
					"owner()": "8da5cb5b",
					"removeTier(uint256)": "7497211b",
					"tiers(uint256)": "039af9eb",
					"withdraw()": "3ccfd60b"
				}
			},
			"storageLayout": {
				"storage": [
					{
						"astId": 3,
						"contract": "contracts/Crowdfunding.sol:Crowdfunding",
						"label": "name",
						"offset": 0,
						"slot": "0",
						"type": "t_string_storage"
					},
					{
						"astId": 5,
						"contract": "contracts/Crowdfunding.sol:Crowdfunding",
						"label": "description",
						"offset": 0,
						"slot": "1",
						"type": "t_string_storage"
					},
					{
						"astId": 7,
						"contract": "contracts/Crowdfunding.sol:Crowdfunding",
						"label": "goal",
						"offset": 0,
						"slot": "2",
						"type": "t_uint256"
					},
					{
						"astId": 9,
						"contract": "contracts/Crowdfunding.sol:Crowdfunding",
						"label": "deadline",
						"offset": 0,
						"slot": "3",
						"type": "t_uint256"
					},
					{
						"astId": 11,
						"contract": "contracts/Crowdfunding.sol:Crowdfunding",
						"label": "owner",
						"offset": 0,
						"slot": "4",
						"type": "t_address"
					},
					{
						"astId": 22,
						"contract": "contracts/Crowdfunding.sol:Crowdfunding",
						"label": "tiers",
						"offset": 0,
						"slot": "5",
						"type": "t_array(t_struct(Tier)18_storage)dyn_storage"
					}
				],
				"types": {
					"t_address": {
						"encoding": "inplace",
						"label": "address",
						"numberOfBytes": "20"
					},
					"t_array(t_struct(Tier)18_storage)dyn_storage": {
						"base": "t_struct(Tier)18_storage",
						"encoding": "dynamic_array",
						"label": "struct Crowdfunding.Tier[]",
						"numberOfBytes": "32"
					},
					"t_string_storage": {
						"encoding": "bytes",
						"label": "string",
						"numberOfBytes": "32"
					},
					"t_struct(Tier)18_storage": {
						"encoding": "inplace",
						"label": "struct Crowdfunding.Tier",
						"members": [
							{
								"astId": 13,
								"contract": "contracts/Crowdfunding.sol:Crowdfunding",
								"label": "name",
								"offset": 0,
								"slot": "0",
								"type": "t_string_storage"
							},
							{
								"astId": 15,
								"contract": "contracts/Crowdfunding.sol:Crowdfunding",
								"label": "amount",
								"offset": 0,
								"slot": "1",
								"type": "t_uint256"
							},
							{
								"astId": 17,
								"contract": "contracts/Crowdfunding.sol:Crowdfunding",
								"label": "backers",
								"offset": 0,
								"slot": "2",
								"type": "t_uint256"
							}
						],
						"numberOfBytes": "96"
					},
					"t_uint256": {
						"encoding": "inplace",
						"label": "uint256",
						"numberOfBytes": "32"
					}
				}
			},
			"userdoc": {
				"kind": "user",
				"methods": {},
				"version": 1
			}
		}
	}
}