{
	"contracts/Crowdfunding.sol": {
		"Crowdfunding": {
			"abi": [
				{
					"inputs": [
						{
							"internalType": "string",
							"name": "_name",
							"type": "string"
						},
						{
							"internalType": "string",
							"name": "_description",
							"type": "string"
						},
						{
							"internalType": "uint256",
							"name": "_goal",
							"type": "uint256"
						},
						{
							"internalType": "uint256",
							"name": "_durationInDays",
							"type": "uint256"
						}
					],
					"stateMutability": "nonpayable",
					"type": "constructor"
				},
				{
					"inputs": [
						{
							"internalType": "string",
							"name": "_name",
							"type": "string"
						},
						{
							"internalType": "uint256",
							"name": "_amount",
							"type": "uint256"
						}
					],
					"name": "addTier",
					"outputs": [],
					"stateMutability": "nonpayable",
					"type": "function"
				},
				{
					"inputs": [],
					"name": "deadline",
					"outputs": [
						{
							"internalType": "uint256",
							"name": "",
							"type": "uint256"
						}
					],
					"stateMutability": "view",
					"type": "function"
				},
				{
					"inputs": [],
					"name": "description",
					"outputs": [
						{
							"internalType": "string",
							"name": "",
							"type": "string"
						}
					],
					"stateMutability": "view",
					"type": "function"
				},
				{
					"inputs": [
						{
							"internalType": "uint256",
							"name": "_tierIndex",
							"type": "uint256"
						}
					],
					"name": "fund",
					"outputs": [],
					"stateMutability": "payable",
					"type": "function"
				},
				{
					"inputs": [],
					"name": "getContractBalance",
					"outputs": [
						{
							"internalType": "uint256",
							"name": "",
							"type": "uint256"
						}
					],
					"stateMutability": "view",
					"type": "function"
				},
				{
					"inputs": [],
					"name": "getInfo",
					"outputs": [
						{
							"internalType": "string",
							"name": "",
							"type": "string"
						}
					],
					"stateMutability": "view",
					"type": "function"
				},
				{
					"inputs": [],
					"name": "goal",
					"outputs": [
						{
							"internalType": "uint256",
							"name": "",
							"type": "uint256"
						}
					],
					"stateMutability": "view",
					"type": "function"
				},
				{
					"inputs": [],
					"name": "name",
					"outputs": [
						{
							"internalType": "string",
							"name": "",
							"type": "string"
						}
					],
					"stateMutability": "view",
					"type": "function"
				},
				{
					"inputs": [],
					"name": "owner",
					"outputs": [
						{
							"internalType": "address",
							"name": "",
							"type": "address"
						}
					],
					"stateMutability": "view",
					"type": "function"
				},
				{
					"inputs": [
						{
							"internalType": "uint256",
							"name": "_index",
							"type": "uint256"
						}
					],
					"name": "removeTier",
					"outputs": [],
					"stateMutability": "nonpayable",
					"type": "function"
				},
				{
					"inputs": [],
					"name": "state",
					"outputs": [
						{
							"internalType": "enum Crowdfunding.CampaignState",
							"name": "",
							"type": "uint8"
						}
					],
					"stateMutability": "view",
					"type": "function"
				},
				{
					"inputs": [
						{
							"internalType": "uint256",
							"name": "",
							"type": "uint256"
						}
					],
					"name": "tiers",
					"outputs": [
						{
							"internalType": "string",
							"name": "name",
							"type": "string"
						},
						{
							"internalType": "uint256",
							"name": "amount",
							"type": "uint256"
						},
						{
							"internalType": "uint256",
							"name": "backers",
							"type": "uint256"
						}
					],
					"stateMutability": "view",
					"type": "function"
				},
				{
					"inputs": [],
					"name": "withdraw",
					"outputs": [],
					"stateMutability": "nonpayable",
					"type": "function"
				}
			],
			"devdoc": {
				"kind": "dev",
				"methods": {},
				"version": 1
			},
			"evm": {
				"assembly": "    /* \"contracts/Crowdfunding.sol\":57:3199  contract Crowdfunding {... */\n  mstore(0x40, 0x80)\n    /* \"contracts/Crowdfunding.sol\":890:1325  constructor (... */\n  callvalue\n  dup1\n  iszero\n  tag_1\n  jumpi\n  0x00\n  dup1\n  revert\ntag_1:\n  pop\n  mload(0x40)\n  sub(codesize, bytecodeSize)\n  dup1\n  bytecodeSize\n  dup4\n  codecopy\n  dup2\n  dup2\n  add\n  0x40\n  mstore\n  dup2\n  add\n  swap1\n  tag_2\n  swap2\n  swap1\n  tag_3\n  jump\t// in\ntag_2:\n    /* \"contracts/Crowdfunding.sol\":1058:1063  _name */\n  dup4\n    /* \"contracts/Crowdfunding.sol\":1051:1055  name */\n  0x00\n    /* \"contracts/Crowdfunding.sol\":1051:1063  name = _name */\n  swap1\n  dup2\n  tag_6\n  swap2\n  swap1\n  tag_7\n  jump\t// in\ntag_6:\n  pop\n    /* \"contracts/Crowdfunding.sol\":1091:1103  _description */\n  dup3\n    /* \"contracts/Crowdfunding.sol\":1077:1088  description */\n  0x01\n    /* \"contracts/Crowdfunding.sol\":1077:1103  description = _description */\n  swap1\n  dup2\n  tag_8\n  swap2\n  swap1\n  tag_7\n  jump\t// in\ntag_8:\n  pop\n    /* \"contracts/Crowdfunding.sol\":1124:1129  _goal */\n  dup2\n    /* \"contracts/Crowdfunding.sol\":1117:1121  goal */\n  0x02\n    /* \"contracts/Crowdfunding.sol\":1117:1129  goal = _goal */\n  dup2\n  swap1\n  sstore\n  pop\n    /* \"contracts/Crowdfunding.sol\":1192:1197  86400 */\n  0x015180\n    /* \"contracts/Crowdfunding.sol\":1174:1189  _durationInDays */\n  dup2\n    /* \"contracts/Crowdfunding.sol\":1174:1197  _durationInDays * 86400 */\n  tag_9\n  swap2\n  swap1\n  tag_10\n  jump\t// in\ntag_9:\n    /* \"contracts/Crowdfunding.sol\":1155:1170  block.timestamp */\n  timestamp\n    /* \"contracts/Crowdfunding.sol\":1155:1198  block.timestamp + (_durationInDays * 86400) */\n  tag_11\n  swap2\n  swap1\n  tag_12\n  jump\t// in\ntag_11:\n    /* \"contracts/Crowdfunding.sol\":1143:1151  deadline */\n  0x03\n    /* \"contracts/Crowdfunding.sol\":1143:1198  deadline =  block.timestamp + (_durationInDays * 86400) */\n  dup2\n  swap1\n  sstore\n  pop\n    /* \"contracts/Crowdfunding.sol\":1220:1230  msg.sender */\n  caller\n    /* \"contracts/Crowdfunding.sol\":1212:1217  owner */\n  0x04\n  0x00\n    /* \"contracts/Crowdfunding.sol\":1212:1230  owner = msg.sender */\n  0x0100\n  exp\n  dup2\n  sload\n  dup2\n  0xffffffffffffffffffffffffffffffffffffffff\n  mul\n  not\n  and\n  swap1\n  dup4\n  0xffffffffffffffffffffffffffffffffffffffff\n  and\n  mul\n  or\n  swap1\n  sstore\n  pop\n    /* \"contracts/Crowdfunding.sol\":1294:1314  CampaignState.Active */\n  0x00\n    /* \"contracts/Crowdfunding.sol\":1286:1291  state */\n  0x04\n  0x14\n    /* \"contracts/Crowdfunding.sol\":1286:1314  state = CampaignState.Active */\n  0x0100\n  exp\n  dup2\n  sload\n  dup2\n  0xff\n  mul\n  not\n  and\n  swap1\n  dup4\n  0x02\n  dup2\n  gt\n  iszero\n  tag_13\n  jumpi\n  tag_14\n  tag_15\n  jump\t// in\ntag_14:\ntag_13:\n  mul\n  or\n  swap1\n  sstore\n  pop\n    /* \"contracts/Crowdfunding.sol\":890:1325  constructor (... */\n  pop\n  pop\n  pop\n  pop\n    /* \"contracts/Crowdfunding.sol\":57:3199  contract Crowdfunding {... */\n  jump(tag_16)\n    /* \"#utility.yul\":7:82   */\ntag_17:\n    /* \"#utility.yul\":40:46   */\n  0x00\n    /* \"#utility.yul\":73:75   */\n  0x40\n    /* \"#utility.yul\":67:76   */\n  mload\n    /* \"#utility.yul\":57:76   */\n  swap1\n  pop\n    /* \"#utility.yul\":7:82   */\n  swap1\n  jump\t// out\n    /* \"#utility.yul\":88:205   */\ntag_18:\n    /* \"#utility.yul\":197:198   */\n  0x00\n    /* \"#utility.yul\":194:195   */\n  dup1\n    /* \"#utility.yul\":187:199   */\n  revert\n    /* \"#utility.yul\":211:328   */\ntag_19:\n    /* \"#utility.yul\":320:321   */\n  0x00\n    /* \"#utility.yul\":317:318   */\n  dup1\n    /* \"#utility.yul\":310:322   */\n  revert\n    /* \"#utility.yul\":334:451   */\ntag_20:\n    /* \"#utility.yul\":443:444   */\n  0x00\n    /* \"#utility.yul\":440:441   */\n  dup1\n    /* \"#utility.yul\":433:445   */\n  revert\n    /* \"#utility.yul\":457:574   */\ntag_21:\n    /* \"#utility.yul\":566:567   */\n  0x00\n    /* \"#utility.yul\":563:564   */\n  dup1\n    /* \"#utility.yul\":556:568   */\n  revert\n    /* \"#utility.yul\":580:682   */\ntag_22:\n    /* \"#utility.yul\":621:627   */\n  0x00\n    /* \"#utility.yul\":672:674   */\n  0x1f\n    /* \"#utility.yul\":668:675   */\n  not\n    /* \"#utility.yul\":663:665   */\n  0x1f\n    /* \"#utility.yul\":656:661   */\n  dup4\n    /* \"#utility.yul\":652:666   */\n  add\n    /* \"#utility.yul\":648:676   */\n  and\n    /* \"#utility.yul\":638:676   */\n  swap1\n  pop\n    /* \"#utility.yul\":580:682   */\n  swap2\n  swap1\n  pop\n  jump\t// out\n    /* \"#utility.yul\":688:868   */\ntag_23:\n    /* \"#utility.yul\":736:813   */\n  0x4e487b7100000000000000000000000000000000000000000000000000000000\n    /* \"#utility.yul\":733:734   */\n  0x00\n    /* \"#utility.yul\":726:814   */\n  mstore\n    /* \"#utility.yul\":833:837   */\n  0x41\n    /* \"#utility.yul\":830:831   */\n  0x04\n    /* \"#utility.yul\":823:838   */\n  mstore\n    /* \"#utility.yul\":857:861   */\n  0x24\n    /* \"#utility.yul\":854:855   */\n  0x00\n    /* \"#utility.yul\":847:862   */\n  revert\n    /* \"#utility.yul\":874:1155   */\ntag_24:\n    /* \"#utility.yul\":957:984   */\n  tag_61\n    /* \"#utility.yul\":979:983   */\n  dup3\n    /* \"#utility.yul\":957:984   */\n  tag_22\n  jump\t// in\ntag_61:\n    /* \"#utility.yul\":949:955   */\n  dup2\n    /* \"#utility.yul\":945:985   */\n  add\n    /* \"#utility.yul\":1087:1093   */\n  dup2\n    /* \"#utility.yul\":1075:1085   */\n  dup2\n    /* \"#utility.yul\":1072:1094   */\n  lt\n    /* \"#utility.yul\":1051:1069   */\n  0xffffffffffffffff\n    /* \"#utility.yul\":1039:1049   */\n  dup3\n    /* \"#utility.yul\":1036:1070   */\n  gt\n    /* \"#utility.yul\":1033:1095   */\n  or\n    /* \"#utility.yul\":1030:1118   */\n  iszero\n  tag_62\n  jumpi\n    /* \"#utility.yul\":1098:1116   */\n  tag_63\n  tag_23\n  jump\t// in\ntag_63:\n    /* \"#utility.yul\":1030:1118   */\ntag_62:\n    /* \"#utility.yul\":1138:1148   */\n  dup1\n    /* \"#utility.yul\":1134:1136   */\n  0x40\n    /* \"#utility.yul\":1127:1149   */\n  mstore\n    /* \"#utility.yul\":917:1155   */\n  pop\n    /* \"#utility.yul\":874:1155   */\n  pop\n  pop\n  jump\t// out\n    /* \"#utility.yul\":1161:1290   */\ntag_25:\n    /* \"#utility.yul\":1195:1201   */\n  0x00\n    /* \"#utility.yul\":1222:1242   */\n  tag_65\n  tag_17\n  jump\t// in\ntag_65:\n    /* \"#utility.yul\":1212:1242   */\n  swap1\n  pop\n    /* \"#utility.yul\":1251:1284   */\n  tag_66\n    /* \"#utility.yul\":1279:1283   */\n  dup3\n    /* \"#utility.yul\":1271:1277   */\n  dup3\n    /* \"#utility.yul\":1251:1284   */\n  tag_24\n  jump\t// in\ntag_66:\n    /* \"#utility.yul\":1161:1290   */\n  swap2\n  swap1\n  pop\n  jump\t// out\n    /* \"#utility.yul\":1296:1604   */\ntag_26:\n    /* \"#utility.yul\":1358:1362   */\n  0x00\n    /* \"#utility.yul\":1448:1466   */\n  0xffffffffffffffff\n    /* \"#utility.yul\":1440:1446   */\n  dup3\n    /* \"#utility.yul\":1437:1467   */\n  gt\n    /* \"#utility.yul\":1434:1490   */\n  iszero\n  tag_68\n  jumpi\n    /* \"#utility.yul\":1470:1488   */\n  tag_69\n  tag_23\n  jump\t// in\ntag_69:\n    /* \"#utility.yul\":1434:1490   */\ntag_68:\n    /* \"#utility.yul\":1508:1537   */\n  tag_70\n    /* \"#utility.yul\":1530:1536   */\n  dup3\n    /* \"#utility.yul\":1508:1537   */\n  tag_22\n  jump\t// in\ntag_70:\n    /* \"#utility.yul\":1500:1537   */\n  swap1\n  pop\n    /* \"#utility.yul\":1592:1596   */\n  0x20\n    /* \"#utility.yul\":1586:1590   */\n  dup2\n    /* \"#utility.yul\":1582:1597   */\n  add\n    /* \"#utility.yul\":1574:1597   */\n  swap1\n  pop\n    /* \"#utility.yul\":1296:1604   */\n  swap2\n  swap1\n  pop\n  jump\t// out\n    /* \"#utility.yul\":1610:1749   */\ntag_27:\n    /* \"#utility.yul\":1699:1705   */\n  dup3\n    /* \"#utility.yul\":1694:1697   */\n  dup2\n    /* \"#utility.yul\":1689:1692   */\n  dup4\n    /* \"#utility.yul\":1683:1706   */\n  mcopy\n    /* \"#utility.yul\":1740:1741   */\n  0x00\n    /* \"#utility.yul\":1731:1737   */\n  dup4\n    /* \"#utility.yul\":1726:1729   */\n  dup4\n    /* \"#utility.yul\":1722:1738   */\n  add\n    /* \"#utility.yul\":1715:1742   */\n  mstore\n    /* \"#utility.yul\":1610:1749   */\n  pop\n  pop\n  pop\n  jump\t// out\n    /* \"#utility.yul\":1755:2189   */\ntag_28:\n    /* \"#utility.yul\":1844:1849   */\n  0x00\n    /* \"#utility.yul\":1869:1935   */\n  tag_73\n    /* \"#utility.yul\":1885:1934   */\n  tag_74\n    /* \"#utility.yul\":1927:1933   */\n  dup5\n    /* \"#utility.yul\":1885:1934   */\n  tag_26\n  jump\t// in\ntag_74:\n    /* \"#utility.yul\":1869:1935   */\n  tag_25\n  jump\t// in\ntag_73:\n    /* \"#utility.yul\":1860:1935   */\n  swap1\n  pop\n    /* \"#utility.yul\":1958:1964   */\n  dup3\n    /* \"#utility.yul\":1951:1956   */\n  dup2\n    /* \"#utility.yul\":1944:1965   */\n  mstore\n    /* \"#utility.yul\":1996:2000   */\n  0x20\n    /* \"#utility.yul\":1989:1994   */\n  dup2\n    /* \"#utility.yul\":1985:2001   */\n  add\n    /* \"#utility.yul\":2034:2037   */\n  dup5\n    /* \"#utility.yul\":2025:2031   */\n  dup5\n    /* \"#utility.yul\":2020:2023   */\n  dup5\n    /* \"#utility.yul\":2016:2032   */\n  add\n    /* \"#utility.yul\":2013:2038   */\n  gt\n    /* \"#utility.yul\":2010:2122   */\n  iszero\n  tag_75\n  jumpi\n    /* \"#utility.yul\":2041:2120   */\n  tag_76\n  tag_21\n  jump\t// in\ntag_76:\n    /* \"#utility.yul\":2010:2122   */\ntag_75:\n    /* \"#utility.yul\":2131:2183   */\n  tag_77\n    /* \"#utility.yul\":2176:2182   */\n  dup5\n    /* \"#utility.yul\":2171:2174   */\n  dup3\n    /* \"#utility.yul\":2166:2169   */\n  dup6\n    /* \"#utility.yul\":2131:2183   */\n  tag_27\n  jump\t// in\ntag_77:\n    /* \"#utility.yul\":1850:2189   */\n  pop\n    /* \"#utility.yul\":1755:2189   */\n  swap4\n  swap3\n  pop\n  pop\n  pop\n  jump\t// out\n    /* \"#utility.yul\":2209:2564   */\ntag_29:\n    /* \"#utility.yul\":2276:2281   */\n  0x00\n    /* \"#utility.yul\":2325:2328   */\n  dup3\n    /* \"#utility.yul\":2318:2322   */\n  0x1f\n    /* \"#utility.yul\":2310:2316   */\n  dup4\n    /* \"#utility.yul\":2306:2323   */\n  add\n    /* \"#utility.yul\":2302:2329   */\n  slt\n    /* \"#utility.yul\":2292:2414   */\n  tag_79\n  jumpi\n    /* \"#utility.yul\":2333:2412   */\n  tag_80\n  tag_20\n  jump\t// in\ntag_80:\n    /* \"#utility.yul\":2292:2414   */\ntag_79:\n    /* \"#utility.yul\":2443:2449   */\n  dup2\n    /* \"#utility.yul\":2437:2450   */\n  mload\n    /* \"#utility.yul\":2468:2558   */\n  tag_81\n    /* \"#utility.yul\":2554:2557   */\n  dup5\n    /* \"#utility.yul\":2546:2552   */\n  dup3\n    /* \"#utility.yul\":2539:2543   */\n  0x20\n    /* \"#utility.yul\":2531:2537   */\n  dup7\n    /* \"#utility.yul\":2527:2544   */\n  add\n    /* \"#utility.yul\":2468:2558   */\n  tag_28\n  jump\t// in\ntag_81:\n    /* \"#utility.yul\":2459:2558   */\n  swap2\n  pop\n    /* \"#utility.yul\":2282:2564   */\n  pop\n    /* \"#utility.yul\":2209:2564   */\n  swap3\n  swap2\n  pop\n  pop\n  jump\t// out\n    /* \"#utility.yul\":2570:2647   */\ntag_30:\n    /* \"#utility.yul\":2607:2614   */\n  0x00\n    /* \"#utility.yul\":2636:2641   */\n  dup2\n    /* \"#utility.yul\":2625:2641   */\n  swap1\n  pop\n    /* \"#utility.yul\":2570:2647   */\n  swap2\n  swap1\n  pop\n  jump\t// out\n    /* \"#utility.yul\":2653:2775   */\ntag_31:\n    /* \"#utility.yul\":2726:2750   */\n  tag_84\n    /* \"#utility.yul\":2744:2749   */\n  dup2\n    /* \"#utility.yul\":2726:2750   */\n  tag_30\n  jump\t// in\ntag_84:\n    /* \"#utility.yul\":2719:2724   */\n  dup2\n    /* \"#utility.yul\":2716:2751   */\n  eq\n    /* \"#utility.yul\":2706:2769   */\n  tag_85\n  jumpi\n    /* \"#utility.yul\":2765:2766   */\n  0x00\n    /* \"#utility.yul\":2762:2763   */\n  dup1\n    /* \"#utility.yul\":2755:2767   */\n  revert\n    /* \"#utility.yul\":2706:2769   */\ntag_85:\n    /* \"#utility.yul\":2653:2775   */\n  pop\n  jump\t// out\n    /* \"#utility.yul\":2781:2924   */\ntag_32:\n    /* \"#utility.yul\":2838:2843   */\n  0x00\n    /* \"#utility.yul\":2869:2875   */\n  dup2\n    /* \"#utility.yul\":2863:2876   */\n  mload\n    /* \"#utility.yul\":2854:2876   */\n  swap1\n  pop\n    /* \"#utility.yul\":2885:2918   */\n  tag_87\n    /* \"#utility.yul\":2912:2917   */\n  dup2\n    /* \"#utility.yul\":2885:2918   */\n  tag_31\n  jump\t// in\ntag_87:\n    /* \"#utility.yul\":2781:2924   */\n  swap3\n  swap2\n  pop\n  pop\n  jump\t// out\n    /* \"#utility.yul\":2930:4096   */\ntag_3:\n    /* \"#utility.yul\":3047:3053   */\n  0x00\n    /* \"#utility.yul\":3055:3061   */\n  dup1\n    /* \"#utility.yul\":3063:3069   */\n  0x00\n    /* \"#utility.yul\":3071:3077   */\n  dup1\n    /* \"#utility.yul\":3120:3123   */\n  0x80\n    /* \"#utility.yul\":3108:3117   */\n  dup6\n    /* \"#utility.yul\":3099:3106   */\n  dup8\n    /* \"#utility.yul\":3095:3118   */\n  sub\n    /* \"#utility.yul\":3091:3124   */\n  slt\n    /* \"#utility.yul\":3088:3208   */\n  iszero\n  tag_89\n  jumpi\n    /* \"#utility.yul\":3127:3206   */\n  tag_90\n  tag_18\n  jump\t// in\ntag_90:\n    /* \"#utility.yul\":3088:3208   */\ntag_89:\n    /* \"#utility.yul\":3268:3269   */\n  0x00\n    /* \"#utility.yul\":3257:3266   */\n  dup6\n    /* \"#utility.yul\":3253:3270   */\n  add\n    /* \"#utility.yul\":3247:3271   */\n  mload\n    /* \"#utility.yul\":3298:3316   */\n  0xffffffffffffffff\n    /* \"#utility.yul\":3290:3296   */\n  dup2\n    /* \"#utility.yul\":3287:3317   */\n  gt\n    /* \"#utility.yul\":3284:3401   */\n  iszero\n  tag_91\n  jumpi\n    /* \"#utility.yul\":3320:3399   */\n  tag_92\n  tag_19\n  jump\t// in\ntag_92:\n    /* \"#utility.yul\":3284:3401   */\ntag_91:\n    /* \"#utility.yul\":3425:3499   */\n  tag_93\n    /* \"#utility.yul\":3491:3498   */\n  dup8\n    /* \"#utility.yul\":3482:3488   */\n  dup3\n    /* \"#utility.yul\":3471:3480   */\n  dup9\n    /* \"#utility.yul\":3467:3489   */\n  add\n    /* \"#utility.yul\":3425:3499   */\n  tag_29\n  jump\t// in\ntag_93:\n    /* \"#utility.yul\":3415:3499   */\n  swap5\n  pop\n    /* \"#utility.yul\":3218:3509   */\n  pop\n    /* \"#utility.yul\":3569:3571   */\n  0x20\n    /* \"#utility.yul\":3558:3567   */\n  dup6\n    /* \"#utility.yul\":3554:3572   */\n  add\n    /* \"#utility.yul\":3548:3573   */\n  mload\n    /* \"#utility.yul\":3600:3618   */\n  0xffffffffffffffff\n    /* \"#utility.yul\":3592:3598   */\n  dup2\n    /* \"#utility.yul\":3589:3619   */\n  gt\n    /* \"#utility.yul\":3586:3703   */\n  iszero\n  tag_94\n  jumpi\n    /* \"#utility.yul\":3622:3701   */\n  tag_95\n  tag_19\n  jump\t// in\ntag_95:\n    /* \"#utility.yul\":3586:3703   */\ntag_94:\n    /* \"#utility.yul\":3727:3801   */\n  tag_96\n    /* \"#utility.yul\":3793:3800   */\n  dup8\n    /* \"#utility.yul\":3784:3790   */\n  dup3\n    /* \"#utility.yul\":3773:3782   */\n  dup9\n    /* \"#utility.yul\":3769:3791   */\n  add\n    /* \"#utility.yul\":3727:3801   */\n  tag_29\n  jump\t// in\ntag_96:\n    /* \"#utility.yul\":3717:3801   */\n  swap4\n  pop\n    /* \"#utility.yul\":3519:3811   */\n  pop\n    /* \"#utility.yul\":3850:3852   */\n  0x40\n    /* \"#utility.yul\":3876:3940   */\n  tag_97\n    /* \"#utility.yul\":3932:3939   */\n  dup8\n    /* \"#utility.yul\":3923:3929   */\n  dup3\n    /* \"#utility.yul\":3912:3921   */\n  dup9\n    /* \"#utility.yul\":3908:3930   */\n  add\n    /* \"#utility.yul\":3876:3940   */\n  tag_32\n  jump\t// in\ntag_97:\n    /* \"#utility.yul\":3866:3940   */\n  swap3\n  pop\n    /* \"#utility.yul\":3821:3950   */\n  pop\n    /* \"#utility.yul\":3989:3991   */\n  0x60\n    /* \"#utility.yul\":4015:4079   */\n  tag_98\n    /* \"#utility.yul\":4071:4078   */\n  dup8\n    /* \"#utility.yul\":4062:4068   */\n  dup3\n    /* \"#utility.yul\":4051:4060   */\n  dup9\n    /* \"#utility.yul\":4047:4069   */\n  add\n    /* \"#utility.yul\":4015:4079   */\n  tag_32\n  jump\t// in\ntag_98:\n    /* \"#utility.yul\":4005:4079   */\n  swap2\n  pop\n    /* \"#utility.yul\":3960:4089   */\n  pop\n    /* \"#utility.yul\":2930:4096   */\n  swap3\n  swap6\n  swap2\n  swap5\n  pop\n  swap3\n  pop\n  jump\t// out\n    /* \"#utility.yul\":4102:4201   */\ntag_33:\n    /* \"#utility.yul\":4154:4160   */\n  0x00\n    /* \"#utility.yul\":4188:4193   */\n  dup2\n    /* \"#utility.yul\":4182:4194   */\n  mload\n    /* \"#utility.yul\":4172:4194   */\n  swap1\n  pop\n    /* \"#utility.yul\":4102:4201   */\n  swap2\n  swap1\n  pop\n  jump\t// out\n    /* \"#utility.yul\":4207:4387   */\ntag_34:\n    /* \"#utility.yul\":4255:4332   */\n  0x4e487b7100000000000000000000000000000000000000000000000000000000\n    /* \"#utility.yul\":4252:4253   */\n  0x00\n    /* \"#utility.yul\":4245:4333   */\n  mstore\n    /* \"#utility.yul\":4352:4356   */\n  0x22\n    /* \"#utility.yul\":4349:4350   */\n  0x04\n    /* \"#utility.yul\":4342:4357   */\n  mstore\n    /* \"#utility.yul\":4376:4380   */\n  0x24\n    /* \"#utility.yul\":4373:4374   */\n  0x00\n    /* \"#utility.yul\":4366:4381   */\n  revert\n    /* \"#utility.yul\":4393:4713   */\ntag_35:\n    /* \"#utility.yul\":4437:4443   */\n  0x00\n    /* \"#utility.yul\":4474:4475   */\n  0x02\n    /* \"#utility.yul\":4468:4472   */\n  dup3\n    /* \"#utility.yul\":4464:4476   */\n  div\n    /* \"#utility.yul\":4454:4476   */\n  swap1\n  pop\n    /* \"#utility.yul\":4521:4522   */\n  0x01\n    /* \"#utility.yul\":4515:4519   */\n  dup3\n    /* \"#utility.yul\":4511:4523   */\n  and\n    /* \"#utility.yul\":4542:4560   */\n  dup1\n    /* \"#utility.yul\":4532:4613   */\n  tag_102\n  jumpi\n    /* \"#utility.yul\":4598:4602   */\n  0x7f\n    /* \"#utility.yul\":4590:4596   */\n  dup3\n    /* \"#utility.yul\":4586:4603   */\n  and\n    /* \"#utility.yul\":4576:4603   */\n  swap2\n  pop\n    /* \"#utility.yul\":4532:4613   */\ntag_102:\n    /* \"#utility.yul\":4660:4662   */\n  0x20\n    /* \"#utility.yul\":4652:4658   */\n  dup3\n    /* \"#utility.yul\":4649:4663   */\n  lt\n    /* \"#utility.yul\":4629:4647   */\n  dup2\n    /* \"#utility.yul\":4626:4664   */\n  sub\n    /* \"#utility.yul\":4623:4707   */\n  tag_103\n  jumpi\n    /* \"#utility.yul\":4679:4697   */\n  tag_104\n  tag_34\n  jump\t// in\ntag_104:\n    /* \"#utility.yul\":4623:4707   */\ntag_103:\n    /* \"#utility.yul\":4444:4713   */\n  pop\n    /* \"#utility.yul\":4393:4713   */\n  swap2\n  swap1\n  pop\n  jump\t// out\n    /* \"#utility.yul\":4719:4860   */\ntag_36:\n    /* \"#utility.yul\":4768:4772   */\n  0x00\n    /* \"#utility.yul\":4791:4794   */\n  dup2\n    /* \"#utility.yul\":4783:4794   */\n  swap1\n  pop\n    /* \"#utility.yul\":4814:4817   */\n  dup2\n    /* \"#utility.yul\":4811:4812   */\n  0x00\n    /* \"#utility.yul\":4804:4818   */\n  mstore\n    /* \"#utility.yul\":4848:4852   */\n  0x20\n    /* \"#utility.yul\":4845:4846   */\n  0x00\n    /* \"#utility.yul\":4835:4853   */\n  keccak256\n    /* \"#utility.yul\":4827:4853   */\n  swap1\n  pop\n    /* \"#utility.yul\":4719:4860   */\n  swap2\n  swap1\n  pop\n  jump\t// out\n    /* \"#utility.yul\":4866:4959   */\ntag_37:\n    /* \"#utility.yul\":4903:4909   */\n  0x00\n    /* \"#utility.yul\":4950:4952   */\n  0x20\n    /* \"#utility.yul\":4945:4947   */\n  0x1f\n    /* \"#utility.yul\":4938:4943   */\n  dup4\n    /* \"#utility.yul\":4934:4948   */\n  add\n    /* \"#utility.yul\":4930:4953   */\n  div\n    /* \"#utility.yul\":4920:4953   */\n  swap1\n  pop\n    /* \"#utility.yul\":4866:4959   */\n  swap2\n  swap1\n  pop\n  jump\t// out\n    /* \"#utility.yul\":4965:5072   */\ntag_38:\n    /* \"#utility.yul\":5009:5017   */\n  0x00\n    /* \"#utility.yul\":5059:5064   */\n  dup3\n    /* \"#utility.yul\":5053:5057   */\n  dup3\n    /* \"#utility.yul\":5049:5065   */\n  shl\n    /* \"#utility.yul\":5028:5065   */\n  swap1\n  pop\n    /* \"#utility.yul\":4965:5072   */\n  swap3\n  swap2\n  pop\n  pop\n  jump\t// out\n    /* \"#utility.yul\":5078:5471   */\ntag_39:\n    /* \"#utility.yul\":5147:5153   */\n  0x00\n    /* \"#utility.yul\":5197:5198   */\n  0x08\n    /* \"#utility.yul\":5185:5195   */\n  dup4\n    /* \"#utility.yul\":5181:5199   */\n  mul\n    /* \"#utility.yul\":5220:5317   */\n  tag_109\n    /* \"#utility.yul\":5250:5316   */\n  0xffffffffffffffffffffffffffffffffffffffffffffffffffffffffffffffff\n    /* \"#utility.yul\":5239:5248   */\n  dup3\n    /* \"#utility.yul\":5220:5317   */\n  tag_38\n  jump\t// in\ntag_109:\n    /* \"#utility.yul\":5338:5377   */\n  tag_110\n    /* \"#utility.yul\":5368:5376   */\n  dup7\n    /* \"#utility.yul\":5357:5366   */\n  dup4\n    /* \"#utility.yul\":5338:5377   */\n  tag_38\n  jump\t// in\ntag_110:\n    /* \"#utility.yul\":5326:5377   */\n  swap6\n  pop\n    /* \"#utility.yul\":5410:5414   */\n  dup1\n    /* \"#utility.yul\":5406:5415   */\n  not\n    /* \"#utility.yul\":5399:5404   */\n  dup5\n    /* \"#utility.yul\":5395:5416   */\n  and\n    /* \"#utility.yul\":5386:5416   */\n  swap4\n  pop\n    /* \"#utility.yul\":5459:5463   */\n  dup1\n    /* \"#utility.yul\":5449:5457   */\n  dup7\n    /* \"#utility.yul\":5445:5464   */\n  and\n    /* \"#utility.yul\":5438:5443   */\n  dup5\n    /* \"#utility.yul\":5435:5465   */\n  or\n    /* \"#utility.yul\":5425:5465   */\n  swap3\n  pop\n    /* \"#utility.yul\":5154:5471   */\n  pop\n  pop\n    /* \"#utility.yul\":5078:5471   */\n  swap4\n  swap3\n  pop\n  pop\n  pop\n  jump\t// out\n    /* \"#utility.yul\":5477:5537   */\ntag_40:\n    /* \"#utility.yul\":5505:5508   */\n  0x00\n    /* \"#utility.yul\":5526:5531   */\n  dup2\n    /* \"#utility.yul\":5519:5531   */\n  swap1\n  pop\n    /* \"#utility.yul\":5477:5537   */\n  swap2\n  swap1\n  pop\n  jump\t// out\n    /* \"#utility.yul\":5543:5685   */\ntag_41:\n    /* \"#utility.yul\":5593:5602   */\n  0x00\n    /* \"#utility.yul\":5626:5679   */\n  tag_113\n    /* \"#utility.yul\":5644:5678   */\n  tag_114\n    /* \"#utility.yul\":5653:5677   */\n  tag_115\n    /* \"#utility.yul\":5671:5676   */\n  dup5\n    /* \"#utility.yul\":5653:5677   */\n  tag_30\n  jump\t// in\ntag_115:\n    /* \"#utility.yul\":5644:5678   */\n  tag_40\n  jump\t// in\ntag_114:\n    /* \"#utility.yul\":5626:5679   */\n  tag_30\n  jump\t// in\ntag_113:\n    /* \"#utility.yul\":5613:5679   */\n  swap1\n  pop\n    /* \"#utility.yul\":5543:5685   */\n  swap2\n  swap1\n  pop\n  jump\t// out\n    /* \"#utility.yul\":5691:5766   */\ntag_42:\n    /* \"#utility.yul\":5734:5737   */\n  0x00\n    /* \"#utility.yul\":5755:5760   */\n  dup2\n    /* \"#utility.yul\":5748:5760   */\n  swap1\n  pop\n    /* \"#utility.yul\":5691:5766   */\n  swap2\n  swap1\n  pop\n  jump\t// out\n    /* \"#utility.yul\":5772:6041   */\ntag_43:\n    /* \"#utility.yul\":5882:5921   */\n  tag_118\n    /* \"#utility.yul\":5913:5920   */\n  dup4\n    /* \"#utility.yul\":5882:5921   */\n  tag_41\n  jump\t// in\ntag_118:\n    /* \"#utility.yul\":5943:6034   */\n  tag_119\n    /* \"#utility.yul\":5992:6033   */\n  tag_120\n    /* \"#utility.yul\":6016:6032   */\n  dup3\n    /* \"#utility.yul\":5992:6033   */\n  tag_42\n  jump\t// in\ntag_120:\n    /* \"#utility.yul\":5984:5990   */\n  dup5\n    /* \"#utility.yul\":5977:5981   */\n  dup5\n    /* \"#utility.yul\":5971:5982   */\n  sload\n    /* \"#utility.yul\":5943:6034   */\n  tag_39\n  jump\t// in\ntag_119:\n    /* \"#utility.yul\":5937:5941   */\n  dup3\n    /* \"#utility.yul\":5930:6035   */\n  sstore\n    /* \"#utility.yul\":5848:6041   */\n  pop\n    /* \"#utility.yul\":5772:6041   */\n  pop\n  pop\n  pop\n  jump\t// out\n    /* \"#utility.yul\":6047:6120   */\ntag_44:\n    /* \"#utility.yul\":6092:6095   */\n  0x00\n    /* \"#utility.yul\":6047:6120   */\n  swap1\n  jump\t// out\n    /* \"#utility.yul\":6126:6315   */\ntag_45:\n    /* \"#utility.yul\":6203:6235   */\n  tag_123\n  tag_44\n  jump\t// in\ntag_123:\n    /* \"#utility.yul\":6244:6309   */\n  tag_124\n    /* \"#utility.yul\":6302:6308   */\n  dup2\n    /* \"#utility.yul\":6294:6300   */\n  dup5\n    /* \"#utility.yul\":6288:6292   */\n  dup5\n    /* \"#utility.yul\":6244:6309   */\n  tag_43\n  jump\t// in\ntag_124:\n    /* \"#utility.yul\":6179:6315   */\n  pop\n    /* \"#utility.yul\":6126:6315   */\n  pop\n  pop\n  jump\t// out\n    /* \"#utility.yul\":6321:6507   */\ntag_46:\n    /* \"#utility.yul\":6381:6501   */\ntag_126:\n    /* \"#utility.yul\":6398:6401   */\n  dup2\n    /* \"#utility.yul\":6391:6396   */\n  dup2\n    /* \"#utility.yul\":6388:6402   */\n  lt\n    /* \"#utility.yul\":6381:6501   */\n  iszero\n  tag_128\n  jumpi\n    /* \"#utility.yul\":6452:6491   */\n  tag_129\n    /* \"#utility.yul\":6489:6490   */\n  0x00\n    /* \"#utility.yul\":6482:6487   */\n  dup3\n    /* \"#utility.yul\":6452:6491   */\n  tag_45\n  jump\t// in\ntag_129:\n    /* \"#utility.yul\":6425:6426   */\n  0x01\n    /* \"#utility.yul\":6418:6423   */\n  dup2\n    /* \"#utility.yul\":6414:6427   */\n  add\n    /* \"#utility.yul\":6405:6427   */\n  swap1\n  pop\n    /* \"#utility.yul\":6381:6501   */\n  jump(tag_126)\ntag_128:\n    /* \"#utility.yul\":6321:6507   */\n  pop\n  pop\n  jump\t// out\n    /* \"#utility.yul\":6513:7056   */\ntag_47:\n    /* \"#utility.yul\":6614:6616   */\n  0x1f\n    /* \"#utility.yul\":6609:6612   */\n  dup3\n    /* \"#utility.yul\":6606:6617   */\n  gt\n    /* \"#utility.yul\":6603:7049   */\n  iszero\n  tag_131\n  jumpi\n    /* \"#utility.yul\":6648:6686   */\n  tag_132\n    /* \"#utility.yul\":6680:6685   */\n  dup2\n    /* \"#utility.yul\":6648:6686   */\n  tag_36\n  jump\t// in\ntag_132:\n    /* \"#utility.yul\":6732:6761   */\n  tag_133\n    /* \"#utility.yul\":6750:6760   */\n  dup5\n    /* \"#utility.yul\":6732:6761   */\n  tag_37\n  jump\t// in\ntag_133:\n    /* \"#utility.yul\":6722:6730   */\n  dup2\n    /* \"#utility.yul\":6718:6762   */\n  add\n    /* \"#utility.yul\":6915:6917   */\n  0x20\n    /* \"#utility.yul\":6903:6913   */\n  dup6\n    /* \"#utility.yul\":6900:6918   */\n  lt\n    /* \"#utility.yul\":6897:6946   */\n  iszero\n  tag_134\n  jumpi\n    /* \"#utility.yul\":6936:6944   */\n  dup2\n    /* \"#utility.yul\":6921:6944   */\n  swap1\n  pop\n    /* \"#utility.yul\":6897:6946   */\ntag_134:\n    /* \"#utility.yul\":6959:7039   */\n  tag_135\n    /* \"#utility.yul\":7015:7037   */\n  tag_136\n    /* \"#utility.yul\":7033:7036   */\n  dup6\n    /* \"#utility.yul\":7015:7037   */\n  tag_37\n  jump\t// in\ntag_136:\n    /* \"#utility.yul\":7005:7013   */\n  dup4\n    /* \"#utility.yul\":7001:7038   */\n  add\n    /* \"#utility.yul\":6988:6999   */\n  dup3\n    /* \"#utility.yul\":6959:7039   */\n  tag_46\n  jump\t// in\ntag_135:\n    /* \"#utility.yul\":6618:7049   */\n  pop\n  pop\n    /* \"#utility.yul\":6603:7049   */\ntag_131:\n    /* \"#utility.yul\":6513:7056   */\n  pop\n  pop\n  pop\n  jump\t// out\n    /* \"#utility.yul\":7062:7179   */\ntag_48:\n    /* \"#utility.yul\":7116:7124   */\n  0x00\n    /* \"#utility.yul\":7166:7171   */\n  dup3\n    /* \"#utility.yul\":7160:7164   */\n  dup3\n    /* \"#utility.yul\":7156:7172   */\n  shr\n    /* \"#utility.yul\":7135:7172   */\n  swap1\n  pop\n    /* \"#utility.yul\":7062:7179   */\n  swap3\n  swap2\n  pop\n  pop\n  jump\t// out\n    /* \"#utility.yul\":7185:7354   */\ntag_49:\n    /* \"#utility.yul\":7229:7235   */\n  0x00\n    /* \"#utility.yul\":7262:7313   */\n  tag_139\n    /* \"#utility.yul\":7310:7311   */\n  0x00\n    /* \"#utility.yul\":7306:7312   */\n  not\n    /* \"#utility.yul\":7298:7303   */\n  dup5\n    /* \"#utility.yul\":7295:7296   */\n  0x08\n    /* \"#utility.yul\":7291:7304   */\n  mul\n    /* \"#utility.yul\":7262:7313   */\n  tag_48\n  jump\t// in\ntag_139:\n    /* \"#utility.yul\":7258:7314   */\n  not\n    /* \"#utility.yul\":7343:7347   */\n  dup1\n    /* \"#utility.yul\":7337:7341   */\n  dup4\n    /* \"#utility.yul\":7333:7348   */\n  and\n    /* \"#utility.yul\":7323:7348   */\n  swap2\n  pop\n    /* \"#utility.yul\":7236:7354   */\n  pop\n    /* \"#utility.yul\":7185:7354   */\n  swap3\n  swap2\n  pop\n  pop\n  jump\t// out\n    /* \"#utility.yul\":7359:7654   */\ntag_50:\n    /* \"#utility.yul\":7435:7439   */\n  0x00\n    /* \"#utility.yul\":7581:7610   */\n  tag_141\n    /* \"#utility.yul\":7606:7609   */\n  dup4\n    /* \"#utility.yul\":7600:7604   */\n  dup4\n    /* \"#utility.yul\":7581:7610   */\n  tag_49\n  jump\t// in\ntag_141:\n    /* \"#utility.yul\":7573:7610   */\n  swap2\n  pop\n    /* \"#utility.yul\":7643:7646   */\n  dup3\n    /* \"#utility.yul\":7640:7641   */\n  0x02\n    /* \"#utility.yul\":7636:7647   */\n  mul\n    /* \"#utility.yul\":7630:7634   */\n  dup3\n    /* \"#utility.yul\":7627:7648   */\n  or\n    /* \"#utility.yul\":7619:7648   */\n  swap1\n  pop\n    /* \"#utility.yul\":7359:7654   */\n  swap3\n  swap2\n  pop\n  pop\n  jump\t// out\n    /* \"#utility.yul\":7659:9054   */\ntag_7:\n    /* \"#utility.yul\":7776:7813   */\n  tag_143\n    /* \"#utility.yul\":7809:7812   */\n  dup3\n    /* \"#utility.yul\":7776:7813   */\n  tag_33\n  jump\t// in\ntag_143:\n    /* \"#utility.yul\":7878:7896   */\n  0xffffffffffffffff\n    /* \"#utility.yul\":7870:7876   */\n  dup2\n    /* \"#utility.yul\":7867:7897   */\n  gt\n    /* \"#utility.yul\":7864:7920   */\n  iszero\n  tag_144\n  jumpi\n    /* \"#utility.yul\":7900:7918   */\n  tag_145\n  tag_23\n  jump\t// in\ntag_145:\n    /* \"#utility.yul\":7864:7920   */\ntag_144:\n    /* \"#utility.yul\":7944:7982   */\n  tag_146\n    /* \"#utility.yul\":7976:7980   */\n  dup3\n    /* \"#utility.yul\":7970:7981   */\n  sload\n    /* \"#utility.yul\":7944:7982   */\n  tag_35\n  jump\t// in\ntag_146:\n    /* \"#utility.yul\":8029:8096   */\n  tag_147\n    /* \"#utility.yul\":8089:8095   */\n  dup3\n    /* \"#utility.yul\":8081:8087   */\n  dup3\n    /* \"#utility.yul\":8075:8079   */\n  dup6\n    /* \"#utility.yul\":8029:8096   */\n  tag_47\n  jump\t// in\ntag_147:\n    /* \"#utility.yul\":8123:8124   */\n  0x00\n    /* \"#utility.yul\":8147:8151   */\n  0x20\n    /* \"#utility.yul\":8134:8151   */\n  swap1\n  pop\n    /* \"#utility.yul\":8179:8181   */\n  0x1f\n    /* \"#utility.yul\":8171:8177   */\n  dup4\n    /* \"#utility.yul\":8168:8182   */\n  gt\n    /* \"#utility.yul\":8196:8197   */\n  0x01\n    /* \"#utility.yul\":8191:8809   */\n  dup2\n  eq\n  tag_149\n  jumpi\n    /* \"#utility.yul\":8853:8854   */\n  0x00\n    /* \"#utility.yul\":8870:8876   */\n  dup5\n    /* \"#utility.yul\":8867:8944   */\n  iszero\n  tag_150\n  jumpi\n    /* \"#utility.yul\":8919:8928   */\n  dup3\n    /* \"#utility.yul\":8914:8917   */\n  dup8\n    /* \"#utility.yul\":8910:8929   */\n  add\n    /* \"#utility.yul\":8904:8930   */\n  mload\n    /* \"#utility.yul\":8895:8930   */\n  swap1\n  pop\n    /* \"#utility.yul\":8867:8944   */\ntag_150:\n    /* \"#utility.yul\":8970:9037   */\n  tag_151\n    /* \"#utility.yul\":9030:9036   */\n  dup6\n    /* \"#utility.yul\":9023:9028   */\n  dup3\n    /* \"#utility.yul\":8970:9037   */\n  tag_50\n  jump\t// in\ntag_151:\n    /* \"#utility.yul\":8964:8968   */\n  dup7\n    /* \"#utility.yul\":8957:9038   */\n  sstore\n    /* \"#utility.yul\":8826:9048   */\n  pop\n    /* \"#utility.yul\":8161:9048   */\n  jump(tag_148)\n    /* \"#utility.yul\":8191:8809   */\ntag_149:\n    /* \"#utility.yul\":8243:8247   */\n  0x1f\n    /* \"#utility.yul\":8239:8248   */\n  not\n    /* \"#utility.yul\":8231:8237   */\n  dup5\n    /* \"#utility.yul\":8227:8249   */\n  and\n    /* \"#utility.yul\":8277:8314   */\n  tag_152\n    /* \"#utility.yul\":8309:8313   */\n  dup7\n    /* \"#utility.yul\":8277:8314   */\n  tag_36\n  jump\t// in\ntag_152:\n    /* \"#utility.yul\":8336:8337   */\n  0x00\n    /* \"#utility.yul\":8350:8558   */\ntag_153:\n    /* \"#utility.yul\":8364:8371   */\n  dup3\n    /* \"#utility.yul\":8361:8362   */\n  dup2\n    /* \"#utility.yul\":8358:8372   */\n  lt\n    /* \"#utility.yul\":8350:8558   */\n  iszero\n  tag_155\n  jumpi\n    /* \"#utility.yul\":8443:8452   */\n  dup5\n    /* \"#utility.yul\":8438:8441   */\n  dup10\n    /* \"#utility.yul\":8434:8453   */\n  add\n    /* \"#utility.yul\":8428:8454   */\n  mload\n    /* \"#utility.yul\":8420:8426   */\n  dup3\n    /* \"#utility.yul\":8413:8455   */\n  sstore\n    /* \"#utility.yul\":8494:8495   */\n  0x01\n    /* \"#utility.yul\":8486:8492   */\n  dup3\n    /* \"#utility.yul\":8482:8496   */\n  add\n    /* \"#utility.yul\":8472:8496   */\n  swap2\n  pop\n    /* \"#utility.yul\":8541:8543   */\n  0x20\n    /* \"#utility.yul\":8530:8539   */\n  dup6\n    /* \"#utility.yul\":8526:8544   */\n  add\n    /* \"#utility.yul\":8513:8544   */\n  swap5\n  pop\n    /* \"#utility.yul\":8387:8391   */\n  0x20\n    /* \"#utility.yul\":8384:8385   */\n  dup2\n    /* \"#utility.yul\":8380:8392   */\n  add\n    /* \"#utility.yul\":8375:8392   */\n  swap1\n  pop\n    /* \"#utility.yul\":8350:8558   */\n  jump(tag_153)\ntag_155:\n    /* \"#utility.yul\":8586:8592   */\n  dup7\n    /* \"#utility.yul\":8577:8584   */\n  dup4\n    /* \"#utility.yul\":8574:8593   */\n  lt\n    /* \"#utility.yul\":8571:8750   */\n  iszero\n  tag_156\n  jumpi\n    /* \"#utility.yul\":8644:8653   */\n  dup5\n    /* \"#utility.yul\":8639:8642   */\n  dup10\n    /* \"#utility.yul\":8635:8654   */\n  add\n    /* \"#utility.yul\":8629:8655   */\n  mload\n    /* \"#utility.yul\":8687:8735   */\n  tag_157\n    /* \"#utility.yul\":8729:8733   */\n  0x1f\n    /* \"#utility.yul\":8721:8727   */\n  dup10\n    /* \"#utility.yul\":8717:8734   */\n  and\n    /* \"#utility.yul\":8706:8715   */\n  dup3\n    /* \"#utility.yul\":8687:8735   */\n  tag_49\n  jump\t// in\ntag_157:\n    /* \"#utility.yul\":8679:8685   */\n  dup4\n    /* \"#utility.yul\":8672:8736   */\n  sstore\n    /* \"#utility.yul\":8594:8750   */\n  pop\n    /* \"#utility.yul\":8571:8750   */\ntag_156:\n    /* \"#utility.yul\":8796:8797   */\n  0x01\n    /* \"#utility.yul\":8792:8793   */\n  0x02\n    /* \"#utility.yul\":8784:8790   */\n  dup9\n    /* \"#utility.yul\":8780:8794   */\n  mul\n    /* \"#utility.yul\":8776:8798   */\n  add\n    /* \"#utility.yul\":8770:8774   */\n  dup9\n    /* \"#utility.yul\":8763:8799   */\n  sstore\n    /* \"#utility.yul\":8198:8809   */\n  pop\n  pop\n  pop\n    /* \"#utility.yul\":8161:9048   */\ntag_148:\n  pop\n    /* \"#utility.yul\":7751:9054   */\n  pop\n  pop\n  pop\n    /* \"#utility.yul\":7659:9054   */\n  pop\n  pop\n  jump\t// out\n    /* \"#utility.yul\":9060:9240   */\ntag_51:\n    /* \"#utility.yul\":9108:9185   */\n  0x4e487b7100000000000000000000000000000000000000000000000000000000\n    /* \"#utility.yul\":9105:9106   */\n  0x00\n    /* \"#utility.yul\":9098:9186   */\n  mstore\n    /* \"#utility.yul\":9205:9209   */\n  0x11\n    /* \"#utility.yul\":9202:9203   */\n  0x04\n    /* \"#utility.yul\":9195:9210   */\n  mstore\n    /* \"#utility.yul\":9229:9233   */\n  0x24\n    /* \"#utility.yul\":9226:9227   */\n  0x00\n    /* \"#utility.yul\":9219:9234   */\n  revert\n    /* \"#utility.yul\":9246:9656   */\ntag_10:\n    /* \"#utility.yul\":9286:9293   */\n  0x00\n    /* \"#utility.yul\":9309:9329   */\n  tag_160\n    /* \"#utility.yul\":9327:9328   */\n  dup3\n    /* \"#utility.yul\":9309:9329   */\n  tag_30\n  jump\t// in\ntag_160:\n    /* \"#utility.yul\":9304:9329   */\n  swap2\n  pop\n    /* \"#utility.yul\":9343:9363   */\n  tag_161\n    /* \"#utility.yul\":9361:9362   */\n  dup4\n    /* \"#utility.yul\":9343:9363   */\n  tag_30\n  jump\t// in\ntag_161:\n    /* \"#utility.yul\":9338:9363   */\n  swap3\n  pop\n    /* \"#utility.yul\":9398:9399   */\n  dup3\n    /* \"#utility.yul\":9395:9396   */\n  dup3\n    /* \"#utility.yul\":9391:9400   */\n  mul\n    /* \"#utility.yul\":9420:9450   */\n  tag_162\n    /* \"#utility.yul\":9438:9449   */\n  dup2\n    /* \"#utility.yul\":9420:9450   */\n  tag_30\n  jump\t// in\ntag_162:\n    /* \"#utility.yul\":9409:9450   */\n  swap2\n  pop\n    /* \"#utility.yul\":9599:9600   */\n  dup3\n    /* \"#utility.yul\":9590:9597   */\n  dup3\n    /* \"#utility.yul\":9586:9601   */\n  div\n    /* \"#utility.yul\":9583:9584   */\n  dup5\n    /* \"#utility.yul\":9580:9602   */\n  eq\n    /* \"#utility.yul\":9560:9561   */\n  dup4\n    /* \"#utility.yul\":9553:9562   */\n  iszero\n    /* \"#utility.yul\":9533:9616   */\n  or\n    /* \"#utility.yul\":9510:9649   */\n  tag_163\n  jumpi\n    /* \"#utility.yul\":9629:9647   */\n  tag_164\n  tag_51\n  jump\t// in\ntag_164:\n    /* \"#utility.yul\":9510:9649   */\ntag_163:\n    /* \"#utility.yul\":9294:9656   */\n  pop\n    /* \"#utility.yul\":9246:9656   */\n  swap3\n  swap2\n  pop\n  pop\n  jump\t// out\n    /* \"#utility.yul\":9662:9853   */\ntag_12:\n    /* \"#utility.yul\":9702:9705   */\n  0x00\n    /* \"#utility.yul\":9721:9741   */\n  tag_166\n    /* \"#utility.yul\":9739:9740   */\n  dup3\n    /* \"#utility.yul\":9721:9741   */\n  tag_30\n  jump\t// in\ntag_166:\n    /* \"#utility.yul\":9716:9741   */\n  swap2\n  pop\n    /* \"#utility.yul\":9755:9775   */\n  tag_167\n    /* \"#utility.yul\":9773:9774   */\n  dup4\n    /* \"#utility.yul\":9755:9775   */\n  tag_30\n  jump\t// in\ntag_167:\n    /* \"#utility.yul\":9750:9775   */\n  swap3\n  pop\n    /* \"#utility.yul\":9798:9799   */\n  dup3\n    /* \"#utility.yul\":9795:9796   */\n  dup3\n    /* \"#utility.yul\":9791:9800   */\n  add\n    /* \"#utility.yul\":9784:9800   */\n  swap1\n  pop\n    /* \"#utility.yul\":9819:9822   */\n  dup1\n    /* \"#utility.yul\":9816:9817   */\n  dup3\n    /* \"#utility.yul\":9813:9823   */\n  gt\n    /* \"#utility.yul\":9810:9846   */\n  iszero\n  tag_168\n  jumpi\n    /* \"#utility.yul\":9826:9844   */\n  tag_169\n  tag_51\n  jump\t// in\ntag_169:\n    /* \"#utility.yul\":9810:9846   */\ntag_168:\n    /* \"#utility.yul\":9662:9853   */\n  swap3\n  swap2\n  pop\n  pop\n  jump\t// out\n    /* \"#utility.yul\":9859:10039   */\ntag_15:\n    /* \"#utility.yul\":9907:9984   */\n  0x4e487b7100000000000000000000000000000000000000000000000000000000\n    /* \"#utility.yul\":9904:9905   */\n  0x00\n    /* \"#utility.yul\":9897:9985   */\n  mstore\n    /* \"#utility.yul\":10004:10008   */\n  0x21\n    /* \"#utility.yul\":10001:10002   */\n  0x04\n    /* \"#utility.yul\":9994:10009   */\n  mstore\n    /* \"#utility.yul\":10028:10032   */\n  0x24\n    /* \"#utility.yul\":10025:10026   */\n  0x00\n    /* \"#utility.yul\":10018:10033   */\n  revert\n    /* \"contracts/Crowdfunding.sol\":57:3199  contract Crowdfunding {... */\ntag_16:\n  dataSize(sub_0)\n  dup1\n  dataOffset(sub_0)\n  0x00\n  codecopy\n  0x00\n  return\nstop\n\nsub_0: assembly {\n        /* \"contracts/Crowdfunding.sol\":57:3199  contract Crowdfunding {... */\n      mstore(0x40, 0x80)\n      jumpi(tag_1, lt(calldatasize, 0x04))\n      shr(0xe0, calldataload(0x00))\n      dup1\n      0x6f9fb98a\n      gt\n      tag_15\n      jumpi\n      dup1\n      0x8da5cb5b\n      gt\n      tag_16\n      jumpi\n      dup1\n      0x8da5cb5b\n      eq\n      tag_11\n      jumpi\n      dup1\n      0x8ece7b91\n      eq\n      tag_12\n      jumpi\n      dup1\n      0xc19d93fb\n      eq\n      tag_13\n      jumpi\n      dup1\n      0xca1d209d\n      eq\n      tag_14\n      jumpi\n      jump(tag_1)\n    tag_16:\n      dup1\n      0x6f9fb98a\n      eq\n      tag_8\n      jumpi\n      dup1\n      0x7284e416\n      eq\n      tag_9\n      jumpi\n      dup1\n      0x7497211b\n      eq\n      tag_10\n      jumpi\n      jump(tag_1)\n    tag_15:\n      dup1\n      0x039af9eb\n      eq\n      tag_2\n      jumpi\n      dup1\n      0x06fdde03\n      eq\n      tag_3\n      jumpi\n      dup1\n      0x29dcb0cf\n      eq\n      tag_4\n      jumpi\n      dup1\n      0x3ccfd60b\n      eq\n      tag_5\n      jumpi\n      dup1\n      0x40193883\n      eq\n      tag_6\n      jumpi\n      dup1\n      0x5a9b0b89\n      eq\n      tag_7\n      jumpi\n    tag_1:\n      0x00\n      dup1\n      revert\n        /* \"contracts/Crowdfunding.sol\":400:419  Tier[] public tiers */\n    tag_2:\n      callvalue\n      dup1\n      iszero\n      tag_17\n      jumpi\n      0x00\n      dup1\n      revert\n    tag_17:\n      pop\n      tag_18\n      0x04\n      dup1\n      calldatasize\n      sub\n      dup2\n      add\n      swap1\n      tag_19\n      swap2\n      swap1\n      tag_20\n      jump\t// in\n    tag_19:\n      tag_21\n      jump\t// in\n    tag_18:\n      mload(0x40)\n      tag_22\n      swap4\n      swap3\n      swap2\n      swap1\n      tag_23\n      jump\t// in\n    tag_22:\n      mload(0x40)\n      dup1\n      swap2\n      sub\n      swap1\n      return\n        /* \"contracts/Crowdfunding.sol\":85:103  string public name */\n    tag_3:\n      callvalue\n      dup1\n      iszero\n      tag_24\n      jumpi\n      0x00\n      dup1\n      revert\n    tag_24:\n      pop\n      tag_25\n      tag_26\n      jump\t// in\n    tag_25:\n      mload(0x40)\n      tag_27\n      swap2\n      swap1\n      tag_28\n      jump\t// in\n    tag_27:\n      mload(0x40)\n      dup1\n      swap2\n      sub\n      swap1\n      return\n        /* \"contracts/Crowdfunding.sol\":166:189  uint256 public deadline */\n    tag_4:\n      callvalue\n      dup1\n      iszero\n      tag_29\n      jumpi\n      0x00\n      dup1\n      revert\n    tag_29:\n      pop\n      tag_30\n      tag_31\n      jump\t// in\n    tag_30:\n      mload(0x40)\n      tag_32\n      swap2\n      swap1\n      tag_33\n      jump\t// in\n    tag_32:\n      mload(0x40)\n      dup1\n      swap2\n      sub\n      swap1\n      return\n        /* \"contracts/Crowdfunding.sol\":2595:2928  function withdraw() public onlyOwner CampaignShouldSuccess {... */\n    tag_5:\n      callvalue\n      dup1\n      iszero\n      tag_34\n      jumpi\n      0x00\n      dup1\n      revert\n    tag_34:\n      pop\n      tag_35\n      tag_36\n      jump\t// in\n    tag_35:\n      stop\n        /* \"contracts/Crowdfunding.sol\":141:160  uint256 public goal */\n    tag_6:\n      callvalue\n      dup1\n      iszero\n      tag_37\n      jumpi\n      0x00\n      dup1\n      revert\n    tag_37:\n      pop\n      tag_38\n      tag_39\n      jump\t// in\n    tag_38:\n      mload(0x40)\n      tag_40\n      swap2\n      swap1\n      tag_33\n      jump\t// in\n    tag_40:\n      mload(0x40)\n      dup1\n      swap2\n      sub\n      swap1\n      return\n        /* \"contracts/Crowdfunding.sol\":3044:3194  function getInfo() public view returns (string memory) {... */\n    tag_7:\n      callvalue\n      dup1\n      iszero\n      tag_41\n      jumpi\n      0x00\n      dup1\n      revert\n    tag_41:\n      pop\n      tag_42\n      tag_43\n      jump\t// in\n    tag_42:\n      mload(0x40)\n      tag_44\n      swap2\n      swap1\n      tag_28\n      jump\t// in\n    tag_44:\n      mload(0x40)\n      dup1\n      swap2\n      sub\n      swap1\n      return\n        /* \"contracts/Crowdfunding.sol\":2934:3038  function getContractBalance() public view returns(uint256) {... */\n    tag_8:\n      callvalue\n      dup1\n      iszero\n      tag_45\n      jumpi\n      0x00\n      dup1\n      revert\n    tag_45:\n      pop\n      tag_46\n      tag_47\n      jump\t// in\n    tag_46:\n      mload(0x40)\n      tag_48\n      swap2\n      swap1\n      tag_33\n      jump\t// in\n    tag_48:\n      mload(0x40)\n      dup1\n      swap2\n      sub\n      swap1\n      return\n        /* \"contracts/Crowdfunding.sol\":110:135  string public description */\n    tag_9:\n      callvalue\n      dup1\n      iszero\n      tag_49\n      jumpi\n      0x00\n      dup1\n      revert\n    tag_49:\n      pop\n      tag_50\n      tag_51\n      jump\t// in\n    tag_50:\n      mload(0x40)\n      tag_52\n      swap2\n      swap1\n      tag_28\n      jump\t// in\n    tag_52:\n      mload(0x40)\n      dup1\n      swap2\n      sub\n      swap1\n      return\n        /* \"contracts/Crowdfunding.sol\":2398:2589  function removeTier(uint256 _index) public onlyOwner{... */\n    tag_10:\n      callvalue\n      dup1\n      iszero\n      tag_53\n      jumpi\n      0x00\n      dup1\n      revert\n    tag_53:\n      pop\n      tag_54\n      0x04\n      dup1\n      calldatasize\n      sub\n      dup2\n      add\n      swap1\n      tag_55\n      swap2\n      swap1\n      tag_20\n      jump\t// in\n    tag_55:\n      tag_56\n      jump\t// in\n    tag_54:\n      stop\n        /* \"contracts/Crowdfunding.sol\":195:215  address public owner */\n    tag_11:\n      callvalue\n      dup1\n      iszero\n      tag_57\n      jumpi\n      0x00\n      dup1\n      revert\n    tag_57:\n      pop\n      tag_58\n      tag_59\n      jump\t// in\n    tag_58:\n      mload(0x40)\n      tag_60\n      swap2\n      swap1\n      tag_61\n      jump\t// in\n    tag_60:\n      mload(0x40)\n      dup1\n      swap2\n      sub\n      swap1\n      return\n        /* \"contracts/Crowdfunding.sol\":2183:2392  function addTier(... */\n    tag_12:\n      callvalue\n      dup1\n      iszero\n      tag_62\n      jumpi\n      0x00\n      dup1\n      revert\n    tag_62:\n      pop\n      tag_63\n      0x04\n      dup1\n      calldatasize\n      sub\n      dup2\n      add\n      swap1\n      tag_64\n      swap2\n      swap1\n      tag_65\n      jump\t// in\n    tag_64:\n      tag_66\n      jump\t// in\n    tag_63:\n      stop\n        /* \"contracts/Crowdfunding.sol\":272:298  CampaignState public state */\n    tag_13:\n      callvalue\n      dup1\n      iszero\n      tag_67\n      jumpi\n      0x00\n      dup1\n      revert\n    tag_67:\n      pop\n      tag_68\n      tag_69\n      jump\t// in\n    tag_68:\n      mload(0x40)\n      tag_70\n      swap2\n      swap1\n      tag_71\n      jump\t// in\n    tag_70:\n      mload(0x40)\n      dup1\n      swap2\n      sub\n      swap1\n      return\n        /* \"contracts/Crowdfunding.sol\":1730:2177  function fund(uint256 _tierIndex) public payable isCampaignActive{... */\n    tag_14:\n      tag_72\n      0x04\n      dup1\n      calldatasize\n      sub\n      dup2\n      add\n      swap1\n      tag_73\n      swap2\n      swap1\n      tag_20\n      jump\t// in\n    tag_73:\n      tag_74\n      jump\t// in\n    tag_72:\n      stop\n        /* \"contracts/Crowdfunding.sol\":400:419  Tier[] public tiers */\n    tag_21:\n      0x05\n      dup2\n      dup2\n      sload\n      dup2\n      lt\n      tag_75\n      jumpi\n      0x00\n      dup1\n      revert\n    tag_75:\n      swap1\n      0x00\n      mstore\n      keccak256(0x00, 0x20)\n      swap1\n      0x03\n      mul\n      add\n      0x00\n      swap2\n      pop\n      swap1\n      pop\n      dup1\n      0x00\n      add\n      dup1\n      sload\n      tag_77\n      swap1\n      tag_78\n      jump\t// in\n    tag_77:\n      dup1\n      0x1f\n      add\n      0x20\n      dup1\n      swap2\n      div\n      mul\n      0x20\n      add\n      mload(0x40)\n      swap1\n      dup2\n      add\n      0x40\n      mstore\n      dup1\n      swap3\n      swap2\n      swap1\n      dup2\n      dup2\n      mstore\n      0x20\n      add\n      dup3\n      dup1\n      sload\n      tag_79\n      swap1\n      tag_78\n      jump\t// in\n    tag_79:\n      dup1\n      iszero\n      tag_80\n      jumpi\n      dup1\n      0x1f\n      lt\n      tag_81\n      jumpi\n      0x0100\n      dup1\n      dup4\n      sload\n      div\n      mul\n      dup4\n      mstore\n      swap2\n      0x20\n      add\n      swap2\n      jump(tag_80)\n    tag_81:\n      dup3\n      add\n      swap2\n      swap1\n      0x00\n      mstore\n      keccak256(0x00, 0x20)\n      swap1\n    tag_82:\n      dup2\n      sload\n      dup2\n      mstore\n      swap1\n      0x01\n      add\n      swap1\n      0x20\n      add\n      dup1\n      dup4\n      gt\n      tag_82\n      jumpi\n      dup3\n      swap1\n      sub\n      0x1f\n      and\n      dup3\n      add\n      swap2\n    tag_80:\n      pop\n      pop\n      pop\n      pop\n      pop\n      swap1\n      dup1\n      0x01\n      add\n      sload\n      swap1\n      dup1\n      0x02\n      add\n      sload\n      swap1\n      pop\n      dup4\n      jump\t// out\n        /* \"contracts/Crowdfunding.sol\":85:103  string public name */\n    tag_26:\n      0x00\n      dup1\n      sload\n      tag_83\n      swap1\n      tag_78\n      jump\t// in\n    tag_83:\n      dup1\n      0x1f\n      add\n      0x20\n      dup1\n      swap2\n      div\n      mul\n      0x20\n      add\n      mload(0x40)\n      swap1\n      dup2\n      add\n      0x40\n      mstore\n      dup1\n      swap3\n      swap2\n      swap1\n      dup2\n      dup2\n      mstore\n      0x20\n      add\n      dup3\n      dup1\n      sload\n      tag_84\n      swap1\n      tag_78\n      jump\t// in\n    tag_84:\n      dup1\n      iszero\n      tag_85\n      jumpi\n      dup1\n      0x1f\n      lt\n      tag_86\n      jumpi\n      0x0100\n      dup1\n      dup4\n      sload\n      div\n      mul\n      dup4\n      mstore\n      swap2\n      0x20\n      add\n      swap2\n      jump(tag_85)\n    tag_86:\n      dup3\n      add\n      swap2\n      swap1\n      0x00\n      mstore\n      keccak256(0x00, 0x20)\n      swap1\n    tag_87:\n      dup2\n      sload\n      dup2\n      mstore\n      swap1\n      0x01\n      add\n      swap1\n      0x20\n      add\n      dup1\n      dup4\n      gt\n      tag_87\n      jumpi\n      dup3\n      swap1\n      sub\n      0x1f\n      and\n      dup3\n      add\n      swap2\n    tag_85:\n      pop\n      pop\n      pop\n      pop\n      pop\n      dup2\n      jump\t// out\n        /* \"contracts/Crowdfunding.sol\":166:189  uint256 public deadline */\n    tag_31:\n      sload(0x03)\n      dup2\n      jump\t// out\n        /* \"contracts/Crowdfunding.sol\":2595:2928  function withdraw() public onlyOwner CampaignShouldSuccess {... */\n    tag_36:\n        /* \"contracts/Crowdfunding.sol\":505:510  owner */\n      0x04\n      0x00\n      swap1\n      sload\n      swap1\n      0x0100\n      exp\n      swap1\n      div\n      0xffffffffffffffffffffffffffffffffffffffff\n      and\n        /* \"contracts/Crowdfunding.sol\":491:510  msg.sender == owner */\n      0xffffffffffffffffffffffffffffffffffffffff\n      and\n        /* \"contracts/Crowdfunding.sol\":491:501  msg.sender */\n      caller\n        /* \"contracts/Crowdfunding.sol\":491:510  msg.sender == owner */\n      0xffffffffffffffffffffffffffffffffffffffff\n      and\n      eq\n        /* \"contracts/Crowdfunding.sol\":483:553  require(msg.sender == owner, \"You are not the owner of this contract\") */\n      tag_89\n      jumpi\n      mload(0x40)\n      0x08c379a000000000000000000000000000000000000000000000000000000000\n      dup2\n      mstore\n      0x04\n      add\n      tag_90\n      swap1\n      tag_91\n      jump\t// in\n    tag_90:\n      mload(0x40)\n      dup1\n      swap2\n      sub\n      swap1\n      revert\n    tag_89:\n        /* \"contracts/Crowdfunding.sol\":817:838  CampaignState.Success */\n      0x01\n        /* \"contracts/Crowdfunding.sol\":808:838  state == CampaignState.Success */\n      0x02\n      dup2\n      gt\n      iszero\n      tag_93\n      jumpi\n      tag_94\n      tag_95\n      jump\t// in\n    tag_94:\n    tag_93:\n        /* \"contracts/Crowdfunding.sol\":808:813  state */\n      0x04\n      0x14\n      swap1\n      sload\n      swap1\n      0x0100\n      exp\n      swap1\n      div\n      0xff\n      and\n        /* \"contracts/Crowdfunding.sol\":808:838  state == CampaignState.Success */\n      0x02\n      dup2\n      gt\n      iszero\n      tag_96\n      jumpi\n      tag_97\n      tag_95\n      jump\t// in\n    tag_97:\n    tag_96:\n      eq\n        /* \"contracts/Crowdfunding.sol\":800:866  require(state == CampaignState.Success, \"Campaign is not success\") */\n      tag_98\n      jumpi\n      mload(0x40)\n      0x08c379a000000000000000000000000000000000000000000000000000000000\n      dup2\n      mstore\n      0x04\n      add\n      tag_99\n      swap1\n      tag_100\n      jump\t// in\n    tag_99:\n      mload(0x40)\n      dup1\n      swap2\n      sub\n      swap1\n      revert\n    tag_98:\n        /* \"contracts/Crowdfunding.sol\":2744:2773  checkAndUpdateCampaignState() */\n      tag_102\n        /* \"contracts/Crowdfunding.sol\":2744:2771  checkAndUpdateCampaignState */\n      tag_103\n        /* \"contracts/Crowdfunding.sol\":2744:2773  checkAndUpdateCampaignState() */\n      jump\t// in\n    tag_102:\n        /* \"contracts/Crowdfunding.sol\":2784:2799  uint256 balance */\n      0x00\n        /* \"contracts/Crowdfunding.sol\":2802:2823  address(this).balance */\n      selfbalance\n        /* \"contracts/Crowdfunding.sol\":2784:2823  uint256 balance = address(this).balance */\n      swap1\n      pop\n        /* \"contracts/Crowdfunding.sol\":2851:2852  0 */\n      0x00\n        /* \"contracts/Crowdfunding.sol\":2841:2848  balance */\n      dup2\n        /* \"contracts/Crowdfunding.sol\":2841:2852  balance > 0 */\n      gt\n        /* \"contracts/Crowdfunding.sol\":2833:2879  require(balance > 0, \"No balance to withdraw\") */\n      tag_104\n      jumpi\n      mload(0x40)\n      0x08c379a000000000000000000000000000000000000000000000000000000000\n      dup2\n      mstore\n      0x04\n      add\n      tag_105\n      swap1\n      tag_106\n      jump\t// in\n    tag_105:\n      mload(0x40)\n      dup1\n      swap2\n      sub\n      swap1\n      revert\n    tag_104:\n        /* \"contracts/Crowdfunding.sol\":2897:2902  owner */\n      0x04\n      0x00\n      swap1\n      sload\n      swap1\n      0x0100\n      exp\n      swap1\n      div\n      0xffffffffffffffffffffffffffffffffffffffff\n      and\n        /* \"contracts/Crowdfunding.sol\":2889:2912  payable(owner).transfer */\n      0xffffffffffffffffffffffffffffffffffffffff\n      and\n        /* \"contracts/Crowdfunding.sol\":2889:2921  payable(owner).transfer(balance) */\n      0x08fc\n        /* \"contracts/Crowdfunding.sol\":2913:2920  balance */\n      dup3\n        /* \"contracts/Crowdfunding.sol\":2889:2921  payable(owner).transfer(balance) */\n      swap1\n      dup2\n      iszero\n      mul\n      swap1\n      mload(0x40)\n      0x00\n      mload(0x40)\n      dup1\n      dup4\n      sub\n      dup2\n      dup6\n      dup9\n      dup9\n      call\n      swap4\n      pop\n      pop\n      pop\n      pop\n      iszero\n      dup1\n      iszero\n      tag_108\n      jumpi\n      returndatasize\n      0x00\n      dup1\n      returndatacopy\n      revert(0x00, returndatasize)\n    tag_108:\n      pop\n        /* \"contracts/Crowdfunding.sol\":2654:2928  {... */\n      pop\n        /* \"contracts/Crowdfunding.sol\":2595:2928  function withdraw() public onlyOwner CampaignShouldSuccess {... */\n      jump\t// out\n        /* \"contracts/Crowdfunding.sol\":141:160  uint256 public goal */\n    tag_39:\n      sload(0x02)\n      dup2\n      jump\t// out\n        /* \"contracts/Crowdfunding.sol\":3044:3194  function getInfo() public view returns (string memory) {... */\n    tag_43:\n        /* \"contracts/Crowdfunding.sol\":3084:3097  string memory */\n      0x60\n        /* \"contracts/Crowdfunding.sol\":3150:3154  name */\n      0x00\n        /* \"contracts/Crowdfunding.sol\":3174:3185  description */\n      0x01\n        /* \"contracts/Crowdfunding.sol\":3123:3186  abi.encodePacked('Name: ', name, ' Description: ', description) */\n      add(0x20, mload(0x40))\n      tag_110\n      swap3\n      swap2\n      swap1\n      tag_111\n      jump\t// in\n    tag_110:\n      mload(0x40)\n      0x20\n      dup2\n      dup4\n      sub\n      sub\n      dup2\n      mstore\n      swap1\n      0x40\n      mstore\n        /* \"contracts/Crowdfunding.sol\":3109:3187  return string(abi.encodePacked('Name: ', name, ' Description: ', description)) */\n      swap1\n      pop\n        /* \"contracts/Crowdfunding.sol\":3044:3194  function getInfo() public view returns (string memory) {... */\n      swap1\n      jump\t// out\n        /* \"contracts/Crowdfunding.sol\":2934:3038  function getContractBalance() public view returns(uint256) {... */\n    tag_47:\n        /* \"contracts/Crowdfunding.sol\":2984:2991  uint256 */\n      0x00\n        /* \"contracts/Crowdfunding.sol\":3010:3031  address(this).balance */\n      selfbalance\n        /* \"contracts/Crowdfunding.sol\":3003:3031  return address(this).balance */\n      swap1\n      pop\n        /* \"contracts/Crowdfunding.sol\":2934:3038  function getContractBalance() public view returns(uint256) {... */\n      swap1\n      jump\t// out\n        /* \"contracts/Crowdfunding.sol\":110:135  string public description */\n    tag_51:\n      0x01\n      dup1\n      sload\n      tag_113\n      swap1\n      tag_78\n      jump\t// in\n    tag_113:\n      dup1\n      0x1f\n      add\n      0x20\n      dup1\n      swap2\n      div\n      mul\n      0x20\n      add\n      mload(0x40)\n      swap1\n      dup2\n      add\n      0x40\n      mstore\n      dup1\n      swap3\n      swap2\n      swap1\n      dup2\n      dup2\n      mstore\n      0x20\n      add\n      dup3\n      dup1\n      sload\n      tag_114\n      swap1\n      tag_78\n      jump\t// in\n    tag_114:\n      dup1\n      iszero\n      tag_115\n      jumpi\n      dup1\n      0x1f\n      lt\n      tag_116\n      jumpi\n      0x0100\n      dup1\n      dup4\n      sload\n      div\n      mul\n      dup4\n      mstore\n      swap2\n      0x20\n      add\n      swap2\n      jump(tag_115)\n    tag_116:\n      dup3\n      add\n      swap2\n      swap1\n      0x00\n      mstore\n      keccak256(0x00, 0x20)\n      swap1\n    tag_117:\n      dup2\n      sload\n      dup2\n      mstore\n      swap1\n      0x01\n      add\n      swap1\n      0x20\n      add\n      dup1\n      dup4\n      gt\n      tag_117\n      jumpi\n      dup3\n      swap1\n      sub\n      0x1f\n      and\n      dup3\n      add\n      swap2\n    tag_115:\n      pop\n      pop\n      pop\n      pop\n      pop\n      dup2\n      jump\t// out\n        /* \"contracts/Crowdfunding.sol\":2398:2589  function removeTier(uint256 _index) public onlyOwner{... */\n    tag_56:\n        /* \"contracts/Crowdfunding.sol\":505:510  owner */\n      0x04\n      0x00\n      swap1\n      sload\n      swap1\n      0x0100\n      exp\n      swap1\n      div\n      0xffffffffffffffffffffffffffffffffffffffff\n      and\n        /* \"contracts/Crowdfunding.sol\":491:510  msg.sender == owner */\n      0xffffffffffffffffffffffffffffffffffffffff\n      and\n        /* \"contracts/Crowdfunding.sol\":491:501  msg.sender */\n      caller\n        /* \"contracts/Crowdfunding.sol\":491:510  msg.sender == owner */\n      0xffffffffffffffffffffffffffffffffffffffff\n      and\n      eq\n        /* \"contracts/Crowdfunding.sol\":483:553  require(msg.sender == owner, \"You are not the owner of this contract\") */\n      tag_119\n      jumpi\n      mload(0x40)\n      0x08c379a000000000000000000000000000000000000000000000000000000000\n      dup2\n      mstore\n      0x04\n      add\n      tag_120\n      swap1\n      tag_91\n      jump\t// in\n    tag_120:\n      mload(0x40)\n      dup1\n      swap2\n      sub\n      swap1\n      revert\n    tag_119:\n        /* \"contracts/Crowdfunding.sol\":2477:2482  tiers */\n      0x05\n        /* \"contracts/Crowdfunding.sol\":2477:2489  tiers.length */\n      dup1\n      sload\n      swap1\n      pop\n        /* \"contracts/Crowdfunding.sol\":2468:2474  _index */\n      dup2\n        /* \"contracts/Crowdfunding.sol\":2468:2489  _index < tiers.length */\n      lt\n        /* \"contracts/Crowdfunding.sol\":2460:2513  require(_index < tiers.length, \"Tier doesn't exists\") */\n      tag_122\n      jumpi\n      mload(0x40)\n      0x08c379a000000000000000000000000000000000000000000000000000000000\n      dup2\n      mstore\n      0x04\n      add\n      tag_123\n      swap1\n      tag_124\n      jump\t// in\n    tag_123:\n      mload(0x40)\n      dup1\n      swap2\n      sub\n      swap1\n      revert\n    tag_122:\n        /* \"contracts/Crowdfunding.sol\":2539:2544  tiers */\n      0x05\n        /* \"contracts/Crowdfunding.sol\":2559:2560  1 */\n      0x01\n        /* \"contracts/Crowdfunding.sol\":2545:2550  tiers */\n      0x05\n        /* \"contracts/Crowdfunding.sol\":2545:2557  tiers.length */\n      dup1\n      sload\n      swap1\n      pop\n        /* \"contracts/Crowdfunding.sol\":2545:2560  tiers.length -1 */\n      tag_125\n      swap2\n      swap1\n      tag_126\n      jump\t// in\n    tag_125:\n        /* \"contracts/Crowdfunding.sol\":2539:2561  tiers[tiers.length -1] */\n      dup2\n      sload\n      dup2\n      lt\n      tag_127\n      jumpi\n      tag_128\n      tag_129\n      jump\t// in\n    tag_128:\n    tag_127:\n      swap1\n      0x00\n      mstore\n      keccak256(0x00, 0x20)\n      swap1\n      0x03\n      mul\n      add\n        /* \"contracts/Crowdfunding.sol\":2523:2528  tiers */\n      0x05\n        /* \"contracts/Crowdfunding.sol\":2529:2535  _index */\n      dup3\n        /* \"contracts/Crowdfunding.sol\":2523:2536  tiers[_index] */\n      dup2\n      sload\n      dup2\n      lt\n      tag_131\n      jumpi\n      tag_132\n      tag_129\n      jump\t// in\n    tag_132:\n    tag_131:\n      swap1\n      0x00\n      mstore\n      keccak256(0x00, 0x20)\n      swap1\n      0x03\n      mul\n      add\n        /* \"contracts/Crowdfunding.sol\":2523:2561  tiers[_index] = tiers[tiers.length -1] */\n      0x00\n      dup3\n      add\n      dup2\n      0x00\n      add\n      swap1\n      dup2\n      tag_134\n      swap2\n      swap1\n      tag_135\n      jump\t// in\n    tag_134:\n      pop\n      0x01\n      dup3\n      add\n      sload\n      dup2\n      0x01\n      add\n      sstore\n      0x02\n      dup3\n      add\n      sload\n      dup2\n      0x02\n      add\n      sstore\n      swap1\n      pop\n      pop\n        /* \"contracts/Crowdfunding.sol\":2571:2576  tiers */\n      0x05\n        /* \"contracts/Crowdfunding.sol\":2571:2582  tiers.pop() */\n      dup1\n      sload\n      dup1\n      tag_136\n      jumpi\n      tag_137\n      tag_138\n      jump\t// in\n    tag_137:\n    tag_136:\n      0x01\n      swap1\n      sub\n      dup2\n      dup2\n      swap1\n      0x00\n      mstore\n      keccak256(0x00, 0x20)\n      swap1\n      0x03\n      mul\n      add\n      0x00\n      dup1\n      dup3\n      add\n      0x00\n      tag_140\n      swap2\n      swap1\n      tag_141\n      jump\t// in\n    tag_140:\n      0x01\n      dup3\n      add\n      0x00\n      swap1\n      sstore\n      0x02\n      dup3\n      add\n      0x00\n      swap1\n      sstore\n      pop\n      pop\n      swap1\n      sstore\n        /* \"contracts/Crowdfunding.sol\":2398:2589  function removeTier(uint256 _index) public onlyOwner{... */\n      pop\n      jump\t// out\n        /* \"contracts/Crowdfunding.sol\":195:215  address public owner */\n    tag_59:\n      0x04\n      0x00\n      swap1\n      sload\n      swap1\n      0x0100\n      exp\n      swap1\n      div\n      0xffffffffffffffffffffffffffffffffffffffff\n      and\n      dup2\n      jump\t// out\n        /* \"contracts/Crowdfunding.sol\":2183:2392  function addTier(... */\n    tag_66:\n        /* \"contracts/Crowdfunding.sol\":505:510  owner */\n      0x04\n      0x00\n      swap1\n      sload\n      swap1\n      0x0100\n      exp\n      swap1\n      div\n      0xffffffffffffffffffffffffffffffffffffffff\n      and\n        /* \"contracts/Crowdfunding.sol\":491:510  msg.sender == owner */\n      0xffffffffffffffffffffffffffffffffffffffff\n      and\n        /* \"contracts/Crowdfunding.sol\":491:501  msg.sender */\n      caller\n        /* \"contracts/Crowdfunding.sol\":491:510  msg.sender == owner */\n      0xffffffffffffffffffffffffffffffffffffffff\n      and\n      eq\n        /* \"contracts/Crowdfunding.sol\":483:553  require(msg.sender == owner, \"You are not the owner of this contract\") */\n      tag_143\n      jumpi\n      mload(0x40)\n      0x08c379a000000000000000000000000000000000000000000000000000000000\n      dup2\n      mstore\n      0x04\n      add\n      tag_144\n      swap1\n      tag_91\n      jump\t// in\n    tag_144:\n      mload(0x40)\n      dup1\n      swap2\n      sub\n      swap1\n      revert\n    tag_143:\n        /* \"contracts/Crowdfunding.sol\":2304:2305  0 */\n      0x00\n        /* \"contracts/Crowdfunding.sol\":2294:2301  _amount */\n      dup2\n        /* \"contracts/Crowdfunding.sol\":2294:2305  _amount > 0 */\n      gt\n        /* \"contracts/Crowdfunding.sol\":2286:2340  require(_amount > 0, \"Amount must be greater thatn 0\") */\n      tag_146\n      jumpi\n      mload(0x40)\n      0x08c379a000000000000000000000000000000000000000000000000000000000\n      dup2\n      mstore\n      0x04\n      add\n      tag_147\n      swap1\n      tag_148\n      jump\t// in\n    tag_147:\n      mload(0x40)\n      dup1\n      swap2\n      sub\n      swap1\n      revert\n    tag_146:\n        /* \"contracts/Crowdfunding.sol\":2350:2355  tiers */\n      0x05\n        /* \"contracts/Crowdfunding.sol\":2361:2384  Tier(_name, _amount, 0) */\n      mload(0x40)\n      dup1\n      0x60\n      add\n      0x40\n      mstore\n      dup1\n        /* \"contracts/Crowdfunding.sol\":2366:2371  _name */\n      dup5\n        /* \"contracts/Crowdfunding.sol\":2361:2384  Tier(_name, _amount, 0) */\n      dup2\n      mstore\n      0x20\n      add\n        /* \"contracts/Crowdfunding.sol\":2373:2380  _amount */\n      dup4\n        /* \"contracts/Crowdfunding.sol\":2361:2384  Tier(_name, _amount, 0) */\n      dup2\n      mstore\n      0x20\n      add\n        /* \"contracts/Crowdfunding.sol\":2382:2383  0 */\n      0x00\n        /* \"contracts/Crowdfunding.sol\":2361:2384  Tier(_name, _amount, 0) */\n      dup2\n      mstore\n      pop\n        /* \"contracts/Crowdfunding.sol\":2350:2385  tiers.push(Tier(_name, _amount, 0)) */\n      swap1\n      dup1\n      0x01\n      dup2\n      sload\n      add\n      dup1\n      dup3\n      sstore\n      dup1\n      swap2\n      pop\n      pop\n      0x01\n      swap1\n      sub\n      swap1\n      0x00\n      mstore\n      keccak256(0x00, 0x20)\n      swap1\n      0x03\n      mul\n      add\n      0x00\n      swap1\n      swap2\n      swap1\n      swap2\n      swap1\n      swap2\n      pop\n      0x00\n      dup3\n      add\n      mload\n      dup2\n      0x00\n      add\n      swap1\n      dup2\n      tag_150\n      swap2\n      swap1\n      tag_151\n      jump\t// in\n    tag_150:\n      pop\n      0x20\n      dup3\n      add\n      mload\n      dup2\n      0x01\n      add\n      sstore\n      0x40\n      dup3\n      add\n      mload\n      dup2\n      0x02\n      add\n      sstore\n      pop\n      pop\n        /* \"contracts/Crowdfunding.sol\":2183:2392  function addTier(... */\n      pop\n      pop\n      jump\t// out\n        /* \"contracts/Crowdfunding.sol\":272:298  CampaignState public state */\n    tag_69:\n      0x04\n      0x14\n      swap1\n      sload\n      swap1\n      0x0100\n      exp\n      swap1\n      div\n      0xff\n      and\n      dup2\n      jump\t// out\n        /* \"contracts/Crowdfunding.sol\":1730:2177  function fund(uint256 _tierIndex) public payable isCampaignActive{... */\n    tag_74:\n        /* \"contracts/Crowdfunding.sol\":686:706  CampaignState.Active */\n      0x00\n        /* \"contracts/Crowdfunding.sol\":677:706  state == CampaignState.Active */\n      0x02\n      dup2\n      gt\n      iszero\n      tag_153\n      jumpi\n      tag_154\n      tag_95\n      jump\t// in\n    tag_154:\n    tag_153:\n        /* \"contracts/Crowdfunding.sol\":677:682  state */\n      0x04\n      0x14\n      swap1\n      sload\n      swap1\n      0x0100\n      exp\n      swap1\n      div\n      0xff\n      and\n        /* \"contracts/Crowdfunding.sol\":677:706  state == CampaignState.Active */\n      0x02\n      dup2\n      gt\n      iszero\n      tag_155\n      jumpi\n      tag_156\n      tag_95\n      jump\t// in\n    tag_156:\n    tag_155:\n      eq\n        /* \"contracts/Crowdfunding.sol\":669:733  require(state == CampaignState.Active, \"Campaign is not active\") */\n      tag_157\n      jumpi\n      mload(0x40)\n      0x08c379a000000000000000000000000000000000000000000000000000000000\n      dup2\n      mstore\n      0x04\n      add\n      tag_158\n      swap1\n      tag_159\n      jump\t// in\n    tag_158:\n      mload(0x40)\n      dup1\n      swap2\n      sub\n      swap1\n      revert\n    tag_157:\n        /* \"contracts/Crowdfunding.sol\":1987:1992  tiers */\n      0x05\n        /* \"contracts/Crowdfunding.sol\":1987:1999  tiers.length */\n      dup1\n      sload\n      swap1\n      pop\n        /* \"contracts/Crowdfunding.sol\":1974:1984  _tierIndex */\n      dup2\n        /* \"contracts/Crowdfunding.sol\":1974:1999  _tierIndex < tiers.length */\n      lt\n        /* \"contracts/Crowdfunding.sol\":1966:2016  require(_tierIndex < tiers.length, \"Invalid tier\") */\n      tag_161\n      jumpi\n      mload(0x40)\n      0x08c379a000000000000000000000000000000000000000000000000000000000\n      dup2\n      mstore\n      0x04\n      add\n      tag_162\n      swap1\n      tag_163\n      jump\t// in\n    tag_162:\n      mload(0x40)\n      dup1\n      swap2\n      sub\n      swap1\n      revert\n    tag_161:\n        /* \"contracts/Crowdfunding.sol\":2047:2052  tiers */\n      0x05\n        /* \"contracts/Crowdfunding.sol\":2053:2063  _tierIndex */\n      dup2\n        /* \"contracts/Crowdfunding.sol\":2047:2064  tiers[_tierIndex] */\n      dup2\n      sload\n      dup2\n      lt\n      tag_164\n      jumpi\n      tag_165\n      tag_129\n      jump\t// in\n    tag_165:\n    tag_164:\n      swap1\n      0x00\n      mstore\n      keccak256(0x00, 0x20)\n      swap1\n      0x03\n      mul\n      add\n        /* \"contracts/Crowdfunding.sol\":2047:2071  tiers[_tierIndex].amount */\n      0x01\n      add\n      sload\n        /* \"contracts/Crowdfunding.sol\":2034:2043  msg.value */\n      callvalue\n        /* \"contracts/Crowdfunding.sol\":2034:2071  msg.value == tiers[_tierIndex].amount */\n      eq\n        /* \"contracts/Crowdfunding.sol\":2026:2092  require(msg.value == tiers[_tierIndex].amount, \"Incorrect amount\") */\n      tag_167\n      jumpi\n      mload(0x40)\n      0x08c379a000000000000000000000000000000000000000000000000000000000\n      dup2\n      mstore\n      0x04\n      add\n      tag_168\n      swap1\n      tag_169\n      jump\t// in\n    tag_168:\n      mload(0x40)\n      dup1\n      swap2\n      sub\n      swap1\n      revert\n    tag_167:\n        /* \"contracts/Crowdfunding.sol\":2103:2108  tiers */\n      0x05\n        /* \"contracts/Crowdfunding.sol\":2109:2119  _tierIndex */\n      dup2\n        /* \"contracts/Crowdfunding.sol\":2103:2120  tiers[_tierIndex] */\n      dup2\n      sload\n      dup2\n      lt\n      tag_170\n      jumpi\n      tag_171\n      tag_129\n      jump\t// in\n    tag_171:\n    tag_170:\n      swap1\n      0x00\n      mstore\n      keccak256(0x00, 0x20)\n      swap1\n      0x03\n      mul\n      add\n        /* \"contracts/Crowdfunding.sol\":2103:2128  tiers[_tierIndex].backers */\n      0x02\n      add\n      0x00\n        /* \"contracts/Crowdfunding.sol\":2103:2130  tiers[_tierIndex].backers++ */\n      dup2\n      sload\n      dup1\n      swap3\n      swap2\n      swap1\n      tag_173\n      swap1\n      tag_174\n      jump\t// in\n    tag_173:\n      swap2\n      swap1\n      pop\n      sstore\n      pop\n        /* \"contracts/Crowdfunding.sol\":2141:2170  checkAndUpdateCampaignState() */\n      tag_175\n        /* \"contracts/Crowdfunding.sol\":2141:2168  checkAndUpdateCampaignState */\n      tag_103\n        /* \"contracts/Crowdfunding.sol\":2141:2170  checkAndUpdateCampaignState() */\n      jump\t// in\n    tag_175:\n        /* \"contracts/Crowdfunding.sol\":1730:2177  function fund(uint256 _tierIndex) public payable isCampaignActive{... */\n      pop\n      jump\t// out\n        /* \"contracts/Crowdfunding.sol\":1331:1724  function checkAndUpdateCampaignState() internal {... */\n    tag_103:\n        /* \"contracts/Crowdfunding.sol\":1401:1421  CampaignState.Active */\n      0x00\n        /* \"contracts/Crowdfunding.sol\":1392:1421  state == CampaignState.Active */\n      0x02\n      dup2\n      gt\n      iszero\n      tag_177\n      jumpi\n      tag_178\n      tag_95\n      jump\t// in\n    tag_178:\n    tag_177:\n        /* \"contracts/Crowdfunding.sol\":1392:1397  state */\n      0x04\n      0x14\n      swap1\n      sload\n      swap1\n      0x0100\n      exp\n      swap1\n      div\n      0xff\n      and\n        /* \"contracts/Crowdfunding.sol\":1392:1421  state == CampaignState.Active */\n      0x02\n      dup2\n      gt\n      iszero\n      tag_179\n      jumpi\n      tag_180\n      tag_95\n      jump\t// in\n    tag_180:\n    tag_179:\n      sub\n        /* \"contracts/Crowdfunding.sol\":1389:1718  if(state == CampaignState.Active){... */\n      tag_181\n      jumpi\n        /* \"contracts/Crowdfunding.sol\":1458:1466  deadline */\n      sload(0x03)\n        /* \"contracts/Crowdfunding.sol\":1439:1454  block.timestamp */\n      timestamp\n        /* \"contracts/Crowdfunding.sol\":1439:1466  block.timestamp >= deadline */\n      lt\n        /* \"contracts/Crowdfunding.sol\":1436:1708  if(block.timestamp >= deadline){... */\n      tag_182\n      jumpi\n        /* \"contracts/Crowdfunding.sol\":1518:1522  goal */\n      sload(0x02)\n        /* \"contracts/Crowdfunding.sol\":1493:1514  address(this).balance */\n      selfbalance\n        /* \"contracts/Crowdfunding.sol\":1493:1522  address(this).balance >= goal */\n      lt\n      iszero\n        /* \"contracts/Crowdfunding.sol\":1493:1569  address(this).balance >= goal ? CampaignState.Success : CampaignState.Failed */\n      tag_183\n      jumpi\n        /* \"contracts/Crowdfunding.sol\":1549:1569  CampaignState.Failed */\n      0x02\n        /* \"contracts/Crowdfunding.sol\":1493:1569  address(this).balance >= goal ? CampaignState.Success : CampaignState.Failed */\n      jump(tag_184)\n    tag_183:\n        /* \"contracts/Crowdfunding.sol\":1525:1546  CampaignState.Success */\n      0x01\n        /* \"contracts/Crowdfunding.sol\":1493:1569  address(this).balance >= goal ? CampaignState.Success : CampaignState.Failed */\n    tag_184:\n        /* \"contracts/Crowdfunding.sol\":1485:1490  state */\n      0x04\n      0x14\n        /* \"contracts/Crowdfunding.sol\":1485:1569  state = address(this).balance >= goal ? CampaignState.Success : CampaignState.Failed */\n      0x0100\n      exp\n      dup2\n      sload\n      dup2\n      0xff\n      mul\n      not\n      and\n      swap1\n      dup4\n      0x02\n      dup2\n      gt\n      iszero\n      tag_185\n      jumpi\n      tag_186\n      tag_95\n      jump\t// in\n    tag_186:\n    tag_185:\n      mul\n      or\n      swap1\n      sstore\n      pop\n        /* \"contracts/Crowdfunding.sol\":1436:1708  if(block.timestamp >= deadline){... */\n      jump(tag_187)\n    tag_182:\n        /* \"contracts/Crowdfunding.sol\":1641:1645  goal */\n      sload(0x02)\n        /* \"contracts/Crowdfunding.sol\":1616:1637  address(this).balance */\n      selfbalance\n        /* \"contracts/Crowdfunding.sol\":1616:1645  address(this).balance >= goal */\n      lt\n      iszero\n        /* \"contracts/Crowdfunding.sol\":1616:1693  address(this).balance >= goal ? CampaignState.Success : CampaignState.Success */\n      tag_188\n      jumpi\n        /* \"contracts/Crowdfunding.sol\":1672:1693  CampaignState.Success */\n      0x01\n        /* \"contracts/Crowdfunding.sol\":1616:1693  address(this).balance >= goal ? CampaignState.Success : CampaignState.Success */\n      jump(tag_189)\n    tag_188:\n        /* \"contracts/Crowdfunding.sol\":1648:1669  CampaignState.Success */\n      0x01\n        /* \"contracts/Crowdfunding.sol\":1616:1693  address(this).balance >= goal ? CampaignState.Success : CampaignState.Success */\n    tag_189:\n        /* \"contracts/Crowdfunding.sol\":1608:1613  state */\n      0x04\n      0x14\n        /* \"contracts/Crowdfunding.sol\":1608:1693  state = address(this).balance >= goal ? CampaignState.Success : CampaignState.Success */\n      0x0100\n      exp\n      dup2\n      sload\n      dup2\n      0xff\n      mul\n      not\n      and\n      swap1\n      dup4\n      0x02\n      dup2\n      gt\n      iszero\n      tag_190\n      jumpi\n      tag_191\n      tag_95\n      jump\t// in\n    tag_191:\n    tag_190:\n      mul\n      or\n      swap1\n      sstore\n      pop\n        /* \"contracts/Crowdfunding.sol\":1436:1708  if(block.timestamp >= deadline){... */\n    tag_187:\n        /* \"contracts/Crowdfunding.sol\":1389:1718  if(state == CampaignState.Active){... */\n    tag_181:\n        /* \"contracts/Crowdfunding.sol\":1331:1724  function checkAndUpdateCampaignState() internal {... */\n      jump\t// out\n    tag_141:\n      pop\n      dup1\n      sload\n      tag_192\n      swap1\n      tag_78\n      jump\t// in\n    tag_192:\n      0x00\n      dup3\n      sstore\n      dup1\n      0x1f\n      lt\n      tag_194\n      jumpi\n      pop\n      jump(tag_193)\n    tag_194:\n      0x1f\n      add\n      0x20\n      swap1\n      div\n      swap1\n      0x00\n      mstore\n      keccak256(0x00, 0x20)\n      swap1\n      dup2\n      add\n      swap1\n      tag_195\n      swap2\n      swap1\n      tag_196\n      jump\t// in\n    tag_195:\n    tag_193:\n      pop\n      jump\t// out\n    tag_196:\n    tag_197:\n      dup1\n      dup3\n      gt\n      iszero\n      tag_198\n      jumpi\n      0x00\n      dup2\n      0x00\n      swap1\n      sstore\n      pop\n      0x01\n      add\n      jump(tag_197)\n    tag_198:\n      pop\n      swap1\n      jump\t// out\n        /* \"#utility.yul\":7:82   */\n    tag_199:\n        /* \"#utility.yul\":40:46   */\n      0x00\n        /* \"#utility.yul\":73:75   */\n      0x40\n        /* \"#utility.yul\":67:76   */\n      mload\n        /* \"#utility.yul\":57:76   */\n      swap1\n      pop\n        /* \"#utility.yul\":7:82   */\n      swap1\n      jump\t// out\n        /* \"#utility.yul\":88:205   */\n    tag_200:\n        /* \"#utility.yul\":197:198   */\n      0x00\n        /* \"#utility.yul\":194:195   */\n      dup1\n        /* \"#utility.yul\":187:199   */\n      revert\n        /* \"#utility.yul\":211:328   */\n    tag_201:\n        /* \"#utility.yul\":320:321   */\n      0x00\n        /* \"#utility.yul\":317:318   */\n      dup1\n        /* \"#utility.yul\":310:322   */\n      revert\n        /* \"#utility.yul\":334:411   */\n    tag_202:\n        /* \"#utility.yul\":371:378   */\n      0x00\n        /* \"#utility.yul\":400:405   */\n      dup2\n        /* \"#utility.yul\":389:405   */\n      swap1\n      pop\n        /* \"#utility.yul\":334:411   */\n      swap2\n      swap1\n      pop\n      jump\t// out\n        /* \"#utility.yul\":417:539   */\n    tag_203:\n        /* \"#utility.yul\":490:514   */\n      tag_273\n        /* \"#utility.yul\":508:513   */\n      dup2\n        /* \"#utility.yul\":490:514   */\n      tag_202\n      jump\t// in\n    tag_273:\n        /* \"#utility.yul\":483:488   */\n      dup2\n        /* \"#utility.yul\":480:515   */\n      eq\n        /* \"#utility.yul\":470:533   */\n      tag_274\n      jumpi\n        /* \"#utility.yul\":529:530   */\n      0x00\n        /* \"#utility.yul\":526:527   */\n      dup1\n        /* \"#utility.yul\":519:531   */\n      revert\n        /* \"#utility.yul\":470:533   */\n    tag_274:\n        /* \"#utility.yul\":417:539   */\n      pop\n      jump\t// out\n        /* \"#utility.yul\":545:684   */\n    tag_204:\n        /* \"#utility.yul\":591:596   */\n      0x00\n        /* \"#utility.yul\":629:635   */\n      dup2\n        /* \"#utility.yul\":616:636   */\n      calldataload\n        /* \"#utility.yul\":607:636   */\n      swap1\n      pop\n        /* \"#utility.yul\":645:678   */\n      tag_276\n        /* \"#utility.yul\":672:677   */\n      dup2\n        /* \"#utility.yul\":645:678   */\n      tag_203\n      jump\t// in\n    tag_276:\n        /* \"#utility.yul\":545:684   */\n      swap3\n      swap2\n      pop\n      pop\n      jump\t// out\n        /* \"#utility.yul\":690:1019   */\n    tag_20:\n        /* \"#utility.yul\":749:755   */\n      0x00\n        /* \"#utility.yul\":798:800   */\n      0x20\n        /* \"#utility.yul\":786:795   */\n      dup3\n        /* \"#utility.yul\":777:784   */\n      dup5\n        /* \"#utility.yul\":773:796   */\n      sub\n        /* \"#utility.yul\":769:801   */\n      slt\n        /* \"#utility.yul\":766:885   */\n      iszero\n      tag_278\n      jumpi\n        /* \"#utility.yul\":804:883   */\n      tag_279\n      tag_200\n      jump\t// in\n    tag_279:\n        /* \"#utility.yul\":766:885   */\n    tag_278:\n        /* \"#utility.yul\":924:925   */\n      0x00\n        /* \"#utility.yul\":949:1002   */\n      tag_280\n        /* \"#utility.yul\":994:1001   */\n      dup5\n        /* \"#utility.yul\":985:991   */\n      dup3\n        /* \"#utility.yul\":974:983   */\n      dup6\n        /* \"#utility.yul\":970:992   */\n      add\n        /* \"#utility.yul\":949:1002   */\n      tag_204\n      jump\t// in\n    tag_280:\n        /* \"#utility.yul\":939:1002   */\n      swap2\n      pop\n        /* \"#utility.yul\":895:1012   */\n      pop\n        /* \"#utility.yul\":690:1019   */\n      swap3\n      swap2\n      pop\n      pop\n      jump\t// out\n        /* \"#utility.yul\":1025:1124   */\n    tag_205:\n        /* \"#utility.yul\":1077:1083   */\n      0x00\n        /* \"#utility.yul\":1111:1116   */\n      dup2\n        /* \"#utility.yul\":1105:1117   */\n      mload\n        /* \"#utility.yul\":1095:1117   */\n      swap1\n      pop\n        /* \"#utility.yul\":1025:1124   */\n      swap2\n      swap1\n      pop\n      jump\t// out\n        /* \"#utility.yul\":1130:1299   */\n    tag_206:\n        /* \"#utility.yul\":1214:1225   */\n      0x00\n        /* \"#utility.yul\":1248:1254   */\n      dup3\n        /* \"#utility.yul\":1243:1246   */\n      dup3\n        /* \"#utility.yul\":1236:1255   */\n      mstore\n        /* \"#utility.yul\":1288:1292   */\n      0x20\n        /* \"#utility.yul\":1283:1286   */\n      dup3\n        /* \"#utility.yul\":1279:1293   */\n      add\n        /* \"#utility.yul\":1264:1293   */\n      swap1\n      pop\n        /* \"#utility.yul\":1130:1299   */\n      swap3\n      swap2\n      pop\n      pop\n      jump\t// out\n        /* \"#utility.yul\":1305:1444   */\n    tag_207:\n        /* \"#utility.yul\":1394:1400   */\n      dup3\n        /* \"#utility.yul\":1389:1392   */\n      dup2\n        /* \"#utility.yul\":1384:1387   */\n      dup4\n        /* \"#utility.yul\":1378:1401   */\n      mcopy\n        /* \"#utility.yul\":1435:1436   */\n      0x00\n        /* \"#utility.yul\":1426:1432   */\n      dup4\n        /* \"#utility.yul\":1421:1424   */\n      dup4\n        /* \"#utility.yul\":1417:1433   */\n      add\n        /* \"#utility.yul\":1410:1437   */\n      mstore\n        /* \"#utility.yul\":1305:1444   */\n      pop\n      pop\n      pop\n      jump\t// out\n        /* \"#utility.yul\":1450:1552   */\n    tag_208:\n        /* \"#utility.yul\":1491:1497   */\n      0x00\n        /* \"#utility.yul\":1542:1544   */\n      0x1f\n        /* \"#utility.yul\":1538:1545   */\n      not\n        /* \"#utility.yul\":1533:1535   */\n      0x1f\n        /* \"#utility.yul\":1526:1531   */\n      dup4\n        /* \"#utility.yul\":1522:1536   */\n      add\n        /* \"#utility.yul\":1518:1546   */\n      and\n        /* \"#utility.yul\":1508:1546   */\n      swap1\n      pop\n        /* \"#utility.yul\":1450:1552   */\n      swap2\n      swap1\n      pop\n      jump\t// out\n        /* \"#utility.yul\":1558:1935   */\n    tag_209:\n        /* \"#utility.yul\":1646:1649   */\n      0x00\n        /* \"#utility.yul\":1674:1713   */\n      tag_286\n        /* \"#utility.yul\":1707:1712   */\n      dup3\n        /* \"#utility.yul\":1674:1713   */\n      tag_205\n      jump\t// in\n    tag_286:\n        /* \"#utility.yul\":1729:1800   */\n      tag_287\n        /* \"#utility.yul\":1793:1799   */\n      dup2\n        /* \"#utility.yul\":1788:1791   */\n      dup6\n        /* \"#utility.yul\":1729:1800   */\n      tag_206\n      jump\t// in\n    tag_287:\n        /* \"#utility.yul\":1722:1800   */\n      swap4\n      pop\n        /* \"#utility.yul\":1809:1874   */\n      tag_288\n        /* \"#utility.yul\":1867:1873   */\n      dup2\n        /* \"#utility.yul\":1862:1865   */\n      dup6\n        /* \"#utility.yul\":1855:1859   */\n      0x20\n        /* \"#utility.yul\":1848:1853   */\n      dup7\n        /* \"#utility.yul\":1844:1860   */\n      add\n        /* \"#utility.yul\":1809:1874   */\n      tag_207\n      jump\t// in\n    tag_288:\n        /* \"#utility.yul\":1899:1928   */\n      tag_289\n        /* \"#utility.yul\":1921:1927   */\n      dup2\n        /* \"#utility.yul\":1899:1928   */\n      tag_208\n      jump\t// in\n    tag_289:\n        /* \"#utility.yul\":1894:1897   */\n      dup5\n        /* \"#utility.yul\":1890:1929   */\n      add\n        /* \"#utility.yul\":1883:1929   */\n      swap2\n      pop\n        /* \"#utility.yul\":1650:1935   */\n      pop\n        /* \"#utility.yul\":1558:1935   */\n      swap3\n      swap2\n      pop\n      pop\n      jump\t// out\n        /* \"#utility.yul\":1941:2059   */\n    tag_210:\n        /* \"#utility.yul\":2028:2052   */\n      tag_291\n        /* \"#utility.yul\":2046:2051   */\n      dup2\n        /* \"#utility.yul\":2028:2052   */\n      tag_202\n      jump\t// in\n    tag_291:\n        /* \"#utility.yul\":2023:2026   */\n      dup3\n        /* \"#utility.yul\":2016:2053   */\n      mstore\n        /* \"#utility.yul\":1941:2059   */\n      pop\n      pop\n      jump\t// out\n        /* \"#utility.yul\":2065:2598   */\n    tag_23:\n        /* \"#utility.yul\":2234:2238   */\n      0x00\n        /* \"#utility.yul\":2272:2274   */\n      0x60\n        /* \"#utility.yul\":2261:2270   */\n      dup3\n        /* \"#utility.yul\":2257:2275   */\n      add\n        /* \"#utility.yul\":2249:2275   */\n      swap1\n      pop\n        /* \"#utility.yul\":2321:2330   */\n      dup2\n        /* \"#utility.yul\":2315:2319   */\n      dup2\n        /* \"#utility.yul\":2311:2331   */\n      sub\n        /* \"#utility.yul\":2307:2308   */\n      0x00\n        /* \"#utility.yul\":2296:2305   */\n      dup4\n        /* \"#utility.yul\":2292:2309   */\n      add\n        /* \"#utility.yul\":2285:2332   */\n      mstore\n        /* \"#utility.yul\":2349:2427   */\n      tag_293\n        /* \"#utility.yul\":2422:2426   */\n      dup2\n        /* \"#utility.yul\":2413:2419   */\n      dup7\n        /* \"#utility.yul\":2349:2427   */\n      tag_209\n      jump\t// in\n    tag_293:\n        /* \"#utility.yul\":2341:2427   */\n      swap1\n      pop\n        /* \"#utility.yul\":2437:2509   */\n      tag_294\n        /* \"#utility.yul\":2505:2507   */\n      0x20\n        /* \"#utility.yul\":2494:2503   */\n      dup4\n        /* \"#utility.yul\":2490:2508   */\n      add\n        /* \"#utility.yul\":2481:2487   */\n      dup6\n        /* \"#utility.yul\":2437:2509   */\n      tag_210\n      jump\t// in\n    tag_294:\n        /* \"#utility.yul\":2519:2591   */\n      tag_295\n        /* \"#utility.yul\":2587:2589   */\n      0x40\n        /* \"#utility.yul\":2576:2585   */\n      dup4\n        /* \"#utility.yul\":2572:2590   */\n      add\n        /* \"#utility.yul\":2563:2569   */\n      dup5\n        /* \"#utility.yul\":2519:2591   */\n      tag_210\n      jump\t// in\n    tag_295:\n        /* \"#utility.yul\":2065:2598   */\n      swap5\n      swap4\n      pop\n      pop\n      pop\n      pop\n      jump\t// out\n        /* \"#utility.yul\":2604:2917   */\n    tag_28:\n        /* \"#utility.yul\":2717:2721   */\n      0x00\n        /* \"#utility.yul\":2755:2757   */\n      0x20\n        /* \"#utility.yul\":2744:2753   */\n      dup3\n        /* \"#utility.yul\":2740:2758   */\n      add\n        /* \"#utility.yul\":2732:2758   */\n      swap1\n      pop\n        /* \"#utility.yul\":2804:2813   */\n      dup2\n        /* \"#utility.yul\":2798:2802   */\n      dup2\n        /* \"#utility.yul\":2794:2814   */\n      sub\n        /* \"#utility.yul\":2790:2791   */\n      0x00\n        /* \"#utility.yul\":2779:2788   */\n      dup4\n        /* \"#utility.yul\":2775:2792   */\n      add\n        /* \"#utility.yul\":2768:2815   */\n      mstore\n        /* \"#utility.yul\":2832:2910   */\n      tag_297\n        /* \"#utility.yul\":2905:2909   */\n      dup2\n        /* \"#utility.yul\":2896:2902   */\n      dup5\n        /* \"#utility.yul\":2832:2910   */\n      tag_209\n      jump\t// in\n    tag_297:\n        /* \"#utility.yul\":2824:2910   */\n      swap1\n      pop\n        /* \"#utility.yul\":2604:2917   */\n      swap3\n      swap2\n      pop\n      pop\n      jump\t// out\n        /* \"#utility.yul\":2923:3145   */\n    tag_33:\n        /* \"#utility.yul\":3016:3020   */\n      0x00\n        /* \"#utility.yul\":3054:3056   */\n      0x20\n        /* \"#utility.yul\":3043:3052   */\n      dup3\n        /* \"#utility.yul\":3039:3057   */\n      add\n        /* \"#utility.yul\":3031:3057   */\n      swap1\n      pop\n        /* \"#utility.yul\":3067:3138   */\n      tag_299\n        /* \"#utility.yul\":3135:3136   */\n      0x00\n        /* \"#utility.yul\":3124:3133   */\n      dup4\n        /* \"#utility.yul\":3120:3137   */\n      add\n        /* \"#utility.yul\":3111:3117   */\n      dup5\n        /* \"#utility.yul\":3067:3138   */\n      tag_210\n      jump\t// in\n    tag_299:\n        /* \"#utility.yul\":2923:3145   */\n      swap3\n      swap2\n      pop\n      pop\n      jump\t// out\n        /* \"#utility.yul\":3151:3277   */\n    tag_211:\n        /* \"#utility.yul\":3188:3195   */\n      0x00\n        /* \"#utility.yul\":3228:3270   */\n      0xffffffffffffffffffffffffffffffffffffffff\n        /* \"#utility.yul\":3221:3226   */\n      dup3\n        /* \"#utility.yul\":3217:3271   */\n      and\n        /* \"#utility.yul\":3206:3271   */\n      swap1\n      pop\n        /* \"#utility.yul\":3151:3277   */\n      swap2\n      swap1\n      pop\n      jump\t// out\n        /* \"#utility.yul\":3283:3379   */\n    tag_212:\n        /* \"#utility.yul\":3320:3327   */\n      0x00\n        /* \"#utility.yul\":3349:3373   */\n      tag_302\n        /* \"#utility.yul\":3367:3372   */\n      dup3\n        /* \"#utility.yul\":3349:3373   */\n      tag_211\n      jump\t// in\n    tag_302:\n        /* \"#utility.yul\":3338:3373   */\n      swap1\n      pop\n        /* \"#utility.yul\":3283:3379   */\n      swap2\n      swap1\n      pop\n      jump\t// out\n        /* \"#utility.yul\":3385:3503   */\n    tag_213:\n        /* \"#utility.yul\":3472:3496   */\n      tag_304\n        /* \"#utility.yul\":3490:3495   */\n      dup2\n        /* \"#utility.yul\":3472:3496   */\n      tag_212\n      jump\t// in\n    tag_304:\n        /* \"#utility.yul\":3467:3470   */\n      dup3\n        /* \"#utility.yul\":3460:3497   */\n      mstore\n        /* \"#utility.yul\":3385:3503   */\n      pop\n      pop\n      jump\t// out\n        /* \"#utility.yul\":3509:3731   */\n    tag_61:\n        /* \"#utility.yul\":3602:3606   */\n      0x00\n        /* \"#utility.yul\":3640:3642   */\n      0x20\n        /* \"#utility.yul\":3629:3638   */\n      dup3\n        /* \"#utility.yul\":3625:3643   */\n      add\n        /* \"#utility.yul\":3617:3643   */\n      swap1\n      pop\n        /* \"#utility.yul\":3653:3724   */\n      tag_306\n        /* \"#utility.yul\":3721:3722   */\n      0x00\n        /* \"#utility.yul\":3710:3719   */\n      dup4\n        /* \"#utility.yul\":3706:3723   */\n      add\n        /* \"#utility.yul\":3697:3703   */\n      dup5\n        /* \"#utility.yul\":3653:3724   */\n      tag_213\n      jump\t// in\n    tag_306:\n        /* \"#utility.yul\":3509:3731   */\n      swap3\n      swap2\n      pop\n      pop\n      jump\t// out\n        /* \"#utility.yul\":3737:3854   */\n    tag_214:\n        /* \"#utility.yul\":3846:3847   */\n      0x00\n        /* \"#utility.yul\":3843:3844   */\n      dup1\n        /* \"#utility.yul\":3836:3848   */\n      revert\n        /* \"#utility.yul\":3860:3977   */\n    tag_215:\n        /* \"#utility.yul\":3969:3970   */\n      0x00\n        /* \"#utility.yul\":3966:3967   */\n      dup1\n        /* \"#utility.yul\":3959:3971   */\n      revert\n        /* \"#utility.yul\":3983:4163   */\n    tag_216:\n        /* \"#utility.yul\":4031:4108   */\n      0x4e487b7100000000000000000000000000000000000000000000000000000000\n        /* \"#utility.yul\":4028:4029   */\n      0x00\n        /* \"#utility.yul\":4021:4109   */\n      mstore\n        /* \"#utility.yul\":4128:4132   */\n      0x41\n        /* \"#utility.yul\":4125:4126   */\n      0x04\n        /* \"#utility.yul\":4118:4133   */\n      mstore\n        /* \"#utility.yul\":4152:4156   */\n      0x24\n        /* \"#utility.yul\":4149:4150   */\n      0x00\n        /* \"#utility.yul\":4142:4157   */\n      revert\n        /* \"#utility.yul\":4169:4450   */\n    tag_217:\n        /* \"#utility.yul\":4252:4279   */\n      tag_311\n        /* \"#utility.yul\":4274:4278   */\n      dup3\n        /* \"#utility.yul\":4252:4279   */\n      tag_208\n      jump\t// in\n    tag_311:\n        /* \"#utility.yul\":4244:4250   */\n      dup2\n        /* \"#utility.yul\":4240:4280   */\n      add\n        /* \"#utility.yul\":4382:4388   */\n      dup2\n        /* \"#utility.yul\":4370:4380   */\n      dup2\n        /* \"#utility.yul\":4367:4389   */\n      lt\n        /* \"#utility.yul\":4346:4364   */\n      0xffffffffffffffff\n        /* \"#utility.yul\":4334:4344   */\n      dup3\n        /* \"#utility.yul\":4331:4365   */\n      gt\n        /* \"#utility.yul\":4328:4390   */\n      or\n        /* \"#utility.yul\":4325:4413   */\n      iszero\n      tag_312\n      jumpi\n        /* \"#utility.yul\":4393:4411   */\n      tag_313\n      tag_216\n      jump\t// in\n    tag_313:\n        /* \"#utility.yul\":4325:4413   */\n    tag_312:\n        /* \"#utility.yul\":4433:4443   */\n      dup1\n        /* \"#utility.yul\":4429:4431   */\n      0x40\n        /* \"#utility.yul\":4422:4444   */\n      mstore\n        /* \"#utility.yul\":4212:4450   */\n      pop\n        /* \"#utility.yul\":4169:4450   */\n      pop\n      pop\n      jump\t// out\n        /* \"#utility.yul\":4456:4585   */\n    tag_218:\n        /* \"#utility.yul\":4490:4496   */\n      0x00\n        /* \"#utility.yul\":4517:4537   */\n      tag_315\n      tag_199\n      jump\t// in\n    tag_315:\n        /* \"#utility.yul\":4507:4537   */\n      swap1\n      pop\n        /* \"#utility.yul\":4546:4579   */\n      tag_316\n        /* \"#utility.yul\":4574:4578   */\n      dup3\n        /* \"#utility.yul\":4566:4572   */\n      dup3\n        /* \"#utility.yul\":4546:4579   */\n      tag_217\n      jump\t// in\n    tag_316:\n        /* \"#utility.yul\":4456:4585   */\n      swap2\n      swap1\n      pop\n      jump\t// out\n        /* \"#utility.yul\":4591:4899   */\n    tag_219:\n        /* \"#utility.yul\":4653:4657   */\n      0x00\n        /* \"#utility.yul\":4743:4761   */\n      0xffffffffffffffff\n        /* \"#utility.yul\":4735:4741   */\n      dup3\n        /* \"#utility.yul\":4732:4762   */\n      gt\n        /* \"#utility.yul\":4729:4785   */\n      iszero\n      tag_318\n      jumpi\n        /* \"#utility.yul\":4765:4783   */\n      tag_319\n      tag_216\n      jump\t// in\n    tag_319:\n        /* \"#utility.yul\":4729:4785   */\n    tag_318:\n        /* \"#utility.yul\":4803:4832   */\n      tag_320\n        /* \"#utility.yul\":4825:4831   */\n      dup3\n        /* \"#utility.yul\":4803:4832   */\n      tag_208\n      jump\t// in\n    tag_320:\n        /* \"#utility.yul\":4795:4832   */\n      swap1\n      pop\n        /* \"#utility.yul\":4887:4891   */\n      0x20\n        /* \"#utility.yul\":4881:4885   */\n      dup2\n        /* \"#utility.yul\":4877:4892   */\n      add\n        /* \"#utility.yul\":4869:4892   */\n      swap1\n      pop\n        /* \"#utility.yul\":4591:4899   */\n      swap2\n      swap1\n      pop\n      jump\t// out\n        /* \"#utility.yul\":4905:5053   */\n    tag_220:\n        /* \"#utility.yul\":5003:5009   */\n      dup3\n        /* \"#utility.yul\":4998:5001   */\n      dup2\n        /* \"#utility.yul\":4993:4996   */\n      dup4\n        /* \"#utility.yul\":4980:5010   */\n      calldatacopy\n        /* \"#utility.yul\":5044:5045   */\n      0x00\n        /* \"#utility.yul\":5035:5041   */\n      dup4\n        /* \"#utility.yul\":5030:5033   */\n      dup4\n        /* \"#utility.yul\":5026:5042   */\n      add\n        /* \"#utility.yul\":5019:5046   */\n      mstore\n        /* \"#utility.yul\":4905:5053   */\n      pop\n      pop\n      pop\n      jump\t// out\n        /* \"#utility.yul\":5059:5484   */\n    tag_221:\n        /* \"#utility.yul\":5137:5142   */\n      0x00\n        /* \"#utility.yul\":5162:5228   */\n      tag_323\n        /* \"#utility.yul\":5178:5227   */\n      tag_324\n        /* \"#utility.yul\":5220:5226   */\n      dup5\n        /* \"#utility.yul\":5178:5227   */\n      tag_219\n      jump\t// in\n    tag_324:\n        /* \"#utility.yul\":5162:5228   */\n      tag_218\n      jump\t// in\n    tag_323:\n        /* \"#utility.yul\":5153:5228   */\n      swap1\n      pop\n        /* \"#utility.yul\":5251:5257   */\n      dup3\n        /* \"#utility.yul\":5244:5249   */\n      dup2\n        /* \"#utility.yul\":5237:5258   */\n      mstore\n        /* \"#utility.yul\":5289:5293   */\n      0x20\n        /* \"#utility.yul\":5282:5287   */\n      dup2\n        /* \"#utility.yul\":5278:5294   */\n      add\n        /* \"#utility.yul\":5327:5330   */\n      dup5\n        /* \"#utility.yul\":5318:5324   */\n      dup5\n        /* \"#utility.yul\":5313:5316   */\n      dup5\n        /* \"#utility.yul\":5309:5325   */\n      add\n        /* \"#utility.yul\":5306:5331   */\n      gt\n        /* \"#utility.yul\":5303:5415   */\n      iszero\n      tag_325\n      jumpi\n        /* \"#utility.yul\":5334:5413   */\n      tag_326\n      tag_215\n      jump\t// in\n    tag_326:\n        /* \"#utility.yul\":5303:5415   */\n    tag_325:\n        /* \"#utility.yul\":5424:5478   */\n      tag_327\n        /* \"#utility.yul\":5471:5477   */\n      dup5\n        /* \"#utility.yul\":5466:5469   */\n      dup3\n        /* \"#utility.yul\":5461:5464   */\n      dup6\n        /* \"#utility.yul\":5424:5478   */\n      tag_220\n      jump\t// in\n    tag_327:\n        /* \"#utility.yul\":5143:5484   */\n      pop\n        /* \"#utility.yul\":5059:5484   */\n      swap4\n      swap3\n      pop\n      pop\n      pop\n      jump\t// out\n        /* \"#utility.yul\":5504:5844   */\n    tag_222:\n        /* \"#utility.yul\":5560:5565   */\n      0x00\n        /* \"#utility.yul\":5609:5612   */\n      dup3\n        /* \"#utility.yul\":5602:5606   */\n      0x1f\n        /* \"#utility.yul\":5594:5600   */\n      dup4\n        /* \"#utility.yul\":5590:5607   */\n      add\n        /* \"#utility.yul\":5586:5613   */\n      slt\n        /* \"#utility.yul\":5576:5698   */\n      tag_329\n      jumpi\n        /* \"#utility.yul\":5617:5696   */\n      tag_330\n      tag_214\n      jump\t// in\n    tag_330:\n        /* \"#utility.yul\":5576:5698   */\n    tag_329:\n        /* \"#utility.yul\":5734:5740   */\n      dup2\n        /* \"#utility.yul\":5721:5741   */\n      calldataload\n        /* \"#utility.yul\":5759:5838   */\n      tag_331\n        /* \"#utility.yul\":5834:5837   */\n      dup5\n        /* \"#utility.yul\":5826:5832   */\n      dup3\n        /* \"#utility.yul\":5819:5823   */\n      0x20\n        /* \"#utility.yul\":5811:5817   */\n      dup7\n        /* \"#utility.yul\":5807:5824   */\n      add\n        /* \"#utility.yul\":5759:5838   */\n      tag_221\n      jump\t// in\n    tag_331:\n        /* \"#utility.yul\":5750:5838   */\n      swap2\n      pop\n        /* \"#utility.yul\":5566:5844   */\n      pop\n        /* \"#utility.yul\":5504:5844   */\n      swap3\n      swap2\n      pop\n      pop\n      jump\t// out\n        /* \"#utility.yul\":5850:6504   */\n    tag_65:\n        /* \"#utility.yul\":5928:5934   */\n      0x00\n        /* \"#utility.yul\":5936:5942   */\n      dup1\n        /* \"#utility.yul\":5985:5987   */\n      0x40\n        /* \"#utility.yul\":5973:5982   */\n      dup4\n        /* \"#utility.yul\":5964:5971   */\n      dup6\n        /* \"#utility.yul\":5960:5983   */\n      sub\n        /* \"#utility.yul\":5956:5988   */\n      slt\n        /* \"#utility.yul\":5953:6072   */\n      iszero\n      tag_333\n      jumpi\n        /* \"#utility.yul\":5991:6070   */\n      tag_334\n      tag_200\n      jump\t// in\n    tag_334:\n        /* \"#utility.yul\":5953:6072   */\n    tag_333:\n        /* \"#utility.yul\":6139:6140   */\n      0x00\n        /* \"#utility.yul\":6128:6137   */\n      dup4\n        /* \"#utility.yul\":6124:6141   */\n      add\n        /* \"#utility.yul\":6111:6142   */\n      calldataload\n        /* \"#utility.yul\":6169:6187   */\n      0xffffffffffffffff\n        /* \"#utility.yul\":6161:6167   */\n      dup2\n        /* \"#utility.yul\":6158:6188   */\n      gt\n        /* \"#utility.yul\":6155:6272   */\n      iszero\n      tag_335\n      jumpi\n        /* \"#utility.yul\":6191:6270   */\n      tag_336\n      tag_201\n      jump\t// in\n    tag_336:\n        /* \"#utility.yul\":6155:6272   */\n    tag_335:\n        /* \"#utility.yul\":6296:6359   */\n      tag_337\n        /* \"#utility.yul\":6351:6358   */\n      dup6\n        /* \"#utility.yul\":6342:6348   */\n      dup3\n        /* \"#utility.yul\":6331:6340   */\n      dup7\n        /* \"#utility.yul\":6327:6349   */\n      add\n        /* \"#utility.yul\":6296:6359   */\n      tag_222\n      jump\t// in\n    tag_337:\n        /* \"#utility.yul\":6286:6359   */\n      swap3\n      pop\n        /* \"#utility.yul\":6082:6369   */\n      pop\n        /* \"#utility.yul\":6408:6410   */\n      0x20\n        /* \"#utility.yul\":6434:6487   */\n      tag_338\n        /* \"#utility.yul\":6479:6486   */\n      dup6\n        /* \"#utility.yul\":6470:6476   */\n      dup3\n        /* \"#utility.yul\":6459:6468   */\n      dup7\n        /* \"#utility.yul\":6455:6477   */\n      add\n        /* \"#utility.yul\":6434:6487   */\n      tag_204\n      jump\t// in\n    tag_338:\n        /* \"#utility.yul\":6424:6487   */\n      swap2\n      pop\n        /* \"#utility.yul\":6379:6497   */\n      pop\n        /* \"#utility.yul\":5850:6504   */\n      swap3\n      pop\n      swap3\n      swap1\n      pop\n      jump\t// out\n        /* \"#utility.yul\":6510:6690   */\n    tag_95:\n        /* \"#utility.yul\":6558:6635   */\n      0x4e487b7100000000000000000000000000000000000000000000000000000000\n        /* \"#utility.yul\":6555:6556   */\n      0x00\n        /* \"#utility.yul\":6548:6636   */\n      mstore\n        /* \"#utility.yul\":6655:6659   */\n      0x21\n        /* \"#utility.yul\":6652:6653   */\n      0x04\n        /* \"#utility.yul\":6645:6660   */\n      mstore\n        /* \"#utility.yul\":6679:6683   */\n      0x24\n        /* \"#utility.yul\":6676:6677   */\n      0x00\n        /* \"#utility.yul\":6669:6684   */\n      revert\n        /* \"#utility.yul\":6696:6817   */\n    tag_223:\n        /* \"#utility.yul\":6785:6786   */\n      0x03\n        /* \"#utility.yul\":6778:6783   */\n      dup2\n        /* \"#utility.yul\":6775:6787   */\n      lt\n        /* \"#utility.yul\":6765:6811   */\n      tag_341\n      jumpi\n        /* \"#utility.yul\":6791:6809   */\n      tag_342\n      tag_95\n      jump\t// in\n    tag_342:\n        /* \"#utility.yul\":6765:6811   */\n    tag_341:\n        /* \"#utility.yul\":6696:6817   */\n      pop\n      jump\t// out\n        /* \"#utility.yul\":6823:6966   */\n    tag_224:\n        /* \"#utility.yul\":6876:6883   */\n      0x00\n        /* \"#utility.yul\":6905:6910   */\n      dup2\n        /* \"#utility.yul\":6894:6910   */\n      swap1\n      pop\n        /* \"#utility.yul\":6911:6960   */\n      tag_344\n        /* \"#utility.yul\":6954:6959   */\n      dup3\n        /* \"#utility.yul\":6911:6960   */\n      tag_223\n      jump\t// in\n    tag_344:\n        /* \"#utility.yul\":6823:6966   */\n      swap2\n      swap1\n      pop\n      jump\t// out\n        /* \"#utility.yul\":6972:7115   */\n    tag_225:\n        /* \"#utility.yul\":7036:7045   */\n      0x00\n        /* \"#utility.yul\":7069:7109   */\n      tag_346\n        /* \"#utility.yul\":7103:7108   */\n      dup3\n        /* \"#utility.yul\":7069:7109   */\n      tag_224\n      jump\t// in\n    tag_346:\n        /* \"#utility.yul\":7056:7109   */\n      swap1\n      pop\n        /* \"#utility.yul\":6972:7115   */\n      swap2\n      swap1\n      pop\n      jump\t// out\n        /* \"#utility.yul\":7121:7280   */\n    tag_226:\n        /* \"#utility.yul\":7222:7273   */\n      tag_348\n        /* \"#utility.yul\":7267:7272   */\n      dup2\n        /* \"#utility.yul\":7222:7273   */\n      tag_225\n      jump\t// in\n    tag_348:\n        /* \"#utility.yul\":7217:7220   */\n      dup3\n        /* \"#utility.yul\":7210:7274   */\n      mstore\n        /* \"#utility.yul\":7121:7280   */\n      pop\n      pop\n      jump\t// out\n        /* \"#utility.yul\":7286:7536   */\n    tag_71:\n        /* \"#utility.yul\":7393:7397   */\n      0x00\n        /* \"#utility.yul\":7431:7433   */\n      0x20\n        /* \"#utility.yul\":7420:7429   */\n      dup3\n        /* \"#utility.yul\":7416:7434   */\n      add\n        /* \"#utility.yul\":7408:7434   */\n      swap1\n      pop\n        /* \"#utility.yul\":7444:7529   */\n      tag_350\n        /* \"#utility.yul\":7526:7527   */\n      0x00\n        /* \"#utility.yul\":7515:7524   */\n      dup4\n        /* \"#utility.yul\":7511:7528   */\n      add\n        /* \"#utility.yul\":7502:7508   */\n      dup5\n        /* \"#utility.yul\":7444:7529   */\n      tag_226\n      jump\t// in\n    tag_350:\n        /* \"#utility.yul\":7286:7536   */\n      swap3\n      swap2\n      pop\n      pop\n      jump\t// out\n        /* \"#utility.yul\":7542:7722   */\n    tag_227:\n        /* \"#utility.yul\":7590:7667   */\n      0x4e487b7100000000000000000000000000000000000000000000000000000000\n        /* \"#utility.yul\":7587:7588   */\n      0x00\n        /* \"#utility.yul\":7580:7668   */\n      mstore\n        /* \"#utility.yul\":7687:7691   */\n      0x22\n        /* \"#utility.yul\":7684:7685   */\n      0x04\n        /* \"#utility.yul\":7677:7692   */\n      mstore\n        /* \"#utility.yul\":7711:7715   */\n      0x24\n        /* \"#utility.yul\":7708:7709   */\n      0x00\n        /* \"#utility.yul\":7701:7716   */\n      revert\n        /* \"#utility.yul\":7728:8048   */\n    tag_78:\n        /* \"#utility.yul\":7772:7778   */\n      0x00\n        /* \"#utility.yul\":7809:7810   */\n      0x02\n        /* \"#utility.yul\":7803:7807   */\n      dup3\n        /* \"#utility.yul\":7799:7811   */\n      div\n        /* \"#utility.yul\":7789:7811   */\n      swap1\n      pop\n        /* \"#utility.yul\":7856:7857   */\n      0x01\n        /* \"#utility.yul\":7850:7854   */\n      dup3\n        /* \"#utility.yul\":7846:7858   */\n      and\n        /* \"#utility.yul\":7877:7895   */\n      dup1\n        /* \"#utility.yul\":7867:7948   */\n      tag_353\n      jumpi\n        /* \"#utility.yul\":7933:7937   */\n      0x7f\n        /* \"#utility.yul\":7925:7931   */\n      dup3\n        /* \"#utility.yul\":7921:7938   */\n      and\n        /* \"#utility.yul\":7911:7938   */\n      swap2\n      pop\n        /* \"#utility.yul\":7867:7948   */\n    tag_353:\n        /* \"#utility.yul\":7995:7997   */\n      0x20\n        /* \"#utility.yul\":7987:7993   */\n      dup3\n        /* \"#utility.yul\":7984:7998   */\n      lt\n        /* \"#utility.yul\":7964:7982   */\n      dup2\n        /* \"#utility.yul\":7961:7999   */\n      sub\n        /* \"#utility.yul\":7958:8042   */\n      tag_354\n      jumpi\n        /* \"#utility.yul\":8014:8032   */\n      tag_355\n      tag_227\n      jump\t// in\n    tag_355:\n        /* \"#utility.yul\":7958:8042   */\n    tag_354:\n        /* \"#utility.yul\":7779:8048   */\n      pop\n        /* \"#utility.yul\":7728:8048   */\n      swap2\n      swap1\n      pop\n      jump\t// out\n        /* \"#utility.yul\":8054:8279   */\n    tag_228:\n        /* \"#utility.yul\":8194:8228   */\n      0x596f7520617265206e6f7420746865206f776e6572206f66207468697320636f\n        /* \"#utility.yul\":8190:8191   */\n      0x00\n        /* \"#utility.yul\":8182:8188   */\n      dup3\n        /* \"#utility.yul\":8178:8192   */\n      add\n        /* \"#utility.yul\":8171:8229   */\n      mstore\n        /* \"#utility.yul\":8263:8271   */\n      0x6e74726163740000000000000000000000000000000000000000000000000000\n        /* \"#utility.yul\":8258:8260   */\n      0x20\n        /* \"#utility.yul\":8250:8256   */\n      dup3\n        /* \"#utility.yul\":8246:8261   */\n      add\n        /* \"#utility.yul\":8239:8272   */\n      mstore\n        /* \"#utility.yul\":8054:8279   */\n      pop\n      jump\t// out\n        /* \"#utility.yul\":8285:8651   */\n    tag_229:\n        /* \"#utility.yul\":8427:8430   */\n      0x00\n        /* \"#utility.yul\":8448:8515   */\n      tag_358\n        /* \"#utility.yul\":8512:8514   */\n      0x26\n        /* \"#utility.yul\":8507:8510   */\n      dup4\n        /* \"#utility.yul\":8448:8515   */\n      tag_206\n      jump\t// in\n    tag_358:\n        /* \"#utility.yul\":8441:8515   */\n      swap2\n      pop\n        /* \"#utility.yul\":8524:8617   */\n      tag_359\n        /* \"#utility.yul\":8613:8616   */\n      dup3\n        /* \"#utility.yul\":8524:8617   */\n      tag_228\n      jump\t// in\n    tag_359:\n        /* \"#utility.yul\":8642:8644   */\n      0x40\n        /* \"#utility.yul\":8637:8640   */\n      dup3\n        /* \"#utility.yul\":8633:8645   */\n      add\n        /* \"#utility.yul\":8626:8645   */\n      swap1\n      pop\n        /* \"#utility.yul\":8285:8651   */\n      swap2\n      swap1\n      pop\n      jump\t// out\n        /* \"#utility.yul\":8657:9076   */\n    tag_91:\n        /* \"#utility.yul\":8823:8827   */\n      0x00\n        /* \"#utility.yul\":8861:8863   */\n      0x20\n        /* \"#utility.yul\":8850:8859   */\n      dup3\n        /* \"#utility.yul\":8846:8864   */\n      add\n        /* \"#utility.yul\":8838:8864   */\n      swap1\n      pop\n        /* \"#utility.yul\":8910:8919   */\n      dup2\n        /* \"#utility.yul\":8904:8908   */\n      dup2\n        /* \"#utility.yul\":8900:8920   */\n      sub\n        /* \"#utility.yul\":8896:8897   */\n      0x00\n        /* \"#utility.yul\":8885:8894   */\n      dup4\n        /* \"#utility.yul\":8881:8898   */\n      add\n        /* \"#utility.yul\":8874:8921   */\n      mstore\n        /* \"#utility.yul\":8938:9069   */\n      tag_361\n        /* \"#utility.yul\":9064:9068   */\n      dup2\n        /* \"#utility.yul\":8938:9069   */\n      tag_229\n      jump\t// in\n    tag_361:\n        /* \"#utility.yul\":8930:9069   */\n      swap1\n      pop\n        /* \"#utility.yul\":8657:9076   */\n      swap2\n      swap1\n      pop\n      jump\t// out\n        /* \"#utility.yul\":9082:9255   */\n    tag_230:\n        /* \"#utility.yul\":9222:9247   */\n      0x43616d706169676e206973206e6f742073756363657373000000000000000000\n        /* \"#utility.yul\":9218:9219   */\n      0x00\n        /* \"#utility.yul\":9210:9216   */\n      dup3\n        /* \"#utility.yul\":9206:9220   */\n      add\n        /* \"#utility.yul\":9199:9248   */\n      mstore\n        /* \"#utility.yul\":9082:9255   */\n      pop\n      jump\t// out\n        /* \"#utility.yul\":9261:9627   */\n    tag_231:\n        /* \"#utility.yul\":9403:9406   */\n      0x00\n        /* \"#utility.yul\":9424:9491   */\n      tag_364\n        /* \"#utility.yul\":9488:9490   */\n      0x17\n        /* \"#utility.yul\":9483:9486   */\n      dup4\n        /* \"#utility.yul\":9424:9491   */\n      tag_206\n      jump\t// in\n    tag_364:\n        /* \"#utility.yul\":9417:9491   */\n      swap2\n      pop\n        /* \"#utility.yul\":9500:9593   */\n      tag_365\n        /* \"#utility.yul\":9589:9592   */\n      dup3\n        /* \"#utility.yul\":9500:9593   */\n      tag_230\n      jump\t// in\n    tag_365:\n        /* \"#utility.yul\":9618:9620   */\n      0x20\n        /* \"#utility.yul\":9613:9616   */\n      dup3\n        /* \"#utility.yul\":9609:9621   */\n      add\n        /* \"#utility.yul\":9602:9621   */\n      swap1\n      pop\n        /* \"#utility.yul\":9261:9627   */\n      swap2\n      swap1\n      pop\n      jump\t// out\n        /* \"#utility.yul\":9633:10052   */\n    tag_100:\n        /* \"#utility.yul\":9799:9803   */\n      0x00\n        /* \"#utility.yul\":9837:9839   */\n      0x20\n        /* \"#utility.yul\":9826:9835   */\n      dup3\n        /* \"#utility.yul\":9822:9840   */\n      add\n        /* \"#utility.yul\":9814:9840   */\n      swap1\n      pop\n        /* \"#utility.yul\":9886:9895   */\n      dup2\n        /* \"#utility.yul\":9880:9884   */\n      dup2\n        /* \"#utility.yul\":9876:9896   */\n      sub\n        /* \"#utility.yul\":9872:9873   */\n      0x00\n        /* \"#utility.yul\":9861:9870   */\n      dup4\n        /* \"#utility.yul\":9857:9874   */\n      add\n        /* \"#utility.yul\":9850:9897   */\n      mstore\n        /* \"#utility.yul\":9914:10045   */\n      tag_367\n        /* \"#utility.yul\":10040:10044   */\n      dup2\n        /* \"#utility.yul\":9914:10045   */\n      tag_231\n      jump\t// in\n    tag_367:\n        /* \"#utility.yul\":9906:10045   */\n      swap1\n      pop\n        /* \"#utility.yul\":9633:10052   */\n      swap2\n      swap1\n      pop\n      jump\t// out\n        /* \"#utility.yul\":10058:10230   */\n    tag_232:\n        /* \"#utility.yul\":10198:10222   */\n      0x4e6f2062616c616e636520746f20776974686472617700000000000000000000\n        /* \"#utility.yul\":10194:10195   */\n      0x00\n        /* \"#utility.yul\":10186:10192   */\n      dup3\n        /* \"#utility.yul\":10182:10196   */\n      add\n        /* \"#utility.yul\":10175:10223   */\n      mstore\n        /* \"#utility.yul\":10058:10230   */\n      pop\n      jump\t// out\n        /* \"#utility.yul\":10236:10602   */\n    tag_233:\n        /* \"#utility.yul\":10378:10381   */\n      0x00\n        /* \"#utility.yul\":10399:10466   */\n      tag_370\n        /* \"#utility.yul\":10463:10465   */\n      0x16\n        /* \"#utility.yul\":10458:10461   */\n      dup4\n        /* \"#utility.yul\":10399:10466   */\n      tag_206\n      jump\t// in\n    tag_370:\n        /* \"#utility.yul\":10392:10466   */\n      swap2\n      pop\n        /* \"#utility.yul\":10475:10568   */\n      tag_371\n        /* \"#utility.yul\":10564:10567   */\n      dup3\n        /* \"#utility.yul\":10475:10568   */\n      tag_232\n      jump\t// in\n    tag_371:\n        /* \"#utility.yul\":10593:10595   */\n      0x20\n        /* \"#utility.yul\":10588:10591   */\n      dup3\n        /* \"#utility.yul\":10584:10596   */\n      add\n        /* \"#utility.yul\":10577:10596   */\n      swap1\n      pop\n        /* \"#utility.yul\":10236:10602   */\n      swap2\n      swap1\n      pop\n      jump\t// out\n        /* \"#utility.yul\":10608:11027   */\n    tag_106:\n        /* \"#utility.yul\":10774:10778   */\n      0x00\n        /* \"#utility.yul\":10812:10814   */\n      0x20\n        /* \"#utility.yul\":10801:10810   */\n      dup3\n        /* \"#utility.yul\":10797:10815   */\n      add\n        /* \"#utility.yul\":10789:10815   */\n      swap1\n      pop\n        /* \"#utility.yul\":10861:10870   */\n      dup2\n        /* \"#utility.yul\":10855:10859   */\n      dup2\n        /* \"#utility.yul\":10851:10871   */\n      sub\n        /* \"#utility.yul\":10847:10848   */\n      0x00\n        /* \"#utility.yul\":10836:10845   */\n      dup4\n        /* \"#utility.yul\":10832:10849   */\n      add\n        /* \"#utility.yul\":10825:10872   */\n      mstore\n        /* \"#utility.yul\":10889:11020   */\n      tag_373\n        /* \"#utility.yul\":11015:11019   */\n      dup2\n        /* \"#utility.yul\":10889:11020   */\n      tag_233\n      jump\t// in\n    tag_373:\n        /* \"#utility.yul\":10881:11020   */\n      swap1\n      pop\n        /* \"#utility.yul\":10608:11027   */\n      swap2\n      swap1\n      pop\n      jump\t// out\n        /* \"#utility.yul\":11033:11181   */\n    tag_234:\n        /* \"#utility.yul\":11135:11146   */\n      0x00\n        /* \"#utility.yul\":11172:11175   */\n      dup2\n        /* \"#utility.yul\":11157:11175   */\n      swap1\n      pop\n        /* \"#utility.yul\":11033:11181   */\n      swap3\n      swap2\n      pop\n      pop\n      jump\t// out\n        /* \"#utility.yul\":11187:11343   */\n    tag_235:\n        /* \"#utility.yul\":11327:11335   */\n      0x4e616d653a200000000000000000000000000000000000000000000000000000\n        /* \"#utility.yul\":11323:11324   */\n      0x00\n        /* \"#utility.yul\":11315:11321   */\n      dup3\n        /* \"#utility.yul\":11311:11325   */\n      add\n        /* \"#utility.yul\":11304:11336   */\n      mstore\n        /* \"#utility.yul\":11187:11343   */\n      pop\n      jump\t// out\n        /* \"#utility.yul\":11349:11749   */\n    tag_236:\n        /* \"#utility.yul\":11509:11512   */\n      0x00\n        /* \"#utility.yul\":11530:11614   */\n      tag_377\n        /* \"#utility.yul\":11612:11613   */\n      0x06\n        /* \"#utility.yul\":11607:11610   */\n      dup4\n        /* \"#utility.yul\":11530:11614   */\n      tag_234\n      jump\t// in\n    tag_377:\n        /* \"#utility.yul\":11523:11614   */\n      swap2\n      pop\n        /* \"#utility.yul\":11623:11716   */\n      tag_378\n        /* \"#utility.yul\":11712:11715   */\n      dup3\n        /* \"#utility.yul\":11623:11716   */\n      tag_235\n      jump\t// in\n    tag_378:\n        /* \"#utility.yul\":11741:11742   */\n      0x06\n        /* \"#utility.yul\":11736:11739   */\n      dup3\n        /* \"#utility.yul\":11732:11743   */\n      add\n        /* \"#utility.yul\":11725:11743   */\n      swap1\n      pop\n        /* \"#utility.yul\":11349:11749   */\n      swap2\n      swap1\n      pop\n      jump\t// out\n        /* \"#utility.yul\":11755:11896   */\n    tag_237:\n        /* \"#utility.yul\":11804:11808   */\n      0x00\n        /* \"#utility.yul\":11827:11830   */\n      dup2\n        /* \"#utility.yul\":11819:11830   */\n      swap1\n      pop\n        /* \"#utility.yul\":11850:11853   */\n      dup2\n        /* \"#utility.yul\":11847:11848   */\n      0x00\n        /* \"#utility.yul\":11840:11854   */\n      mstore\n        /* \"#utility.yul\":11884:11888   */\n      0x20\n        /* \"#utility.yul\":11881:11882   */\n      0x00\n        /* \"#utility.yul\":11871:11889   */\n      keccak256\n        /* \"#utility.yul\":11863:11889   */\n      swap1\n      pop\n        /* \"#utility.yul\":11755:11896   */\n      swap2\n      swap1\n      pop\n      jump\t// out\n        /* \"#utility.yul\":11926:12800   */\n    tag_238:\n        /* \"#utility.yul\":12029:12032   */\n      0x00\n        /* \"#utility.yul\":12066:12071   */\n      dup2\n        /* \"#utility.yul\":12060:12072   */\n      sload\n        /* \"#utility.yul\":12095:12131   */\n      tag_381\n        /* \"#utility.yul\":12121:12130   */\n      dup2\n        /* \"#utility.yul\":12095:12131   */\n      tag_78\n      jump\t// in\n    tag_381:\n        /* \"#utility.yul\":12147:12236   */\n      tag_382\n        /* \"#utility.yul\":12229:12235   */\n      dup2\n        /* \"#utility.yul\":12224:12227   */\n      dup7\n        /* \"#utility.yul\":12147:12236   */\n      tag_234\n      jump\t// in\n    tag_382:\n        /* \"#utility.yul\":12140:12236   */\n      swap5\n      pop\n        /* \"#utility.yul\":12267:12268   */\n      0x01\n        /* \"#utility.yul\":12256:12265   */\n      dup3\n        /* \"#utility.yul\":12252:12269   */\n      and\n        /* \"#utility.yul\":12283:12284   */\n      0x00\n        /* \"#utility.yul\":12278:12444   */\n      dup2\n      eq\n      tag_384\n      jumpi\n        /* \"#utility.yul\":12458:12459   */\n      0x01\n        /* \"#utility.yul\":12453:12794   */\n      dup2\n      eq\n      tag_385\n      jumpi\n        /* \"#utility.yul\":12245:12794   */\n      jump(tag_383)\n        /* \"#utility.yul\":12278:12444   */\n    tag_384:\n        /* \"#utility.yul\":12362:12366   */\n      0xff\n        /* \"#utility.yul\":12358:12367   */\n      not\n        /* \"#utility.yul\":12347:12356   */\n      dup4\n        /* \"#utility.yul\":12343:12368   */\n      and\n        /* \"#utility.yul\":12338:12341   */\n      dup7\n        /* \"#utility.yul\":12331:12369   */\n      mstore\n        /* \"#utility.yul\":12424:12430   */\n      dup2\n        /* \"#utility.yul\":12417:12431   */\n      iszero\n        /* \"#utility.yul\":12410:12432   */\n      iszero\n        /* \"#utility.yul\":12402:12408   */\n      dup3\n        /* \"#utility.yul\":12398:12433   */\n      mul\n        /* \"#utility.yul\":12393:12396   */\n      dup7\n        /* \"#utility.yul\":12389:12434   */\n      add\n        /* \"#utility.yul\":12382:12434   */\n      swap4\n      pop\n        /* \"#utility.yul\":12278:12444   */\n      jump(tag_383)\n        /* \"#utility.yul\":12453:12794   */\n    tag_385:\n        /* \"#utility.yul\":12520:12558   */\n      tag_386\n        /* \"#utility.yul\":12552:12557   */\n      dup6\n        /* \"#utility.yul\":12520:12558   */\n      tag_237\n      jump\t// in\n    tag_386:\n        /* \"#utility.yul\":12580:12581   */\n      0x00\n        /* \"#utility.yul\":12594:12748   */\n    tag_387:\n        /* \"#utility.yul\":12608:12614   */\n      dup4\n        /* \"#utility.yul\":12605:12606   */\n      dup2\n        /* \"#utility.yul\":12602:12615   */\n      lt\n        /* \"#utility.yul\":12594:12748   */\n      iszero\n      tag_389\n      jumpi\n        /* \"#utility.yul\":12682:12689   */\n      dup2\n        /* \"#utility.yul\":12676:12690   */\n      sload\n        /* \"#utility.yul\":12672:12673   */\n      dup2\n        /* \"#utility.yul\":12667:12670   */\n      dup10\n        /* \"#utility.yul\":12663:12674   */\n      add\n        /* \"#utility.yul\":12656:12691   */\n      mstore\n        /* \"#utility.yul\":12732:12733   */\n      0x01\n        /* \"#utility.yul\":12723:12730   */\n      dup3\n        /* \"#utility.yul\":12719:12734   */\n      add\n        /* \"#utility.yul\":12708:12734   */\n      swap2\n      pop\n        /* \"#utility.yul\":12630:12634   */\n      0x20\n        /* \"#utility.yul\":12627:12628   */\n      dup2\n        /* \"#utility.yul\":12623:12635   */\n      add\n        /* \"#utility.yul\":12618:12635   */\n      swap1\n      pop\n        /* \"#utility.yul\":12594:12748   */\n      jump(tag_387)\n    tag_389:\n        /* \"#utility.yul\":12777:12783   */\n      dup4\n        /* \"#utility.yul\":12772:12775   */\n      dup9\n        /* \"#utility.yul\":12768:12784   */\n      add\n        /* \"#utility.yul\":12761:12784   */\n      swap6\n      pop\n        /* \"#utility.yul\":12460:12794   */\n      pop\n      pop\n        /* \"#utility.yul\":12245:12794   */\n    tag_383:\n      pop\n        /* \"#utility.yul\":12033:12800   */\n      pop\n      pop\n        /* \"#utility.yul\":11926:12800   */\n      swap3\n      swap2\n      pop\n      pop\n      jump\t// out\n        /* \"#utility.yul\":12806:12970   */\n    tag_239:\n        /* \"#utility.yul\":12946:12962   */\n      0x204465736372697074696f6e3a20000000000000000000000000000000000000\n        /* \"#utility.yul\":12942:12943   */\n      0x00\n        /* \"#utility.yul\":12934:12940   */\n      dup3\n        /* \"#utility.yul\":12930:12944   */\n      add\n        /* \"#utility.yul\":12923:12963   */\n      mstore\n        /* \"#utility.yul\":12806:12970   */\n      pop\n      jump\t// out\n        /* \"#utility.yul\":12976:13378   */\n    tag_240:\n        /* \"#utility.yul\":13136:13139   */\n      0x00\n        /* \"#utility.yul\":13157:13242   */\n      tag_392\n        /* \"#utility.yul\":13239:13241   */\n      0x0e\n        /* \"#utility.yul\":13234:13237   */\n      dup4\n        /* \"#utility.yul\":13157:13242   */\n      tag_234\n      jump\t// in\n    tag_392:\n        /* \"#utility.yul\":13150:13242   */\n      swap2\n      pop\n        /* \"#utility.yul\":13251:13344   */\n      tag_393\n        /* \"#utility.yul\":13340:13343   */\n      dup3\n        /* \"#utility.yul\":13251:13344   */\n      tag_239\n      jump\t// in\n    tag_393:\n        /* \"#utility.yul\":13369:13371   */\n      0x0e\n        /* \"#utility.yul\":13364:13367   */\n      dup3\n        /* \"#utility.yul\":13360:13372   */\n      add\n        /* \"#utility.yul\":13353:13372   */\n      swap1\n      pop\n        /* \"#utility.yul\":12976:13378   */\n      swap2\n      swap1\n      pop\n      jump\t// out\n        /* \"#utility.yul\":13384:14339   */\n    tag_111:\n        /* \"#utility.yul\":13760:13763   */\n      0x00\n        /* \"#utility.yul\":13782:13930   */\n      tag_395\n        /* \"#utility.yul\":13926:13929   */\n      dup3\n        /* \"#utility.yul\":13782:13930   */\n      tag_236\n      jump\t// in\n    tag_395:\n        /* \"#utility.yul\":13775:13930   */\n      swap2\n      pop\n        /* \"#utility.yul\":13947:14039   */\n      tag_396\n        /* \"#utility.yul\":14035:14038   */\n      dup3\n        /* \"#utility.yul\":14026:14032   */\n      dup6\n        /* \"#utility.yul\":13947:14039   */\n      tag_238\n      jump\t// in\n    tag_396:\n        /* \"#utility.yul\":13940:14039   */\n      swap2\n      pop\n        /* \"#utility.yul\":14056:14204   */\n      tag_397\n        /* \"#utility.yul\":14200:14203   */\n      dup3\n        /* \"#utility.yul\":14056:14204   */\n      tag_240\n      jump\t// in\n    tag_397:\n        /* \"#utility.yul\":14049:14204   */\n      swap2\n      pop\n        /* \"#utility.yul\":14221:14313   */\n      tag_398\n        /* \"#utility.yul\":14309:14312   */\n      dup3\n        /* \"#utility.yul\":14300:14306   */\n      dup5\n        /* \"#utility.yul\":14221:14313   */\n      tag_238\n      jump\t// in\n    tag_398:\n        /* \"#utility.yul\":14214:14313   */\n      swap2\n      pop\n        /* \"#utility.yul\":14330:14333   */\n      dup2\n        /* \"#utility.yul\":14323:14333   */\n      swap1\n      pop\n        /* \"#utility.yul\":13384:14339   */\n      swap4\n      swap3\n      pop\n      pop\n      pop\n      jump\t// out\n        /* \"#utility.yul\":14345:14514   */\n    tag_241:\n        /* \"#utility.yul\":14485:14506   */\n      0x5469657220646f65736e27742065786973747300000000000000000000000000\n        /* \"#utility.yul\":14481:14482   */\n      0x00\n        /* \"#utility.yul\":14473:14479   */\n      dup3\n        /* \"#utility.yul\":14469:14483   */\n      add\n        /* \"#utility.yul\":14462:14507   */\n      mstore\n        /* \"#utility.yul\":14345:14514   */\n      pop\n      jump\t// out\n        /* \"#utility.yul\":14520:14886   */\n    tag_242:\n        /* \"#utility.yul\":14662:14665   */\n      0x00\n        /* \"#utility.yul\":14683:14750   */\n      tag_401\n        /* \"#utility.yul\":14747:14749   */\n      0x13\n        /* \"#utility.yul\":14742:14745   */\n      dup4\n        /* \"#utility.yul\":14683:14750   */\n      tag_206\n      jump\t// in\n    tag_401:\n        /* \"#utility.yul\":14676:14750   */\n      swap2\n      pop\n        /* \"#utility.yul\":14759:14852   */\n      tag_402\n        /* \"#utility.yul\":14848:14851   */\n      dup3\n        /* \"#utility.yul\":14759:14852   */\n      tag_241\n      jump\t// in\n    tag_402:\n        /* \"#utility.yul\":14877:14879   */\n      0x20\n        /* \"#utility.yul\":14872:14875   */\n      dup3\n        /* \"#utility.yul\":14868:14880   */\n      add\n        /* \"#utility.yul\":14861:14880   */\n      swap1\n      pop\n        /* \"#utility.yul\":14520:14886   */\n      swap2\n      swap1\n      pop\n      jump\t// out\n        /* \"#utility.yul\":14892:15311   */\n    tag_124:\n        /* \"#utility.yul\":15058:15062   */\n      0x00\n        /* \"#utility.yul\":15096:15098   */\n      0x20\n        /* \"#utility.yul\":15085:15094   */\n      dup3\n        /* \"#utility.yul\":15081:15099   */\n      add\n        /* \"#utility.yul\":15073:15099   */\n      swap1\n      pop\n        /* \"#utility.yul\":15145:15154   */\n      dup2\n        /* \"#utility.yul\":15139:15143   */\n      dup2\n        /* \"#utility.yul\":15135:15155   */\n      sub\n        /* \"#utility.yul\":15131:15132   */\n      0x00\n        /* \"#utility.yul\":15120:15129   */\n      dup4\n        /* \"#utility.yul\":15116:15133   */\n      add\n        /* \"#utility.yul\":15109:15156   */\n      mstore\n        /* \"#utility.yul\":15173:15304   */\n      tag_404\n        /* \"#utility.yul\":15299:15303   */\n      dup2\n        /* \"#utility.yul\":15173:15304   */\n      tag_242\n      jump\t// in\n    tag_404:\n        /* \"#utility.yul\":15165:15304   */\n      swap1\n      pop\n        /* \"#utility.yul\":14892:15311   */\n      swap2\n      swap1\n      pop\n      jump\t// out\n        /* \"#utility.yul\":15317:15497   */\n    tag_243:\n        /* \"#utility.yul\":15365:15442   */\n      0x4e487b7100000000000000000000000000000000000000000000000000000000\n        /* \"#utility.yul\":15362:15363   */\n      0x00\n        /* \"#utility.yul\":15355:15443   */\n      mstore\n        /* \"#utility.yul\":15462:15466   */\n      0x11\n        /* \"#utility.yul\":15459:15460   */\n      0x04\n        /* \"#utility.yul\":15452:15467   */\n      mstore\n        /* \"#utility.yul\":15486:15490   */\n      0x24\n        /* \"#utility.yul\":15483:15484   */\n      0x00\n        /* \"#utility.yul\":15476:15491   */\n      revert\n        /* \"#utility.yul\":15503:15697   */\n    tag_126:\n        /* \"#utility.yul\":15543:15547   */\n      0x00\n        /* \"#utility.yul\":15563:15583   */\n      tag_407\n        /* \"#utility.yul\":15581:15582   */\n      dup3\n        /* \"#utility.yul\":15563:15583   */\n      tag_202\n      jump\t// in\n    tag_407:\n        /* \"#utility.yul\":15558:15583   */\n      swap2\n      pop\n        /* \"#utility.yul\":15597:15617   */\n      tag_408\n        /* \"#utility.yul\":15615:15616   */\n      dup4\n        /* \"#utility.yul\":15597:15617   */\n      tag_202\n      jump\t// in\n    tag_408:\n        /* \"#utility.yul\":15592:15617   */\n      swap3\n      pop\n        /* \"#utility.yul\":15641:15642   */\n      dup3\n        /* \"#utility.yul\":15638:15639   */\n      dup3\n        /* \"#utility.yul\":15634:15643   */\n      sub\n        /* \"#utility.yul\":15626:15643   */\n      swap1\n      pop\n        /* \"#utility.yul\":15665:15666   */\n      dup2\n        /* \"#utility.yul\":15659:15663   */\n      dup2\n        /* \"#utility.yul\":15656:15667   */\n      gt\n        /* \"#utility.yul\":15653:15690   */\n      iszero\n      tag_409\n      jumpi\n        /* \"#utility.yul\":15670:15688   */\n      tag_410\n      tag_243\n      jump\t// in\n    tag_410:\n        /* \"#utility.yul\":15653:15690   */\n    tag_409:\n        /* \"#utility.yul\":15503:15697   */\n      swap3\n      swap2\n      pop\n      pop\n      jump\t// out\n        /* \"#utility.yul\":15703:15883   */\n    tag_129:\n        /* \"#utility.yul\":15751:15828   */\n      0x4e487b7100000000000000000000000000000000000000000000000000000000\n        /* \"#utility.yul\":15748:15749   */\n      0x00\n        /* \"#utility.yul\":15741:15829   */\n      mstore\n        /* \"#utility.yul\":15848:15852   */\n      0x32\n        /* \"#utility.yul\":15845:15846   */\n      0x04\n        /* \"#utility.yul\":15838:15853   */\n      mstore\n        /* \"#utility.yul\":15872:15876   */\n      0x24\n        /* \"#utility.yul\":15869:15870   */\n      0x00\n        /* \"#utility.yul\":15862:15877   */\n      revert\n        /* \"#utility.yul\":15889:16038   */\n    tag_244:\n        /* \"#utility.yul\":15938:15944   */\n      0x00\n        /* \"#utility.yul\":15972:15977   */\n      dup2\n        /* \"#utility.yul\":15966:15978   */\n      sload\n        /* \"#utility.yul\":15956:15978   */\n      swap1\n      pop\n        /* \"#utility.yul\":15998:16031   */\n      tag_413\n        /* \"#utility.yul\":16024:16030   */\n      dup2\n        /* \"#utility.yul\":15998:16031   */\n      tag_78\n      jump\t// in\n    tag_413:\n        /* \"#utility.yul\":15988:16031   */\n      swap1\n      pop\n        /* \"#utility.yul\":15889:16038   */\n      swap2\n      swap1\n      pop\n      jump\t// out\n        /* \"#utility.yul\":16044:16137   */\n    tag_245:\n        /* \"#utility.yul\":16081:16087   */\n      0x00\n        /* \"#utility.yul\":16128:16130   */\n      0x20\n        /* \"#utility.yul\":16123:16125   */\n      0x1f\n        /* \"#utility.yul\":16116:16121   */\n      dup4\n        /* \"#utility.yul\":16112:16126   */\n      add\n        /* \"#utility.yul\":16108:16131   */\n      div\n        /* \"#utility.yul\":16098:16131   */\n      swap1\n      pop\n        /* \"#utility.yul\":16044:16137   */\n      swap2\n      swap1\n      pop\n      jump\t// out\n        /* \"#utility.yul\":16143:16250   */\n    tag_246:\n        /* \"#utility.yul\":16187:16195   */\n      0x00\n        /* \"#utility.yul\":16237:16242   */\n      dup3\n        /* \"#utility.yul\":16231:16235   */\n      dup3\n        /* \"#utility.yul\":16227:16243   */\n      shl\n        /* \"#utility.yul\":16206:16243   */\n      swap1\n      pop\n        /* \"#utility.yul\":16143:16250   */\n      swap3\n      swap2\n      pop\n      pop\n      jump\t// out\n        /* \"#utility.yul\":16256:16649   */\n    tag_247:\n        /* \"#utility.yul\":16325:16331   */\n      0x00\n        /* \"#utility.yul\":16375:16376   */\n      0x08\n        /* \"#utility.yul\":16363:16373   */\n      dup4\n        /* \"#utility.yul\":16359:16377   */\n      mul\n        /* \"#utility.yul\":16398:16495   */\n      tag_417\n        /* \"#utility.yul\":16428:16494   */\n      0xffffffffffffffffffffffffffffffffffffffffffffffffffffffffffffffff\n        /* \"#utility.yul\":16417:16426   */\n      dup3\n        /* \"#utility.yul\":16398:16495   */\n      tag_246\n      jump\t// in\n    tag_417:\n        /* \"#utility.yul\":16516:16555   */\n      tag_418\n        /* \"#utility.yul\":16546:16554   */\n      dup7\n        /* \"#utility.yul\":16535:16544   */\n      dup4\n        /* \"#utility.yul\":16516:16555   */\n      tag_246\n      jump\t// in\n    tag_418:\n        /* \"#utility.yul\":16504:16555   */\n      swap6\n      pop\n        /* \"#utility.yul\":16588:16592   */\n      dup1\n        /* \"#utility.yul\":16584:16593   */\n      not\n        /* \"#utility.yul\":16577:16582   */\n      dup5\n        /* \"#utility.yul\":16573:16594   */\n      and\n        /* \"#utility.yul\":16564:16594   */\n      swap4\n      pop\n        /* \"#utility.yul\":16637:16641   */\n      dup1\n        /* \"#utility.yul\":16627:16635   */\n      dup7\n        /* \"#utility.yul\":16623:16642   */\n      and\n        /* \"#utility.yul\":16616:16621   */\n      dup5\n        /* \"#utility.yul\":16613:16643   */\n      or\n        /* \"#utility.yul\":16603:16643   */\n      swap3\n      pop\n        /* \"#utility.yul\":16332:16649   */\n      pop\n      pop\n        /* \"#utility.yul\":16256:16649   */\n      swap4\n      swap3\n      pop\n      pop\n      pop\n      jump\t// out\n        /* \"#utility.yul\":16655:16715   */\n    tag_248:\n        /* \"#utility.yul\":16683:16686   */\n      0x00\n        /* \"#utility.yul\":16704:16709   */\n      dup2\n        /* \"#utility.yul\":16697:16709   */\n      swap1\n      pop\n        /* \"#utility.yul\":16655:16715   */\n      swap2\n      swap1\n      pop\n      jump\t// out\n        /* \"#utility.yul\":16721:16863   */\n    tag_249:\n        /* \"#utility.yul\":16771:16780   */\n      0x00\n        /* \"#utility.yul\":16804:16857   */\n      tag_421\n        /* \"#utility.yul\":16822:16856   */\n      tag_422\n        /* \"#utility.yul\":16831:16855   */\n      tag_423\n        /* \"#utility.yul\":16849:16854   */\n      dup5\n        /* \"#utility.yul\":16831:16855   */\n      tag_202\n      jump\t// in\n    tag_423:\n        /* \"#utility.yul\":16822:16856   */\n      tag_248\n      jump\t// in\n    tag_422:\n        /* \"#utility.yul\":16804:16857   */\n      tag_202\n      jump\t// in\n    tag_421:\n        /* \"#utility.yul\":16791:16857   */\n      swap1\n      pop\n        /* \"#utility.yul\":16721:16863   */\n      swap2\n      swap1\n      pop\n      jump\t// out\n        /* \"#utility.yul\":16869:16944   */\n    tag_250:\n        /* \"#utility.yul\":16912:16915   */\n      0x00\n        /* \"#utility.yul\":16933:16938   */\n      dup2\n        /* \"#utility.yul\":16926:16938   */\n      swap1\n      pop\n        /* \"#utility.yul\":16869:16944   */\n      swap2\n      swap1\n      pop\n      jump\t// out\n        /* \"#utility.yul\":16950:17219   */\n    tag_251:\n        /* \"#utility.yul\":17060:17099   */\n      tag_426\n        /* \"#utility.yul\":17091:17098   */\n      dup4\n        /* \"#utility.yul\":17060:17099   */\n      tag_249\n      jump\t// in\n    tag_426:\n        /* \"#utility.yul\":17121:17212   */\n      tag_427\n        /* \"#utility.yul\":17170:17211   */\n      tag_428\n        /* \"#utility.yul\":17194:17210   */\n      dup3\n        /* \"#utility.yul\":17170:17211   */\n      tag_250\n      jump\t// in\n    tag_428:\n        /* \"#utility.yul\":17162:17168   */\n      dup5\n        /* \"#utility.yul\":17155:17159   */\n      dup5\n        /* \"#utility.yul\":17149:17160   */\n      sload\n        /* \"#utility.yul\":17121:17212   */\n      tag_247\n      jump\t// in\n    tag_427:\n        /* \"#utility.yul\":17115:17119   */\n      dup3\n        /* \"#utility.yul\":17108:17213   */\n      sstore\n        /* \"#utility.yul\":17026:17219   */\n      pop\n        /* \"#utility.yul\":16950:17219   */\n      pop\n      pop\n      pop\n      jump\t// out\n        /* \"#utility.yul\":17225:17298   */\n    tag_252:\n        /* \"#utility.yul\":17270:17273   */\n      0x00\n        /* \"#utility.yul\":17225:17298   */\n      swap1\n      jump\t// out\n        /* \"#utility.yul\":17304:17493   */\n    tag_253:\n        /* \"#utility.yul\":17381:17413   */\n      tag_431\n      tag_252\n      jump\t// in\n    tag_431:\n        /* \"#utility.yul\":17422:17487   */\n      tag_432\n        /* \"#utility.yul\":17480:17486   */\n      dup2\n        /* \"#utility.yul\":17472:17478   */\n      dup5\n        /* \"#utility.yul\":17466:17470   */\n      dup5\n        /* \"#utility.yul\":17422:17487   */\n      tag_251\n      jump\t// in\n    tag_432:\n        /* \"#utility.yul\":17357:17493   */\n      pop\n        /* \"#utility.yul\":17304:17493   */\n      pop\n      pop\n      jump\t// out\n        /* \"#utility.yul\":17499:17685   */\n    tag_254:\n        /* \"#utility.yul\":17559:17679   */\n    tag_434:\n        /* \"#utility.yul\":17576:17579   */\n      dup2\n        /* \"#utility.yul\":17569:17574   */\n      dup2\n        /* \"#utility.yul\":17566:17580   */\n      lt\n        /* \"#utility.yul\":17559:17679   */\n      iszero\n      tag_436\n      jumpi\n        /* \"#utility.yul\":17630:17669   */\n      tag_437\n        /* \"#utility.yul\":17667:17668   */\n      0x00\n        /* \"#utility.yul\":17660:17665   */\n      dup3\n        /* \"#utility.yul\":17630:17669   */\n      tag_253\n      jump\t// in\n    tag_437:\n        /* \"#utility.yul\":17603:17604   */\n      0x01\n        /* \"#utility.yul\":17596:17601   */\n      dup2\n        /* \"#utility.yul\":17592:17605   */\n      add\n        /* \"#utility.yul\":17583:17605   */\n      swap1\n      pop\n        /* \"#utility.yul\":17559:17679   */\n      jump(tag_434)\n    tag_436:\n        /* \"#utility.yul\":17499:17685   */\n      pop\n      pop\n      jump\t// out\n        /* \"#utility.yul\":17691:18234   */\n    tag_255:\n        /* \"#utility.yul\":17792:17794   */\n      0x1f\n        /* \"#utility.yul\":17787:17790   */\n      dup3\n        /* \"#utility.yul\":17784:17795   */\n      gt\n        /* \"#utility.yul\":17781:18227   */\n      iszero\n      tag_439\n      jumpi\n        /* \"#utility.yul\":17826:17864   */\n      tag_440\n        /* \"#utility.yul\":17858:17863   */\n      dup2\n        /* \"#utility.yul\":17826:17864   */\n      tag_237\n      jump\t// in\n    tag_440:\n        /* \"#utility.yul\":17910:17939   */\n      tag_441\n        /* \"#utility.yul\":17928:17938   */\n      dup5\n        /* \"#utility.yul\":17910:17939   */\n      tag_245\n      jump\t// in\n    tag_441:\n        /* \"#utility.yul\":17900:17908   */\n      dup2\n        /* \"#utility.yul\":17896:17940   */\n      add\n        /* \"#utility.yul\":18093:18095   */\n      0x20\n        /* \"#utility.yul\":18081:18091   */\n      dup6\n        /* \"#utility.yul\":18078:18096   */\n      lt\n        /* \"#utility.yul\":18075:18124   */\n      iszero\n      tag_442\n      jumpi\n        /* \"#utility.yul\":18114:18122   */\n      dup2\n        /* \"#utility.yul\":18099:18122   */\n      swap1\n      pop\n        /* \"#utility.yul\":18075:18124   */\n    tag_442:\n        /* \"#utility.yul\":18137:18217   */\n      tag_443\n        /* \"#utility.yul\":18193:18215   */\n      tag_444\n        /* \"#utility.yul\":18211:18214   */\n      dup6\n        /* \"#utility.yul\":18193:18215   */\n      tag_245\n      jump\t// in\n    tag_444:\n        /* \"#utility.yul\":18183:18191   */\n      dup4\n        /* \"#utility.yul\":18179:18216   */\n      add\n        /* \"#utility.yul\":18166:18177   */\n      dup3\n        /* \"#utility.yul\":18137:18217   */\n      tag_254\n      jump\t// in\n    tag_443:\n        /* \"#utility.yul\":17796:18227   */\n      pop\n      pop\n        /* \"#utility.yul\":17781:18227   */\n    tag_439:\n        /* \"#utility.yul\":17691:18234   */\n      pop\n      pop\n      pop\n      jump\t// out\n        /* \"#utility.yul\":18240:18357   */\n    tag_256:\n        /* \"#utility.yul\":18294:18302   */\n      0x00\n        /* \"#utility.yul\":18344:18349   */\n      dup3\n        /* \"#utility.yul\":18338:18342   */\n      dup3\n        /* \"#utility.yul\":18334:18350   */\n      shr\n        /* \"#utility.yul\":18313:18350   */\n      swap1\n      pop\n        /* \"#utility.yul\":18240:18357   */\n      swap3\n      swap2\n      pop\n      pop\n      jump\t// out\n        /* \"#utility.yul\":18363:18532   */\n    tag_257:\n        /* \"#utility.yul\":18407:18413   */\n      0x00\n        /* \"#utility.yul\":18440:18491   */\n      tag_447\n        /* \"#utility.yul\":18488:18489   */\n      0x00\n        /* \"#utility.yul\":18484:18490   */\n      not\n        /* \"#utility.yul\":18476:18481   */\n      dup5\n        /* \"#utility.yul\":18473:18474   */\n      0x08\n        /* \"#utility.yul\":18469:18482   */\n      mul\n        /* \"#utility.yul\":18440:18491   */\n      tag_256\n      jump\t// in\n    tag_447:\n        /* \"#utility.yul\":18436:18492   */\n      not\n        /* \"#utility.yul\":18521:18525   */\n      dup1\n        /* \"#utility.yul\":18515:18519   */\n      dup4\n        /* \"#utility.yul\":18511:18526   */\n      and\n        /* \"#utility.yul\":18501:18526   */\n      swap2\n      pop\n        /* \"#utility.yul\":18414:18532   */\n      pop\n        /* \"#utility.yul\":18363:18532   */\n      swap3\n      swap2\n      pop\n      pop\n      jump\t// out\n        /* \"#utility.yul\":18537:18832   */\n    tag_258:\n        /* \"#utility.yul\":18613:18617   */\n      0x00\n        /* \"#utility.yul\":18759:18788   */\n      tag_449\n        /* \"#utility.yul\":18784:18787   */\n      dup4\n        /* \"#utility.yul\":18778:18782   */\n      dup4\n        /* \"#utility.yul\":18759:18788   */\n      tag_257\n      jump\t// in\n    tag_449:\n        /* \"#utility.yul\":18751:18788   */\n      swap2\n      pop\n        /* \"#utility.yul\":18821:18824   */\n      dup3\n        /* \"#utility.yul\":18818:18819   */\n      0x02\n        /* \"#utility.yul\":18814:18825   */\n      mul\n        /* \"#utility.yul\":18808:18812   */\n      dup3\n        /* \"#utility.yul\":18805:18826   */\n      or\n        /* \"#utility.yul\":18797:18826   */\n      swap1\n      pop\n        /* \"#utility.yul\":18537:18832   */\n      swap3\n      swap2\n      pop\n      pop\n      jump\t// out\n        /* \"#utility.yul\":18837:20288   */\n    tag_135:\n        /* \"#utility.yul\":18948:18951   */\n      dup2\n        /* \"#utility.yul\":18942:18946   */\n      dup2\n        /* \"#utility.yul\":18939:18952   */\n      sub\n        /* \"#utility.yul\":18936:18962   */\n      tag_451\n      jumpi\n        /* \"#utility.yul\":18955:18960   */\n      pop\n      pop\n      jump(tag_450)\n        /* \"#utility.yul\":18936:18962   */\n    tag_451:\n        /* \"#utility.yul\":18986:19020   */\n      tag_452\n        /* \"#utility.yul\":19016:19019   */\n      dup3\n        /* \"#utility.yul\":18986:19020   */\n      tag_244\n      jump\t// in\n    tag_452:\n        /* \"#utility.yul\":19085:19103   */\n      0xffffffffffffffff\n        /* \"#utility.yul\":19077:19083   */\n      dup2\n        /* \"#utility.yul\":19074:19104   */\n      gt\n        /* \"#utility.yul\":19071:19127   */\n      iszero\n      tag_453\n      jumpi\n        /* \"#utility.yul\":19107:19125   */\n      tag_454\n      tag_216\n      jump\t// in\n    tag_454:\n        /* \"#utility.yul\":19071:19127   */\n    tag_453:\n        /* \"#utility.yul\":19151:19189   */\n      tag_455\n        /* \"#utility.yul\":19183:19187   */\n      dup3\n        /* \"#utility.yul\":19177:19188   */\n      sload\n        /* \"#utility.yul\":19151:19189   */\n      tag_78\n      jump\t// in\n    tag_455:\n        /* \"#utility.yul\":19236:19303   */\n      tag_456\n        /* \"#utility.yul\":19296:19302   */\n      dup3\n        /* \"#utility.yul\":19288:19294   */\n      dup3\n        /* \"#utility.yul\":19282:19286   */\n      dup6\n        /* \"#utility.yul\":19236:19303   */\n      tag_255\n      jump\t// in\n    tag_456:\n        /* \"#utility.yul\":19330:19331   */\n      0x00\n        /* \"#utility.yul\":19359:19361   */\n      0x1f\n        /* \"#utility.yul\":19351:19357   */\n      dup4\n        /* \"#utility.yul\":19348:19362   */\n      gt\n        /* \"#utility.yul\":19376:19377   */\n      0x01\n        /* \"#utility.yul\":19371:20043   */\n      dup2\n      eq\n      tag_458\n      jumpi\n        /* \"#utility.yul\":20087:20088   */\n      0x00\n        /* \"#utility.yul\":20104:20110   */\n      dup5\n        /* \"#utility.yul\":20101:20178   */\n      iszero\n      tag_459\n      jumpi\n        /* \"#utility.yul\":20153:20162   */\n      dup3\n        /* \"#utility.yul\":20148:20151   */\n      dup8\n        /* \"#utility.yul\":20144:20163   */\n      add\n        /* \"#utility.yul\":20138:20164   */\n      sload\n        /* \"#utility.yul\":20129:20164   */\n      swap1\n      pop\n        /* \"#utility.yul\":20101:20178   */\n    tag_459:\n        /* \"#utility.yul\":20204:20271   */\n      tag_460\n        /* \"#utility.yul\":20264:20270   */\n      dup6\n        /* \"#utility.yul\":20257:20262   */\n      dup3\n        /* \"#utility.yul\":20204:20271   */\n      tag_258\n      jump\t// in\n    tag_460:\n        /* \"#utility.yul\":20198:20202   */\n      dup7\n        /* \"#utility.yul\":20191:20272   */\n      sstore\n        /* \"#utility.yul\":20060:20282   */\n      pop\n        /* \"#utility.yul\":19341:20282   */\n      jump(tag_457)\n        /* \"#utility.yul\":19371:20043   */\n    tag_458:\n        /* \"#utility.yul\":19423:19427   */\n      0x1f\n        /* \"#utility.yul\":19419:19428   */\n      not\n        /* \"#utility.yul\":19411:19417   */\n      dup5\n        /* \"#utility.yul\":19407:19429   */\n      and\n        /* \"#utility.yul\":19449:19485   */\n      tag_461\n        /* \"#utility.yul\":19481:19484   */\n      dup8\n        /* \"#utility.yul\":19449:19485   */\n      tag_237\n      jump\t// in\n    tag_461:\n        /* \"#utility.yul\":19442:19485   */\n      swap7\n      pop\n        /* \"#utility.yul\":19512:19549   */\n      tag_462\n        /* \"#utility.yul\":19544:19548   */\n      dup7\n        /* \"#utility.yul\":19512:19549   */\n      tag_237\n      jump\t// in\n    tag_462:\n        /* \"#utility.yul\":19571:19572   */\n      0x00\n        /* \"#utility.yul\":19585:19792   */\n    tag_463:\n        /* \"#utility.yul\":19599:19606   */\n      dup3\n        /* \"#utility.yul\":19596:19597   */\n      dup2\n        /* \"#utility.yul\":19593:19607   */\n      lt\n        /* \"#utility.yul\":19585:19792   */\n      iszero\n      tag_465\n      jumpi\n        /* \"#utility.yul\":19678:19687   */\n      dup5\n        /* \"#utility.yul\":19673:19676   */\n      dup10\n        /* \"#utility.yul\":19669:19688   */\n      add\n        /* \"#utility.yul\":19663:19689   */\n      sload\n        /* \"#utility.yul\":19655:19661   */\n      dup3\n        /* \"#utility.yul\":19648:19690   */\n      sstore\n        /* \"#utility.yul\":19729:19730   */\n      0x01\n        /* \"#utility.yul\":19721:19727   */\n      dup3\n        /* \"#utility.yul\":19717:19731   */\n      add\n        /* \"#utility.yul\":19707:19731   */\n      swap2\n      pop\n        /* \"#utility.yul\":19776:19777   */\n      0x01\n        /* \"#utility.yul\":19765:19774   */\n      dup6\n        /* \"#utility.yul\":19761:19778   */\n      add\n        /* \"#utility.yul\":19748:19778   */\n      swap5\n      pop\n        /* \"#utility.yul\":19622:19626   */\n      0x20\n        /* \"#utility.yul\":19619:19620   */\n      dup2\n        /* \"#utility.yul\":19615:19627   */\n      add\n        /* \"#utility.yul\":19610:19627   */\n      swap1\n      pop\n        /* \"#utility.yul\":19585:19792   */\n      jump(tag_463)\n    tag_465:\n        /* \"#utility.yul\":19820:19826   */\n      dup7\n        /* \"#utility.yul\":19811:19818   */\n      dup4\n        /* \"#utility.yul\":19808:19827   */\n      lt\n        /* \"#utility.yul\":19805:19984   */\n      iszero\n      tag_466\n      jumpi\n        /* \"#utility.yul\":19878:19887   */\n      dup5\n        /* \"#utility.yul\":19873:19876   */\n      dup10\n        /* \"#utility.yul\":19869:19888   */\n      add\n        /* \"#utility.yul\":19863:19889   */\n      sload\n        /* \"#utility.yul\":19921:19969   */\n      tag_467\n        /* \"#utility.yul\":19963:19967   */\n      0x1f\n        /* \"#utility.yul\":19955:19961   */\n      dup10\n        /* \"#utility.yul\":19951:19968   */\n      and\n        /* \"#utility.yul\":19940:19949   */\n      dup3\n        /* \"#utility.yul\":19921:19969   */\n      tag_257\n      jump\t// in\n    tag_467:\n        /* \"#utility.yul\":19913:19919   */\n      dup4\n        /* \"#utility.yul\":19906:19970   */\n      sstore\n        /* \"#utility.yul\":19828:19984   */\n      pop\n        /* \"#utility.yul\":19805:19984   */\n    tag_466:\n        /* \"#utility.yul\":20030:20031   */\n      0x01\n        /* \"#utility.yul\":20026:20027   */\n      0x02\n        /* \"#utility.yul\":20018:20024   */\n      dup9\n        /* \"#utility.yul\":20014:20028   */\n      mul\n        /* \"#utility.yul\":20010:20032   */\n      add\n        /* \"#utility.yul\":20004:20008   */\n      dup9\n        /* \"#utility.yul\":19997:20033   */\n      sstore\n        /* \"#utility.yul\":19378:20043   */\n      pop\n      pop\n      pop\n        /* \"#utility.yul\":19341:20282   */\n    tag_457:\n      pop\n        /* \"#utility.yul\":18926:20288   */\n      pop\n      pop\n      pop\n        /* \"#utility.yul\":18837:20288   */\n      pop\n      pop\n    tag_450:\n      jump\t// out\n        /* \"#utility.yul\":20294:20474   */\n    tag_138:\n        /* \"#utility.yul\":20342:20419   */\n      0x4e487b7100000000000000000000000000000000000000000000000000000000\n        /* \"#utility.yul\":20339:20340   */\n      0x00\n        /* \"#utility.yul\":20332:20420   */\n      mstore\n        /* \"#utility.yul\":20439:20443   */\n      0x31\n        /* \"#utility.yul\":20436:20437   */\n      0x04\n        /* \"#utility.yul\":20429:20444   */\n      mstore\n        /* \"#utility.yul\":20463:20467   */\n      0x24\n        /* \"#utility.yul\":20460:20461   */\n      0x00\n        /* \"#utility.yul\":20453:20468   */\n      revert\n        /* \"#utility.yul\":20480:20660   */\n    tag_259:\n        /* \"#utility.yul\":20620:20652   */\n      0x416d6f756e74206d757374206265206772656174657220746861746e20300000\n        /* \"#utility.yul\":20616:20617   */\n      0x00\n        /* \"#utility.yul\":20608:20614   */\n      dup3\n        /* \"#utility.yul\":20604:20618   */\n      add\n        /* \"#utility.yul\":20597:20653   */\n      mstore\n        /* \"#utility.yul\":20480:20660   */\n      pop\n      jump\t// out\n        /* \"#utility.yul\":20666:21032   */\n    tag_260:\n        /* \"#utility.yul\":20808:20811   */\n      0x00\n        /* \"#utility.yul\":20829:20896   */\n      tag_471\n        /* \"#utility.yul\":20893:20895   */\n      0x1e\n        /* \"#utility.yul\":20888:20891   */\n      dup4\n        /* \"#utility.yul\":20829:20896   */\n      tag_206\n      jump\t// in\n    tag_471:\n        /* \"#utility.yul\":20822:20896   */\n      swap2\n      pop\n        /* \"#utility.yul\":20905:20998   */\n      tag_472\n        /* \"#utility.yul\":20994:20997   */\n      dup3\n        /* \"#utility.yul\":20905:20998   */\n      tag_259\n      jump\t// in\n    tag_472:\n        /* \"#utility.yul\":21023:21025   */\n      0x20\n        /* \"#utility.yul\":21018:21021   */\n      dup3\n        /* \"#utility.yul\":21014:21026   */\n      add\n        /* \"#utility.yul\":21007:21026   */\n      swap1\n      pop\n        /* \"#utility.yul\":20666:21032   */\n      swap2\n      swap1\n      pop\n      jump\t// out\n        /* \"#utility.yul\":21038:21457   */\n    tag_148:\n        /* \"#utility.yul\":21204:21208   */\n      0x00\n        /* \"#utility.yul\":21242:21244   */\n      0x20\n        /* \"#utility.yul\":21231:21240   */\n      dup3\n        /* \"#utility.yul\":21227:21245   */\n      add\n        /* \"#utility.yul\":21219:21245   */\n      swap1\n      pop\n        /* \"#utility.yul\":21291:21300   */\n      dup2\n        /* \"#utility.yul\":21285:21289   */\n      dup2\n        /* \"#utility.yul\":21281:21301   */\n      sub\n        /* \"#utility.yul\":21277:21278   */\n      0x00\n        /* \"#utility.yul\":21266:21275   */\n      dup4\n        /* \"#utility.yul\":21262:21279   */\n      add\n        /* \"#utility.yul\":21255:21302   */\n      mstore\n        /* \"#utility.yul\":21319:21450   */\n      tag_474\n        /* \"#utility.yul\":21445:21449   */\n      dup2\n        /* \"#utility.yul\":21319:21450   */\n      tag_260\n      jump\t// in\n    tag_474:\n        /* \"#utility.yul\":21311:21450   */\n      swap1\n      pop\n        /* \"#utility.yul\":21038:21457   */\n      swap2\n      swap1\n      pop\n      jump\t// out\n        /* \"#utility.yul\":21463:22858   */\n    tag_151:\n        /* \"#utility.yul\":21580:21617   */\n      tag_476\n        /* \"#utility.yul\":21613:21616   */\n      dup3\n        /* \"#utility.yul\":21580:21617   */\n      tag_205\n      jump\t// in\n    tag_476:\n        /* \"#utility.yul\":21682:21700   */\n      0xffffffffffffffff\n        /* \"#utility.yul\":21674:21680   */\n      dup2\n        /* \"#utility.yul\":21671:21701   */\n      gt\n        /* \"#utility.yul\":21668:21724   */\n      iszero\n      tag_477\n      jumpi\n        /* \"#utility.yul\":21704:21722   */\n      tag_478\n      tag_216\n      jump\t// in\n    tag_478:\n        /* \"#utility.yul\":21668:21724   */\n    tag_477:\n        /* \"#utility.yul\":21748:21786   */\n      tag_479\n        /* \"#utility.yul\":21780:21784   */\n      dup3\n        /* \"#utility.yul\":21774:21785   */\n      sload\n        /* \"#utility.yul\":21748:21786   */\n      tag_78\n      jump\t// in\n    tag_479:\n        /* \"#utility.yul\":21833:21900   */\n      tag_480\n        /* \"#utility.yul\":21893:21899   */\n      dup3\n        /* \"#utility.yul\":21885:21891   */\n      dup3\n        /* \"#utility.yul\":21879:21883   */\n      dup6\n        /* \"#utility.yul\":21833:21900   */\n      tag_255\n      jump\t// in\n    tag_480:\n        /* \"#utility.yul\":21927:21928   */\n      0x00\n        /* \"#utility.yul\":21951:21955   */\n      0x20\n        /* \"#utility.yul\":21938:21955   */\n      swap1\n      pop\n        /* \"#utility.yul\":21983:21985   */\n      0x1f\n        /* \"#utility.yul\":21975:21981   */\n      dup4\n        /* \"#utility.yul\":21972:21986   */\n      gt\n        /* \"#utility.yul\":22000:22001   */\n      0x01\n        /* \"#utility.yul\":21995:22613   */\n      dup2\n      eq\n      tag_482\n      jumpi\n        /* \"#utility.yul\":22657:22658   */\n      0x00\n        /* \"#utility.yul\":22674:22680   */\n      dup5\n        /* \"#utility.yul\":22671:22748   */\n      iszero\n      tag_483\n      jumpi\n        /* \"#utility.yul\":22723:22732   */\n      dup3\n        /* \"#utility.yul\":22718:22721   */\n      dup8\n        /* \"#utility.yul\":22714:22733   */\n      add\n        /* \"#utility.yul\":22708:22734   */\n      mload\n        /* \"#utility.yul\":22699:22734   */\n      swap1\n      pop\n        /* \"#utility.yul\":22671:22748   */\n    tag_483:\n        /* \"#utility.yul\":22774:22841   */\n      tag_484\n        /* \"#utility.yul\":22834:22840   */\n      dup6\n        /* \"#utility.yul\":22827:22832   */\n      dup3\n        /* \"#utility.yul\":22774:22841   */\n      tag_258\n      jump\t// in\n    tag_484:\n        /* \"#utility.yul\":22768:22772   */\n      dup7\n        /* \"#utility.yul\":22761:22842   */\n      sstore\n        /* \"#utility.yul\":22630:22852   */\n      pop\n        /* \"#utility.yul\":21965:22852   */\n      jump(tag_481)\n        /* \"#utility.yul\":21995:22613   */\n    tag_482:\n        /* \"#utility.yul\":22047:22051   */\n      0x1f\n        /* \"#utility.yul\":22043:22052   */\n      not\n        /* \"#utility.yul\":22035:22041   */\n      dup5\n        /* \"#utility.yul\":22031:22053   */\n      and\n        /* \"#utility.yul\":22081:22118   */\n      tag_485\n        /* \"#utility.yul\":22113:22117   */\n      dup7\n        /* \"#utility.yul\":22081:22118   */\n      tag_237\n      jump\t// in\n    tag_485:\n        /* \"#utility.yul\":22140:22141   */\n      0x00\n        /* \"#utility.yul\":22154:22362   */\n    tag_486:\n        /* \"#utility.yul\":22168:22175   */\n      dup3\n        /* \"#utility.yul\":22165:22166   */\n      dup2\n        /* \"#utility.yul\":22162:22176   */\n      lt\n        /* \"#utility.yul\":22154:22362   */\n      iszero\n      tag_488\n      jumpi\n        /* \"#utility.yul\":22247:22256   */\n      dup5\n        /* \"#utility.yul\":22242:22245   */\n      dup10\n        /* \"#utility.yul\":22238:22257   */\n      add\n        /* \"#utility.yul\":22232:22258   */\n      mload\n        /* \"#utility.yul\":22224:22230   */\n      dup3\n        /* \"#utility.yul\":22217:22259   */\n      sstore\n        /* \"#utility.yul\":22298:22299   */\n      0x01\n        /* \"#utility.yul\":22290:22296   */\n      dup3\n        /* \"#utility.yul\":22286:22300   */\n      add\n        /* \"#utility.yul\":22276:22300   */\n      swap2\n      pop\n        /* \"#utility.yul\":22345:22347   */\n      0x20\n        /* \"#utility.yul\":22334:22343   */\n      dup6\n        /* \"#utility.yul\":22330:22348   */\n      add\n        /* \"#utility.yul\":22317:22348   */\n      swap5\n      pop\n        /* \"#utility.yul\":22191:22195   */\n      0x20\n        /* \"#utility.yul\":22188:22189   */\n      dup2\n        /* \"#utility.yul\":22184:22196   */\n      add\n        /* \"#utility.yul\":22179:22196   */\n      swap1\n      pop\n        /* \"#utility.yul\":22154:22362   */\n      jump(tag_486)\n    tag_488:\n        /* \"#utility.yul\":22390:22396   */\n      dup7\n        /* \"#utility.yul\":22381:22388   */\n      dup4\n        /* \"#utility.yul\":22378:22397   */\n      lt\n        /* \"#utility.yul\":22375:22554   */\n      iszero\n      tag_489\n      jumpi\n        /* \"#utility.yul\":22448:22457   */\n      dup5\n        /* \"#utility.yul\":22443:22446   */\n      dup10\n        /* \"#utility.yul\":22439:22458   */\n      add\n        /* \"#utility.yul\":22433:22459   */\n      mload\n        /* \"#utility.yul\":22491:22539   */\n      tag_490\n        /* \"#utility.yul\":22533:22537   */\n      0x1f\n        /* \"#utility.yul\":22525:22531   */\n      dup10\n        /* \"#utility.yul\":22521:22538   */\n      and\n        /* \"#utility.yul\":22510:22519   */\n      dup3\n        /* \"#utility.yul\":22491:22539   */\n      tag_257\n      jump\t// in\n    tag_490:\n        /* \"#utility.yul\":22483:22489   */\n      dup4\n        /* \"#utility.yul\":22476:22540   */\n      sstore\n        /* \"#utility.yul\":22398:22554   */\n      pop\n        /* \"#utility.yul\":22375:22554   */\n    tag_489:\n        /* \"#utility.yul\":22600:22601   */\n      0x01\n        /* \"#utility.yul\":22596:22597   */\n      0x02\n        /* \"#utility.yul\":22588:22594   */\n      dup9\n        /* \"#utility.yul\":22584:22598   */\n      mul\n        /* \"#utility.yul\":22580:22602   */\n      add\n        /* \"#utility.yul\":22574:22578   */\n      dup9\n        /* \"#utility.yul\":22567:22603   */\n      sstore\n        /* \"#utility.yul\":22002:22613   */\n      pop\n      pop\n      pop\n        /* \"#utility.yul\":21965:22852   */\n    tag_481:\n      pop\n        /* \"#utility.yul\":21555:22858   */\n      pop\n      pop\n      pop\n        /* \"#utility.yul\":21463:22858   */\n      pop\n      pop\n      jump\t// out\n        /* \"#utility.yul\":22864:23036   */\n    tag_261:\n        /* \"#utility.yul\":23004:23028   */\n      0x43616d706169676e206973206e6f742061637469766500000000000000000000\n        /* \"#utility.yul\":23000:23001   */\n      0x00\n        /* \"#utility.yul\":22992:22998   */\n      dup3\n        /* \"#utility.yul\":22988:23002   */\n      add\n        /* \"#utility.yul\":22981:23029   */\n      mstore\n        /* \"#utility.yul\":22864:23036   */\n      pop\n      jump\t// out\n        /* \"#utility.yul\":23042:23408   */\n    tag_262:\n        /* \"#utility.yul\":23184:23187   */\n      0x00\n        /* \"#utility.yul\":23205:23272   */\n      tag_493\n        /* \"#utility.yul\":23269:23271   */\n      0x16\n        /* \"#utility.yul\":23264:23267   */\n      dup4\n        /* \"#utility.yul\":23205:23272   */\n      tag_206\n      jump\t// in\n    tag_493:\n        /* \"#utility.yul\":23198:23272   */\n      swap2\n      pop\n        /* \"#utility.yul\":23281:23374   */\n      tag_494\n        /* \"#utility.yul\":23370:23373   */\n      dup3\n        /* \"#utility.yul\":23281:23374   */\n      tag_261\n      jump\t// in\n    tag_494:\n        /* \"#utility.yul\":23399:23401   */\n      0x20\n        /* \"#utility.yul\":23394:23397   */\n      dup3\n        /* \"#utility.yul\":23390:23402   */\n      add\n        /* \"#utility.yul\":23383:23402   */\n      swap1\n      pop\n        /* \"#utility.yul\":23042:23408   */\n      swap2\n      swap1\n      pop\n      jump\t// out\n        /* \"#utility.yul\":23414:23833   */\n    tag_159:\n        /* \"#utility.yul\":23580:23584   */\n      0x00\n        /* \"#utility.yul\":23618:23620   */\n      0x20\n        /* \"#utility.yul\":23607:23616   */\n      dup3\n        /* \"#utility.yul\":23603:23621   */\n      add\n        /* \"#utility.yul\":23595:23621   */\n      swap1\n      pop\n        /* \"#utility.yul\":23667:23676   */\n      dup2\n        /* \"#utility.yul\":23661:23665   */\n      dup2\n        /* \"#utility.yul\":23657:23677   */\n      sub\n        /* \"#utility.yul\":23653:23654   */\n      0x00\n        /* \"#utility.yul\":23642:23651   */\n      dup4\n        /* \"#utility.yul\":23638:23655   */\n      add\n        /* \"#utility.yul\":23631:23678   */\n      mstore\n        /* \"#utility.yul\":23695:23826   */\n      tag_496\n        /* \"#utility.yul\":23821:23825   */\n      dup2\n        /* \"#utility.yul\":23695:23826   */\n      tag_262\n      jump\t// in\n    tag_496:\n        /* \"#utility.yul\":23687:23826   */\n      swap1\n      pop\n        /* \"#utility.yul\":23414:23833   */\n      swap2\n      swap1\n      pop\n      jump\t// out\n        /* \"#utility.yul\":23839:24001   */\n    tag_263:\n        /* \"#utility.yul\":23979:23993   */\n      0x496e76616c696420746965720000000000000000000000000000000000000000\n        /* \"#utility.yul\":23975:23976   */\n      0x00\n        /* \"#utility.yul\":23967:23973   */\n      dup3\n        /* \"#utility.yul\":23963:23977   */\n      add\n        /* \"#utility.yul\":23956:23994   */\n      mstore\n        /* \"#utility.yul\":23839:24001   */\n      pop\n      jump\t// out\n        /* \"#utility.yul\":24007:24373   */\n    tag_264:\n        /* \"#utility.yul\":24149:24152   */\n      0x00\n        /* \"#utility.yul\":24170:24237   */\n      tag_499\n        /* \"#utility.yul\":24234:24236   */\n      0x0c\n        /* \"#utility.yul\":24229:24232   */\n      dup4\n        /* \"#utility.yul\":24170:24237   */\n      tag_206\n      jump\t// in\n    tag_499:\n        /* \"#utility.yul\":24163:24237   */\n      swap2\n      pop\n        /* \"#utility.yul\":24246:24339   */\n      tag_500\n        /* \"#utility.yul\":24335:24338   */\n      dup3\n        /* \"#utility.yul\":24246:24339   */\n      tag_263\n      jump\t// in\n    tag_500:\n        /* \"#utility.yul\":24364:24366   */\n      0x20\n        /* \"#utility.yul\":24359:24362   */\n      dup3\n        /* \"#utility.yul\":24355:24367   */\n      add\n        /* \"#utility.yul\":24348:24367   */\n      swap1\n      pop\n        /* \"#utility.yul\":24007:24373   */\n      swap2\n      swap1\n      pop\n      jump\t// out\n        /* \"#utility.yul\":24379:24798   */\n    tag_163:\n        /* \"#utility.yul\":24545:24549   */\n      0x00\n        /* \"#utility.yul\":24583:24585   */\n      0x20\n        /* \"#utility.yul\":24572:24581   */\n      dup3\n        /* \"#utility.yul\":24568:24586   */\n      add\n        /* \"#utility.yul\":24560:24586   */\n      swap1\n      pop\n        /* \"#utility.yul\":24632:24641   */\n      dup2\n        /* \"#utility.yul\":24626:24630   */\n      dup2\n        /* \"#utility.yul\":24622:24642   */\n      sub\n        /* \"#utility.yul\":24618:24619   */\n      0x00\n        /* \"#utility.yul\":24607:24616   */\n      dup4\n        /* \"#utility.yul\":24603:24620   */\n      add\n        /* \"#utility.yul\":24596:24643   */\n      mstore\n        /* \"#utility.yul\":24660:24791   */\n      tag_502\n        /* \"#utility.yul\":24786:24790   */\n      dup2\n        /* \"#utility.yul\":24660:24791   */\n      tag_264\n      jump\t// in\n    tag_502:\n        /* \"#utility.yul\":24652:24791   */\n      swap1\n      pop\n        /* \"#utility.yul\":24379:24798   */\n      swap2\n      swap1\n      pop\n      jump\t// out\n        /* \"#utility.yul\":24804:24970   */\n    tag_265:\n        /* \"#utility.yul\":24944:24962   */\n      0x496e636f727265637420616d6f756e7400000000000000000000000000000000\n        /* \"#utility.yul\":24940:24941   */\n      0x00\n        /* \"#utility.yul\":24932:24938   */\n      dup3\n        /* \"#utility.yul\":24928:24942   */\n      add\n        /* \"#utility.yul\":24921:24963   */\n      mstore\n        /* \"#utility.yul\":24804:24970   */\n      pop\n      jump\t// out\n        /* \"#utility.yul\":24976:25342   */\n    tag_266:\n        /* \"#utility.yul\":25118:25121   */\n      0x00\n        /* \"#utility.yul\":25139:25206   */\n      tag_505\n        /* \"#utility.yul\":25203:25205   */\n      0x10\n        /* \"#utility.yul\":25198:25201   */\n      dup4\n        /* \"#utility.yul\":25139:25206   */\n      tag_206\n      jump\t// in\n    tag_505:\n        /* \"#utility.yul\":25132:25206   */\n      swap2\n      pop\n        /* \"#utility.yul\":25215:25308   */\n      tag_506\n        /* \"#utility.yul\":25304:25307   */\n      dup3\n        /* \"#utility.yul\":25215:25308   */\n      tag_265\n      jump\t// in\n    tag_506:\n        /* \"#utility.yul\":25333:25335   */\n      0x20\n        /* \"#utility.yul\":25328:25331   */\n      dup3\n        /* \"#utility.yul\":25324:25336   */\n      add\n        /* \"#utility.yul\":25317:25336   */\n      swap1\n      pop\n        /* \"#utility.yul\":24976:25342   */\n      swap2\n      swap1\n      pop\n      jump\t// out\n        /* \"#utility.yul\":25348:25767   */\n    tag_169:\n        /* \"#utility.yul\":25514:25518   */\n      0x00\n        /* \"#utility.yul\":25552:25554   */\n      0x20\n        /* \"#utility.yul\":25541:25550   */\n      dup3\n        /* \"#utility.yul\":25537:25555   */\n      add\n        /* \"#utility.yul\":25529:25555   */\n      swap1\n      pop\n        /* \"#utility.yul\":25601:25610   */\n      dup2\n        /* \"#utility.yul\":25595:25599   */\n      dup2\n        /* \"#utility.yul\":25591:25611   */\n      sub\n        /* \"#utility.yul\":25587:25588   */\n      0x00\n        /* \"#utility.yul\":25576:25585   */\n      dup4\n        /* \"#utility.yul\":25572:25589   */\n      add\n        /* \"#utility.yul\":25565:25612   */\n      mstore\n        /* \"#utility.yul\":25629:25760   */\n      tag_508\n        /* \"#utility.yul\":25755:25759   */\n      dup2\n        /* \"#utility.yul\":25629:25760   */\n      tag_266\n      jump\t// in\n    tag_508:\n        /* \"#utility.yul\":25621:25760   */\n      swap1\n      pop\n        /* \"#utility.yul\":25348:25767   */\n      swap2\n      swap1\n      pop\n      jump\t// out\n        /* \"#utility.yul\":25773:26006   */\n    tag_174:\n        /* \"#utility.yul\":25812:25815   */\n      0x00\n        /* \"#utility.yul\":25835:25859   */\n      tag_510\n        /* \"#utility.yul\":25853:25858   */\n      dup3\n        /* \"#utility.yul\":25835:25859   */\n      tag_202\n      jump\t// in\n    tag_510:\n        /* \"#utility.yul\":25826:25859   */\n      swap2\n      pop\n        /* \"#utility.yul\":25881:25947   */\n      0xffffffffffffffffffffffffffffffffffffffffffffffffffffffffffffffff\n        /* \"#utility.yul\":25874:25879   */\n      dup3\n        /* \"#utility.yul\":25871:25948   */\n      sub\n        /* \"#utility.yul\":25868:25971   */\n      tag_511\n      jumpi\n        /* \"#utility.yul\":25951:25969   */\n      tag_512\n      tag_243\n      jump\t// in\n    tag_512:\n        /* \"#utility.yul\":25868:25971   */\n    tag_511:\n        /* \"#utility.yul\":25998:25999   */\n      0x01\n        /* \"#utility.yul\":25991:25996   */\n      dup3\n        /* \"#utility.yul\":25987:26000   */\n      add\n        /* \"#utility.yul\":25980:26000   */\n      swap1\n      pop\n        /* \"#utility.yul\":25773:26006   */\n      swap2\n      swap1\n      pop\n      jump\t// out\n\n    auxdata: 0xa2646970667358221220ab8ea1410732f86da693f3ff2f3738268b683d6bf8439157a7a13e086a874d5f64736f6c634300081a0033\n}\n",
				"bytecode": {
					"linkReferences": {},
					"object": "608060405234801561000f575f80fd5b5060405161206c38038061206c8339818101604052810190610031919061026a565b835f908161003f919061050a565b50826001908161004f919061050a565b508160028190555062015180816100669190610606565b426100719190610647565b6003819055503360045f6101000a81548173ffffffffffffffffffffffffffffffffffffffff021916908373ffffffffffffffffffffffffffffffffffffffff1602179055505f600460146101000a81548160ff021916908360028111156100dc576100db61067a565b5b0217905550505050506106a7565b5f604051905090565b5f80fd5b5f80fd5b5f80fd5b5f80fd5b5f601f19601f8301169050919050565b7f4e487b71000000000000000000000000000000000000000000000000000000005f52604160045260245ffd5b61014982610103565b810181811067ffffffffffffffff8211171561016857610167610113565b5b80604052505050565b5f61017a6100ea565b90506101868282610140565b919050565b5f67ffffffffffffffff8211156101a5576101a4610113565b5b6101ae82610103565b9050602081019050919050565b8281835e5f83830152505050565b5f6101db6101d68461018b565b610171565b9050828152602081018484840111156101f7576101f66100ff565b5b6102028482856101bb565b509392505050565b5f82601f83011261021e5761021d6100fb565b5b815161022e8482602086016101c9565b91505092915050565b5f819050919050565b61024981610237565b8114610253575f80fd5b50565b5f8151905061026481610240565b92915050565b5f805f8060808587031215610282576102816100f3565b5b5f85015167ffffffffffffffff81111561029f5761029e6100f7565b5b6102ab8782880161020a565b945050602085015167ffffffffffffffff8111156102cc576102cb6100f7565b5b6102d88782880161020a565b93505060406102e987828801610256565b92505060606102fa87828801610256565b91505092959194509250565b5f81519050919050565b7f4e487b71000000000000000000000000000000000000000000000000000000005f52602260045260245ffd5b5f600282049050600182168061035457607f821691505b60208210810361036757610366610310565b5b50919050565b5f819050815f5260205f209050919050565b5f6020601f8301049050919050565b5f82821b905092915050565b5f600883026103c97fffffffffffffffffffffffffffffffffffffffffffffffffffffffffffffffff8261038e565b6103d3868361038e565b95508019841693508086168417925050509392505050565b5f819050919050565b5f61040e61040961040484610237565b6103eb565b610237565b9050919050565b5f819050919050565b610427836103f4565b61043b61043382610415565b84845461039a565b825550505050565b5f90565b61044f610443565b61045a81848461041e565b505050565b5b8181101561047d576104725f82610447565b600181019050610460565b5050565b601f8211156104c2576104938161036d565b61049c8461037f565b810160208510156104ab578190505b6104bf6104b78561037f565b83018261045f565b50505b505050565b5f82821c905092915050565b5f6104e25f19846008026104c7565b1980831691505092915050565b5f6104fa83836104d3565b9150826002028217905092915050565b61051382610306565b67ffffffffffffffff81111561052c5761052b610113565b5b610536825461033d565b610541828285610481565b5f60209050601f831160018114610572575f8415610560578287015190505b61056a85826104ef565b8655506105d1565b601f1984166105808661036d565b5f5b828110156105a757848901518255600182019150602085019450602081019050610582565b868310156105c457848901516105c0601f8916826104d3565b8355505b6001600288020188555050505b505050505050565b7f4e487b71000000000000000000000000000000000000000000000000000000005f52601160045260245ffd5b5f61061082610237565b915061061b83610237565b925082820261062981610237565b915082820484148315176106405761063f6105d9565b5b5092915050565b5f61065182610237565b915061065c83610237565b9250828201905080821115610674576106736105d9565b5b92915050565b7f4e487b71000000000000000000000000000000000000000000000000000000005f52602160045260245ffd5b6119b8806106b45f395ff3fe6080604052600436106100c1575f3560e01c80636f9fb98a1161007e5780638da5cb5b116100585780638da5cb5b1461023d5780638ece7b9114610267578063c19d93fb1461028f578063ca1d209d146102b9576100c1565b80636f9fb98a146101c15780637284e416146101eb5780637497211b14610215576100c1565b8063039af9eb146100c557806306fdde031461010357806329dcb0cf1461012d5780633ccfd60b14610157578063401938831461016d5780635a9b0b8914610197575b5f80fd5b3480156100d0575f80fd5b506100eb60048036038101906100e69190610c78565b6102d5565b6040516100fa93929190610d22565b60405180910390f35b34801561010e575f80fd5b50610117610390565b6040516101249190610d5e565b60405180910390f35b348015610138575f80fd5b5061014161041b565b60405161014e9190610d7e565b60405180910390f35b348015610162575f80fd5b5061016b610421565b005b348015610178575f80fd5b506101816105dc565b60405161018e9190610d7e565b60405180910390f35b3480156101a2575f80fd5b506101ab6105e2565b6040516101b89190610d5e565b60405180910390f35b3480156101cc575f80fd5b506101d561060c565b6040516101e29190610d7e565b60405180910390f35b3480156101f6575f80fd5b506101ff610613565b60405161020c9190610d5e565b60405180910390f35b348015610220575f80fd5b5061023b60048036038101906102369190610c78565b61069f565b005b348015610248575f80fd5b50610251610838565b60405161025e9190610dd6565b60405180910390f35b348015610272575f80fd5b5061028d60048036038101906102889190610f1b565b61085d565b005b34801561029a575f80fd5b506102a361099f565b6040516102b09190610fe8565b60405180910390f35b6102d360048036038101906102ce9190610c78565b6109b2565b005b600581815481106102e4575f80fd5b905f5260205f2090600302015f91509050805f0180546103039061102e565b80601f016020809104026020016040519081016040528092919081815260200182805461032f9061102e565b801561037a5780601f106103515761010080835404028352916020019161037a565b820191905f5260205f20905b81548152906001019060200180831161035d57829003601f168201915b5050505050908060010154908060020154905083565b5f805461039c9061102e565b80601f01602080910402602001604051908101604052809291908181526020018280546103c89061102e565b80156104135780601f106103ea57610100808354040283529160200191610413565b820191905f5260205f20905b8154815290600101906020018083116103f657829003601f168201915b505050505081565b60035481565b60045f9054906101000a900473ffffffffffffffffffffffffffffffffffffffff1673ffffffffffffffffffffffffffffffffffffffff163373ffffffffffffffffffffffffffffffffffffffff16146104b0576040517f08c379a00000000000000000000000000000000000000000000000000000000081526004016104a7906110ce565b60405180910390fd5b600160028111156104c4576104c3610f75565b5b600460149054906101000a900460ff1660028111156104e6576104e5610f75565b5b14610526576040517f08c379a000000000000000000000000000000000000000000000000000000000815260040161051d90611136565b60405180910390fd5b61052e610b16565b5f4790505f8111610574576040517f08c379a000000000000000000000000000000000000000000000000000000000815260040161056b9061119e565b60405180910390fd5b60045f9054906101000a900473ffffffffffffffffffffffffffffffffffffffff1673ffffffffffffffffffffffffffffffffffffffff166108fc8290811502906040515f60405180830381858888f193505050501580156105d8573d5f803e3d5ffd5b5050565b60025481565b60605f60016040516020016105f89291906112ec565b604051602081830303815290604052905090565b5f47905090565b600180546106209061102e565b80601f016020809104026020016040519081016040528092919081815260200182805461064c9061102e565b80156106975780601f1061066e57610100808354040283529160200191610697565b820191905f5260205f20905b81548152906001019060200180831161067a57829003601f168201915b505050505081565b60045f9054906101000a900473ffffffffffffffffffffffffffffffffffffffff1673ffffffffffffffffffffffffffffffffffffffff163373ffffffffffffffffffffffffffffffffffffffff161461072e576040517f08c379a0000000000000000000000000000000000000000000000000000000008152600401610725906110ce565b60405180910390fd5b6005805490508110610775576040517f08c379a000000000000000000000000000000000000000000000000000000000815260040161076c9061136f565b60405180910390fd5b6005600160058054905061078991906113ba565b8154811061079a576107996113ed565b5b905f5260205f209060030201600582815481106107ba576107b96113ed565b5b905f5260205f2090600302015f8201815f0190816107d891906115ba565b50600182015481600101556002820154816002015590505060058054806108025761080161169f565b5b600190038181905f5260205f2090600302015f8082015f6108239190610bdc565b600182015f9055600282015f90555050905550565b60045f9054906101000a900473ffffffffffffffffffffffffffffffffffffffff1681565b60045f9054906101000a900473ffffffffffffffffffffffffffffffffffffffff1673ffffffffffffffffffffffffffffffffffffffff163373ffffffffffffffffffffffffffffffffffffffff16146108ec576040517f08c379a00000000000000000000000000000000000000000000000000000000081526004016108e3906110ce565b60405180910390fd5b5f811161092e576040517f08c379a000000000000000000000000000000000000000000000000000000000815260040161092590611716565b60405180910390fd5b600560405180606001604052808481526020018381526020015f815250908060018154018082558091505060019003905f5260205f2090600302015f909190919091505f820151815f0190816109849190611734565b50602082015181600101556040820151816002015550505050565b600460149054906101000a900460ff1681565b5f60028111156109c5576109c4610f75565b5b600460149054906101000a900460ff1660028111156109e7576109e6610f75565b5b14610a27576040517f08c379a0000000000000000000000000000000000000000000000000000000008152600401610a1e9061184d565b60405180910390fd5b6005805490508110610a6e576040517f08c379a0000000000000000000000000000000000000000000000000000000008152600401610a65906118b5565b60405180910390fd5b60058181548110610a8257610a816113ed565b5b905f5260205f209060030201600101543414610ad3576040517f08c379a0000000000000000000000000000000000000000000000000000000008152600401610aca9061191d565b60405180910390fd5b60058181548110610ae757610ae66113ed565b5b905f5260205f2090600302016002015f815480929190610b069061193b565b9190505550610b13610b16565b50565b5f6002811115610b2957610b28610f75565b5b600460149054906101000a900460ff166002811115610b4b57610b4a610f75565b5b03610bda576003544210610b9b57600254471015610b6a576002610b6d565b60015b600460146101000a81548160ff02191690836002811115610b9157610b90610f75565b5b0217905550610bd9565b600254471015610bac576001610baf565b60015b600460146101000a81548160ff02191690836002811115610bd357610bd2610f75565b5b02179055505b5b565b508054610be89061102e565b5f825580601f10610bf95750610c16565b601f0160209004905f5260205f2090810190610c159190610c19565b5b50565b5b80821115610c30575f815f905550600101610c1a565b5090565b5f604051905090565b5f80fd5b5f80fd5b5f819050919050565b610c5781610c45565b8114610c61575f80fd5b50565b5f81359050610c7281610c4e565b92915050565b5f60208284031215610c8d57610c8c610c3d565b5b5f610c9a84828501610c64565b91505092915050565b5f81519050919050565b5f82825260208201905092915050565b8281835e5f83830152505050565b5f601f19601f8301169050919050565b5f610ce582610ca3565b610cef8185610cad565b9350610cff818560208601610cbd565b610d0881610ccb565b840191505092915050565b610d1c81610c45565b82525050565b5f6060820190508181035f830152610d3a8186610cdb565b9050610d496020830185610d13565b610d566040830184610d13565b949350505050565b5f6020820190508181035f830152610d768184610cdb565b905092915050565b5f602082019050610d915f830184610d13565b92915050565b5f73ffffffffffffffffffffffffffffffffffffffff82169050919050565b5f610dc082610d97565b9050919050565b610dd081610db6565b82525050565b5f602082019050610de95f830184610dc7565b92915050565b5f80fd5b5f80fd5b7f4e487b71000000000000000000000000000000000000000000000000000000005f52604160045260245ffd5b610e2d82610ccb565b810181811067ffffffffffffffff82111715610e4c57610e4b610df7565b5b80604052505050565b5f610e5e610c34565b9050610e6a8282610e24565b919050565b5f67ffffffffffffffff821115610e8957610e88610df7565b5b610e9282610ccb565b9050602081019050919050565b828183375f83830152505050565b5f610ebf610eba84610e6f565b610e55565b905082815260208101848484011115610edb57610eda610df3565b5b610ee6848285610e9f565b509392505050565b5f82601f830112610f0257610f01610def565b5b8135610f12848260208601610ead565b91505092915050565b5f8060408385031215610f3157610f30610c3d565b5b5f83013567ffffffffffffffff811115610f4e57610f4d610c41565b5b610f5a85828601610eee565b9250506020610f6b85828601610c64565b9150509250929050565b7f4e487b71000000000000000000000000000000000000000000000000000000005f52602160045260245ffd5b60038110610fb357610fb2610f75565b5b50565b5f819050610fc382610fa2565b919050565b5f610fd282610fb6565b9050919050565b610fe281610fc8565b82525050565b5f602082019050610ffb5f830184610fd9565b92915050565b7f4e487b71000000000000000000000000000000000000000000000000000000005f52602260045260245ffd5b5f600282049050600182168061104557607f821691505b60208210810361105857611057611001565b5b50919050565b7f596f7520617265206e6f7420746865206f776e6572206f66207468697320636f5f8201527f6e74726163740000000000000000000000000000000000000000000000000000602082015250565b5f6110b8602683610cad565b91506110c38261105e565b604082019050919050565b5f6020820190508181035f8301526110e5816110ac565b9050919050565b7f43616d706169676e206973206e6f7420737563636573730000000000000000005f82015250565b5f611120601783610cad565b915061112b826110ec565b602082019050919050565b5f6020820190508181035f83015261114d81611114565b9050919050565b7f4e6f2062616c616e636520746f207769746864726177000000000000000000005f82015250565b5f611188601683610cad565b915061119382611154565b602082019050919050565b5f6020820190508181035f8301526111b58161117c565b9050919050565b5f81905092915050565b7f4e616d653a2000000000000000000000000000000000000000000000000000005f82015250565b5f6111fa6006836111bc565b9150611205826111c6565b600682019050919050565b5f819050815f5260205f209050919050565b5f815461122e8161102e565b61123881866111bc565b9450600182165f8114611252576001811461126757611299565b60ff1983168652811515820286019350611299565b61127085611210565b5f5b8381101561129157815481890152600182019150602081019050611272565b838801955050505b50505092915050565b7f204465736372697074696f6e3a200000000000000000000000000000000000005f82015250565b5f6112d6600e836111bc565b91506112e1826112a2565b600e82019050919050565b5f6112f6826111ee565b91506113028285611222565b915061130d826112ca565b91506113198284611222565b91508190509392505050565b7f5469657220646f65736e277420657869737473000000000000000000000000005f82015250565b5f611359601383610cad565b915061136482611325565b602082019050919050565b5f6020820190508181035f8301526113868161134d565b9050919050565b7f4e487b71000000000000000000000000000000000000000000000000000000005f52601160045260245ffd5b5f6113c482610c45565b91506113cf83610c45565b92508282039050818111156113e7576113e661138d565b5b92915050565b7f4e487b71000000000000000000000000000000000000000000000000000000005f52603260045260245ffd5b5f815490506114288161102e565b9050919050565b5f6020601f8301049050919050565b5f82821b905092915050565b5f600883026114797fffffffffffffffffffffffffffffffffffffffffffffffffffffffffffffffff8261143e565b611483868361143e565b95508019841693508086168417925050509392505050565b5f819050919050565b5f6114be6114b96114b484610c45565b61149b565b610c45565b9050919050565b5f819050919050565b6114d7836114a4565b6114eb6114e3826114c5565b84845461144a565b825550505050565b5f90565b6114ff6114f3565b61150a8184846114ce565b505050565b5b8181101561152d576115225f826114f7565b600181019050611510565b5050565b601f8211156115725761154381611210565b61154c8461142f565b8101602085101561155b578190505b61156f6115678561142f565b83018261150f565b50505b505050565b5f82821c905092915050565b5f6115925f1984600802611577565b1980831691505092915050565b5f6115aa8383611583565b9150826002028217905092915050565b8181036115c857505061169d565b6115d18261141a565b67ffffffffffffffff8111156115ea576115e9610df7565b5b6115f4825461102e565b6115ff828285611531565b5f601f83116001811461162c575f841561161a578287015490505b611624858261159f565b865550611696565b601f19841661163a87611210565b965061164586611210565b5f5b8281101561166c57848901548255600182019150600185019450602081019050611647565b868310156116895784890154611685601f891682611583565b8355505b6001600288020188555050505b5050505050505b565b7f4e487b71000000000000000000000000000000000000000000000000000000005f52603160045260245ffd5b7f416d6f756e74206d757374206265206772656174657220746861746e203000005f82015250565b5f611700601e83610cad565b915061170b826116cc565b602082019050919050565b5f6020820190508181035f83015261172d816116f4565b9050919050565b61173d82610ca3565b67ffffffffffffffff81111561175657611755610df7565b5b611760825461102e565b61176b828285611531565b5f60209050601f83116001811461179c575f841561178a578287015190505b611794858261159f565b8655506117fb565b601f1984166117aa86611210565b5f5b828110156117d1578489015182556001820191506020850194506020810190506117ac565b868310156117ee57848901516117ea601f891682611583565b8355505b6001600288020188555050505b505050505050565b7f43616d706169676e206973206e6f7420616374697665000000000000000000005f82015250565b5f611837601683610cad565b915061184282611803565b602082019050919050565b5f6020820190508181035f8301526118648161182b565b9050919050565b7f496e76616c6964207469657200000000000000000000000000000000000000005f82015250565b5f61189f600c83610cad565b91506118aa8261186b565b602082019050919050565b5f6020820190508181035f8301526118cc81611893565b9050919050565b7f496e636f727265637420616d6f756e74000000000000000000000000000000005f82015250565b5f611907601083610cad565b9150611912826118d3565b602082019050919050565b5f6020820190508181035f830152611934816118fb565b9050919050565b5f61194582610c45565b91507fffffffffffffffffffffffffffffffffffffffffffffffffffffffffffffffff82036119775761197661138d565b5b60018201905091905056fea2646970667358221220ab8ea1410732f86da693f3ff2f3738268b683d6bf8439157a7a13e086a874d5f64736f6c634300081a0033",
					"opcodes": "PUSH1 0x80 PUSH1 0x40 MSTORE CALLVALUE DUP1 ISZERO PUSH2 0xF JUMPI PUSH0 DUP1 REVERT JUMPDEST POP PUSH1 0x40 MLOAD PUSH2 0x206C CODESIZE SUB DUP1 PUSH2 0x206C DUP4 CODECOPY DUP2 DUP2 ADD PUSH1 0x40 MSTORE DUP2 ADD SWAP1 PUSH2 0x31 SWAP2 SWAP1 PUSH2 0x26A JUMP JUMPDEST DUP4 PUSH0 SWAP1 DUP2 PUSH2 0x3F SWAP2 SWAP1 PUSH2 0x50A JUMP JUMPDEST POP DUP3 PUSH1 0x1 SWAP1 DUP2 PUSH2 0x4F SWAP2 SWAP1 PUSH2 0x50A JUMP JUMPDEST POP DUP2 PUSH1 0x2 DUP2 SWAP1 SSTORE POP PUSH3 0x15180 DUP2 PUSH2 0x66 SWAP2 SWAP1 PUSH2 0x606 JUMP JUMPDEST TIMESTAMP PUSH2 0x71 SWAP2 SWAP1 PUSH2 0x647 JUMP JUMPDEST PUSH1 0x3 DUP2 SWAP1 SSTORE POP CALLER PUSH1 0x4 PUSH0 PUSH2 0x100 EXP DUP2 SLOAD DUP2 PUSH20 0xFFFFFFFFFFFFFFFFFFFFFFFFFFFFFFFFFFFFFFFF MUL NOT AND SWAP1 DUP4 PUSH20 0xFFFFFFFFFFFFFFFFFFFFFFFFFFFFFFFFFFFFFFFF AND MUL OR SWAP1 SSTORE POP PUSH0 PUSH1 0x4 PUSH1 0x14 PUSH2 0x100 EXP DUP2 SLOAD DUP2 PUSH1 0xFF MUL NOT AND SWAP1 DUP4 PUSH1 0x2 DUP2 GT ISZERO PUSH2 0xDC JUMPI PUSH2 0xDB PUSH2 0x67A JUMP JUMPDEST JUMPDEST MUL OR SWAP1 SSTORE POP POP POP POP POP PUSH2 0x6A7 JUMP JUMPDEST PUSH0 PUSH1 0x40 MLOAD SWAP1 POP SWAP1 JUMP JUMPDEST PUSH0 DUP1 REVERT JUMPDEST PUSH0 DUP1 REVERT JUMPDEST PUSH0 DUP1 REVERT JUMPDEST PUSH0 DUP1 REVERT JUMPDEST PUSH0 PUSH1 0x1F NOT PUSH1 0x1F DUP4 ADD AND SWAP1 POP SWAP2 SWAP1 POP JUMP JUMPDEST PUSH32 0x4E487B7100000000000000000000000000000000000000000000000000000000 PUSH0 MSTORE PUSH1 0x41 PUSH1 0x4 MSTORE PUSH1 0x24 PUSH0 REVERT JUMPDEST PUSH2 0x149 DUP3 PUSH2 0x103 JUMP JUMPDEST DUP2 ADD DUP2 DUP2 LT PUSH8 0xFFFFFFFFFFFFFFFF DUP3 GT OR ISZERO PUSH2 0x168 JUMPI PUSH2 0x167 PUSH2 0x113 JUMP JUMPDEST JUMPDEST DUP1 PUSH1 0x40 MSTORE POP POP POP JUMP JUMPDEST PUSH0 PUSH2 0x17A PUSH2 0xEA JUMP JUMPDEST SWAP1 POP PUSH2 0x186 DUP3 DUP3 PUSH2 0x140 JUMP JUMPDEST SWAP2 SWAP1 POP JUMP JUMPDEST PUSH0 PUSH8 0xFFFFFFFFFFFFFFFF DUP3 GT ISZERO PUSH2 0x1A5 JUMPI PUSH2 0x1A4 PUSH2 0x113 JUMP JUMPDEST JUMPDEST PUSH2 0x1AE DUP3 PUSH2 0x103 JUMP JUMPDEST SWAP1 POP PUSH1 0x20 DUP2 ADD SWAP1 POP SWAP2 SWAP1 POP JUMP JUMPDEST DUP3 DUP2 DUP4 MCOPY PUSH0 DUP4 DUP4 ADD MSTORE POP POP POP JUMP JUMPDEST PUSH0 PUSH2 0x1DB PUSH2 0x1D6 DUP5 PUSH2 0x18B JUMP JUMPDEST PUSH2 0x171 JUMP JUMPDEST SWAP1 POP DUP3 DUP2 MSTORE PUSH1 0x20 DUP2 ADD DUP5 DUP5 DUP5 ADD GT ISZERO PUSH2 0x1F7 JUMPI PUSH2 0x1F6 PUSH2 0xFF JUMP JUMPDEST JUMPDEST PUSH2 0x202 DUP5 DUP3 DUP6 PUSH2 0x1BB JUMP JUMPDEST POP SWAP4 SWAP3 POP POP POP JUMP JUMPDEST PUSH0 DUP3 PUSH1 0x1F DUP4 ADD SLT PUSH2 0x21E JUMPI PUSH2 0x21D PUSH2 0xFB JUMP JUMPDEST JUMPDEST DUP2 MLOAD PUSH2 0x22E DUP5 DUP3 PUSH1 0x20 DUP7 ADD PUSH2 0x1C9 JUMP JUMPDEST SWAP2 POP POP SWAP3 SWAP2 POP POP JUMP JUMPDEST PUSH0 DUP2 SWAP1 POP SWAP2 SWAP1 POP JUMP JUMPDEST PUSH2 0x249 DUP2 PUSH2 0x237 JUMP JUMPDEST DUP2 EQ PUSH2 0x253 JUMPI PUSH0 DUP1 REVERT JUMPDEST POP JUMP JUMPDEST PUSH0 DUP2 MLOAD SWAP1 POP PUSH2 0x264 DUP2 PUSH2 0x240 JUMP JUMPDEST SWAP3 SWAP2 POP POP JUMP JUMPDEST PUSH0 DUP1 PUSH0 DUP1 PUSH1 0x80 DUP6 DUP8 SUB SLT ISZERO PUSH2 0x282 JUMPI PUSH2 0x281 PUSH2 0xF3 JUMP JUMPDEST JUMPDEST PUSH0 DUP6 ADD MLOAD PUSH8 0xFFFFFFFFFFFFFFFF DUP2 GT ISZERO PUSH2 0x29F JUMPI PUSH2 0x29E PUSH2 0xF7 JUMP JUMPDEST JUMPDEST PUSH2 0x2AB DUP8 DUP3 DUP9 ADD PUSH2 0x20A JUMP JUMPDEST SWAP5 POP POP PUSH1 0x20 DUP6 ADD MLOAD PUSH8 0xFFFFFFFFFFFFFFFF DUP2 GT ISZERO PUSH2 0x2CC JUMPI PUSH2 0x2CB PUSH2 0xF7 JUMP JUMPDEST JUMPDEST PUSH2 0x2D8 DUP8 DUP3 DUP9 ADD PUSH2 0x20A JUMP JUMPDEST SWAP4 POP POP PUSH1 0x40 PUSH2 0x2E9 DUP8 DUP3 DUP9 ADD PUSH2 0x256 JUMP JUMPDEST SWAP3 POP POP PUSH1 0x60 PUSH2 0x2FA DUP8 DUP3 DUP9 ADD PUSH2 0x256 JUMP JUMPDEST SWAP2 POP POP SWAP3 SWAP6 SWAP2 SWAP5 POP SWAP3 POP JUMP JUMPDEST PUSH0 DUP2 MLOAD SWAP1 POP SWAP2 SWAP1 POP JUMP JUMPDEST PUSH32 0x4E487B7100000000000000000000000000000000000000000000000000000000 PUSH0 MSTORE PUSH1 0x22 PUSH1 0x4 MSTORE PUSH1 0x24 PUSH0 REVERT JUMPDEST PUSH0 PUSH1 0x2 DUP3 DIV SWAP1 POP PUSH1 0x1 DUP3 AND DUP1 PUSH2 0x354 JUMPI PUSH1 0x7F DUP3 AND SWAP2 POP JUMPDEST PUSH1 0x20 DUP3 LT DUP2 SUB PUSH2 0x367 JUMPI PUSH2 0x366 PUSH2 0x310 JUMP JUMPDEST JUMPDEST POP SWAP2 SWAP1 POP JUMP JUMPDEST PUSH0 DUP2 SWAP1 POP DUP2 PUSH0 MSTORE PUSH1 0x20 PUSH0 KECCAK256 SWAP1 POP SWAP2 SWAP1 POP JUMP JUMPDEST PUSH0 PUSH1 0x20 PUSH1 0x1F DUP4 ADD DIV SWAP1 POP SWAP2 SWAP1 POP JUMP JUMPDEST PUSH0 DUP3 DUP3 SHL SWAP1 POP SWAP3 SWAP2 POP POP JUMP JUMPDEST PUSH0 PUSH1 0x8 DUP4 MUL PUSH2 0x3C9 PUSH32 0xFFFFFFFFFFFFFFFFFFFFFFFFFFFFFFFFFFFFFFFFFFFFFFFFFFFFFFFFFFFFFFFF DUP3 PUSH2 0x38E JUMP JUMPDEST PUSH2 0x3D3 DUP7 DUP4 PUSH2 0x38E JUMP JUMPDEST SWAP6 POP DUP1 NOT DUP5 AND SWAP4 POP DUP1 DUP7 AND DUP5 OR SWAP3 POP POP POP SWAP4 SWAP3 POP POP POP JUMP JUMPDEST PUSH0 DUP2 SWAP1 POP SWAP2 SWAP1 POP JUMP JUMPDEST PUSH0 PUSH2 0x40E PUSH2 0x409 PUSH2 0x404 DUP5 PUSH2 0x237 JUMP JUMPDEST PUSH2 0x3EB JUMP JUMPDEST PUSH2 0x237 JUMP JUMPDEST SWAP1 POP SWAP2 SWAP1 POP JUMP JUMPDEST PUSH0 DUP2 SWAP1 POP SWAP2 SWAP1 POP JUMP JUMPDEST PUSH2 0x427 DUP4 PUSH2 0x3F4 JUMP JUMPDEST PUSH2 0x43B PUSH2 0x433 DUP3 PUSH2 0x415 JUMP JUMPDEST DUP5 DUP5 SLOAD PUSH2 0x39A JUMP JUMPDEST DUP3 SSTORE POP POP POP POP JUMP JUMPDEST PUSH0 SWAP1 JUMP JUMPDEST PUSH2 0x44F PUSH2 0x443 JUMP JUMPDEST PUSH2 0x45A DUP2 DUP5 DUP5 PUSH2 0x41E JUMP JUMPDEST POP POP POP JUMP JUMPDEST JUMPDEST DUP2 DUP2 LT ISZERO PUSH2 0x47D JUMPI PUSH2 0x472 PUSH0 DUP3 PUSH2 0x447 JUMP JUMPDEST PUSH1 0x1 DUP2 ADD SWAP1 POP PUSH2 0x460 JUMP JUMPDEST POP POP JUMP JUMPDEST PUSH1 0x1F DUP3 GT ISZERO PUSH2 0x4C2 JUMPI PUSH2 0x493 DUP2 PUSH2 0x36D JUMP JUMPDEST PUSH2 0x49C DUP5 PUSH2 0x37F JUMP JUMPDEST DUP2 ADD PUSH1 0x20 DUP6 LT ISZERO PUSH2 0x4AB JUMPI DUP2 SWAP1 POP JUMPDEST PUSH2 0x4BF PUSH2 0x4B7 DUP6 PUSH2 0x37F JUMP JUMPDEST DUP4 ADD DUP3 PUSH2 0x45F JUMP JUMPDEST POP POP JUMPDEST POP POP POP JUMP JUMPDEST PUSH0 DUP3 DUP3 SHR SWAP1 POP SWAP3 SWAP2 POP POP JUMP JUMPDEST PUSH0 PUSH2 0x4E2 PUSH0 NOT DUP5 PUSH1 0x8 MUL PUSH2 0x4C7 JUMP JUMPDEST NOT DUP1 DUP4 AND SWAP2 POP POP SWAP3 SWAP2 POP POP JUMP JUMPDEST PUSH0 PUSH2 0x4FA DUP4 DUP4 PUSH2 0x4D3 JUMP JUMPDEST SWAP2 POP DUP3 PUSH1 0x2 MUL DUP3 OR SWAP1 POP SWAP3 SWAP2 POP POP JUMP JUMPDEST PUSH2 0x513 DUP3 PUSH2 0x306 JUMP JUMPDEST PUSH8 0xFFFFFFFFFFFFFFFF DUP2 GT ISZERO PUSH2 0x52C JUMPI PUSH2 0x52B PUSH2 0x113 JUMP JUMPDEST JUMPDEST PUSH2 0x536 DUP3 SLOAD PUSH2 0x33D JUMP JUMPDEST PUSH2 0x541 DUP3 DUP3 DUP6 PUSH2 0x481 JUMP JUMPDEST PUSH0 PUSH1 0x20 SWAP1 POP PUSH1 0x1F DUP4 GT PUSH1 0x1 DUP2 EQ PUSH2 0x572 JUMPI PUSH0 DUP5 ISZERO PUSH2 0x560 JUMPI DUP3 DUP8 ADD MLOAD SWAP1 POP JUMPDEST PUSH2 0x56A DUP6 DUP3 PUSH2 0x4EF JUMP JUMPDEST DUP7 SSTORE POP PUSH2 0x5D1 JUMP JUMPDEST PUSH1 0x1F NOT DUP5 AND PUSH2 0x580 DUP7 PUSH2 0x36D JUMP JUMPDEST PUSH0 JUMPDEST DUP3 DUP2 LT ISZERO PUSH2 0x5A7 JUMPI DUP5 DUP10 ADD MLOAD DUP3 SSTORE PUSH1 0x1 DUP3 ADD SWAP2 POP PUSH1 0x20 DUP6 ADD SWAP5 POP PUSH1 0x20 DUP2 ADD SWAP1 POP PUSH2 0x582 JUMP JUMPDEST DUP7 DUP4 LT ISZERO PUSH2 0x5C4 JUMPI DUP5 DUP10 ADD MLOAD PUSH2 0x5C0 PUSH1 0x1F DUP10 AND DUP3 PUSH2 0x4D3 JUMP JUMPDEST DUP4 SSTORE POP JUMPDEST PUSH1 0x1 PUSH1 0x2 DUP9 MUL ADD DUP9 SSTORE POP POP POP JUMPDEST POP POP POP POP POP POP JUMP JUMPDEST PUSH32 0x4E487B7100000000000000000000000000000000000000000000000000000000 PUSH0 MSTORE PUSH1 0x11 PUSH1 0x4 MSTORE PUSH1 0x24 PUSH0 REVERT JUMPDEST PUSH0 PUSH2 0x610 DUP3 PUSH2 0x237 JUMP JUMPDEST SWAP2 POP PUSH2 0x61B DUP4 PUSH2 0x237 JUMP JUMPDEST SWAP3 POP DUP3 DUP3 MUL PUSH2 0x629 DUP2 PUSH2 0x237 JUMP JUMPDEST SWAP2 POP DUP3 DUP3 DIV DUP5 EQ DUP4 ISZERO OR PUSH2 0x640 JUMPI PUSH2 0x63F PUSH2 0x5D9 JUMP JUMPDEST JUMPDEST POP SWAP3 SWAP2 POP POP JUMP JUMPDEST PUSH0 PUSH2 0x651 DUP3 PUSH2 0x237 JUMP JUMPDEST SWAP2 POP PUSH2 0x65C DUP4 PUSH2 0x237 JUMP JUMPDEST SWAP3 POP DUP3 DUP3 ADD SWAP1 POP DUP1 DUP3 GT ISZERO PUSH2 0x674 JUMPI PUSH2 0x673 PUSH2 0x5D9 JUMP JUMPDEST JUMPDEST SWAP3 SWAP2 POP POP JUMP JUMPDEST PUSH32 0x4E487B7100000000000000000000000000000000000000000000000000000000 PUSH0 MSTORE PUSH1 0x21 PUSH1 0x4 MSTORE PUSH1 0x24 PUSH0 REVERT JUMPDEST PUSH2 0x19B8 DUP1 PUSH2 0x6B4 PUSH0 CODECOPY PUSH0 RETURN INVALID PUSH1 0x80 PUSH1 0x40 MSTORE PUSH1 0x4 CALLDATASIZE LT PUSH2 0xC1 JUMPI PUSH0 CALLDATALOAD PUSH1 0xE0 SHR DUP1 PUSH4 0x6F9FB98A GT PUSH2 0x7E JUMPI DUP1 PUSH4 0x8DA5CB5B GT PUSH2 0x58 JUMPI DUP1 PUSH4 0x8DA5CB5B EQ PUSH2 0x23D JUMPI DUP1 PUSH4 0x8ECE7B91 EQ PUSH2 0x267 JUMPI DUP1 PUSH4 0xC19D93FB EQ PUSH2 0x28F JUMPI DUP1 PUSH4 0xCA1D209D EQ PUSH2 0x2B9 JUMPI PUSH2 0xC1 JUMP JUMPDEST DUP1 PUSH4 0x6F9FB98A EQ PUSH2 0x1C1 JUMPI DUP1 PUSH4 0x7284E416 EQ PUSH2 0x1EB JUMPI DUP1 PUSH4 0x7497211B EQ PUSH2 0x215 JUMPI PUSH2 0xC1 JUMP JUMPDEST DUP1 PUSH4 0x39AF9EB EQ PUSH2 0xC5 JUMPI DUP1 PUSH4 0x6FDDE03 EQ PUSH2 0x103 JUMPI DUP1 PUSH4 0x29DCB0CF EQ PUSH2 0x12D JUMPI DUP1 PUSH4 0x3CCFD60B EQ PUSH2 0x157 JUMPI DUP1 PUSH4 0x40193883 EQ PUSH2 0x16D JUMPI DUP1 PUSH4 0x5A9B0B89 EQ PUSH2 0x197 JUMPI JUMPDEST PUSH0 DUP1 REVERT JUMPDEST CALLVALUE DUP1 ISZERO PUSH2 0xD0 JUMPI PUSH0 DUP1 REVERT JUMPDEST POP PUSH2 0xEB PUSH1 0x4 DUP1 CALLDATASIZE SUB DUP2 ADD SWAP1 PUSH2 0xE6 SWAP2 SWAP1 PUSH2 0xC78 JUMP JUMPDEST PUSH2 0x2D5 JUMP JUMPDEST PUSH1 0x40 MLOAD PUSH2 0xFA SWAP4 SWAP3 SWAP2 SWAP1 PUSH2 0xD22 JUMP JUMPDEST PUSH1 0x40 MLOAD DUP1 SWAP2 SUB SWAP1 RETURN JUMPDEST CALLVALUE DUP1 ISZERO PUSH2 0x10E JUMPI PUSH0 DUP1 REVERT JUMPDEST POP PUSH2 0x117 PUSH2 0x390 JUMP JUMPDEST PUSH1 0x40 MLOAD PUSH2 0x124 SWAP2 SWAP1 PUSH2 0xD5E JUMP JUMPDEST PUSH1 0x40 MLOAD DUP1 SWAP2 SUB SWAP1 RETURN JUMPDEST CALLVALUE DUP1 ISZERO PUSH2 0x138 JUMPI PUSH0 DUP1 REVERT JUMPDEST POP PUSH2 0x141 PUSH2 0x41B JUMP JUMPDEST PUSH1 0x40 MLOAD PUSH2 0x14E SWAP2 SWAP1 PUSH2 0xD7E JUMP JUMPDEST PUSH1 0x40 MLOAD DUP1 SWAP2 SUB SWAP1 RETURN JUMPDEST CALLVALUE DUP1 ISZERO PUSH2 0x162 JUMPI PUSH0 DUP1 REVERT JUMPDEST POP PUSH2 0x16B PUSH2 0x421 JUMP JUMPDEST STOP JUMPDEST CALLVALUE DUP1 ISZERO PUSH2 0x178 JUMPI PUSH0 DUP1 REVERT JUMPDEST POP PUSH2 0x181 PUSH2 0x5DC JUMP JUMPDEST PUSH1 0x40 MLOAD PUSH2 0x18E SWAP2 SWAP1 PUSH2 0xD7E JUMP JUMPDEST PUSH1 0x40 MLOAD DUP1 SWAP2 SUB SWAP1 RETURN JUMPDEST CALLVALUE DUP1 ISZERO PUSH2 0x1A2 JUMPI PUSH0 DUP1 REVERT JUMPDEST POP PUSH2 0x1AB PUSH2 0x5E2 JUMP JUMPDEST PUSH1 0x40 MLOAD PUSH2 0x1B8 SWAP2 SWAP1 PUSH2 0xD5E JUMP JUMPDEST PUSH1 0x40 MLOAD DUP1 SWAP2 SUB SWAP1 RETURN JUMPDEST CALLVALUE DUP1 ISZERO PUSH2 0x1CC JUMPI PUSH0 DUP1 REVERT JUMPDEST POP PUSH2 0x1D5 PUSH2 0x60C JUMP JUMPDEST PUSH1 0x40 MLOAD PUSH2 0x1E2 SWAP2 SWAP1 PUSH2 0xD7E JUMP JUMPDEST PUSH1 0x40 MLOAD DUP1 SWAP2 SUB SWAP1 RETURN JUMPDEST CALLVALUE DUP1 ISZERO PUSH2 0x1F6 JUMPI PUSH0 DUP1 REVERT JUMPDEST POP PUSH2 0x1FF PUSH2 0x613 JUMP JUMPDEST PUSH1 0x40 MLOAD PUSH2 0x20C SWAP2 SWAP1 PUSH2 0xD5E JUMP JUMPDEST PUSH1 0x40 MLOAD DUP1 SWAP2 SUB SWAP1 RETURN JUMPDEST CALLVALUE DUP1 ISZERO PUSH2 0x220 JUMPI PUSH0 DUP1 REVERT JUMPDEST POP PUSH2 0x23B PUSH1 0x4 DUP1 CALLDATASIZE SUB DUP2 ADD SWAP1 PUSH2 0x236 SWAP2 SWAP1 PUSH2 0xC78 JUMP JUMPDEST PUSH2 0x69F JUMP JUMPDEST STOP JUMPDEST CALLVALUE DUP1 ISZERO PUSH2 0x248 JUMPI PUSH0 DUP1 REVERT JUMPDEST POP PUSH2 0x251 PUSH2 0x838 JUMP JUMPDEST PUSH1 0x40 MLOAD PUSH2 0x25E SWAP2 SWAP1 PUSH2 0xDD6 JUMP JUMPDEST PUSH1 0x40 MLOAD DUP1 SWAP2 SUB SWAP1 RETURN JUMPDEST CALLVALUE DUP1 ISZERO PUSH2 0x272 JUMPI PUSH0 DUP1 REVERT JUMPDEST POP PUSH2 0x28D PUSH1 0x4 DUP1 CALLDATASIZE SUB DUP2 ADD SWAP1 PUSH2 0x288 SWAP2 SWAP1 PUSH2 0xF1B JUMP JUMPDEST PUSH2 0x85D JUMP JUMPDEST STOP JUMPDEST CALLVALUE DUP1 ISZERO PUSH2 0x29A JUMPI PUSH0 DUP1 REVERT JUMPDEST POP PUSH2 0x2A3 PUSH2 0x99F JUMP JUMPDEST PUSH1 0x40 MLOAD PUSH2 0x2B0 SWAP2 SWAP1 PUSH2 0xFE8 JUMP JUMPDEST PUSH1 0x40 MLOAD DUP1 SWAP2 SUB SWAP1 RETURN JUMPDEST PUSH2 0x2D3 PUSH1 0x4 DUP1 CALLDATASIZE SUB DUP2 ADD SWAP1 PUSH2 0x2CE SWAP2 SWAP1 PUSH2 0xC78 JUMP JUMPDEST PUSH2 0x9B2 JUMP JUMPDEST STOP JUMPDEST PUSH1 0x5 DUP2 DUP2 SLOAD DUP2 LT PUSH2 0x2E4 JUMPI PUSH0 DUP1 REVERT JUMPDEST SWAP1 PUSH0 MSTORE PUSH1 0x20 PUSH0 KECCAK256 SWAP1 PUSH1 0x3 MUL ADD PUSH0 SWAP2 POP SWAP1 POP DUP1 PUSH0 ADD DUP1 SLOAD PUSH2 0x303 SWAP1 PUSH2 0x102E JUMP JUMPDEST DUP1 PUSH1 0x1F ADD PUSH1 0x20 DUP1 SWAP2 DIV MUL PUSH1 0x20 ADD PUSH1 0x40 MLOAD SWAP1 DUP2 ADD PUSH1 0x40 MSTORE DUP1 SWAP3 SWAP2 SWAP1 DUP2 DUP2 MSTORE PUSH1 0x20 ADD DUP3 DUP1 SLOAD PUSH2 0x32F SWAP1 PUSH2 0x102E JUMP JUMPDEST DUP1 ISZERO PUSH2 0x37A JUMPI DUP1 PUSH1 0x1F LT PUSH2 0x351 JUMPI PUSH2 0x100 DUP1 DUP4 SLOAD DIV MUL DUP4 MSTORE SWAP2 PUSH1 0x20 ADD SWAP2 PUSH2 0x37A JUMP JUMPDEST DUP3 ADD SWAP2 SWAP1 PUSH0 MSTORE PUSH1 0x20 PUSH0 KECCAK256 SWAP1 JUMPDEST DUP2 SLOAD DUP2 MSTORE SWAP1 PUSH1 0x1 ADD SWAP1 PUSH1 0x20 ADD DUP1 DUP4 GT PUSH2 0x35D JUMPI DUP3 SWAP1 SUB PUSH1 0x1F AND DUP3 ADD SWAP2 JUMPDEST POP POP POP POP POP SWAP1 DUP1 PUSH1 0x1 ADD SLOAD SWAP1 DUP1 PUSH1 0x2 ADD SLOAD SWAP1 POP DUP4 JUMP JUMPDEST PUSH0 DUP1 SLOAD PUSH2 0x39C SWAP1 PUSH2 0x102E JUMP JUMPDEST DUP1 PUSH1 0x1F ADD PUSH1 0x20 DUP1 SWAP2 DIV MUL PUSH1 0x20 ADD PUSH1 0x40 MLOAD SWAP1 DUP2 ADD PUSH1 0x40 MSTORE DUP1 SWAP3 SWAP2 SWAP1 DUP2 DUP2 MSTORE PUSH1 0x20 ADD DUP3 DUP1 SLOAD PUSH2 0x3C8 SWAP1 PUSH2 0x102E JUMP JUMPDEST DUP1 ISZERO PUSH2 0x413 JUMPI DUP1 PUSH1 0x1F LT PUSH2 0x3EA JUMPI PUSH2 0x100 DUP1 DUP4 SLOAD DIV MUL DUP4 MSTORE SWAP2 PUSH1 0x20 ADD SWAP2 PUSH2 0x413 JUMP JUMPDEST DUP3 ADD SWAP2 SWAP1 PUSH0 MSTORE PUSH1 0x20 PUSH0 KECCAK256 SWAP1 JUMPDEST DUP2 SLOAD DUP2 MSTORE SWAP1 PUSH1 0x1 ADD SWAP1 PUSH1 0x20 ADD DUP1 DUP4 GT PUSH2 0x3F6 JUMPI DUP3 SWAP1 SUB PUSH1 0x1F AND DUP3 ADD SWAP2 JUMPDEST POP POP POP POP POP DUP2 JUMP JUMPDEST PUSH1 0x3 SLOAD DUP2 JUMP JUMPDEST PUSH1 0x4 PUSH0 SWAP1 SLOAD SWAP1 PUSH2 0x100 EXP SWAP1 DIV PUSH20 0xFFFFFFFFFFFFFFFFFFFFFFFFFFFFFFFFFFFFFFFF AND PUSH20 0xFFFFFFFFFFFFFFFFFFFFFFFFFFFFFFFFFFFFFFFF AND CALLER PUSH20 0xFFFFFFFFFFFFFFFFFFFFFFFFFFFFFFFFFFFFFFFF AND EQ PUSH2 0x4B0 JUMPI PUSH1 0x40 MLOAD PUSH32 0x8C379A000000000000000000000000000000000000000000000000000000000 DUP2 MSTORE PUSH1 0x4 ADD PUSH2 0x4A7 SWAP1 PUSH2 0x10CE JUMP JUMPDEST PUSH1 0x40 MLOAD DUP1 SWAP2 SUB SWAP1 REVERT JUMPDEST PUSH1 0x1 PUSH1 0x2 DUP2 GT ISZERO PUSH2 0x4C4 JUMPI PUSH2 0x4C3 PUSH2 0xF75 JUMP JUMPDEST JUMPDEST PUSH1 0x4 PUSH1 0x14 SWAP1 SLOAD SWAP1 PUSH2 0x100 EXP SWAP1 DIV PUSH1 0xFF AND PUSH1 0x2 DUP2 GT ISZERO PUSH2 0x4E6 JUMPI PUSH2 0x4E5 PUSH2 0xF75 JUMP JUMPDEST JUMPDEST EQ PUSH2 0x526 JUMPI PUSH1 0x40 MLOAD PUSH32 0x8C379A000000000000000000000000000000000000000000000000000000000 DUP2 MSTORE PUSH1 0x4 ADD PUSH2 0x51D SWAP1 PUSH2 0x1136 JUMP JUMPDEST PUSH1 0x40 MLOAD DUP1 SWAP2 SUB SWAP1 REVERT JUMPDEST PUSH2 0x52E PUSH2 0xB16 JUMP JUMPDEST PUSH0 SELFBALANCE SWAP1 POP PUSH0 DUP2 GT PUSH2 0x574 JUMPI PUSH1 0x40 MLOAD PUSH32 0x8C379A000000000000000000000000000000000000000000000000000000000 DUP2 MSTORE PUSH1 0x4 ADD PUSH2 0x56B SWAP1 PUSH2 0x119E JUMP JUMPDEST PUSH1 0x40 MLOAD DUP1 SWAP2 SUB SWAP1 REVERT JUMPDEST PUSH1 0x4 PUSH0 SWAP1 SLOAD SWAP1 PUSH2 0x100 EXP SWAP1 DIV PUSH20 0xFFFFFFFFFFFFFFFFFFFFFFFFFFFFFFFFFFFFFFFF AND PUSH20 0xFFFFFFFFFFFFFFFFFFFFFFFFFFFFFFFFFFFFFFFF AND PUSH2 0x8FC DUP3 SWAP1 DUP2 ISZERO MUL SWAP1 PUSH1 0x40 MLOAD PUSH0 PUSH1 0x40 MLOAD DUP1 DUP4 SUB DUP2 DUP6 DUP9 DUP9 CALL SWAP4 POP POP POP POP ISZERO DUP1 ISZERO PUSH2 0x5D8 JUMPI RETURNDATASIZE PUSH0 DUP1 RETURNDATACOPY RETURNDATASIZE PUSH0 REVERT JUMPDEST POP POP JUMP JUMPDEST PUSH1 0x2 SLOAD DUP2 JUMP JUMPDEST PUSH1 0x60 PUSH0 PUSH1 0x1 PUSH1 0x40 MLOAD PUSH1 0x20 ADD PUSH2 0x5F8 SWAP3 SWAP2 SWAP1 PUSH2 0x12EC JUMP JUMPDEST PUSH1 0x40 MLOAD PUSH1 0x20 DUP2 DUP4 SUB SUB DUP2 MSTORE SWAP1 PUSH1 0x40 MSTORE SWAP1 POP SWAP1 JUMP JUMPDEST PUSH0 SELFBALANCE SWAP1 POP SWAP1 JUMP JUMPDEST PUSH1 0x1 DUP1 SLOAD PUSH2 0x620 SWAP1 PUSH2 0x102E JUMP JUMPDEST DUP1 PUSH1 0x1F ADD PUSH1 0x20 DUP1 SWAP2 DIV MUL PUSH1 0x20 ADD PUSH1 0x40 MLOAD SWAP1 DUP2 ADD PUSH1 0x40 MSTORE DUP1 SWAP3 SWAP2 SWAP1 DUP2 DUP2 MSTORE PUSH1 0x20 ADD DUP3 DUP1 SLOAD PUSH2 0x64C SWAP1 PUSH2 0x102E JUMP JUMPDEST DUP1 ISZERO PUSH2 0x697 JUMPI DUP1 PUSH1 0x1F LT PUSH2 0x66E JUMPI PUSH2 0x100 DUP1 DUP4 SLOAD DIV MUL DUP4 MSTORE SWAP2 PUSH1 0x20 ADD SWAP2 PUSH2 0x697 JUMP JUMPDEST DUP3 ADD SWAP2 SWAP1 PUSH0 MSTORE PUSH1 0x20 PUSH0 KECCAK256 SWAP1 JUMPDEST DUP2 SLOAD DUP2 MSTORE SWAP1 PUSH1 0x1 ADD SWAP1 PUSH1 0x20 ADD DUP1 DUP4 GT PUSH2 0x67A JUMPI DUP3 SWAP1 SUB PUSH1 0x1F AND DUP3 ADD SWAP2 JUMPDEST POP POP POP POP POP DUP2 JUMP JUMPDEST PUSH1 0x4 PUSH0 SWAP1 SLOAD SWAP1 PUSH2 0x100 EXP SWAP1 DIV PUSH20 0xFFFFFFFFFFFFFFFFFFFFFFFFFFFFFFFFFFFFFFFF AND PUSH20 0xFFFFFFFFFFFFFFFFFFFFFFFFFFFFFFFFFFFFFFFF AND CALLER PUSH20 0xFFFFFFFFFFFFFFFFFFFFFFFFFFFFFFFFFFFFFFFF AND EQ PUSH2 0x72E JUMPI PUSH1 0x40 MLOAD PUSH32 0x8C379A000000000000000000000000000000000000000000000000000000000 DUP2 MSTORE PUSH1 0x4 ADD PUSH2 0x725 SWAP1 PUSH2 0x10CE JUMP JUMPDEST PUSH1 0x40 MLOAD DUP1 SWAP2 SUB SWAP1 REVERT JUMPDEST PUSH1 0x5 DUP1 SLOAD SWAP1 POP DUP2 LT PUSH2 0x775 JUMPI PUSH1 0x40 MLOAD PUSH32 0x8C379A000000000000000000000000000000000000000000000000000000000 DUP2 MSTORE PUSH1 0x4 ADD PUSH2 0x76C SWAP1 PUSH2 0x136F JUMP JUMPDEST PUSH1 0x40 MLOAD DUP1 SWAP2 SUB SWAP1 REVERT JUMPDEST PUSH1 0x5 PUSH1 0x1 PUSH1 0x5 DUP1 SLOAD SWAP1 POP PUSH2 0x789 SWAP2 SWAP1 PUSH2 0x13BA JUMP JUMPDEST DUP2 SLOAD DUP2 LT PUSH2 0x79A JUMPI PUSH2 0x799 PUSH2 0x13ED JUMP JUMPDEST JUMPDEST SWAP1 PUSH0 MSTORE PUSH1 0x20 PUSH0 KECCAK256 SWAP1 PUSH1 0x3 MUL ADD PUSH1 0x5 DUP3 DUP2 SLOAD DUP2 LT PUSH2 0x7BA JUMPI PUSH2 0x7B9 PUSH2 0x13ED JUMP JUMPDEST JUMPDEST SWAP1 PUSH0 MSTORE PUSH1 0x20 PUSH0 KECCAK256 SWAP1 PUSH1 0x3 MUL ADD PUSH0 DUP3 ADD DUP2 PUSH0 ADD SWAP1 DUP2 PUSH2 0x7D8 SWAP2 SWAP1 PUSH2 0x15BA JUMP JUMPDEST POP PUSH1 0x1 DUP3 ADD SLOAD DUP2 PUSH1 0x1 ADD SSTORE PUSH1 0x2 DUP3 ADD SLOAD DUP2 PUSH1 0x2 ADD SSTORE SWAP1 POP POP PUSH1 0x5 DUP1 SLOAD DUP1 PUSH2 0x802 JUMPI PUSH2 0x801 PUSH2 0x169F JUMP JUMPDEST JUMPDEST PUSH1 0x1 SWAP1 SUB DUP2 DUP2 SWAP1 PUSH0 MSTORE PUSH1 0x20 PUSH0 KECCAK256 SWAP1 PUSH1 0x3 MUL ADD PUSH0 DUP1 DUP3 ADD PUSH0 PUSH2 0x823 SWAP2 SWAP1 PUSH2 0xBDC JUMP JUMPDEST PUSH1 0x1 DUP3 ADD PUSH0 SWAP1 SSTORE PUSH1 0x2 DUP3 ADD PUSH0 SWAP1 SSTORE POP POP SWAP1 SSTORE POP JUMP JUMPDEST PUSH1 0x4 PUSH0 SWAP1 SLOAD SWAP1 PUSH2 0x100 EXP SWAP1 DIV PUSH20 0xFFFFFFFFFFFFFFFFFFFFFFFFFFFFFFFFFFFFFFFF AND DUP2 JUMP JUMPDEST PUSH1 0x4 PUSH0 SWAP1 SLOAD SWAP1 PUSH2 0x100 EXP SWAP1 DIV PUSH20 0xFFFFFFFFFFFFFFFFFFFFFFFFFFFFFFFFFFFFFFFF AND PUSH20 0xFFFFFFFFFFFFFFFFFFFFFFFFFFFFFFFFFFFFFFFF AND CALLER PUSH20 0xFFFFFFFFFFFFFFFFFFFFFFFFFFFFFFFFFFFFFFFF AND EQ PUSH2 0x8EC JUMPI PUSH1 0x40 MLOAD PUSH32 0x8C379A000000000000000000000000000000000000000000000000000000000 DUP2 MSTORE PUSH1 0x4 ADD PUSH2 0x8E3 SWAP1 PUSH2 0x10CE JUMP JUMPDEST PUSH1 0x40 MLOAD DUP1 SWAP2 SUB SWAP1 REVERT JUMPDEST PUSH0 DUP2 GT PUSH2 0x92E JUMPI PUSH1 0x40 MLOAD PUSH32 0x8C379A000000000000000000000000000000000000000000000000000000000 DUP2 MSTORE PUSH1 0x4 ADD PUSH2 0x925 SWAP1 PUSH2 0x1716 JUMP JUMPDEST PUSH1 0x40 MLOAD DUP1 SWAP2 SUB SWAP1 REVERT JUMPDEST PUSH1 0x5 PUSH1 0x40 MLOAD DUP1 PUSH1 0x60 ADD PUSH1 0x40 MSTORE DUP1 DUP5 DUP2 MSTORE PUSH1 0x20 ADD DUP4 DUP2 MSTORE PUSH1 0x20 ADD PUSH0 DUP2 MSTORE POP SWAP1 DUP1 PUSH1 0x1 DUP2 SLOAD ADD DUP1 DUP3 SSTORE DUP1 SWAP2 POP POP PUSH1 0x1 SWAP1 SUB SWAP1 PUSH0 MSTORE PUSH1 0x20 PUSH0 KECCAK256 SWAP1 PUSH1 0x3 MUL ADD PUSH0 SWAP1 SWAP2 SWAP1 SWAP2 SWAP1 SWAP2 POP PUSH0 DUP3 ADD MLOAD DUP2 PUSH0 ADD SWAP1 DUP2 PUSH2 0x984 SWAP2 SWAP1 PUSH2 0x1734 JUMP JUMPDEST POP PUSH1 0x20 DUP3 ADD MLOAD DUP2 PUSH1 0x1 ADD SSTORE PUSH1 0x40 DUP3 ADD MLOAD DUP2 PUSH1 0x2 ADD SSTORE POP POP POP POP JUMP JUMPDEST PUSH1 0x4 PUSH1 0x14 SWAP1 SLOAD SWAP1 PUSH2 0x100 EXP SWAP1 DIV PUSH1 0xFF AND DUP2 JUMP JUMPDEST PUSH0 PUSH1 0x2 DUP2 GT ISZERO PUSH2 0x9C5 JUMPI PUSH2 0x9C4 PUSH2 0xF75 JUMP JUMPDEST JUMPDEST PUSH1 0x4 PUSH1 0x14 SWAP1 SLOAD SWAP1 PUSH2 0x100 EXP SWAP1 DIV PUSH1 0xFF AND PUSH1 0x2 DUP2 GT ISZERO PUSH2 0x9E7 JUMPI PUSH2 0x9E6 PUSH2 0xF75 JUMP JUMPDEST JUMPDEST EQ PUSH2 0xA27 JUMPI PUSH1 0x40 MLOAD PUSH32 0x8C379A000000000000000000000000000000000000000000000000000000000 DUP2 MSTORE PUSH1 0x4 ADD PUSH2 0xA1E SWAP1 PUSH2 0x184D JUMP JUMPDEST PUSH1 0x40 MLOAD DUP1 SWAP2 SUB SWAP1 REVERT JUMPDEST PUSH1 0x5 DUP1 SLOAD SWAP1 POP DUP2 LT PUSH2 0xA6E JUMPI PUSH1 0x40 MLOAD PUSH32 0x8C379A000000000000000000000000000000000000000000000000000000000 DUP2 MSTORE PUSH1 0x4 ADD PUSH2 0xA65 SWAP1 PUSH2 0x18B5 JUMP JUMPDEST PUSH1 0x40 MLOAD DUP1 SWAP2 SUB SWAP1 REVERT JUMPDEST PUSH1 0x5 DUP2 DUP2 SLOAD DUP2 LT PUSH2 0xA82 JUMPI PUSH2 0xA81 PUSH2 0x13ED JUMP JUMPDEST JUMPDEST SWAP1 PUSH0 MSTORE PUSH1 0x20 PUSH0 KECCAK256 SWAP1 PUSH1 0x3 MUL ADD PUSH1 0x1 ADD SLOAD CALLVALUE EQ PUSH2 0xAD3 JUMPI PUSH1 0x40 MLOAD PUSH32 0x8C379A000000000000000000000000000000000000000000000000000000000 DUP2 MSTORE PUSH1 0x4 ADD PUSH2 0xACA SWAP1 PUSH2 0x191D JUMP JUMPDEST PUSH1 0x40 MLOAD DUP1 SWAP2 SUB SWAP1 REVERT JUMPDEST PUSH1 0x5 DUP2 DUP2 SLOAD DUP2 LT PUSH2 0xAE7 JUMPI PUSH2 0xAE6 PUSH2 0x13ED JUMP JUMPDEST JUMPDEST SWAP1 PUSH0 MSTORE PUSH1 0x20 PUSH0 KECCAK256 SWAP1 PUSH1 0x3 MUL ADD PUSH1 0x2 ADD PUSH0 DUP2 SLOAD DUP1 SWAP3 SWAP2 SWAP1 PUSH2 0xB06 SWAP1 PUSH2 0x193B JUMP JUMPDEST SWAP2 SWAP1 POP SSTORE POP PUSH2 0xB13 PUSH2 0xB16 JUMP JUMPDEST POP JUMP JUMPDEST PUSH0 PUSH1 0x2 DUP2 GT ISZERO PUSH2 0xB29 JUMPI PUSH2 0xB28 PUSH2 0xF75 JUMP JUMPDEST JUMPDEST PUSH1 0x4 PUSH1 0x14 SWAP1 SLOAD SWAP1 PUSH2 0x100 EXP SWAP1 DIV PUSH1 0xFF AND PUSH1 0x2 DUP2 GT ISZERO PUSH2 0xB4B JUMPI PUSH2 0xB4A PUSH2 0xF75 JUMP JUMPDEST JUMPDEST SUB PUSH2 0xBDA JUMPI PUSH1 0x3 SLOAD TIMESTAMP LT PUSH2 0xB9B JUMPI PUSH1 0x2 SLOAD SELFBALANCE LT ISZERO PUSH2 0xB6A JUMPI PUSH1 0x2 PUSH2 0xB6D JUMP JUMPDEST PUSH1 0x1 JUMPDEST PUSH1 0x4 PUSH1 0x14 PUSH2 0x100 EXP DUP2 SLOAD DUP2 PUSH1 0xFF MUL NOT AND SWAP1 DUP4 PUSH1 0x2 DUP2 GT ISZERO PUSH2 0xB91 JUMPI PUSH2 0xB90 PUSH2 0xF75 JUMP JUMPDEST JUMPDEST MUL OR SWAP1 SSTORE POP PUSH2 0xBD9 JUMP JUMPDEST PUSH1 0x2 SLOAD SELFBALANCE LT ISZERO PUSH2 0xBAC JUMPI PUSH1 0x1 PUSH2 0xBAF JUMP JUMPDEST PUSH1 0x1 JUMPDEST PUSH1 0x4 PUSH1 0x14 PUSH2 0x100 EXP DUP2 SLOAD DUP2 PUSH1 0xFF MUL NOT AND SWAP1 DUP4 PUSH1 0x2 DUP2 GT ISZERO PUSH2 0xBD3 JUMPI PUSH2 0xBD2 PUSH2 0xF75 JUMP JUMPDEST JUMPDEST MUL OR SWAP1 SSTORE POP JUMPDEST JUMPDEST JUMP JUMPDEST POP DUP1 SLOAD PUSH2 0xBE8 SWAP1 PUSH2 0x102E JUMP JUMPDEST PUSH0 DUP3 SSTORE DUP1 PUSH1 0x1F LT PUSH2 0xBF9 JUMPI POP PUSH2 0xC16 JUMP JUMPDEST PUSH1 0x1F ADD PUSH1 0x20 SWAP1 DIV SWAP1 PUSH0 MSTORE PUSH1 0x20 PUSH0 KECCAK256 SWAP1 DUP2 ADD SWAP1 PUSH2 0xC15 SWAP2 SWAP1 PUSH2 0xC19 JUMP JUMPDEST JUMPDEST POP JUMP JUMPDEST JUMPDEST DUP1 DUP3 GT ISZERO PUSH2 0xC30 JUMPI PUSH0 DUP2 PUSH0 SWAP1 SSTORE POP PUSH1 0x1 ADD PUSH2 0xC1A JUMP JUMPDEST POP SWAP1 JUMP JUMPDEST PUSH0 PUSH1 0x40 MLOAD SWAP1 POP SWAP1 JUMP JUMPDEST PUSH0 DUP1 REVERT JUMPDEST PUSH0 DUP1 REVERT JUMPDEST PUSH0 DUP2 SWAP1 POP SWAP2 SWAP1 POP JUMP JUMPDEST PUSH2 0xC57 DUP2 PUSH2 0xC45 JUMP JUMPDEST DUP2 EQ PUSH2 0xC61 JUMPI PUSH0 DUP1 REVERT JUMPDEST POP JUMP JUMPDEST PUSH0 DUP2 CALLDATALOAD SWAP1 POP PUSH2 0xC72 DUP2 PUSH2 0xC4E JUMP JUMPDEST SWAP3 SWAP2 POP POP JUMP JUMPDEST PUSH0 PUSH1 0x20 DUP3 DUP5 SUB SLT ISZERO PUSH2 0xC8D JUMPI PUSH2 0xC8C PUSH2 0xC3D JUMP JUMPDEST JUMPDEST PUSH0 PUSH2 0xC9A DUP5 DUP3 DUP6 ADD PUSH2 0xC64 JUMP JUMPDEST SWAP2 POP POP SWAP3 SWAP2 POP POP JUMP JUMPDEST PUSH0 DUP2 MLOAD SWAP1 POP SWAP2 SWAP1 POP JUMP JUMPDEST PUSH0 DUP3 DUP3 MSTORE PUSH1 0x20 DUP3 ADD SWAP1 POP SWAP3 SWAP2 POP POP JUMP JUMPDEST DUP3 DUP2 DUP4 MCOPY PUSH0 DUP4 DUP4 ADD MSTORE POP POP POP JUMP JUMPDEST PUSH0 PUSH1 0x1F NOT PUSH1 0x1F DUP4 ADD AND SWAP1 POP SWAP2 SWAP1 POP JUMP JUMPDEST PUSH0 PUSH2 0xCE5 DUP3 PUSH2 0xCA3 JUMP JUMPDEST PUSH2 0xCEF DUP2 DUP6 PUSH2 0xCAD JUMP JUMPDEST SWAP4 POP PUSH2 0xCFF DUP2 DUP6 PUSH1 0x20 DUP7 ADD PUSH2 0xCBD JUMP JUMPDEST PUSH2 0xD08 DUP2 PUSH2 0xCCB JUMP JUMPDEST DUP5 ADD SWAP2 POP POP SWAP3 SWAP2 POP POP JUMP JUMPDEST PUSH2 0xD1C DUP2 PUSH2 0xC45 JUMP JUMPDEST DUP3 MSTORE POP POP JUMP JUMPDEST PUSH0 PUSH1 0x60 DUP3 ADD SWAP1 POP DUP2 DUP2 SUB PUSH0 DUP4 ADD MSTORE PUSH2 0xD3A DUP2 DUP7 PUSH2 0xCDB JUMP JUMPDEST SWAP1 POP PUSH2 0xD49 PUSH1 0x20 DUP4 ADD DUP6 PUSH2 0xD13 JUMP JUMPDEST PUSH2 0xD56 PUSH1 0x40 DUP4 ADD DUP5 PUSH2 0xD13 JUMP JUMPDEST SWAP5 SWAP4 POP POP POP POP JUMP JUMPDEST PUSH0 PUSH1 0x20 DUP3 ADD SWAP1 POP DUP2 DUP2 SUB PUSH0 DUP4 ADD MSTORE PUSH2 0xD76 DUP2 DUP5 PUSH2 0xCDB JUMP JUMPDEST SWAP1 POP SWAP3 SWAP2 POP POP JUMP JUMPDEST PUSH0 PUSH1 0x20 DUP3 ADD SWAP1 POP PUSH2 0xD91 PUSH0 DUP4 ADD DUP5 PUSH2 0xD13 JUMP JUMPDEST SWAP3 SWAP2 POP POP JUMP JUMPDEST PUSH0 PUSH20 0xFFFFFFFFFFFFFFFFFFFFFFFFFFFFFFFFFFFFFFFF DUP3 AND SWAP1 POP SWAP2 SWAP1 POP JUMP JUMPDEST PUSH0 PUSH2 0xDC0 DUP3 PUSH2 0xD97 JUMP JUMPDEST SWAP1 POP SWAP2 SWAP1 POP JUMP JUMPDEST PUSH2 0xDD0 DUP2 PUSH2 0xDB6 JUMP JUMPDEST DUP3 MSTORE POP POP JUMP JUMPDEST PUSH0 PUSH1 0x20 DUP3 ADD SWAP1 POP PUSH2 0xDE9 PUSH0 DUP4 ADD DUP5 PUSH2 0xDC7 JUMP JUMPDEST SWAP3 SWAP2 POP POP JUMP JUMPDEST PUSH0 DUP1 REVERT JUMPDEST PUSH0 DUP1 REVERT JUMPDEST PUSH32 0x4E487B7100000000000000000000000000000000000000000000000000000000 PUSH0 MSTORE PUSH1 0x41 PUSH1 0x4 MSTORE PUSH1 0x24 PUSH0 REVERT JUMPDEST PUSH2 0xE2D DUP3 PUSH2 0xCCB JUMP JUMPDEST DUP2 ADD DUP2 DUP2 LT PUSH8 0xFFFFFFFFFFFFFFFF DUP3 GT OR ISZERO PUSH2 0xE4C JUMPI PUSH2 0xE4B PUSH2 0xDF7 JUMP JUMPDEST JUMPDEST DUP1 PUSH1 0x40 MSTORE POP POP POP JUMP JUMPDEST PUSH0 PUSH2 0xE5E PUSH2 0xC34 JUMP JUMPDEST SWAP1 POP PUSH2 0xE6A DUP3 DUP3 PUSH2 0xE24 JUMP JUMPDEST SWAP2 SWAP1 POP JUMP JUMPDEST PUSH0 PUSH8 0xFFFFFFFFFFFFFFFF DUP3 GT ISZERO PUSH2 0xE89 JUMPI PUSH2 0xE88 PUSH2 0xDF7 JUMP JUMPDEST JUMPDEST PUSH2 0xE92 DUP3 PUSH2 0xCCB JUMP JUMPDEST SWAP1 POP PUSH1 0x20 DUP2 ADD SWAP1 POP SWAP2 SWAP1 POP JUMP JUMPDEST DUP3 DUP2 DUP4 CALLDATACOPY PUSH0 DUP4 DUP4 ADD MSTORE POP POP POP JUMP JUMPDEST PUSH0 PUSH2 0xEBF PUSH2 0xEBA DUP5 PUSH2 0xE6F JUMP JUMPDEST PUSH2 0xE55 JUMP JUMPDEST SWAP1 POP DUP3 DUP2 MSTORE PUSH1 0x20 DUP2 ADD DUP5 DUP5 DUP5 ADD GT ISZERO PUSH2 0xEDB JUMPI PUSH2 0xEDA PUSH2 0xDF3 JUMP JUMPDEST JUMPDEST PUSH2 0xEE6 DUP5 DUP3 DUP6 PUSH2 0xE9F JUMP JUMPDEST POP SWAP4 SWAP3 POP POP POP JUMP JUMPDEST PUSH0 DUP3 PUSH1 0x1F DUP4 ADD SLT PUSH2 0xF02 JUMPI PUSH2 0xF01 PUSH2 0xDEF JUMP JUMPDEST JUMPDEST DUP2 CALLDATALOAD PUSH2 0xF12 DUP5 DUP3 PUSH1 0x20 DUP7 ADD PUSH2 0xEAD JUMP JUMPDEST SWAP2 POP POP SWAP3 SWAP2 POP POP JUMP JUMPDEST PUSH0 DUP1 PUSH1 0x40 DUP4 DUP6 SUB SLT ISZERO PUSH2 0xF31 JUMPI PUSH2 0xF30 PUSH2 0xC3D JUMP JUMPDEST JUMPDEST PUSH0 DUP4 ADD CALLDATALOAD PUSH8 0xFFFFFFFFFFFFFFFF DUP2 GT ISZERO PUSH2 0xF4E JUMPI PUSH2 0xF4D PUSH2 0xC41 JUMP JUMPDEST JUMPDEST PUSH2 0xF5A DUP6 DUP3 DUP7 ADD PUSH2 0xEEE JUMP JUMPDEST SWAP3 POP POP PUSH1 0x20 PUSH2 0xF6B DUP6 DUP3 DUP7 ADD PUSH2 0xC64 JUMP JUMPDEST SWAP2 POP POP SWAP3 POP SWAP3 SWAP1 POP JUMP JUMPDEST PUSH32 0x4E487B7100000000000000000000000000000000000000000000000000000000 PUSH0 MSTORE PUSH1 0x21 PUSH1 0x4 MSTORE PUSH1 0x24 PUSH0 REVERT JUMPDEST PUSH1 0x3 DUP2 LT PUSH2 0xFB3 JUMPI PUSH2 0xFB2 PUSH2 0xF75 JUMP JUMPDEST JUMPDEST POP JUMP JUMPDEST PUSH0 DUP2 SWAP1 POP PUSH2 0xFC3 DUP3 PUSH2 0xFA2 JUMP JUMPDEST SWAP2 SWAP1 POP JUMP JUMPDEST PUSH0 PUSH2 0xFD2 DUP3 PUSH2 0xFB6 JUMP JUMPDEST SWAP1 POP SWAP2 SWAP1 POP JUMP JUMPDEST PUSH2 0xFE2 DUP2 PUSH2 0xFC8 JUMP JUMPDEST DUP3 MSTORE POP POP JUMP JUMPDEST PUSH0 PUSH1 0x20 DUP3 ADD SWAP1 POP PUSH2 0xFFB PUSH0 DUP4 ADD DUP5 PUSH2 0xFD9 JUMP JUMPDEST SWAP3 SWAP2 POP POP JUMP JUMPDEST PUSH32 0x4E487B7100000000000000000000000000000000000000000000000000000000 PUSH0 MSTORE PUSH1 0x22 PUSH1 0x4 MSTORE PUSH1 0x24 PUSH0 REVERT JUMPDEST PUSH0 PUSH1 0x2 DUP3 DIV SWAP1 POP PUSH1 0x1 DUP3 AND DUP1 PUSH2 0x1045 JUMPI PUSH1 0x7F DUP3 AND SWAP2 POP JUMPDEST PUSH1 0x20 DUP3 LT DUP2 SUB PUSH2 0x1058 JUMPI PUSH2 0x1057 PUSH2 0x1001 JUMP JUMPDEST JUMPDEST POP SWAP2 SWAP1 POP JUMP JUMPDEST PUSH32 0x596F7520617265206E6F7420746865206F776E6572206F66207468697320636F PUSH0 DUP3 ADD MSTORE PUSH32 0x6E74726163740000000000000000000000000000000000000000000000000000 PUSH1 0x20 DUP3 ADD MSTORE POP JUMP JUMPDEST PUSH0 PUSH2 0x10B8 PUSH1 0x26 DUP4 PUSH2 0xCAD JUMP JUMPDEST SWAP2 POP PUSH2 0x10C3 DUP3 PUSH2 0x105E JUMP JUMPDEST PUSH1 0x40 DUP3 ADD SWAP1 POP SWAP2 SWAP1 POP JUMP JUMPDEST PUSH0 PUSH1 0x20 DUP3 ADD SWAP1 POP DUP2 DUP2 SUB PUSH0 DUP4 ADD MSTORE PUSH2 0x10E5 DUP2 PUSH2 0x10AC JUMP JUMPDEST SWAP1 POP SWAP2 SWAP1 POP JUMP JUMPDEST PUSH32 0x43616D706169676E206973206E6F742073756363657373000000000000000000 PUSH0 DUP3 ADD MSTORE POP JUMP JUMPDEST PUSH0 PUSH2 0x1120 PUSH1 0x17 DUP4 PUSH2 0xCAD JUMP JUMPDEST SWAP2 POP PUSH2 0x112B DUP3 PUSH2 0x10EC JUMP JUMPDEST PUSH1 0x20 DUP3 ADD SWAP1 POP SWAP2 SWAP1 POP JUMP JUMPDEST PUSH0 PUSH1 0x20 DUP3 ADD SWAP1 POP DUP2 DUP2 SUB PUSH0 DUP4 ADD MSTORE PUSH2 0x114D DUP2 PUSH2 0x1114 JUMP JUMPDEST SWAP1 POP SWAP2 SWAP1 POP JUMP JUMPDEST PUSH32 0x4E6F2062616C616E636520746F20776974686472617700000000000000000000 PUSH0 DUP3 ADD MSTORE POP JUMP JUMPDEST PUSH0 PUSH2 0x1188 PUSH1 0x16 DUP4 PUSH2 0xCAD JUMP JUMPDEST SWAP2 POP PUSH2 0x1193 DUP3 PUSH2 0x1154 JUMP JUMPDEST PUSH1 0x20 DUP3 ADD SWAP1 POP SWAP2 SWAP1 POP JUMP JUMPDEST PUSH0 PUSH1 0x20 DUP3 ADD SWAP1 POP DUP2 DUP2 SUB PUSH0 DUP4 ADD MSTORE PUSH2 0x11B5 DUP2 PUSH2 0x117C JUMP JUMPDEST SWAP1 POP SWAP2 SWAP1 POP JUMP JUMPDEST PUSH0 DUP2 SWAP1 POP SWAP3 SWAP2 POP POP JUMP JUMPDEST PUSH32 0x4E616D653A200000000000000000000000000000000000000000000000000000 PUSH0 DUP3 ADD MSTORE POP JUMP JUMPDEST PUSH0 PUSH2 0x11FA PUSH1 0x6 DUP4 PUSH2 0x11BC JUMP JUMPDEST SWAP2 POP PUSH2 0x1205 DUP3 PUSH2 0x11C6 JUMP JUMPDEST PUSH1 0x6 DUP3 ADD SWAP1 POP SWAP2 SWAP1 POP JUMP JUMPDEST PUSH0 DUP2 SWAP1 POP DUP2 PUSH0 MSTORE PUSH1 0x20 PUSH0 KECCAK256 SWAP1 POP SWAP2 SWAP1 POP JUMP JUMPDEST PUSH0 DUP2 SLOAD PUSH2 0x122E DUP2 PUSH2 0x102E JUMP JUMPDEST PUSH2 0x1238 DUP2 DUP7 PUSH2 0x11BC JUMP JUMPDEST SWAP5 POP PUSH1 0x1 DUP3 AND PUSH0 DUP2 EQ PUSH2 0x1252 JUMPI PUSH1 0x1 DUP2 EQ PUSH2 0x1267 JUMPI PUSH2 0x1299 JUMP JUMPDEST PUSH1 0xFF NOT DUP4 AND DUP7 MSTORE DUP2 ISZERO ISZERO DUP3 MUL DUP7 ADD SWAP4 POP PUSH2 0x1299 JUMP JUMPDEST PUSH2 0x1270 DUP6 PUSH2 0x1210 JUMP JUMPDEST PUSH0 JUMPDEST DUP4 DUP2 LT ISZERO PUSH2 0x1291 JUMPI DUP2 SLOAD DUP2 DUP10 ADD MSTORE PUSH1 0x1 DUP3 ADD SWAP2 POP PUSH1 0x20 DUP2 ADD SWAP1 POP PUSH2 0x1272 JUMP JUMPDEST DUP4 DUP9 ADD SWAP6 POP POP POP JUMPDEST POP POP POP SWAP3 SWAP2 POP POP JUMP JUMPDEST PUSH32 0x204465736372697074696F6E3A20000000000000000000000000000000000000 PUSH0 DUP3 ADD MSTORE POP JUMP JUMPDEST PUSH0 PUSH2 0x12D6 PUSH1 0xE DUP4 PUSH2 0x11BC JUMP JUMPDEST SWAP2 POP PUSH2 0x12E1 DUP3 PUSH2 0x12A2 JUMP JUMPDEST PUSH1 0xE DUP3 ADD SWAP1 POP SWAP2 SWAP1 POP JUMP JUMPDEST PUSH0 PUSH2 0x12F6 DUP3 PUSH2 0x11EE JUMP JUMPDEST SWAP2 POP PUSH2 0x1302 DUP3 DUP6 PUSH2 0x1222 JUMP JUMPDEST SWAP2 POP PUSH2 0x130D DUP3 PUSH2 0x12CA JUMP JUMPDEST SWAP2 POP PUSH2 0x1319 DUP3 DUP5 PUSH2 0x1222 JUMP JUMPDEST SWAP2 POP DUP2 SWAP1 POP SWAP4 SWAP3 POP POP POP JUMP JUMPDEST PUSH32 0x5469657220646F65736E27742065786973747300000000000000000000000000 PUSH0 DUP3 ADD MSTORE POP JUMP JUMPDEST PUSH0 PUSH2 0x1359 PUSH1 0x13 DUP4 PUSH2 0xCAD JUMP JUMPDEST SWAP2 POP PUSH2 0x1364 DUP3 PUSH2 0x1325 JUMP JUMPDEST PUSH1 0x20 DUP3 ADD SWAP1 POP SWAP2 SWAP1 POP JUMP JUMPDEST PUSH0 PUSH1 0x20 DUP3 ADD SWAP1 POP DUP2 DUP2 SUB PUSH0 DUP4 ADD MSTORE PUSH2 0x1386 DUP2 PUSH2 0x134D JUMP JUMPDEST SWAP1 POP SWAP2 SWAP1 POP JUMP JUMPDEST PUSH32 0x4E487B7100000000000000000000000000000000000000000000000000000000 PUSH0 MSTORE PUSH1 0x11 PUSH1 0x4 MSTORE PUSH1 0x24 PUSH0 REVERT JUMPDEST PUSH0 PUSH2 0x13C4 DUP3 PUSH2 0xC45 JUMP JUMPDEST SWAP2 POP PUSH2 0x13CF DUP4 PUSH2 0xC45 JUMP JUMPDEST SWAP3 POP DUP3 DUP3 SUB SWAP1 POP DUP2 DUP2 GT ISZERO PUSH2 0x13E7 JUMPI PUSH2 0x13E6 PUSH2 0x138D JUMP JUMPDEST JUMPDEST SWAP3 SWAP2 POP POP JUMP JUMPDEST PUSH32 0x4E487B7100000000000000000000000000000000000000000000000000000000 PUSH0 MSTORE PUSH1 0x32 PUSH1 0x4 MSTORE PUSH1 0x24 PUSH0 REVERT JUMPDEST PUSH0 DUP2 SLOAD SWAP1 POP PUSH2 0x1428 DUP2 PUSH2 0x102E JUMP JUMPDEST SWAP1 POP SWAP2 SWAP1 POP JUMP JUMPDEST PUSH0 PUSH1 0x20 PUSH1 0x1F DUP4 ADD DIV SWAP1 POP SWAP2 SWAP1 POP JUMP JUMPDEST PUSH0 DUP3 DUP3 SHL SWAP1 POP SWAP3 SWAP2 POP POP JUMP JUMPDEST PUSH0 PUSH1 0x8 DUP4 MUL PUSH2 0x1479 PUSH32 0xFFFFFFFFFFFFFFFFFFFFFFFFFFFFFFFFFFFFFFFFFFFFFFFFFFFFFFFFFFFFFFFF DUP3 PUSH2 0x143E JUMP JUMPDEST PUSH2 0x1483 DUP7 DUP4 PUSH2 0x143E JUMP JUMPDEST SWAP6 POP DUP1 NOT DUP5 AND SWAP4 POP DUP1 DUP7 AND DUP5 OR SWAP3 POP POP POP SWAP4 SWAP3 POP POP POP JUMP JUMPDEST PUSH0 DUP2 SWAP1 POP SWAP2 SWAP1 POP JUMP JUMPDEST PUSH0 PUSH2 0x14BE PUSH2 0x14B9 PUSH2 0x14B4 DUP5 PUSH2 0xC45 JUMP JUMPDEST PUSH2 0x149B JUMP JUMPDEST PUSH2 0xC45 JUMP JUMPDEST SWAP1 POP SWAP2 SWAP1 POP JUMP JUMPDEST PUSH0 DUP2 SWAP1 POP SWAP2 SWAP1 POP JUMP JUMPDEST PUSH2 0x14D7 DUP4 PUSH2 0x14A4 JUMP JUMPDEST PUSH2 0x14EB PUSH2 0x14E3 DUP3 PUSH2 0x14C5 JUMP JUMPDEST DUP5 DUP5 SLOAD PUSH2 0x144A JUMP JUMPDEST DUP3 SSTORE POP POP POP POP JUMP JUMPDEST PUSH0 SWAP1 JUMP JUMPDEST PUSH2 0x14FF PUSH2 0x14F3 JUMP JUMPDEST PUSH2 0x150A DUP2 DUP5 DUP5 PUSH2 0x14CE JUMP JUMPDEST POP POP POP JUMP JUMPDEST JUMPDEST DUP2 DUP2 LT ISZERO PUSH2 0x152D JUMPI PUSH2 0x1522 PUSH0 DUP3 PUSH2 0x14F7 JUMP JUMPDEST PUSH1 0x1 DUP2 ADD SWAP1 POP PUSH2 0x1510 JUMP JUMPDEST POP POP JUMP JUMPDEST PUSH1 0x1F DUP3 GT ISZERO PUSH2 0x1572 JUMPI PUSH2 0x1543 DUP2 PUSH2 0x1210 JUMP JUMPDEST PUSH2 0x154C DUP5 PUSH2 0x142F JUMP JUMPDEST DUP2 ADD PUSH1 0x20 DUP6 LT ISZERO PUSH2 0x155B JUMPI DUP2 SWAP1 POP JUMPDEST PUSH2 0x156F PUSH2 0x1567 DUP6 PUSH2 0x142F JUMP JUMPDEST DUP4 ADD DUP3 PUSH2 0x150F JUMP JUMPDEST POP POP JUMPDEST POP POP POP JUMP JUMPDEST PUSH0 DUP3 DUP3 SHR SWAP1 POP SWAP3 SWAP2 POP POP JUMP JUMPDEST PUSH0 PUSH2 0x1592 PUSH0 NOT DUP5 PUSH1 0x8 MUL PUSH2 0x1577 JUMP JUMPDEST NOT DUP1 DUP4 AND SWAP2 POP POP SWAP3 SWAP2 POP POP JUMP JUMPDEST PUSH0 PUSH2 0x15AA DUP4 DUP4 PUSH2 0x1583 JUMP JUMPDEST SWAP2 POP DUP3 PUSH1 0x2 MUL DUP3 OR SWAP1 POP SWAP3 SWAP2 POP POP JUMP JUMPDEST DUP2 DUP2 SUB PUSH2 0x15C8 JUMPI POP POP PUSH2 0x169D JUMP JUMPDEST PUSH2 0x15D1 DUP3 PUSH2 0x141A JUMP JUMPDEST PUSH8 0xFFFFFFFFFFFFFFFF DUP2 GT ISZERO PUSH2 0x15EA JUMPI PUSH2 0x15E9 PUSH2 0xDF7 JUMP JUMPDEST JUMPDEST PUSH2 0x15F4 DUP3 SLOAD PUSH2 0x102E JUMP JUMPDEST PUSH2 0x15FF DUP3 DUP3 DUP6 PUSH2 0x1531 JUMP JUMPDEST PUSH0 PUSH1 0x1F DUP4 GT PUSH1 0x1 DUP2 EQ PUSH2 0x162C JUMPI PUSH0 DUP5 ISZERO PUSH2 0x161A JUMPI DUP3 DUP8 ADD SLOAD SWAP1 POP JUMPDEST PUSH2 0x1624 DUP6 DUP3 PUSH2 0x159F JUMP JUMPDEST DUP7 SSTORE POP PUSH2 0x1696 JUMP JUMPDEST PUSH1 0x1F NOT DUP5 AND PUSH2 0x163A DUP8 PUSH2 0x1210 JUMP JUMPDEST SWAP7 POP PUSH2 0x1645 DUP7 PUSH2 0x1210 JUMP JUMPDEST PUSH0 JUMPDEST DUP3 DUP2 LT ISZERO PUSH2 0x166C JUMPI DUP5 DUP10 ADD SLOAD DUP3 SSTORE PUSH1 0x1 DUP3 ADD SWAP2 POP PUSH1 0x1 DUP6 ADD SWAP5 POP PUSH1 0x20 DUP2 ADD SWAP1 POP PUSH2 0x1647 JUMP JUMPDEST DUP7 DUP4 LT ISZERO PUSH2 0x1689 JUMPI DUP5 DUP10 ADD SLOAD PUSH2 0x1685 PUSH1 0x1F DUP10 AND DUP3 PUSH2 0x1583 JUMP JUMPDEST DUP4 SSTORE POP JUMPDEST PUSH1 0x1 PUSH1 0x2 DUP9 MUL ADD DUP9 SSTORE POP POP POP JUMPDEST POP POP POP POP POP POP JUMPDEST JUMP JUMPDEST PUSH32 0x4E487B7100000000000000000000000000000000000000000000000000000000 PUSH0 MSTORE PUSH1 0x31 PUSH1 0x4 MSTORE PUSH1 0x24 PUSH0 REVERT JUMPDEST PUSH32 0x416D6F756E74206D757374206265206772656174657220746861746E20300000 PUSH0 DUP3 ADD MSTORE POP JUMP JUMPDEST PUSH0 PUSH2 0x1700 PUSH1 0x1E DUP4 PUSH2 0xCAD JUMP JUMPDEST SWAP2 POP PUSH2 0x170B DUP3 PUSH2 0x16CC JUMP JUMPDEST PUSH1 0x20 DUP3 ADD SWAP1 POP SWAP2 SWAP1 POP JUMP JUMPDEST PUSH0 PUSH1 0x20 DUP3 ADD SWAP1 POP DUP2 DUP2 SUB PUSH0 DUP4 ADD MSTORE PUSH2 0x172D DUP2 PUSH2 0x16F4 JUMP JUMPDEST SWAP1 POP SWAP2 SWAP1 POP JUMP JUMPDEST PUSH2 0x173D DUP3 PUSH2 0xCA3 JUMP JUMPDEST PUSH8 0xFFFFFFFFFFFFFFFF DUP2 GT ISZERO PUSH2 0x1756 JUMPI PUSH2 0x1755 PUSH2 0xDF7 JUMP JUMPDEST JUMPDEST PUSH2 0x1760 DUP3 SLOAD PUSH2 0x102E JUMP JUMPDEST PUSH2 0x176B DUP3 DUP3 DUP6 PUSH2 0x1531 JUMP JUMPDEST PUSH0 PUSH1 0x20 SWAP1 POP PUSH1 0x1F DUP4 GT PUSH1 0x1 DUP2 EQ PUSH2 0x179C JUMPI PUSH0 DUP5 ISZERO PUSH2 0x178A JUMPI DUP3 DUP8 ADD MLOAD SWAP1 POP JUMPDEST PUSH2 0x1794 DUP6 DUP3 PUSH2 0x159F JUMP JUMPDEST DUP7 SSTORE POP PUSH2 0x17FB JUMP JUMPDEST PUSH1 0x1F NOT DUP5 AND PUSH2 0x17AA DUP7 PUSH2 0x1210 JUMP JUMPDEST PUSH0 JUMPDEST DUP3 DUP2 LT ISZERO PUSH2 0x17D1 JUMPI DUP5 DUP10 ADD MLOAD DUP3 SSTORE PUSH1 0x1 DUP3 ADD SWAP2 POP PUSH1 0x20 DUP6 ADD SWAP5 POP PUSH1 0x20 DUP2 ADD SWAP1 POP PUSH2 0x17AC JUMP JUMPDEST DUP7 DUP4 LT ISZERO PUSH2 0x17EE JUMPI DUP5 DUP10 ADD MLOAD PUSH2 0x17EA PUSH1 0x1F DUP10 AND DUP3 PUSH2 0x1583 JUMP JUMPDEST DUP4 SSTORE POP JUMPDEST PUSH1 0x1 PUSH1 0x2 DUP9 MUL ADD DUP9 SSTORE POP POP POP JUMPDEST POP POP POP POP POP POP JUMP JUMPDEST PUSH32 0x43616D706169676E206973206E6F742061637469766500000000000000000000 PUSH0 DUP3 ADD MSTORE POP JUMP JUMPDEST PUSH0 PUSH2 0x1837 PUSH1 0x16 DUP4 PUSH2 0xCAD JUMP JUMPDEST SWAP2 POP PUSH2 0x1842 DUP3 PUSH2 0x1803 JUMP JUMPDEST PUSH1 0x20 DUP3 ADD SWAP1 POP SWAP2 SWAP1 POP JUMP JUMPDEST PUSH0 PUSH1 0x20 DUP3 ADD SWAP1 POP DUP2 DUP2 SUB PUSH0 DUP4 ADD MSTORE PUSH2 0x1864 DUP2 PUSH2 0x182B JUMP JUMPDEST SWAP1 POP SWAP2 SWAP1 POP JUMP JUMPDEST PUSH32 0x496E76616C696420746965720000000000000000000000000000000000000000 PUSH0 DUP3 ADD MSTORE POP JUMP JUMPDEST PUSH0 PUSH2 0x189F PUSH1 0xC DUP4 PUSH2 0xCAD JUMP JUMPDEST SWAP2 POP PUSH2 0x18AA DUP3 PUSH2 0x186B JUMP JUMPDEST PUSH1 0x20 DUP3 ADD SWAP1 POP SWAP2 SWAP1 POP JUMP JUMPDEST PUSH0 PUSH1 0x20 DUP3 ADD SWAP1 POP DUP2 DUP2 SUB PUSH0 DUP4 ADD MSTORE PUSH2 0x18CC DUP2 PUSH2 0x1893 JUMP JUMPDEST SWAP1 POP SWAP2 SWAP1 POP JUMP JUMPDEST PUSH32 0x496E636F727265637420616D6F756E7400000000000000000000000000000000 PUSH0 DUP3 ADD MSTORE POP JUMP JUMPDEST PUSH0 PUSH2 0x1907 PUSH1 0x10 DUP4 PUSH2 0xCAD JUMP JUMPDEST SWAP2 POP PUSH2 0x1912 DUP3 PUSH2 0x18D3 JUMP JUMPDEST PUSH1 0x20 DUP3 ADD SWAP1 POP SWAP2 SWAP1 POP JUMP JUMPDEST PUSH0 PUSH1 0x20 DUP3 ADD SWAP1 POP DUP2 DUP2 SUB PUSH0 DUP4 ADD MSTORE PUSH2 0x1934 DUP2 PUSH2 0x18FB JUMP JUMPDEST SWAP1 POP SWAP2 SWAP1 POP JUMP JUMPDEST PUSH0 PUSH2 0x1945 DUP3 PUSH2 0xC45 JUMP JUMPDEST SWAP2 POP PUSH32 0xFFFFFFFFFFFFFFFFFFFFFFFFFFFFFFFFFFFFFFFFFFFFFFFFFFFFFFFFFFFFFFFF DUP3 SUB PUSH2 0x1977 JUMPI PUSH2 0x1976 PUSH2 0x138D JUMP JUMPDEST JUMPDEST PUSH1 0x1 DUP3 ADD SWAP1 POP SWAP2 SWAP1 POP JUMP INVALID LOG2 PUSH5 0x6970667358 0x22 SLT KECCAK256 0xAB DUP15 LOG1 COINBASE SMOD ORIGIN 0xF8 PUSH14 0xA693F3FF2F3738268B683D6BF843 SWAP2 JUMPI 0xA7 LOG1 RETURNDATACOPY ADDMOD PUSH11 0x874D5F64736F6C63430008 BYTE STOP CALLER "
				},
				"gasEstimates": {
					"creation": {
						"codeDepositCost": "1316800",
						"executionCost": "infinite",
						"totalCost": "infinite"
					},
					"external": {
						"addTier(string,uint256)": "infinite",
						"deadline()": "2470",
						"description()": "infinite",
						"fund(uint256)": "infinite",
						"getContractBalance()": "357",
						"getInfo()": "infinite",
						"goal()": "2514",
						"name()": "infinite",
						"owner()": "2530",
						"removeTier(uint256)": "infinite",
						"state()": "2671",
						"tiers(uint256)": "infinite",
						"withdraw()": "infinite"
					},
					"internal": {
						"checkAndUpdateCampaignState()": "30878"
					}
				},
				"methodIdentifiers": {
					"addTier(string,uint256)": "8ece7b91",
					"deadline()": "29dcb0cf",
					"description()": "7284e416",
					"fund(uint256)": "ca1d209d",
					"getContractBalance()": "6f9fb98a",
					"getInfo()": "5a9b0b89",
					"goal()": "40193883",
					"name()": "06fdde03",
					"owner()": "8da5cb5b",
					"removeTier(uint256)": "7497211b",
					"state()": "c19d93fb",
					"tiers(uint256)": "039af9eb",
					"withdraw()": "3ccfd60b"
				}
			},
			"storageLayout": {
				"storage": [
					{
						"astId": 3,
						"contract": "contracts/Crowdfunding.sol:Crowdfunding",
						"label": "name",
						"offset": 0,
						"slot": "0",
						"type": "t_string_storage"
					},
					{
						"astId": 5,
						"contract": "contracts/Crowdfunding.sol:Crowdfunding",
						"label": "description",
						"offset": 0,
						"slot": "1",
						"type": "t_string_storage"
					},
					{
						"astId": 7,
						"contract": "contracts/Crowdfunding.sol:Crowdfunding",
						"label": "goal",
						"offset": 0,
						"slot": "2",
						"type": "t_uint256"
					},
					{
						"astId": 9,
						"contract": "contracts/Crowdfunding.sol:Crowdfunding",
						"label": "deadline",
						"offset": 0,
						"slot": "3",
						"type": "t_uint256"
					},
					{
						"astId": 11,
						"contract": "contracts/Crowdfunding.sol:Crowdfunding",
						"label": "owner",
						"offset": 0,
						"slot": "4",
						"type": "t_address"
					},
					{
						"astId": 18,
						"contract": "contracts/Crowdfunding.sol:Crowdfunding",
						"label": "state",
						"offset": 20,
						"slot": "4",
						"type": "t_enum(CampaignState)15"
					},
					{
						"astId": 29,
						"contract": "contracts/Crowdfunding.sol:Crowdfunding",
						"label": "tiers",
						"offset": 0,
						"slot": "5",
						"type": "t_array(t_struct(Tier)25_storage)dyn_storage"
					}
				],
				"types": {
					"t_address": {
						"encoding": "inplace",
						"label": "address",
						"numberOfBytes": "20"
					},
					"t_array(t_struct(Tier)25_storage)dyn_storage": {
						"base": "t_struct(Tier)25_storage",
						"encoding": "dynamic_array",
						"label": "struct Crowdfunding.Tier[]",
						"numberOfBytes": "32"
					},
					"t_enum(CampaignState)15": {
						"encoding": "inplace",
						"label": "enum Crowdfunding.CampaignState",
						"numberOfBytes": "1"
					},
					"t_string_storage": {
						"encoding": "bytes",
						"label": "string",
						"numberOfBytes": "32"
					},
					"t_struct(Tier)25_storage": {
						"encoding": "inplace",
						"label": "struct Crowdfunding.Tier",
						"members": [
							{
								"astId": 20,
								"contract": "contracts/Crowdfunding.sol:Crowdfunding",
								"label": "name",
								"offset": 0,
								"slot": "0",
								"type": "t_string_storage"
							},
							{
								"astId": 22,
								"contract": "contracts/Crowdfunding.sol:Crowdfunding",
								"label": "amount",
								"offset": 0,
								"slot": "1",
								"type": "t_uint256"
							},
							{
								"astId": 24,
								"contract": "contracts/Crowdfunding.sol:Crowdfunding",
								"label": "backers",
								"offset": 0,
								"slot": "2",
								"type": "t_uint256"
							}
						],
						"numberOfBytes": "96"
					},
					"t_uint256": {
						"encoding": "inplace",
						"label": "uint256",
						"numberOfBytes": "32"
					}
				}
			},
			"userdoc": {
				"kind": "user",
				"methods": {},
				"version": 1
			}
		}
	}
}