{
	"contracts/Crowdfunding.sol": {
		"Crowdfunding": {
			"abi": [
				{
					"inputs": [
						{
							"internalType": "string",
							"name": "_name",
							"type": "string"
						},
						{
							"internalType": "string",
							"name": "_description",
							"type": "string"
						},
						{
							"internalType": "uint256",
							"name": "_goal",
							"type": "uint256"
						},
						{
							"internalType": "uint256",
							"name": "_durationInDays",
							"type": "uint256"
						}
					],
					"stateMutability": "nonpayable",
					"type": "constructor"
				},
				{
					"inputs": [
						{
							"internalType": "string",
							"name": "_name",
							"type": "string"
						},
						{
							"internalType": "uint256",
							"name": "_amount",
							"type": "uint256"
						}
					],
					"name": "addTier",
					"outputs": [],
					"stateMutability": "nonpayable",
					"type": "function"
				},
				{
					"inputs": [
						{
							"internalType": "address",
							"name": "",
							"type": "address"
						}
					],
					"name": "backers",
					"outputs": [
						{
							"internalType": "uint256",
							"name": "totalContribution",
							"type": "uint256"
						}
					],
					"stateMutability": "view",
					"type": "function"
				},
				{
					"inputs": [],
					"name": "deadline",
					"outputs": [
						{
							"internalType": "uint256",
							"name": "",
							"type": "uint256"
						}
					],
					"stateMutability": "view",
					"type": "function"
				},
				{
					"inputs": [],
					"name": "description",
					"outputs": [
						{
							"internalType": "string",
							"name": "",
							"type": "string"
						}
					],
					"stateMutability": "view",
					"type": "function"
				},
				{
					"inputs": [
						{
							"internalType": "uint256",
							"name": "_daysToAdd",
							"type": "uint256"
						}
					],
					"name": "extendDeadline",
					"outputs": [],
					"stateMutability": "nonpayable",
					"type": "function"
				},
				{
					"inputs": [
						{
							"internalType": "uint256",
							"name": "_tierIndex",
							"type": "uint256"
						}
					],
					"name": "fund",
					"outputs": [],
					"stateMutability": "payable",
					"type": "function"
				},
				{
					"inputs": [],
					"name": "getCampaignStatus",
					"outputs": [
						{
							"internalType": "enum Crowdfunding.CampaignState",
							"name": "",
							"type": "uint8"
						}
					],
					"stateMutability": "view",
					"type": "function"
				},
				{
					"inputs": [],
					"name": "getContractBalance",
					"outputs": [
						{
							"internalType": "uint256",
							"name": "",
							"type": "uint256"
						}
					],
					"stateMutability": "view",
					"type": "function"
				},
				{
					"inputs": [],
					"name": "getTiers",
					"outputs": [
						{
							"components": [
								{
									"internalType": "string",
									"name": "name",
									"type": "string"
								},
								{
									"internalType": "uint256",
									"name": "amount",
									"type": "uint256"
								},
								{
									"internalType": "uint256",
									"name": "backers",
									"type": "uint256"
								}
							],
							"internalType": "struct Crowdfunding.Tier[]",
							"name": "",
							"type": "tuple[]"
						}
					],
					"stateMutability": "view",
					"type": "function"
				},
				{
					"inputs": [],
					"name": "goal",
					"outputs": [
						{
							"internalType": "uint256",
							"name": "",
							"type": "uint256"
						}
					],
					"stateMutability": "view",
					"type": "function"
				},
				{
					"inputs": [
						{
							"internalType": "address",
							"name": "_backer",
							"type": "address"
						},
						{
							"internalType": "uint256",
							"name": "_tierIndex",
							"type": "uint256"
						}
					],
					"name": "hasFundedTier",
					"outputs": [
						{
							"internalType": "bool",
							"name": "",
							"type": "bool"
						}
					],
					"stateMutability": "view",
					"type": "function"
				},
				{
					"inputs": [],
					"name": "name",
					"outputs": [
						{
							"internalType": "string",
							"name": "",
							"type": "string"
						}
					],
					"stateMutability": "view",
					"type": "function"
				},
				{
					"inputs": [],
					"name": "owner",
					"outputs": [
						{
							"internalType": "address",
							"name": "",
							"type": "address"
						}
					],
					"stateMutability": "view",
					"type": "function"
				},
				{
					"inputs": [],
					"name": "paused",
					"outputs": [
						{
							"internalType": "bool",
							"name": "",
							"type": "bool"
						}
					],
					"stateMutability": "view",
					"type": "function"
				},
				{
					"inputs": [],
					"name": "refund",
					"outputs": [],
					"stateMutability": "nonpayable",
					"type": "function"
				},
				{
					"inputs": [
						{
							"internalType": "uint256",
							"name": "_index",
							"type": "uint256"
						}
					],
					"name": "removeTier",
					"outputs": [],
					"stateMutability": "nonpayable",
					"type": "function"
				},
				{
					"inputs": [],
					"name": "state",
					"outputs": [
						{
							"internalType": "enum Crowdfunding.CampaignState",
							"name": "",
							"type": "uint8"
						}
					],
					"stateMutability": "view",
					"type": "function"
				},
				{
					"inputs": [
						{
							"internalType": "uint256",
							"name": "",
							"type": "uint256"
						}
					],
					"name": "tiers",
					"outputs": [
						{
							"internalType": "string",
							"name": "name",
							"type": "string"
						},
						{
							"internalType": "uint256",
							"name": "amount",
							"type": "uint256"
						},
						{
							"internalType": "uint256",
							"name": "backers",
							"type": "uint256"
						}
					],
					"stateMutability": "view",
					"type": "function"
				},
				{
					"inputs": [],
					"name": "tooglePause",
					"outputs": [],
					"stateMutability": "nonpayable",
					"type": "function"
				},
				{
					"inputs": [],
					"name": "withdraw",
					"outputs": [],
					"stateMutability": "nonpayable",
					"type": "function"
				}
			],
			"devdoc": {
				"kind": "dev",
				"methods": {},
				"version": 1
			},
			"evm": {
				"assembly": "    /* \"contracts/Crowdfunding.sol\":57:4920  contract Crowdfunding {... */\n  mstore(0x40, 0x80)\n    /* \"contracts/Crowdfunding.sol\":1294:1729  constructor (... */\n  callvalue\n  dup1\n  iszero\n  tag_1\n  jumpi\n  0x00\n  dup1\n  revert\ntag_1:\n  pop\n  mload(0x40)\n  sub(codesize, bytecodeSize)\n  dup1\n  bytecodeSize\n  dup4\n  codecopy\n  dup2\n  dup2\n  add\n  0x40\n  mstore\n  dup2\n  add\n  swap1\n  tag_2\n  swap2\n  swap1\n  tag_3\n  jump\t// in\ntag_2:\n    /* \"contracts/Crowdfunding.sol\":1462:1467  _name */\n  dup4\n    /* \"contracts/Crowdfunding.sol\":1455:1459  name */\n  0x00\n    /* \"contracts/Crowdfunding.sol\":1455:1467  name = _name */\n  swap1\n  dup2\n  tag_6\n  swap2\n  swap1\n  tag_7\n  jump\t// in\ntag_6:\n  pop\n    /* \"contracts/Crowdfunding.sol\":1495:1507  _description */\n  dup3\n    /* \"contracts/Crowdfunding.sol\":1481:1492  description */\n  0x01\n    /* \"contracts/Crowdfunding.sol\":1481:1507  description = _description */\n  swap1\n  dup2\n  tag_8\n  swap2\n  swap1\n  tag_7\n  jump\t// in\ntag_8:\n  pop\n    /* \"contracts/Crowdfunding.sol\":1528:1533  _goal */\n  dup2\n    /* \"contracts/Crowdfunding.sol\":1521:1525  goal */\n  0x02\n    /* \"contracts/Crowdfunding.sol\":1521:1533  goal = _goal */\n  dup2\n  swap1\n  sstore\n  pop\n    /* \"contracts/Crowdfunding.sol\":1596:1601  86400 */\n  0x015180\n    /* \"contracts/Crowdfunding.sol\":1578:1593  _durationInDays */\n  dup2\n    /* \"contracts/Crowdfunding.sol\":1578:1601  _durationInDays * 86400 */\n  tag_9\n  swap2\n  swap1\n  tag_10\n  jump\t// in\ntag_9:\n    /* \"contracts/Crowdfunding.sol\":1559:1574  block.timestamp */\n  timestamp\n    /* \"contracts/Crowdfunding.sol\":1559:1602  block.timestamp + (_durationInDays * 86400) */\n  tag_11\n  swap2\n  swap1\n  tag_12\n  jump\t// in\ntag_11:\n    /* \"contracts/Crowdfunding.sol\":1547:1555  deadline */\n  0x03\n    /* \"contracts/Crowdfunding.sol\":1547:1602  deadline =  block.timestamp + (_durationInDays * 86400) */\n  dup2\n  swap1\n  sstore\n  pop\n    /* \"contracts/Crowdfunding.sol\":1624:1634  msg.sender */\n  caller\n    /* \"contracts/Crowdfunding.sol\":1616:1621  owner */\n  0x04\n  0x00\n    /* \"contracts/Crowdfunding.sol\":1616:1634  owner = msg.sender */\n  0x0100\n  exp\n  dup2\n  sload\n  dup2\n  0xffffffffffffffffffffffffffffffffffffffff\n  mul\n  not\n  and\n  swap1\n  dup4\n  0xffffffffffffffffffffffffffffffffffffffff\n  and\n  mul\n  or\n  swap1\n  sstore\n  pop\n    /* \"contracts/Crowdfunding.sol\":1698:1718  CampaignState.Active */\n  0x00\n    /* \"contracts/Crowdfunding.sol\":1690:1695  state */\n  0x04\n  0x15\n    /* \"contracts/Crowdfunding.sol\":1690:1718  state = CampaignState.Active */\n  0x0100\n  exp\n  dup2\n  sload\n  dup2\n  0xff\n  mul\n  not\n  and\n  swap1\n  dup4\n  0x02\n  dup2\n  gt\n  iszero\n  tag_13\n  jumpi\n  tag_14\n  tag_15\n  jump\t// in\ntag_14:\ntag_13:\n  mul\n  or\n  swap1\n  sstore\n  pop\n    /* \"contracts/Crowdfunding.sol\":1294:1729  constructor (... */\n  pop\n  pop\n  pop\n  pop\n    /* \"contracts/Crowdfunding.sol\":57:4920  contract Crowdfunding {... */\n  jump(tag_16)\n    /* \"#utility.yul\":7:82   */\ntag_17:\n    /* \"#utility.yul\":40:46   */\n  0x00\n    /* \"#utility.yul\":73:75   */\n  0x40\n    /* \"#utility.yul\":67:76   */\n  mload\n    /* \"#utility.yul\":57:76   */\n  swap1\n  pop\n    /* \"#utility.yul\":7:82   */\n  swap1\n  jump\t// out\n    /* \"#utility.yul\":88:205   */\ntag_18:\n    /* \"#utility.yul\":197:198   */\n  0x00\n    /* \"#utility.yul\":194:195   */\n  dup1\n    /* \"#utility.yul\":187:199   */\n  revert\n    /* \"#utility.yul\":211:328   */\ntag_19:\n    /* \"#utility.yul\":320:321   */\n  0x00\n    /* \"#utility.yul\":317:318   */\n  dup1\n    /* \"#utility.yul\":310:322   */\n  revert\n    /* \"#utility.yul\":334:451   */\ntag_20:\n    /* \"#utility.yul\":443:444   */\n  0x00\n    /* \"#utility.yul\":440:441   */\n  dup1\n    /* \"#utility.yul\":433:445   */\n  revert\n    /* \"#utility.yul\":457:574   */\ntag_21:\n    /* \"#utility.yul\":566:567   */\n  0x00\n    /* \"#utility.yul\":563:564   */\n  dup1\n    /* \"#utility.yul\":556:568   */\n  revert\n    /* \"#utility.yul\":580:682   */\ntag_22:\n    /* \"#utility.yul\":621:627   */\n  0x00\n    /* \"#utility.yul\":672:674   */\n  0x1f\n    /* \"#utility.yul\":668:675   */\n  not\n    /* \"#utility.yul\":663:665   */\n  0x1f\n    /* \"#utility.yul\":656:661   */\n  dup4\n    /* \"#utility.yul\":652:666   */\n  add\n    /* \"#utility.yul\":648:676   */\n  and\n    /* \"#utility.yul\":638:676   */\n  swap1\n  pop\n    /* \"#utility.yul\":580:682   */\n  swap2\n  swap1\n  pop\n  jump\t// out\n    /* \"#utility.yul\":688:868   */\ntag_23:\n    /* \"#utility.yul\":736:813   */\n  0x4e487b7100000000000000000000000000000000000000000000000000000000\n    /* \"#utility.yul\":733:734   */\n  0x00\n    /* \"#utility.yul\":726:814   */\n  mstore\n    /* \"#utility.yul\":833:837   */\n  0x41\n    /* \"#utility.yul\":830:831   */\n  0x04\n    /* \"#utility.yul\":823:838   */\n  mstore\n    /* \"#utility.yul\":857:861   */\n  0x24\n    /* \"#utility.yul\":854:855   */\n  0x00\n    /* \"#utility.yul\":847:862   */\n  revert\n    /* \"#utility.yul\":874:1155   */\ntag_24:\n    /* \"#utility.yul\":957:984   */\n  tag_61\n    /* \"#utility.yul\":979:983   */\n  dup3\n    /* \"#utility.yul\":957:984   */\n  tag_22\n  jump\t// in\ntag_61:\n    /* \"#utility.yul\":949:955   */\n  dup2\n    /* \"#utility.yul\":945:985   */\n  add\n    /* \"#utility.yul\":1087:1093   */\n  dup2\n    /* \"#utility.yul\":1075:1085   */\n  dup2\n    /* \"#utility.yul\":1072:1094   */\n  lt\n    /* \"#utility.yul\":1051:1069   */\n  0xffffffffffffffff\n    /* \"#utility.yul\":1039:1049   */\n  dup3\n    /* \"#utility.yul\":1036:1070   */\n  gt\n    /* \"#utility.yul\":1033:1095   */\n  or\n    /* \"#utility.yul\":1030:1118   */\n  iszero\n  tag_62\n  jumpi\n    /* \"#utility.yul\":1098:1116   */\n  tag_63\n  tag_23\n  jump\t// in\ntag_63:\n    /* \"#utility.yul\":1030:1118   */\ntag_62:\n    /* \"#utility.yul\":1138:1148   */\n  dup1\n    /* \"#utility.yul\":1134:1136   */\n  0x40\n    /* \"#utility.yul\":1127:1149   */\n  mstore\n    /* \"#utility.yul\":917:1155   */\n  pop\n    /* \"#utility.yul\":874:1155   */\n  pop\n  pop\n  jump\t// out\n    /* \"#utility.yul\":1161:1290   */\ntag_25:\n    /* \"#utility.yul\":1195:1201   */\n  0x00\n    /* \"#utility.yul\":1222:1242   */\n  tag_65\n  tag_17\n  jump\t// in\ntag_65:\n    /* \"#utility.yul\":1212:1242   */\n  swap1\n  pop\n    /* \"#utility.yul\":1251:1284   */\n  tag_66\n    /* \"#utility.yul\":1279:1283   */\n  dup3\n    /* \"#utility.yul\":1271:1277   */\n  dup3\n    /* \"#utility.yul\":1251:1284   */\n  tag_24\n  jump\t// in\ntag_66:\n    /* \"#utility.yul\":1161:1290   */\n  swap2\n  swap1\n  pop\n  jump\t// out\n    /* \"#utility.yul\":1296:1604   */\ntag_26:\n    /* \"#utility.yul\":1358:1362   */\n  0x00\n    /* \"#utility.yul\":1448:1466   */\n  0xffffffffffffffff\n    /* \"#utility.yul\":1440:1446   */\n  dup3\n    /* \"#utility.yul\":1437:1467   */\n  gt\n    /* \"#utility.yul\":1434:1490   */\n  iszero\n  tag_68\n  jumpi\n    /* \"#utility.yul\":1470:1488   */\n  tag_69\n  tag_23\n  jump\t// in\ntag_69:\n    /* \"#utility.yul\":1434:1490   */\ntag_68:\n    /* \"#utility.yul\":1508:1537   */\n  tag_70\n    /* \"#utility.yul\":1530:1536   */\n  dup3\n    /* \"#utility.yul\":1508:1537   */\n  tag_22\n  jump\t// in\ntag_70:\n    /* \"#utility.yul\":1500:1537   */\n  swap1\n  pop\n    /* \"#utility.yul\":1592:1596   */\n  0x20\n    /* \"#utility.yul\":1586:1590   */\n  dup2\n    /* \"#utility.yul\":1582:1597   */\n  add\n    /* \"#utility.yul\":1574:1597   */\n  swap1\n  pop\n    /* \"#utility.yul\":1296:1604   */\n  swap2\n  swap1\n  pop\n  jump\t// out\n    /* \"#utility.yul\":1610:1749   */\ntag_27:\n    /* \"#utility.yul\":1699:1705   */\n  dup3\n    /* \"#utility.yul\":1694:1697   */\n  dup2\n    /* \"#utility.yul\":1689:1692   */\n  dup4\n    /* \"#utility.yul\":1683:1706   */\n  mcopy\n    /* \"#utility.yul\":1740:1741   */\n  0x00\n    /* \"#utility.yul\":1731:1737   */\n  dup4\n    /* \"#utility.yul\":1726:1729   */\n  dup4\n    /* \"#utility.yul\":1722:1738   */\n  add\n    /* \"#utility.yul\":1715:1742   */\n  mstore\n    /* \"#utility.yul\":1610:1749   */\n  pop\n  pop\n  pop\n  jump\t// out\n    /* \"#utility.yul\":1755:2189   */\ntag_28:\n    /* \"#utility.yul\":1844:1849   */\n  0x00\n    /* \"#utility.yul\":1869:1935   */\n  tag_73\n    /* \"#utility.yul\":1885:1934   */\n  tag_74\n    /* \"#utility.yul\":1927:1933   */\n  dup5\n    /* \"#utility.yul\":1885:1934   */\n  tag_26\n  jump\t// in\ntag_74:\n    /* \"#utility.yul\":1869:1935   */\n  tag_25\n  jump\t// in\ntag_73:\n    /* \"#utility.yul\":1860:1935   */\n  swap1\n  pop\n    /* \"#utility.yul\":1958:1964   */\n  dup3\n    /* \"#utility.yul\":1951:1956   */\n  dup2\n    /* \"#utility.yul\":1944:1965   */\n  mstore\n    /* \"#utility.yul\":1996:2000   */\n  0x20\n    /* \"#utility.yul\":1989:1994   */\n  dup2\n    /* \"#utility.yul\":1985:2001   */\n  add\n    /* \"#utility.yul\":2034:2037   */\n  dup5\n    /* \"#utility.yul\":2025:2031   */\n  dup5\n    /* \"#utility.yul\":2020:2023   */\n  dup5\n    /* \"#utility.yul\":2016:2032   */\n  add\n    /* \"#utility.yul\":2013:2038   */\n  gt\n    /* \"#utility.yul\":2010:2122   */\n  iszero\n  tag_75\n  jumpi\n    /* \"#utility.yul\":2041:2120   */\n  tag_76\n  tag_21\n  jump\t// in\ntag_76:\n    /* \"#utility.yul\":2010:2122   */\ntag_75:\n    /* \"#utility.yul\":2131:2183   */\n  tag_77\n    /* \"#utility.yul\":2176:2182   */\n  dup5\n    /* \"#utility.yul\":2171:2174   */\n  dup3\n    /* \"#utility.yul\":2166:2169   */\n  dup6\n    /* \"#utility.yul\":2131:2183   */\n  tag_27\n  jump\t// in\ntag_77:\n    /* \"#utility.yul\":1850:2189   */\n  pop\n    /* \"#utility.yul\":1755:2189   */\n  swap4\n  swap3\n  pop\n  pop\n  pop\n  jump\t// out\n    /* \"#utility.yul\":2209:2564   */\ntag_29:\n    /* \"#utility.yul\":2276:2281   */\n  0x00\n    /* \"#utility.yul\":2325:2328   */\n  dup3\n    /* \"#utility.yul\":2318:2322   */\n  0x1f\n    /* \"#utility.yul\":2310:2316   */\n  dup4\n    /* \"#utility.yul\":2306:2323   */\n  add\n    /* \"#utility.yul\":2302:2329   */\n  slt\n    /* \"#utility.yul\":2292:2414   */\n  tag_79\n  jumpi\n    /* \"#utility.yul\":2333:2412   */\n  tag_80\n  tag_20\n  jump\t// in\ntag_80:\n    /* \"#utility.yul\":2292:2414   */\ntag_79:\n    /* \"#utility.yul\":2443:2449   */\n  dup2\n    /* \"#utility.yul\":2437:2450   */\n  mload\n    /* \"#utility.yul\":2468:2558   */\n  tag_81\n    /* \"#utility.yul\":2554:2557   */\n  dup5\n    /* \"#utility.yul\":2546:2552   */\n  dup3\n    /* \"#utility.yul\":2539:2543   */\n  0x20\n    /* \"#utility.yul\":2531:2537   */\n  dup7\n    /* \"#utility.yul\":2527:2544   */\n  add\n    /* \"#utility.yul\":2468:2558   */\n  tag_28\n  jump\t// in\ntag_81:\n    /* \"#utility.yul\":2459:2558   */\n  swap2\n  pop\n    /* \"#utility.yul\":2282:2564   */\n  pop\n    /* \"#utility.yul\":2209:2564   */\n  swap3\n  swap2\n  pop\n  pop\n  jump\t// out\n    /* \"#utility.yul\":2570:2647   */\ntag_30:\n    /* \"#utility.yul\":2607:2614   */\n  0x00\n    /* \"#utility.yul\":2636:2641   */\n  dup2\n    /* \"#utility.yul\":2625:2641   */\n  swap1\n  pop\n    /* \"#utility.yul\":2570:2647   */\n  swap2\n  swap1\n  pop\n  jump\t// out\n    /* \"#utility.yul\":2653:2775   */\ntag_31:\n    /* \"#utility.yul\":2726:2750   */\n  tag_84\n    /* \"#utility.yul\":2744:2749   */\n  dup2\n    /* \"#utility.yul\":2726:2750   */\n  tag_30\n  jump\t// in\ntag_84:\n    /* \"#utility.yul\":2719:2724   */\n  dup2\n    /* \"#utility.yul\":2716:2751   */\n  eq\n    /* \"#utility.yul\":2706:2769   */\n  tag_85\n  jumpi\n    /* \"#utility.yul\":2765:2766   */\n  0x00\n    /* \"#utility.yul\":2762:2763   */\n  dup1\n    /* \"#utility.yul\":2755:2767   */\n  revert\n    /* \"#utility.yul\":2706:2769   */\ntag_85:\n    /* \"#utility.yul\":2653:2775   */\n  pop\n  jump\t// out\n    /* \"#utility.yul\":2781:2924   */\ntag_32:\n    /* \"#utility.yul\":2838:2843   */\n  0x00\n    /* \"#utility.yul\":2869:2875   */\n  dup2\n    /* \"#utility.yul\":2863:2876   */\n  mload\n    /* \"#utility.yul\":2854:2876   */\n  swap1\n  pop\n    /* \"#utility.yul\":2885:2918   */\n  tag_87\n    /* \"#utility.yul\":2912:2917   */\n  dup2\n    /* \"#utility.yul\":2885:2918   */\n  tag_31\n  jump\t// in\ntag_87:\n    /* \"#utility.yul\":2781:2924   */\n  swap3\n  swap2\n  pop\n  pop\n  jump\t// out\n    /* \"#utility.yul\":2930:4096   */\ntag_3:\n    /* \"#utility.yul\":3047:3053   */\n  0x00\n    /* \"#utility.yul\":3055:3061   */\n  dup1\n    /* \"#utility.yul\":3063:3069   */\n  0x00\n    /* \"#utility.yul\":3071:3077   */\n  dup1\n    /* \"#utility.yul\":3120:3123   */\n  0x80\n    /* \"#utility.yul\":3108:3117   */\n  dup6\n    /* \"#utility.yul\":3099:3106   */\n  dup8\n    /* \"#utility.yul\":3095:3118   */\n  sub\n    /* \"#utility.yul\":3091:3124   */\n  slt\n    /* \"#utility.yul\":3088:3208   */\n  iszero\n  tag_89\n  jumpi\n    /* \"#utility.yul\":3127:3206   */\n  tag_90\n  tag_18\n  jump\t// in\ntag_90:\n    /* \"#utility.yul\":3088:3208   */\ntag_89:\n    /* \"#utility.yul\":3268:3269   */\n  0x00\n    /* \"#utility.yul\":3257:3266   */\n  dup6\n    /* \"#utility.yul\":3253:3270   */\n  add\n    /* \"#utility.yul\":3247:3271   */\n  mload\n    /* \"#utility.yul\":3298:3316   */\n  0xffffffffffffffff\n    /* \"#utility.yul\":3290:3296   */\n  dup2\n    /* \"#utility.yul\":3287:3317   */\n  gt\n    /* \"#utility.yul\":3284:3401   */\n  iszero\n  tag_91\n  jumpi\n    /* \"#utility.yul\":3320:3399   */\n  tag_92\n  tag_19\n  jump\t// in\ntag_92:\n    /* \"#utility.yul\":3284:3401   */\ntag_91:\n    /* \"#utility.yul\":3425:3499   */\n  tag_93\n    /* \"#utility.yul\":3491:3498   */\n  dup8\n    /* \"#utility.yul\":3482:3488   */\n  dup3\n    /* \"#utility.yul\":3471:3480   */\n  dup9\n    /* \"#utility.yul\":3467:3489   */\n  add\n    /* \"#utility.yul\":3425:3499   */\n  tag_29\n  jump\t// in\ntag_93:\n    /* \"#utility.yul\":3415:3499   */\n  swap5\n  pop\n    /* \"#utility.yul\":3218:3509   */\n  pop\n    /* \"#utility.yul\":3569:3571   */\n  0x20\n    /* \"#utility.yul\":3558:3567   */\n  dup6\n    /* \"#utility.yul\":3554:3572   */\n  add\n    /* \"#utility.yul\":3548:3573   */\n  mload\n    /* \"#utility.yul\":3600:3618   */\n  0xffffffffffffffff\n    /* \"#utility.yul\":3592:3598   */\n  dup2\n    /* \"#utility.yul\":3589:3619   */\n  gt\n    /* \"#utility.yul\":3586:3703   */\n  iszero\n  tag_94\n  jumpi\n    /* \"#utility.yul\":3622:3701   */\n  tag_95\n  tag_19\n  jump\t// in\ntag_95:\n    /* \"#utility.yul\":3586:3703   */\ntag_94:\n    /* \"#utility.yul\":3727:3801   */\n  tag_96\n    /* \"#utility.yul\":3793:3800   */\n  dup8\n    /* \"#utility.yul\":3784:3790   */\n  dup3\n    /* \"#utility.yul\":3773:3782   */\n  dup9\n    /* \"#utility.yul\":3769:3791   */\n  add\n    /* \"#utility.yul\":3727:3801   */\n  tag_29\n  jump\t// in\ntag_96:\n    /* \"#utility.yul\":3717:3801   */\n  swap4\n  pop\n    /* \"#utility.yul\":3519:3811   */\n  pop\n    /* \"#utility.yul\":3850:3852   */\n  0x40\n    /* \"#utility.yul\":3876:3940   */\n  tag_97\n    /* \"#utility.yul\":3932:3939   */\n  dup8\n    /* \"#utility.yul\":3923:3929   */\n  dup3\n    /* \"#utility.yul\":3912:3921   */\n  dup9\n    /* \"#utility.yul\":3908:3930   */\n  add\n    /* \"#utility.yul\":3876:3940   */\n  tag_32\n  jump\t// in\ntag_97:\n    /* \"#utility.yul\":3866:3940   */\n  swap3\n  pop\n    /* \"#utility.yul\":3821:3950   */\n  pop\n    /* \"#utility.yul\":3989:3991   */\n  0x60\n    /* \"#utility.yul\":4015:4079   */\n  tag_98\n    /* \"#utility.yul\":4071:4078   */\n  dup8\n    /* \"#utility.yul\":4062:4068   */\n  dup3\n    /* \"#utility.yul\":4051:4060   */\n  dup9\n    /* \"#utility.yul\":4047:4069   */\n  add\n    /* \"#utility.yul\":4015:4079   */\n  tag_32\n  jump\t// in\ntag_98:\n    /* \"#utility.yul\":4005:4079   */\n  swap2\n  pop\n    /* \"#utility.yul\":3960:4089   */\n  pop\n    /* \"#utility.yul\":2930:4096   */\n  swap3\n  swap6\n  swap2\n  swap5\n  pop\n  swap3\n  pop\n  jump\t// out\n    /* \"#utility.yul\":4102:4201   */\ntag_33:\n    /* \"#utility.yul\":4154:4160   */\n  0x00\n    /* \"#utility.yul\":4188:4193   */\n  dup2\n    /* \"#utility.yul\":4182:4194   */\n  mload\n    /* \"#utility.yul\":4172:4194   */\n  swap1\n  pop\n    /* \"#utility.yul\":4102:4201   */\n  swap2\n  swap1\n  pop\n  jump\t// out\n    /* \"#utility.yul\":4207:4387   */\ntag_34:\n    /* \"#utility.yul\":4255:4332   */\n  0x4e487b7100000000000000000000000000000000000000000000000000000000\n    /* \"#utility.yul\":4252:4253   */\n  0x00\n    /* \"#utility.yul\":4245:4333   */\n  mstore\n    /* \"#utility.yul\":4352:4356   */\n  0x22\n    /* \"#utility.yul\":4349:4350   */\n  0x04\n    /* \"#utility.yul\":4342:4357   */\n  mstore\n    /* \"#utility.yul\":4376:4380   */\n  0x24\n    /* \"#utility.yul\":4373:4374   */\n  0x00\n    /* \"#utility.yul\":4366:4381   */\n  revert\n    /* \"#utility.yul\":4393:4713   */\ntag_35:\n    /* \"#utility.yul\":4437:4443   */\n  0x00\n    /* \"#utility.yul\":4474:4475   */\n  0x02\n    /* \"#utility.yul\":4468:4472   */\n  dup3\n    /* \"#utility.yul\":4464:4476   */\n  div\n    /* \"#utility.yul\":4454:4476   */\n  swap1\n  pop\n    /* \"#utility.yul\":4521:4522   */\n  0x01\n    /* \"#utility.yul\":4515:4519   */\n  dup3\n    /* \"#utility.yul\":4511:4523   */\n  and\n    /* \"#utility.yul\":4542:4560   */\n  dup1\n    /* \"#utility.yul\":4532:4613   */\n  tag_102\n  jumpi\n    /* \"#utility.yul\":4598:4602   */\n  0x7f\n    /* \"#utility.yul\":4590:4596   */\n  dup3\n    /* \"#utility.yul\":4586:4603   */\n  and\n    /* \"#utility.yul\":4576:4603   */\n  swap2\n  pop\n    /* \"#utility.yul\":4532:4613   */\ntag_102:\n    /* \"#utility.yul\":4660:4662   */\n  0x20\n    /* \"#utility.yul\":4652:4658   */\n  dup3\n    /* \"#utility.yul\":4649:4663   */\n  lt\n    /* \"#utility.yul\":4629:4647   */\n  dup2\n    /* \"#utility.yul\":4626:4664   */\n  sub\n    /* \"#utility.yul\":4623:4707   */\n  tag_103\n  jumpi\n    /* \"#utility.yul\":4679:4697   */\n  tag_104\n  tag_34\n  jump\t// in\ntag_104:\n    /* \"#utility.yul\":4623:4707   */\ntag_103:\n    /* \"#utility.yul\":4444:4713   */\n  pop\n    /* \"#utility.yul\":4393:4713   */\n  swap2\n  swap1\n  pop\n  jump\t// out\n    /* \"#utility.yul\":4719:4860   */\ntag_36:\n    /* \"#utility.yul\":4768:4772   */\n  0x00\n    /* \"#utility.yul\":4791:4794   */\n  dup2\n    /* \"#utility.yul\":4783:4794   */\n  swap1\n  pop\n    /* \"#utility.yul\":4814:4817   */\n  dup2\n    /* \"#utility.yul\":4811:4812   */\n  0x00\n    /* \"#utility.yul\":4804:4818   */\n  mstore\n    /* \"#utility.yul\":4848:4852   */\n  0x20\n    /* \"#utility.yul\":4845:4846   */\n  0x00\n    /* \"#utility.yul\":4835:4853   */\n  keccak256\n    /* \"#utility.yul\":4827:4853   */\n  swap1\n  pop\n    /* \"#utility.yul\":4719:4860   */\n  swap2\n  swap1\n  pop\n  jump\t// out\n    /* \"#utility.yul\":4866:4959   */\ntag_37:\n    /* \"#utility.yul\":4903:4909   */\n  0x00\n    /* \"#utility.yul\":4950:4952   */\n  0x20\n    /* \"#utility.yul\":4945:4947   */\n  0x1f\n    /* \"#utility.yul\":4938:4943   */\n  dup4\n    /* \"#utility.yul\":4934:4948   */\n  add\n    /* \"#utility.yul\":4930:4953   */\n  div\n    /* \"#utility.yul\":4920:4953   */\n  swap1\n  pop\n    /* \"#utility.yul\":4866:4959   */\n  swap2\n  swap1\n  pop\n  jump\t// out\n    /* \"#utility.yul\":4965:5072   */\ntag_38:\n    /* \"#utility.yul\":5009:5017   */\n  0x00\n    /* \"#utility.yul\":5059:5064   */\n  dup3\n    /* \"#utility.yul\":5053:5057   */\n  dup3\n    /* \"#utility.yul\":5049:5065   */\n  shl\n    /* \"#utility.yul\":5028:5065   */\n  swap1\n  pop\n    /* \"#utility.yul\":4965:5072   */\n  swap3\n  swap2\n  pop\n  pop\n  jump\t// out\n    /* \"#utility.yul\":5078:5471   */\ntag_39:\n    /* \"#utility.yul\":5147:5153   */\n  0x00\n    /* \"#utility.yul\":5197:5198   */\n  0x08\n    /* \"#utility.yul\":5185:5195   */\n  dup4\n    /* \"#utility.yul\":5181:5199   */\n  mul\n    /* \"#utility.yul\":5220:5317   */\n  tag_109\n    /* \"#utility.yul\":5250:5316   */\n  0xffffffffffffffffffffffffffffffffffffffffffffffffffffffffffffffff\n    /* \"#utility.yul\":5239:5248   */\n  dup3\n    /* \"#utility.yul\":5220:5317   */\n  tag_38\n  jump\t// in\ntag_109:\n    /* \"#utility.yul\":5338:5377   */\n  tag_110\n    /* \"#utility.yul\":5368:5376   */\n  dup7\n    /* \"#utility.yul\":5357:5366   */\n  dup4\n    /* \"#utility.yul\":5338:5377   */\n  tag_38\n  jump\t// in\ntag_110:\n    /* \"#utility.yul\":5326:5377   */\n  swap6\n  pop\n    /* \"#utility.yul\":5410:5414   */\n  dup1\n    /* \"#utility.yul\":5406:5415   */\n  not\n    /* \"#utility.yul\":5399:5404   */\n  dup5\n    /* \"#utility.yul\":5395:5416   */\n  and\n    /* \"#utility.yul\":5386:5416   */\n  swap4\n  pop\n    /* \"#utility.yul\":5459:5463   */\n  dup1\n    /* \"#utility.yul\":5449:5457   */\n  dup7\n    /* \"#utility.yul\":5445:5464   */\n  and\n    /* \"#utility.yul\":5438:5443   */\n  dup5\n    /* \"#utility.yul\":5435:5465   */\n  or\n    /* \"#utility.yul\":5425:5465   */\n  swap3\n  pop\n    /* \"#utility.yul\":5154:5471   */\n  pop\n  pop\n    /* \"#utility.yul\":5078:5471   */\n  swap4\n  swap3\n  pop\n  pop\n  pop\n  jump\t// out\n    /* \"#utility.yul\":5477:5537   */\ntag_40:\n    /* \"#utility.yul\":5505:5508   */\n  0x00\n    /* \"#utility.yul\":5526:5531   */\n  dup2\n    /* \"#utility.yul\":5519:5531   */\n  swap1\n  pop\n    /* \"#utility.yul\":5477:5537   */\n  swap2\n  swap1\n  pop\n  jump\t// out\n    /* \"#utility.yul\":5543:5685   */\ntag_41:\n    /* \"#utility.yul\":5593:5602   */\n  0x00\n    /* \"#utility.yul\":5626:5679   */\n  tag_113\n    /* \"#utility.yul\":5644:5678   */\n  tag_114\n    /* \"#utility.yul\":5653:5677   */\n  tag_115\n    /* \"#utility.yul\":5671:5676   */\n  dup5\n    /* \"#utility.yul\":5653:5677   */\n  tag_30\n  jump\t// in\ntag_115:\n    /* \"#utility.yul\":5644:5678   */\n  tag_40\n  jump\t// in\ntag_114:\n    /* \"#utility.yul\":5626:5679   */\n  tag_30\n  jump\t// in\ntag_113:\n    /* \"#utility.yul\":5613:5679   */\n  swap1\n  pop\n    /* \"#utility.yul\":5543:5685   */\n  swap2\n  swap1\n  pop\n  jump\t// out\n    /* \"#utility.yul\":5691:5766   */\ntag_42:\n    /* \"#utility.yul\":5734:5737   */\n  0x00\n    /* \"#utility.yul\":5755:5760   */\n  dup2\n    /* \"#utility.yul\":5748:5760   */\n  swap1\n  pop\n    /* \"#utility.yul\":5691:5766   */\n  swap2\n  swap1\n  pop\n  jump\t// out\n    /* \"#utility.yul\":5772:6041   */\ntag_43:\n    /* \"#utility.yul\":5882:5921   */\n  tag_118\n    /* \"#utility.yul\":5913:5920   */\n  dup4\n    /* \"#utility.yul\":5882:5921   */\n  tag_41\n  jump\t// in\ntag_118:\n    /* \"#utility.yul\":5943:6034   */\n  tag_119\n    /* \"#utility.yul\":5992:6033   */\n  tag_120\n    /* \"#utility.yul\":6016:6032   */\n  dup3\n    /* \"#utility.yul\":5992:6033   */\n  tag_42\n  jump\t// in\ntag_120:\n    /* \"#utility.yul\":5984:5990   */\n  dup5\n    /* \"#utility.yul\":5977:5981   */\n  dup5\n    /* \"#utility.yul\":5971:5982   */\n  sload\n    /* \"#utility.yul\":5943:6034   */\n  tag_39\n  jump\t// in\ntag_119:\n    /* \"#utility.yul\":5937:5941   */\n  dup3\n    /* \"#utility.yul\":5930:6035   */\n  sstore\n    /* \"#utility.yul\":5848:6041   */\n  pop\n    /* \"#utility.yul\":5772:6041   */\n  pop\n  pop\n  pop\n  jump\t// out\n    /* \"#utility.yul\":6047:6120   */\ntag_44:\n    /* \"#utility.yul\":6092:6095   */\n  0x00\n    /* \"#utility.yul\":6047:6120   */\n  swap1\n  jump\t// out\n    /* \"#utility.yul\":6126:6315   */\ntag_45:\n    /* \"#utility.yul\":6203:6235   */\n  tag_123\n  tag_44\n  jump\t// in\ntag_123:\n    /* \"#utility.yul\":6244:6309   */\n  tag_124\n    /* \"#utility.yul\":6302:6308   */\n  dup2\n    /* \"#utility.yul\":6294:6300   */\n  dup5\n    /* \"#utility.yul\":6288:6292   */\n  dup5\n    /* \"#utility.yul\":6244:6309   */\n  tag_43\n  jump\t// in\ntag_124:\n    /* \"#utility.yul\":6179:6315   */\n  pop\n    /* \"#utility.yul\":6126:6315   */\n  pop\n  pop\n  jump\t// out\n    /* \"#utility.yul\":6321:6507   */\ntag_46:\n    /* \"#utility.yul\":6381:6501   */\ntag_126:\n    /* \"#utility.yul\":6398:6401   */\n  dup2\n    /* \"#utility.yul\":6391:6396   */\n  dup2\n    /* \"#utility.yul\":6388:6402   */\n  lt\n    /* \"#utility.yul\":6381:6501   */\n  iszero\n  tag_128\n  jumpi\n    /* \"#utility.yul\":6452:6491   */\n  tag_129\n    /* \"#utility.yul\":6489:6490   */\n  0x00\n    /* \"#utility.yul\":6482:6487   */\n  dup3\n    /* \"#utility.yul\":6452:6491   */\n  tag_45\n  jump\t// in\ntag_129:\n    /* \"#utility.yul\":6425:6426   */\n  0x01\n    /* \"#utility.yul\":6418:6423   */\n  dup2\n    /* \"#utility.yul\":6414:6427   */\n  add\n    /* \"#utility.yul\":6405:6427   */\n  swap1\n  pop\n    /* \"#utility.yul\":6381:6501   */\n  jump(tag_126)\ntag_128:\n    /* \"#utility.yul\":6321:6507   */\n  pop\n  pop\n  jump\t// out\n    /* \"#utility.yul\":6513:7056   */\ntag_47:\n    /* \"#utility.yul\":6614:6616   */\n  0x1f\n    /* \"#utility.yul\":6609:6612   */\n  dup3\n    /* \"#utility.yul\":6606:6617   */\n  gt\n    /* \"#utility.yul\":6603:7049   */\n  iszero\n  tag_131\n  jumpi\n    /* \"#utility.yul\":6648:6686   */\n  tag_132\n    /* \"#utility.yul\":6680:6685   */\n  dup2\n    /* \"#utility.yul\":6648:6686   */\n  tag_36\n  jump\t// in\ntag_132:\n    /* \"#utility.yul\":6732:6761   */\n  tag_133\n    /* \"#utility.yul\":6750:6760   */\n  dup5\n    /* \"#utility.yul\":6732:6761   */\n  tag_37\n  jump\t// in\ntag_133:\n    /* \"#utility.yul\":6722:6730   */\n  dup2\n    /* \"#utility.yul\":6718:6762   */\n  add\n    /* \"#utility.yul\":6915:6917   */\n  0x20\n    /* \"#utility.yul\":6903:6913   */\n  dup6\n    /* \"#utility.yul\":6900:6918   */\n  lt\n    /* \"#utility.yul\":6897:6946   */\n  iszero\n  tag_134\n  jumpi\n    /* \"#utility.yul\":6936:6944   */\n  dup2\n    /* \"#utility.yul\":6921:6944   */\n  swap1\n  pop\n    /* \"#utility.yul\":6897:6946   */\ntag_134:\n    /* \"#utility.yul\":6959:7039   */\n  tag_135\n    /* \"#utility.yul\":7015:7037   */\n  tag_136\n    /* \"#utility.yul\":7033:7036   */\n  dup6\n    /* \"#utility.yul\":7015:7037   */\n  tag_37\n  jump\t// in\ntag_136:\n    /* \"#utility.yul\":7005:7013   */\n  dup4\n    /* \"#utility.yul\":7001:7038   */\n  add\n    /* \"#utility.yul\":6988:6999   */\n  dup3\n    /* \"#utility.yul\":6959:7039   */\n  tag_46\n  jump\t// in\ntag_135:\n    /* \"#utility.yul\":6618:7049   */\n  pop\n  pop\n    /* \"#utility.yul\":6603:7049   */\ntag_131:\n    /* \"#utility.yul\":6513:7056   */\n  pop\n  pop\n  pop\n  jump\t// out\n    /* \"#utility.yul\":7062:7179   */\ntag_48:\n    /* \"#utility.yul\":7116:7124   */\n  0x00\n    /* \"#utility.yul\":7166:7171   */\n  dup3\n    /* \"#utility.yul\":7160:7164   */\n  dup3\n    /* \"#utility.yul\":7156:7172   */\n  shr\n    /* \"#utility.yul\":7135:7172   */\n  swap1\n  pop\n    /* \"#utility.yul\":7062:7179   */\n  swap3\n  swap2\n  pop\n  pop\n  jump\t// out\n    /* \"#utility.yul\":7185:7354   */\ntag_49:\n    /* \"#utility.yul\":7229:7235   */\n  0x00\n    /* \"#utility.yul\":7262:7313   */\n  tag_139\n    /* \"#utility.yul\":7310:7311   */\n  0x00\n    /* \"#utility.yul\":7306:7312   */\n  not\n    /* \"#utility.yul\":7298:7303   */\n  dup5\n    /* \"#utility.yul\":7295:7296   */\n  0x08\n    /* \"#utility.yul\":7291:7304   */\n  mul\n    /* \"#utility.yul\":7262:7313   */\n  tag_48\n  jump\t// in\ntag_139:\n    /* \"#utility.yul\":7258:7314   */\n  not\n    /* \"#utility.yul\":7343:7347   */\n  dup1\n    /* \"#utility.yul\":7337:7341   */\n  dup4\n    /* \"#utility.yul\":7333:7348   */\n  and\n    /* \"#utility.yul\":7323:7348   */\n  swap2\n  pop\n    /* \"#utility.yul\":7236:7354   */\n  pop\n    /* \"#utility.yul\":7185:7354   */\n  swap3\n  swap2\n  pop\n  pop\n  jump\t// out\n    /* \"#utility.yul\":7359:7654   */\ntag_50:\n    /* \"#utility.yul\":7435:7439   */\n  0x00\n    /* \"#utility.yul\":7581:7610   */\n  tag_141\n    /* \"#utility.yul\":7606:7609   */\n  dup4\n    /* \"#utility.yul\":7600:7604   */\n  dup4\n    /* \"#utility.yul\":7581:7610   */\n  tag_49\n  jump\t// in\ntag_141:\n    /* \"#utility.yul\":7573:7610   */\n  swap2\n  pop\n    /* \"#utility.yul\":7643:7646   */\n  dup3\n    /* \"#utility.yul\":7640:7641   */\n  0x02\n    /* \"#utility.yul\":7636:7647   */\n  mul\n    /* \"#utility.yul\":7630:7634   */\n  dup3\n    /* \"#utility.yul\":7627:7648   */\n  or\n    /* \"#utility.yul\":7619:7648   */\n  swap1\n  pop\n    /* \"#utility.yul\":7359:7654   */\n  swap3\n  swap2\n  pop\n  pop\n  jump\t// out\n    /* \"#utility.yul\":7659:9054   */\ntag_7:\n    /* \"#utility.yul\":7776:7813   */\n  tag_143\n    /* \"#utility.yul\":7809:7812   */\n  dup3\n    /* \"#utility.yul\":7776:7813   */\n  tag_33\n  jump\t// in\ntag_143:\n    /* \"#utility.yul\":7878:7896   */\n  0xffffffffffffffff\n    /* \"#utility.yul\":7870:7876   */\n  dup2\n    /* \"#utility.yul\":7867:7897   */\n  gt\n    /* \"#utility.yul\":7864:7920   */\n  iszero\n  tag_144\n  jumpi\n    /* \"#utility.yul\":7900:7918   */\n  tag_145\n  tag_23\n  jump\t// in\ntag_145:\n    /* \"#utility.yul\":7864:7920   */\ntag_144:\n    /* \"#utility.yul\":7944:7982   */\n  tag_146\n    /* \"#utility.yul\":7976:7980   */\n  dup3\n    /* \"#utility.yul\":7970:7981   */\n  sload\n    /* \"#utility.yul\":7944:7982   */\n  tag_35\n  jump\t// in\ntag_146:\n    /* \"#utility.yul\":8029:8096   */\n  tag_147\n    /* \"#utility.yul\":8089:8095   */\n  dup3\n    /* \"#utility.yul\":8081:8087   */\n  dup3\n    /* \"#utility.yul\":8075:8079   */\n  dup6\n    /* \"#utility.yul\":8029:8096   */\n  tag_47\n  jump\t// in\ntag_147:\n    /* \"#utility.yul\":8123:8124   */\n  0x00\n    /* \"#utility.yul\":8147:8151   */\n  0x20\n    /* \"#utility.yul\":8134:8151   */\n  swap1\n  pop\n    /* \"#utility.yul\":8179:8181   */\n  0x1f\n    /* \"#utility.yul\":8171:8177   */\n  dup4\n    /* \"#utility.yul\":8168:8182   */\n  gt\n    /* \"#utility.yul\":8196:8197   */\n  0x01\n    /* \"#utility.yul\":8191:8809   */\n  dup2\n  eq\n  tag_149\n  jumpi\n    /* \"#utility.yul\":8853:8854   */\n  0x00\n    /* \"#utility.yul\":8870:8876   */\n  dup5\n    /* \"#utility.yul\":8867:8944   */\n  iszero\n  tag_150\n  jumpi\n    /* \"#utility.yul\":8919:8928   */\n  dup3\n    /* \"#utility.yul\":8914:8917   */\n  dup8\n    /* \"#utility.yul\":8910:8929   */\n  add\n    /* \"#utility.yul\":8904:8930   */\n  mload\n    /* \"#utility.yul\":8895:8930   */\n  swap1\n  pop\n    /* \"#utility.yul\":8867:8944   */\ntag_150:\n    /* \"#utility.yul\":8970:9037   */\n  tag_151\n    /* \"#utility.yul\":9030:9036   */\n  dup6\n    /* \"#utility.yul\":9023:9028   */\n  dup3\n    /* \"#utility.yul\":8970:9037   */\n  tag_50\n  jump\t// in\ntag_151:\n    /* \"#utility.yul\":8964:8968   */\n  dup7\n    /* \"#utility.yul\":8957:9038   */\n  sstore\n    /* \"#utility.yul\":8826:9048   */\n  pop\n    /* \"#utility.yul\":8161:9048   */\n  jump(tag_148)\n    /* \"#utility.yul\":8191:8809   */\ntag_149:\n    /* \"#utility.yul\":8243:8247   */\n  0x1f\n    /* \"#utility.yul\":8239:8248   */\n  not\n    /* \"#utility.yul\":8231:8237   */\n  dup5\n    /* \"#utility.yul\":8227:8249   */\n  and\n    /* \"#utility.yul\":8277:8314   */\n  tag_152\n    /* \"#utility.yul\":8309:8313   */\n  dup7\n    /* \"#utility.yul\":8277:8314   */\n  tag_36\n  jump\t// in\ntag_152:\n    /* \"#utility.yul\":8336:8337   */\n  0x00\n    /* \"#utility.yul\":8350:8558   */\ntag_153:\n    /* \"#utility.yul\":8364:8371   */\n  dup3\n    /* \"#utility.yul\":8361:8362   */\n  dup2\n    /* \"#utility.yul\":8358:8372   */\n  lt\n    /* \"#utility.yul\":8350:8558   */\n  iszero\n  tag_155\n  jumpi\n    /* \"#utility.yul\":8443:8452   */\n  dup5\n    /* \"#utility.yul\":8438:8441   */\n  dup10\n    /* \"#utility.yul\":8434:8453   */\n  add\n    /* \"#utility.yul\":8428:8454   */\n  mload\n    /* \"#utility.yul\":8420:8426   */\n  dup3\n    /* \"#utility.yul\":8413:8455   */\n  sstore\n    /* \"#utility.yul\":8494:8495   */\n  0x01\n    /* \"#utility.yul\":8486:8492   */\n  dup3\n    /* \"#utility.yul\":8482:8496   */\n  add\n    /* \"#utility.yul\":8472:8496   */\n  swap2\n  pop\n    /* \"#utility.yul\":8541:8543   */\n  0x20\n    /* \"#utility.yul\":8530:8539   */\n  dup6\n    /* \"#utility.yul\":8526:8544   */\n  add\n    /* \"#utility.yul\":8513:8544   */\n  swap5\n  pop\n    /* \"#utility.yul\":8387:8391   */\n  0x20\n    /* \"#utility.yul\":8384:8385   */\n  dup2\n    /* \"#utility.yul\":8380:8392   */\n  add\n    /* \"#utility.yul\":8375:8392   */\n  swap1\n  pop\n    /* \"#utility.yul\":8350:8558   */\n  jump(tag_153)\ntag_155:\n    /* \"#utility.yul\":8586:8592   */\n  dup7\n    /* \"#utility.yul\":8577:8584   */\n  dup4\n    /* \"#utility.yul\":8574:8593   */\n  lt\n    /* \"#utility.yul\":8571:8750   */\n  iszero\n  tag_156\n  jumpi\n    /* \"#utility.yul\":8644:8653   */\n  dup5\n    /* \"#utility.yul\":8639:8642   */\n  dup10\n    /* \"#utility.yul\":8635:8654   */\n  add\n    /* \"#utility.yul\":8629:8655   */\n  mload\n    /* \"#utility.yul\":8687:8735   */\n  tag_157\n    /* \"#utility.yul\":8729:8733   */\n  0x1f\n    /* \"#utility.yul\":8721:8727   */\n  dup10\n    /* \"#utility.yul\":8717:8734   */\n  and\n    /* \"#utility.yul\":8706:8715   */\n  dup3\n    /* \"#utility.yul\":8687:8735   */\n  tag_49\n  jump\t// in\ntag_157:\n    /* \"#utility.yul\":8679:8685   */\n  dup4\n    /* \"#utility.yul\":8672:8736   */\n  sstore\n    /* \"#utility.yul\":8594:8750   */\n  pop\n    /* \"#utility.yul\":8571:8750   */\ntag_156:\n    /* \"#utility.yul\":8796:8797   */\n  0x01\n    /* \"#utility.yul\":8792:8793   */\n  0x02\n    /* \"#utility.yul\":8784:8790   */\n  dup9\n    /* \"#utility.yul\":8780:8794   */\n  mul\n    /* \"#utility.yul\":8776:8798   */\n  add\n    /* \"#utility.yul\":8770:8774   */\n  dup9\n    /* \"#utility.yul\":8763:8799   */\n  sstore\n    /* \"#utility.yul\":8198:8809   */\n  pop\n  pop\n  pop\n    /* \"#utility.yul\":8161:9048   */\ntag_148:\n  pop\n    /* \"#utility.yul\":7751:9054   */\n  pop\n  pop\n  pop\n    /* \"#utility.yul\":7659:9054   */\n  pop\n  pop\n  jump\t// out\n    /* \"#utility.yul\":9060:9240   */\ntag_51:\n    /* \"#utility.yul\":9108:9185   */\n  0x4e487b7100000000000000000000000000000000000000000000000000000000\n    /* \"#utility.yul\":9105:9106   */\n  0x00\n    /* \"#utility.yul\":9098:9186   */\n  mstore\n    /* \"#utility.yul\":9205:9209   */\n  0x11\n    /* \"#utility.yul\":9202:9203   */\n  0x04\n    /* \"#utility.yul\":9195:9210   */\n  mstore\n    /* \"#utility.yul\":9229:9233   */\n  0x24\n    /* \"#utility.yul\":9226:9227   */\n  0x00\n    /* \"#utility.yul\":9219:9234   */\n  revert\n    /* \"#utility.yul\":9246:9656   */\ntag_10:\n    /* \"#utility.yul\":9286:9293   */\n  0x00\n    /* \"#utility.yul\":9309:9329   */\n  tag_160\n    /* \"#utility.yul\":9327:9328   */\n  dup3\n    /* \"#utility.yul\":9309:9329   */\n  tag_30\n  jump\t// in\ntag_160:\n    /* \"#utility.yul\":9304:9329   */\n  swap2\n  pop\n    /* \"#utility.yul\":9343:9363   */\n  tag_161\n    /* \"#utility.yul\":9361:9362   */\n  dup4\n    /* \"#utility.yul\":9343:9363   */\n  tag_30\n  jump\t// in\ntag_161:\n    /* \"#utility.yul\":9338:9363   */\n  swap3\n  pop\n    /* \"#utility.yul\":9398:9399   */\n  dup3\n    /* \"#utility.yul\":9395:9396   */\n  dup3\n    /* \"#utility.yul\":9391:9400   */\n  mul\n    /* \"#utility.yul\":9420:9450   */\n  tag_162\n    /* \"#utility.yul\":9438:9449   */\n  dup2\n    /* \"#utility.yul\":9420:9450   */\n  tag_30\n  jump\t// in\ntag_162:\n    /* \"#utility.yul\":9409:9450   */\n  swap2\n  pop\n    /* \"#utility.yul\":9599:9600   */\n  dup3\n    /* \"#utility.yul\":9590:9597   */\n  dup3\n    /* \"#utility.yul\":9586:9601   */\n  div\n    /* \"#utility.yul\":9583:9584   */\n  dup5\n    /* \"#utility.yul\":9580:9602   */\n  eq\n    /* \"#utility.yul\":9560:9561   */\n  dup4\n    /* \"#utility.yul\":9553:9562   */\n  iszero\n    /* \"#utility.yul\":9533:9616   */\n  or\n    /* \"#utility.yul\":9510:9649   */\n  tag_163\n  jumpi\n    /* \"#utility.yul\":9629:9647   */\n  tag_164\n  tag_51\n  jump\t// in\ntag_164:\n    /* \"#utility.yul\":9510:9649   */\ntag_163:\n    /* \"#utility.yul\":9294:9656   */\n  pop\n    /* \"#utility.yul\":9246:9656   */\n  swap3\n  swap2\n  pop\n  pop\n  jump\t// out\n    /* \"#utility.yul\":9662:9853   */\ntag_12:\n    /* \"#utility.yul\":9702:9705   */\n  0x00\n    /* \"#utility.yul\":9721:9741   */\n  tag_166\n    /* \"#utility.yul\":9739:9740   */\n  dup3\n    /* \"#utility.yul\":9721:9741   */\n  tag_30\n  jump\t// in\ntag_166:\n    /* \"#utility.yul\":9716:9741   */\n  swap2\n  pop\n    /* \"#utility.yul\":9755:9775   */\n  tag_167\n    /* \"#utility.yul\":9773:9774   */\n  dup4\n    /* \"#utility.yul\":9755:9775   */\n  tag_30\n  jump\t// in\ntag_167:\n    /* \"#utility.yul\":9750:9775   */\n  swap3\n  pop\n    /* \"#utility.yul\":9798:9799   */\n  dup3\n    /* \"#utility.yul\":9795:9796   */\n  dup3\n    /* \"#utility.yul\":9791:9800   */\n  add\n    /* \"#utility.yul\":9784:9800   */\n  swap1\n  pop\n    /* \"#utility.yul\":9819:9822   */\n  dup1\n    /* \"#utility.yul\":9816:9817   */\n  dup3\n    /* \"#utility.yul\":9813:9823   */\n  gt\n    /* \"#utility.yul\":9810:9846   */\n  iszero\n  tag_168\n  jumpi\n    /* \"#utility.yul\":9826:9844   */\n  tag_169\n  tag_51\n  jump\t// in\ntag_169:\n    /* \"#utility.yul\":9810:9846   */\ntag_168:\n    /* \"#utility.yul\":9662:9853   */\n  swap3\n  swap2\n  pop\n  pop\n  jump\t// out\n    /* \"#utility.yul\":9859:10039   */\ntag_15:\n    /* \"#utility.yul\":9907:9984   */\n  0x4e487b7100000000000000000000000000000000000000000000000000000000\n    /* \"#utility.yul\":9904:9905   */\n  0x00\n    /* \"#utility.yul\":9897:9985   */\n  mstore\n    /* \"#utility.yul\":10004:10008   */\n  0x21\n    /* \"#utility.yul\":10001:10002   */\n  0x04\n    /* \"#utility.yul\":9994:10009   */\n  mstore\n    /* \"#utility.yul\":10028:10032   */\n  0x24\n    /* \"#utility.yul\":10025:10026   */\n  0x00\n    /* \"#utility.yul\":10018:10033   */\n  revert\n    /* \"contracts/Crowdfunding.sol\":57:4920  contract Crowdfunding {... */\ntag_16:\n  dataSize(sub_0)\n  dup1\n  dataOffset(sub_0)\n  0x00\n  codecopy\n  0x00\n  return\nstop\n\nsub_0: assembly {\n        /* \"contracts/Crowdfunding.sol\":57:4920  contract Crowdfunding {... */\n      mstore(0x40, 0x80)\n      jumpi(tag_1, lt(calldatasize, 0x04))\n      shr(0xe0, calldataload(0x00))\n      dup1\n      0x7284e416\n      gt\n      tag_22\n      jumpi\n      dup1\n      0xb85dfb80\n      gt\n      tag_23\n      jumpi\n      dup1\n      0xb85dfb80\n      eq\n      tag_17\n      jumpi\n      dup1\n      0xc19d93fb\n      eq\n      tag_18\n      jumpi\n      dup1\n      0xca1d209d\n      eq\n      tag_19\n      jumpi\n      dup1\n      0xd621a776\n      eq\n      tag_20\n      jumpi\n      dup1\n      0xde170570\n      eq\n      tag_21\n      jumpi\n      jump(tag_1)\n    tag_23:\n      dup1\n      0x7284e416\n      eq\n      tag_12\n      jumpi\n      dup1\n      0x7497211b\n      eq\n      tag_13\n      jumpi\n      dup1\n      0x7adba527\n      eq\n      tag_14\n      jumpi\n      dup1\n      0x8da5cb5b\n      eq\n      tag_15\n      jumpi\n      dup1\n      0x8ece7b91\n      eq\n      tag_16\n      jumpi\n      jump(tag_1)\n    tag_22:\n      dup1\n      0x3ccfd60b\n      gt\n      tag_24\n      jumpi\n      dup1\n      0x3ccfd60b\n      eq\n      tag_7\n      jumpi\n      dup1\n      0x40193883\n      eq\n      tag_8\n      jumpi\n      dup1\n      0x590e1ae3\n      eq\n      tag_9\n      jumpi\n      dup1\n      0x5c975abb\n      eq\n      tag_10\n      jumpi\n      dup1\n      0x6f9fb98a\n      eq\n      tag_11\n      jumpi\n      jump(tag_1)\n    tag_24:\n      dup1\n      0x039af9eb\n      eq\n      tag_2\n      jumpi\n      dup1\n      0x06fdde03\n      eq\n      tag_3\n      jumpi\n      dup1\n      0x10550515\n      eq\n      tag_4\n      jumpi\n      dup1\n      0x29dcb0cf\n      eq\n      tag_5\n      jumpi\n      dup1\n      0x389b7533\n      eq\n      tag_6\n      jumpi\n    tag_1:\n      0x00\n      dup1\n      revert\n        /* \"contracts/Crowdfunding.sol\":637:656  Tier[] public tiers */\n    tag_2:\n      callvalue\n      dup1\n      iszero\n      tag_25\n      jumpi\n      0x00\n      dup1\n      revert\n    tag_25:\n      pop\n      tag_26\n      0x04\n      dup1\n      calldatasize\n      sub\n      dup2\n      add\n      swap1\n      tag_27\n      swap2\n      swap1\n      tag_28\n      jump\t// in\n    tag_27:\n      tag_29\n      jump\t// in\n    tag_26:\n      mload(0x40)\n      tag_30\n      swap4\n      swap3\n      swap2\n      swap1\n      tag_31\n      jump\t// in\n    tag_30:\n      mload(0x40)\n      dup1\n      swap2\n      sub\n      swap1\n      return\n        /* \"contracts/Crowdfunding.sol\":85:103  string public name */\n    tag_3:\n      callvalue\n      dup1\n      iszero\n      tag_32\n      jumpi\n      0x00\n      dup1\n      revert\n    tag_32:\n      pop\n      tag_33\n      tag_34\n      jump\t// in\n    tag_33:\n      mload(0x40)\n      tag_35\n      swap2\n      swap1\n      tag_36\n      jump\t// in\n    tag_35:\n      mload(0x40)\n      dup1\n      swap2\n      sub\n      swap1\n      return\n        /* \"contracts/Crowdfunding.sol\":4511:4786  function getCampaignStatus() public view returns (CampaignState){... */\n    tag_4:\n      callvalue\n      dup1\n      iszero\n      tag_37\n      jumpi\n      0x00\n      dup1\n      revert\n    tag_37:\n      pop\n      tag_38\n      tag_39\n      jump\t// in\n    tag_38:\n      mload(0x40)\n      tag_40\n      swap2\n      swap1\n      tag_41\n      jump\t// in\n    tag_40:\n      mload(0x40)\n      dup1\n      swap2\n      sub\n      swap1\n      return\n        /* \"contracts/Crowdfunding.sol\":166:189  uint256 public deadline */\n    tag_5:\n      callvalue\n      dup1\n      iszero\n      tag_42\n      jumpi\n      0x00\n      dup1\n      revert\n    tag_42:\n      pop\n      tag_43\n      tag_44\n      jump\t// in\n    tag_43:\n      mload(0x40)\n      tag_45\n      swap2\n      swap1\n      tag_46\n      jump\t// in\n    tag_45:\n      mload(0x40)\n      dup1\n      swap2\n      sub\n      swap1\n      return\n        /* \"contracts/Crowdfunding.sol\":4792:4918  function extendDeadline(uint256 _daysToAdd) public onlyOwner isCampaignActive {... */\n    tag_6:\n      callvalue\n      dup1\n      iszero\n      tag_47\n      jumpi\n      0x00\n      dup1\n      revert\n    tag_47:\n      pop\n      tag_48\n      0x04\n      dup1\n      calldatasize\n      sub\n      dup2\n      add\n      swap1\n      tag_49\n      swap2\n      swap1\n      tag_28\n      jump\t// in\n    tag_49:\n      tag_50\n      jump\t// in\n    tag_48:\n      stop\n        /* \"contracts/Crowdfunding.sol\":3284:3617  function withdraw() public onlyOwner CampaignShouldSuccess {... */\n    tag_7:\n      callvalue\n      dup1\n      iszero\n      tag_51\n      jumpi\n      0x00\n      dup1\n      revert\n    tag_51:\n      pop\n      tag_52\n      tag_53\n      jump\t// in\n    tag_52:\n      stop\n        /* \"contracts/Crowdfunding.sol\":141:160  uint256 public goal */\n    tag_8:\n      callvalue\n      dup1\n      iszero\n      tag_54\n      jumpi\n      0x00\n      dup1\n      revert\n    tag_54:\n      pop\n      tag_55\n      tag_56\n      jump\t// in\n    tag_55:\n      mload(0x40)\n      tag_57\n      swap2\n      swap1\n      tag_46\n      jump\t// in\n    tag_57:\n      mload(0x40)\n      dup1\n      swap2\n      sub\n      swap1\n      return\n        /* \"contracts/Crowdfunding.sol\":3733:4178  function refund() public {... */\n    tag_9:\n      callvalue\n      dup1\n      iszero\n      tag_58\n      jumpi\n      0x00\n      dup1\n      revert\n    tag_58:\n      pop\n      tag_59\n      tag_60\n      jump\t// in\n    tag_59:\n      stop\n        /* \"contracts/Crowdfunding.sol\":221:239  bool public paused */\n    tag_10:\n      callvalue\n      dup1\n      iszero\n      tag_61\n      jumpi\n      0x00\n      dup1\n      revert\n    tag_61:\n      pop\n      tag_62\n      tag_63\n      jump\t// in\n    tag_62:\n      mload(0x40)\n      tag_64\n      swap2\n      swap1\n      tag_65\n      jump\t// in\n    tag_64:\n      mload(0x40)\n      dup1\n      swap2\n      sub\n      swap1\n      return\n        /* \"contracts/Crowdfunding.sol\":3623:3727  function getContractBalance() public view returns(uint256) {... */\n    tag_11:\n      callvalue\n      dup1\n      iszero\n      tag_66\n      jumpi\n      0x00\n      dup1\n      revert\n    tag_66:\n      pop\n      tag_67\n      tag_68\n      jump\t// in\n    tag_67:\n      mload(0x40)\n      tag_69\n      swap2\n      swap1\n      tag_46\n      jump\t// in\n    tag_69:\n      mload(0x40)\n      dup1\n      swap2\n      sub\n      swap1\n      return\n        /* \"contracts/Crowdfunding.sol\":110:135  string public description */\n    tag_12:\n      callvalue\n      dup1\n      iszero\n      tag_70\n      jumpi\n      0x00\n      dup1\n      revert\n    tag_70:\n      pop\n      tag_71\n      tag_72\n      jump\t// in\n    tag_71:\n      mload(0x40)\n      tag_73\n      swap2\n      swap1\n      tag_36\n      jump\t// in\n    tag_73:\n      mload(0x40)\n      dup1\n      swap2\n      sub\n      swap1\n      return\n        /* \"contracts/Crowdfunding.sol\":3087:3278  function removeTier(uint256 _index) public onlyOwner{... */\n    tag_13:\n      callvalue\n      dup1\n      iszero\n      tag_74\n      jumpi\n      0x00\n      dup1\n      revert\n    tag_74:\n      pop\n      tag_75\n      0x04\n      dup1\n      calldatasize\n      sub\n      dup2\n      add\n      swap1\n      tag_76\n      swap2\n      swap1\n      tag_28\n      jump\t// in\n    tag_76:\n      tag_77\n      jump\t// in\n    tag_75:\n      stop\n        /* \"contracts/Crowdfunding.sol\":4185:4336  function hasFundedTier(address _backer, uint256 _tierIndex) public view returns (bool) {... */\n    tag_14:\n      callvalue\n      dup1\n      iszero\n      tag_78\n      jumpi\n      0x00\n      dup1\n      revert\n    tag_78:\n      pop\n      tag_79\n      0x04\n      dup1\n      calldatasize\n      sub\n      dup2\n      add\n      swap1\n      tag_80\n      swap2\n      swap1\n      tag_81\n      jump\t// in\n    tag_80:\n      tag_82\n      jump\t// in\n    tag_79:\n      mload(0x40)\n      tag_83\n      swap2\n      swap1\n      tag_65\n      jump\t// in\n    tag_83:\n      mload(0x40)\n      dup1\n      swap2\n      sub\n      swap1\n      return\n        /* \"contracts/Crowdfunding.sol\":195:215  address public owner */\n    tag_15:\n      callvalue\n      dup1\n      iszero\n      tag_84\n      jumpi\n      0x00\n      dup1\n      revert\n    tag_84:\n      pop\n      tag_85\n      tag_86\n      jump\t// in\n    tag_85:\n      mload(0x40)\n      tag_87\n      swap2\n      swap1\n      tag_88\n      jump\t// in\n    tag_87:\n      mload(0x40)\n      dup1\n      swap2\n      sub\n      swap1\n      return\n        /* \"contracts/Crowdfunding.sol\":2872:3081  function addTier(... */\n    tag_16:\n      callvalue\n      dup1\n      iszero\n      tag_89\n      jumpi\n      0x00\n      dup1\n      revert\n    tag_89:\n      pop\n      tag_90\n      0x04\n      dup1\n      calldatasize\n      sub\n      dup2\n      add\n      swap1\n      tag_91\n      swap2\n      swap1\n      tag_92\n      jump\t// in\n    tag_91:\n      tag_93\n      jump\t// in\n    tag_90:\n      stop\n        /* \"contracts/Crowdfunding.sol\":662:703  mapping(address => Backer) public backers */\n    tag_17:\n      callvalue\n      dup1\n      iszero\n      tag_94\n      jumpi\n      0x00\n      dup1\n      revert\n    tag_94:\n      pop\n      tag_95\n      0x04\n      dup1\n      calldatasize\n      sub\n      dup2\n      add\n      swap1\n      tag_96\n      swap2\n      swap1\n      tag_97\n      jump\t// in\n    tag_96:\n      tag_98\n      jump\t// in\n    tag_95:\n      mload(0x40)\n      tag_99\n      swap2\n      swap1\n      tag_46\n      jump\t// in\n    tag_99:\n      mload(0x40)\n      dup1\n      swap2\n      sub\n      swap1\n      return\n        /* \"contracts/Crowdfunding.sol\":296:322  CampaignState public state */\n    tag_18:\n      callvalue\n      dup1\n      iszero\n      tag_100\n      jumpi\n      0x00\n      dup1\n      revert\n    tag_100:\n      pop\n      tag_101\n      tag_102\n      jump\t// in\n    tag_101:\n      mload(0x40)\n      tag_103\n      swap2\n      swap1\n      tag_41\n      jump\t// in\n    tag_103:\n      mload(0x40)\n      dup1\n      swap2\n      sub\n      swap1\n      return\n        /* \"contracts/Crowdfunding.sol\":2133:2866  function fund(uint256 _tierIndex) public payable isCampaignActive notPaused {... */\n    tag_19:\n      tag_104\n      0x04\n      dup1\n      calldatasize\n      sub\n      dup2\n      add\n      swap1\n      tag_105\n      swap2\n      swap1\n      tag_28\n      jump\t// in\n    tag_105:\n      tag_106\n      jump\t// in\n    tag_104:\n      stop\n        /* \"contracts/Crowdfunding.sol\":4432:4505  function tooglePause() public onlyOwner {... */\n    tag_20:\n      callvalue\n      dup1\n      iszero\n      tag_107\n      jumpi\n      0x00\n      dup1\n      revert\n    tag_107:\n      pop\n      tag_108\n      tag_109\n      jump\t// in\n    tag_108:\n      stop\n        /* \"contracts/Crowdfunding.sol\":4342:4426  function getTiers() public view returns (Tier[] memory){... */\n    tag_21:\n      callvalue\n      dup1\n      iszero\n      tag_110\n      jumpi\n      0x00\n      dup1\n      revert\n    tag_110:\n      pop\n      tag_111\n      tag_112\n      jump\t// in\n    tag_111:\n      mload(0x40)\n      tag_113\n      swap2\n      swap1\n      tag_114\n      jump\t// in\n    tag_113:\n      mload(0x40)\n      dup1\n      swap2\n      sub\n      swap1\n      return\n        /* \"contracts/Crowdfunding.sol\":637:656  Tier[] public tiers */\n    tag_29:\n      0x05\n      dup2\n      dup2\n      sload\n      dup2\n      lt\n      tag_115\n      jumpi\n      0x00\n      dup1\n      revert\n    tag_115:\n      swap1\n      0x00\n      mstore\n      keccak256(0x00, 0x20)\n      swap1\n      0x03\n      mul\n      add\n      0x00\n      swap2\n      pop\n      swap1\n      pop\n      dup1\n      0x00\n      add\n      dup1\n      sload\n      tag_117\n      swap1\n      tag_118\n      jump\t// in\n    tag_117:\n      dup1\n      0x1f\n      add\n      0x20\n      dup1\n      swap2\n      div\n      mul\n      0x20\n      add\n      mload(0x40)\n      swap1\n      dup2\n      add\n      0x40\n      mstore\n      dup1\n      swap3\n      swap2\n      swap1\n      dup2\n      dup2\n      mstore\n      0x20\n      add\n      dup3\n      dup1\n      sload\n      tag_119\n      swap1\n      tag_118\n      jump\t// in\n    tag_119:\n      dup1\n      iszero\n      tag_120\n      jumpi\n      dup1\n      0x1f\n      lt\n      tag_121\n      jumpi\n      0x0100\n      dup1\n      dup4\n      sload\n      div\n      mul\n      dup4\n      mstore\n      swap2\n      0x20\n      add\n      swap2\n      jump(tag_120)\n    tag_121:\n      dup3\n      add\n      swap2\n      swap1\n      0x00\n      mstore\n      keccak256(0x00, 0x20)\n      swap1\n    tag_122:\n      dup2\n      sload\n      dup2\n      mstore\n      swap1\n      0x01\n      add\n      swap1\n      0x20\n      add\n      dup1\n      dup4\n      gt\n      tag_122\n      jumpi\n      dup3\n      swap1\n      sub\n      0x1f\n      and\n      dup3\n      add\n      swap2\n    tag_120:\n      pop\n      pop\n      pop\n      pop\n      pop\n      swap1\n      dup1\n      0x01\n      add\n      sload\n      swap1\n      dup1\n      0x02\n      add\n      sload\n      swap1\n      pop\n      dup4\n      jump\t// out\n        /* \"contracts/Crowdfunding.sol\":85:103  string public name */\n    tag_34:\n      0x00\n      dup1\n      sload\n      tag_123\n      swap1\n      tag_118\n      jump\t// in\n    tag_123:\n      dup1\n      0x1f\n      add\n      0x20\n      dup1\n      swap2\n      div\n      mul\n      0x20\n      add\n      mload(0x40)\n      swap1\n      dup2\n      add\n      0x40\n      mstore\n      dup1\n      swap3\n      swap2\n      swap1\n      dup2\n      dup2\n      mstore\n      0x20\n      add\n      dup3\n      dup1\n      sload\n      tag_124\n      swap1\n      tag_118\n      jump\t// in\n    tag_124:\n      dup1\n      iszero\n      tag_125\n      jumpi\n      dup1\n      0x1f\n      lt\n      tag_126\n      jumpi\n      0x0100\n      dup1\n      dup4\n      sload\n      div\n      mul\n      dup4\n      mstore\n      swap2\n      0x20\n      add\n      swap2\n      jump(tag_125)\n    tag_126:\n      dup3\n      add\n      swap2\n      swap1\n      0x00\n      mstore\n      keccak256(0x00, 0x20)\n      swap1\n    tag_127:\n      dup2\n      sload\n      dup2\n      mstore\n      swap1\n      0x01\n      add\n      swap1\n      0x20\n      add\n      dup1\n      dup4\n      gt\n      tag_127\n      jumpi\n      dup3\n      swap1\n      sub\n      0x1f\n      and\n      dup3\n      add\n      swap2\n    tag_125:\n      pop\n      pop\n      pop\n      pop\n      pop\n      dup2\n      jump\t// out\n        /* \"contracts/Crowdfunding.sol\":4511:4786  function getCampaignStatus() public view returns (CampaignState){... */\n    tag_39:\n        /* \"contracts/Crowdfunding.sol\":4561:4574  CampaignState */\n      0x00\n        /* \"contracts/Crowdfunding.sol\":4597:4617  CampaignState.Active */\n      dup1\n        /* \"contracts/Crowdfunding.sol\":4588:4617  state == CampaignState.Active */\n      0x02\n      dup2\n      gt\n      iszero\n      tag_129\n      jumpi\n      tag_130\n      tag_131\n      jump\t// in\n    tag_130:\n    tag_129:\n        /* \"contracts/Crowdfunding.sol\":4588:4593  state */\n      0x04\n      0x15\n      swap1\n      sload\n      swap1\n      0x0100\n      exp\n      swap1\n      div\n      0xff\n      and\n        /* \"contracts/Crowdfunding.sol\":4588:4617  state == CampaignState.Active */\n      0x02\n      dup2\n      gt\n      iszero\n      tag_132\n      jumpi\n      tag_133\n      tag_131\n      jump\t// in\n    tag_133:\n    tag_132:\n      eq\n        /* \"contracts/Crowdfunding.sol\":4588:4647  state == CampaignState.Active && block.timestamp > deadline */\n      dup1\n      iszero\n      tag_134\n      jumpi\n      pop\n        /* \"contracts/Crowdfunding.sol\":4639:4647  deadline */\n      sload(0x03)\n        /* \"contracts/Crowdfunding.sol\":4621:4636  block.timestamp */\n      timestamp\n        /* \"contracts/Crowdfunding.sol\":4621:4647  block.timestamp > deadline */\n      gt\n        /* \"contracts/Crowdfunding.sol\":4588:4647  state == CampaignState.Active && block.timestamp > deadline */\n    tag_134:\n        /* \"contracts/Crowdfunding.sol\":4585:4757  if(state == CampaignState.Active && block.timestamp > deadline ){... */\n      iszero\n      tag_135\n      jumpi\n        /* \"contracts/Crowdfunding.sol\":4695:4699  goal */\n      sload(0x02)\n        /* \"contracts/Crowdfunding.sol\":4670:4691  address(this).balance */\n      selfbalance\n        /* \"contracts/Crowdfunding.sol\":4670:4699  address(this).balance >= goal */\n      lt\n      iszero\n        /* \"contracts/Crowdfunding.sol\":4670:4746  address(this).balance >= goal ? CampaignState.Success : CampaignState.Failed */\n      tag_136\n      jumpi\n        /* \"contracts/Crowdfunding.sol\":4726:4746  CampaignState.Failed */\n      0x02\n        /* \"contracts/Crowdfunding.sol\":4670:4746  address(this).balance >= goal ? CampaignState.Success : CampaignState.Failed */\n      jump(tag_137)\n    tag_136:\n        /* \"contracts/Crowdfunding.sol\":4702:4723  CampaignState.Success */\n      0x01\n        /* \"contracts/Crowdfunding.sol\":4670:4746  address(this).balance >= goal ? CampaignState.Success : CampaignState.Failed */\n    tag_137:\n        /* \"contracts/Crowdfunding.sol\":4663:4746  return address(this).balance >= goal ? CampaignState.Success : CampaignState.Failed */\n      swap1\n      pop\n      jump(tag_128)\n        /* \"contracts/Crowdfunding.sol\":4585:4757  if(state == CampaignState.Active && block.timestamp > deadline ){... */\n    tag_135:\n        /* \"contracts/Crowdfunding.sol\":4774:4779  state */\n      0x04\n      0x15\n      swap1\n      sload\n      swap1\n      0x0100\n      exp\n      swap1\n      div\n      0xff\n      and\n        /* \"contracts/Crowdfunding.sol\":4767:4779  return state */\n      swap1\n      pop\n        /* \"contracts/Crowdfunding.sol\":4511:4786  function getCampaignStatus() public view returns (CampaignState){... */\n    tag_128:\n      swap1\n      jump\t// out\n        /* \"contracts/Crowdfunding.sol\":166:189  uint256 public deadline */\n    tag_44:\n      sload(0x03)\n      dup2\n      jump\t// out\n        /* \"contracts/Crowdfunding.sol\":4792:4918  function extendDeadline(uint256 _daysToAdd) public onlyOwner isCampaignActive {... */\n    tag_50:\n        /* \"contracts/Crowdfunding.sol\":789:794  owner */\n      0x04\n      0x00\n      swap1\n      sload\n      swap1\n      0x0100\n      exp\n      swap1\n      div\n      0xffffffffffffffffffffffffffffffffffffffff\n      and\n        /* \"contracts/Crowdfunding.sol\":775:794  msg.sender == owner */\n      0xffffffffffffffffffffffffffffffffffffffff\n      and\n        /* \"contracts/Crowdfunding.sol\":775:785  msg.sender */\n      caller\n        /* \"contracts/Crowdfunding.sol\":775:794  msg.sender == owner */\n      0xffffffffffffffffffffffffffffffffffffffff\n      and\n      eq\n        /* \"contracts/Crowdfunding.sol\":767:837  require(msg.sender == owner, \"You are not the owner of this contract\") */\n      tag_139\n      jumpi\n      mload(0x40)\n      0x08c379a000000000000000000000000000000000000000000000000000000000\n      dup2\n      mstore\n      0x04\n      add\n      tag_140\n      swap1\n      tag_141\n      jump\t// in\n    tag_140:\n      mload(0x40)\n      dup1\n      swap2\n      sub\n      swap1\n      revert\n    tag_139:\n        /* \"contracts/Crowdfunding.sol\":970:990  CampaignState.Active */\n      0x00\n        /* \"contracts/Crowdfunding.sol\":961:990  state == CampaignState.Active */\n      0x02\n      dup2\n      gt\n      iszero\n      tag_143\n      jumpi\n      tag_144\n      tag_131\n      jump\t// in\n    tag_144:\n    tag_143:\n        /* \"contracts/Crowdfunding.sol\":961:966  state */\n      0x04\n      0x15\n      swap1\n      sload\n      swap1\n      0x0100\n      exp\n      swap1\n      div\n      0xff\n      and\n        /* \"contracts/Crowdfunding.sol\":961:990  state == CampaignState.Active */\n      0x02\n      dup2\n      gt\n      iszero\n      tag_145\n      jumpi\n      tag_146\n      tag_131\n      jump\t// in\n    tag_146:\n    tag_145:\n      eq\n        /* \"contracts/Crowdfunding.sol\":953:1017  require(state == CampaignState.Active, \"Campaign is not active\") */\n      tag_147\n      jumpi\n      mload(0x40)\n      0x08c379a000000000000000000000000000000000000000000000000000000000\n      dup2\n      mstore\n      0x04\n      add\n      tag_148\n      swap1\n      tag_149\n      jump\t// in\n    tag_148:\n      mload(0x40)\n      dup1\n      swap2\n      sub\n      swap1\n      revert\n    tag_147:\n        /* \"contracts/Crowdfunding.sol\":4905:4911  1 days */\n      0x015180\n        /* \"contracts/Crowdfunding.sol\":4892:4902  _daysToAdd */\n      dup2\n        /* \"contracts/Crowdfunding.sol\":4892:4911  _daysToAdd * 1 days */\n      tag_151\n      swap2\n      swap1\n      tag_152\n      jump\t// in\n    tag_151:\n        /* \"contracts/Crowdfunding.sol\":4880:4888  deadline */\n      0x03\n      0x00\n        /* \"contracts/Crowdfunding.sol\":4880:4911  deadline += _daysToAdd * 1 days */\n      dup3\n      dup3\n      sload\n      tag_153\n      swap2\n      swap1\n      tag_154\n      jump\t// in\n    tag_153:\n      swap3\n      pop\n      pop\n      dup2\n      swap1\n      sstore\n      pop\n        /* \"contracts/Crowdfunding.sol\":4792:4918  function extendDeadline(uint256 _daysToAdd) public onlyOwner isCampaignActive {... */\n      pop\n      jump\t// out\n        /* \"contracts/Crowdfunding.sol\":3284:3617  function withdraw() public onlyOwner CampaignShouldSuccess {... */\n    tag_53:\n        /* \"contracts/Crowdfunding.sol\":789:794  owner */\n      0x04\n      0x00\n      swap1\n      sload\n      swap1\n      0x0100\n      exp\n      swap1\n      div\n      0xffffffffffffffffffffffffffffffffffffffff\n      and\n        /* \"contracts/Crowdfunding.sol\":775:794  msg.sender == owner */\n      0xffffffffffffffffffffffffffffffffffffffff\n      and\n        /* \"contracts/Crowdfunding.sol\":775:785  msg.sender */\n      caller\n        /* \"contracts/Crowdfunding.sol\":775:794  msg.sender == owner */\n      0xffffffffffffffffffffffffffffffffffffffff\n      and\n      eq\n        /* \"contracts/Crowdfunding.sol\":767:837  require(msg.sender == owner, \"You are not the owner of this contract\") */\n      tag_156\n      jumpi\n      mload(0x40)\n      0x08c379a000000000000000000000000000000000000000000000000000000000\n      dup2\n      mstore\n      0x04\n      add\n      tag_157\n      swap1\n      tag_141\n      jump\t// in\n    tag_157:\n      mload(0x40)\n      dup1\n      swap2\n      sub\n      swap1\n      revert\n    tag_156:\n        /* \"contracts/Crowdfunding.sol\":1101:1122  CampaignState.Success */\n      0x01\n        /* \"contracts/Crowdfunding.sol\":1092:1122  state == CampaignState.Success */\n      0x02\n      dup2\n      gt\n      iszero\n      tag_159\n      jumpi\n      tag_160\n      tag_131\n      jump\t// in\n    tag_160:\n    tag_159:\n        /* \"contracts/Crowdfunding.sol\":1092:1097  state */\n      0x04\n      0x15\n      swap1\n      sload\n      swap1\n      0x0100\n      exp\n      swap1\n      div\n      0xff\n      and\n        /* \"contracts/Crowdfunding.sol\":1092:1122  state == CampaignState.Success */\n      0x02\n      dup2\n      gt\n      iszero\n      tag_161\n      jumpi\n      tag_162\n      tag_131\n      jump\t// in\n    tag_162:\n    tag_161:\n      eq\n        /* \"contracts/Crowdfunding.sol\":1084:1150  require(state == CampaignState.Success, \"Campaign is not success\") */\n      tag_163\n      jumpi\n      mload(0x40)\n      0x08c379a000000000000000000000000000000000000000000000000000000000\n      dup2\n      mstore\n      0x04\n      add\n      tag_164\n      swap1\n      tag_165\n      jump\t// in\n    tag_164:\n      mload(0x40)\n      dup1\n      swap2\n      sub\n      swap1\n      revert\n    tag_163:\n        /* \"contracts/Crowdfunding.sol\":3433:3462  checkAndUpdateCampaignState() */\n      tag_167\n        /* \"contracts/Crowdfunding.sol\":3433:3460  checkAndUpdateCampaignState */\n      tag_168\n        /* \"contracts/Crowdfunding.sol\":3433:3462  checkAndUpdateCampaignState() */\n      jump\t// in\n    tag_167:\n        /* \"contracts/Crowdfunding.sol\":3473:3488  uint256 balance */\n      0x00\n        /* \"contracts/Crowdfunding.sol\":3491:3512  address(this).balance */\n      selfbalance\n        /* \"contracts/Crowdfunding.sol\":3473:3512  uint256 balance = address(this).balance */\n      swap1\n      pop\n        /* \"contracts/Crowdfunding.sol\":3540:3541  0 */\n      0x00\n        /* \"contracts/Crowdfunding.sol\":3530:3537  balance */\n      dup2\n        /* \"contracts/Crowdfunding.sol\":3530:3541  balance > 0 */\n      gt\n        /* \"contracts/Crowdfunding.sol\":3522:3568  require(balance > 0, \"No balance to withdraw\") */\n      tag_169\n      jumpi\n      mload(0x40)\n      0x08c379a000000000000000000000000000000000000000000000000000000000\n      dup2\n      mstore\n      0x04\n      add\n      tag_170\n      swap1\n      tag_171\n      jump\t// in\n    tag_170:\n      mload(0x40)\n      dup1\n      swap2\n      sub\n      swap1\n      revert\n    tag_169:\n        /* \"contracts/Crowdfunding.sol\":3586:3591  owner */\n      0x04\n      0x00\n      swap1\n      sload\n      swap1\n      0x0100\n      exp\n      swap1\n      div\n      0xffffffffffffffffffffffffffffffffffffffff\n      and\n        /* \"contracts/Crowdfunding.sol\":3578:3601  payable(owner).transfer */\n      0xffffffffffffffffffffffffffffffffffffffff\n      and\n        /* \"contracts/Crowdfunding.sol\":3578:3610  payable(owner).transfer(balance) */\n      0x08fc\n        /* \"contracts/Crowdfunding.sol\":3602:3609  balance */\n      dup3\n        /* \"contracts/Crowdfunding.sol\":3578:3610  payable(owner).transfer(balance) */\n      swap1\n      dup2\n      iszero\n      mul\n      swap1\n      mload(0x40)\n      0x00\n      mload(0x40)\n      dup1\n      dup4\n      sub\n      dup2\n      dup6\n      dup9\n      dup9\n      call\n      swap4\n      pop\n      pop\n      pop\n      pop\n      iszero\n      dup1\n      iszero\n      tag_173\n      jumpi\n      returndatasize\n      0x00\n      dup1\n      returndatacopy\n      revert(0x00, returndatasize)\n    tag_173:\n      pop\n        /* \"contracts/Crowdfunding.sol\":3343:3617  {... */\n      pop\n        /* \"contracts/Crowdfunding.sol\":3284:3617  function withdraw() public onlyOwner CampaignShouldSuccess {... */\n      jump\t// out\n        /* \"contracts/Crowdfunding.sol\":141:160  uint256 public goal */\n    tag_56:\n      sload(0x02)\n      dup2\n      jump\t// out\n        /* \"contracts/Crowdfunding.sol\":3733:4178  function refund() public {... */\n    tag_60:\n        /* \"contracts/Crowdfunding.sol\":3768:3797  checkAndUpdateCampaignState() */\n      tag_175\n        /* \"contracts/Crowdfunding.sol\":3768:3795  checkAndUpdateCampaignState */\n      tag_168\n        /* \"contracts/Crowdfunding.sol\":3768:3797  checkAndUpdateCampaignState() */\n      jump\t// in\n    tag_175:\n        /* \"contracts/Crowdfunding.sol\":3858:3878  CampaignState.Failed */\n      0x02\n        /* \"contracts/Crowdfunding.sol\":3849:3878  state == CampaignState.Failed */\n      dup1\n      dup2\n      gt\n      iszero\n      tag_176\n      jumpi\n      tag_177\n      tag_131\n      jump\t// in\n    tag_177:\n    tag_176:\n        /* \"contracts/Crowdfunding.sol\":3849:3854  state */\n      0x04\n      0x15\n      swap1\n      sload\n      swap1\n      0x0100\n      exp\n      swap1\n      div\n      0xff\n      and\n        /* \"contracts/Crowdfunding.sol\":3849:3878  state == CampaignState.Failed */\n      0x02\n      dup2\n      gt\n      iszero\n      tag_178\n      jumpi\n      tag_179\n      tag_131\n      jump\t// in\n    tag_179:\n    tag_178:\n      eq\n        /* \"contracts/Crowdfunding.sol\":3841:3902  require(state == CampaignState.Failed, \"Refund not eligible\") */\n      tag_180\n      jumpi\n      mload(0x40)\n      0x08c379a000000000000000000000000000000000000000000000000000000000\n      dup2\n      mstore\n      0x04\n      add\n      tag_181\n      swap1\n      tag_182\n      jump\t// in\n    tag_181:\n      mload(0x40)\n      dup1\n      swap2\n      sub\n      swap1\n      revert\n    tag_180:\n        /* \"contracts/Crowdfunding.sol\":3949:3963  uint256 amount */\n      0x00\n        /* \"contracts/Crowdfunding.sol\":3966:3973  backers */\n      0x06\n        /* \"contracts/Crowdfunding.sol\":3966:3985  backers[msg.sender] */\n      0x00\n        /* \"contracts/Crowdfunding.sol\":3974:3984  msg.sender */\n      caller\n        /* \"contracts/Crowdfunding.sol\":3966:3985  backers[msg.sender] */\n      0xffffffffffffffffffffffffffffffffffffffff\n      and\n      0xffffffffffffffffffffffffffffffffffffffff\n      and\n      dup2\n      mstore\n      0x20\n      add\n      swap1\n      dup2\n      mstore\n      0x20\n      add\n      0x00\n      keccak256\n        /* \"contracts/Crowdfunding.sol\":3966:4003  backers[msg.sender].totalContribution */\n      0x00\n      add\n      sload\n        /* \"contracts/Crowdfunding.sol\":3949:4003  uint256 amount = backers[msg.sender].totalContribution */\n      swap1\n      pop\n        /* \"contracts/Crowdfunding.sol\":4030:4031  0 */\n      0x00\n        /* \"contracts/Crowdfunding.sol\":4021:4027  amount */\n      dup2\n        /* \"contracts/Crowdfunding.sol\":4021:4031  amount > 0 */\n      gt\n        /* \"contracts/Crowdfunding.sol\":4013:4073  require(amount > 0, \"Contribution not found, refund failed\") */\n      tag_183\n      jumpi\n      mload(0x40)\n      0x08c379a000000000000000000000000000000000000000000000000000000000\n      dup2\n      mstore\n      0x04\n      add\n      tag_184\n      swap1\n      tag_185\n      jump\t// in\n    tag_184:\n      mload(0x40)\n      dup1\n      swap2\n      sub\n      swap1\n      revert\n    tag_183:\n        /* \"contracts/Crowdfunding.sol\":4124:4125  0 */\n      0x00\n        /* \"contracts/Crowdfunding.sol\":4084:4091  backers */\n      0x06\n        /* \"contracts/Crowdfunding.sol\":4084:4103  backers[msg.sender] */\n      0x00\n        /* \"contracts/Crowdfunding.sol\":4092:4102  msg.sender */\n      caller\n        /* \"contracts/Crowdfunding.sol\":4084:4103  backers[msg.sender] */\n      0xffffffffffffffffffffffffffffffffffffffff\n      and\n      0xffffffffffffffffffffffffffffffffffffffff\n      and\n      dup2\n      mstore\n      0x20\n      add\n      swap1\n      dup2\n      mstore\n      0x20\n      add\n      0x00\n      keccak256\n        /* \"contracts/Crowdfunding.sol\":4084:4121  backers[msg.sender].totalContribution */\n      0x00\n      add\n        /* \"contracts/Crowdfunding.sol\":4084:4125  backers[msg.sender].totalContribution = 0 */\n      dup2\n      swap1\n      sstore\n      pop\n        /* \"contracts/Crowdfunding.sol\":4143:4153  msg.sender */\n      caller\n        /* \"contracts/Crowdfunding.sol\":4135:4163  payable(msg.sender).transfer */\n      0xffffffffffffffffffffffffffffffffffffffff\n      and\n        /* \"contracts/Crowdfunding.sol\":4135:4171  payable(msg.sender).transfer(amount) */\n      0x08fc\n        /* \"contracts/Crowdfunding.sol\":4164:4170  amount */\n      dup3\n        /* \"contracts/Crowdfunding.sol\":4135:4171  payable(msg.sender).transfer(amount) */\n      swap1\n      dup2\n      iszero\n      mul\n      swap1\n      mload(0x40)\n      0x00\n      mload(0x40)\n      dup1\n      dup4\n      sub\n      dup2\n      dup6\n      dup9\n      dup9\n      call\n      swap4\n      pop\n      pop\n      pop\n      pop\n      iszero\n      dup1\n      iszero\n      tag_187\n      jumpi\n      returndatasize\n      0x00\n      dup1\n      returndatacopy\n      revert(0x00, returndatasize)\n    tag_187:\n      pop\n        /* \"contracts/Crowdfunding.sol\":3758:4178  {... */\n      pop\n        /* \"contracts/Crowdfunding.sol\":3733:4178  function refund() public {... */\n      jump\t// out\n        /* \"contracts/Crowdfunding.sol\":221:239  bool public paused */\n    tag_63:\n      0x04\n      0x14\n      swap1\n      sload\n      swap1\n      0x0100\n      exp\n      swap1\n      div\n      0xff\n      and\n      dup2\n      jump\t// out\n        /* \"contracts/Crowdfunding.sol\":3623:3727  function getContractBalance() public view returns(uint256) {... */\n    tag_68:\n        /* \"contracts/Crowdfunding.sol\":3673:3680  uint256 */\n      0x00\n        /* \"contracts/Crowdfunding.sol\":3699:3720  address(this).balance */\n      selfbalance\n        /* \"contracts/Crowdfunding.sol\":3692:3720  return address(this).balance */\n      swap1\n      pop\n        /* \"contracts/Crowdfunding.sol\":3623:3727  function getContractBalance() public view returns(uint256) {... */\n      swap1\n      jump\t// out\n        /* \"contracts/Crowdfunding.sol\":110:135  string public description */\n    tag_72:\n      0x01\n      dup1\n      sload\n      tag_189\n      swap1\n      tag_118\n      jump\t// in\n    tag_189:\n      dup1\n      0x1f\n      add\n      0x20\n      dup1\n      swap2\n      div\n      mul\n      0x20\n      add\n      mload(0x40)\n      swap1\n      dup2\n      add\n      0x40\n      mstore\n      dup1\n      swap3\n      swap2\n      swap1\n      dup2\n      dup2\n      mstore\n      0x20\n      add\n      dup3\n      dup1\n      sload\n      tag_190\n      swap1\n      tag_118\n      jump\t// in\n    tag_190:\n      dup1\n      iszero\n      tag_191\n      jumpi\n      dup1\n      0x1f\n      lt\n      tag_192\n      jumpi\n      0x0100\n      dup1\n      dup4\n      sload\n      div\n      mul\n      dup4\n      mstore\n      swap2\n      0x20\n      add\n      swap2\n      jump(tag_191)\n    tag_192:\n      dup3\n      add\n      swap2\n      swap1\n      0x00\n      mstore\n      keccak256(0x00, 0x20)\n      swap1\n    tag_193:\n      dup2\n      sload\n      dup2\n      mstore\n      swap1\n      0x01\n      add\n      swap1\n      0x20\n      add\n      dup1\n      dup4\n      gt\n      tag_193\n      jumpi\n      dup3\n      swap1\n      sub\n      0x1f\n      and\n      dup3\n      add\n      swap2\n    tag_191:\n      pop\n      pop\n      pop\n      pop\n      pop\n      dup2\n      jump\t// out\n        /* \"contracts/Crowdfunding.sol\":3087:3278  function removeTier(uint256 _index) public onlyOwner{... */\n    tag_77:\n        /* \"contracts/Crowdfunding.sol\":789:794  owner */\n      0x04\n      0x00\n      swap1\n      sload\n      swap1\n      0x0100\n      exp\n      swap1\n      div\n      0xffffffffffffffffffffffffffffffffffffffff\n      and\n        /* \"contracts/Crowdfunding.sol\":775:794  msg.sender == owner */\n      0xffffffffffffffffffffffffffffffffffffffff\n      and\n        /* \"contracts/Crowdfunding.sol\":775:785  msg.sender */\n      caller\n        /* \"contracts/Crowdfunding.sol\":775:794  msg.sender == owner */\n      0xffffffffffffffffffffffffffffffffffffffff\n      and\n      eq\n        /* \"contracts/Crowdfunding.sol\":767:837  require(msg.sender == owner, \"You are not the owner of this contract\") */\n      tag_195\n      jumpi\n      mload(0x40)\n      0x08c379a000000000000000000000000000000000000000000000000000000000\n      dup2\n      mstore\n      0x04\n      add\n      tag_196\n      swap1\n      tag_141\n      jump\t// in\n    tag_196:\n      mload(0x40)\n      dup1\n      swap2\n      sub\n      swap1\n      revert\n    tag_195:\n        /* \"contracts/Crowdfunding.sol\":3166:3171  tiers */\n      0x05\n        /* \"contracts/Crowdfunding.sol\":3166:3178  tiers.length */\n      dup1\n      sload\n      swap1\n      pop\n        /* \"contracts/Crowdfunding.sol\":3157:3163  _index */\n      dup2\n        /* \"contracts/Crowdfunding.sol\":3157:3178  _index < tiers.length */\n      lt\n        /* \"contracts/Crowdfunding.sol\":3149:3202  require(_index < tiers.length, \"Tier doesn't exists\") */\n      tag_198\n      jumpi\n      mload(0x40)\n      0x08c379a000000000000000000000000000000000000000000000000000000000\n      dup2\n      mstore\n      0x04\n      add\n      tag_199\n      swap1\n      tag_200\n      jump\t// in\n    tag_199:\n      mload(0x40)\n      dup1\n      swap2\n      sub\n      swap1\n      revert\n    tag_198:\n        /* \"contracts/Crowdfunding.sol\":3228:3233  tiers */\n      0x05\n        /* \"contracts/Crowdfunding.sol\":3248:3249  1 */\n      0x01\n        /* \"contracts/Crowdfunding.sol\":3234:3239  tiers */\n      0x05\n        /* \"contracts/Crowdfunding.sol\":3234:3246  tiers.length */\n      dup1\n      sload\n      swap1\n      pop\n        /* \"contracts/Crowdfunding.sol\":3234:3249  tiers.length -1 */\n      tag_201\n      swap2\n      swap1\n      tag_202\n      jump\t// in\n    tag_201:\n        /* \"contracts/Crowdfunding.sol\":3228:3250  tiers[tiers.length -1] */\n      dup2\n      sload\n      dup2\n      lt\n      tag_203\n      jumpi\n      tag_204\n      tag_205\n      jump\t// in\n    tag_204:\n    tag_203:\n      swap1\n      0x00\n      mstore\n      keccak256(0x00, 0x20)\n      swap1\n      0x03\n      mul\n      add\n        /* \"contracts/Crowdfunding.sol\":3212:3217  tiers */\n      0x05\n        /* \"contracts/Crowdfunding.sol\":3218:3224  _index */\n      dup3\n        /* \"contracts/Crowdfunding.sol\":3212:3225  tiers[_index] */\n      dup2\n      sload\n      dup2\n      lt\n      tag_207\n      jumpi\n      tag_208\n      tag_205\n      jump\t// in\n    tag_208:\n    tag_207:\n      swap1\n      0x00\n      mstore\n      keccak256(0x00, 0x20)\n      swap1\n      0x03\n      mul\n      add\n        /* \"contracts/Crowdfunding.sol\":3212:3250  tiers[_index] = tiers[tiers.length -1] */\n      0x00\n      dup3\n      add\n      dup2\n      0x00\n      add\n      swap1\n      dup2\n      tag_210\n      swap2\n      swap1\n      tag_211\n      jump\t// in\n    tag_210:\n      pop\n      0x01\n      dup3\n      add\n      sload\n      dup2\n      0x01\n      add\n      sstore\n      0x02\n      dup3\n      add\n      sload\n      dup2\n      0x02\n      add\n      sstore\n      swap1\n      pop\n      pop\n        /* \"contracts/Crowdfunding.sol\":3260:3265  tiers */\n      0x05\n        /* \"contracts/Crowdfunding.sol\":3260:3271  tiers.pop() */\n      dup1\n      sload\n      dup1\n      tag_212\n      jumpi\n      tag_213\n      tag_214\n      jump\t// in\n    tag_213:\n    tag_212:\n      0x01\n      swap1\n      sub\n      dup2\n      dup2\n      swap1\n      0x00\n      mstore\n      keccak256(0x00, 0x20)\n      swap1\n      0x03\n      mul\n      add\n      0x00\n      dup1\n      dup3\n      add\n      0x00\n      tag_216\n      swap2\n      swap1\n      tag_217\n      jump\t// in\n    tag_216:\n      0x01\n      dup3\n      add\n      0x00\n      swap1\n      sstore\n      0x02\n      dup3\n      add\n      0x00\n      swap1\n      sstore\n      pop\n      pop\n      swap1\n      sstore\n        /* \"contracts/Crowdfunding.sol\":3087:3278  function removeTier(uint256 _index) public onlyOwner{... */\n      pop\n      jump\t// out\n        /* \"contracts/Crowdfunding.sol\":4185:4336  function hasFundedTier(address _backer, uint256 _tierIndex) public view returns (bool) {... */\n    tag_82:\n        /* \"contracts/Crowdfunding.sol\":4266:4270  bool */\n      0x00\n        /* \"contracts/Crowdfunding.sol\":4289:4296  backers */\n      0x06\n        /* \"contracts/Crowdfunding.sol\":4289:4305  backers[_backer] */\n      0x00\n        /* \"contracts/Crowdfunding.sol\":4297:4304  _backer */\n      dup5\n        /* \"contracts/Crowdfunding.sol\":4289:4305  backers[_backer] */\n      0xffffffffffffffffffffffffffffffffffffffff\n      and\n      0xffffffffffffffffffffffffffffffffffffffff\n      and\n      dup2\n      mstore\n      0x20\n      add\n      swap1\n      dup2\n      mstore\n      0x20\n      add\n      0x00\n      keccak256\n        /* \"contracts/Crowdfunding.sol\":4289:4317  backers[_backer].fundedTiers */\n      0x01\n      add\n        /* \"contracts/Crowdfunding.sol\":4289:4329  backers[_backer].fundedTiers[_tierIndex] */\n      0x00\n        /* \"contracts/Crowdfunding.sol\":4318:4328  _tierIndex */\n      dup4\n        /* \"contracts/Crowdfunding.sol\":4289:4329  backers[_backer].fundedTiers[_tierIndex] */\n      dup2\n      mstore\n      0x20\n      add\n      swap1\n      dup2\n      mstore\n      0x20\n      add\n      0x00\n      keccak256\n      0x00\n      swap1\n      sload\n      swap1\n      0x0100\n      exp\n      swap1\n      div\n      0xff\n      and\n        /* \"contracts/Crowdfunding.sol\":4282:4329  return backers[_backer].fundedTiers[_tierIndex] */\n      swap1\n      pop\n        /* \"contracts/Crowdfunding.sol\":4185:4336  function hasFundedTier(address _backer, uint256 _tierIndex) public view returns (bool) {... */\n      swap3\n      swap2\n      pop\n      pop\n      jump\t// out\n        /* \"contracts/Crowdfunding.sol\":195:215  address public owner */\n    tag_86:\n      0x04\n      0x00\n      swap1\n      sload\n      swap1\n      0x0100\n      exp\n      swap1\n      div\n      0xffffffffffffffffffffffffffffffffffffffff\n      and\n      dup2\n      jump\t// out\n        /* \"contracts/Crowdfunding.sol\":2872:3081  function addTier(... */\n    tag_93:\n        /* \"contracts/Crowdfunding.sol\":789:794  owner */\n      0x04\n      0x00\n      swap1\n      sload\n      swap1\n      0x0100\n      exp\n      swap1\n      div\n      0xffffffffffffffffffffffffffffffffffffffff\n      and\n        /* \"contracts/Crowdfunding.sol\":775:794  msg.sender == owner */\n      0xffffffffffffffffffffffffffffffffffffffff\n      and\n        /* \"contracts/Crowdfunding.sol\":775:785  msg.sender */\n      caller\n        /* \"contracts/Crowdfunding.sol\":775:794  msg.sender == owner */\n      0xffffffffffffffffffffffffffffffffffffffff\n      and\n      eq\n        /* \"contracts/Crowdfunding.sol\":767:837  require(msg.sender == owner, \"You are not the owner of this contract\") */\n      tag_220\n      jumpi\n      mload(0x40)\n      0x08c379a000000000000000000000000000000000000000000000000000000000\n      dup2\n      mstore\n      0x04\n      add\n      tag_221\n      swap1\n      tag_141\n      jump\t// in\n    tag_221:\n      mload(0x40)\n      dup1\n      swap2\n      sub\n      swap1\n      revert\n    tag_220:\n        /* \"contracts/Crowdfunding.sol\":2993:2994  0 */\n      0x00\n        /* \"contracts/Crowdfunding.sol\":2983:2990  _amount */\n      dup2\n        /* \"contracts/Crowdfunding.sol\":2983:2994  _amount > 0 */\n      gt\n        /* \"contracts/Crowdfunding.sol\":2975:3029  require(_amount > 0, \"Amount must be greater thatn 0\") */\n      tag_223\n      jumpi\n      mload(0x40)\n      0x08c379a000000000000000000000000000000000000000000000000000000000\n      dup2\n      mstore\n      0x04\n      add\n      tag_224\n      swap1\n      tag_225\n      jump\t// in\n    tag_224:\n      mload(0x40)\n      dup1\n      swap2\n      sub\n      swap1\n      revert\n    tag_223:\n        /* \"contracts/Crowdfunding.sol\":3039:3044  tiers */\n      0x05\n        /* \"contracts/Crowdfunding.sol\":3050:3073  Tier(_name, _amount, 0) */\n      mload(0x40)\n      dup1\n      0x60\n      add\n      0x40\n      mstore\n      dup1\n        /* \"contracts/Crowdfunding.sol\":3055:3060  _name */\n      dup5\n        /* \"contracts/Crowdfunding.sol\":3050:3073  Tier(_name, _amount, 0) */\n      dup2\n      mstore\n      0x20\n      add\n        /* \"contracts/Crowdfunding.sol\":3062:3069  _amount */\n      dup4\n        /* \"contracts/Crowdfunding.sol\":3050:3073  Tier(_name, _amount, 0) */\n      dup2\n      mstore\n      0x20\n      add\n        /* \"contracts/Crowdfunding.sol\":3071:3072  0 */\n      0x00\n        /* \"contracts/Crowdfunding.sol\":3050:3073  Tier(_name, _amount, 0) */\n      dup2\n      mstore\n      pop\n        /* \"contracts/Crowdfunding.sol\":3039:3074  tiers.push(Tier(_name, _amount, 0)) */\n      swap1\n      dup1\n      0x01\n      dup2\n      sload\n      add\n      dup1\n      dup3\n      sstore\n      dup1\n      swap2\n      pop\n      pop\n      0x01\n      swap1\n      sub\n      swap1\n      0x00\n      mstore\n      keccak256(0x00, 0x20)\n      swap1\n      0x03\n      mul\n      add\n      0x00\n      swap1\n      swap2\n      swap1\n      swap2\n      swap1\n      swap2\n      pop\n      0x00\n      dup3\n      add\n      mload\n      dup2\n      0x00\n      add\n      swap1\n      dup2\n      tag_227\n      swap2\n      swap1\n      tag_228\n      jump\t// in\n    tag_227:\n      pop\n      0x20\n      dup3\n      add\n      mload\n      dup2\n      0x01\n      add\n      sstore\n      0x40\n      dup3\n      add\n      mload\n      dup2\n      0x02\n      add\n      sstore\n      pop\n      pop\n        /* \"contracts/Crowdfunding.sol\":2872:3081  function addTier(... */\n      pop\n      pop\n      jump\t// out\n        /* \"contracts/Crowdfunding.sol\":662:703  mapping(address => Backer) public backers */\n    tag_98:\n      mstore(0x20, 0x06)\n      dup1\n      0x00\n      mstore\n      keccak256(0x00, 0x40)\n      0x00\n      swap2\n      pop\n      swap1\n      pop\n      dup1\n      0x00\n      add\n      sload\n      swap1\n      pop\n      dup2\n      jump\t// out\n        /* \"contracts/Crowdfunding.sol\":296:322  CampaignState public state */\n    tag_102:\n      0x04\n      0x15\n      swap1\n      sload\n      swap1\n      0x0100\n      exp\n      swap1\n      div\n      0xff\n      and\n      dup2\n      jump\t// out\n        /* \"contracts/Crowdfunding.sol\":2133:2866  function fund(uint256 _tierIndex) public payable isCampaignActive notPaused {... */\n    tag_106:\n        /* \"contracts/Crowdfunding.sol\":970:990  CampaignState.Active */\n      0x00\n        /* \"contracts/Crowdfunding.sol\":961:990  state == CampaignState.Active */\n      0x02\n      dup2\n      gt\n      iszero\n      tag_230\n      jumpi\n      tag_231\n      tag_131\n      jump\t// in\n    tag_231:\n    tag_230:\n        /* \"contracts/Crowdfunding.sol\":961:966  state */\n      0x04\n      0x15\n      swap1\n      sload\n      swap1\n      0x0100\n      exp\n      swap1\n      div\n      0xff\n      and\n        /* \"contracts/Crowdfunding.sol\":961:990  state == CampaignState.Active */\n      0x02\n      dup2\n      gt\n      iszero\n      tag_232\n      jumpi\n      tag_233\n      tag_131\n      jump\t// in\n    tag_233:\n    tag_232:\n      eq\n        /* \"contracts/Crowdfunding.sol\":953:1017  require(state == CampaignState.Active, \"Campaign is not active\") */\n      tag_234\n      jumpi\n      mload(0x40)\n      0x08c379a000000000000000000000000000000000000000000000000000000000\n      dup2\n      mstore\n      0x04\n      add\n      tag_235\n      swap1\n      tag_149\n      jump\t// in\n    tag_235:\n      mload(0x40)\n      dup1\n      swap2\n      sub\n      swap1\n      revert\n    tag_234:\n        /* \"contracts/Crowdfunding.sol\":1214:1220  paused */\n      0x04\n      0x14\n      swap1\n      sload\n      swap1\n      0x0100\n      exp\n      swap1\n      div\n      0xff\n      and\n        /* \"contracts/Crowdfunding.sol\":1213:1220  !paused */\n      iszero\n        /* \"contracts/Crowdfunding.sol\":1205:1244  require(!paused, \"Contract is paused.\") */\n      tag_237\n      jumpi\n      mload(0x40)\n      0x08c379a000000000000000000000000000000000000000000000000000000000\n      dup2\n      mstore\n      0x04\n      add\n      tag_238\n      swap1\n      tag_239\n      jump\t// in\n    tag_238:\n      mload(0x40)\n      dup1\n      swap2\n      sub\n      swap1\n      revert\n    tag_237:\n        /* \"contracts/Crowdfunding.sol\":2401:2406  tiers */\n      0x05\n        /* \"contracts/Crowdfunding.sol\":2401:2413  tiers.length */\n      dup1\n      sload\n      swap1\n      pop\n        /* \"contracts/Crowdfunding.sol\":2388:2398  _tierIndex */\n      dup2\n        /* \"contracts/Crowdfunding.sol\":2388:2413  _tierIndex < tiers.length */\n      lt\n        /* \"contracts/Crowdfunding.sol\":2380:2430  require(_tierIndex < tiers.length, \"Invalid tier\") */\n      tag_241\n      jumpi\n      mload(0x40)\n      0x08c379a000000000000000000000000000000000000000000000000000000000\n      dup2\n      mstore\n      0x04\n      add\n      tag_242\n      swap1\n      tag_243\n      jump\t// in\n    tag_242:\n      mload(0x40)\n      dup1\n      swap2\n      sub\n      swap1\n      revert\n    tag_241:\n        /* \"contracts/Crowdfunding.sol\":2461:2466  tiers */\n      0x05\n        /* \"contracts/Crowdfunding.sol\":2467:2477  _tierIndex */\n      dup2\n        /* \"contracts/Crowdfunding.sol\":2461:2478  tiers[_tierIndex] */\n      dup2\n      sload\n      dup2\n      lt\n      tag_244\n      jumpi\n      tag_245\n      tag_205\n      jump\t// in\n    tag_245:\n    tag_244:\n      swap1\n      0x00\n      mstore\n      keccak256(0x00, 0x20)\n      swap1\n      0x03\n      mul\n      add\n        /* \"contracts/Crowdfunding.sol\":2461:2485  tiers[_tierIndex].amount */\n      0x01\n      add\n      sload\n        /* \"contracts/Crowdfunding.sol\":2448:2457  msg.value */\n      callvalue\n        /* \"contracts/Crowdfunding.sol\":2448:2485  msg.value == tiers[_tierIndex].amount */\n      eq\n        /* \"contracts/Crowdfunding.sol\":2440:2506  require(msg.value == tiers[_tierIndex].amount, \"Incorrect amount\") */\n      tag_247\n      jumpi\n      mload(0x40)\n      0x08c379a000000000000000000000000000000000000000000000000000000000\n      dup2\n      mstore\n      0x04\n      add\n      tag_248\n      swap1\n      tag_249\n      jump\t// in\n    tag_248:\n      mload(0x40)\n      dup1\n      swap2\n      sub\n      swap1\n      revert\n    tag_247:\n        /* \"contracts/Crowdfunding.sol\":2517:2522  tiers */\n      0x05\n        /* \"contracts/Crowdfunding.sol\":2523:2533  _tierIndex */\n      dup2\n        /* \"contracts/Crowdfunding.sol\":2517:2534  tiers[_tierIndex] */\n      dup2\n      sload\n      dup2\n      lt\n      tag_250\n      jumpi\n      tag_251\n      tag_205\n      jump\t// in\n    tag_251:\n    tag_250:\n      swap1\n      0x00\n      mstore\n      keccak256(0x00, 0x20)\n      swap1\n      0x03\n      mul\n      add\n        /* \"contracts/Crowdfunding.sol\":2517:2542  tiers[_tierIndex].backers */\n      0x02\n      add\n      0x00\n        /* \"contracts/Crowdfunding.sol\":2517:2544  tiers[_tierIndex].backers++ */\n      dup2\n      sload\n      dup1\n      swap3\n      swap2\n      swap1\n      tag_253\n      swap1\n      tag_254\n      jump\t// in\n    tag_253:\n      swap2\n      swap1\n      pop\n      sstore\n      pop\n        /* \"contracts/Crowdfunding.sol\":2595:2604  msg.value */\n      callvalue\n        /* \"contracts/Crowdfunding.sol\":2554:2561  backers */\n      0x06\n        /* \"contracts/Crowdfunding.sol\":2554:2573  backers[msg.sender] */\n      0x00\n        /* \"contracts/Crowdfunding.sol\":2562:2572  msg.sender */\n      caller\n        /* \"contracts/Crowdfunding.sol\":2554:2573  backers[msg.sender] */\n      0xffffffffffffffffffffffffffffffffffffffff\n      and\n      0xffffffffffffffffffffffffffffffffffffffff\n      and\n      dup2\n      mstore\n      0x20\n      add\n      swap1\n      dup2\n      mstore\n      0x20\n      add\n      0x00\n      keccak256\n        /* \"contracts/Crowdfunding.sol\":2554:2591  backers[msg.sender].totalContribution */\n      0x00\n      add\n      0x00\n        /* \"contracts/Crowdfunding.sol\":2554:2604  backers[msg.sender].totalContribution += msg.value */\n      dup3\n      dup3\n      sload\n      tag_255\n      swap2\n      swap1\n      tag_154\n      jump\t// in\n    tag_255:\n      swap3\n      pop\n      pop\n      dup2\n      swap1\n      sstore\n      pop\n        /* \"contracts/Crowdfunding.sol\":2708:2712  true */\n      0x01\n        /* \"contracts/Crowdfunding.sol\":2662:2669  backers */\n      0x06\n        /* \"contracts/Crowdfunding.sol\":2662:2681  backers[msg.sender] */\n      0x00\n        /* \"contracts/Crowdfunding.sol\":2670:2680  msg.sender */\n      caller\n        /* \"contracts/Crowdfunding.sol\":2662:2681  backers[msg.sender] */\n      0xffffffffffffffffffffffffffffffffffffffff\n      and\n      0xffffffffffffffffffffffffffffffffffffffff\n      and\n      dup2\n      mstore\n      0x20\n      add\n      swap1\n      dup2\n      mstore\n      0x20\n      add\n      0x00\n      keccak256\n        /* \"contracts/Crowdfunding.sol\":2662:2693  backers[msg.sender].fundedTiers */\n      0x01\n      add\n        /* \"contracts/Crowdfunding.sol\":2662:2705  backers[msg.sender].fundedTiers[_tierIndex] */\n      0x00\n        /* \"contracts/Crowdfunding.sol\":2694:2704  _tierIndex */\n      dup4\n        /* \"contracts/Crowdfunding.sol\":2662:2705  backers[msg.sender].fundedTiers[_tierIndex] */\n      dup2\n      mstore\n      0x20\n      add\n      swap1\n      dup2\n      mstore\n      0x20\n      add\n      0x00\n      keccak256\n      0x00\n        /* \"contracts/Crowdfunding.sol\":2662:2712  backers[msg.sender].fundedTiers[_tierIndex] = true */\n      0x0100\n      exp\n      dup2\n      sload\n      dup2\n      0xff\n      mul\n      not\n      and\n      swap1\n      dup4\n      iszero\n      iszero\n      mul\n      or\n      swap1\n      sstore\n      pop\n        /* \"contracts/Crowdfunding.sol\":2766:2795  checkAndUpdateCampaignState() */\n      tag_256\n        /* \"contracts/Crowdfunding.sol\":2766:2793  checkAndUpdateCampaignState */\n      tag_168\n        /* \"contracts/Crowdfunding.sol\":2766:2795  checkAndUpdateCampaignState() */\n      jump\t// in\n    tag_256:\n        /* \"contracts/Crowdfunding.sol\":2133:2866  function fund(uint256 _tierIndex) public payable isCampaignActive notPaused {... */\n      pop\n      jump\t// out\n        /* \"contracts/Crowdfunding.sol\":4432:4505  function tooglePause() public onlyOwner {... */\n    tag_109:\n        /* \"contracts/Crowdfunding.sol\":789:794  owner */\n      0x04\n      0x00\n      swap1\n      sload\n      swap1\n      0x0100\n      exp\n      swap1\n      div\n      0xffffffffffffffffffffffffffffffffffffffff\n      and\n        /* \"contracts/Crowdfunding.sol\":775:794  msg.sender == owner */\n      0xffffffffffffffffffffffffffffffffffffffff\n      and\n        /* \"contracts/Crowdfunding.sol\":775:785  msg.sender */\n      caller\n        /* \"contracts/Crowdfunding.sol\":775:794  msg.sender == owner */\n      0xffffffffffffffffffffffffffffffffffffffff\n      and\n      eq\n        /* \"contracts/Crowdfunding.sol\":767:837  require(msg.sender == owner, \"You are not the owner of this contract\") */\n      tag_258\n      jumpi\n      mload(0x40)\n      0x08c379a000000000000000000000000000000000000000000000000000000000\n      dup2\n      mstore\n      0x04\n      add\n      tag_259\n      swap1\n      tag_141\n      jump\t// in\n    tag_259:\n      mload(0x40)\n      dup1\n      swap2\n      sub\n      swap1\n      revert\n    tag_258:\n        /* \"contracts/Crowdfunding.sol\":4492:4498  paused */\n      0x04\n      0x14\n      swap1\n      sload\n      swap1\n      0x0100\n      exp\n      swap1\n      div\n      0xff\n      and\n        /* \"contracts/Crowdfunding.sol\":4491:4498  !paused */\n      iszero\n        /* \"contracts/Crowdfunding.sol\":4482:4488  paused */\n      0x04\n      0x14\n        /* \"contracts/Crowdfunding.sol\":4482:4498  paused = !paused */\n      0x0100\n      exp\n      dup2\n      sload\n      dup2\n      0xff\n      mul\n      not\n      and\n      swap1\n      dup4\n      iszero\n      iszero\n      mul\n      or\n      swap1\n      sstore\n      pop\n        /* \"contracts/Crowdfunding.sol\":4432:4505  function tooglePause() public onlyOwner {... */\n      jump\t// out\n        /* \"contracts/Crowdfunding.sol\":4342:4426  function getTiers() public view returns (Tier[] memory){... */\n    tag_112:\n        /* \"contracts/Crowdfunding.sol\":4383:4396  Tier[] memory */\n      0x60\n        /* \"contracts/Crowdfunding.sol\":4414:4419  tiers */\n      0x05\n        /* \"contracts/Crowdfunding.sol\":4407:4419  return tiers */\n      dup1\n      sload\n      dup1\n      0x20\n      mul\n      0x20\n      add\n      mload(0x40)\n      swap1\n      dup2\n      add\n      0x40\n      mstore\n      dup1\n      swap3\n      swap2\n      swap1\n      dup2\n      dup2\n      mstore\n      0x20\n      add\n      0x00\n      swap1\n    tag_262:\n      dup3\n      dup3\n      lt\n      iszero\n      tag_263\n      jumpi\n      dup4\n      dup3\n      swap1\n      0x00\n      mstore\n      keccak256(0x00, 0x20)\n      swap1\n      0x03\n      mul\n      add\n      mload(0x40)\n      dup1\n      0x60\n      add\n      0x40\n      mstore\n      swap1\n      dup2\n      0x00\n      dup3\n      add\n      dup1\n      sload\n      tag_265\n      swap1\n      tag_118\n      jump\t// in\n    tag_265:\n      dup1\n      0x1f\n      add\n      0x20\n      dup1\n      swap2\n      div\n      mul\n      0x20\n      add\n      mload(0x40)\n      swap1\n      dup2\n      add\n      0x40\n      mstore\n      dup1\n      swap3\n      swap2\n      swap1\n      dup2\n      dup2\n      mstore\n      0x20\n      add\n      dup3\n      dup1\n      sload\n      tag_266\n      swap1\n      tag_118\n      jump\t// in\n    tag_266:\n      dup1\n      iszero\n      tag_267\n      jumpi\n      dup1\n      0x1f\n      lt\n      tag_268\n      jumpi\n      0x0100\n      dup1\n      dup4\n      sload\n      div\n      mul\n      dup4\n      mstore\n      swap2\n      0x20\n      add\n      swap2\n      jump(tag_267)\n    tag_268:\n      dup3\n      add\n      swap2\n      swap1\n      0x00\n      mstore\n      keccak256(0x00, 0x20)\n      swap1\n    tag_269:\n      dup2\n      sload\n      dup2\n      mstore\n      swap1\n      0x01\n      add\n      swap1\n      0x20\n      add\n      dup1\n      dup4\n      gt\n      tag_269\n      jumpi\n      dup3\n      swap1\n      sub\n      0x1f\n      and\n      dup3\n      add\n      swap2\n    tag_267:\n      pop\n      pop\n      pop\n      pop\n      pop\n      dup2\n      mstore\n      0x20\n      add\n      0x01\n      dup3\n      add\n      sload\n      dup2\n      mstore\n      0x20\n      add\n      0x02\n      dup3\n      add\n      sload\n      dup2\n      mstore\n      pop\n      pop\n      dup2\n      mstore\n      0x20\n      add\n      swap1\n      0x01\n      add\n      swap1\n      jump(tag_262)\n    tag_263:\n      pop\n      pop\n      pop\n      pop\n      swap1\n      pop\n        /* \"contracts/Crowdfunding.sol\":4342:4426  function getTiers() public view returns (Tier[] memory){... */\n      swap1\n      jump\t// out\n        /* \"contracts/Crowdfunding.sol\":1735:2127  function checkAndUpdateCampaignState() internal {... */\n    tag_168:\n        /* \"contracts/Crowdfunding.sol\":1805:1825  CampaignState.Active */\n      0x00\n        /* \"contracts/Crowdfunding.sol\":1796:1825  state == CampaignState.Active */\n      0x02\n      dup2\n      gt\n      iszero\n      tag_271\n      jumpi\n      tag_272\n      tag_131\n      jump\t// in\n    tag_272:\n    tag_271:\n        /* \"contracts/Crowdfunding.sol\":1796:1801  state */\n      0x04\n      0x15\n      swap1\n      sload\n      swap1\n      0x0100\n      exp\n      swap1\n      div\n      0xff\n      and\n        /* \"contracts/Crowdfunding.sol\":1796:1825  state == CampaignState.Active */\n      0x02\n      dup2\n      gt\n      iszero\n      tag_273\n      jumpi\n      tag_274\n      tag_131\n      jump\t// in\n    tag_274:\n    tag_273:\n      sub\n        /* \"contracts/Crowdfunding.sol\":1793:2121  if(state == CampaignState.Active){... */\n      tag_275\n      jumpi\n        /* \"contracts/Crowdfunding.sol\":1862:1870  deadline */\n      sload(0x03)\n        /* \"contracts/Crowdfunding.sol\":1843:1858  block.timestamp */\n      timestamp\n        /* \"contracts/Crowdfunding.sol\":1843:1870  block.timestamp >= deadline */\n      lt\n        /* \"contracts/Crowdfunding.sol\":1840:2111  if(block.timestamp >= deadline){... */\n      tag_276\n      jumpi\n        /* \"contracts/Crowdfunding.sol\":1922:1926  goal */\n      sload(0x02)\n        /* \"contracts/Crowdfunding.sol\":1897:1918  address(this).balance */\n      selfbalance\n        /* \"contracts/Crowdfunding.sol\":1897:1926  address(this).balance >= goal */\n      lt\n      iszero\n        /* \"contracts/Crowdfunding.sol\":1897:1973  address(this).balance >= goal ? CampaignState.Success : CampaignState.Failed */\n      tag_277\n      jumpi\n        /* \"contracts/Crowdfunding.sol\":1953:1973  CampaignState.Failed */\n      0x02\n        /* \"contracts/Crowdfunding.sol\":1897:1973  address(this).balance >= goal ? CampaignState.Success : CampaignState.Failed */\n      jump(tag_278)\n    tag_277:\n        /* \"contracts/Crowdfunding.sol\":1929:1950  CampaignState.Success */\n      0x01\n        /* \"contracts/Crowdfunding.sol\":1897:1973  address(this).balance >= goal ? CampaignState.Success : CampaignState.Failed */\n    tag_278:\n        /* \"contracts/Crowdfunding.sol\":1889:1894  state */\n      0x04\n      0x15\n        /* \"contracts/Crowdfunding.sol\":1889:1973  state = address(this).balance >= goal ? CampaignState.Success : CampaignState.Failed */\n      0x0100\n      exp\n      dup2\n      sload\n      dup2\n      0xff\n      mul\n      not\n      and\n      swap1\n      dup4\n      0x02\n      dup2\n      gt\n      iszero\n      tag_279\n      jumpi\n      tag_280\n      tag_131\n      jump\t// in\n    tag_280:\n    tag_279:\n      mul\n      or\n      swap1\n      sstore\n      pop\n        /* \"contracts/Crowdfunding.sol\":1840:2111  if(block.timestamp >= deadline){... */\n      jump(tag_281)\n    tag_276:\n        /* \"contracts/Crowdfunding.sol\":2045:2049  goal */\n      sload(0x02)\n        /* \"contracts/Crowdfunding.sol\":2020:2041  address(this).balance */\n      selfbalance\n        /* \"contracts/Crowdfunding.sol\":2020:2049  address(this).balance >= goal */\n      lt\n      iszero\n        /* \"contracts/Crowdfunding.sol\":2020:2096  address(this).balance >= goal ? CampaignState.Success : CampaignState.Active */\n      tag_282\n      jumpi\n        /* \"contracts/Crowdfunding.sol\":2076:2096  CampaignState.Active */\n      0x00\n        /* \"contracts/Crowdfunding.sol\":2020:2096  address(this).balance >= goal ? CampaignState.Success : CampaignState.Active */\n      jump(tag_283)\n    tag_282:\n        /* \"contracts/Crowdfunding.sol\":2052:2073  CampaignState.Success */\n      0x01\n        /* \"contracts/Crowdfunding.sol\":2020:2096  address(this).balance >= goal ? CampaignState.Success : CampaignState.Active */\n    tag_283:\n        /* \"contracts/Crowdfunding.sol\":2012:2017  state */\n      0x04\n      0x15\n        /* \"contracts/Crowdfunding.sol\":2012:2096  state = address(this).balance >= goal ? CampaignState.Success : CampaignState.Active */\n      0x0100\n      exp\n      dup2\n      sload\n      dup2\n      0xff\n      mul\n      not\n      and\n      swap1\n      dup4\n      0x02\n      dup2\n      gt\n      iszero\n      tag_284\n      jumpi\n      tag_285\n      tag_131\n      jump\t// in\n    tag_285:\n    tag_284:\n      mul\n      or\n      swap1\n      sstore\n      pop\n        /* \"contracts/Crowdfunding.sol\":1840:2111  if(block.timestamp >= deadline){... */\n    tag_281:\n        /* \"contracts/Crowdfunding.sol\":1793:2121  if(state == CampaignState.Active){... */\n    tag_275:\n        /* \"contracts/Crowdfunding.sol\":1735:2127  function checkAndUpdateCampaignState() internal {... */\n      jump\t// out\n    tag_217:\n      pop\n      dup1\n      sload\n      tag_286\n      swap1\n      tag_118\n      jump\t// in\n    tag_286:\n      0x00\n      dup3\n      sstore\n      dup1\n      0x1f\n      lt\n      tag_288\n      jumpi\n      pop\n      jump(tag_287)\n    tag_288:\n      0x1f\n      add\n      0x20\n      swap1\n      div\n      swap1\n      0x00\n      mstore\n      keccak256(0x00, 0x20)\n      swap1\n      dup2\n      add\n      swap1\n      tag_289\n      swap2\n      swap1\n      tag_290\n      jump\t// in\n    tag_289:\n    tag_287:\n      pop\n      jump\t// out\n    tag_290:\n    tag_291:\n      dup1\n      dup3\n      gt\n      iszero\n      tag_292\n      jumpi\n      0x00\n      dup2\n      0x00\n      swap1\n      sstore\n      pop\n      0x01\n      add\n      jump(tag_291)\n    tag_292:\n      pop\n      swap1\n      jump\t// out\n        /* \"#utility.yul\":7:82   */\n    tag_293:\n        /* \"#utility.yul\":40:46   */\n      0x00\n        /* \"#utility.yul\":73:75   */\n      0x40\n        /* \"#utility.yul\":67:76   */\n      mload\n        /* \"#utility.yul\":57:76   */\n      swap1\n      pop\n        /* \"#utility.yul\":7:82   */\n      swap1\n      jump\t// out\n        /* \"#utility.yul\":88:205   */\n    tag_294:\n        /* \"#utility.yul\":197:198   */\n      0x00\n        /* \"#utility.yul\":194:195   */\n      dup1\n        /* \"#utility.yul\":187:199   */\n      revert\n        /* \"#utility.yul\":211:328   */\n    tag_295:\n        /* \"#utility.yul\":320:321   */\n      0x00\n        /* \"#utility.yul\":317:318   */\n      dup1\n        /* \"#utility.yul\":310:322   */\n      revert\n        /* \"#utility.yul\":334:411   */\n    tag_296:\n        /* \"#utility.yul\":371:378   */\n      0x00\n        /* \"#utility.yul\":400:405   */\n      dup2\n        /* \"#utility.yul\":389:405   */\n      swap1\n      pop\n        /* \"#utility.yul\":334:411   */\n      swap2\n      swap1\n      pop\n      jump\t// out\n        /* \"#utility.yul\":417:539   */\n    tag_297:\n        /* \"#utility.yul\":490:514   */\n      tag_381\n        /* \"#utility.yul\":508:513   */\n      dup2\n        /* \"#utility.yul\":490:514   */\n      tag_296\n      jump\t// in\n    tag_381:\n        /* \"#utility.yul\":483:488   */\n      dup2\n        /* \"#utility.yul\":480:515   */\n      eq\n        /* \"#utility.yul\":470:533   */\n      tag_382\n      jumpi\n        /* \"#utility.yul\":529:530   */\n      0x00\n        /* \"#utility.yul\":526:527   */\n      dup1\n        /* \"#utility.yul\":519:531   */\n      revert\n        /* \"#utility.yul\":470:533   */\n    tag_382:\n        /* \"#utility.yul\":417:539   */\n      pop\n      jump\t// out\n        /* \"#utility.yul\":545:684   */\n    tag_298:\n        /* \"#utility.yul\":591:596   */\n      0x00\n        /* \"#utility.yul\":629:635   */\n      dup2\n        /* \"#utility.yul\":616:636   */\n      calldataload\n        /* \"#utility.yul\":607:636   */\n      swap1\n      pop\n        /* \"#utility.yul\":645:678   */\n      tag_384\n        /* \"#utility.yul\":672:677   */\n      dup2\n        /* \"#utility.yul\":645:678   */\n      tag_297\n      jump\t// in\n    tag_384:\n        /* \"#utility.yul\":545:684   */\n      swap3\n      swap2\n      pop\n      pop\n      jump\t// out\n        /* \"#utility.yul\":690:1019   */\n    tag_28:\n        /* \"#utility.yul\":749:755   */\n      0x00\n        /* \"#utility.yul\":798:800   */\n      0x20\n        /* \"#utility.yul\":786:795   */\n      dup3\n        /* \"#utility.yul\":777:784   */\n      dup5\n        /* \"#utility.yul\":773:796   */\n      sub\n        /* \"#utility.yul\":769:801   */\n      slt\n        /* \"#utility.yul\":766:885   */\n      iszero\n      tag_386\n      jumpi\n        /* \"#utility.yul\":804:883   */\n      tag_387\n      tag_294\n      jump\t// in\n    tag_387:\n        /* \"#utility.yul\":766:885   */\n    tag_386:\n        /* \"#utility.yul\":924:925   */\n      0x00\n        /* \"#utility.yul\":949:1002   */\n      tag_388\n        /* \"#utility.yul\":994:1001   */\n      dup5\n        /* \"#utility.yul\":985:991   */\n      dup3\n        /* \"#utility.yul\":974:983   */\n      dup6\n        /* \"#utility.yul\":970:992   */\n      add\n        /* \"#utility.yul\":949:1002   */\n      tag_298\n      jump\t// in\n    tag_388:\n        /* \"#utility.yul\":939:1002   */\n      swap2\n      pop\n        /* \"#utility.yul\":895:1012   */\n      pop\n        /* \"#utility.yul\":690:1019   */\n      swap3\n      swap2\n      pop\n      pop\n      jump\t// out\n        /* \"#utility.yul\":1025:1124   */\n    tag_299:\n        /* \"#utility.yul\":1077:1083   */\n      0x00\n        /* \"#utility.yul\":1111:1116   */\n      dup2\n        /* \"#utility.yul\":1105:1117   */\n      mload\n        /* \"#utility.yul\":1095:1117   */\n      swap1\n      pop\n        /* \"#utility.yul\":1025:1124   */\n      swap2\n      swap1\n      pop\n      jump\t// out\n        /* \"#utility.yul\":1130:1299   */\n    tag_300:\n        /* \"#utility.yul\":1214:1225   */\n      0x00\n        /* \"#utility.yul\":1248:1254   */\n      dup3\n        /* \"#utility.yul\":1243:1246   */\n      dup3\n        /* \"#utility.yul\":1236:1255   */\n      mstore\n        /* \"#utility.yul\":1288:1292   */\n      0x20\n        /* \"#utility.yul\":1283:1286   */\n      dup3\n        /* \"#utility.yul\":1279:1293   */\n      add\n        /* \"#utility.yul\":1264:1293   */\n      swap1\n      pop\n        /* \"#utility.yul\":1130:1299   */\n      swap3\n      swap2\n      pop\n      pop\n      jump\t// out\n        /* \"#utility.yul\":1305:1444   */\n    tag_301:\n        /* \"#utility.yul\":1394:1400   */\n      dup3\n        /* \"#utility.yul\":1389:1392   */\n      dup2\n        /* \"#utility.yul\":1384:1387   */\n      dup4\n        /* \"#utility.yul\":1378:1401   */\n      mcopy\n        /* \"#utility.yul\":1435:1436   */\n      0x00\n        /* \"#utility.yul\":1426:1432   */\n      dup4\n        /* \"#utility.yul\":1421:1424   */\n      dup4\n        /* \"#utility.yul\":1417:1433   */\n      add\n        /* \"#utility.yul\":1410:1437   */\n      mstore\n        /* \"#utility.yul\":1305:1444   */\n      pop\n      pop\n      pop\n      jump\t// out\n        /* \"#utility.yul\":1450:1552   */\n    tag_302:\n        /* \"#utility.yul\":1491:1497   */\n      0x00\n        /* \"#utility.yul\":1542:1544   */\n      0x1f\n        /* \"#utility.yul\":1538:1545   */\n      not\n        /* \"#utility.yul\":1533:1535   */\n      0x1f\n        /* \"#utility.yul\":1526:1531   */\n      dup4\n        /* \"#utility.yul\":1522:1536   */\n      add\n        /* \"#utility.yul\":1518:1546   */\n      and\n        /* \"#utility.yul\":1508:1546   */\n      swap1\n      pop\n        /* \"#utility.yul\":1450:1552   */\n      swap2\n      swap1\n      pop\n      jump\t// out\n        /* \"#utility.yul\":1558:1935   */\n    tag_303:\n        /* \"#utility.yul\":1646:1649   */\n      0x00\n        /* \"#utility.yul\":1674:1713   */\n      tag_394\n        /* \"#utility.yul\":1707:1712   */\n      dup3\n        /* \"#utility.yul\":1674:1713   */\n      tag_299\n      jump\t// in\n    tag_394:\n        /* \"#utility.yul\":1729:1800   */\n      tag_395\n        /* \"#utility.yul\":1793:1799   */\n      dup2\n        /* \"#utility.yul\":1788:1791   */\n      dup6\n        /* \"#utility.yul\":1729:1800   */\n      tag_300\n      jump\t// in\n    tag_395:\n        /* \"#utility.yul\":1722:1800   */\n      swap4\n      pop\n        /* \"#utility.yul\":1809:1874   */\n      tag_396\n        /* \"#utility.yul\":1867:1873   */\n      dup2\n        /* \"#utility.yul\":1862:1865   */\n      dup6\n        /* \"#utility.yul\":1855:1859   */\n      0x20\n        /* \"#utility.yul\":1848:1853   */\n      dup7\n        /* \"#utility.yul\":1844:1860   */\n      add\n        /* \"#utility.yul\":1809:1874   */\n      tag_301\n      jump\t// in\n    tag_396:\n        /* \"#utility.yul\":1899:1928   */\n      tag_397\n        /* \"#utility.yul\":1921:1927   */\n      dup2\n        /* \"#utility.yul\":1899:1928   */\n      tag_302\n      jump\t// in\n    tag_397:\n        /* \"#utility.yul\":1894:1897   */\n      dup5\n        /* \"#utility.yul\":1890:1929   */\n      add\n        /* \"#utility.yul\":1883:1929   */\n      swap2\n      pop\n        /* \"#utility.yul\":1650:1935   */\n      pop\n        /* \"#utility.yul\":1558:1935   */\n      swap3\n      swap2\n      pop\n      pop\n      jump\t// out\n        /* \"#utility.yul\":1941:2059   */\n    tag_304:\n        /* \"#utility.yul\":2028:2052   */\n      tag_399\n        /* \"#utility.yul\":2046:2051   */\n      dup2\n        /* \"#utility.yul\":2028:2052   */\n      tag_296\n      jump\t// in\n    tag_399:\n        /* \"#utility.yul\":2023:2026   */\n      dup3\n        /* \"#utility.yul\":2016:2053   */\n      mstore\n        /* \"#utility.yul\":1941:2059   */\n      pop\n      pop\n      jump\t// out\n        /* \"#utility.yul\":2065:2598   */\n    tag_31:\n        /* \"#utility.yul\":2234:2238   */\n      0x00\n        /* \"#utility.yul\":2272:2274   */\n      0x60\n        /* \"#utility.yul\":2261:2270   */\n      dup3\n        /* \"#utility.yul\":2257:2275   */\n      add\n        /* \"#utility.yul\":2249:2275   */\n      swap1\n      pop\n        /* \"#utility.yul\":2321:2330   */\n      dup2\n        /* \"#utility.yul\":2315:2319   */\n      dup2\n        /* \"#utility.yul\":2311:2331   */\n      sub\n        /* \"#utility.yul\":2307:2308   */\n      0x00\n        /* \"#utility.yul\":2296:2305   */\n      dup4\n        /* \"#utility.yul\":2292:2309   */\n      add\n        /* \"#utility.yul\":2285:2332   */\n      mstore\n        /* \"#utility.yul\":2349:2427   */\n      tag_401\n        /* \"#utility.yul\":2422:2426   */\n      dup2\n        /* \"#utility.yul\":2413:2419   */\n      dup7\n        /* \"#utility.yul\":2349:2427   */\n      tag_303\n      jump\t// in\n    tag_401:\n        /* \"#utility.yul\":2341:2427   */\n      swap1\n      pop\n        /* \"#utility.yul\":2437:2509   */\n      tag_402\n        /* \"#utility.yul\":2505:2507   */\n      0x20\n        /* \"#utility.yul\":2494:2503   */\n      dup4\n        /* \"#utility.yul\":2490:2508   */\n      add\n        /* \"#utility.yul\":2481:2487   */\n      dup6\n        /* \"#utility.yul\":2437:2509   */\n      tag_304\n      jump\t// in\n    tag_402:\n        /* \"#utility.yul\":2519:2591   */\n      tag_403\n        /* \"#utility.yul\":2587:2589   */\n      0x40\n        /* \"#utility.yul\":2576:2585   */\n      dup4\n        /* \"#utility.yul\":2572:2590   */\n      add\n        /* \"#utility.yul\":2563:2569   */\n      dup5\n        /* \"#utility.yul\":2519:2591   */\n      tag_304\n      jump\t// in\n    tag_403:\n        /* \"#utility.yul\":2065:2598   */\n      swap5\n      swap4\n      pop\n      pop\n      pop\n      pop\n      jump\t// out\n        /* \"#utility.yul\":2604:2917   */\n    tag_36:\n        /* \"#utility.yul\":2717:2721   */\n      0x00\n        /* \"#utility.yul\":2755:2757   */\n      0x20\n        /* \"#utility.yul\":2744:2753   */\n      dup3\n        /* \"#utility.yul\":2740:2758   */\n      add\n        /* \"#utility.yul\":2732:2758   */\n      swap1\n      pop\n        /* \"#utility.yul\":2804:2813   */\n      dup2\n        /* \"#utility.yul\":2798:2802   */\n      dup2\n        /* \"#utility.yul\":2794:2814   */\n      sub\n        /* \"#utility.yul\":2790:2791   */\n      0x00\n        /* \"#utility.yul\":2779:2788   */\n      dup4\n        /* \"#utility.yul\":2775:2792   */\n      add\n        /* \"#utility.yul\":2768:2815   */\n      mstore\n        /* \"#utility.yul\":2832:2910   */\n      tag_405\n        /* \"#utility.yul\":2905:2909   */\n      dup2\n        /* \"#utility.yul\":2896:2902   */\n      dup5\n        /* \"#utility.yul\":2832:2910   */\n      tag_303\n      jump\t// in\n    tag_405:\n        /* \"#utility.yul\":2824:2910   */\n      swap1\n      pop\n        /* \"#utility.yul\":2604:2917   */\n      swap3\n      swap2\n      pop\n      pop\n      jump\t// out\n        /* \"#utility.yul\":2923:3103   */\n    tag_131:\n        /* \"#utility.yul\":2971:3048   */\n      0x4e487b7100000000000000000000000000000000000000000000000000000000\n        /* \"#utility.yul\":2968:2969   */\n      0x00\n        /* \"#utility.yul\":2961:3049   */\n      mstore\n        /* \"#utility.yul\":3068:3072   */\n      0x21\n        /* \"#utility.yul\":3065:3066   */\n      0x04\n        /* \"#utility.yul\":3058:3073   */\n      mstore\n        /* \"#utility.yul\":3092:3096   */\n      0x24\n        /* \"#utility.yul\":3089:3090   */\n      0x00\n        /* \"#utility.yul\":3082:3097   */\n      revert\n        /* \"#utility.yul\":3109:3230   */\n    tag_305:\n        /* \"#utility.yul\":3198:3199   */\n      0x03\n        /* \"#utility.yul\":3191:3196   */\n      dup2\n        /* \"#utility.yul\":3188:3200   */\n      lt\n        /* \"#utility.yul\":3178:3224   */\n      tag_408\n      jumpi\n        /* \"#utility.yul\":3204:3222   */\n      tag_409\n      tag_131\n      jump\t// in\n    tag_409:\n        /* \"#utility.yul\":3178:3224   */\n    tag_408:\n        /* \"#utility.yul\":3109:3230   */\n      pop\n      jump\t// out\n        /* \"#utility.yul\":3236:3379   */\n    tag_306:\n        /* \"#utility.yul\":3289:3296   */\n      0x00\n        /* \"#utility.yul\":3318:3323   */\n      dup2\n        /* \"#utility.yul\":3307:3323   */\n      swap1\n      pop\n        /* \"#utility.yul\":3324:3373   */\n      tag_411\n        /* \"#utility.yul\":3367:3372   */\n      dup3\n        /* \"#utility.yul\":3324:3373   */\n      tag_305\n      jump\t// in\n    tag_411:\n        /* \"#utility.yul\":3236:3379   */\n      swap2\n      swap1\n      pop\n      jump\t// out\n        /* \"#utility.yul\":3385:3528   */\n    tag_307:\n        /* \"#utility.yul\":3449:3458   */\n      0x00\n        /* \"#utility.yul\":3482:3522   */\n      tag_413\n        /* \"#utility.yul\":3516:3521   */\n      dup3\n        /* \"#utility.yul\":3482:3522   */\n      tag_306\n      jump\t// in\n    tag_413:\n        /* \"#utility.yul\":3469:3522   */\n      swap1\n      pop\n        /* \"#utility.yul\":3385:3528   */\n      swap2\n      swap1\n      pop\n      jump\t// out\n        /* \"#utility.yul\":3534:3693   */\n    tag_308:\n        /* \"#utility.yul\":3635:3686   */\n      tag_415\n        /* \"#utility.yul\":3680:3685   */\n      dup2\n        /* \"#utility.yul\":3635:3686   */\n      tag_307\n      jump\t// in\n    tag_415:\n        /* \"#utility.yul\":3630:3633   */\n      dup3\n        /* \"#utility.yul\":3623:3687   */\n      mstore\n        /* \"#utility.yul\":3534:3693   */\n      pop\n      pop\n      jump\t// out\n        /* \"#utility.yul\":3699:3949   */\n    tag_41:\n        /* \"#utility.yul\":3806:3810   */\n      0x00\n        /* \"#utility.yul\":3844:3846   */\n      0x20\n        /* \"#utility.yul\":3833:3842   */\n      dup3\n        /* \"#utility.yul\":3829:3847   */\n      add\n        /* \"#utility.yul\":3821:3847   */\n      swap1\n      pop\n        /* \"#utility.yul\":3857:3942   */\n      tag_417\n        /* \"#utility.yul\":3939:3940   */\n      0x00\n        /* \"#utility.yul\":3928:3937   */\n      dup4\n        /* \"#utility.yul\":3924:3941   */\n      add\n        /* \"#utility.yul\":3915:3921   */\n      dup5\n        /* \"#utility.yul\":3857:3942   */\n      tag_308\n      jump\t// in\n    tag_417:\n        /* \"#utility.yul\":3699:3949   */\n      swap3\n      swap2\n      pop\n      pop\n      jump\t// out\n        /* \"#utility.yul\":3955:4177   */\n    tag_46:\n        /* \"#utility.yul\":4048:4052   */\n      0x00\n        /* \"#utility.yul\":4086:4088   */\n      0x20\n        /* \"#utility.yul\":4075:4084   */\n      dup3\n        /* \"#utility.yul\":4071:4089   */\n      add\n        /* \"#utility.yul\":4063:4089   */\n      swap1\n      pop\n        /* \"#utility.yul\":4099:4170   */\n      tag_419\n        /* \"#utility.yul\":4167:4168   */\n      0x00\n        /* \"#utility.yul\":4156:4165   */\n      dup4\n        /* \"#utility.yul\":4152:4169   */\n      add\n        /* \"#utility.yul\":4143:4149   */\n      dup5\n        /* \"#utility.yul\":4099:4170   */\n      tag_304\n      jump\t// in\n    tag_419:\n        /* \"#utility.yul\":3955:4177   */\n      swap3\n      swap2\n      pop\n      pop\n      jump\t// out\n        /* \"#utility.yul\":4183:4273   */\n    tag_309:\n        /* \"#utility.yul\":4217:4224   */\n      0x00\n        /* \"#utility.yul\":4260:4265   */\n      dup2\n        /* \"#utility.yul\":4253:4266   */\n      iszero\n        /* \"#utility.yul\":4246:4267   */\n      iszero\n        /* \"#utility.yul\":4235:4267   */\n      swap1\n      pop\n        /* \"#utility.yul\":4183:4273   */\n      swap2\n      swap1\n      pop\n      jump\t// out\n        /* \"#utility.yul\":4279:4388   */\n    tag_310:\n        /* \"#utility.yul\":4360:4381   */\n      tag_422\n        /* \"#utility.yul\":4375:4380   */\n      dup2\n        /* \"#utility.yul\":4360:4381   */\n      tag_309\n      jump\t// in\n    tag_422:\n        /* \"#utility.yul\":4355:4358   */\n      dup3\n        /* \"#utility.yul\":4348:4382   */\n      mstore\n        /* \"#utility.yul\":4279:4388   */\n      pop\n      pop\n      jump\t// out\n        /* \"#utility.yul\":4394:4604   */\n    tag_65:\n        /* \"#utility.yul\":4481:4485   */\n      0x00\n        /* \"#utility.yul\":4519:4521   */\n      0x20\n        /* \"#utility.yul\":4508:4517   */\n      dup3\n        /* \"#utility.yul\":4504:4522   */\n      add\n        /* \"#utility.yul\":4496:4522   */\n      swap1\n      pop\n        /* \"#utility.yul\":4532:4597   */\n      tag_424\n        /* \"#utility.yul\":4594:4595   */\n      0x00\n        /* \"#utility.yul\":4583:4592   */\n      dup4\n        /* \"#utility.yul\":4579:4596   */\n      add\n        /* \"#utility.yul\":4570:4576   */\n      dup5\n        /* \"#utility.yul\":4532:4597   */\n      tag_310\n      jump\t// in\n    tag_424:\n        /* \"#utility.yul\":4394:4604   */\n      swap3\n      swap2\n      pop\n      pop\n      jump\t// out\n        /* \"#utility.yul\":4610:4736   */\n    tag_311:\n        /* \"#utility.yul\":4647:4654   */\n      0x00\n        /* \"#utility.yul\":4687:4729   */\n      0xffffffffffffffffffffffffffffffffffffffff\n        /* \"#utility.yul\":4680:4685   */\n      dup3\n        /* \"#utility.yul\":4676:4730   */\n      and\n        /* \"#utility.yul\":4665:4730   */\n      swap1\n      pop\n        /* \"#utility.yul\":4610:4736   */\n      swap2\n      swap1\n      pop\n      jump\t// out\n        /* \"#utility.yul\":4742:4838   */\n    tag_312:\n        /* \"#utility.yul\":4779:4786   */\n      0x00\n        /* \"#utility.yul\":4808:4832   */\n      tag_427\n        /* \"#utility.yul\":4826:4831   */\n      dup3\n        /* \"#utility.yul\":4808:4832   */\n      tag_311\n      jump\t// in\n    tag_427:\n        /* \"#utility.yul\":4797:4832   */\n      swap1\n      pop\n        /* \"#utility.yul\":4742:4838   */\n      swap2\n      swap1\n      pop\n      jump\t// out\n        /* \"#utility.yul\":4844:4966   */\n    tag_313:\n        /* \"#utility.yul\":4917:4941   */\n      tag_429\n        /* \"#utility.yul\":4935:4940   */\n      dup2\n        /* \"#utility.yul\":4917:4941   */\n      tag_312\n      jump\t// in\n    tag_429:\n        /* \"#utility.yul\":4910:4915   */\n      dup2\n        /* \"#utility.yul\":4907:4942   */\n      eq\n        /* \"#utility.yul\":4897:4960   */\n      tag_430\n      jumpi\n        /* \"#utility.yul\":4956:4957   */\n      0x00\n        /* \"#utility.yul\":4953:4954   */\n      dup1\n        /* \"#utility.yul\":4946:4958   */\n      revert\n        /* \"#utility.yul\":4897:4960   */\n    tag_430:\n        /* \"#utility.yul\":4844:4966   */\n      pop\n      jump\t// out\n        /* \"#utility.yul\":4972:5111   */\n    tag_314:\n        /* \"#utility.yul\":5018:5023   */\n      0x00\n        /* \"#utility.yul\":5056:5062   */\n      dup2\n        /* \"#utility.yul\":5043:5063   */\n      calldataload\n        /* \"#utility.yul\":5034:5063   */\n      swap1\n      pop\n        /* \"#utility.yul\":5072:5105   */\n      tag_432\n        /* \"#utility.yul\":5099:5104   */\n      dup2\n        /* \"#utility.yul\":5072:5105   */\n      tag_313\n      jump\t// in\n    tag_432:\n        /* \"#utility.yul\":4972:5111   */\n      swap3\n      swap2\n      pop\n      pop\n      jump\t// out\n        /* \"#utility.yul\":5117:5591   */\n    tag_81:\n        /* \"#utility.yul\":5185:5191   */\n      0x00\n        /* \"#utility.yul\":5193:5199   */\n      dup1\n        /* \"#utility.yul\":5242:5244   */\n      0x40\n        /* \"#utility.yul\":5230:5239   */\n      dup4\n        /* \"#utility.yul\":5221:5228   */\n      dup6\n        /* \"#utility.yul\":5217:5240   */\n      sub\n        /* \"#utility.yul\":5213:5245   */\n      slt\n        /* \"#utility.yul\":5210:5329   */\n      iszero\n      tag_434\n      jumpi\n        /* \"#utility.yul\":5248:5327   */\n      tag_435\n      tag_294\n      jump\t// in\n    tag_435:\n        /* \"#utility.yul\":5210:5329   */\n    tag_434:\n        /* \"#utility.yul\":5368:5369   */\n      0x00\n        /* \"#utility.yul\":5393:5446   */\n      tag_436\n        /* \"#utility.yul\":5438:5445   */\n      dup6\n        /* \"#utility.yul\":5429:5435   */\n      dup3\n        /* \"#utility.yul\":5418:5427   */\n      dup7\n        /* \"#utility.yul\":5414:5436   */\n      add\n        /* \"#utility.yul\":5393:5446   */\n      tag_314\n      jump\t// in\n    tag_436:\n        /* \"#utility.yul\":5383:5446   */\n      swap3\n      pop\n        /* \"#utility.yul\":5339:5456   */\n      pop\n        /* \"#utility.yul\":5495:5497   */\n      0x20\n        /* \"#utility.yul\":5521:5574   */\n      tag_437\n        /* \"#utility.yul\":5566:5573   */\n      dup6\n        /* \"#utility.yul\":5557:5563   */\n      dup3\n        /* \"#utility.yul\":5546:5555   */\n      dup7\n        /* \"#utility.yul\":5542:5564   */\n      add\n        /* \"#utility.yul\":5521:5574   */\n      tag_298\n      jump\t// in\n    tag_437:\n        /* \"#utility.yul\":5511:5574   */\n      swap2\n      pop\n        /* \"#utility.yul\":5466:5584   */\n      pop\n        /* \"#utility.yul\":5117:5591   */\n      swap3\n      pop\n      swap3\n      swap1\n      pop\n      jump\t// out\n        /* \"#utility.yul\":5597:5715   */\n    tag_315:\n        /* \"#utility.yul\":5684:5708   */\n      tag_439\n        /* \"#utility.yul\":5702:5707   */\n      dup2\n        /* \"#utility.yul\":5684:5708   */\n      tag_312\n      jump\t// in\n    tag_439:\n        /* \"#utility.yul\":5679:5682   */\n      dup3\n        /* \"#utility.yul\":5672:5709   */\n      mstore\n        /* \"#utility.yul\":5597:5715   */\n      pop\n      pop\n      jump\t// out\n        /* \"#utility.yul\":5721:5943   */\n    tag_88:\n        /* \"#utility.yul\":5814:5818   */\n      0x00\n        /* \"#utility.yul\":5852:5854   */\n      0x20\n        /* \"#utility.yul\":5841:5850   */\n      dup3\n        /* \"#utility.yul\":5837:5855   */\n      add\n        /* \"#utility.yul\":5829:5855   */\n      swap1\n      pop\n        /* \"#utility.yul\":5865:5936   */\n      tag_441\n        /* \"#utility.yul\":5933:5934   */\n      0x00\n        /* \"#utility.yul\":5922:5931   */\n      dup4\n        /* \"#utility.yul\":5918:5935   */\n      add\n        /* \"#utility.yul\":5909:5915   */\n      dup5\n        /* \"#utility.yul\":5865:5936   */\n      tag_315\n      jump\t// in\n    tag_441:\n        /* \"#utility.yul\":5721:5943   */\n      swap3\n      swap2\n      pop\n      pop\n      jump\t// out\n        /* \"#utility.yul\":5949:6066   */\n    tag_316:\n        /* \"#utility.yul\":6058:6059   */\n      0x00\n        /* \"#utility.yul\":6055:6056   */\n      dup1\n        /* \"#utility.yul\":6048:6060   */\n      revert\n        /* \"#utility.yul\":6072:6189   */\n    tag_317:\n        /* \"#utility.yul\":6181:6182   */\n      0x00\n        /* \"#utility.yul\":6178:6179   */\n      dup1\n        /* \"#utility.yul\":6171:6183   */\n      revert\n        /* \"#utility.yul\":6195:6375   */\n    tag_318:\n        /* \"#utility.yul\":6243:6320   */\n      0x4e487b7100000000000000000000000000000000000000000000000000000000\n        /* \"#utility.yul\":6240:6241   */\n      0x00\n        /* \"#utility.yul\":6233:6321   */\n      mstore\n        /* \"#utility.yul\":6340:6344   */\n      0x41\n        /* \"#utility.yul\":6337:6338   */\n      0x04\n        /* \"#utility.yul\":6330:6345   */\n      mstore\n        /* \"#utility.yul\":6364:6368   */\n      0x24\n        /* \"#utility.yul\":6361:6362   */\n      0x00\n        /* \"#utility.yul\":6354:6369   */\n      revert\n        /* \"#utility.yul\":6381:6662   */\n    tag_319:\n        /* \"#utility.yul\":6464:6491   */\n      tag_446\n        /* \"#utility.yul\":6486:6490   */\n      dup3\n        /* \"#utility.yul\":6464:6491   */\n      tag_302\n      jump\t// in\n    tag_446:\n        /* \"#utility.yul\":6456:6462   */\n      dup2\n        /* \"#utility.yul\":6452:6492   */\n      add\n        /* \"#utility.yul\":6594:6600   */\n      dup2\n        /* \"#utility.yul\":6582:6592   */\n      dup2\n        /* \"#utility.yul\":6579:6601   */\n      lt\n        /* \"#utility.yul\":6558:6576   */\n      0xffffffffffffffff\n        /* \"#utility.yul\":6546:6556   */\n      dup3\n        /* \"#utility.yul\":6543:6577   */\n      gt\n        /* \"#utility.yul\":6540:6602   */\n      or\n        /* \"#utility.yul\":6537:6625   */\n      iszero\n      tag_447\n      jumpi\n        /* \"#utility.yul\":6605:6623   */\n      tag_448\n      tag_318\n      jump\t// in\n    tag_448:\n        /* \"#utility.yul\":6537:6625   */\n    tag_447:\n        /* \"#utility.yul\":6645:6655   */\n      dup1\n        /* \"#utility.yul\":6641:6643   */\n      0x40\n        /* \"#utility.yul\":6634:6656   */\n      mstore\n        /* \"#utility.yul\":6424:6662   */\n      pop\n        /* \"#utility.yul\":6381:6662   */\n      pop\n      pop\n      jump\t// out\n        /* \"#utility.yul\":6668:6797   */\n    tag_320:\n        /* \"#utility.yul\":6702:6708   */\n      0x00\n        /* \"#utility.yul\":6729:6749   */\n      tag_450\n      tag_293\n      jump\t// in\n    tag_450:\n        /* \"#utility.yul\":6719:6749   */\n      swap1\n      pop\n        /* \"#utility.yul\":6758:6791   */\n      tag_451\n        /* \"#utility.yul\":6786:6790   */\n      dup3\n        /* \"#utility.yul\":6778:6784   */\n      dup3\n        /* \"#utility.yul\":6758:6791   */\n      tag_319\n      jump\t// in\n    tag_451:\n        /* \"#utility.yul\":6668:6797   */\n      swap2\n      swap1\n      pop\n      jump\t// out\n        /* \"#utility.yul\":6803:7111   */\n    tag_321:\n        /* \"#utility.yul\":6865:6869   */\n      0x00\n        /* \"#utility.yul\":6955:6973   */\n      0xffffffffffffffff\n        /* \"#utility.yul\":6947:6953   */\n      dup3\n        /* \"#utility.yul\":6944:6974   */\n      gt\n        /* \"#utility.yul\":6941:6997   */\n      iszero\n      tag_453\n      jumpi\n        /* \"#utility.yul\":6977:6995   */\n      tag_454\n      tag_318\n      jump\t// in\n    tag_454:\n        /* \"#utility.yul\":6941:6997   */\n    tag_453:\n        /* \"#utility.yul\":7015:7044   */\n      tag_455\n        /* \"#utility.yul\":7037:7043   */\n      dup3\n        /* \"#utility.yul\":7015:7044   */\n      tag_302\n      jump\t// in\n    tag_455:\n        /* \"#utility.yul\":7007:7044   */\n      swap1\n      pop\n        /* \"#utility.yul\":7099:7103   */\n      0x20\n        /* \"#utility.yul\":7093:7097   */\n      dup2\n        /* \"#utility.yul\":7089:7104   */\n      add\n        /* \"#utility.yul\":7081:7104   */\n      swap1\n      pop\n        /* \"#utility.yul\":6803:7111   */\n      swap2\n      swap1\n      pop\n      jump\t// out\n        /* \"#utility.yul\":7117:7265   */\n    tag_322:\n        /* \"#utility.yul\":7215:7221   */\n      dup3\n        /* \"#utility.yul\":7210:7213   */\n      dup2\n        /* \"#utility.yul\":7205:7208   */\n      dup4\n        /* \"#utility.yul\":7192:7222   */\n      calldatacopy\n        /* \"#utility.yul\":7256:7257   */\n      0x00\n        /* \"#utility.yul\":7247:7253   */\n      dup4\n        /* \"#utility.yul\":7242:7245   */\n      dup4\n        /* \"#utility.yul\":7238:7254   */\n      add\n        /* \"#utility.yul\":7231:7258   */\n      mstore\n        /* \"#utility.yul\":7117:7265   */\n      pop\n      pop\n      pop\n      jump\t// out\n        /* \"#utility.yul\":7271:7696   */\n    tag_323:\n        /* \"#utility.yul\":7349:7354   */\n      0x00\n        /* \"#utility.yul\":7374:7440   */\n      tag_458\n        /* \"#utility.yul\":7390:7439   */\n      tag_459\n        /* \"#utility.yul\":7432:7438   */\n      dup5\n        /* \"#utility.yul\":7390:7439   */\n      tag_321\n      jump\t// in\n    tag_459:\n        /* \"#utility.yul\":7374:7440   */\n      tag_320\n      jump\t// in\n    tag_458:\n        /* \"#utility.yul\":7365:7440   */\n      swap1\n      pop\n        /* \"#utility.yul\":7463:7469   */\n      dup3\n        /* \"#utility.yul\":7456:7461   */\n      dup2\n        /* \"#utility.yul\":7449:7470   */\n      mstore\n        /* \"#utility.yul\":7501:7505   */\n      0x20\n        /* \"#utility.yul\":7494:7499   */\n      dup2\n        /* \"#utility.yul\":7490:7506   */\n      add\n        /* \"#utility.yul\":7539:7542   */\n      dup5\n        /* \"#utility.yul\":7530:7536   */\n      dup5\n        /* \"#utility.yul\":7525:7528   */\n      dup5\n        /* \"#utility.yul\":7521:7537   */\n      add\n        /* \"#utility.yul\":7518:7543   */\n      gt\n        /* \"#utility.yul\":7515:7627   */\n      iszero\n      tag_460\n      jumpi\n        /* \"#utility.yul\":7546:7625   */\n      tag_461\n      tag_317\n      jump\t// in\n    tag_461:\n        /* \"#utility.yul\":7515:7627   */\n    tag_460:\n        /* \"#utility.yul\":7636:7690   */\n      tag_462\n        /* \"#utility.yul\":7683:7689   */\n      dup5\n        /* \"#utility.yul\":7678:7681   */\n      dup3\n        /* \"#utility.yul\":7673:7676   */\n      dup6\n        /* \"#utility.yul\":7636:7690   */\n      tag_322\n      jump\t// in\n    tag_462:\n        /* \"#utility.yul\":7355:7696   */\n      pop\n        /* \"#utility.yul\":7271:7696   */\n      swap4\n      swap3\n      pop\n      pop\n      pop\n      jump\t// out\n        /* \"#utility.yul\":7716:8056   */\n    tag_324:\n        /* \"#utility.yul\":7772:7777   */\n      0x00\n        /* \"#utility.yul\":7821:7824   */\n      dup3\n        /* \"#utility.yul\":7814:7818   */\n      0x1f\n        /* \"#utility.yul\":7806:7812   */\n      dup4\n        /* \"#utility.yul\":7802:7819   */\n      add\n        /* \"#utility.yul\":7798:7825   */\n      slt\n        /* \"#utility.yul\":7788:7910   */\n      tag_464\n      jumpi\n        /* \"#utility.yul\":7829:7908   */\n      tag_465\n      tag_316\n      jump\t// in\n    tag_465:\n        /* \"#utility.yul\":7788:7910   */\n    tag_464:\n        /* \"#utility.yul\":7946:7952   */\n      dup2\n        /* \"#utility.yul\":7933:7953   */\n      calldataload\n        /* \"#utility.yul\":7971:8050   */\n      tag_466\n        /* \"#utility.yul\":8046:8049   */\n      dup5\n        /* \"#utility.yul\":8038:8044   */\n      dup3\n        /* \"#utility.yul\":8031:8035   */\n      0x20\n        /* \"#utility.yul\":8023:8029   */\n      dup7\n        /* \"#utility.yul\":8019:8036   */\n      add\n        /* \"#utility.yul\":7971:8050   */\n      tag_323\n      jump\t// in\n    tag_466:\n        /* \"#utility.yul\":7962:8050   */\n      swap2\n      pop\n        /* \"#utility.yul\":7778:8056   */\n      pop\n        /* \"#utility.yul\":7716:8056   */\n      swap3\n      swap2\n      pop\n      pop\n      jump\t// out\n        /* \"#utility.yul\":8062:8716   */\n    tag_92:\n        /* \"#utility.yul\":8140:8146   */\n      0x00\n        /* \"#utility.yul\":8148:8154   */\n      dup1\n        /* \"#utility.yul\":8197:8199   */\n      0x40\n        /* \"#utility.yul\":8185:8194   */\n      dup4\n        /* \"#utility.yul\":8176:8183   */\n      dup6\n        /* \"#utility.yul\":8172:8195   */\n      sub\n        /* \"#utility.yul\":8168:8200   */\n      slt\n        /* \"#utility.yul\":8165:8284   */\n      iszero\n      tag_468\n      jumpi\n        /* \"#utility.yul\":8203:8282   */\n      tag_469\n      tag_294\n      jump\t// in\n    tag_469:\n        /* \"#utility.yul\":8165:8284   */\n    tag_468:\n        /* \"#utility.yul\":8351:8352   */\n      0x00\n        /* \"#utility.yul\":8340:8349   */\n      dup4\n        /* \"#utility.yul\":8336:8353   */\n      add\n        /* \"#utility.yul\":8323:8354   */\n      calldataload\n        /* \"#utility.yul\":8381:8399   */\n      0xffffffffffffffff\n        /* \"#utility.yul\":8373:8379   */\n      dup2\n        /* \"#utility.yul\":8370:8400   */\n      gt\n        /* \"#utility.yul\":8367:8484   */\n      iszero\n      tag_470\n      jumpi\n        /* \"#utility.yul\":8403:8482   */\n      tag_471\n      tag_295\n      jump\t// in\n    tag_471:\n        /* \"#utility.yul\":8367:8484   */\n    tag_470:\n        /* \"#utility.yul\":8508:8571   */\n      tag_472\n        /* \"#utility.yul\":8563:8570   */\n      dup6\n        /* \"#utility.yul\":8554:8560   */\n      dup3\n        /* \"#utility.yul\":8543:8552   */\n      dup7\n        /* \"#utility.yul\":8539:8561   */\n      add\n        /* \"#utility.yul\":8508:8571   */\n      tag_324\n      jump\t// in\n    tag_472:\n        /* \"#utility.yul\":8498:8571   */\n      swap3\n      pop\n        /* \"#utility.yul\":8294:8581   */\n      pop\n        /* \"#utility.yul\":8620:8622   */\n      0x20\n        /* \"#utility.yul\":8646:8699   */\n      tag_473\n        /* \"#utility.yul\":8691:8698   */\n      dup6\n        /* \"#utility.yul\":8682:8688   */\n      dup3\n        /* \"#utility.yul\":8671:8680   */\n      dup7\n        /* \"#utility.yul\":8667:8689   */\n      add\n        /* \"#utility.yul\":8646:8699   */\n      tag_298\n      jump\t// in\n    tag_473:\n        /* \"#utility.yul\":8636:8699   */\n      swap2\n      pop\n        /* \"#utility.yul\":8591:8709   */\n      pop\n        /* \"#utility.yul\":8062:8716   */\n      swap3\n      pop\n      swap3\n      swap1\n      pop\n      jump\t// out\n        /* \"#utility.yul\":8722:9051   */\n    tag_97:\n        /* \"#utility.yul\":8781:8787   */\n      0x00\n        /* \"#utility.yul\":8830:8832   */\n      0x20\n        /* \"#utility.yul\":8818:8827   */\n      dup3\n        /* \"#utility.yul\":8809:8816   */\n      dup5\n        /* \"#utility.yul\":8805:8828   */\n      sub\n        /* \"#utility.yul\":8801:8833   */\n      slt\n        /* \"#utility.yul\":8798:8917   */\n      iszero\n      tag_475\n      jumpi\n        /* \"#utility.yul\":8836:8915   */\n      tag_476\n      tag_294\n      jump\t// in\n    tag_476:\n        /* \"#utility.yul\":8798:8917   */\n    tag_475:\n        /* \"#utility.yul\":8956:8957   */\n      0x00\n        /* \"#utility.yul\":8981:9034   */\n      tag_477\n        /* \"#utility.yul\":9026:9033   */\n      dup5\n        /* \"#utility.yul\":9017:9023   */\n      dup3\n        /* \"#utility.yul\":9006:9015   */\n      dup6\n        /* \"#utility.yul\":9002:9024   */\n      add\n        /* \"#utility.yul\":8981:9034   */\n      tag_314\n      jump\t// in\n    tag_477:\n        /* \"#utility.yul\":8971:9034   */\n      swap2\n      pop\n        /* \"#utility.yul\":8927:9044   */\n      pop\n        /* \"#utility.yul\":8722:9051   */\n      swap3\n      swap2\n      pop\n      pop\n      jump\t// out\n        /* \"#utility.yul\":9057:9191   */\n    tag_325:\n        /* \"#utility.yul\":9144:9150   */\n      0x00\n        /* \"#utility.yul\":9178:9183   */\n      dup2\n        /* \"#utility.yul\":9172:9184   */\n      mload\n        /* \"#utility.yul\":9162:9184   */\n      swap1\n      pop\n        /* \"#utility.yul\":9057:9191   */\n      swap2\n      swap1\n      pop\n      jump\t// out\n        /* \"#utility.yul\":9197:9401   */\n    tag_326:\n        /* \"#utility.yul\":9316:9327   */\n      0x00\n        /* \"#utility.yul\":9350:9356   */\n      dup3\n        /* \"#utility.yul\":9345:9348   */\n      dup3\n        /* \"#utility.yul\":9338:9357   */\n      mstore\n        /* \"#utility.yul\":9390:9394   */\n      0x20\n        /* \"#utility.yul\":9385:9388   */\n      dup3\n        /* \"#utility.yul\":9381:9395   */\n      add\n        /* \"#utility.yul\":9366:9395   */\n      swap1\n      pop\n        /* \"#utility.yul\":9197:9401   */\n      swap3\n      swap2\n      pop\n      pop\n      jump\t// out\n        /* \"#utility.yul\":9407:9559   */\n    tag_327:\n        /* \"#utility.yul\":9494:9498   */\n      0x00\n        /* \"#utility.yul\":9517:9520   */\n      dup2\n        /* \"#utility.yul\":9509:9520   */\n      swap1\n      pop\n        /* \"#utility.yul\":9547:9551   */\n      0x20\n        /* \"#utility.yul\":9542:9545   */\n      dup3\n        /* \"#utility.yul\":9538:9552   */\n      add\n        /* \"#utility.yul\":9530:9552   */\n      swap1\n      pop\n        /* \"#utility.yul\":9407:9559   */\n      swap2\n      swap1\n      pop\n      jump\t// out\n        /* \"#utility.yul\":9565:9724   */\n    tag_328:\n        /* \"#utility.yul\":9639:9650   */\n      0x00\n        /* \"#utility.yul\":9673:9679   */\n      dup3\n        /* \"#utility.yul\":9668:9671   */\n      dup3\n        /* \"#utility.yul\":9661:9680   */\n      mstore\n        /* \"#utility.yul\":9713:9717   */\n      0x20\n        /* \"#utility.yul\":9708:9711   */\n      dup3\n        /* \"#utility.yul\":9704:9718   */\n      add\n        /* \"#utility.yul\":9689:9718   */\n      swap1\n      pop\n        /* \"#utility.yul\":9565:9724   */\n      swap3\n      swap2\n      pop\n      pop\n      jump\t// out\n        /* \"#utility.yul\":9730:10087   */\n    tag_329:\n        /* \"#utility.yul\":9808:9811   */\n      0x00\n        /* \"#utility.yul\":9836:9875   */\n      tag_483\n        /* \"#utility.yul\":9869:9874   */\n      dup3\n        /* \"#utility.yul\":9836:9875   */\n      tag_299\n      jump\t// in\n    tag_483:\n        /* \"#utility.yul\":9891:9952   */\n      tag_484\n        /* \"#utility.yul\":9945:9951   */\n      dup2\n        /* \"#utility.yul\":9940:9943   */\n      dup6\n        /* \"#utility.yul\":9891:9952   */\n      tag_328\n      jump\t// in\n    tag_484:\n        /* \"#utility.yul\":9884:9952   */\n      swap4\n      pop\n        /* \"#utility.yul\":9961:10026   */\n      tag_485\n        /* \"#utility.yul\":10019:10025   */\n      dup2\n        /* \"#utility.yul\":10014:10017   */\n      dup6\n        /* \"#utility.yul\":10007:10011   */\n      0x20\n        /* \"#utility.yul\":10000:10005   */\n      dup7\n        /* \"#utility.yul\":9996:10012   */\n      add\n        /* \"#utility.yul\":9961:10026   */\n      tag_301\n      jump\t// in\n    tag_485:\n        /* \"#utility.yul\":10051:10080   */\n      tag_486\n        /* \"#utility.yul\":10073:10079   */\n      dup2\n        /* \"#utility.yul\":10051:10080   */\n      tag_302\n      jump\t// in\n    tag_486:\n        /* \"#utility.yul\":10046:10049   */\n      dup5\n        /* \"#utility.yul\":10042:10081   */\n      add\n        /* \"#utility.yul\":10035:10081   */\n      swap2\n      pop\n        /* \"#utility.yul\":9812:10087   */\n      pop\n        /* \"#utility.yul\":9730:10087   */\n      swap3\n      swap2\n      pop\n      pop\n      jump\t// out\n        /* \"#utility.yul\":10093:10201   */\n    tag_330:\n        /* \"#utility.yul\":10170:10194   */\n      tag_488\n        /* \"#utility.yul\":10188:10193   */\n      dup2\n        /* \"#utility.yul\":10170:10194   */\n      tag_296\n      jump\t// in\n    tag_488:\n        /* \"#utility.yul\":10165:10168   */\n      dup3\n        /* \"#utility.yul\":10158:10195   */\n      mstore\n        /* \"#utility.yul\":10093:10201   */\n      pop\n      pop\n      jump\t// out\n        /* \"#utility.yul\":10267:11032   */\n    tag_331:\n        /* \"#utility.yul\":10366:10369   */\n      0x00\n        /* \"#utility.yul\":10402:10406   */\n      0x60\n        /* \"#utility.yul\":10397:10400   */\n      dup4\n        /* \"#utility.yul\":10393:10407   */\n      add\n        /* \"#utility.yul\":10489:10493   */\n      0x00\n        /* \"#utility.yul\":10482:10487   */\n      dup4\n        /* \"#utility.yul\":10478:10494   */\n      add\n        /* \"#utility.yul\":10472:10495   */\n      mload\n        /* \"#utility.yul\":10542:10545   */\n      dup5\n        /* \"#utility.yul\":10536:10540   */\n      dup3\n        /* \"#utility.yul\":10532:10546   */\n      sub\n        /* \"#utility.yul\":10525:10529   */\n      0x00\n        /* \"#utility.yul\":10520:10523   */\n      dup7\n        /* \"#utility.yul\":10516:10530   */\n      add\n        /* \"#utility.yul\":10509:10547   */\n      mstore\n        /* \"#utility.yul\":10568:10641   */\n      tag_490\n        /* \"#utility.yul\":10636:10640   */\n      dup3\n        /* \"#utility.yul\":10622:10634   */\n      dup3\n        /* \"#utility.yul\":10568:10641   */\n      tag_329\n      jump\t// in\n    tag_490:\n        /* \"#utility.yul\":10560:10641   */\n      swap2\n      pop\n        /* \"#utility.yul\":10417:10652   */\n      pop\n        /* \"#utility.yul\":10736:10740   */\n      0x20\n        /* \"#utility.yul\":10729:10734   */\n      dup4\n        /* \"#utility.yul\":10725:10741   */\n      add\n        /* \"#utility.yul\":10719:10742   */\n      mload\n        /* \"#utility.yul\":10755:10818   */\n      tag_491\n        /* \"#utility.yul\":10812:10816   */\n      0x20\n        /* \"#utility.yul\":10807:10810   */\n      dup7\n        /* \"#utility.yul\":10803:10817   */\n      add\n        /* \"#utility.yul\":10789:10801   */\n      dup3\n        /* \"#utility.yul\":10755:10818   */\n      tag_330\n      jump\t// in\n    tag_491:\n        /* \"#utility.yul\":10662:10828   */\n      pop\n        /* \"#utility.yul\":10913:10917   */\n      0x40\n        /* \"#utility.yul\":10906:10911   */\n      dup4\n        /* \"#utility.yul\":10902:10918   */\n      add\n        /* \"#utility.yul\":10896:10919   */\n      mload\n        /* \"#utility.yul\":10932:10995   */\n      tag_492\n        /* \"#utility.yul\":10989:10993   */\n      0x40\n        /* \"#utility.yul\":10984:10987   */\n      dup7\n        /* \"#utility.yul\":10980:10994   */\n      add\n        /* \"#utility.yul\":10966:10978   */\n      dup3\n        /* \"#utility.yul\":10932:10995   */\n      tag_330\n      jump\t// in\n    tag_492:\n        /* \"#utility.yul\":10838:11005   */\n      pop\n        /* \"#utility.yul\":11022:11026   */\n      dup1\n        /* \"#utility.yul\":11015:11026   */\n      swap2\n      pop\n        /* \"#utility.yul\":10371:11032   */\n      pop\n        /* \"#utility.yul\":10267:11032   */\n      swap3\n      swap2\n      pop\n      pop\n      jump\t// out\n        /* \"#utility.yul\":11038:11274   */\n    tag_332:\n        /* \"#utility.yul\":11147:11157   */\n      0x00\n        /* \"#utility.yul\":11182:11268   */\n      tag_494\n        /* \"#utility.yul\":11264:11267   */\n      dup4\n        /* \"#utility.yul\":11256:11262   */\n      dup4\n        /* \"#utility.yul\":11182:11268   */\n      tag_331\n      jump\t// in\n    tag_494:\n        /* \"#utility.yul\":11168:11268   */\n      swap1\n      pop\n        /* \"#utility.yul\":11038:11274   */\n      swap3\n      swap2\n      pop\n      pop\n      jump\t// out\n        /* \"#utility.yul\":11280:11413   */\n    tag_333:\n        /* \"#utility.yul\":11370:11374   */\n      0x00\n        /* \"#utility.yul\":11402:11406   */\n      0x20\n        /* \"#utility.yul\":11397:11400   */\n      dup3\n        /* \"#utility.yul\":11393:11407   */\n      add\n        /* \"#utility.yul\":11385:11407   */\n      swap1\n      pop\n        /* \"#utility.yul\":11280:11413   */\n      swap2\n      swap1\n      pop\n      jump\t// out\n        /* \"#utility.yul\":11483:12554   */\n    tag_334:\n        /* \"#utility.yul\":11642:11645   */\n      0x00\n        /* \"#utility.yul\":11671:11745   */\n      tag_497\n        /* \"#utility.yul\":11739:11744   */\n      dup3\n        /* \"#utility.yul\":11671:11745   */\n      tag_325\n      jump\t// in\n    tag_497:\n        /* \"#utility.yul\":11761:11867   */\n      tag_498\n        /* \"#utility.yul\":11860:11866   */\n      dup2\n        /* \"#utility.yul\":11855:11858   */\n      dup6\n        /* \"#utility.yul\":11761:11867   */\n      tag_326\n      jump\t// in\n    tag_498:\n        /* \"#utility.yul\":11754:11867   */\n      swap4\n      pop\n        /* \"#utility.yul\":11893:11896   */\n      dup4\n        /* \"#utility.yul\":11938:11942   */\n      0x20\n        /* \"#utility.yul\":11930:11936   */\n      dup3\n        /* \"#utility.yul\":11926:11943   */\n      mul\n        /* \"#utility.yul\":11921:11924   */\n      dup6\n        /* \"#utility.yul\":11917:11944   */\n      add\n        /* \"#utility.yul\":11968:12044   */\n      tag_499\n        /* \"#utility.yul\":12038:12043   */\n      dup6\n        /* \"#utility.yul\":11968:12044   */\n      tag_327\n      jump\t// in\n    tag_499:\n        /* \"#utility.yul\":12067:12074   */\n      dup1\n        /* \"#utility.yul\":12098:12099   */\n      0x00\n        /* \"#utility.yul\":12083:12509   */\n    tag_500:\n        /* \"#utility.yul\":12108:12114   */\n      dup6\n        /* \"#utility.yul\":12105:12106   */\n      dup2\n        /* \"#utility.yul\":12102:12115   */\n      lt\n        /* \"#utility.yul\":12083:12509   */\n      iszero\n      tag_502\n      jumpi\n        /* \"#utility.yul\":12179:12188   */\n      dup5\n        /* \"#utility.yul\":12173:12177   */\n      dup5\n        /* \"#utility.yul\":12169:12189   */\n      sub\n        /* \"#utility.yul\":12164:12167   */\n      dup10\n        /* \"#utility.yul\":12157:12190   */\n      mstore\n        /* \"#utility.yul\":12230:12236   */\n      dup2\n        /* \"#utility.yul\":12224:12237   */\n      mload\n        /* \"#utility.yul\":12258:12362   */\n      tag_503\n        /* \"#utility.yul\":12357:12361   */\n      dup6\n        /* \"#utility.yul\":12342:12355   */\n      dup3\n        /* \"#utility.yul\":12258:12362   */\n      tag_332\n      jump\t// in\n    tag_503:\n        /* \"#utility.yul\":12250:12362   */\n      swap5\n      pop\n        /* \"#utility.yul\":12385:12465   */\n      tag_504\n        /* \"#utility.yul\":12458:12464   */\n      dup4\n        /* \"#utility.yul\":12385:12465   */\n      tag_333\n      jump\t// in\n    tag_504:\n        /* \"#utility.yul\":12375:12465   */\n      swap3\n      pop\n        /* \"#utility.yul\":12494:12498   */\n      0x20\n        /* \"#utility.yul\":12489:12492   */\n      dup11\n        /* \"#utility.yul\":12485:12499   */\n      add\n        /* \"#utility.yul\":12478:12499   */\n      swap10\n      pop\n        /* \"#utility.yul\":12143:12509   */\n      pop\n        /* \"#utility.yul\":12130:12131   */\n      0x01\n        /* \"#utility.yul\":12127:12128   */\n      dup2\n        /* \"#utility.yul\":12123:12132   */\n      add\n        /* \"#utility.yul\":12118:12132   */\n      swap1\n      pop\n        /* \"#utility.yul\":12083:12509   */\n      jump(tag_500)\n    tag_502:\n        /* \"#utility.yul\":12087:12101   */\n      pop\n        /* \"#utility.yul\":12525:12529   */\n      dup3\n        /* \"#utility.yul\":12518:12529   */\n      swap8\n      pop\n        /* \"#utility.yul\":12545:12548   */\n      dup8\n        /* \"#utility.yul\":12538:12548   */\n      swap6\n      pop\n        /* \"#utility.yul\":11647:12554   */\n      pop\n      pop\n      pop\n      pop\n      pop\n        /* \"#utility.yul\":11483:12554   */\n      swap3\n      swap2\n      pop\n      pop\n      jump\t// out\n        /* \"#utility.yul\":12560:13013   */\n    tag_114:\n        /* \"#utility.yul\":12743:12747   */\n      0x00\n        /* \"#utility.yul\":12781:12783   */\n      0x20\n        /* \"#utility.yul\":12770:12779   */\n      dup3\n        /* \"#utility.yul\":12766:12784   */\n      add\n        /* \"#utility.yul\":12758:12784   */\n      swap1\n      pop\n        /* \"#utility.yul\":12830:12839   */\n      dup2\n        /* \"#utility.yul\":12824:12828   */\n      dup2\n        /* \"#utility.yul\":12820:12840   */\n      sub\n        /* \"#utility.yul\":12816:12817   */\n      0x00\n        /* \"#utility.yul\":12805:12814   */\n      dup4\n        /* \"#utility.yul\":12801:12818   */\n      add\n        /* \"#utility.yul\":12794:12841   */\n      mstore\n        /* \"#utility.yul\":12858:13006   */\n      tag_506\n        /* \"#utility.yul\":13001:13005   */\n      dup2\n        /* \"#utility.yul\":12992:12998   */\n      dup5\n        /* \"#utility.yul\":12858:13006   */\n      tag_334\n      jump\t// in\n    tag_506:\n        /* \"#utility.yul\":12850:13006   */\n      swap1\n      pop\n        /* \"#utility.yul\":12560:13013   */\n      swap3\n      swap2\n      pop\n      pop\n      jump\t// out\n        /* \"#utility.yul\":13019:13199   */\n    tag_335:\n        /* \"#utility.yul\":13067:13144   */\n      0x4e487b7100000000000000000000000000000000000000000000000000000000\n        /* \"#utility.yul\":13064:13065   */\n      0x00\n        /* \"#utility.yul\":13057:13145   */\n      mstore\n        /* \"#utility.yul\":13164:13168   */\n      0x22\n        /* \"#utility.yul\":13161:13162   */\n      0x04\n        /* \"#utility.yul\":13154:13169   */\n      mstore\n        /* \"#utility.yul\":13188:13192   */\n      0x24\n        /* \"#utility.yul\":13185:13186   */\n      0x00\n        /* \"#utility.yul\":13178:13193   */\n      revert\n        /* \"#utility.yul\":13205:13525   */\n    tag_118:\n        /* \"#utility.yul\":13249:13255   */\n      0x00\n        /* \"#utility.yul\":13286:13287   */\n      0x02\n        /* \"#utility.yul\":13280:13284   */\n      dup3\n        /* \"#utility.yul\":13276:13288   */\n      div\n        /* \"#utility.yul\":13266:13288   */\n      swap1\n      pop\n        /* \"#utility.yul\":13333:13334   */\n      0x01\n        /* \"#utility.yul\":13327:13331   */\n      dup3\n        /* \"#utility.yul\":13323:13335   */\n      and\n        /* \"#utility.yul\":13354:13372   */\n      dup1\n        /* \"#utility.yul\":13344:13425   */\n      tag_509\n      jumpi\n        /* \"#utility.yul\":13410:13414   */\n      0x7f\n        /* \"#utility.yul\":13402:13408   */\n      dup3\n        /* \"#utility.yul\":13398:13415   */\n      and\n        /* \"#utility.yul\":13388:13415   */\n      swap2\n      pop\n        /* \"#utility.yul\":13344:13425   */\n    tag_509:\n        /* \"#utility.yul\":13472:13474   */\n      0x20\n        /* \"#utility.yul\":13464:13470   */\n      dup3\n        /* \"#utility.yul\":13461:13475   */\n      lt\n        /* \"#utility.yul\":13441:13459   */\n      dup2\n        /* \"#utility.yul\":13438:13476   */\n      sub\n        /* \"#utility.yul\":13435:13519   */\n      tag_510\n      jumpi\n        /* \"#utility.yul\":13491:13509   */\n      tag_511\n      tag_335\n      jump\t// in\n    tag_511:\n        /* \"#utility.yul\":13435:13519   */\n    tag_510:\n        /* \"#utility.yul\":13256:13525   */\n      pop\n        /* \"#utility.yul\":13205:13525   */\n      swap2\n      swap1\n      pop\n      jump\t// out\n        /* \"#utility.yul\":13531:13756   */\n    tag_336:\n        /* \"#utility.yul\":13671:13705   */\n      0x596f7520617265206e6f7420746865206f776e6572206f66207468697320636f\n        /* \"#utility.yul\":13667:13668   */\n      0x00\n        /* \"#utility.yul\":13659:13665   */\n      dup3\n        /* \"#utility.yul\":13655:13669   */\n      add\n        /* \"#utility.yul\":13648:13706   */\n      mstore\n        /* \"#utility.yul\":13740:13748   */\n      0x6e74726163740000000000000000000000000000000000000000000000000000\n        /* \"#utility.yul\":13735:13737   */\n      0x20\n        /* \"#utility.yul\":13727:13733   */\n      dup3\n        /* \"#utility.yul\":13723:13738   */\n      add\n        /* \"#utility.yul\":13716:13749   */\n      mstore\n        /* \"#utility.yul\":13531:13756   */\n      pop\n      jump\t// out\n        /* \"#utility.yul\":13762:14128   */\n    tag_337:\n        /* \"#utility.yul\":13904:13907   */\n      0x00\n        /* \"#utility.yul\":13925:13992   */\n      tag_514\n        /* \"#utility.yul\":13989:13991   */\n      0x26\n        /* \"#utility.yul\":13984:13987   */\n      dup4\n        /* \"#utility.yul\":13925:13992   */\n      tag_300\n      jump\t// in\n    tag_514:\n        /* \"#utility.yul\":13918:13992   */\n      swap2\n      pop\n        /* \"#utility.yul\":14001:14094   */\n      tag_515\n        /* \"#utility.yul\":14090:14093   */\n      dup3\n        /* \"#utility.yul\":14001:14094   */\n      tag_336\n      jump\t// in\n    tag_515:\n        /* \"#utility.yul\":14119:14121   */\n      0x40\n        /* \"#utility.yul\":14114:14117   */\n      dup3\n        /* \"#utility.yul\":14110:14122   */\n      add\n        /* \"#utility.yul\":14103:14122   */\n      swap1\n      pop\n        /* \"#utility.yul\":13762:14128   */\n      swap2\n      swap1\n      pop\n      jump\t// out\n        /* \"#utility.yul\":14134:14553   */\n    tag_141:\n        /* \"#utility.yul\":14300:14304   */\n      0x00\n        /* \"#utility.yul\":14338:14340   */\n      0x20\n        /* \"#utility.yul\":14327:14336   */\n      dup3\n        /* \"#utility.yul\":14323:14341   */\n      add\n        /* \"#utility.yul\":14315:14341   */\n      swap1\n      pop\n        /* \"#utility.yul\":14387:14396   */\n      dup2\n        /* \"#utility.yul\":14381:14385   */\n      dup2\n        /* \"#utility.yul\":14377:14397   */\n      sub\n        /* \"#utility.yul\":14373:14374   */\n      0x00\n        /* \"#utility.yul\":14362:14371   */\n      dup4\n        /* \"#utility.yul\":14358:14375   */\n      add\n        /* \"#utility.yul\":14351:14398   */\n      mstore\n        /* \"#utility.yul\":14415:14546   */\n      tag_517\n        /* \"#utility.yul\":14541:14545   */\n      dup2\n        /* \"#utility.yul\":14415:14546   */\n      tag_337\n      jump\t// in\n    tag_517:\n        /* \"#utility.yul\":14407:14546   */\n      swap1\n      pop\n        /* \"#utility.yul\":14134:14553   */\n      swap2\n      swap1\n      pop\n      jump\t// out\n        /* \"#utility.yul\":14559:14731   */\n    tag_338:\n        /* \"#utility.yul\":14699:14723   */\n      0x43616d706169676e206973206e6f742061637469766500000000000000000000\n        /* \"#utility.yul\":14695:14696   */\n      0x00\n        /* \"#utility.yul\":14687:14693   */\n      dup3\n        /* \"#utility.yul\":14683:14697   */\n      add\n        /* \"#utility.yul\":14676:14724   */\n      mstore\n        /* \"#utility.yul\":14559:14731   */\n      pop\n      jump\t// out\n        /* \"#utility.yul\":14737:15103   */\n    tag_339:\n        /* \"#utility.yul\":14879:14882   */\n      0x00\n        /* \"#utility.yul\":14900:14967   */\n      tag_520\n        /* \"#utility.yul\":14964:14966   */\n      0x16\n        /* \"#utility.yul\":14959:14962   */\n      dup4\n        /* \"#utility.yul\":14900:14967   */\n      tag_300\n      jump\t// in\n    tag_520:\n        /* \"#utility.yul\":14893:14967   */\n      swap2\n      pop\n        /* \"#utility.yul\":14976:15069   */\n      tag_521\n        /* \"#utility.yul\":15065:15068   */\n      dup3\n        /* \"#utility.yul\":14976:15069   */\n      tag_338\n      jump\t// in\n    tag_521:\n        /* \"#utility.yul\":15094:15096   */\n      0x20\n        /* \"#utility.yul\":15089:15092   */\n      dup3\n        /* \"#utility.yul\":15085:15097   */\n      add\n        /* \"#utility.yul\":15078:15097   */\n      swap1\n      pop\n        /* \"#utility.yul\":14737:15103   */\n      swap2\n      swap1\n      pop\n      jump\t// out\n        /* \"#utility.yul\":15109:15528   */\n    tag_149:\n        /* \"#utility.yul\":15275:15279   */\n      0x00\n        /* \"#utility.yul\":15313:15315   */\n      0x20\n        /* \"#utility.yul\":15302:15311   */\n      dup3\n        /* \"#utility.yul\":15298:15316   */\n      add\n        /* \"#utility.yul\":15290:15316   */\n      swap1\n      pop\n        /* \"#utility.yul\":15362:15371   */\n      dup2\n        /* \"#utility.yul\":15356:15360   */\n      dup2\n        /* \"#utility.yul\":15352:15372   */\n      sub\n        /* \"#utility.yul\":15348:15349   */\n      0x00\n        /* \"#utility.yul\":15337:15346   */\n      dup4\n        /* \"#utility.yul\":15333:15350   */\n      add\n        /* \"#utility.yul\":15326:15373   */\n      mstore\n        /* \"#utility.yul\":15390:15521   */\n      tag_523\n        /* \"#utility.yul\":15516:15520   */\n      dup2\n        /* \"#utility.yul\":15390:15521   */\n      tag_339\n      jump\t// in\n    tag_523:\n        /* \"#utility.yul\":15382:15521   */\n      swap1\n      pop\n        /* \"#utility.yul\":15109:15528   */\n      swap2\n      swap1\n      pop\n      jump\t// out\n        /* \"#utility.yul\":15534:15714   */\n    tag_340:\n        /* \"#utility.yul\":15582:15659   */\n      0x4e487b7100000000000000000000000000000000000000000000000000000000\n        /* \"#utility.yul\":15579:15580   */\n      0x00\n        /* \"#utility.yul\":15572:15660   */\n      mstore\n        /* \"#utility.yul\":15679:15683   */\n      0x11\n        /* \"#utility.yul\":15676:15677   */\n      0x04\n        /* \"#utility.yul\":15669:15684   */\n      mstore\n        /* \"#utility.yul\":15703:15707   */\n      0x24\n        /* \"#utility.yul\":15700:15701   */\n      0x00\n        /* \"#utility.yul\":15693:15708   */\n      revert\n        /* \"#utility.yul\":15720:16130   */\n    tag_152:\n        /* \"#utility.yul\":15760:15767   */\n      0x00\n        /* \"#utility.yul\":15783:15803   */\n      tag_526\n        /* \"#utility.yul\":15801:15802   */\n      dup3\n        /* \"#utility.yul\":15783:15803   */\n      tag_296\n      jump\t// in\n    tag_526:\n        /* \"#utility.yul\":15778:15803   */\n      swap2\n      pop\n        /* \"#utility.yul\":15817:15837   */\n      tag_527\n        /* \"#utility.yul\":15835:15836   */\n      dup4\n        /* \"#utility.yul\":15817:15837   */\n      tag_296\n      jump\t// in\n    tag_527:\n        /* \"#utility.yul\":15812:15837   */\n      swap3\n      pop\n        /* \"#utility.yul\":15872:15873   */\n      dup3\n        /* \"#utility.yul\":15869:15870   */\n      dup3\n        /* \"#utility.yul\":15865:15874   */\n      mul\n        /* \"#utility.yul\":15894:15924   */\n      tag_528\n        /* \"#utility.yul\":15912:15923   */\n      dup2\n        /* \"#utility.yul\":15894:15924   */\n      tag_296\n      jump\t// in\n    tag_528:\n        /* \"#utility.yul\":15883:15924   */\n      swap2\n      pop\n        /* \"#utility.yul\":16073:16074   */\n      dup3\n        /* \"#utility.yul\":16064:16071   */\n      dup3\n        /* \"#utility.yul\":16060:16075   */\n      div\n        /* \"#utility.yul\":16057:16058   */\n      dup5\n        /* \"#utility.yul\":16054:16076   */\n      eq\n        /* \"#utility.yul\":16034:16035   */\n      dup4\n        /* \"#utility.yul\":16027:16036   */\n      iszero\n        /* \"#utility.yul\":16007:16090   */\n      or\n        /* \"#utility.yul\":15984:16123   */\n      tag_529\n      jumpi\n        /* \"#utility.yul\":16103:16121   */\n      tag_530\n      tag_340\n      jump\t// in\n    tag_530:\n        /* \"#utility.yul\":15984:16123   */\n    tag_529:\n        /* \"#utility.yul\":15768:16130   */\n      pop\n        /* \"#utility.yul\":15720:16130   */\n      swap3\n      swap2\n      pop\n      pop\n      jump\t// out\n        /* \"#utility.yul\":16136:16327   */\n    tag_154:\n        /* \"#utility.yul\":16176:16179   */\n      0x00\n        /* \"#utility.yul\":16195:16215   */\n      tag_532\n        /* \"#utility.yul\":16213:16214   */\n      dup3\n        /* \"#utility.yul\":16195:16215   */\n      tag_296\n      jump\t// in\n    tag_532:\n        /* \"#utility.yul\":16190:16215   */\n      swap2\n      pop\n        /* \"#utility.yul\":16229:16249   */\n      tag_533\n        /* \"#utility.yul\":16247:16248   */\n      dup4\n        /* \"#utility.yul\":16229:16249   */\n      tag_296\n      jump\t// in\n    tag_533:\n        /* \"#utility.yul\":16224:16249   */\n      swap3\n      pop\n        /* \"#utility.yul\":16272:16273   */\n      dup3\n        /* \"#utility.yul\":16269:16270   */\n      dup3\n        /* \"#utility.yul\":16265:16274   */\n      add\n        /* \"#utility.yul\":16258:16274   */\n      swap1\n      pop\n        /* \"#utility.yul\":16293:16296   */\n      dup1\n        /* \"#utility.yul\":16290:16291   */\n      dup3\n        /* \"#utility.yul\":16287:16297   */\n      gt\n        /* \"#utility.yul\":16284:16320   */\n      iszero\n      tag_534\n      jumpi\n        /* \"#utility.yul\":16300:16318   */\n      tag_535\n      tag_340\n      jump\t// in\n    tag_535:\n        /* \"#utility.yul\":16284:16320   */\n    tag_534:\n        /* \"#utility.yul\":16136:16327   */\n      swap3\n      swap2\n      pop\n      pop\n      jump\t// out\n        /* \"#utility.yul\":16333:16506   */\n    tag_341:\n        /* \"#utility.yul\":16473:16498   */\n      0x43616d706169676e206973206e6f742073756363657373000000000000000000\n        /* \"#utility.yul\":16469:16470   */\n      0x00\n        /* \"#utility.yul\":16461:16467   */\n      dup3\n        /* \"#utility.yul\":16457:16471   */\n      add\n        /* \"#utility.yul\":16450:16499   */\n      mstore\n        /* \"#utility.yul\":16333:16506   */\n      pop\n      jump\t// out\n        /* \"#utility.yul\":16512:16878   */\n    tag_342:\n        /* \"#utility.yul\":16654:16657   */\n      0x00\n        /* \"#utility.yul\":16675:16742   */\n      tag_538\n        /* \"#utility.yul\":16739:16741   */\n      0x17\n        /* \"#utility.yul\":16734:16737   */\n      dup4\n        /* \"#utility.yul\":16675:16742   */\n      tag_300\n      jump\t// in\n    tag_538:\n        /* \"#utility.yul\":16668:16742   */\n      swap2\n      pop\n        /* \"#utility.yul\":16751:16844   */\n      tag_539\n        /* \"#utility.yul\":16840:16843   */\n      dup3\n        /* \"#utility.yul\":16751:16844   */\n      tag_341\n      jump\t// in\n    tag_539:\n        /* \"#utility.yul\":16869:16871   */\n      0x20\n        /* \"#utility.yul\":16864:16867   */\n      dup3\n        /* \"#utility.yul\":16860:16872   */\n      add\n        /* \"#utility.yul\":16853:16872   */\n      swap1\n      pop\n        /* \"#utility.yul\":16512:16878   */\n      swap2\n      swap1\n      pop\n      jump\t// out\n        /* \"#utility.yul\":16884:17303   */\n    tag_165:\n        /* \"#utility.yul\":17050:17054   */\n      0x00\n        /* \"#utility.yul\":17088:17090   */\n      0x20\n        /* \"#utility.yul\":17077:17086   */\n      dup3\n        /* \"#utility.yul\":17073:17091   */\n      add\n        /* \"#utility.yul\":17065:17091   */\n      swap1\n      pop\n        /* \"#utility.yul\":17137:17146   */\n      dup2\n        /* \"#utility.yul\":17131:17135   */\n      dup2\n        /* \"#utility.yul\":17127:17147   */\n      sub\n        /* \"#utility.yul\":17123:17124   */\n      0x00\n        /* \"#utility.yul\":17112:17121   */\n      dup4\n        /* \"#utility.yul\":17108:17125   */\n      add\n        /* \"#utility.yul\":17101:17148   */\n      mstore\n        /* \"#utility.yul\":17165:17296   */\n      tag_541\n        /* \"#utility.yul\":17291:17295   */\n      dup2\n        /* \"#utility.yul\":17165:17296   */\n      tag_342\n      jump\t// in\n    tag_541:\n        /* \"#utility.yul\":17157:17296   */\n      swap1\n      pop\n        /* \"#utility.yul\":16884:17303   */\n      swap2\n      swap1\n      pop\n      jump\t// out\n        /* \"#utility.yul\":17309:17481   */\n    tag_343:\n        /* \"#utility.yul\":17449:17473   */\n      0x4e6f2062616c616e636520746f20776974686472617700000000000000000000\n        /* \"#utility.yul\":17445:17446   */\n      0x00\n        /* \"#utility.yul\":17437:17443   */\n      dup3\n        /* \"#utility.yul\":17433:17447   */\n      add\n        /* \"#utility.yul\":17426:17474   */\n      mstore\n        /* \"#utility.yul\":17309:17481   */\n      pop\n      jump\t// out\n        /* \"#utility.yul\":17487:17853   */\n    tag_344:\n        /* \"#utility.yul\":17629:17632   */\n      0x00\n        /* \"#utility.yul\":17650:17717   */\n      tag_544\n        /* \"#utility.yul\":17714:17716   */\n      0x16\n        /* \"#utility.yul\":17709:17712   */\n      dup4\n        /* \"#utility.yul\":17650:17717   */\n      tag_300\n      jump\t// in\n    tag_544:\n        /* \"#utility.yul\":17643:17717   */\n      swap2\n      pop\n        /* \"#utility.yul\":17726:17819   */\n      tag_545\n        /* \"#utility.yul\":17815:17818   */\n      dup3\n        /* \"#utility.yul\":17726:17819   */\n      tag_343\n      jump\t// in\n    tag_545:\n        /* \"#utility.yul\":17844:17846   */\n      0x20\n        /* \"#utility.yul\":17839:17842   */\n      dup3\n        /* \"#utility.yul\":17835:17847   */\n      add\n        /* \"#utility.yul\":17828:17847   */\n      swap1\n      pop\n        /* \"#utility.yul\":17487:17853   */\n      swap2\n      swap1\n      pop\n      jump\t// out\n        /* \"#utility.yul\":17859:18278   */\n    tag_171:\n        /* \"#utility.yul\":18025:18029   */\n      0x00\n        /* \"#utility.yul\":18063:18065   */\n      0x20\n        /* \"#utility.yul\":18052:18061   */\n      dup3\n        /* \"#utility.yul\":18048:18066   */\n      add\n        /* \"#utility.yul\":18040:18066   */\n      swap1\n      pop\n        /* \"#utility.yul\":18112:18121   */\n      dup2\n        /* \"#utility.yul\":18106:18110   */\n      dup2\n        /* \"#utility.yul\":18102:18122   */\n      sub\n        /* \"#utility.yul\":18098:18099   */\n      0x00\n        /* \"#utility.yul\":18087:18096   */\n      dup4\n        /* \"#utility.yul\":18083:18100   */\n      add\n        /* \"#utility.yul\":18076:18123   */\n      mstore\n        /* \"#utility.yul\":18140:18271   */\n      tag_547\n        /* \"#utility.yul\":18266:18270   */\n      dup2\n        /* \"#utility.yul\":18140:18271   */\n      tag_344\n      jump\t// in\n    tag_547:\n        /* \"#utility.yul\":18132:18271   */\n      swap1\n      pop\n        /* \"#utility.yul\":17859:18278   */\n      swap2\n      swap1\n      pop\n      jump\t// out\n        /* \"#utility.yul\":18284:18453   */\n    tag_345:\n        /* \"#utility.yul\":18424:18445   */\n      0x526566756e64206e6f7420656c696769626c6500000000000000000000000000\n        /* \"#utility.yul\":18420:18421   */\n      0x00\n        /* \"#utility.yul\":18412:18418   */\n      dup3\n        /* \"#utility.yul\":18408:18422   */\n      add\n        /* \"#utility.yul\":18401:18446   */\n      mstore\n        /* \"#utility.yul\":18284:18453   */\n      pop\n      jump\t// out\n        /* \"#utility.yul\":18459:18825   */\n    tag_346:\n        /* \"#utility.yul\":18601:18604   */\n      0x00\n        /* \"#utility.yul\":18622:18689   */\n      tag_550\n        /* \"#utility.yul\":18686:18688   */\n      0x13\n        /* \"#utility.yul\":18681:18684   */\n      dup4\n        /* \"#utility.yul\":18622:18689   */\n      tag_300\n      jump\t// in\n    tag_550:\n        /* \"#utility.yul\":18615:18689   */\n      swap2\n      pop\n        /* \"#utility.yul\":18698:18791   */\n      tag_551\n        /* \"#utility.yul\":18787:18790   */\n      dup3\n        /* \"#utility.yul\":18698:18791   */\n      tag_345\n      jump\t// in\n    tag_551:\n        /* \"#utility.yul\":18816:18818   */\n      0x20\n        /* \"#utility.yul\":18811:18814   */\n      dup3\n        /* \"#utility.yul\":18807:18819   */\n      add\n        /* \"#utility.yul\":18800:18819   */\n      swap1\n      pop\n        /* \"#utility.yul\":18459:18825   */\n      swap2\n      swap1\n      pop\n      jump\t// out\n        /* \"#utility.yul\":18831:19250   */\n    tag_182:\n        /* \"#utility.yul\":18997:19001   */\n      0x00\n        /* \"#utility.yul\":19035:19037   */\n      0x20\n        /* \"#utility.yul\":19024:19033   */\n      dup3\n        /* \"#utility.yul\":19020:19038   */\n      add\n        /* \"#utility.yul\":19012:19038   */\n      swap1\n      pop\n        /* \"#utility.yul\":19084:19093   */\n      dup2\n        /* \"#utility.yul\":19078:19082   */\n      dup2\n        /* \"#utility.yul\":19074:19094   */\n      sub\n        /* \"#utility.yul\":19070:19071   */\n      0x00\n        /* \"#utility.yul\":19059:19068   */\n      dup4\n        /* \"#utility.yul\":19055:19072   */\n      add\n        /* \"#utility.yul\":19048:19095   */\n      mstore\n        /* \"#utility.yul\":19112:19243   */\n      tag_553\n        /* \"#utility.yul\":19238:19242   */\n      dup2\n        /* \"#utility.yul\":19112:19243   */\n      tag_346\n      jump\t// in\n    tag_553:\n        /* \"#utility.yul\":19104:19243   */\n      swap1\n      pop\n        /* \"#utility.yul\":18831:19250   */\n      swap2\n      swap1\n      pop\n      jump\t// out\n        /* \"#utility.yul\":19256:19480   */\n    tag_347:\n        /* \"#utility.yul\":19396:19430   */\n      0x436f6e747269627574696f6e206e6f7420666f756e642c20726566756e642066\n        /* \"#utility.yul\":19392:19393   */\n      0x00\n        /* \"#utility.yul\":19384:19390   */\n      dup3\n        /* \"#utility.yul\":19380:19394   */\n      add\n        /* \"#utility.yul\":19373:19431   */\n      mstore\n        /* \"#utility.yul\":19465:19472   */\n      0x61696c6564000000000000000000000000000000000000000000000000000000\n        /* \"#utility.yul\":19460:19462   */\n      0x20\n        /* \"#utility.yul\":19452:19458   */\n      dup3\n        /* \"#utility.yul\":19448:19463   */\n      add\n        /* \"#utility.yul\":19441:19473   */\n      mstore\n        /* \"#utility.yul\":19256:19480   */\n      pop\n      jump\t// out\n        /* \"#utility.yul\":19486:19852   */\n    tag_348:\n        /* \"#utility.yul\":19628:19631   */\n      0x00\n        /* \"#utility.yul\":19649:19716   */\n      tag_556\n        /* \"#utility.yul\":19713:19715   */\n      0x25\n        /* \"#utility.yul\":19708:19711   */\n      dup4\n        /* \"#utility.yul\":19649:19716   */\n      tag_300\n      jump\t// in\n    tag_556:\n        /* \"#utility.yul\":19642:19716   */\n      swap2\n      pop\n        /* \"#utility.yul\":19725:19818   */\n      tag_557\n        /* \"#utility.yul\":19814:19817   */\n      dup3\n        /* \"#utility.yul\":19725:19818   */\n      tag_347\n      jump\t// in\n    tag_557:\n        /* \"#utility.yul\":19843:19845   */\n      0x40\n        /* \"#utility.yul\":19838:19841   */\n      dup3\n        /* \"#utility.yul\":19834:19846   */\n      add\n        /* \"#utility.yul\":19827:19846   */\n      swap1\n      pop\n        /* \"#utility.yul\":19486:19852   */\n      swap2\n      swap1\n      pop\n      jump\t// out\n        /* \"#utility.yul\":19858:20277   */\n    tag_185:\n        /* \"#utility.yul\":20024:20028   */\n      0x00\n        /* \"#utility.yul\":20062:20064   */\n      0x20\n        /* \"#utility.yul\":20051:20060   */\n      dup3\n        /* \"#utility.yul\":20047:20065   */\n      add\n        /* \"#utility.yul\":20039:20065   */\n      swap1\n      pop\n        /* \"#utility.yul\":20111:20120   */\n      dup2\n        /* \"#utility.yul\":20105:20109   */\n      dup2\n        /* \"#utility.yul\":20101:20121   */\n      sub\n        /* \"#utility.yul\":20097:20098   */\n      0x00\n        /* \"#utility.yul\":20086:20095   */\n      dup4\n        /* \"#utility.yul\":20082:20099   */\n      add\n        /* \"#utility.yul\":20075:20122   */\n      mstore\n        /* \"#utility.yul\":20139:20270   */\n      tag_559\n        /* \"#utility.yul\":20265:20269   */\n      dup2\n        /* \"#utility.yul\":20139:20270   */\n      tag_348\n      jump\t// in\n    tag_559:\n        /* \"#utility.yul\":20131:20270   */\n      swap1\n      pop\n        /* \"#utility.yul\":19858:20277   */\n      swap2\n      swap1\n      pop\n      jump\t// out\n        /* \"#utility.yul\":20283:20452   */\n    tag_349:\n        /* \"#utility.yul\":20423:20444   */\n      0x5469657220646f65736e27742065786973747300000000000000000000000000\n        /* \"#utility.yul\":20419:20420   */\n      0x00\n        /* \"#utility.yul\":20411:20417   */\n      dup3\n        /* \"#utility.yul\":20407:20421   */\n      add\n        /* \"#utility.yul\":20400:20445   */\n      mstore\n        /* \"#utility.yul\":20283:20452   */\n      pop\n      jump\t// out\n        /* \"#utility.yul\":20458:20824   */\n    tag_350:\n        /* \"#utility.yul\":20600:20603   */\n      0x00\n        /* \"#utility.yul\":20621:20688   */\n      tag_562\n        /* \"#utility.yul\":20685:20687   */\n      0x13\n        /* \"#utility.yul\":20680:20683   */\n      dup4\n        /* \"#utility.yul\":20621:20688   */\n      tag_300\n      jump\t// in\n    tag_562:\n        /* \"#utility.yul\":20614:20688   */\n      swap2\n      pop\n        /* \"#utility.yul\":20697:20790   */\n      tag_563\n        /* \"#utility.yul\":20786:20789   */\n      dup3\n        /* \"#utility.yul\":20697:20790   */\n      tag_349\n      jump\t// in\n    tag_563:\n        /* \"#utility.yul\":20815:20817   */\n      0x20\n        /* \"#utility.yul\":20810:20813   */\n      dup3\n        /* \"#utility.yul\":20806:20818   */\n      add\n        /* \"#utility.yul\":20799:20818   */\n      swap1\n      pop\n        /* \"#utility.yul\":20458:20824   */\n      swap2\n      swap1\n      pop\n      jump\t// out\n        /* \"#utility.yul\":20830:21249   */\n    tag_200:\n        /* \"#utility.yul\":20996:21000   */\n      0x00\n        /* \"#utility.yul\":21034:21036   */\n      0x20\n        /* \"#utility.yul\":21023:21032   */\n      dup3\n        /* \"#utility.yul\":21019:21037   */\n      add\n        /* \"#utility.yul\":21011:21037   */\n      swap1\n      pop\n        /* \"#utility.yul\":21083:21092   */\n      dup2\n        /* \"#utility.yul\":21077:21081   */\n      dup2\n        /* \"#utility.yul\":21073:21093   */\n      sub\n        /* \"#utility.yul\":21069:21070   */\n      0x00\n        /* \"#utility.yul\":21058:21067   */\n      dup4\n        /* \"#utility.yul\":21054:21071   */\n      add\n        /* \"#utility.yul\":21047:21094   */\n      mstore\n        /* \"#utility.yul\":21111:21242   */\n      tag_565\n        /* \"#utility.yul\":21237:21241   */\n      dup2\n        /* \"#utility.yul\":21111:21242   */\n      tag_350\n      jump\t// in\n    tag_565:\n        /* \"#utility.yul\":21103:21242   */\n      swap1\n      pop\n        /* \"#utility.yul\":20830:21249   */\n      swap2\n      swap1\n      pop\n      jump\t// out\n        /* \"#utility.yul\":21255:21449   */\n    tag_202:\n        /* \"#utility.yul\":21295:21299   */\n      0x00\n        /* \"#utility.yul\":21315:21335   */\n      tag_567\n        /* \"#utility.yul\":21333:21334   */\n      dup3\n        /* \"#utility.yul\":21315:21335   */\n      tag_296\n      jump\t// in\n    tag_567:\n        /* \"#utility.yul\":21310:21335   */\n      swap2\n      pop\n        /* \"#utility.yul\":21349:21369   */\n      tag_568\n        /* \"#utility.yul\":21367:21368   */\n      dup4\n        /* \"#utility.yul\":21349:21369   */\n      tag_296\n      jump\t// in\n    tag_568:\n        /* \"#utility.yul\":21344:21369   */\n      swap3\n      pop\n        /* \"#utility.yul\":21393:21394   */\n      dup3\n        /* \"#utility.yul\":21390:21391   */\n      dup3\n        /* \"#utility.yul\":21386:21395   */\n      sub\n        /* \"#utility.yul\":21378:21395   */\n      swap1\n      pop\n        /* \"#utility.yul\":21417:21418   */\n      dup2\n        /* \"#utility.yul\":21411:21415   */\n      dup2\n        /* \"#utility.yul\":21408:21419   */\n      gt\n        /* \"#utility.yul\":21405:21442   */\n      iszero\n      tag_569\n      jumpi\n        /* \"#utility.yul\":21422:21440   */\n      tag_570\n      tag_340\n      jump\t// in\n    tag_570:\n        /* \"#utility.yul\":21405:21442   */\n    tag_569:\n        /* \"#utility.yul\":21255:21449   */\n      swap3\n      swap2\n      pop\n      pop\n      jump\t// out\n        /* \"#utility.yul\":21455:21635   */\n    tag_205:\n        /* \"#utility.yul\":21503:21580   */\n      0x4e487b7100000000000000000000000000000000000000000000000000000000\n        /* \"#utility.yul\":21500:21501   */\n      0x00\n        /* \"#utility.yul\":21493:21581   */\n      mstore\n        /* \"#utility.yul\":21600:21604   */\n      0x32\n        /* \"#utility.yul\":21597:21598   */\n      0x04\n        /* \"#utility.yul\":21590:21605   */\n      mstore\n        /* \"#utility.yul\":21624:21628   */\n      0x24\n        /* \"#utility.yul\":21621:21622   */\n      0x00\n        /* \"#utility.yul\":21614:21629   */\n      revert\n        /* \"#utility.yul\":21641:21790   */\n    tag_351:\n        /* \"#utility.yul\":21690:21696   */\n      0x00\n        /* \"#utility.yul\":21724:21729   */\n      dup2\n        /* \"#utility.yul\":21718:21730   */\n      sload\n        /* \"#utility.yul\":21708:21730   */\n      swap1\n      pop\n        /* \"#utility.yul\":21750:21783   */\n      tag_573\n        /* \"#utility.yul\":21776:21782   */\n      dup2\n        /* \"#utility.yul\":21750:21783   */\n      tag_118\n      jump\t// in\n    tag_573:\n        /* \"#utility.yul\":21740:21783   */\n      swap1\n      pop\n        /* \"#utility.yul\":21641:21790   */\n      swap2\n      swap1\n      pop\n      jump\t// out\n        /* \"#utility.yul\":21796:21937   */\n    tag_352:\n        /* \"#utility.yul\":21845:21849   */\n      0x00\n        /* \"#utility.yul\":21868:21871   */\n      dup2\n        /* \"#utility.yul\":21860:21871   */\n      swap1\n      pop\n        /* \"#utility.yul\":21891:21894   */\n      dup2\n        /* \"#utility.yul\":21888:21889   */\n      0x00\n        /* \"#utility.yul\":21881:21895   */\n      mstore\n        /* \"#utility.yul\":21925:21929   */\n      0x20\n        /* \"#utility.yul\":21922:21923   */\n      0x00\n        /* \"#utility.yul\":21912:21930   */\n      keccak256\n        /* \"#utility.yul\":21904:21930   */\n      swap1\n      pop\n        /* \"#utility.yul\":21796:21937   */\n      swap2\n      swap1\n      pop\n      jump\t// out\n        /* \"#utility.yul\":21943:22036   */\n    tag_353:\n        /* \"#utility.yul\":21980:21986   */\n      0x00\n        /* \"#utility.yul\":22027:22029   */\n      0x20\n        /* \"#utility.yul\":22022:22024   */\n      0x1f\n        /* \"#utility.yul\":22015:22020   */\n      dup4\n        /* \"#utility.yul\":22011:22025   */\n      add\n        /* \"#utility.yul\":22007:22030   */\n      div\n        /* \"#utility.yul\":21997:22030   */\n      swap1\n      pop\n        /* \"#utility.yul\":21943:22036   */\n      swap2\n      swap1\n      pop\n      jump\t// out\n        /* \"#utility.yul\":22042:22149   */\n    tag_354:\n        /* \"#utility.yul\":22086:22094   */\n      0x00\n        /* \"#utility.yul\":22136:22141   */\n      dup3\n        /* \"#utility.yul\":22130:22134   */\n      dup3\n        /* \"#utility.yul\":22126:22142   */\n      shl\n        /* \"#utility.yul\":22105:22142   */\n      swap1\n      pop\n        /* \"#utility.yul\":22042:22149   */\n      swap3\n      swap2\n      pop\n      pop\n      jump\t// out\n        /* \"#utility.yul\":22155:22548   */\n    tag_355:\n        /* \"#utility.yul\":22224:22230   */\n      0x00\n        /* \"#utility.yul\":22274:22275   */\n      0x08\n        /* \"#utility.yul\":22262:22272   */\n      dup4\n        /* \"#utility.yul\":22258:22276   */\n      mul\n        /* \"#utility.yul\":22297:22394   */\n      tag_578\n        /* \"#utility.yul\":22327:22393   */\n      0xffffffffffffffffffffffffffffffffffffffffffffffffffffffffffffffff\n        /* \"#utility.yul\":22316:22325   */\n      dup3\n        /* \"#utility.yul\":22297:22394   */\n      tag_354\n      jump\t// in\n    tag_578:\n        /* \"#utility.yul\":22415:22454   */\n      tag_579\n        /* \"#utility.yul\":22445:22453   */\n      dup7\n        /* \"#utility.yul\":22434:22443   */\n      dup4\n        /* \"#utility.yul\":22415:22454   */\n      tag_354\n      jump\t// in\n    tag_579:\n        /* \"#utility.yul\":22403:22454   */\n      swap6\n      pop\n        /* \"#utility.yul\":22487:22491   */\n      dup1\n        /* \"#utility.yul\":22483:22492   */\n      not\n        /* \"#utility.yul\":22476:22481   */\n      dup5\n        /* \"#utility.yul\":22472:22493   */\n      and\n        /* \"#utility.yul\":22463:22493   */\n      swap4\n      pop\n        /* \"#utility.yul\":22536:22540   */\n      dup1\n        /* \"#utility.yul\":22526:22534   */\n      dup7\n        /* \"#utility.yul\":22522:22541   */\n      and\n        /* \"#utility.yul\":22515:22520   */\n      dup5\n        /* \"#utility.yul\":22512:22542   */\n      or\n        /* \"#utility.yul\":22502:22542   */\n      swap3\n      pop\n        /* \"#utility.yul\":22231:22548   */\n      pop\n      pop\n        /* \"#utility.yul\":22155:22548   */\n      swap4\n      swap3\n      pop\n      pop\n      pop\n      jump\t// out\n        /* \"#utility.yul\":22554:22614   */\n    tag_356:\n        /* \"#utility.yul\":22582:22585   */\n      0x00\n        /* \"#utility.yul\":22603:22608   */\n      dup2\n        /* \"#utility.yul\":22596:22608   */\n      swap1\n      pop\n        /* \"#utility.yul\":22554:22614   */\n      swap2\n      swap1\n      pop\n      jump\t// out\n        /* \"#utility.yul\":22620:22762   */\n    tag_357:\n        /* \"#utility.yul\":22670:22679   */\n      0x00\n        /* \"#utility.yul\":22703:22756   */\n      tag_582\n        /* \"#utility.yul\":22721:22755   */\n      tag_583\n        /* \"#utility.yul\":22730:22754   */\n      tag_584\n        /* \"#utility.yul\":22748:22753   */\n      dup5\n        /* \"#utility.yul\":22730:22754   */\n      tag_296\n      jump\t// in\n    tag_584:\n        /* \"#utility.yul\":22721:22755   */\n      tag_356\n      jump\t// in\n    tag_583:\n        /* \"#utility.yul\":22703:22756   */\n      tag_296\n      jump\t// in\n    tag_582:\n        /* \"#utility.yul\":22690:22756   */\n      swap1\n      pop\n        /* \"#utility.yul\":22620:22762   */\n      swap2\n      swap1\n      pop\n      jump\t// out\n        /* \"#utility.yul\":22768:22843   */\n    tag_358:\n        /* \"#utility.yul\":22811:22814   */\n      0x00\n        /* \"#utility.yul\":22832:22837   */\n      dup2\n        /* \"#utility.yul\":22825:22837   */\n      swap1\n      pop\n        /* \"#utility.yul\":22768:22843   */\n      swap2\n      swap1\n      pop\n      jump\t// out\n        /* \"#utility.yul\":22849:23118   */\n    tag_359:\n        /* \"#utility.yul\":22959:22998   */\n      tag_587\n        /* \"#utility.yul\":22990:22997   */\n      dup4\n        /* \"#utility.yul\":22959:22998   */\n      tag_357\n      jump\t// in\n    tag_587:\n        /* \"#utility.yul\":23020:23111   */\n      tag_588\n        /* \"#utility.yul\":23069:23110   */\n      tag_589\n        /* \"#utility.yul\":23093:23109   */\n      dup3\n        /* \"#utility.yul\":23069:23110   */\n      tag_358\n      jump\t// in\n    tag_589:\n        /* \"#utility.yul\":23061:23067   */\n      dup5\n        /* \"#utility.yul\":23054:23058   */\n      dup5\n        /* \"#utility.yul\":23048:23059   */\n      sload\n        /* \"#utility.yul\":23020:23111   */\n      tag_355\n      jump\t// in\n    tag_588:\n        /* \"#utility.yul\":23014:23018   */\n      dup3\n        /* \"#utility.yul\":23007:23112   */\n      sstore\n        /* \"#utility.yul\":22925:23118   */\n      pop\n        /* \"#utility.yul\":22849:23118   */\n      pop\n      pop\n      pop\n      jump\t// out\n        /* \"#utility.yul\":23124:23197   */\n    tag_360:\n        /* \"#utility.yul\":23169:23172   */\n      0x00\n        /* \"#utility.yul\":23124:23197   */\n      swap1\n      jump\t// out\n        /* \"#utility.yul\":23203:23392   */\n    tag_361:\n        /* \"#utility.yul\":23280:23312   */\n      tag_592\n      tag_360\n      jump\t// in\n    tag_592:\n        /* \"#utility.yul\":23321:23386   */\n      tag_593\n        /* \"#utility.yul\":23379:23385   */\n      dup2\n        /* \"#utility.yul\":23371:23377   */\n      dup5\n        /* \"#utility.yul\":23365:23369   */\n      dup5\n        /* \"#utility.yul\":23321:23386   */\n      tag_359\n      jump\t// in\n    tag_593:\n        /* \"#utility.yul\":23256:23392   */\n      pop\n        /* \"#utility.yul\":23203:23392   */\n      pop\n      pop\n      jump\t// out\n        /* \"#utility.yul\":23398:23584   */\n    tag_362:\n        /* \"#utility.yul\":23458:23578   */\n    tag_595:\n        /* \"#utility.yul\":23475:23478   */\n      dup2\n        /* \"#utility.yul\":23468:23473   */\n      dup2\n        /* \"#utility.yul\":23465:23479   */\n      lt\n        /* \"#utility.yul\":23458:23578   */\n      iszero\n      tag_597\n      jumpi\n        /* \"#utility.yul\":23529:23568   */\n      tag_598\n        /* \"#utility.yul\":23566:23567   */\n      0x00\n        /* \"#utility.yul\":23559:23564   */\n      dup3\n        /* \"#utility.yul\":23529:23568   */\n      tag_361\n      jump\t// in\n    tag_598:\n        /* \"#utility.yul\":23502:23503   */\n      0x01\n        /* \"#utility.yul\":23495:23500   */\n      dup2\n        /* \"#utility.yul\":23491:23504   */\n      add\n        /* \"#utility.yul\":23482:23504   */\n      swap1\n      pop\n        /* \"#utility.yul\":23458:23578   */\n      jump(tag_595)\n    tag_597:\n        /* \"#utility.yul\":23398:23584   */\n      pop\n      pop\n      jump\t// out\n        /* \"#utility.yul\":23590:24133   */\n    tag_363:\n        /* \"#utility.yul\":23691:23693   */\n      0x1f\n        /* \"#utility.yul\":23686:23689   */\n      dup3\n        /* \"#utility.yul\":23683:23694   */\n      gt\n        /* \"#utility.yul\":23680:24126   */\n      iszero\n      tag_600\n      jumpi\n        /* \"#utility.yul\":23725:23763   */\n      tag_601\n        /* \"#utility.yul\":23757:23762   */\n      dup2\n        /* \"#utility.yul\":23725:23763   */\n      tag_352\n      jump\t// in\n    tag_601:\n        /* \"#utility.yul\":23809:23838   */\n      tag_602\n        /* \"#utility.yul\":23827:23837   */\n      dup5\n        /* \"#utility.yul\":23809:23838   */\n      tag_353\n      jump\t// in\n    tag_602:\n        /* \"#utility.yul\":23799:23807   */\n      dup2\n        /* \"#utility.yul\":23795:23839   */\n      add\n        /* \"#utility.yul\":23992:23994   */\n      0x20\n        /* \"#utility.yul\":23980:23990   */\n      dup6\n        /* \"#utility.yul\":23977:23995   */\n      lt\n        /* \"#utility.yul\":23974:24023   */\n      iszero\n      tag_603\n      jumpi\n        /* \"#utility.yul\":24013:24021   */\n      dup2\n        /* \"#utility.yul\":23998:24021   */\n      swap1\n      pop\n        /* \"#utility.yul\":23974:24023   */\n    tag_603:\n        /* \"#utility.yul\":24036:24116   */\n      tag_604\n        /* \"#utility.yul\":24092:24114   */\n      tag_605\n        /* \"#utility.yul\":24110:24113   */\n      dup6\n        /* \"#utility.yul\":24092:24114   */\n      tag_353\n      jump\t// in\n    tag_605:\n        /* \"#utility.yul\":24082:24090   */\n      dup4\n        /* \"#utility.yul\":24078:24115   */\n      add\n        /* \"#utility.yul\":24065:24076   */\n      dup3\n        /* \"#utility.yul\":24036:24116   */\n      tag_362\n      jump\t// in\n    tag_604:\n        /* \"#utility.yul\":23695:24126   */\n      pop\n      pop\n        /* \"#utility.yul\":23680:24126   */\n    tag_600:\n        /* \"#utility.yul\":23590:24133   */\n      pop\n      pop\n      pop\n      jump\t// out\n        /* \"#utility.yul\":24139:24256   */\n    tag_364:\n        /* \"#utility.yul\":24193:24201   */\n      0x00\n        /* \"#utility.yul\":24243:24248   */\n      dup3\n        /* \"#utility.yul\":24237:24241   */\n      dup3\n        /* \"#utility.yul\":24233:24249   */\n      shr\n        /* \"#utility.yul\":24212:24249   */\n      swap1\n      pop\n        /* \"#utility.yul\":24139:24256   */\n      swap3\n      swap2\n      pop\n      pop\n      jump\t// out\n        /* \"#utility.yul\":24262:24431   */\n    tag_365:\n        /* \"#utility.yul\":24306:24312   */\n      0x00\n        /* \"#utility.yul\":24339:24390   */\n      tag_608\n        /* \"#utility.yul\":24387:24388   */\n      0x00\n        /* \"#utility.yul\":24383:24389   */\n      not\n        /* \"#utility.yul\":24375:24380   */\n      dup5\n        /* \"#utility.yul\":24372:24373   */\n      0x08\n        /* \"#utility.yul\":24368:24381   */\n      mul\n        /* \"#utility.yul\":24339:24390   */\n      tag_364\n      jump\t// in\n    tag_608:\n        /* \"#utility.yul\":24335:24391   */\n      not\n        /* \"#utility.yul\":24420:24424   */\n      dup1\n        /* \"#utility.yul\":24414:24418   */\n      dup4\n        /* \"#utility.yul\":24410:24425   */\n      and\n        /* \"#utility.yul\":24400:24425   */\n      swap2\n      pop\n        /* \"#utility.yul\":24313:24431   */\n      pop\n        /* \"#utility.yul\":24262:24431   */\n      swap3\n      swap2\n      pop\n      pop\n      jump\t// out\n        /* \"#utility.yul\":24436:24731   */\n    tag_366:\n        /* \"#utility.yul\":24512:24516   */\n      0x00\n        /* \"#utility.yul\":24658:24687   */\n      tag_610\n        /* \"#utility.yul\":24683:24686   */\n      dup4\n        /* \"#utility.yul\":24677:24681   */\n      dup4\n        /* \"#utility.yul\":24658:24687   */\n      tag_365\n      jump\t// in\n    tag_610:\n        /* \"#utility.yul\":24650:24687   */\n      swap2\n      pop\n        /* \"#utility.yul\":24720:24723   */\n      dup3\n        /* \"#utility.yul\":24717:24718   */\n      0x02\n        /* \"#utility.yul\":24713:24724   */\n      mul\n        /* \"#utility.yul\":24707:24711   */\n      dup3\n        /* \"#utility.yul\":24704:24725   */\n      or\n        /* \"#utility.yul\":24696:24725   */\n      swap1\n      pop\n        /* \"#utility.yul\":24436:24731   */\n      swap3\n      swap2\n      pop\n      pop\n      jump\t// out\n        /* \"#utility.yul\":24736:26187   */\n    tag_211:\n        /* \"#utility.yul\":24847:24850   */\n      dup2\n        /* \"#utility.yul\":24841:24845   */\n      dup2\n        /* \"#utility.yul\":24838:24851   */\n      sub\n        /* \"#utility.yul\":24835:24861   */\n      tag_612\n      jumpi\n        /* \"#utility.yul\":24854:24859   */\n      pop\n      pop\n      jump(tag_611)\n        /* \"#utility.yul\":24835:24861   */\n    tag_612:\n        /* \"#utility.yul\":24885:24919   */\n      tag_613\n        /* \"#utility.yul\":24915:24918   */\n      dup3\n        /* \"#utility.yul\":24885:24919   */\n      tag_351\n      jump\t// in\n    tag_613:\n        /* \"#utility.yul\":24984:25002   */\n      0xffffffffffffffff\n        /* \"#utility.yul\":24976:24982   */\n      dup2\n        /* \"#utility.yul\":24973:25003   */\n      gt\n        /* \"#utility.yul\":24970:25026   */\n      iszero\n      tag_614\n      jumpi\n        /* \"#utility.yul\":25006:25024   */\n      tag_615\n      tag_318\n      jump\t// in\n    tag_615:\n        /* \"#utility.yul\":24970:25026   */\n    tag_614:\n        /* \"#utility.yul\":25050:25088   */\n      tag_616\n        /* \"#utility.yul\":25082:25086   */\n      dup3\n        /* \"#utility.yul\":25076:25087   */\n      sload\n        /* \"#utility.yul\":25050:25088   */\n      tag_118\n      jump\t// in\n    tag_616:\n        /* \"#utility.yul\":25135:25202   */\n      tag_617\n        /* \"#utility.yul\":25195:25201   */\n      dup3\n        /* \"#utility.yul\":25187:25193   */\n      dup3\n        /* \"#utility.yul\":25181:25185   */\n      dup6\n        /* \"#utility.yul\":25135:25202   */\n      tag_363\n      jump\t// in\n    tag_617:\n        /* \"#utility.yul\":25229:25230   */\n      0x00\n        /* \"#utility.yul\":25258:25260   */\n      0x1f\n        /* \"#utility.yul\":25250:25256   */\n      dup4\n        /* \"#utility.yul\":25247:25261   */\n      gt\n        /* \"#utility.yul\":25275:25276   */\n      0x01\n        /* \"#utility.yul\":25270:25942   */\n      dup2\n      eq\n      tag_619\n      jumpi\n        /* \"#utility.yul\":25986:25987   */\n      0x00\n        /* \"#utility.yul\":26003:26009   */\n      dup5\n        /* \"#utility.yul\":26000:26077   */\n      iszero\n      tag_620\n      jumpi\n        /* \"#utility.yul\":26052:26061   */\n      dup3\n        /* \"#utility.yul\":26047:26050   */\n      dup8\n        /* \"#utility.yul\":26043:26062   */\n      add\n        /* \"#utility.yul\":26037:26063   */\n      sload\n        /* \"#utility.yul\":26028:26063   */\n      swap1\n      pop\n        /* \"#utility.yul\":26000:26077   */\n    tag_620:\n        /* \"#utility.yul\":26103:26170   */\n      tag_621\n        /* \"#utility.yul\":26163:26169   */\n      dup6\n        /* \"#utility.yul\":26156:26161   */\n      dup3\n        /* \"#utility.yul\":26103:26170   */\n      tag_366\n      jump\t// in\n    tag_621:\n        /* \"#utility.yul\":26097:26101   */\n      dup7\n        /* \"#utility.yul\":26090:26171   */\n      sstore\n        /* \"#utility.yul\":25959:26181   */\n      pop\n        /* \"#utility.yul\":25240:26181   */\n      jump(tag_618)\n        /* \"#utility.yul\":25270:25942   */\n    tag_619:\n        /* \"#utility.yul\":25322:25326   */\n      0x1f\n        /* \"#utility.yul\":25318:25327   */\n      not\n        /* \"#utility.yul\":25310:25316   */\n      dup5\n        /* \"#utility.yul\":25306:25328   */\n      and\n        /* \"#utility.yul\":25348:25384   */\n      tag_622\n        /* \"#utility.yul\":25380:25383   */\n      dup8\n        /* \"#utility.yul\":25348:25384   */\n      tag_352\n      jump\t// in\n    tag_622:\n        /* \"#utility.yul\":25341:25384   */\n      swap7\n      pop\n        /* \"#utility.yul\":25411:25448   */\n      tag_623\n        /* \"#utility.yul\":25443:25447   */\n      dup7\n        /* \"#utility.yul\":25411:25448   */\n      tag_352\n      jump\t// in\n    tag_623:\n        /* \"#utility.yul\":25470:25471   */\n      0x00\n        /* \"#utility.yul\":25484:25691   */\n    tag_624:\n        /* \"#utility.yul\":25498:25505   */\n      dup3\n        /* \"#utility.yul\":25495:25496   */\n      dup2\n        /* \"#utility.yul\":25492:25506   */\n      lt\n        /* \"#utility.yul\":25484:25691   */\n      iszero\n      tag_626\n      jumpi\n        /* \"#utility.yul\":25577:25586   */\n      dup5\n        /* \"#utility.yul\":25572:25575   */\n      dup10\n        /* \"#utility.yul\":25568:25587   */\n      add\n        /* \"#utility.yul\":25562:25588   */\n      sload\n        /* \"#utility.yul\":25554:25560   */\n      dup3\n        /* \"#utility.yul\":25547:25589   */\n      sstore\n        /* \"#utility.yul\":25628:25629   */\n      0x01\n        /* \"#utility.yul\":25620:25626   */\n      dup3\n        /* \"#utility.yul\":25616:25630   */\n      add\n        /* \"#utility.yul\":25606:25630   */\n      swap2\n      pop\n        /* \"#utility.yul\":25675:25676   */\n      0x01\n        /* \"#utility.yul\":25664:25673   */\n      dup6\n        /* \"#utility.yul\":25660:25677   */\n      add\n        /* \"#utility.yul\":25647:25677   */\n      swap5\n      pop\n        /* \"#utility.yul\":25521:25525   */\n      0x20\n        /* \"#utility.yul\":25518:25519   */\n      dup2\n        /* \"#utility.yul\":25514:25526   */\n      add\n        /* \"#utility.yul\":25509:25526   */\n      swap1\n      pop\n        /* \"#utility.yul\":25484:25691   */\n      jump(tag_624)\n    tag_626:\n        /* \"#utility.yul\":25719:25725   */\n      dup7\n        /* \"#utility.yul\":25710:25717   */\n      dup4\n        /* \"#utility.yul\":25707:25726   */\n      lt\n        /* \"#utility.yul\":25704:25883   */\n      iszero\n      tag_627\n      jumpi\n        /* \"#utility.yul\":25777:25786   */\n      dup5\n        /* \"#utility.yul\":25772:25775   */\n      dup10\n        /* \"#utility.yul\":25768:25787   */\n      add\n        /* \"#utility.yul\":25762:25788   */\n      sload\n        /* \"#utility.yul\":25820:25868   */\n      tag_628\n        /* \"#utility.yul\":25862:25866   */\n      0x1f\n        /* \"#utility.yul\":25854:25860   */\n      dup10\n        /* \"#utility.yul\":25850:25867   */\n      and\n        /* \"#utility.yul\":25839:25848   */\n      dup3\n        /* \"#utility.yul\":25820:25868   */\n      tag_365\n      jump\t// in\n    tag_628:\n        /* \"#utility.yul\":25812:25818   */\n      dup4\n        /* \"#utility.yul\":25805:25869   */\n      sstore\n        /* \"#utility.yul\":25727:25883   */\n      pop\n        /* \"#utility.yul\":25704:25883   */\n    tag_627:\n        /* \"#utility.yul\":25929:25930   */\n      0x01\n        /* \"#utility.yul\":25925:25926   */\n      0x02\n        /* \"#utility.yul\":25917:25923   */\n      dup9\n        /* \"#utility.yul\":25913:25927   */\n      mul\n        /* \"#utility.yul\":25909:25931   */\n      add\n        /* \"#utility.yul\":25903:25907   */\n      dup9\n        /* \"#utility.yul\":25896:25932   */\n      sstore\n        /* \"#utility.yul\":25277:25942   */\n      pop\n      pop\n      pop\n        /* \"#utility.yul\":25240:26181   */\n    tag_618:\n      pop\n        /* \"#utility.yul\":24825:26187   */\n      pop\n      pop\n      pop\n        /* \"#utility.yul\":24736:26187   */\n      pop\n      pop\n    tag_611:\n      jump\t// out\n        /* \"#utility.yul\":26193:26373   */\n    tag_214:\n        /* \"#utility.yul\":26241:26318   */\n      0x4e487b7100000000000000000000000000000000000000000000000000000000\n        /* \"#utility.yul\":26238:26239   */\n      0x00\n        /* \"#utility.yul\":26231:26319   */\n      mstore\n        /* \"#utility.yul\":26338:26342   */\n      0x31\n        /* \"#utility.yul\":26335:26336   */\n      0x04\n        /* \"#utility.yul\":26328:26343   */\n      mstore\n        /* \"#utility.yul\":26362:26366   */\n      0x24\n        /* \"#utility.yul\":26359:26360   */\n      0x00\n        /* \"#utility.yul\":26352:26367   */\n      revert\n        /* \"#utility.yul\":26379:26559   */\n    tag_367:\n        /* \"#utility.yul\":26519:26551   */\n      0x416d6f756e74206d757374206265206772656174657220746861746e20300000\n        /* \"#utility.yul\":26515:26516   */\n      0x00\n        /* \"#utility.yul\":26507:26513   */\n      dup3\n        /* \"#utility.yul\":26503:26517   */\n      add\n        /* \"#utility.yul\":26496:26552   */\n      mstore\n        /* \"#utility.yul\":26379:26559   */\n      pop\n      jump\t// out\n        /* \"#utility.yul\":26565:26931   */\n    tag_368:\n        /* \"#utility.yul\":26707:26710   */\n      0x00\n        /* \"#utility.yul\":26728:26795   */\n      tag_632\n        /* \"#utility.yul\":26792:26794   */\n      0x1e\n        /* \"#utility.yul\":26787:26790   */\n      dup4\n        /* \"#utility.yul\":26728:26795   */\n      tag_300\n      jump\t// in\n    tag_632:\n        /* \"#utility.yul\":26721:26795   */\n      swap2\n      pop\n        /* \"#utility.yul\":26804:26897   */\n      tag_633\n        /* \"#utility.yul\":26893:26896   */\n      dup3\n        /* \"#utility.yul\":26804:26897   */\n      tag_367\n      jump\t// in\n    tag_633:\n        /* \"#utility.yul\":26922:26924   */\n      0x20\n        /* \"#utility.yul\":26917:26920   */\n      dup3\n        /* \"#utility.yul\":26913:26925   */\n      add\n        /* \"#utility.yul\":26906:26925   */\n      swap1\n      pop\n        /* \"#utility.yul\":26565:26931   */\n      swap2\n      swap1\n      pop\n      jump\t// out\n        /* \"#utility.yul\":26937:27356   */\n    tag_225:\n        /* \"#utility.yul\":27103:27107   */\n      0x00\n        /* \"#utility.yul\":27141:27143   */\n      0x20\n        /* \"#utility.yul\":27130:27139   */\n      dup3\n        /* \"#utility.yul\":27126:27144   */\n      add\n        /* \"#utility.yul\":27118:27144   */\n      swap1\n      pop\n        /* \"#utility.yul\":27190:27199   */\n      dup2\n        /* \"#utility.yul\":27184:27188   */\n      dup2\n        /* \"#utility.yul\":27180:27200   */\n      sub\n        /* \"#utility.yul\":27176:27177   */\n      0x00\n        /* \"#utility.yul\":27165:27174   */\n      dup4\n        /* \"#utility.yul\":27161:27178   */\n      add\n        /* \"#utility.yul\":27154:27201   */\n      mstore\n        /* \"#utility.yul\":27218:27349   */\n      tag_635\n        /* \"#utility.yul\":27344:27348   */\n      dup2\n        /* \"#utility.yul\":27218:27349   */\n      tag_368\n      jump\t// in\n    tag_635:\n        /* \"#utility.yul\":27210:27349   */\n      swap1\n      pop\n        /* \"#utility.yul\":26937:27356   */\n      swap2\n      swap1\n      pop\n      jump\t// out\n        /* \"#utility.yul\":27362:28757   */\n    tag_228:\n        /* \"#utility.yul\":27479:27516   */\n      tag_637\n        /* \"#utility.yul\":27512:27515   */\n      dup3\n        /* \"#utility.yul\":27479:27516   */\n      tag_299\n      jump\t// in\n    tag_637:\n        /* \"#utility.yul\":27581:27599   */\n      0xffffffffffffffff\n        /* \"#utility.yul\":27573:27579   */\n      dup2\n        /* \"#utility.yul\":27570:27600   */\n      gt\n        /* \"#utility.yul\":27567:27623   */\n      iszero\n      tag_638\n      jumpi\n        /* \"#utility.yul\":27603:27621   */\n      tag_639\n      tag_318\n      jump\t// in\n    tag_639:\n        /* \"#utility.yul\":27567:27623   */\n    tag_638:\n        /* \"#utility.yul\":27647:27685   */\n      tag_640\n        /* \"#utility.yul\":27679:27683   */\n      dup3\n        /* \"#utility.yul\":27673:27684   */\n      sload\n        /* \"#utility.yul\":27647:27685   */\n      tag_118\n      jump\t// in\n    tag_640:\n        /* \"#utility.yul\":27732:27799   */\n      tag_641\n        /* \"#utility.yul\":27792:27798   */\n      dup3\n        /* \"#utility.yul\":27784:27790   */\n      dup3\n        /* \"#utility.yul\":27778:27782   */\n      dup6\n        /* \"#utility.yul\":27732:27799   */\n      tag_363\n      jump\t// in\n    tag_641:\n        /* \"#utility.yul\":27826:27827   */\n      0x00\n        /* \"#utility.yul\":27850:27854   */\n      0x20\n        /* \"#utility.yul\":27837:27854   */\n      swap1\n      pop\n        /* \"#utility.yul\":27882:27884   */\n      0x1f\n        /* \"#utility.yul\":27874:27880   */\n      dup4\n        /* \"#utility.yul\":27871:27885   */\n      gt\n        /* \"#utility.yul\":27899:27900   */\n      0x01\n        /* \"#utility.yul\":27894:28512   */\n      dup2\n      eq\n      tag_643\n      jumpi\n        /* \"#utility.yul\":28556:28557   */\n      0x00\n        /* \"#utility.yul\":28573:28579   */\n      dup5\n        /* \"#utility.yul\":28570:28647   */\n      iszero\n      tag_644\n      jumpi\n        /* \"#utility.yul\":28622:28631   */\n      dup3\n        /* \"#utility.yul\":28617:28620   */\n      dup8\n        /* \"#utility.yul\":28613:28632   */\n      add\n        /* \"#utility.yul\":28607:28633   */\n      mload\n        /* \"#utility.yul\":28598:28633   */\n      swap1\n      pop\n        /* \"#utility.yul\":28570:28647   */\n    tag_644:\n        /* \"#utility.yul\":28673:28740   */\n      tag_645\n        /* \"#utility.yul\":28733:28739   */\n      dup6\n        /* \"#utility.yul\":28726:28731   */\n      dup3\n        /* \"#utility.yul\":28673:28740   */\n      tag_366\n      jump\t// in\n    tag_645:\n        /* \"#utility.yul\":28667:28671   */\n      dup7\n        /* \"#utility.yul\":28660:28741   */\n      sstore\n        /* \"#utility.yul\":28529:28751   */\n      pop\n        /* \"#utility.yul\":27864:28751   */\n      jump(tag_642)\n        /* \"#utility.yul\":27894:28512   */\n    tag_643:\n        /* \"#utility.yul\":27946:27950   */\n      0x1f\n        /* \"#utility.yul\":27942:27951   */\n      not\n        /* \"#utility.yul\":27934:27940   */\n      dup5\n        /* \"#utility.yul\":27930:27952   */\n      and\n        /* \"#utility.yul\":27980:28017   */\n      tag_646\n        /* \"#utility.yul\":28012:28016   */\n      dup7\n        /* \"#utility.yul\":27980:28017   */\n      tag_352\n      jump\t// in\n    tag_646:\n        /* \"#utility.yul\":28039:28040   */\n      0x00\n        /* \"#utility.yul\":28053:28261   */\n    tag_647:\n        /* \"#utility.yul\":28067:28074   */\n      dup3\n        /* \"#utility.yul\":28064:28065   */\n      dup2\n        /* \"#utility.yul\":28061:28075   */\n      lt\n        /* \"#utility.yul\":28053:28261   */\n      iszero\n      tag_649\n      jumpi\n        /* \"#utility.yul\":28146:28155   */\n      dup5\n        /* \"#utility.yul\":28141:28144   */\n      dup10\n        /* \"#utility.yul\":28137:28156   */\n      add\n        /* \"#utility.yul\":28131:28157   */\n      mload\n        /* \"#utility.yul\":28123:28129   */\n      dup3\n        /* \"#utility.yul\":28116:28158   */\n      sstore\n        /* \"#utility.yul\":28197:28198   */\n      0x01\n        /* \"#utility.yul\":28189:28195   */\n      dup3\n        /* \"#utility.yul\":28185:28199   */\n      add\n        /* \"#utility.yul\":28175:28199   */\n      swap2\n      pop\n        /* \"#utility.yul\":28244:28246   */\n      0x20\n        /* \"#utility.yul\":28233:28242   */\n      dup6\n        /* \"#utility.yul\":28229:28247   */\n      add\n        /* \"#utility.yul\":28216:28247   */\n      swap5\n      pop\n        /* \"#utility.yul\":28090:28094   */\n      0x20\n        /* \"#utility.yul\":28087:28088   */\n      dup2\n        /* \"#utility.yul\":28083:28095   */\n      add\n        /* \"#utility.yul\":28078:28095   */\n      swap1\n      pop\n        /* \"#utility.yul\":28053:28261   */\n      jump(tag_647)\n    tag_649:\n        /* \"#utility.yul\":28289:28295   */\n      dup7\n        /* \"#utility.yul\":28280:28287   */\n      dup4\n        /* \"#utility.yul\":28277:28296   */\n      lt\n        /* \"#utility.yul\":28274:28453   */\n      iszero\n      tag_650\n      jumpi\n        /* \"#utility.yul\":28347:28356   */\n      dup5\n        /* \"#utility.yul\":28342:28345   */\n      dup10\n        /* \"#utility.yul\":28338:28357   */\n      add\n        /* \"#utility.yul\":28332:28358   */\n      mload\n        /* \"#utility.yul\":28390:28438   */\n      tag_651\n        /* \"#utility.yul\":28432:28436   */\n      0x1f\n        /* \"#utility.yul\":28424:28430   */\n      dup10\n        /* \"#utility.yul\":28420:28437   */\n      and\n        /* \"#utility.yul\":28409:28418   */\n      dup3\n        /* \"#utility.yul\":28390:28438   */\n      tag_365\n      jump\t// in\n    tag_651:\n        /* \"#utility.yul\":28382:28388   */\n      dup4\n        /* \"#utility.yul\":28375:28439   */\n      sstore\n        /* \"#utility.yul\":28297:28453   */\n      pop\n        /* \"#utility.yul\":28274:28453   */\n    tag_650:\n        /* \"#utility.yul\":28499:28500   */\n      0x01\n        /* \"#utility.yul\":28495:28496   */\n      0x02\n        /* \"#utility.yul\":28487:28493   */\n      dup9\n        /* \"#utility.yul\":28483:28497   */\n      mul\n        /* \"#utility.yul\":28479:28501   */\n      add\n        /* \"#utility.yul\":28473:28477   */\n      dup9\n        /* \"#utility.yul\":28466:28502   */\n      sstore\n        /* \"#utility.yul\":27901:28512   */\n      pop\n      pop\n      pop\n        /* \"#utility.yul\":27864:28751   */\n    tag_642:\n      pop\n        /* \"#utility.yul\":27454:28757   */\n      pop\n      pop\n      pop\n        /* \"#utility.yul\":27362:28757   */\n      pop\n      pop\n      jump\t// out\n        /* \"#utility.yul\":28763:28932   */\n    tag_369:\n        /* \"#utility.yul\":28903:28924   */\n      0x436f6e7472616374206973207061757365642e00000000000000000000000000\n        /* \"#utility.yul\":28899:28900   */\n      0x00\n        /* \"#utility.yul\":28891:28897   */\n      dup3\n        /* \"#utility.yul\":28887:28901   */\n      add\n        /* \"#utility.yul\":28880:28925   */\n      mstore\n        /* \"#utility.yul\":28763:28932   */\n      pop\n      jump\t// out\n        /* \"#utility.yul\":28938:29304   */\n    tag_370:\n        /* \"#utility.yul\":29080:29083   */\n      0x00\n        /* \"#utility.yul\":29101:29168   */\n      tag_654\n        /* \"#utility.yul\":29165:29167   */\n      0x13\n        /* \"#utility.yul\":29160:29163   */\n      dup4\n        /* \"#utility.yul\":29101:29168   */\n      tag_300\n      jump\t// in\n    tag_654:\n        /* \"#utility.yul\":29094:29168   */\n      swap2\n      pop\n        /* \"#utility.yul\":29177:29270   */\n      tag_655\n        /* \"#utility.yul\":29266:29269   */\n      dup3\n        /* \"#utility.yul\":29177:29270   */\n      tag_369\n      jump\t// in\n    tag_655:\n        /* \"#utility.yul\":29295:29297   */\n      0x20\n        /* \"#utility.yul\":29290:29293   */\n      dup3\n        /* \"#utility.yul\":29286:29298   */\n      add\n        /* \"#utility.yul\":29279:29298   */\n      swap1\n      pop\n        /* \"#utility.yul\":28938:29304   */\n      swap2\n      swap1\n      pop\n      jump\t// out\n        /* \"#utility.yul\":29310:29729   */\n    tag_239:\n        /* \"#utility.yul\":29476:29480   */\n      0x00\n        /* \"#utility.yul\":29514:29516   */\n      0x20\n        /* \"#utility.yul\":29503:29512   */\n      dup3\n        /* \"#utility.yul\":29499:29517   */\n      add\n        /* \"#utility.yul\":29491:29517   */\n      swap1\n      pop\n        /* \"#utility.yul\":29563:29572   */\n      dup2\n        /* \"#utility.yul\":29557:29561   */\n      dup2\n        /* \"#utility.yul\":29553:29573   */\n      sub\n        /* \"#utility.yul\":29549:29550   */\n      0x00\n        /* \"#utility.yul\":29538:29547   */\n      dup4\n        /* \"#utility.yul\":29534:29551   */\n      add\n        /* \"#utility.yul\":29527:29574   */\n      mstore\n        /* \"#utility.yul\":29591:29722   */\n      tag_657\n        /* \"#utility.yul\":29717:29721   */\n      dup2\n        /* \"#utility.yul\":29591:29722   */\n      tag_370\n      jump\t// in\n    tag_657:\n        /* \"#utility.yul\":29583:29722   */\n      swap1\n      pop\n        /* \"#utility.yul\":29310:29729   */\n      swap2\n      swap1\n      pop\n      jump\t// out\n        /* \"#utility.yul\":29735:29897   */\n    tag_371:\n        /* \"#utility.yul\":29875:29889   */\n      0x496e76616c696420746965720000000000000000000000000000000000000000\n        /* \"#utility.yul\":29871:29872   */\n      0x00\n        /* \"#utility.yul\":29863:29869   */\n      dup3\n        /* \"#utility.yul\":29859:29873   */\n      add\n        /* \"#utility.yul\":29852:29890   */\n      mstore\n        /* \"#utility.yul\":29735:29897   */\n      pop\n      jump\t// out\n        /* \"#utility.yul\":29903:30269   */\n    tag_372:\n        /* \"#utility.yul\":30045:30048   */\n      0x00\n        /* \"#utility.yul\":30066:30133   */\n      tag_660\n        /* \"#utility.yul\":30130:30132   */\n      0x0c\n        /* \"#utility.yul\":30125:30128   */\n      dup4\n        /* \"#utility.yul\":30066:30133   */\n      tag_300\n      jump\t// in\n    tag_660:\n        /* \"#utility.yul\":30059:30133   */\n      swap2\n      pop\n        /* \"#utility.yul\":30142:30235   */\n      tag_661\n        /* \"#utility.yul\":30231:30234   */\n      dup3\n        /* \"#utility.yul\":30142:30235   */\n      tag_371\n      jump\t// in\n    tag_661:\n        /* \"#utility.yul\":30260:30262   */\n      0x20\n        /* \"#utility.yul\":30255:30258   */\n      dup3\n        /* \"#utility.yul\":30251:30263   */\n      add\n        /* \"#utility.yul\":30244:30263   */\n      swap1\n      pop\n        /* \"#utility.yul\":29903:30269   */\n      swap2\n      swap1\n      pop\n      jump\t// out\n        /* \"#utility.yul\":30275:30694   */\n    tag_243:\n        /* \"#utility.yul\":30441:30445   */\n      0x00\n        /* \"#utility.yul\":30479:30481   */\n      0x20\n        /* \"#utility.yul\":30468:30477   */\n      dup3\n        /* \"#utility.yul\":30464:30482   */\n      add\n        /* \"#utility.yul\":30456:30482   */\n      swap1\n      pop\n        /* \"#utility.yul\":30528:30537   */\n      dup2\n        /* \"#utility.yul\":30522:30526   */\n      dup2\n        /* \"#utility.yul\":30518:30538   */\n      sub\n        /* \"#utility.yul\":30514:30515   */\n      0x00\n        /* \"#utility.yul\":30503:30512   */\n      dup4\n        /* \"#utility.yul\":30499:30516   */\n      add\n        /* \"#utility.yul\":30492:30539   */\n      mstore\n        /* \"#utility.yul\":30556:30687   */\n      tag_663\n        /* \"#utility.yul\":30682:30686   */\n      dup2\n        /* \"#utility.yul\":30556:30687   */\n      tag_372\n      jump\t// in\n    tag_663:\n        /* \"#utility.yul\":30548:30687   */\n      swap1\n      pop\n        /* \"#utility.yul\":30275:30694   */\n      swap2\n      swap1\n      pop\n      jump\t// out\n        /* \"#utility.yul\":30700:30866   */\n    tag_373:\n        /* \"#utility.yul\":30840:30858   */\n      0x496e636f727265637420616d6f756e7400000000000000000000000000000000\n        /* \"#utility.yul\":30836:30837   */\n      0x00\n        /* \"#utility.yul\":30828:30834   */\n      dup3\n        /* \"#utility.yul\":30824:30838   */\n      add\n        /* \"#utility.yul\":30817:30859   */\n      mstore\n        /* \"#utility.yul\":30700:30866   */\n      pop\n      jump\t// out\n        /* \"#utility.yul\":30872:31238   */\n    tag_374:\n        /* \"#utility.yul\":31014:31017   */\n      0x00\n        /* \"#utility.yul\":31035:31102   */\n      tag_666\n        /* \"#utility.yul\":31099:31101   */\n      0x10\n        /* \"#utility.yul\":31094:31097   */\n      dup4\n        /* \"#utility.yul\":31035:31102   */\n      tag_300\n      jump\t// in\n    tag_666:\n        /* \"#utility.yul\":31028:31102   */\n      swap2\n      pop\n        /* \"#utility.yul\":31111:31204   */\n      tag_667\n        /* \"#utility.yul\":31200:31203   */\n      dup3\n        /* \"#utility.yul\":31111:31204   */\n      tag_373\n      jump\t// in\n    tag_667:\n        /* \"#utility.yul\":31229:31231   */\n      0x20\n        /* \"#utility.yul\":31224:31227   */\n      dup3\n        /* \"#utility.yul\":31220:31232   */\n      add\n        /* \"#utility.yul\":31213:31232   */\n      swap1\n      pop\n        /* \"#utility.yul\":30872:31238   */\n      swap2\n      swap1\n      pop\n      jump\t// out\n        /* \"#utility.yul\":31244:31663   */\n    tag_249:\n        /* \"#utility.yul\":31410:31414   */\n      0x00\n        /* \"#utility.yul\":31448:31450   */\n      0x20\n        /* \"#utility.yul\":31437:31446   */\n      dup3\n        /* \"#utility.yul\":31433:31451   */\n      add\n        /* \"#utility.yul\":31425:31451   */\n      swap1\n      pop\n        /* \"#utility.yul\":31497:31506   */\n      dup2\n        /* \"#utility.yul\":31491:31495   */\n      dup2\n        /* \"#utility.yul\":31487:31507   */\n      sub\n        /* \"#utility.yul\":31483:31484   */\n      0x00\n        /* \"#utility.yul\":31472:31481   */\n      dup4\n        /* \"#utility.yul\":31468:31485   */\n      add\n        /* \"#utility.yul\":31461:31508   */\n      mstore\n        /* \"#utility.yul\":31525:31656   */\n      tag_669\n        /* \"#utility.yul\":31651:31655   */\n      dup2\n        /* \"#utility.yul\":31525:31656   */\n      tag_374\n      jump\t// in\n    tag_669:\n        /* \"#utility.yul\":31517:31656   */\n      swap1\n      pop\n        /* \"#utility.yul\":31244:31663   */\n      swap2\n      swap1\n      pop\n      jump\t// out\n        /* \"#utility.yul\":31669:31902   */\n    tag_254:\n        /* \"#utility.yul\":31708:31711   */\n      0x00\n        /* \"#utility.yul\":31731:31755   */\n      tag_671\n        /* \"#utility.yul\":31749:31754   */\n      dup3\n        /* \"#utility.yul\":31731:31755   */\n      tag_296\n      jump\t// in\n    tag_671:\n        /* \"#utility.yul\":31722:31755   */\n      swap2\n      pop\n        /* \"#utility.yul\":31777:31843   */\n      0xffffffffffffffffffffffffffffffffffffffffffffffffffffffffffffffff\n        /* \"#utility.yul\":31770:31775   */\n      dup3\n        /* \"#utility.yul\":31767:31844   */\n      sub\n        /* \"#utility.yul\":31764:31867   */\n      tag_672\n      jumpi\n        /* \"#utility.yul\":31847:31865   */\n      tag_673\n      tag_340\n      jump\t// in\n    tag_673:\n        /* \"#utility.yul\":31764:31867   */\n    tag_672:\n        /* \"#utility.yul\":31894:31895   */\n      0x01\n        /* \"#utility.yul\":31887:31892   */\n      dup3\n        /* \"#utility.yul\":31883:31896   */\n      add\n        /* \"#utility.yul\":31876:31896   */\n      swap1\n      pop\n        /* \"#utility.yul\":31669:31902   */\n      swap2\n      swap1\n      pop\n      jump\t// out\n\n    auxdata: 0xa264697066735822122056ec6df97a121366797340c064a439a0cdbdd92a3d88edcf264c0b26b6f5bd7a64736f6c634300081a0033\n}\n",
				"bytecode": {
					"linkReferences": {},
					"object": "608060405234801561000f575f80fd5b50604051612b0a380380612b0a8339818101604052810190610031919061026a565b835f908161003f919061050a565b50826001908161004f919061050a565b508160028190555062015180816100669190610606565b426100719190610647565b6003819055503360045f6101000a81548173ffffffffffffffffffffffffffffffffffffffff021916908373ffffffffffffffffffffffffffffffffffffffff1602179055505f600460156101000a81548160ff021916908360028111156100dc576100db61067a565b5b0217905550505050506106a7565b5f604051905090565b5f80fd5b5f80fd5b5f80fd5b5f80fd5b5f601f19601f8301169050919050565b7f4e487b71000000000000000000000000000000000000000000000000000000005f52604160045260245ffd5b61014982610103565b810181811067ffffffffffffffff8211171561016857610167610113565b5b80604052505050565b5f61017a6100ea565b90506101868282610140565b919050565b5f67ffffffffffffffff8211156101a5576101a4610113565b5b6101ae82610103565b9050602081019050919050565b8281835e5f83830152505050565b5f6101db6101d68461018b565b610171565b9050828152602081018484840111156101f7576101f66100ff565b5b6102028482856101bb565b509392505050565b5f82601f83011261021e5761021d6100fb565b5b815161022e8482602086016101c9565b91505092915050565b5f819050919050565b61024981610237565b8114610253575f80fd5b50565b5f8151905061026481610240565b92915050565b5f805f8060808587031215610282576102816100f3565b5b5f85015167ffffffffffffffff81111561029f5761029e6100f7565b5b6102ab8782880161020a565b945050602085015167ffffffffffffffff8111156102cc576102cb6100f7565b5b6102d88782880161020a565b93505060406102e987828801610256565b92505060606102fa87828801610256565b91505092959194509250565b5f81519050919050565b7f4e487b71000000000000000000000000000000000000000000000000000000005f52602260045260245ffd5b5f600282049050600182168061035457607f821691505b60208210810361036757610366610310565b5b50919050565b5f819050815f5260205f209050919050565b5f6020601f8301049050919050565b5f82821b905092915050565b5f600883026103c97fffffffffffffffffffffffffffffffffffffffffffffffffffffffffffffffff8261038e565b6103d3868361038e565b95508019841693508086168417925050509392505050565b5f819050919050565b5f61040e61040961040484610237565b6103eb565b610237565b9050919050565b5f819050919050565b610427836103f4565b61043b61043382610415565b84845461039a565b825550505050565b5f90565b61044f610443565b61045a81848461041e565b505050565b5b8181101561047d576104725f82610447565b600181019050610460565b5050565b601f8211156104c2576104938161036d565b61049c8461037f565b810160208510156104ab578190505b6104bf6104b78561037f565b83018261045f565b50505b505050565b5f82821c905092915050565b5f6104e25f19846008026104c7565b1980831691505092915050565b5f6104fa83836104d3565b9150826002028217905092915050565b61051382610306565b67ffffffffffffffff81111561052c5761052b610113565b5b610536825461033d565b610541828285610481565b5f60209050601f831160018114610572575f8415610560578287015190505b61056a85826104ef565b8655506105d1565b601f1984166105808661036d565b5f5b828110156105a757848901518255600182019150602085019450602081019050610582565b868310156105c457848901516105c0601f8916826104d3565b8355505b6001600288020188555050505b505050505050565b7f4e487b71000000000000000000000000000000000000000000000000000000005f52601160045260245ffd5b5f61061082610237565b915061061b83610237565b925082820261062981610237565b915082820484148315176106405761063f6105d9565b5b5092915050565b5f61065182610237565b915061065c83610237565b9250828201905080821115610674576106736105d9565b5b92915050565b7f4e487b71000000000000000000000000000000000000000000000000000000005f52602160045260245ffd5b612456806106b45f395ff3fe60806040526004361061011e575f3560e01c80637284e4161161009f578063b85dfb8011610063578063b85dfb8014610390578063c19d93fb146103cc578063ca1d209d146103f6578063d621a77614610412578063de170570146104285761011e565b80637284e416146102b05780637497211b146102da5780637adba527146103025780638da5cb5b1461033e5780638ece7b91146103685761011e565b80633ccfd60b116100e65780633ccfd60b14610206578063401938831461021c578063590e1ae3146102465780635c975abb1461025c5780636f9fb98a146102865761011e565b8063039af9eb1461012257806306fdde0314610160578063105505151461018a57806329dcb0cf146101b4578063389b7533146101de575b5f80fd5b34801561012d575f80fd5b5061014860048036038101906101439190611456565b610452565b60405161015793929190611500565b60405180910390f35b34801561016b575f80fd5b5061017461050d565b604051610181919061153c565b60405180910390f35b348015610195575f80fd5b5061019e610598565b6040516101ab91906115cf565b60405180910390f35b3480156101bf575f80fd5b506101c8610612565b6040516101d591906115e8565b60405180910390f35b3480156101e9575f80fd5b5061020460048036038101906101ff9190611456565b610618565b005b348015610211575f80fd5b5061021a610745565b005b348015610227575f80fd5b50610230610900565b60405161023d91906115e8565b60405180910390f35b348015610251575f80fd5b5061025a610906565b005b348015610267575f80fd5b50610270610a93565b60405161027d919061161b565b60405180910390f35b348015610291575f80fd5b5061029a610aa6565b6040516102a791906115e8565b60405180910390f35b3480156102bb575f80fd5b506102c4610aad565b6040516102d1919061153c565b60405180910390f35b3480156102e5575f80fd5b5061030060048036038101906102fb9190611456565b610b39565b005b34801561030d575f80fd5b506103286004803603810190610323919061168e565b610cd2565b604051610335919061161b565b60405180910390f35b348015610349575f80fd5b50610352610d37565b60405161035f91906116db565b60405180910390f35b348015610373575f80fd5b5061038e60048036038101906103899190611820565b610d5c565b005b34801561039b575f80fd5b506103b660048036038101906103b1919061187a565b610e9e565b6040516103c391906115e8565b60405180910390f35b3480156103d7575f80fd5b506103e0610eb8565b6040516103ed91906115cf565b60405180910390f35b610410600480360381019061040b9190611456565b610ecb565b005b34801561041d575f80fd5b5061042661113b565b005b348015610433575f80fd5b5061043c6111f6565b6040516104499190611a04565b60405180910390f35b60058181548110610461575f80fd5b905f5260205f2090600302015f91509050805f01805461048090611a51565b80601f01602080910402602001604051908101604052809291908181526020018280546104ac90611a51565b80156104f75780601f106104ce576101008083540402835291602001916104f7565b820191905f5260205f20905b8154815290600101906020018083116104da57829003601f168201915b5050505050908060010154908060020154905083565b5f805461051990611a51565b80601f016020809104026020016040519081016040528092919081815260200182805461054590611a51565b80156105905780601f1061056757610100808354040283529160200191610590565b820191905f5260205f20905b81548152906001019060200180831161057357829003601f168201915b505050505081565b5f8060028111156105ac576105ab61155c565b5b600460159054906101000a900460ff1660028111156105ce576105cd61155c565b5b1480156105dc575060035442115b156105fc576002544710156105f25760026105f5565b60015b905061060f565b600460159054906101000a900460ff1690505b90565b60035481565b60045f9054906101000a900473ffffffffffffffffffffffffffffffffffffffff1673ffffffffffffffffffffffffffffffffffffffff163373ffffffffffffffffffffffffffffffffffffffff16146106a7576040517f08c379a000000000000000000000000000000000000000000000000000000000815260040161069e90611af1565b60405180910390fd5b5f60028111156106ba576106b961155c565b5b600460159054906101000a900460ff1660028111156106dc576106db61155c565b5b1461071c576040517f08c379a000000000000000000000000000000000000000000000000000000000815260040161071390611b59565b60405180910390fd5b620151808161072b9190611ba4565b60035f82825461073b9190611be5565b9250508190555050565b60045f9054906101000a900473ffffffffffffffffffffffffffffffffffffffff1673ffffffffffffffffffffffffffffffffffffffff163373ffffffffffffffffffffffffffffffffffffffff16146107d4576040517f08c379a00000000000000000000000000000000000000000000000000000000081526004016107cb90611af1565b60405180910390fd5b600160028111156107e8576107e761155c565b5b600460159054906101000a900460ff16600281111561080a5761080961155c565b5b1461084a576040517f08c379a000000000000000000000000000000000000000000000000000000000815260040161084190611c62565b60405180910390fd5b6108526112f5565b5f4790505f8111610898576040517f08c379a000000000000000000000000000000000000000000000000000000000815260040161088f90611cca565b60405180910390fd5b60045f9054906101000a900473ffffffffffffffffffffffffffffffffffffffff1673ffffffffffffffffffffffffffffffffffffffff166108fc8290811502906040515f60405180830381858888f193505050501580156108fc573d5f803e3d5ffd5b5050565b60025481565b61090e6112f5565b6002808111156109215761092061155c565b5b600460159054906101000a900460ff1660028111156109435761094261155c565b5b14610983576040517f08c379a000000000000000000000000000000000000000000000000000000000815260040161097a90611d32565b60405180910390fd5b5f60065f3373ffffffffffffffffffffffffffffffffffffffff1673ffffffffffffffffffffffffffffffffffffffff1681526020019081526020015f205f015490505f8111610a08576040517f08c379a00000000000000000000000000000000000000000000000000000000081526004016109ff90611dc0565b60405180910390fd5b5f60065f3373ffffffffffffffffffffffffffffffffffffffff1673ffffffffffffffffffffffffffffffffffffffff1681526020019081526020015f205f01819055503373ffffffffffffffffffffffffffffffffffffffff166108fc8290811502906040515f60405180830381858888f19350505050158015610a8f573d5f803e3d5ffd5b5050565b600460149054906101000a900460ff1681565b5f47905090565b60018054610aba90611a51565b80601f0160208091040260200160405190810160405280929190818152602001828054610ae690611a51565b8015610b315780601f10610b0857610100808354040283529160200191610b31565b820191905f5260205f20905b815481529060010190602001808311610b1457829003601f168201915b505050505081565b60045f9054906101000a900473ffffffffffffffffffffffffffffffffffffffff1673ffffffffffffffffffffffffffffffffffffffff163373ffffffffffffffffffffffffffffffffffffffff1614610bc8576040517f08c379a0000000000000000000000000000000000000000000000000000000008152600401610bbf90611af1565b60405180910390fd5b6005805490508110610c0f576040517f08c379a0000000000000000000000000000000000000000000000000000000008152600401610c0690611e28565b60405180910390fd5b60056001600580549050610c239190611e46565b81548110610c3457610c33611e79565b5b905f5260205f20906003020160058281548110610c5457610c53611e79565b5b905f5260205f2090600302015f8201815f019081610c729190612058565b5060018201548160010155600282015481600201559050506005805480610c9c57610c9b61213d565b5b600190038181905f5260205f2090600302015f8082015f610cbd91906113ba565b600182015f9055600282015f90555050905550565b5f60065f8473ffffffffffffffffffffffffffffffffffffffff1673ffffffffffffffffffffffffffffffffffffffff1681526020019081526020015f206001015f8381526020019081526020015f205f9054906101000a900460ff16905092915050565b60045f9054906101000a900473ffffffffffffffffffffffffffffffffffffffff1681565b60045f9054906101000a900473ffffffffffffffffffffffffffffffffffffffff1673ffffffffffffffffffffffffffffffffffffffff163373ffffffffffffffffffffffffffffffffffffffff1614610deb576040517f08c379a0000000000000000000000000000000000000000000000000000000008152600401610de290611af1565b60405180910390fd5b5f8111610e2d576040517f08c379a0000000000000000000000000000000000000000000000000000000008152600401610e24906121b4565b60405180910390fd5b600560405180606001604052808481526020018381526020015f815250908060018154018082558091505060019003905f5260205f2090600302015f909190919091505f820151815f019081610e8391906121d2565b50602082015181600101556040820151816002015550505050565b6006602052805f5260405f205f91509050805f0154905081565b600460159054906101000a900460ff1681565b5f6002811115610ede57610edd61155c565b5b600460159054906101000a900460ff166002811115610f0057610eff61155c565b5b14610f40576040517f08c379a0000000000000000000000000000000000000000000000000000000008152600401610f3790611b59565b60405180910390fd5b600460149054906101000a900460ff1615610f90576040517f08c379a0000000000000000000000000000000000000000000000000000000008152600401610f87906122eb565b60405180910390fd5b6005805490508110610fd7576040517f08c379a0000000000000000000000000000000000000000000000000000000008152600401610fce90612353565b60405180910390fd5b60058181548110610feb57610fea611e79565b5b905f5260205f20906003020160010154341461103c576040517f08c379a0000000000000000000000000000000000000000000000000000000008152600401611033906123bb565b60405180910390fd5b600581815481106110505761104f611e79565b5b905f5260205f2090600302016002015f81548092919061106f906123d9565b91905055503460065f3373ffffffffffffffffffffffffffffffffffffffff1673ffffffffffffffffffffffffffffffffffffffff1681526020019081526020015f205f015f8282546110c29190611be5565b92505081905550600160065f3373ffffffffffffffffffffffffffffffffffffffff1673ffffffffffffffffffffffffffffffffffffffff1681526020019081526020015f206001015f8381526020019081526020015f205f6101000a81548160ff0219169083151502179055506111386112f5565b50565b60045f9054906101000a900473ffffffffffffffffffffffffffffffffffffffff1673ffffffffffffffffffffffffffffffffffffffff163373ffffffffffffffffffffffffffffffffffffffff16146111ca576040517f08c379a00000000000000000000000000000000000000000000000000000000081526004016111c190611af1565b60405180910390fd5b600460149054906101000a900460ff1615600460146101000a81548160ff021916908315150217905550565b60606005805480602002602001604051908101604052809291908181526020015f905b828210156112ec578382905f5260205f2090600302016040518060600160405290815f8201805461124990611a51565b80601f016020809104026020016040519081016040528092919081815260200182805461127590611a51565b80156112c05780601f10611297576101008083540402835291602001916112c0565b820191905f5260205f20905b8154815290600101906020018083116112a357829003601f168201915b505050505081526020016001820154815260200160028201548152505081526020019060010190611219565b50505050905090565b5f60028111156113085761130761155c565b5b600460159054906101000a900460ff16600281111561132a5761132961155c565b5b036113b857600354421061137a5760025447101561134957600261134c565b60015b600460156101000a81548160ff021916908360028111156113705761136f61155c565b5b02179055506113b7565b60025447101561138a575f61138d565b60015b600460156101000a81548160ff021916908360028111156113b1576113b061155c565b5b02179055505b5b565b5080546113c690611a51565b5f825580601f106113d757506113f4565b601f0160209004905f5260205f20908101906113f391906113f7565b5b50565b5b8082111561140e575f815f9055506001016113f8565b5090565b5f604051905090565b5f80fd5b5f80fd5b5f819050919050565b61143581611423565b811461143f575f80fd5b50565b5f813590506114508161142c565b92915050565b5f6020828403121561146b5761146a61141b565b5b5f61147884828501611442565b91505092915050565b5f81519050919050565b5f82825260208201905092915050565b8281835e5f83830152505050565b5f601f19601f8301169050919050565b5f6114c382611481565b6114cd818561148b565b93506114dd81856020860161149b565b6114e6816114a9565b840191505092915050565b6114fa81611423565b82525050565b5f6060820190508181035f83015261151881866114b9565b905061152760208301856114f1565b61153460408301846114f1565b949350505050565b5f6020820190508181035f83015261155481846114b9565b905092915050565b7f4e487b71000000000000000000000000000000000000000000000000000000005f52602160045260245ffd5b6003811061159a5761159961155c565b5b50565b5f8190506115aa82611589565b919050565b5f6115b98261159d565b9050919050565b6115c9816115af565b82525050565b5f6020820190506115e25f8301846115c0565b92915050565b5f6020820190506115fb5f8301846114f1565b92915050565b5f8115159050919050565b61161581611601565b82525050565b5f60208201905061162e5f83018461160c565b92915050565b5f73ffffffffffffffffffffffffffffffffffffffff82169050919050565b5f61165d82611634565b9050919050565b61166d81611653565b8114611677575f80fd5b50565b5f8135905061168881611664565b92915050565b5f80604083850312156116a4576116a361141b565b5b5f6116b18582860161167a565b92505060206116c285828601611442565b9150509250929050565b6116d581611653565b82525050565b5f6020820190506116ee5f8301846116cc565b92915050565b5f80fd5b5f80fd5b7f4e487b71000000000000000000000000000000000000000000000000000000005f52604160045260245ffd5b611732826114a9565b810181811067ffffffffffffffff82111715611751576117506116fc565b5b80604052505050565b5f611763611412565b905061176f8282611729565b919050565b5f67ffffffffffffffff82111561178e5761178d6116fc565b5b611797826114a9565b9050602081019050919050565b828183375f83830152505050565b5f6117c46117bf84611774565b61175a565b9050828152602081018484840111156117e0576117df6116f8565b5b6117eb8482856117a4565b509392505050565b5f82601f830112611807576118066116f4565b5b81356118178482602086016117b2565b91505092915050565b5f80604083850312156118365761183561141b565b5b5f83013567ffffffffffffffff8111156118535761185261141f565b5b61185f858286016117f3565b925050602061187085828601611442565b9150509250929050565b5f6020828403121561188f5761188e61141b565b5b5f61189c8482850161167a565b91505092915050565b5f81519050919050565b5f82825260208201905092915050565b5f819050602082019050919050565b5f82825260208201905092915050565b5f6118e882611481565b6118f281856118ce565b935061190281856020860161149b565b61190b816114a9565b840191505092915050565b61191f81611423565b82525050565b5f606083015f8301518482035f86015261193f82826118de565b91505060208301516119546020860182611916565b5060408301516119676040860182611916565b508091505092915050565b5f61197d8383611925565b905092915050565b5f602082019050919050565b5f61199b826118a5565b6119a581856118af565b9350836020820285016119b7856118bf565b805f5b858110156119f257848403895281516119d38582611972565b94506119de83611985565b925060208a019950506001810190506119ba565b50829750879550505050505092915050565b5f6020820190508181035f830152611a1c8184611991565b905092915050565b7f4e487b71000000000000000000000000000000000000000000000000000000005f52602260045260245ffd5b5f6002820490506001821680611a6857607f821691505b602082108103611a7b57611a7a611a24565b5b50919050565b7f596f7520617265206e6f7420746865206f776e6572206f66207468697320636f5f8201527f6e74726163740000000000000000000000000000000000000000000000000000602082015250565b5f611adb60268361148b565b9150611ae682611a81565b604082019050919050565b5f6020820190508181035f830152611b0881611acf565b9050919050565b7f43616d706169676e206973206e6f7420616374697665000000000000000000005f82015250565b5f611b4360168361148b565b9150611b4e82611b0f565b602082019050919050565b5f6020820190508181035f830152611b7081611b37565b9050919050565b7f4e487b71000000000000000000000000000000000000000000000000000000005f52601160045260245ffd5b5f611bae82611423565b9150611bb983611423565b9250828202611bc781611423565b91508282048414831517611bde57611bdd611b77565b5b5092915050565b5f611bef82611423565b9150611bfa83611423565b9250828201905080821115611c1257611c11611b77565b5b92915050565b7f43616d706169676e206973206e6f7420737563636573730000000000000000005f82015250565b5f611c4c60178361148b565b9150611c5782611c18565b602082019050919050565b5f6020820190508181035f830152611c7981611c40565b9050919050565b7f4e6f2062616c616e636520746f207769746864726177000000000000000000005f82015250565b5f611cb460168361148b565b9150611cbf82611c80565b602082019050919050565b5f6020820190508181035f830152611ce181611ca8565b9050919050565b7f526566756e64206e6f7420656c696769626c65000000000000000000000000005f82015250565b5f611d1c60138361148b565b9150611d2782611ce8565b602082019050919050565b5f6020820190508181035f830152611d4981611d10565b9050919050565b7f436f6e747269627574696f6e206e6f7420666f756e642c20726566756e6420665f8201527f61696c6564000000000000000000000000000000000000000000000000000000602082015250565b5f611daa60258361148b565b9150611db582611d50565b604082019050919050565b5f6020820190508181035f830152611dd781611d9e565b9050919050565b7f5469657220646f65736e277420657869737473000000000000000000000000005f82015250565b5f611e1260138361148b565b9150611e1d82611dde565b602082019050919050565b5f6020820190508181035f830152611e3f81611e06565b9050919050565b5f611e5082611423565b9150611e5b83611423565b9250828203905081811115611e7357611e72611b77565b5b92915050565b7f4e487b71000000000000000000000000000000000000000000000000000000005f52603260045260245ffd5b5f81549050611eb481611a51565b9050919050565b5f819050815f5260205f209050919050565b5f6020601f8301049050919050565b5f82821b905092915050565b5f60088302611f177fffffffffffffffffffffffffffffffffffffffffffffffffffffffffffffffff82611edc565b611f218683611edc565b95508019841693508086168417925050509392505050565b5f819050919050565b5f611f5c611f57611f5284611423565b611f39565b611423565b9050919050565b5f819050919050565b611f7583611f42565b611f89611f8182611f63565b848454611ee8565b825550505050565b5f90565b611f9d611f91565b611fa8818484611f6c565b505050565b5b81811015611fcb57611fc05f82611f95565b600181019050611fae565b5050565b601f82111561201057611fe181611ebb565b611fea84611ecd565b81016020851015611ff9578190505b61200d61200585611ecd565b830182611fad565b50505b505050565b5f82821c905092915050565b5f6120305f1984600802612015565b1980831691505092915050565b5f6120488383612021565b9150826002028217905092915050565b81810361206657505061213b565b61206f82611ea6565b67ffffffffffffffff811115612088576120876116fc565b5b6120928254611a51565b61209d828285611fcf565b5f601f8311600181146120ca575f84156120b8578287015490505b6120c2858261203d565b865550612134565b601f1984166120d887611ebb565b96506120e386611ebb565b5f5b8281101561210a578489015482556001820191506001850194506020810190506120e5565b868310156121275784890154612123601f891682612021565b8355505b6001600288020188555050505b5050505050505b565b7f4e487b71000000000000000000000000000000000000000000000000000000005f52603160045260245ffd5b7f416d6f756e74206d757374206265206772656174657220746861746e203000005f82015250565b5f61219e601e8361148b565b91506121a98261216a565b602082019050919050565b5f6020820190508181035f8301526121cb81612192565b9050919050565b6121db82611481565b67ffffffffffffffff8111156121f4576121f36116fc565b5b6121fe8254611a51565b612209828285611fcf565b5f60209050601f83116001811461223a575f8415612228578287015190505b612232858261203d565b865550612299565b601f19841661224886611ebb565b5f5b8281101561226f5784890151825560018201915060208501945060208101905061224a565b8683101561228c5784890151612288601f891682612021565b8355505b6001600288020188555050505b505050505050565b7f436f6e7472616374206973207061757365642e000000000000000000000000005f82015250565b5f6122d560138361148b565b91506122e0826122a1565b602082019050919050565b5f6020820190508181035f830152612302816122c9565b9050919050565b7f496e76616c6964207469657200000000000000000000000000000000000000005f82015250565b5f61233d600c8361148b565b915061234882612309565b602082019050919050565b5f6020820190508181035f83015261236a81612331565b9050919050565b7f496e636f727265637420616d6f756e74000000000000000000000000000000005f82015250565b5f6123a560108361148b565b91506123b082612371565b602082019050919050565b5f6020820190508181035f8301526123d281612399565b9050919050565b5f6123e382611423565b91507fffffffffffffffffffffffffffffffffffffffffffffffffffffffffffffffff820361241557612414611b77565b5b60018201905091905056fea264697066735822122056ec6df97a121366797340c064a439a0cdbdd92a3d88edcf264c0b26b6f5bd7a64736f6c634300081a0033",
					"opcodes": "PUSH1 0x80 PUSH1 0x40 MSTORE CALLVALUE DUP1 ISZERO PUSH2 0xF JUMPI PUSH0 DUP1 REVERT JUMPDEST POP PUSH1 0x40 MLOAD PUSH2 0x2B0A CODESIZE SUB DUP1 PUSH2 0x2B0A DUP4 CODECOPY DUP2 DUP2 ADD PUSH1 0x40 MSTORE DUP2 ADD SWAP1 PUSH2 0x31 SWAP2 SWAP1 PUSH2 0x26A JUMP JUMPDEST DUP4 PUSH0 SWAP1 DUP2 PUSH2 0x3F SWAP2 SWAP1 PUSH2 0x50A JUMP JUMPDEST POP DUP3 PUSH1 0x1 SWAP1 DUP2 PUSH2 0x4F SWAP2 SWAP1 PUSH2 0x50A JUMP JUMPDEST POP DUP2 PUSH1 0x2 DUP2 SWAP1 SSTORE POP PUSH3 0x15180 DUP2 PUSH2 0x66 SWAP2 SWAP1 PUSH2 0x606 JUMP JUMPDEST TIMESTAMP PUSH2 0x71 SWAP2 SWAP1 PUSH2 0x647 JUMP JUMPDEST PUSH1 0x3 DUP2 SWAP1 SSTORE POP CALLER PUSH1 0x4 PUSH0 PUSH2 0x100 EXP DUP2 SLOAD DUP2 PUSH20 0xFFFFFFFFFFFFFFFFFFFFFFFFFFFFFFFFFFFFFFFF MUL NOT AND SWAP1 DUP4 PUSH20 0xFFFFFFFFFFFFFFFFFFFFFFFFFFFFFFFFFFFFFFFF AND MUL OR SWAP1 SSTORE POP PUSH0 PUSH1 0x4 PUSH1 0x15 PUSH2 0x100 EXP DUP2 SLOAD DUP2 PUSH1 0xFF MUL NOT AND SWAP1 DUP4 PUSH1 0x2 DUP2 GT ISZERO PUSH2 0xDC JUMPI PUSH2 0xDB PUSH2 0x67A JUMP JUMPDEST JUMPDEST MUL OR SWAP1 SSTORE POP POP POP POP POP PUSH2 0x6A7 JUMP JUMPDEST PUSH0 PUSH1 0x40 MLOAD SWAP1 POP SWAP1 JUMP JUMPDEST PUSH0 DUP1 REVERT JUMPDEST PUSH0 DUP1 REVERT JUMPDEST PUSH0 DUP1 REVERT JUMPDEST PUSH0 DUP1 REVERT JUMPDEST PUSH0 PUSH1 0x1F NOT PUSH1 0x1F DUP4 ADD AND SWAP1 POP SWAP2 SWAP1 POP JUMP JUMPDEST PUSH32 0x4E487B7100000000000000000000000000000000000000000000000000000000 PUSH0 MSTORE PUSH1 0x41 PUSH1 0x4 MSTORE PUSH1 0x24 PUSH0 REVERT JUMPDEST PUSH2 0x149 DUP3 PUSH2 0x103 JUMP JUMPDEST DUP2 ADD DUP2 DUP2 LT PUSH8 0xFFFFFFFFFFFFFFFF DUP3 GT OR ISZERO PUSH2 0x168 JUMPI PUSH2 0x167 PUSH2 0x113 JUMP JUMPDEST JUMPDEST DUP1 PUSH1 0x40 MSTORE POP POP POP JUMP JUMPDEST PUSH0 PUSH2 0x17A PUSH2 0xEA JUMP JUMPDEST SWAP1 POP PUSH2 0x186 DUP3 DUP3 PUSH2 0x140 JUMP JUMPDEST SWAP2 SWAP1 POP JUMP JUMPDEST PUSH0 PUSH8 0xFFFFFFFFFFFFFFFF DUP3 GT ISZERO PUSH2 0x1A5 JUMPI PUSH2 0x1A4 PUSH2 0x113 JUMP JUMPDEST JUMPDEST PUSH2 0x1AE DUP3 PUSH2 0x103 JUMP JUMPDEST SWAP1 POP PUSH1 0x20 DUP2 ADD SWAP1 POP SWAP2 SWAP1 POP JUMP JUMPDEST DUP3 DUP2 DUP4 MCOPY PUSH0 DUP4 DUP4 ADD MSTORE POP POP POP JUMP JUMPDEST PUSH0 PUSH2 0x1DB PUSH2 0x1D6 DUP5 PUSH2 0x18B JUMP JUMPDEST PUSH2 0x171 JUMP JUMPDEST SWAP1 POP DUP3 DUP2 MSTORE PUSH1 0x20 DUP2 ADD DUP5 DUP5 DUP5 ADD GT ISZERO PUSH2 0x1F7 JUMPI PUSH2 0x1F6 PUSH2 0xFF JUMP JUMPDEST JUMPDEST PUSH2 0x202 DUP5 DUP3 DUP6 PUSH2 0x1BB JUMP JUMPDEST POP SWAP4 SWAP3 POP POP POP JUMP JUMPDEST PUSH0 DUP3 PUSH1 0x1F DUP4 ADD SLT PUSH2 0x21E JUMPI PUSH2 0x21D PUSH2 0xFB JUMP JUMPDEST JUMPDEST DUP2 MLOAD PUSH2 0x22E DUP5 DUP3 PUSH1 0x20 DUP7 ADD PUSH2 0x1C9 JUMP JUMPDEST SWAP2 POP POP SWAP3 SWAP2 POP POP JUMP JUMPDEST PUSH0 DUP2 SWAP1 POP SWAP2 SWAP1 POP JUMP JUMPDEST PUSH2 0x249 DUP2 PUSH2 0x237 JUMP JUMPDEST DUP2 EQ PUSH2 0x253 JUMPI PUSH0 DUP1 REVERT JUMPDEST POP JUMP JUMPDEST PUSH0 DUP2 MLOAD SWAP1 POP PUSH2 0x264 DUP2 PUSH2 0x240 JUMP JUMPDEST SWAP3 SWAP2 POP POP JUMP JUMPDEST PUSH0 DUP1 PUSH0 DUP1 PUSH1 0x80 DUP6 DUP8 SUB SLT ISZERO PUSH2 0x282 JUMPI PUSH2 0x281 PUSH2 0xF3 JUMP JUMPDEST JUMPDEST PUSH0 DUP6 ADD MLOAD PUSH8 0xFFFFFFFFFFFFFFFF DUP2 GT ISZERO PUSH2 0x29F JUMPI PUSH2 0x29E PUSH2 0xF7 JUMP JUMPDEST JUMPDEST PUSH2 0x2AB DUP8 DUP3 DUP9 ADD PUSH2 0x20A JUMP JUMPDEST SWAP5 POP POP PUSH1 0x20 DUP6 ADD MLOAD PUSH8 0xFFFFFFFFFFFFFFFF DUP2 GT ISZERO PUSH2 0x2CC JUMPI PUSH2 0x2CB PUSH2 0xF7 JUMP JUMPDEST JUMPDEST PUSH2 0x2D8 DUP8 DUP3 DUP9 ADD PUSH2 0x20A JUMP JUMPDEST SWAP4 POP POP PUSH1 0x40 PUSH2 0x2E9 DUP8 DUP3 DUP9 ADD PUSH2 0x256 JUMP JUMPDEST SWAP3 POP POP PUSH1 0x60 PUSH2 0x2FA DUP8 DUP3 DUP9 ADD PUSH2 0x256 JUMP JUMPDEST SWAP2 POP POP SWAP3 SWAP6 SWAP2 SWAP5 POP SWAP3 POP JUMP JUMPDEST PUSH0 DUP2 MLOAD SWAP1 POP SWAP2 SWAP1 POP JUMP JUMPDEST PUSH32 0x4E487B7100000000000000000000000000000000000000000000000000000000 PUSH0 MSTORE PUSH1 0x22 PUSH1 0x4 MSTORE PUSH1 0x24 PUSH0 REVERT JUMPDEST PUSH0 PUSH1 0x2 DUP3 DIV SWAP1 POP PUSH1 0x1 DUP3 AND DUP1 PUSH2 0x354 JUMPI PUSH1 0x7F DUP3 AND SWAP2 POP JUMPDEST PUSH1 0x20 DUP3 LT DUP2 SUB PUSH2 0x367 JUMPI PUSH2 0x366 PUSH2 0x310 JUMP JUMPDEST JUMPDEST POP SWAP2 SWAP1 POP JUMP JUMPDEST PUSH0 DUP2 SWAP1 POP DUP2 PUSH0 MSTORE PUSH1 0x20 PUSH0 KECCAK256 SWAP1 POP SWAP2 SWAP1 POP JUMP JUMPDEST PUSH0 PUSH1 0x20 PUSH1 0x1F DUP4 ADD DIV SWAP1 POP SWAP2 SWAP1 POP JUMP JUMPDEST PUSH0 DUP3 DUP3 SHL SWAP1 POP SWAP3 SWAP2 POP POP JUMP JUMPDEST PUSH0 PUSH1 0x8 DUP4 MUL PUSH2 0x3C9 PUSH32 0xFFFFFFFFFFFFFFFFFFFFFFFFFFFFFFFFFFFFFFFFFFFFFFFFFFFFFFFFFFFFFFFF DUP3 PUSH2 0x38E JUMP JUMPDEST PUSH2 0x3D3 DUP7 DUP4 PUSH2 0x38E JUMP JUMPDEST SWAP6 POP DUP1 NOT DUP5 AND SWAP4 POP DUP1 DUP7 AND DUP5 OR SWAP3 POP POP POP SWAP4 SWAP3 POP POP POP JUMP JUMPDEST PUSH0 DUP2 SWAP1 POP SWAP2 SWAP1 POP JUMP JUMPDEST PUSH0 PUSH2 0x40E PUSH2 0x409 PUSH2 0x404 DUP5 PUSH2 0x237 JUMP JUMPDEST PUSH2 0x3EB JUMP JUMPDEST PUSH2 0x237 JUMP JUMPDEST SWAP1 POP SWAP2 SWAP1 POP JUMP JUMPDEST PUSH0 DUP2 SWAP1 POP SWAP2 SWAP1 POP JUMP JUMPDEST PUSH2 0x427 DUP4 PUSH2 0x3F4 JUMP JUMPDEST PUSH2 0x43B PUSH2 0x433 DUP3 PUSH2 0x415 JUMP JUMPDEST DUP5 DUP5 SLOAD PUSH2 0x39A JUMP JUMPDEST DUP3 SSTORE POP POP POP POP JUMP JUMPDEST PUSH0 SWAP1 JUMP JUMPDEST PUSH2 0x44F PUSH2 0x443 JUMP JUMPDEST PUSH2 0x45A DUP2 DUP5 DUP5 PUSH2 0x41E JUMP JUMPDEST POP POP POP JUMP JUMPDEST JUMPDEST DUP2 DUP2 LT ISZERO PUSH2 0x47D JUMPI PUSH2 0x472 PUSH0 DUP3 PUSH2 0x447 JUMP JUMPDEST PUSH1 0x1 DUP2 ADD SWAP1 POP PUSH2 0x460 JUMP JUMPDEST POP POP JUMP JUMPDEST PUSH1 0x1F DUP3 GT ISZERO PUSH2 0x4C2 JUMPI PUSH2 0x493 DUP2 PUSH2 0x36D JUMP JUMPDEST PUSH2 0x49C DUP5 PUSH2 0x37F JUMP JUMPDEST DUP2 ADD PUSH1 0x20 DUP6 LT ISZERO PUSH2 0x4AB JUMPI DUP2 SWAP1 POP JUMPDEST PUSH2 0x4BF PUSH2 0x4B7 DUP6 PUSH2 0x37F JUMP JUMPDEST DUP4 ADD DUP3 PUSH2 0x45F JUMP JUMPDEST POP POP JUMPDEST POP POP POP JUMP JUMPDEST PUSH0 DUP3 DUP3 SHR SWAP1 POP SWAP3 SWAP2 POP POP JUMP JUMPDEST PUSH0 PUSH2 0x4E2 PUSH0 NOT DUP5 PUSH1 0x8 MUL PUSH2 0x4C7 JUMP JUMPDEST NOT DUP1 DUP4 AND SWAP2 POP POP SWAP3 SWAP2 POP POP JUMP JUMPDEST PUSH0 PUSH2 0x4FA DUP4 DUP4 PUSH2 0x4D3 JUMP JUMPDEST SWAP2 POP DUP3 PUSH1 0x2 MUL DUP3 OR SWAP1 POP SWAP3 SWAP2 POP POP JUMP JUMPDEST PUSH2 0x513 DUP3 PUSH2 0x306 JUMP JUMPDEST PUSH8 0xFFFFFFFFFFFFFFFF DUP2 GT ISZERO PUSH2 0x52C JUMPI PUSH2 0x52B PUSH2 0x113 JUMP JUMPDEST JUMPDEST PUSH2 0x536 DUP3 SLOAD PUSH2 0x33D JUMP JUMPDEST PUSH2 0x541 DUP3 DUP3 DUP6 PUSH2 0x481 JUMP JUMPDEST PUSH0 PUSH1 0x20 SWAP1 POP PUSH1 0x1F DUP4 GT PUSH1 0x1 DUP2 EQ PUSH2 0x572 JUMPI PUSH0 DUP5 ISZERO PUSH2 0x560 JUMPI DUP3 DUP8 ADD MLOAD SWAP1 POP JUMPDEST PUSH2 0x56A DUP6 DUP3 PUSH2 0x4EF JUMP JUMPDEST DUP7 SSTORE POP PUSH2 0x5D1 JUMP JUMPDEST PUSH1 0x1F NOT DUP5 AND PUSH2 0x580 DUP7 PUSH2 0x36D JUMP JUMPDEST PUSH0 JUMPDEST DUP3 DUP2 LT ISZERO PUSH2 0x5A7 JUMPI DUP5 DUP10 ADD MLOAD DUP3 SSTORE PUSH1 0x1 DUP3 ADD SWAP2 POP PUSH1 0x20 DUP6 ADD SWAP5 POP PUSH1 0x20 DUP2 ADD SWAP1 POP PUSH2 0x582 JUMP JUMPDEST DUP7 DUP4 LT ISZERO PUSH2 0x5C4 JUMPI DUP5 DUP10 ADD MLOAD PUSH2 0x5C0 PUSH1 0x1F DUP10 AND DUP3 PUSH2 0x4D3 JUMP JUMPDEST DUP4 SSTORE POP JUMPDEST PUSH1 0x1 PUSH1 0x2 DUP9 MUL ADD DUP9 SSTORE POP POP POP JUMPDEST POP POP POP POP POP POP JUMP JUMPDEST PUSH32 0x4E487B7100000000000000000000000000000000000000000000000000000000 PUSH0 MSTORE PUSH1 0x11 PUSH1 0x4 MSTORE PUSH1 0x24 PUSH0 REVERT JUMPDEST PUSH0 PUSH2 0x610 DUP3 PUSH2 0x237 JUMP JUMPDEST SWAP2 POP PUSH2 0x61B DUP4 PUSH2 0x237 JUMP JUMPDEST SWAP3 POP DUP3 DUP3 MUL PUSH2 0x629 DUP2 PUSH2 0x237 JUMP JUMPDEST SWAP2 POP DUP3 DUP3 DIV DUP5 EQ DUP4 ISZERO OR PUSH2 0x640 JUMPI PUSH2 0x63F PUSH2 0x5D9 JUMP JUMPDEST JUMPDEST POP SWAP3 SWAP2 POP POP JUMP JUMPDEST PUSH0 PUSH2 0x651 DUP3 PUSH2 0x237 JUMP JUMPDEST SWAP2 POP PUSH2 0x65C DUP4 PUSH2 0x237 JUMP JUMPDEST SWAP3 POP DUP3 DUP3 ADD SWAP1 POP DUP1 DUP3 GT ISZERO PUSH2 0x674 JUMPI PUSH2 0x673 PUSH2 0x5D9 JUMP JUMPDEST JUMPDEST SWAP3 SWAP2 POP POP JUMP JUMPDEST PUSH32 0x4E487B7100000000000000000000000000000000000000000000000000000000 PUSH0 MSTORE PUSH1 0x21 PUSH1 0x4 MSTORE PUSH1 0x24 PUSH0 REVERT JUMPDEST PUSH2 0x2456 DUP1 PUSH2 0x6B4 PUSH0 CODECOPY PUSH0 RETURN INVALID PUSH1 0x80 PUSH1 0x40 MSTORE PUSH1 0x4 CALLDATASIZE LT PUSH2 0x11E JUMPI PUSH0 CALLDATALOAD PUSH1 0xE0 SHR DUP1 PUSH4 0x7284E416 GT PUSH2 0x9F JUMPI DUP1 PUSH4 0xB85DFB80 GT PUSH2 0x63 JUMPI DUP1 PUSH4 0xB85DFB80 EQ PUSH2 0x390 JUMPI DUP1 PUSH4 0xC19D93FB EQ PUSH2 0x3CC JUMPI DUP1 PUSH4 0xCA1D209D EQ PUSH2 0x3F6 JUMPI DUP1 PUSH4 0xD621A776 EQ PUSH2 0x412 JUMPI DUP1 PUSH4 0xDE170570 EQ PUSH2 0x428 JUMPI PUSH2 0x11E JUMP JUMPDEST DUP1 PUSH4 0x7284E416 EQ PUSH2 0x2B0 JUMPI DUP1 PUSH4 0x7497211B EQ PUSH2 0x2DA JUMPI DUP1 PUSH4 0x7ADBA527 EQ PUSH2 0x302 JUMPI DUP1 PUSH4 0x8DA5CB5B EQ PUSH2 0x33E JUMPI DUP1 PUSH4 0x8ECE7B91 EQ PUSH2 0x368 JUMPI PUSH2 0x11E JUMP JUMPDEST DUP1 PUSH4 0x3CCFD60B GT PUSH2 0xE6 JUMPI DUP1 PUSH4 0x3CCFD60B EQ PUSH2 0x206 JUMPI DUP1 PUSH4 0x40193883 EQ PUSH2 0x21C JUMPI DUP1 PUSH4 0x590E1AE3 EQ PUSH2 0x246 JUMPI DUP1 PUSH4 0x5C975ABB EQ PUSH2 0x25C JUMPI DUP1 PUSH4 0x6F9FB98A EQ PUSH2 0x286 JUMPI PUSH2 0x11E JUMP JUMPDEST DUP1 PUSH4 0x39AF9EB EQ PUSH2 0x122 JUMPI DUP1 PUSH4 0x6FDDE03 EQ PUSH2 0x160 JUMPI DUP1 PUSH4 0x10550515 EQ PUSH2 0x18A JUMPI DUP1 PUSH4 0x29DCB0CF EQ PUSH2 0x1B4 JUMPI DUP1 PUSH4 0x389B7533 EQ PUSH2 0x1DE JUMPI JUMPDEST PUSH0 DUP1 REVERT JUMPDEST CALLVALUE DUP1 ISZERO PUSH2 0x12D JUMPI PUSH0 DUP1 REVERT JUMPDEST POP PUSH2 0x148 PUSH1 0x4 DUP1 CALLDATASIZE SUB DUP2 ADD SWAP1 PUSH2 0x143 SWAP2 SWAP1 PUSH2 0x1456 JUMP JUMPDEST PUSH2 0x452 JUMP JUMPDEST PUSH1 0x40 MLOAD PUSH2 0x157 SWAP4 SWAP3 SWAP2 SWAP1 PUSH2 0x1500 JUMP JUMPDEST PUSH1 0x40 MLOAD DUP1 SWAP2 SUB SWAP1 RETURN JUMPDEST CALLVALUE DUP1 ISZERO PUSH2 0x16B JUMPI PUSH0 DUP1 REVERT JUMPDEST POP PUSH2 0x174 PUSH2 0x50D JUMP JUMPDEST PUSH1 0x40 MLOAD PUSH2 0x181 SWAP2 SWAP1 PUSH2 0x153C JUMP JUMPDEST PUSH1 0x40 MLOAD DUP1 SWAP2 SUB SWAP1 RETURN JUMPDEST CALLVALUE DUP1 ISZERO PUSH2 0x195 JUMPI PUSH0 DUP1 REVERT JUMPDEST POP PUSH2 0x19E PUSH2 0x598 JUMP JUMPDEST PUSH1 0x40 MLOAD PUSH2 0x1AB SWAP2 SWAP1 PUSH2 0x15CF JUMP JUMPDEST PUSH1 0x40 MLOAD DUP1 SWAP2 SUB SWAP1 RETURN JUMPDEST CALLVALUE DUP1 ISZERO PUSH2 0x1BF JUMPI PUSH0 DUP1 REVERT JUMPDEST POP PUSH2 0x1C8 PUSH2 0x612 JUMP JUMPDEST PUSH1 0x40 MLOAD PUSH2 0x1D5 SWAP2 SWAP1 PUSH2 0x15E8 JUMP JUMPDEST PUSH1 0x40 MLOAD DUP1 SWAP2 SUB SWAP1 RETURN JUMPDEST CALLVALUE DUP1 ISZERO PUSH2 0x1E9 JUMPI PUSH0 DUP1 REVERT JUMPDEST POP PUSH2 0x204 PUSH1 0x4 DUP1 CALLDATASIZE SUB DUP2 ADD SWAP1 PUSH2 0x1FF SWAP2 SWAP1 PUSH2 0x1456 JUMP JUMPDEST PUSH2 0x618 JUMP JUMPDEST STOP JUMPDEST CALLVALUE DUP1 ISZERO PUSH2 0x211 JUMPI PUSH0 DUP1 REVERT JUMPDEST POP PUSH2 0x21A PUSH2 0x745 JUMP JUMPDEST STOP JUMPDEST CALLVALUE DUP1 ISZERO PUSH2 0x227 JUMPI PUSH0 DUP1 REVERT JUMPDEST POP PUSH2 0x230 PUSH2 0x900 JUMP JUMPDEST PUSH1 0x40 MLOAD PUSH2 0x23D SWAP2 SWAP1 PUSH2 0x15E8 JUMP JUMPDEST PUSH1 0x40 MLOAD DUP1 SWAP2 SUB SWAP1 RETURN JUMPDEST CALLVALUE DUP1 ISZERO PUSH2 0x251 JUMPI PUSH0 DUP1 REVERT JUMPDEST POP PUSH2 0x25A PUSH2 0x906 JUMP JUMPDEST STOP JUMPDEST CALLVALUE DUP1 ISZERO PUSH2 0x267 JUMPI PUSH0 DUP1 REVERT JUMPDEST POP PUSH2 0x270 PUSH2 0xA93 JUMP JUMPDEST PUSH1 0x40 MLOAD PUSH2 0x27D SWAP2 SWAP1 PUSH2 0x161B JUMP JUMPDEST PUSH1 0x40 MLOAD DUP1 SWAP2 SUB SWAP1 RETURN JUMPDEST CALLVALUE DUP1 ISZERO PUSH2 0x291 JUMPI PUSH0 DUP1 REVERT JUMPDEST POP PUSH2 0x29A PUSH2 0xAA6 JUMP JUMPDEST PUSH1 0x40 MLOAD PUSH2 0x2A7 SWAP2 SWAP1 PUSH2 0x15E8 JUMP JUMPDEST PUSH1 0x40 MLOAD DUP1 SWAP2 SUB SWAP1 RETURN JUMPDEST CALLVALUE DUP1 ISZERO PUSH2 0x2BB JUMPI PUSH0 DUP1 REVERT JUMPDEST POP PUSH2 0x2C4 PUSH2 0xAAD JUMP JUMPDEST PUSH1 0x40 MLOAD PUSH2 0x2D1 SWAP2 SWAP1 PUSH2 0x153C JUMP JUMPDEST PUSH1 0x40 MLOAD DUP1 SWAP2 SUB SWAP1 RETURN JUMPDEST CALLVALUE DUP1 ISZERO PUSH2 0x2E5 JUMPI PUSH0 DUP1 REVERT JUMPDEST POP PUSH2 0x300 PUSH1 0x4 DUP1 CALLDATASIZE SUB DUP2 ADD SWAP1 PUSH2 0x2FB SWAP2 SWAP1 PUSH2 0x1456 JUMP JUMPDEST PUSH2 0xB39 JUMP JUMPDEST STOP JUMPDEST CALLVALUE DUP1 ISZERO PUSH2 0x30D JUMPI PUSH0 DUP1 REVERT JUMPDEST POP PUSH2 0x328 PUSH1 0x4 DUP1 CALLDATASIZE SUB DUP2 ADD SWAP1 PUSH2 0x323 SWAP2 SWAP1 PUSH2 0x168E JUMP JUMPDEST PUSH2 0xCD2 JUMP JUMPDEST PUSH1 0x40 MLOAD PUSH2 0x335 SWAP2 SWAP1 PUSH2 0x161B JUMP JUMPDEST PUSH1 0x40 MLOAD DUP1 SWAP2 SUB SWAP1 RETURN JUMPDEST CALLVALUE DUP1 ISZERO PUSH2 0x349 JUMPI PUSH0 DUP1 REVERT JUMPDEST POP PUSH2 0x352 PUSH2 0xD37 JUMP JUMPDEST PUSH1 0x40 MLOAD PUSH2 0x35F SWAP2 SWAP1 PUSH2 0x16DB JUMP JUMPDEST PUSH1 0x40 MLOAD DUP1 SWAP2 SUB SWAP1 RETURN JUMPDEST CALLVALUE DUP1 ISZERO PUSH2 0x373 JUMPI PUSH0 DUP1 REVERT JUMPDEST POP PUSH2 0x38E PUSH1 0x4 DUP1 CALLDATASIZE SUB DUP2 ADD SWAP1 PUSH2 0x389 SWAP2 SWAP1 PUSH2 0x1820 JUMP JUMPDEST PUSH2 0xD5C JUMP JUMPDEST STOP JUMPDEST CALLVALUE DUP1 ISZERO PUSH2 0x39B JUMPI PUSH0 DUP1 REVERT JUMPDEST POP PUSH2 0x3B6 PUSH1 0x4 DUP1 CALLDATASIZE SUB DUP2 ADD SWAP1 PUSH2 0x3B1 SWAP2 SWAP1 PUSH2 0x187A JUMP JUMPDEST PUSH2 0xE9E JUMP JUMPDEST PUSH1 0x40 MLOAD PUSH2 0x3C3 SWAP2 SWAP1 PUSH2 0x15E8 JUMP JUMPDEST PUSH1 0x40 MLOAD DUP1 SWAP2 SUB SWAP1 RETURN JUMPDEST CALLVALUE DUP1 ISZERO PUSH2 0x3D7 JUMPI PUSH0 DUP1 REVERT JUMPDEST POP PUSH2 0x3E0 PUSH2 0xEB8 JUMP JUMPDEST PUSH1 0x40 MLOAD PUSH2 0x3ED SWAP2 SWAP1 PUSH2 0x15CF JUMP JUMPDEST PUSH1 0x40 MLOAD DUP1 SWAP2 SUB SWAP1 RETURN JUMPDEST PUSH2 0x410 PUSH1 0x4 DUP1 CALLDATASIZE SUB DUP2 ADD SWAP1 PUSH2 0x40B SWAP2 SWAP1 PUSH2 0x1456 JUMP JUMPDEST PUSH2 0xECB JUMP JUMPDEST STOP JUMPDEST CALLVALUE DUP1 ISZERO PUSH2 0x41D JUMPI PUSH0 DUP1 REVERT JUMPDEST POP PUSH2 0x426 PUSH2 0x113B JUMP JUMPDEST STOP JUMPDEST CALLVALUE DUP1 ISZERO PUSH2 0x433 JUMPI PUSH0 DUP1 REVERT JUMPDEST POP PUSH2 0x43C PUSH2 0x11F6 JUMP JUMPDEST PUSH1 0x40 MLOAD PUSH2 0x449 SWAP2 SWAP1 PUSH2 0x1A04 JUMP JUMPDEST PUSH1 0x40 MLOAD DUP1 SWAP2 SUB SWAP1 RETURN JUMPDEST PUSH1 0x5 DUP2 DUP2 SLOAD DUP2 LT PUSH2 0x461 JUMPI PUSH0 DUP1 REVERT JUMPDEST SWAP1 PUSH0 MSTORE PUSH1 0x20 PUSH0 KECCAK256 SWAP1 PUSH1 0x3 MUL ADD PUSH0 SWAP2 POP SWAP1 POP DUP1 PUSH0 ADD DUP1 SLOAD PUSH2 0x480 SWAP1 PUSH2 0x1A51 JUMP JUMPDEST DUP1 PUSH1 0x1F ADD PUSH1 0x20 DUP1 SWAP2 DIV MUL PUSH1 0x20 ADD PUSH1 0x40 MLOAD SWAP1 DUP2 ADD PUSH1 0x40 MSTORE DUP1 SWAP3 SWAP2 SWAP1 DUP2 DUP2 MSTORE PUSH1 0x20 ADD DUP3 DUP1 SLOAD PUSH2 0x4AC SWAP1 PUSH2 0x1A51 JUMP JUMPDEST DUP1 ISZERO PUSH2 0x4F7 JUMPI DUP1 PUSH1 0x1F LT PUSH2 0x4CE JUMPI PUSH2 0x100 DUP1 DUP4 SLOAD DIV MUL DUP4 MSTORE SWAP2 PUSH1 0x20 ADD SWAP2 PUSH2 0x4F7 JUMP JUMPDEST DUP3 ADD SWAP2 SWAP1 PUSH0 MSTORE PUSH1 0x20 PUSH0 KECCAK256 SWAP1 JUMPDEST DUP2 SLOAD DUP2 MSTORE SWAP1 PUSH1 0x1 ADD SWAP1 PUSH1 0x20 ADD DUP1 DUP4 GT PUSH2 0x4DA JUMPI DUP3 SWAP1 SUB PUSH1 0x1F AND DUP3 ADD SWAP2 JUMPDEST POP POP POP POP POP SWAP1 DUP1 PUSH1 0x1 ADD SLOAD SWAP1 DUP1 PUSH1 0x2 ADD SLOAD SWAP1 POP DUP4 JUMP JUMPDEST PUSH0 DUP1 SLOAD PUSH2 0x519 SWAP1 PUSH2 0x1A51 JUMP JUMPDEST DUP1 PUSH1 0x1F ADD PUSH1 0x20 DUP1 SWAP2 DIV MUL PUSH1 0x20 ADD PUSH1 0x40 MLOAD SWAP1 DUP2 ADD PUSH1 0x40 MSTORE DUP1 SWAP3 SWAP2 SWAP1 DUP2 DUP2 MSTORE PUSH1 0x20 ADD DUP3 DUP1 SLOAD PUSH2 0x545 SWAP1 PUSH2 0x1A51 JUMP JUMPDEST DUP1 ISZERO PUSH2 0x590 JUMPI DUP1 PUSH1 0x1F LT PUSH2 0x567 JUMPI PUSH2 0x100 DUP1 DUP4 SLOAD DIV MUL DUP4 MSTORE SWAP2 PUSH1 0x20 ADD SWAP2 PUSH2 0x590 JUMP JUMPDEST DUP3 ADD SWAP2 SWAP1 PUSH0 MSTORE PUSH1 0x20 PUSH0 KECCAK256 SWAP1 JUMPDEST DUP2 SLOAD DUP2 MSTORE SWAP1 PUSH1 0x1 ADD SWAP1 PUSH1 0x20 ADD DUP1 DUP4 GT PUSH2 0x573 JUMPI DUP3 SWAP1 SUB PUSH1 0x1F AND DUP3 ADD SWAP2 JUMPDEST POP POP POP POP POP DUP2 JUMP JUMPDEST PUSH0 DUP1 PUSH1 0x2 DUP2 GT ISZERO PUSH2 0x5AC JUMPI PUSH2 0x5AB PUSH2 0x155C JUMP JUMPDEST JUMPDEST PUSH1 0x4 PUSH1 0x15 SWAP1 SLOAD SWAP1 PUSH2 0x100 EXP SWAP1 DIV PUSH1 0xFF AND PUSH1 0x2 DUP2 GT ISZERO PUSH2 0x5CE JUMPI PUSH2 0x5CD PUSH2 0x155C JUMP JUMPDEST JUMPDEST EQ DUP1 ISZERO PUSH2 0x5DC JUMPI POP PUSH1 0x3 SLOAD TIMESTAMP GT JUMPDEST ISZERO PUSH2 0x5FC JUMPI PUSH1 0x2 SLOAD SELFBALANCE LT ISZERO PUSH2 0x5F2 JUMPI PUSH1 0x2 PUSH2 0x5F5 JUMP JUMPDEST PUSH1 0x1 JUMPDEST SWAP1 POP PUSH2 0x60F JUMP JUMPDEST PUSH1 0x4 PUSH1 0x15 SWAP1 SLOAD SWAP1 PUSH2 0x100 EXP SWAP1 DIV PUSH1 0xFF AND SWAP1 POP JUMPDEST SWAP1 JUMP JUMPDEST PUSH1 0x3 SLOAD DUP2 JUMP JUMPDEST PUSH1 0x4 PUSH0 SWAP1 SLOAD SWAP1 PUSH2 0x100 EXP SWAP1 DIV PUSH20 0xFFFFFFFFFFFFFFFFFFFFFFFFFFFFFFFFFFFFFFFF AND PUSH20 0xFFFFFFFFFFFFFFFFFFFFFFFFFFFFFFFFFFFFFFFF AND CALLER PUSH20 0xFFFFFFFFFFFFFFFFFFFFFFFFFFFFFFFFFFFFFFFF AND EQ PUSH2 0x6A7 JUMPI PUSH1 0x40 MLOAD PUSH32 0x8C379A000000000000000000000000000000000000000000000000000000000 DUP2 MSTORE PUSH1 0x4 ADD PUSH2 0x69E SWAP1 PUSH2 0x1AF1 JUMP JUMPDEST PUSH1 0x40 MLOAD DUP1 SWAP2 SUB SWAP1 REVERT JUMPDEST PUSH0 PUSH1 0x2 DUP2 GT ISZERO PUSH2 0x6BA JUMPI PUSH2 0x6B9 PUSH2 0x155C JUMP JUMPDEST JUMPDEST PUSH1 0x4 PUSH1 0x15 SWAP1 SLOAD SWAP1 PUSH2 0x100 EXP SWAP1 DIV PUSH1 0xFF AND PUSH1 0x2 DUP2 GT ISZERO PUSH2 0x6DC JUMPI PUSH2 0x6DB PUSH2 0x155C JUMP JUMPDEST JUMPDEST EQ PUSH2 0x71C JUMPI PUSH1 0x40 MLOAD PUSH32 0x8C379A000000000000000000000000000000000000000000000000000000000 DUP2 MSTORE PUSH1 0x4 ADD PUSH2 0x713 SWAP1 PUSH2 0x1B59 JUMP JUMPDEST PUSH1 0x40 MLOAD DUP1 SWAP2 SUB SWAP1 REVERT JUMPDEST PUSH3 0x15180 DUP2 PUSH2 0x72B SWAP2 SWAP1 PUSH2 0x1BA4 JUMP JUMPDEST PUSH1 0x3 PUSH0 DUP3 DUP3 SLOAD PUSH2 0x73B SWAP2 SWAP1 PUSH2 0x1BE5 JUMP JUMPDEST SWAP3 POP POP DUP2 SWAP1 SSTORE POP POP JUMP JUMPDEST PUSH1 0x4 PUSH0 SWAP1 SLOAD SWAP1 PUSH2 0x100 EXP SWAP1 DIV PUSH20 0xFFFFFFFFFFFFFFFFFFFFFFFFFFFFFFFFFFFFFFFF AND PUSH20 0xFFFFFFFFFFFFFFFFFFFFFFFFFFFFFFFFFFFFFFFF AND CALLER PUSH20 0xFFFFFFFFFFFFFFFFFFFFFFFFFFFFFFFFFFFFFFFF AND EQ PUSH2 0x7D4 JUMPI PUSH1 0x40 MLOAD PUSH32 0x8C379A000000000000000000000000000000000000000000000000000000000 DUP2 MSTORE PUSH1 0x4 ADD PUSH2 0x7CB SWAP1 PUSH2 0x1AF1 JUMP JUMPDEST PUSH1 0x40 MLOAD DUP1 SWAP2 SUB SWAP1 REVERT JUMPDEST PUSH1 0x1 PUSH1 0x2 DUP2 GT ISZERO PUSH2 0x7E8 JUMPI PUSH2 0x7E7 PUSH2 0x155C JUMP JUMPDEST JUMPDEST PUSH1 0x4 PUSH1 0x15 SWAP1 SLOAD SWAP1 PUSH2 0x100 EXP SWAP1 DIV PUSH1 0xFF AND PUSH1 0x2 DUP2 GT ISZERO PUSH2 0x80A JUMPI PUSH2 0x809 PUSH2 0x155C JUMP JUMPDEST JUMPDEST EQ PUSH2 0x84A JUMPI PUSH1 0x40 MLOAD PUSH32 0x8C379A000000000000000000000000000000000000000000000000000000000 DUP2 MSTORE PUSH1 0x4 ADD PUSH2 0x841 SWAP1 PUSH2 0x1C62 JUMP JUMPDEST PUSH1 0x40 MLOAD DUP1 SWAP2 SUB SWAP1 REVERT JUMPDEST PUSH2 0x852 PUSH2 0x12F5 JUMP JUMPDEST PUSH0 SELFBALANCE SWAP1 POP PUSH0 DUP2 GT PUSH2 0x898 JUMPI PUSH1 0x40 MLOAD PUSH32 0x8C379A000000000000000000000000000000000000000000000000000000000 DUP2 MSTORE PUSH1 0x4 ADD PUSH2 0x88F SWAP1 PUSH2 0x1CCA JUMP JUMPDEST PUSH1 0x40 MLOAD DUP1 SWAP2 SUB SWAP1 REVERT JUMPDEST PUSH1 0x4 PUSH0 SWAP1 SLOAD SWAP1 PUSH2 0x100 EXP SWAP1 DIV PUSH20 0xFFFFFFFFFFFFFFFFFFFFFFFFFFFFFFFFFFFFFFFF AND PUSH20 0xFFFFFFFFFFFFFFFFFFFFFFFFFFFFFFFFFFFFFFFF AND PUSH2 0x8FC DUP3 SWAP1 DUP2 ISZERO MUL SWAP1 PUSH1 0x40 MLOAD PUSH0 PUSH1 0x40 MLOAD DUP1 DUP4 SUB DUP2 DUP6 DUP9 DUP9 CALL SWAP4 POP POP POP POP ISZERO DUP1 ISZERO PUSH2 0x8FC JUMPI RETURNDATASIZE PUSH0 DUP1 RETURNDATACOPY RETURNDATASIZE PUSH0 REVERT JUMPDEST POP POP JUMP JUMPDEST PUSH1 0x2 SLOAD DUP2 JUMP JUMPDEST PUSH2 0x90E PUSH2 0x12F5 JUMP JUMPDEST PUSH1 0x2 DUP1 DUP2 GT ISZERO PUSH2 0x921 JUMPI PUSH2 0x920 PUSH2 0x155C JUMP JUMPDEST JUMPDEST PUSH1 0x4 PUSH1 0x15 SWAP1 SLOAD SWAP1 PUSH2 0x100 EXP SWAP1 DIV PUSH1 0xFF AND PUSH1 0x2 DUP2 GT ISZERO PUSH2 0x943 JUMPI PUSH2 0x942 PUSH2 0x155C JUMP JUMPDEST JUMPDEST EQ PUSH2 0x983 JUMPI PUSH1 0x40 MLOAD PUSH32 0x8C379A000000000000000000000000000000000000000000000000000000000 DUP2 MSTORE PUSH1 0x4 ADD PUSH2 0x97A SWAP1 PUSH2 0x1D32 JUMP JUMPDEST PUSH1 0x40 MLOAD DUP1 SWAP2 SUB SWAP1 REVERT JUMPDEST PUSH0 PUSH1 0x6 PUSH0 CALLER PUSH20 0xFFFFFFFFFFFFFFFFFFFFFFFFFFFFFFFFFFFFFFFF AND PUSH20 0xFFFFFFFFFFFFFFFFFFFFFFFFFFFFFFFFFFFFFFFF AND DUP2 MSTORE PUSH1 0x20 ADD SWAP1 DUP2 MSTORE PUSH1 0x20 ADD PUSH0 KECCAK256 PUSH0 ADD SLOAD SWAP1 POP PUSH0 DUP2 GT PUSH2 0xA08 JUMPI PUSH1 0x40 MLOAD PUSH32 0x8C379A000000000000000000000000000000000000000000000000000000000 DUP2 MSTORE PUSH1 0x4 ADD PUSH2 0x9FF SWAP1 PUSH2 0x1DC0 JUMP JUMPDEST PUSH1 0x40 MLOAD DUP1 SWAP2 SUB SWAP1 REVERT JUMPDEST PUSH0 PUSH1 0x6 PUSH0 CALLER PUSH20 0xFFFFFFFFFFFFFFFFFFFFFFFFFFFFFFFFFFFFFFFF AND PUSH20 0xFFFFFFFFFFFFFFFFFFFFFFFFFFFFFFFFFFFFFFFF AND DUP2 MSTORE PUSH1 0x20 ADD SWAP1 DUP2 MSTORE PUSH1 0x20 ADD PUSH0 KECCAK256 PUSH0 ADD DUP2 SWAP1 SSTORE POP CALLER PUSH20 0xFFFFFFFFFFFFFFFFFFFFFFFFFFFFFFFFFFFFFFFF AND PUSH2 0x8FC DUP3 SWAP1 DUP2 ISZERO MUL SWAP1 PUSH1 0x40 MLOAD PUSH0 PUSH1 0x40 MLOAD DUP1 DUP4 SUB DUP2 DUP6 DUP9 DUP9 CALL SWAP4 POP POP POP POP ISZERO DUP1 ISZERO PUSH2 0xA8F JUMPI RETURNDATASIZE PUSH0 DUP1 RETURNDATACOPY RETURNDATASIZE PUSH0 REVERT JUMPDEST POP POP JUMP JUMPDEST PUSH1 0x4 PUSH1 0x14 SWAP1 SLOAD SWAP1 PUSH2 0x100 EXP SWAP1 DIV PUSH1 0xFF AND DUP2 JUMP JUMPDEST PUSH0 SELFBALANCE SWAP1 POP SWAP1 JUMP JUMPDEST PUSH1 0x1 DUP1 SLOAD PUSH2 0xABA SWAP1 PUSH2 0x1A51 JUMP JUMPDEST DUP1 PUSH1 0x1F ADD PUSH1 0x20 DUP1 SWAP2 DIV MUL PUSH1 0x20 ADD PUSH1 0x40 MLOAD SWAP1 DUP2 ADD PUSH1 0x40 MSTORE DUP1 SWAP3 SWAP2 SWAP1 DUP2 DUP2 MSTORE PUSH1 0x20 ADD DUP3 DUP1 SLOAD PUSH2 0xAE6 SWAP1 PUSH2 0x1A51 JUMP JUMPDEST DUP1 ISZERO PUSH2 0xB31 JUMPI DUP1 PUSH1 0x1F LT PUSH2 0xB08 JUMPI PUSH2 0x100 DUP1 DUP4 SLOAD DIV MUL DUP4 MSTORE SWAP2 PUSH1 0x20 ADD SWAP2 PUSH2 0xB31 JUMP JUMPDEST DUP3 ADD SWAP2 SWAP1 PUSH0 MSTORE PUSH1 0x20 PUSH0 KECCAK256 SWAP1 JUMPDEST DUP2 SLOAD DUP2 MSTORE SWAP1 PUSH1 0x1 ADD SWAP1 PUSH1 0x20 ADD DUP1 DUP4 GT PUSH2 0xB14 JUMPI DUP3 SWAP1 SUB PUSH1 0x1F AND DUP3 ADD SWAP2 JUMPDEST POP POP POP POP POP DUP2 JUMP JUMPDEST PUSH1 0x4 PUSH0 SWAP1 SLOAD SWAP1 PUSH2 0x100 EXP SWAP1 DIV PUSH20 0xFFFFFFFFFFFFFFFFFFFFFFFFFFFFFFFFFFFFFFFF AND PUSH20 0xFFFFFFFFFFFFFFFFFFFFFFFFFFFFFFFFFFFFFFFF AND CALLER PUSH20 0xFFFFFFFFFFFFFFFFFFFFFFFFFFFFFFFFFFFFFFFF AND EQ PUSH2 0xBC8 JUMPI PUSH1 0x40 MLOAD PUSH32 0x8C379A000000000000000000000000000000000000000000000000000000000 DUP2 MSTORE PUSH1 0x4 ADD PUSH2 0xBBF SWAP1 PUSH2 0x1AF1 JUMP JUMPDEST PUSH1 0x40 MLOAD DUP1 SWAP2 SUB SWAP1 REVERT JUMPDEST PUSH1 0x5 DUP1 SLOAD SWAP1 POP DUP2 LT PUSH2 0xC0F JUMPI PUSH1 0x40 MLOAD PUSH32 0x8C379A000000000000000000000000000000000000000000000000000000000 DUP2 MSTORE PUSH1 0x4 ADD PUSH2 0xC06 SWAP1 PUSH2 0x1E28 JUMP JUMPDEST PUSH1 0x40 MLOAD DUP1 SWAP2 SUB SWAP1 REVERT JUMPDEST PUSH1 0x5 PUSH1 0x1 PUSH1 0x5 DUP1 SLOAD SWAP1 POP PUSH2 0xC23 SWAP2 SWAP1 PUSH2 0x1E46 JUMP JUMPDEST DUP2 SLOAD DUP2 LT PUSH2 0xC34 JUMPI PUSH2 0xC33 PUSH2 0x1E79 JUMP JUMPDEST JUMPDEST SWAP1 PUSH0 MSTORE PUSH1 0x20 PUSH0 KECCAK256 SWAP1 PUSH1 0x3 MUL ADD PUSH1 0x5 DUP3 DUP2 SLOAD DUP2 LT PUSH2 0xC54 JUMPI PUSH2 0xC53 PUSH2 0x1E79 JUMP JUMPDEST JUMPDEST SWAP1 PUSH0 MSTORE PUSH1 0x20 PUSH0 KECCAK256 SWAP1 PUSH1 0x3 MUL ADD PUSH0 DUP3 ADD DUP2 PUSH0 ADD SWAP1 DUP2 PUSH2 0xC72 SWAP2 SWAP1 PUSH2 0x2058 JUMP JUMPDEST POP PUSH1 0x1 DUP3 ADD SLOAD DUP2 PUSH1 0x1 ADD SSTORE PUSH1 0x2 DUP3 ADD SLOAD DUP2 PUSH1 0x2 ADD SSTORE SWAP1 POP POP PUSH1 0x5 DUP1 SLOAD DUP1 PUSH2 0xC9C JUMPI PUSH2 0xC9B PUSH2 0x213D JUMP JUMPDEST JUMPDEST PUSH1 0x1 SWAP1 SUB DUP2 DUP2 SWAP1 PUSH0 MSTORE PUSH1 0x20 PUSH0 KECCAK256 SWAP1 PUSH1 0x3 MUL ADD PUSH0 DUP1 DUP3 ADD PUSH0 PUSH2 0xCBD SWAP2 SWAP1 PUSH2 0x13BA JUMP JUMPDEST PUSH1 0x1 DUP3 ADD PUSH0 SWAP1 SSTORE PUSH1 0x2 DUP3 ADD PUSH0 SWAP1 SSTORE POP POP SWAP1 SSTORE POP JUMP JUMPDEST PUSH0 PUSH1 0x6 PUSH0 DUP5 PUSH20 0xFFFFFFFFFFFFFFFFFFFFFFFFFFFFFFFFFFFFFFFF AND PUSH20 0xFFFFFFFFFFFFFFFFFFFFFFFFFFFFFFFFFFFFFFFF AND DUP2 MSTORE PUSH1 0x20 ADD SWAP1 DUP2 MSTORE PUSH1 0x20 ADD PUSH0 KECCAK256 PUSH1 0x1 ADD PUSH0 DUP4 DUP2 MSTORE PUSH1 0x20 ADD SWAP1 DUP2 MSTORE PUSH1 0x20 ADD PUSH0 KECCAK256 PUSH0 SWAP1 SLOAD SWAP1 PUSH2 0x100 EXP SWAP1 DIV PUSH1 0xFF AND SWAP1 POP SWAP3 SWAP2 POP POP JUMP JUMPDEST PUSH1 0x4 PUSH0 SWAP1 SLOAD SWAP1 PUSH2 0x100 EXP SWAP1 DIV PUSH20 0xFFFFFFFFFFFFFFFFFFFFFFFFFFFFFFFFFFFFFFFF AND DUP2 JUMP JUMPDEST PUSH1 0x4 PUSH0 SWAP1 SLOAD SWAP1 PUSH2 0x100 EXP SWAP1 DIV PUSH20 0xFFFFFFFFFFFFFFFFFFFFFFFFFFFFFFFFFFFFFFFF AND PUSH20 0xFFFFFFFFFFFFFFFFFFFFFFFFFFFFFFFFFFFFFFFF AND CALLER PUSH20 0xFFFFFFFFFFFFFFFFFFFFFFFFFFFFFFFFFFFFFFFF AND EQ PUSH2 0xDEB JUMPI PUSH1 0x40 MLOAD PUSH32 0x8C379A000000000000000000000000000000000000000000000000000000000 DUP2 MSTORE PUSH1 0x4 ADD PUSH2 0xDE2 SWAP1 PUSH2 0x1AF1 JUMP JUMPDEST PUSH1 0x40 MLOAD DUP1 SWAP2 SUB SWAP1 REVERT JUMPDEST PUSH0 DUP2 GT PUSH2 0xE2D JUMPI PUSH1 0x40 MLOAD PUSH32 0x8C379A000000000000000000000000000000000000000000000000000000000 DUP2 MSTORE PUSH1 0x4 ADD PUSH2 0xE24 SWAP1 PUSH2 0x21B4 JUMP JUMPDEST PUSH1 0x40 MLOAD DUP1 SWAP2 SUB SWAP1 REVERT JUMPDEST PUSH1 0x5 PUSH1 0x40 MLOAD DUP1 PUSH1 0x60 ADD PUSH1 0x40 MSTORE DUP1 DUP5 DUP2 MSTORE PUSH1 0x20 ADD DUP4 DUP2 MSTORE PUSH1 0x20 ADD PUSH0 DUP2 MSTORE POP SWAP1 DUP1 PUSH1 0x1 DUP2 SLOAD ADD DUP1 DUP3 SSTORE DUP1 SWAP2 POP POP PUSH1 0x1 SWAP1 SUB SWAP1 PUSH0 MSTORE PUSH1 0x20 PUSH0 KECCAK256 SWAP1 PUSH1 0x3 MUL ADD PUSH0 SWAP1 SWAP2 SWAP1 SWAP2 SWAP1 SWAP2 POP PUSH0 DUP3 ADD MLOAD DUP2 PUSH0 ADD SWAP1 DUP2 PUSH2 0xE83 SWAP2 SWAP1 PUSH2 0x21D2 JUMP JUMPDEST POP PUSH1 0x20 DUP3 ADD MLOAD DUP2 PUSH1 0x1 ADD SSTORE PUSH1 0x40 DUP3 ADD MLOAD DUP2 PUSH1 0x2 ADD SSTORE POP POP POP POP JUMP JUMPDEST PUSH1 0x6 PUSH1 0x20 MSTORE DUP1 PUSH0 MSTORE PUSH1 0x40 PUSH0 KECCAK256 PUSH0 SWAP2 POP SWAP1 POP DUP1 PUSH0 ADD SLOAD SWAP1 POP DUP2 JUMP JUMPDEST PUSH1 0x4 PUSH1 0x15 SWAP1 SLOAD SWAP1 PUSH2 0x100 EXP SWAP1 DIV PUSH1 0xFF AND DUP2 JUMP JUMPDEST PUSH0 PUSH1 0x2 DUP2 GT ISZERO PUSH2 0xEDE JUMPI PUSH2 0xEDD PUSH2 0x155C JUMP JUMPDEST JUMPDEST PUSH1 0x4 PUSH1 0x15 SWAP1 SLOAD SWAP1 PUSH2 0x100 EXP SWAP1 DIV PUSH1 0xFF AND PUSH1 0x2 DUP2 GT ISZERO PUSH2 0xF00 JUMPI PUSH2 0xEFF PUSH2 0x155C JUMP JUMPDEST JUMPDEST EQ PUSH2 0xF40 JUMPI PUSH1 0x40 MLOAD PUSH32 0x8C379A000000000000000000000000000000000000000000000000000000000 DUP2 MSTORE PUSH1 0x4 ADD PUSH2 0xF37 SWAP1 PUSH2 0x1B59 JUMP JUMPDEST PUSH1 0x40 MLOAD DUP1 SWAP2 SUB SWAP1 REVERT JUMPDEST PUSH1 0x4 PUSH1 0x14 SWAP1 SLOAD SWAP1 PUSH2 0x100 EXP SWAP1 DIV PUSH1 0xFF AND ISZERO PUSH2 0xF90 JUMPI PUSH1 0x40 MLOAD PUSH32 0x8C379A000000000000000000000000000000000000000000000000000000000 DUP2 MSTORE PUSH1 0x4 ADD PUSH2 0xF87 SWAP1 PUSH2 0x22EB JUMP JUMPDEST PUSH1 0x40 MLOAD DUP1 SWAP2 SUB SWAP1 REVERT JUMPDEST PUSH1 0x5 DUP1 SLOAD SWAP1 POP DUP2 LT PUSH2 0xFD7 JUMPI PUSH1 0x40 MLOAD PUSH32 0x8C379A000000000000000000000000000000000000000000000000000000000 DUP2 MSTORE PUSH1 0x4 ADD PUSH2 0xFCE SWAP1 PUSH2 0x2353 JUMP JUMPDEST PUSH1 0x40 MLOAD DUP1 SWAP2 SUB SWAP1 REVERT JUMPDEST PUSH1 0x5 DUP2 DUP2 SLOAD DUP2 LT PUSH2 0xFEB JUMPI PUSH2 0xFEA PUSH2 0x1E79 JUMP JUMPDEST JUMPDEST SWAP1 PUSH0 MSTORE PUSH1 0x20 PUSH0 KECCAK256 SWAP1 PUSH1 0x3 MUL ADD PUSH1 0x1 ADD SLOAD CALLVALUE EQ PUSH2 0x103C JUMPI PUSH1 0x40 MLOAD PUSH32 0x8C379A000000000000000000000000000000000000000000000000000000000 DUP2 MSTORE PUSH1 0x4 ADD PUSH2 0x1033 SWAP1 PUSH2 0x23BB JUMP JUMPDEST PUSH1 0x40 MLOAD DUP1 SWAP2 SUB SWAP1 REVERT JUMPDEST PUSH1 0x5 DUP2 DUP2 SLOAD DUP2 LT PUSH2 0x1050 JUMPI PUSH2 0x104F PUSH2 0x1E79 JUMP JUMPDEST JUMPDEST SWAP1 PUSH0 MSTORE PUSH1 0x20 PUSH0 KECCAK256 SWAP1 PUSH1 0x3 MUL ADD PUSH1 0x2 ADD PUSH0 DUP2 SLOAD DUP1 SWAP3 SWAP2 SWAP1 PUSH2 0x106F SWAP1 PUSH2 0x23D9 JUMP JUMPDEST SWAP2 SWAP1 POP SSTORE POP CALLVALUE PUSH1 0x6 PUSH0 CALLER PUSH20 0xFFFFFFFFFFFFFFFFFFFFFFFFFFFFFFFFFFFFFFFF AND PUSH20 0xFFFFFFFFFFFFFFFFFFFFFFFFFFFFFFFFFFFFFFFF AND DUP2 MSTORE PUSH1 0x20 ADD SWAP1 DUP2 MSTORE PUSH1 0x20 ADD PUSH0 KECCAK256 PUSH0 ADD PUSH0 DUP3 DUP3 SLOAD PUSH2 0x10C2 SWAP2 SWAP1 PUSH2 0x1BE5 JUMP JUMPDEST SWAP3 POP POP DUP2 SWAP1 SSTORE POP PUSH1 0x1 PUSH1 0x6 PUSH0 CALLER PUSH20 0xFFFFFFFFFFFFFFFFFFFFFFFFFFFFFFFFFFFFFFFF AND PUSH20 0xFFFFFFFFFFFFFFFFFFFFFFFFFFFFFFFFFFFFFFFF AND DUP2 MSTORE PUSH1 0x20 ADD SWAP1 DUP2 MSTORE PUSH1 0x20 ADD PUSH0 KECCAK256 PUSH1 0x1 ADD PUSH0 DUP4 DUP2 MSTORE PUSH1 0x20 ADD SWAP1 DUP2 MSTORE PUSH1 0x20 ADD PUSH0 KECCAK256 PUSH0 PUSH2 0x100 EXP DUP2 SLOAD DUP2 PUSH1 0xFF MUL NOT AND SWAP1 DUP4 ISZERO ISZERO MUL OR SWAP1 SSTORE POP PUSH2 0x1138 PUSH2 0x12F5 JUMP JUMPDEST POP JUMP JUMPDEST PUSH1 0x4 PUSH0 SWAP1 SLOAD SWAP1 PUSH2 0x100 EXP SWAP1 DIV PUSH20 0xFFFFFFFFFFFFFFFFFFFFFFFFFFFFFFFFFFFFFFFF AND PUSH20 0xFFFFFFFFFFFFFFFFFFFFFFFFFFFFFFFFFFFFFFFF AND CALLER PUSH20 0xFFFFFFFFFFFFFFFFFFFFFFFFFFFFFFFFFFFFFFFF AND EQ PUSH2 0x11CA JUMPI PUSH1 0x40 MLOAD PUSH32 0x8C379A000000000000000000000000000000000000000000000000000000000 DUP2 MSTORE PUSH1 0x4 ADD PUSH2 0x11C1 SWAP1 PUSH2 0x1AF1 JUMP JUMPDEST PUSH1 0x40 MLOAD DUP1 SWAP2 SUB SWAP1 REVERT JUMPDEST PUSH1 0x4 PUSH1 0x14 SWAP1 SLOAD SWAP1 PUSH2 0x100 EXP SWAP1 DIV PUSH1 0xFF AND ISZERO PUSH1 0x4 PUSH1 0x14 PUSH2 0x100 EXP DUP2 SLOAD DUP2 PUSH1 0xFF MUL NOT AND SWAP1 DUP4 ISZERO ISZERO MUL OR SWAP1 SSTORE POP JUMP JUMPDEST PUSH1 0x60 PUSH1 0x5 DUP1 SLOAD DUP1 PUSH1 0x20 MUL PUSH1 0x20 ADD PUSH1 0x40 MLOAD SWAP1 DUP2 ADD PUSH1 0x40 MSTORE DUP1 SWAP3 SWAP2 SWAP1 DUP2 DUP2 MSTORE PUSH1 0x20 ADD PUSH0 SWAP1 JUMPDEST DUP3 DUP3 LT ISZERO PUSH2 0x12EC JUMPI DUP4 DUP3 SWAP1 PUSH0 MSTORE PUSH1 0x20 PUSH0 KECCAK256 SWAP1 PUSH1 0x3 MUL ADD PUSH1 0x40 MLOAD DUP1 PUSH1 0x60 ADD PUSH1 0x40 MSTORE SWAP1 DUP2 PUSH0 DUP3 ADD DUP1 SLOAD PUSH2 0x1249 SWAP1 PUSH2 0x1A51 JUMP JUMPDEST DUP1 PUSH1 0x1F ADD PUSH1 0x20 DUP1 SWAP2 DIV MUL PUSH1 0x20 ADD PUSH1 0x40 MLOAD SWAP1 DUP2 ADD PUSH1 0x40 MSTORE DUP1 SWAP3 SWAP2 SWAP1 DUP2 DUP2 MSTORE PUSH1 0x20 ADD DUP3 DUP1 SLOAD PUSH2 0x1275 SWAP1 PUSH2 0x1A51 JUMP JUMPDEST DUP1 ISZERO PUSH2 0x12C0 JUMPI DUP1 PUSH1 0x1F LT PUSH2 0x1297 JUMPI PUSH2 0x100 DUP1 DUP4 SLOAD DIV MUL DUP4 MSTORE SWAP2 PUSH1 0x20 ADD SWAP2 PUSH2 0x12C0 JUMP JUMPDEST DUP3 ADD SWAP2 SWAP1 PUSH0 MSTORE PUSH1 0x20 PUSH0 KECCAK256 SWAP1 JUMPDEST DUP2 SLOAD DUP2 MSTORE SWAP1 PUSH1 0x1 ADD SWAP1 PUSH1 0x20 ADD DUP1 DUP4 GT PUSH2 0x12A3 JUMPI DUP3 SWAP1 SUB PUSH1 0x1F AND DUP3 ADD SWAP2 JUMPDEST POP POP POP POP POP DUP2 MSTORE PUSH1 0x20 ADD PUSH1 0x1 DUP3 ADD SLOAD DUP2 MSTORE PUSH1 0x20 ADD PUSH1 0x2 DUP3 ADD SLOAD DUP2 MSTORE POP POP DUP2 MSTORE PUSH1 0x20 ADD SWAP1 PUSH1 0x1 ADD SWAP1 PUSH2 0x1219 JUMP JUMPDEST POP POP POP POP SWAP1 POP SWAP1 JUMP JUMPDEST PUSH0 PUSH1 0x2 DUP2 GT ISZERO PUSH2 0x1308 JUMPI PUSH2 0x1307 PUSH2 0x155C JUMP JUMPDEST JUMPDEST PUSH1 0x4 PUSH1 0x15 SWAP1 SLOAD SWAP1 PUSH2 0x100 EXP SWAP1 DIV PUSH1 0xFF AND PUSH1 0x2 DUP2 GT ISZERO PUSH2 0x132A JUMPI PUSH2 0x1329 PUSH2 0x155C JUMP JUMPDEST JUMPDEST SUB PUSH2 0x13B8 JUMPI PUSH1 0x3 SLOAD TIMESTAMP LT PUSH2 0x137A JUMPI PUSH1 0x2 SLOAD SELFBALANCE LT ISZERO PUSH2 0x1349 JUMPI PUSH1 0x2 PUSH2 0x134C JUMP JUMPDEST PUSH1 0x1 JUMPDEST PUSH1 0x4 PUSH1 0x15 PUSH2 0x100 EXP DUP2 SLOAD DUP2 PUSH1 0xFF MUL NOT AND SWAP1 DUP4 PUSH1 0x2 DUP2 GT ISZERO PUSH2 0x1370 JUMPI PUSH2 0x136F PUSH2 0x155C JUMP JUMPDEST JUMPDEST MUL OR SWAP1 SSTORE POP PUSH2 0x13B7 JUMP JUMPDEST PUSH1 0x2 SLOAD SELFBALANCE LT ISZERO PUSH2 0x138A JUMPI PUSH0 PUSH2 0x138D JUMP JUMPDEST PUSH1 0x1 JUMPDEST PUSH1 0x4 PUSH1 0x15 PUSH2 0x100 EXP DUP2 SLOAD DUP2 PUSH1 0xFF MUL NOT AND SWAP1 DUP4 PUSH1 0x2 DUP2 GT ISZERO PUSH2 0x13B1 JUMPI PUSH2 0x13B0 PUSH2 0x155C JUMP JUMPDEST JUMPDEST MUL OR SWAP1 SSTORE POP JUMPDEST JUMPDEST JUMP JUMPDEST POP DUP1 SLOAD PUSH2 0x13C6 SWAP1 PUSH2 0x1A51 JUMP JUMPDEST PUSH0 DUP3 SSTORE DUP1 PUSH1 0x1F LT PUSH2 0x13D7 JUMPI POP PUSH2 0x13F4 JUMP JUMPDEST PUSH1 0x1F ADD PUSH1 0x20 SWAP1 DIV SWAP1 PUSH0 MSTORE PUSH1 0x20 PUSH0 KECCAK256 SWAP1 DUP2 ADD SWAP1 PUSH2 0x13F3 SWAP2 SWAP1 PUSH2 0x13F7 JUMP JUMPDEST JUMPDEST POP JUMP JUMPDEST JUMPDEST DUP1 DUP3 GT ISZERO PUSH2 0x140E JUMPI PUSH0 DUP2 PUSH0 SWAP1 SSTORE POP PUSH1 0x1 ADD PUSH2 0x13F8 JUMP JUMPDEST POP SWAP1 JUMP JUMPDEST PUSH0 PUSH1 0x40 MLOAD SWAP1 POP SWAP1 JUMP JUMPDEST PUSH0 DUP1 REVERT JUMPDEST PUSH0 DUP1 REVERT JUMPDEST PUSH0 DUP2 SWAP1 POP SWAP2 SWAP1 POP JUMP JUMPDEST PUSH2 0x1435 DUP2 PUSH2 0x1423 JUMP JUMPDEST DUP2 EQ PUSH2 0x143F JUMPI PUSH0 DUP1 REVERT JUMPDEST POP JUMP JUMPDEST PUSH0 DUP2 CALLDATALOAD SWAP1 POP PUSH2 0x1450 DUP2 PUSH2 0x142C JUMP JUMPDEST SWAP3 SWAP2 POP POP JUMP JUMPDEST PUSH0 PUSH1 0x20 DUP3 DUP5 SUB SLT ISZERO PUSH2 0x146B JUMPI PUSH2 0x146A PUSH2 0x141B JUMP JUMPDEST JUMPDEST PUSH0 PUSH2 0x1478 DUP5 DUP3 DUP6 ADD PUSH2 0x1442 JUMP JUMPDEST SWAP2 POP POP SWAP3 SWAP2 POP POP JUMP JUMPDEST PUSH0 DUP2 MLOAD SWAP1 POP SWAP2 SWAP1 POP JUMP JUMPDEST PUSH0 DUP3 DUP3 MSTORE PUSH1 0x20 DUP3 ADD SWAP1 POP SWAP3 SWAP2 POP POP JUMP JUMPDEST DUP3 DUP2 DUP4 MCOPY PUSH0 DUP4 DUP4 ADD MSTORE POP POP POP JUMP JUMPDEST PUSH0 PUSH1 0x1F NOT PUSH1 0x1F DUP4 ADD AND SWAP1 POP SWAP2 SWAP1 POP JUMP JUMPDEST PUSH0 PUSH2 0x14C3 DUP3 PUSH2 0x1481 JUMP JUMPDEST PUSH2 0x14CD DUP2 DUP6 PUSH2 0x148B JUMP JUMPDEST SWAP4 POP PUSH2 0x14DD DUP2 DUP6 PUSH1 0x20 DUP7 ADD PUSH2 0x149B JUMP JUMPDEST PUSH2 0x14E6 DUP2 PUSH2 0x14A9 JUMP JUMPDEST DUP5 ADD SWAP2 POP POP SWAP3 SWAP2 POP POP JUMP JUMPDEST PUSH2 0x14FA DUP2 PUSH2 0x1423 JUMP JUMPDEST DUP3 MSTORE POP POP JUMP JUMPDEST PUSH0 PUSH1 0x60 DUP3 ADD SWAP1 POP DUP2 DUP2 SUB PUSH0 DUP4 ADD MSTORE PUSH2 0x1518 DUP2 DUP7 PUSH2 0x14B9 JUMP JUMPDEST SWAP1 POP PUSH2 0x1527 PUSH1 0x20 DUP4 ADD DUP6 PUSH2 0x14F1 JUMP JUMPDEST PUSH2 0x1534 PUSH1 0x40 DUP4 ADD DUP5 PUSH2 0x14F1 JUMP JUMPDEST SWAP5 SWAP4 POP POP POP POP JUMP JUMPDEST PUSH0 PUSH1 0x20 DUP3 ADD SWAP1 POP DUP2 DUP2 SUB PUSH0 DUP4 ADD MSTORE PUSH2 0x1554 DUP2 DUP5 PUSH2 0x14B9 JUMP JUMPDEST SWAP1 POP SWAP3 SWAP2 POP POP JUMP JUMPDEST PUSH32 0x4E487B7100000000000000000000000000000000000000000000000000000000 PUSH0 MSTORE PUSH1 0x21 PUSH1 0x4 MSTORE PUSH1 0x24 PUSH0 REVERT JUMPDEST PUSH1 0x3 DUP2 LT PUSH2 0x159A JUMPI PUSH2 0x1599 PUSH2 0x155C JUMP JUMPDEST JUMPDEST POP JUMP JUMPDEST PUSH0 DUP2 SWAP1 POP PUSH2 0x15AA DUP3 PUSH2 0x1589 JUMP JUMPDEST SWAP2 SWAP1 POP JUMP JUMPDEST PUSH0 PUSH2 0x15B9 DUP3 PUSH2 0x159D JUMP JUMPDEST SWAP1 POP SWAP2 SWAP1 POP JUMP JUMPDEST PUSH2 0x15C9 DUP2 PUSH2 0x15AF JUMP JUMPDEST DUP3 MSTORE POP POP JUMP JUMPDEST PUSH0 PUSH1 0x20 DUP3 ADD SWAP1 POP PUSH2 0x15E2 PUSH0 DUP4 ADD DUP5 PUSH2 0x15C0 JUMP JUMPDEST SWAP3 SWAP2 POP POP JUMP JUMPDEST PUSH0 PUSH1 0x20 DUP3 ADD SWAP1 POP PUSH2 0x15FB PUSH0 DUP4 ADD DUP5 PUSH2 0x14F1 JUMP JUMPDEST SWAP3 SWAP2 POP POP JUMP JUMPDEST PUSH0 DUP2 ISZERO ISZERO SWAP1 POP SWAP2 SWAP1 POP JUMP JUMPDEST PUSH2 0x1615 DUP2 PUSH2 0x1601 JUMP JUMPDEST DUP3 MSTORE POP POP JUMP JUMPDEST PUSH0 PUSH1 0x20 DUP3 ADD SWAP1 POP PUSH2 0x162E PUSH0 DUP4 ADD DUP5 PUSH2 0x160C JUMP JUMPDEST SWAP3 SWAP2 POP POP JUMP JUMPDEST PUSH0 PUSH20 0xFFFFFFFFFFFFFFFFFFFFFFFFFFFFFFFFFFFFFFFF DUP3 AND SWAP1 POP SWAP2 SWAP1 POP JUMP JUMPDEST PUSH0 PUSH2 0x165D DUP3 PUSH2 0x1634 JUMP JUMPDEST SWAP1 POP SWAP2 SWAP1 POP JUMP JUMPDEST PUSH2 0x166D DUP2 PUSH2 0x1653 JUMP JUMPDEST DUP2 EQ PUSH2 0x1677 JUMPI PUSH0 DUP1 REVERT JUMPDEST POP JUMP JUMPDEST PUSH0 DUP2 CALLDATALOAD SWAP1 POP PUSH2 0x1688 DUP2 PUSH2 0x1664 JUMP JUMPDEST SWAP3 SWAP2 POP POP JUMP JUMPDEST PUSH0 DUP1 PUSH1 0x40 DUP4 DUP6 SUB SLT ISZERO PUSH2 0x16A4 JUMPI PUSH2 0x16A3 PUSH2 0x141B JUMP JUMPDEST JUMPDEST PUSH0 PUSH2 0x16B1 DUP6 DUP3 DUP7 ADD PUSH2 0x167A JUMP JUMPDEST SWAP3 POP POP PUSH1 0x20 PUSH2 0x16C2 DUP6 DUP3 DUP7 ADD PUSH2 0x1442 JUMP JUMPDEST SWAP2 POP POP SWAP3 POP SWAP3 SWAP1 POP JUMP JUMPDEST PUSH2 0x16D5 DUP2 PUSH2 0x1653 JUMP JUMPDEST DUP3 MSTORE POP POP JUMP JUMPDEST PUSH0 PUSH1 0x20 DUP3 ADD SWAP1 POP PUSH2 0x16EE PUSH0 DUP4 ADD DUP5 PUSH2 0x16CC JUMP JUMPDEST SWAP3 SWAP2 POP POP JUMP JUMPDEST PUSH0 DUP1 REVERT JUMPDEST PUSH0 DUP1 REVERT JUMPDEST PUSH32 0x4E487B7100000000000000000000000000000000000000000000000000000000 PUSH0 MSTORE PUSH1 0x41 PUSH1 0x4 MSTORE PUSH1 0x24 PUSH0 REVERT JUMPDEST PUSH2 0x1732 DUP3 PUSH2 0x14A9 JUMP JUMPDEST DUP2 ADD DUP2 DUP2 LT PUSH8 0xFFFFFFFFFFFFFFFF DUP3 GT OR ISZERO PUSH2 0x1751 JUMPI PUSH2 0x1750 PUSH2 0x16FC JUMP JUMPDEST JUMPDEST DUP1 PUSH1 0x40 MSTORE POP POP POP JUMP JUMPDEST PUSH0 PUSH2 0x1763 PUSH2 0x1412 JUMP JUMPDEST SWAP1 POP PUSH2 0x176F DUP3 DUP3 PUSH2 0x1729 JUMP JUMPDEST SWAP2 SWAP1 POP JUMP JUMPDEST PUSH0 PUSH8 0xFFFFFFFFFFFFFFFF DUP3 GT ISZERO PUSH2 0x178E JUMPI PUSH2 0x178D PUSH2 0x16FC JUMP JUMPDEST JUMPDEST PUSH2 0x1797 DUP3 PUSH2 0x14A9 JUMP JUMPDEST SWAP1 POP PUSH1 0x20 DUP2 ADD SWAP1 POP SWAP2 SWAP1 POP JUMP JUMPDEST DUP3 DUP2 DUP4 CALLDATACOPY PUSH0 DUP4 DUP4 ADD MSTORE POP POP POP JUMP JUMPDEST PUSH0 PUSH2 0x17C4 PUSH2 0x17BF DUP5 PUSH2 0x1774 JUMP JUMPDEST PUSH2 0x175A JUMP JUMPDEST SWAP1 POP DUP3 DUP2 MSTORE PUSH1 0x20 DUP2 ADD DUP5 DUP5 DUP5 ADD GT ISZERO PUSH2 0x17E0 JUMPI PUSH2 0x17DF PUSH2 0x16F8 JUMP JUMPDEST JUMPDEST PUSH2 0x17EB DUP5 DUP3 DUP6 PUSH2 0x17A4 JUMP JUMPDEST POP SWAP4 SWAP3 POP POP POP JUMP JUMPDEST PUSH0 DUP3 PUSH1 0x1F DUP4 ADD SLT PUSH2 0x1807 JUMPI PUSH2 0x1806 PUSH2 0x16F4 JUMP JUMPDEST JUMPDEST DUP2 CALLDATALOAD PUSH2 0x1817 DUP5 DUP3 PUSH1 0x20 DUP7 ADD PUSH2 0x17B2 JUMP JUMPDEST SWAP2 POP POP SWAP3 SWAP2 POP POP JUMP JUMPDEST PUSH0 DUP1 PUSH1 0x40 DUP4 DUP6 SUB SLT ISZERO PUSH2 0x1836 JUMPI PUSH2 0x1835 PUSH2 0x141B JUMP JUMPDEST JUMPDEST PUSH0 DUP4 ADD CALLDATALOAD PUSH8 0xFFFFFFFFFFFFFFFF DUP2 GT ISZERO PUSH2 0x1853 JUMPI PUSH2 0x1852 PUSH2 0x141F JUMP JUMPDEST JUMPDEST PUSH2 0x185F DUP6 DUP3 DUP7 ADD PUSH2 0x17F3 JUMP JUMPDEST SWAP3 POP POP PUSH1 0x20 PUSH2 0x1870 DUP6 DUP3 DUP7 ADD PUSH2 0x1442 JUMP JUMPDEST SWAP2 POP POP SWAP3 POP SWAP3 SWAP1 POP JUMP JUMPDEST PUSH0 PUSH1 0x20 DUP3 DUP5 SUB SLT ISZERO PUSH2 0x188F JUMPI PUSH2 0x188E PUSH2 0x141B JUMP JUMPDEST JUMPDEST PUSH0 PUSH2 0x189C DUP5 DUP3 DUP6 ADD PUSH2 0x167A JUMP JUMPDEST SWAP2 POP POP SWAP3 SWAP2 POP POP JUMP JUMPDEST PUSH0 DUP2 MLOAD SWAP1 POP SWAP2 SWAP1 POP JUMP JUMPDEST PUSH0 DUP3 DUP3 MSTORE PUSH1 0x20 DUP3 ADD SWAP1 POP SWAP3 SWAP2 POP POP JUMP JUMPDEST PUSH0 DUP2 SWAP1 POP PUSH1 0x20 DUP3 ADD SWAP1 POP SWAP2 SWAP1 POP JUMP JUMPDEST PUSH0 DUP3 DUP3 MSTORE PUSH1 0x20 DUP3 ADD SWAP1 POP SWAP3 SWAP2 POP POP JUMP JUMPDEST PUSH0 PUSH2 0x18E8 DUP3 PUSH2 0x1481 JUMP JUMPDEST PUSH2 0x18F2 DUP2 DUP6 PUSH2 0x18CE JUMP JUMPDEST SWAP4 POP PUSH2 0x1902 DUP2 DUP6 PUSH1 0x20 DUP7 ADD PUSH2 0x149B JUMP JUMPDEST PUSH2 0x190B DUP2 PUSH2 0x14A9 JUMP JUMPDEST DUP5 ADD SWAP2 POP POP SWAP3 SWAP2 POP POP JUMP JUMPDEST PUSH2 0x191F DUP2 PUSH2 0x1423 JUMP JUMPDEST DUP3 MSTORE POP POP JUMP JUMPDEST PUSH0 PUSH1 0x60 DUP4 ADD PUSH0 DUP4 ADD MLOAD DUP5 DUP3 SUB PUSH0 DUP7 ADD MSTORE PUSH2 0x193F DUP3 DUP3 PUSH2 0x18DE JUMP JUMPDEST SWAP2 POP POP PUSH1 0x20 DUP4 ADD MLOAD PUSH2 0x1954 PUSH1 0x20 DUP7 ADD DUP3 PUSH2 0x1916 JUMP JUMPDEST POP PUSH1 0x40 DUP4 ADD MLOAD PUSH2 0x1967 PUSH1 0x40 DUP7 ADD DUP3 PUSH2 0x1916 JUMP JUMPDEST POP DUP1 SWAP2 POP POP SWAP3 SWAP2 POP POP JUMP JUMPDEST PUSH0 PUSH2 0x197D DUP4 DUP4 PUSH2 0x1925 JUMP JUMPDEST SWAP1 POP SWAP3 SWAP2 POP POP JUMP JUMPDEST PUSH0 PUSH1 0x20 DUP3 ADD SWAP1 POP SWAP2 SWAP1 POP JUMP JUMPDEST PUSH0 PUSH2 0x199B DUP3 PUSH2 0x18A5 JUMP JUMPDEST PUSH2 0x19A5 DUP2 DUP6 PUSH2 0x18AF JUMP JUMPDEST SWAP4 POP DUP4 PUSH1 0x20 DUP3 MUL DUP6 ADD PUSH2 0x19B7 DUP6 PUSH2 0x18BF JUMP JUMPDEST DUP1 PUSH0 JUMPDEST DUP6 DUP2 LT ISZERO PUSH2 0x19F2 JUMPI DUP5 DUP5 SUB DUP10 MSTORE DUP2 MLOAD PUSH2 0x19D3 DUP6 DUP3 PUSH2 0x1972 JUMP JUMPDEST SWAP5 POP PUSH2 0x19DE DUP4 PUSH2 0x1985 JUMP JUMPDEST SWAP3 POP PUSH1 0x20 DUP11 ADD SWAP10 POP POP PUSH1 0x1 DUP2 ADD SWAP1 POP PUSH2 0x19BA JUMP JUMPDEST POP DUP3 SWAP8 POP DUP8 SWAP6 POP POP POP POP POP POP SWAP3 SWAP2 POP POP JUMP JUMPDEST PUSH0 PUSH1 0x20 DUP3 ADD SWAP1 POP DUP2 DUP2 SUB PUSH0 DUP4 ADD MSTORE PUSH2 0x1A1C DUP2 DUP5 PUSH2 0x1991 JUMP JUMPDEST SWAP1 POP SWAP3 SWAP2 POP POP JUMP JUMPDEST PUSH32 0x4E487B7100000000000000000000000000000000000000000000000000000000 PUSH0 MSTORE PUSH1 0x22 PUSH1 0x4 MSTORE PUSH1 0x24 PUSH0 REVERT JUMPDEST PUSH0 PUSH1 0x2 DUP3 DIV SWAP1 POP PUSH1 0x1 DUP3 AND DUP1 PUSH2 0x1A68 JUMPI PUSH1 0x7F DUP3 AND SWAP2 POP JUMPDEST PUSH1 0x20 DUP3 LT DUP2 SUB PUSH2 0x1A7B JUMPI PUSH2 0x1A7A PUSH2 0x1A24 JUMP JUMPDEST JUMPDEST POP SWAP2 SWAP1 POP JUMP JUMPDEST PUSH32 0x596F7520617265206E6F7420746865206F776E6572206F66207468697320636F PUSH0 DUP3 ADD MSTORE PUSH32 0x6E74726163740000000000000000000000000000000000000000000000000000 PUSH1 0x20 DUP3 ADD MSTORE POP JUMP JUMPDEST PUSH0 PUSH2 0x1ADB PUSH1 0x26 DUP4 PUSH2 0x148B JUMP JUMPDEST SWAP2 POP PUSH2 0x1AE6 DUP3 PUSH2 0x1A81 JUMP JUMPDEST PUSH1 0x40 DUP3 ADD SWAP1 POP SWAP2 SWAP1 POP JUMP JUMPDEST PUSH0 PUSH1 0x20 DUP3 ADD SWAP1 POP DUP2 DUP2 SUB PUSH0 DUP4 ADD MSTORE PUSH2 0x1B08 DUP2 PUSH2 0x1ACF JUMP JUMPDEST SWAP1 POP SWAP2 SWAP1 POP JUMP JUMPDEST PUSH32 0x43616D706169676E206973206E6F742061637469766500000000000000000000 PUSH0 DUP3 ADD MSTORE POP JUMP JUMPDEST PUSH0 PUSH2 0x1B43 PUSH1 0x16 DUP4 PUSH2 0x148B JUMP JUMPDEST SWAP2 POP PUSH2 0x1B4E DUP3 PUSH2 0x1B0F JUMP JUMPDEST PUSH1 0x20 DUP3 ADD SWAP1 POP SWAP2 SWAP1 POP JUMP JUMPDEST PUSH0 PUSH1 0x20 DUP3 ADD SWAP1 POP DUP2 DUP2 SUB PUSH0 DUP4 ADD MSTORE PUSH2 0x1B70 DUP2 PUSH2 0x1B37 JUMP JUMPDEST SWAP1 POP SWAP2 SWAP1 POP JUMP JUMPDEST PUSH32 0x4E487B7100000000000000000000000000000000000000000000000000000000 PUSH0 MSTORE PUSH1 0x11 PUSH1 0x4 MSTORE PUSH1 0x24 PUSH0 REVERT JUMPDEST PUSH0 PUSH2 0x1BAE DUP3 PUSH2 0x1423 JUMP JUMPDEST SWAP2 POP PUSH2 0x1BB9 DUP4 PUSH2 0x1423 JUMP JUMPDEST SWAP3 POP DUP3 DUP3 MUL PUSH2 0x1BC7 DUP2 PUSH2 0x1423 JUMP JUMPDEST SWAP2 POP DUP3 DUP3 DIV DUP5 EQ DUP4 ISZERO OR PUSH2 0x1BDE JUMPI PUSH2 0x1BDD PUSH2 0x1B77 JUMP JUMPDEST JUMPDEST POP SWAP3 SWAP2 POP POP JUMP JUMPDEST PUSH0 PUSH2 0x1BEF DUP3 PUSH2 0x1423 JUMP JUMPDEST SWAP2 POP PUSH2 0x1BFA DUP4 PUSH2 0x1423 JUMP JUMPDEST SWAP3 POP DUP3 DUP3 ADD SWAP1 POP DUP1 DUP3 GT ISZERO PUSH2 0x1C12 JUMPI PUSH2 0x1C11 PUSH2 0x1B77 JUMP JUMPDEST JUMPDEST SWAP3 SWAP2 POP POP JUMP JUMPDEST PUSH32 0x43616D706169676E206973206E6F742073756363657373000000000000000000 PUSH0 DUP3 ADD MSTORE POP JUMP JUMPDEST PUSH0 PUSH2 0x1C4C PUSH1 0x17 DUP4 PUSH2 0x148B JUMP JUMPDEST SWAP2 POP PUSH2 0x1C57 DUP3 PUSH2 0x1C18 JUMP JUMPDEST PUSH1 0x20 DUP3 ADD SWAP1 POP SWAP2 SWAP1 POP JUMP JUMPDEST PUSH0 PUSH1 0x20 DUP3 ADD SWAP1 POP DUP2 DUP2 SUB PUSH0 DUP4 ADD MSTORE PUSH2 0x1C79 DUP2 PUSH2 0x1C40 JUMP JUMPDEST SWAP1 POP SWAP2 SWAP1 POP JUMP JUMPDEST PUSH32 0x4E6F2062616C616E636520746F20776974686472617700000000000000000000 PUSH0 DUP3 ADD MSTORE POP JUMP JUMPDEST PUSH0 PUSH2 0x1CB4 PUSH1 0x16 DUP4 PUSH2 0x148B JUMP JUMPDEST SWAP2 POP PUSH2 0x1CBF DUP3 PUSH2 0x1C80 JUMP JUMPDEST PUSH1 0x20 DUP3 ADD SWAP1 POP SWAP2 SWAP1 POP JUMP JUMPDEST PUSH0 PUSH1 0x20 DUP3 ADD SWAP1 POP DUP2 DUP2 SUB PUSH0 DUP4 ADD MSTORE PUSH2 0x1CE1 DUP2 PUSH2 0x1CA8 JUMP JUMPDEST SWAP1 POP SWAP2 SWAP1 POP JUMP JUMPDEST PUSH32 0x526566756E64206E6F7420656C696769626C6500000000000000000000000000 PUSH0 DUP3 ADD MSTORE POP JUMP JUMPDEST PUSH0 PUSH2 0x1D1C PUSH1 0x13 DUP4 PUSH2 0x148B JUMP JUMPDEST SWAP2 POP PUSH2 0x1D27 DUP3 PUSH2 0x1CE8 JUMP JUMPDEST PUSH1 0x20 DUP3 ADD SWAP1 POP SWAP2 SWAP1 POP JUMP JUMPDEST PUSH0 PUSH1 0x20 DUP3 ADD SWAP1 POP DUP2 DUP2 SUB PUSH0 DUP4 ADD MSTORE PUSH2 0x1D49 DUP2 PUSH2 0x1D10 JUMP JUMPDEST SWAP1 POP SWAP2 SWAP1 POP JUMP JUMPDEST PUSH32 0x436F6E747269627574696F6E206E6F7420666F756E642C20726566756E642066 PUSH0 DUP3 ADD MSTORE PUSH32 0x61696C6564000000000000000000000000000000000000000000000000000000 PUSH1 0x20 DUP3 ADD MSTORE POP JUMP JUMPDEST PUSH0 PUSH2 0x1DAA PUSH1 0x25 DUP4 PUSH2 0x148B JUMP JUMPDEST SWAP2 POP PUSH2 0x1DB5 DUP3 PUSH2 0x1D50 JUMP JUMPDEST PUSH1 0x40 DUP3 ADD SWAP1 POP SWAP2 SWAP1 POP JUMP JUMPDEST PUSH0 PUSH1 0x20 DUP3 ADD SWAP1 POP DUP2 DUP2 SUB PUSH0 DUP4 ADD MSTORE PUSH2 0x1DD7 DUP2 PUSH2 0x1D9E JUMP JUMPDEST SWAP1 POP SWAP2 SWAP1 POP JUMP JUMPDEST PUSH32 0x5469657220646F65736E27742065786973747300000000000000000000000000 PUSH0 DUP3 ADD MSTORE POP JUMP JUMPDEST PUSH0 PUSH2 0x1E12 PUSH1 0x13 DUP4 PUSH2 0x148B JUMP JUMPDEST SWAP2 POP PUSH2 0x1E1D DUP3 PUSH2 0x1DDE JUMP JUMPDEST PUSH1 0x20 DUP3 ADD SWAP1 POP SWAP2 SWAP1 POP JUMP JUMPDEST PUSH0 PUSH1 0x20 DUP3 ADD SWAP1 POP DUP2 DUP2 SUB PUSH0 DUP4 ADD MSTORE PUSH2 0x1E3F DUP2 PUSH2 0x1E06 JUMP JUMPDEST SWAP1 POP SWAP2 SWAP1 POP JUMP JUMPDEST PUSH0 PUSH2 0x1E50 DUP3 PUSH2 0x1423 JUMP JUMPDEST SWAP2 POP PUSH2 0x1E5B DUP4 PUSH2 0x1423 JUMP JUMPDEST SWAP3 POP DUP3 DUP3 SUB SWAP1 POP DUP2 DUP2 GT ISZERO PUSH2 0x1E73 JUMPI PUSH2 0x1E72 PUSH2 0x1B77 JUMP JUMPDEST JUMPDEST SWAP3 SWAP2 POP POP JUMP JUMPDEST PUSH32 0x4E487B7100000000000000000000000000000000000000000000000000000000 PUSH0 MSTORE PUSH1 0x32 PUSH1 0x4 MSTORE PUSH1 0x24 PUSH0 REVERT JUMPDEST PUSH0 DUP2 SLOAD SWAP1 POP PUSH2 0x1EB4 DUP2 PUSH2 0x1A51 JUMP JUMPDEST SWAP1 POP SWAP2 SWAP1 POP JUMP JUMPDEST PUSH0 DUP2 SWAP1 POP DUP2 PUSH0 MSTORE PUSH1 0x20 PUSH0 KECCAK256 SWAP1 POP SWAP2 SWAP1 POP JUMP JUMPDEST PUSH0 PUSH1 0x20 PUSH1 0x1F DUP4 ADD DIV SWAP1 POP SWAP2 SWAP1 POP JUMP JUMPDEST PUSH0 DUP3 DUP3 SHL SWAP1 POP SWAP3 SWAP2 POP POP JUMP JUMPDEST PUSH0 PUSH1 0x8 DUP4 MUL PUSH2 0x1F17 PUSH32 0xFFFFFFFFFFFFFFFFFFFFFFFFFFFFFFFFFFFFFFFFFFFFFFFFFFFFFFFFFFFFFFFF DUP3 PUSH2 0x1EDC JUMP JUMPDEST PUSH2 0x1F21 DUP7 DUP4 PUSH2 0x1EDC JUMP JUMPDEST SWAP6 POP DUP1 NOT DUP5 AND SWAP4 POP DUP1 DUP7 AND DUP5 OR SWAP3 POP POP POP SWAP4 SWAP3 POP POP POP JUMP JUMPDEST PUSH0 DUP2 SWAP1 POP SWAP2 SWAP1 POP JUMP JUMPDEST PUSH0 PUSH2 0x1F5C PUSH2 0x1F57 PUSH2 0x1F52 DUP5 PUSH2 0x1423 JUMP JUMPDEST PUSH2 0x1F39 JUMP JUMPDEST PUSH2 0x1423 JUMP JUMPDEST SWAP1 POP SWAP2 SWAP1 POP JUMP JUMPDEST PUSH0 DUP2 SWAP1 POP SWAP2 SWAP1 POP JUMP JUMPDEST PUSH2 0x1F75 DUP4 PUSH2 0x1F42 JUMP JUMPDEST PUSH2 0x1F89 PUSH2 0x1F81 DUP3 PUSH2 0x1F63 JUMP JUMPDEST DUP5 DUP5 SLOAD PUSH2 0x1EE8 JUMP JUMPDEST DUP3 SSTORE POP POP POP POP JUMP JUMPDEST PUSH0 SWAP1 JUMP JUMPDEST PUSH2 0x1F9D PUSH2 0x1F91 JUMP JUMPDEST PUSH2 0x1FA8 DUP2 DUP5 DUP5 PUSH2 0x1F6C JUMP JUMPDEST POP POP POP JUMP JUMPDEST JUMPDEST DUP2 DUP2 LT ISZERO PUSH2 0x1FCB JUMPI PUSH2 0x1FC0 PUSH0 DUP3 PUSH2 0x1F95 JUMP JUMPDEST PUSH1 0x1 DUP2 ADD SWAP1 POP PUSH2 0x1FAE JUMP JUMPDEST POP POP JUMP JUMPDEST PUSH1 0x1F DUP3 GT ISZERO PUSH2 0x2010 JUMPI PUSH2 0x1FE1 DUP2 PUSH2 0x1EBB JUMP JUMPDEST PUSH2 0x1FEA DUP5 PUSH2 0x1ECD JUMP JUMPDEST DUP2 ADD PUSH1 0x20 DUP6 LT ISZERO PUSH2 0x1FF9 JUMPI DUP2 SWAP1 POP JUMPDEST PUSH2 0x200D PUSH2 0x2005 DUP6 PUSH2 0x1ECD JUMP JUMPDEST DUP4 ADD DUP3 PUSH2 0x1FAD JUMP JUMPDEST POP POP JUMPDEST POP POP POP JUMP JUMPDEST PUSH0 DUP3 DUP3 SHR SWAP1 POP SWAP3 SWAP2 POP POP JUMP JUMPDEST PUSH0 PUSH2 0x2030 PUSH0 NOT DUP5 PUSH1 0x8 MUL PUSH2 0x2015 JUMP JUMPDEST NOT DUP1 DUP4 AND SWAP2 POP POP SWAP3 SWAP2 POP POP JUMP JUMPDEST PUSH0 PUSH2 0x2048 DUP4 DUP4 PUSH2 0x2021 JUMP JUMPDEST SWAP2 POP DUP3 PUSH1 0x2 MUL DUP3 OR SWAP1 POP SWAP3 SWAP2 POP POP JUMP JUMPDEST DUP2 DUP2 SUB PUSH2 0x2066 JUMPI POP POP PUSH2 0x213B JUMP JUMPDEST PUSH2 0x206F DUP3 PUSH2 0x1EA6 JUMP JUMPDEST PUSH8 0xFFFFFFFFFFFFFFFF DUP2 GT ISZERO PUSH2 0x2088 JUMPI PUSH2 0x2087 PUSH2 0x16FC JUMP JUMPDEST JUMPDEST PUSH2 0x2092 DUP3 SLOAD PUSH2 0x1A51 JUMP JUMPDEST PUSH2 0x209D DUP3 DUP3 DUP6 PUSH2 0x1FCF JUMP JUMPDEST PUSH0 PUSH1 0x1F DUP4 GT PUSH1 0x1 DUP2 EQ PUSH2 0x20CA JUMPI PUSH0 DUP5 ISZERO PUSH2 0x20B8 JUMPI DUP3 DUP8 ADD SLOAD SWAP1 POP JUMPDEST PUSH2 0x20C2 DUP6 DUP3 PUSH2 0x203D JUMP JUMPDEST DUP7 SSTORE POP PUSH2 0x2134 JUMP JUMPDEST PUSH1 0x1F NOT DUP5 AND PUSH2 0x20D8 DUP8 PUSH2 0x1EBB JUMP JUMPDEST SWAP7 POP PUSH2 0x20E3 DUP7 PUSH2 0x1EBB JUMP JUMPDEST PUSH0 JUMPDEST DUP3 DUP2 LT ISZERO PUSH2 0x210A JUMPI DUP5 DUP10 ADD SLOAD DUP3 SSTORE PUSH1 0x1 DUP3 ADD SWAP2 POP PUSH1 0x1 DUP6 ADD SWAP5 POP PUSH1 0x20 DUP2 ADD SWAP1 POP PUSH2 0x20E5 JUMP JUMPDEST DUP7 DUP4 LT ISZERO PUSH2 0x2127 JUMPI DUP5 DUP10 ADD SLOAD PUSH2 0x2123 PUSH1 0x1F DUP10 AND DUP3 PUSH2 0x2021 JUMP JUMPDEST DUP4 SSTORE POP JUMPDEST PUSH1 0x1 PUSH1 0x2 DUP9 MUL ADD DUP9 SSTORE POP POP POP JUMPDEST POP POP POP POP POP POP JUMPDEST JUMP JUMPDEST PUSH32 0x4E487B7100000000000000000000000000000000000000000000000000000000 PUSH0 MSTORE PUSH1 0x31 PUSH1 0x4 MSTORE PUSH1 0x24 PUSH0 REVERT JUMPDEST PUSH32 0x416D6F756E74206D757374206265206772656174657220746861746E20300000 PUSH0 DUP3 ADD MSTORE POP JUMP JUMPDEST PUSH0 PUSH2 0x219E PUSH1 0x1E DUP4 PUSH2 0x148B JUMP JUMPDEST SWAP2 POP PUSH2 0x21A9 DUP3 PUSH2 0x216A JUMP JUMPDEST PUSH1 0x20 DUP3 ADD SWAP1 POP SWAP2 SWAP1 POP JUMP JUMPDEST PUSH0 PUSH1 0x20 DUP3 ADD SWAP1 POP DUP2 DUP2 SUB PUSH0 DUP4 ADD MSTORE PUSH2 0x21CB DUP2 PUSH2 0x2192 JUMP JUMPDEST SWAP1 POP SWAP2 SWAP1 POP JUMP JUMPDEST PUSH2 0x21DB DUP3 PUSH2 0x1481 JUMP JUMPDEST PUSH8 0xFFFFFFFFFFFFFFFF DUP2 GT ISZERO PUSH2 0x21F4 JUMPI PUSH2 0x21F3 PUSH2 0x16FC JUMP JUMPDEST JUMPDEST PUSH2 0x21FE DUP3 SLOAD PUSH2 0x1A51 JUMP JUMPDEST PUSH2 0x2209 DUP3 DUP3 DUP6 PUSH2 0x1FCF JUMP JUMPDEST PUSH0 PUSH1 0x20 SWAP1 POP PUSH1 0x1F DUP4 GT PUSH1 0x1 DUP2 EQ PUSH2 0x223A JUMPI PUSH0 DUP5 ISZERO PUSH2 0x2228 JUMPI DUP3 DUP8 ADD MLOAD SWAP1 POP JUMPDEST PUSH2 0x2232 DUP6 DUP3 PUSH2 0x203D JUMP JUMPDEST DUP7 SSTORE POP PUSH2 0x2299 JUMP JUMPDEST PUSH1 0x1F NOT DUP5 AND PUSH2 0x2248 DUP7 PUSH2 0x1EBB JUMP JUMPDEST PUSH0 JUMPDEST DUP3 DUP2 LT ISZERO PUSH2 0x226F JUMPI DUP5 DUP10 ADD MLOAD DUP3 SSTORE PUSH1 0x1 DUP3 ADD SWAP2 POP PUSH1 0x20 DUP6 ADD SWAP5 POP PUSH1 0x20 DUP2 ADD SWAP1 POP PUSH2 0x224A JUMP JUMPDEST DUP7 DUP4 LT ISZERO PUSH2 0x228C JUMPI DUP5 DUP10 ADD MLOAD PUSH2 0x2288 PUSH1 0x1F DUP10 AND DUP3 PUSH2 0x2021 JUMP JUMPDEST DUP4 SSTORE POP JUMPDEST PUSH1 0x1 PUSH1 0x2 DUP9 MUL ADD DUP9 SSTORE POP POP POP JUMPDEST POP POP POP POP POP POP JUMP JUMPDEST PUSH32 0x436F6E7472616374206973207061757365642E00000000000000000000000000 PUSH0 DUP3 ADD MSTORE POP JUMP JUMPDEST PUSH0 PUSH2 0x22D5 PUSH1 0x13 DUP4 PUSH2 0x148B JUMP JUMPDEST SWAP2 POP PUSH2 0x22E0 DUP3 PUSH2 0x22A1 JUMP JUMPDEST PUSH1 0x20 DUP3 ADD SWAP1 POP SWAP2 SWAP1 POP JUMP JUMPDEST PUSH0 PUSH1 0x20 DUP3 ADD SWAP1 POP DUP2 DUP2 SUB PUSH0 DUP4 ADD MSTORE PUSH2 0x2302 DUP2 PUSH2 0x22C9 JUMP JUMPDEST SWAP1 POP SWAP2 SWAP1 POP JUMP JUMPDEST PUSH32 0x496E76616C696420746965720000000000000000000000000000000000000000 PUSH0 DUP3 ADD MSTORE POP JUMP JUMPDEST PUSH0 PUSH2 0x233D PUSH1 0xC DUP4 PUSH2 0x148B JUMP JUMPDEST SWAP2 POP PUSH2 0x2348 DUP3 PUSH2 0x2309 JUMP JUMPDEST PUSH1 0x20 DUP3 ADD SWAP1 POP SWAP2 SWAP1 POP JUMP JUMPDEST PUSH0 PUSH1 0x20 DUP3 ADD SWAP1 POP DUP2 DUP2 SUB PUSH0 DUP4 ADD MSTORE PUSH2 0x236A DUP2 PUSH2 0x2331 JUMP JUMPDEST SWAP1 POP SWAP2 SWAP1 POP JUMP JUMPDEST PUSH32 0x496E636F727265637420616D6F756E7400000000000000000000000000000000 PUSH0 DUP3 ADD MSTORE POP JUMP JUMPDEST PUSH0 PUSH2 0x23A5 PUSH1 0x10 DUP4 PUSH2 0x148B JUMP JUMPDEST SWAP2 POP PUSH2 0x23B0 DUP3 PUSH2 0x2371 JUMP JUMPDEST PUSH1 0x20 DUP3 ADD SWAP1 POP SWAP2 SWAP1 POP JUMP JUMPDEST PUSH0 PUSH1 0x20 DUP3 ADD SWAP1 POP DUP2 DUP2 SUB PUSH0 DUP4 ADD MSTORE PUSH2 0x23D2 DUP2 PUSH2 0x2399 JUMP JUMPDEST SWAP1 POP SWAP2 SWAP1 POP JUMP JUMPDEST PUSH0 PUSH2 0x23E3 DUP3 PUSH2 0x1423 JUMP JUMPDEST SWAP2 POP PUSH32 0xFFFFFFFFFFFFFFFFFFFFFFFFFFFFFFFFFFFFFFFFFFFFFFFFFFFFFFFFFFFFFFFF DUP3 SUB PUSH2 0x2415 JUMPI PUSH2 0x2414 PUSH2 0x1B77 JUMP JUMPDEST JUMPDEST PUSH1 0x1 DUP3 ADD SWAP1 POP SWAP2 SWAP1 POP JUMP INVALID LOG2 PUSH5 0x6970667358 0x22 SLT KECCAK256 JUMP 0xEC PUSH14 0xF97A121366797340C064A439A0CD 0xBD 0xD9 0x2A RETURNDATASIZE DUP9 0xED 0xCF 0x26 0x4C SIGNEXTEND 0x26 0xB6 CREATE2 0xBD PUSH27 0x64736F6C634300081A003300000000000000000000000000000000 "
				},
				"gasEstimates": {
					"creation": {
						"codeDepositCost": "1860400",
						"executionCost": "infinite",
						"totalCost": "infinite"
					},
					"external": {
						"addTier(string,uint256)": "infinite",
						"backers(address)": "2837",
						"deadline()": "2515",
						"description()": "infinite",
						"extendDeadline(uint256)": "infinite",
						"fund(uint256)": "infinite",
						"getCampaignStatus()": "7075",
						"getContractBalance()": "445",
						"getTiers()": "infinite",
						"goal()": "2470",
						"hasFundedTier(address,uint256)": "3190",
						"name()": "infinite",
						"owner()": "2597",
						"paused()": "2606",
						"refund()": "infinite",
						"removeTier(uint256)": "infinite",
						"state()": "2649",
						"tiers(uint256)": "infinite",
						"tooglePause()": "28906",
						"withdraw()": "infinite"
					},
					"internal": {
						"checkAndUpdateCampaignState()": "30878"
					}
				},
				"methodIdentifiers": {
					"addTier(string,uint256)": "8ece7b91",
					"backers(address)": "b85dfb80",
					"deadline()": "29dcb0cf",
					"description()": "7284e416",
					"extendDeadline(uint256)": "389b7533",
					"fund(uint256)": "ca1d209d",
					"getCampaignStatus()": "10550515",
					"getContractBalance()": "6f9fb98a",
					"getTiers()": "de170570",
					"goal()": "40193883",
					"hasFundedTier(address,uint256)": "7adba527",
					"name()": "06fdde03",
					"owner()": "8da5cb5b",
					"paused()": "5c975abb",
					"refund()": "590e1ae3",
					"removeTier(uint256)": "7497211b",
					"state()": "c19d93fb",
					"tiers(uint256)": "039af9eb",
					"tooglePause()": "d621a776",
					"withdraw()": "3ccfd60b"
				}
			},
			"storageLayout": {
				"storage": [
					{
						"astId": 3,
						"contract": "contracts/Crowdfunding.sol:Crowdfunding",
						"label": "name",
						"offset": 0,
						"slot": "0",
						"type": "t_string_storage"
					},
					{
						"astId": 5,
						"contract": "contracts/Crowdfunding.sol:Crowdfunding",
						"label": "description",
						"offset": 0,
						"slot": "1",
						"type": "t_string_storage"
					},
					{
						"astId": 7,
						"contract": "contracts/Crowdfunding.sol:Crowdfunding",
						"label": "goal",
						"offset": 0,
						"slot": "2",
						"type": "t_uint256"
					},
					{
						"astId": 9,
						"contract": "contracts/Crowdfunding.sol:Crowdfunding",
						"label": "deadline",
						"offset": 0,
						"slot": "3",
						"type": "t_uint256"
					},
					{
						"astId": 11,
						"contract": "contracts/Crowdfunding.sol:Crowdfunding",
						"label": "owner",
						"offset": 0,
						"slot": "4",
						"type": "t_address"
					},
					{
						"astId": 13,
						"contract": "contracts/Crowdfunding.sol:Crowdfunding",
						"label": "paused",
						"offset": 20,
						"slot": "4",
						"type": "t_bool"
					},
					{
						"astId": 20,
						"contract": "contracts/Crowdfunding.sol:Crowdfunding",
						"label": "state",
						"offset": 21,
						"slot": "4",
						"type": "t_enum(CampaignState)17"
					},
					{
						"astId": 38,
						"contract": "contracts/Crowdfunding.sol:Crowdfunding",
						"label": "tiers",
						"offset": 0,
						"slot": "5",
						"type": "t_array(t_struct(Tier)27_storage)dyn_storage"
					},
					{
						"astId": 43,
						"contract": "contracts/Crowdfunding.sol:Crowdfunding",
						"label": "backers",
						"offset": 0,
						"slot": "6",
						"type": "t_mapping(t_address,t_struct(Backer)34_storage)"
					}
				],
				"types": {
					"t_address": {
						"encoding": "inplace",
						"label": "address",
						"numberOfBytes": "20"
					},
					"t_array(t_struct(Tier)27_storage)dyn_storage": {
						"base": "t_struct(Tier)27_storage",
						"encoding": "dynamic_array",
						"label": "struct Crowdfunding.Tier[]",
						"numberOfBytes": "32"
					},
					"t_bool": {
						"encoding": "inplace",
						"label": "bool",
						"numberOfBytes": "1"
					},
					"t_enum(CampaignState)17": {
						"encoding": "inplace",
						"label": "enum Crowdfunding.CampaignState",
						"numberOfBytes": "1"
					},
					"t_mapping(t_address,t_struct(Backer)34_storage)": {
						"encoding": "mapping",
						"key": "t_address",
						"label": "mapping(address => struct Crowdfunding.Backer)",
						"numberOfBytes": "32",
						"value": "t_struct(Backer)34_storage"
					},
					"t_mapping(t_uint256,t_bool)": {
						"encoding": "mapping",
						"key": "t_uint256",
						"label": "mapping(uint256 => bool)",
						"numberOfBytes": "32",
						"value": "t_bool"
					},
					"t_string_storage": {
						"encoding": "bytes",
						"label": "string",
						"numberOfBytes": "32"
					},
					"t_struct(Backer)34_storage": {
						"encoding": "inplace",
						"label": "struct Crowdfunding.Backer",
						"members": [
							{
								"astId": 29,
								"contract": "contracts/Crowdfunding.sol:Crowdfunding",
								"label": "totalContribution",
								"offset": 0,
								"slot": "0",
								"type": "t_uint256"
							},
							{
								"astId": 33,
								"contract": "contracts/Crowdfunding.sol:Crowdfunding",
								"label": "fundedTiers",
								"offset": 0,
								"slot": "1",
								"type": "t_mapping(t_uint256,t_bool)"
							}
						],
						"numberOfBytes": "64"
					},
					"t_struct(Tier)27_storage": {
						"encoding": "inplace",
						"label": "struct Crowdfunding.Tier",
						"members": [
							{
								"astId": 22,
								"contract": "contracts/Crowdfunding.sol:Crowdfunding",
								"label": "name",
								"offset": 0,
								"slot": "0",
								"type": "t_string_storage"
							},
							{
								"astId": 24,
								"contract": "contracts/Crowdfunding.sol:Crowdfunding",
								"label": "amount",
								"offset": 0,
								"slot": "1",
								"type": "t_uint256"
							},
							{
								"astId": 26,
								"contract": "contracts/Crowdfunding.sol:Crowdfunding",
								"label": "backers",
								"offset": 0,
								"slot": "2",
								"type": "t_uint256"
							}
						],
						"numberOfBytes": "96"
					},
					"t_uint256": {
						"encoding": "inplace",
						"label": "uint256",
						"numberOfBytes": "32"
					}
				}
			},
			"userdoc": {
				"kind": "user",
				"methods": {},
				"version": 1
			}
		}
	}
}